{
  "address": "0xbcE1b660Ee52F5b378b7A8f0e01A3dd4EC5c590A",
  "abi": [
    {
      "inputs": [
        {
          "components": [
            {
              "internalType": "uint256",
              "name": "tokenId",
              "type": "uint256"
            },
            {
              "internalType": "uint16",
              "name": "primaryHue",
              "type": "uint16"
            },
            {
              "internalType": "uint16",
              "name": "secondaryHue",
              "type": "uint16"
            },
            {
              "internalType": "uint256",
              "name": "starSeed",
              "type": "uint256"
            },
            {
              "internalType": "uint256",
              "name": "funkSeed",
              "type": "uint256"
            },
            {
              "internalType": "uint256",
              "name": "circleSeed",
              "type": "uint256"
            },
            {
              "internalType": "uint256",
              "name": "groundSeed",
              "type": "uint256"
            },
            {
              "internalType": "uint256",
              "name": "constellationSeed",
              "type": "uint256"
            }
          ],
          "internalType": "struct Color.DNA",
          "name": "dna",
          "type": "tuple"
        },
        {
          "internalType": "uint256",
          "name": "gazes",
          "type": "uint256"
        },
        {
          "internalType": "bool",
          "name": "daytime",
          "type": "bool"
        },
        {
          "internalType": "uint8",
          "name": "cloudDays",
          "type": "uint8"
        },
        {
          "internalType": "address",
          "name": "decorator",
          "type": "address"
        }
      ],
      "name": "generateSVG",
      "outputs": [
        {
          "internalType": "string",
          "name": "",
          "type": "string"
        }
      ],
      "stateMutability": "view",
      "type": "function"
    },
    {
      "inputs": [
        {
          "internalType": "bool",
          "name": "day",
          "type": "bool"
        }
      ],
      "name": "getBackgrounds",
      "outputs": [
        {
          "internalType": "string",
          "name": "",
          "type": "string"
        }
      ],
      "stateMutability": "pure",
      "type": "function"
    },
    {
      "inputs": [
        {
          "internalType": "uint256",
          "name": "seed",
          "type": "uint256"
        }
      ],
      "name": "getFilters",
      "outputs": [
        {
          "internalType": "string",
          "name": "",
          "type": "string"
        }
      ],
      "stateMutability": "pure",
      "type": "function"
    },
    {
      "inputs": [
        {
          "internalType": "uint256",
          "name": "seed",
          "type": "uint256"
        },
        {
          "components": [
            {
              "internalType": "uint16",
              "name": "H",
              "type": "uint16"
            },
            {
              "internalType": "uint16",
              "name": "S",
              "type": "uint16"
            },
            {
              "internalType": "uint16",
              "name": "L",
              "type": "uint16"
            }
          ],
          "internalType": "struct Color.HSL",
          "name": "primary",
          "type": "tuple"
        },
        {
          "components": [
            {
              "internalType": "uint16",
              "name": "H",
              "type": "uint16"
            },
            {
              "internalType": "uint16",
              "name": "S",
              "type": "uint16"
            },
            {
              "internalType": "uint16",
              "name": "L",
              "type": "uint16"
            }
          ],
          "internalType": "struct Color.HSL",
          "name": "secondary",
          "type": "tuple"
        },
        {
          "internalType": "uint8",
          "name": "cloudDays",
          "type": "uint8"
        }
      ],
      "name": "getGradients",
      "outputs": [
        {
          "internalType": "string",
          "name": "",
          "type": "string"
        }
      ],
      "stateMutability": "pure",
      "type": "function"
    },
    {
      "inputs": [
        {
          "internalType": "uint256",
          "name": "starSeed",
          "type": "uint256"
        },
        {
          "internalType": "uint256",
          "name": "gazes",
          "type": "uint256"
        },
        {
          "internalType": "bool",
          "name": "daytime",
          "type": "bool"
        }
      ],
      "name": "getStars",
      "outputs": [
        {
          "internalType": "string",
          "name": "",
          "type": "string"
        }
      ],
      "stateMutability": "pure",
      "type": "function"
    },
    {
      "inputs": [
        {
          "internalType": "uint256",
          "name": "tokenId",
          "type": "uint256"
        },
        {
          "internalType": "uint256",
          "name": "nonce",
          "type": "uint256"
        }
      ],
      "name": "psuedorandom",
      "outputs": [
        {
          "internalType": "uint256",
          "name": "",
          "type": "uint256"
        }
      ],
      "stateMutability": "pure",
      "type": "function"
    },
    {
      "inputs": [
        {
          "internalType": "uint16",
          "name": "first",
          "type": "uint16"
        },
        {
          "internalType": "uint16",
          "name": "second",
          "type": "uint16"
        }
      ],
      "name": "subZero",
      "outputs": [
        {
          "internalType": "uint16",
          "name": "",
          "type": "uint16"
        }
      ],
      "stateMutability": "pure",
      "type": "function"
    }
  ],
  "transactionHash": "0xb5a69a5ed883772b97e3314ad67ebea73552776190cf8a07760776512b39d618",
  "args": [],
  "numDeployments": 1,
  "solcInputHash": "61a30903f028c99a8baa7851d2870e78",
  "bytecode": "0x608060405234801561001057600080fd5b50612b5b806100206000396000f3fe608060405234801561001057600080fd5b506004361061007d5760003560e01c80633a20c8791161005b5780633a20c879146100e4578063428f5eb6146101055780636e6e0cf014610118578063a1759dfa1461012b57600080fd5b8063075d103714610082578063176a29a5146100ab5780633329f04f146100be575b600080fd5b610095610090366004611514565b61013e565b6040516100a291906115b4565b60405180910390f35b6100956100b93660046115d7565b610731565b6100d16100cc3660046115f2565b610919565b60405161ffff90911681526020016100a2565b6100f76100f236600461162b565b6109bd565b6040519081526020016100a2565b610095610113366004611664565b610a3b565b610095610126366004611734565b610b3d565b61009561013936600461174d565b610d96565b604051633a20c87960e01b815260048101859052607b602482015260609060009073384ad7A74153FC21467BC77cac5528DcA0c56F4f90631b0d4b4d90602d908390633a20c87990604401602060405180830381865af41580156101a6573d6000803e3d6000fd5b505050506040513d601f19601f820116820180604052508101906101ca9190611782565b6101d4919061179b565b6040516001600160e01b031960e084901b16815261ffff9091166004820152602401600060405180830381865af4158015610213573d6000803e3d6000fd5b505050506040513d6000823e601f3d908101601f1916820160405261023b91908101906117bd565b90506000816040516020016102509190611886565b60408051601f19818403018152908290526303f1727f60e21b82529150819073384ad7A74153FC21467BC77cac5528DcA0c56F4f90630fc5c9fc90610299908990600401611918565b600060405180830381865af41580156102b6573d6000803e3d6000fd5b505050506040513d6000823e601f3d908101601f191682016040526102de91908101906117bd565b6040516020016102ef929190611943565b60408051601f19818403018152908290526303f1727f60e21b82529150819073384ad7A74153FC21467BC77cac5528DcA0c56F4f90630fc5c9fc90610338908a90600401611918565b600060405180830381865af4158015610355573d6000803e3d6000fd5b505050506040513d6000823e601f3d908101601f1916820160405261037d91908101906117bd565b60405160200161038e9291906119c1565b6040516020818303038152906040529050808273384ad7A74153FC21467BC77cac5528DcA0c56F4f631b0d4b4d8760ff166000146103cc57876103cf565b60015b6040516001600160e01b031960e084901b16815260ff9091166004820152602401600060405180830381865af415801561040d573d6000803e3d6000fd5b505050506040513d6000823e601f3d908101601f1916820160405261043591908101906117bd565b73384ad7A74153FC21467BC77cac5528DcA0c56F4f631b0d4b4d60ff89161561045e5788610461565b60015b6040516001600160e01b031960e084901b16815260ff9091166004820152602401600060405180830381865af415801561049f573d6000803e3d6000fd5b505050506040513d6000823e601f3d908101601f191682016040526104c791908101906117bd565b6040516020016104da9493929190611a40565b60408051601f19818403018152908290527fd9081a58000000000000000000000000000000000000000000000000000000008252915060009073384ad7A74153FC21467BC77cac5528DcA0c56F4f9063d9081a5890610540908a9060f090600401611be9565b606060405180830381865af415801561055d573d6000803e3d6000fd5b505050506040513d601f19601f820116820180604052508101906105819190611c25565b605a604080830191909152516303f1727f60e21b8152909150829073384ad7A74153FC21467BC77cac5528DcA0c56F4f90630fc5c9fc906105c6908590600401611918565b600060405180830381865af41580156105e3573d6000803e3d6000fd5b505050506040513d6000823e601f3d908101601f1916820160405261060b91908101906117bd565b73384ad7A74153FC21467BC77cac5528DcA0c56F4f630fc5c9fc73384ad7A74153FC21467BC77cac5528DcA0c56F4f63d9081a588c60b46040518363ffffffff1660e01b815260040161065f929190611be9565b606060405180830381865af415801561067c573d6000803e3d6000fd5b505050506040513d601f19601f820116820180604052508101906106a09190611c25565b6040518263ffffffff1660e01b81526004016106bc9190611918565b600060405180830381865af41580156106d9573d6000803e3d6000fd5b505050506040513d6000823e601f3d908101601f1916820160405261070191908101906117bd565b60405160200161071393929190611c79565b60408051601f1981840301815291905293505050505b949350505050565b60408051602081019091526000815260609073384ad7A74153FC21467BC77cac5528DcA0c56F4f631b0d4b4d8461076957600161076c565b60005b6040516001600160e01b031960e084901b16815260ff9091166004820152602401600060405180830381865af41580156107aa573d6000803e3d6000fd5b505050506040513d6000823e601f3d908101601f191682016040526107d291908101906117bd565b73384ad7A74153FC21467BC77cac5528DcA0c56F4f631b0d4b4d856107f85760006107fb565b60015b6040516001600160e01b031960e084901b16815260ff9091166004820152602401600060405180830381865af4158015610839573d6000803e3d6000fd5b505050506040513d6000823e601f3d908101601f1916820160405261086191908101906117bd565b73384ad7A74153FC21467BC77cac5528DcA0c56F4f631b0d4b4d8661088757600761088a565b60005b6040516001600160e01b031960e084901b16815260ff9091166004820152602401600060405180830381865af41580156108c8573d6000803e3d6000fd5b505050506040513d6000823e601f3d908101601f191682016040526108f091908101906117bd565b60405160200161090293929190611d98565b60408051601f198184030181529190529392505050565b6040517f3329f04f00000000000000000000000000000000000000000000000000000000815261ffff80841660048301528216602482015260009073384ad7A74153FC21467BC77cac5528DcA0c56F4f90633329f04f90604401602060405180830381865af4158015610990573d6000803e3d6000fd5b505050506040513d601f19601f820116820180604052508101906109b49190611f6f565b90505b92915050565b604051633a20c87960e01b8152600481018390526024810182905260009073384ad7A74153FC21467BC77cac5528DcA0c56F4f90633a20c87990604401602060405180830381865af4158015610a17573d6000803e3d6000fd5b505050506040513d601f19601f820116820180604052508101906109b49190611782565b604080516060818101835260208089015161ffff90811684526064828501819052601e858701819052865180860188528c8801518416815280850192909252818701528551808701909652601586527f436f6c6f72732061726520257320616e64202573200000000000000000000000928601929092528351825193959293610ac993929182169116611190565b6000610adb896060015184848961013e565b610ae88a60800151610b3d565b610af189610731565b610b008c606001518c8c610d96565b610b0c898e8e8e61120a565b604051602001610b20959493929190611f8c565b60408051808303601f190181529190529998505050505050505050565b60408051602081018252600081529051633a20c87960e01b815260048101839052607b602482015260609190819073384ad7A74153FC21467BC77cac5528DcA0c56F4f90631b0d4b4d90612710908390633a20c87990604401602060405180830381865af4158015610bb3573d6000803e3d6000fd5b505050506040513d601f19601f82011682018060405250810190610bd79190611782565b610be1919061179b565b6040516001600160e01b031960e084901b16815261ffff9091166004820152602401600060405180830381865af4158015610c20573d6000803e3d6000fd5b505050506040513d6000823e601f3d908101601f19168201604052610c4891908101906117bd565b604051602001610c599291906120fb565b60408051601f1981840301815290829052633a20c87960e01b825260048201859052607b60248301529150819073384ad7A74153FC21467BC77cac5528DcA0c56F4f90631b0d4b4d90612710908390633a20c87990604401602060405180830381865af4158015610cce573d6000803e3d6000fd5b505050506040513d601f19601f82011682018060405250810190610cf29190611782565b610cfc919061179b565b6040516001600160e01b031960e084901b16815261ffff9091166004820152602401600060405180830381865af4158015610d3b573d6000803e3d6000fd5b505050506040513d6000823e601f3d908101601f19168201604052610d6391908101906117bd565b604051602001610d749291906121fc565b60405160208183030381529060405290508060405160200161090291906123ee565b60608115610db35750604080516020810190915260008152611189565b6000601e841115610dc65750601e610dc9565b50825b604080518082018252601081527f3c672066696c6c3d227768697465223e0000000000000000000000000000000060208083019190915282518082018452600080825284519283019094528382529192805b8560ff168160ff16101561116057604051633a20c87960e01b8152600481018b905260ff8216602482015273384ad7A74153FC21467BC77cac5528DcA0c56F4f90631b0d4b4d906101ce908390633a20c87990604401602060405180830381865af4158015610e8e573d6000803e3d6000fd5b505050506040513d601f19601f82011682018060405250810190610eb29190611782565b610ebc919061179b565b610ec790601961259d565b6040516001600160e01b031960e084901b16815261ffff9091166004820152602401600060405180830381865af4158015610f06573d6000803e3d6000fd5b505050506040513d6000823e601f3d908101601f19168201604052610f2e91908101906117bd565b604051633a20c87960e01b8152600481018c905260ff838116602483015291955073384ad7A74153FC21467BC77cac5528DcA0c56F4f91631b0d4b4d918390633a20c87990604401602060405180830381865af4158015610f93573d6000803e3d6000fd5b505050506040513d601f19601f82011682018060405250810190610fb79190611782565b610fc1919061179b565b610fcc90601961259d565b6040516001600160e01b031960e084901b16815261ffff9091166004820152602401600060405180830381865af415801561100b573d6000803e3d6000fd5b505050506040513d6000823e601f3d908101601f1916820160405261103391908101906117bd565b604051633a20c87960e01b8152600481018c905260ff8316602482015290935060039073384ad7A74153FC21467BC77cac5528DcA0c56F4f90633a20c87990604401602060405180830381865af4158015611092573d6000803e3d6000fd5b505050506040513d601f19601f820116820180604052508101906110b69190611782565b6110c0919061179b565b91508160ff166000036110f8578484846040516020016110e2939291906125bf565b604051602081830303815290604052945061114e565b8160ff16600103611118578484846040516020016110e2939291906126b5565b8160ff1660020361114e57848484868660405160200161113c95949392919061283e565b60405160208183030381529060405294505b80611158816129d6565b915050610e1b565b508360405160200161117291906129f5565b604051602081830303815290604052955050505050505b9392505050565b6112058383836040516024016111a893929190612a36565b60408051601f198184030181529190526020810180517bffffffffffffffffffffffffffffffffffffffffffffffffffffffff167fca47c4eb00000000000000000000000000000000000000000000000000000000179052611268565b505050565b606061121885858585611289565b61122486868686611348565b61123087878787611289565b61123c888888886113b8565b60405160200161124f9493929190612a5b565b6040516020818303038152906040529050949350505050565b80516a636f6e736f6c652e6c6f67602083016000808483855afa5050505050565b60606001600160a01b0385166112ae5750604080516020810190915260008152610729565b6040517fe519084400000000000000000000000000000000000000000000000000000000815285906001600160a01b0382169063e5190844906112f990889088908890600401612ab2565b600060405180830381865afa158015611316573d6000803e3d6000fd5b505050506040513d6000823e601f3d908101601f1916820160405261133e91908101906117bd565b9695505050505050565b60606001600160a01b03851661136d5750604080516020810190915260008152610729565b6040517f9402055500000000000000000000000000000000000000000000000000000000815285906001600160a01b038216906394020555906112f990889088908890600401612ab2565b60606001600160a01b0385166113dd5750604080516020810190915260008152610729565b6040517fbcefc12900000000000000000000000000000000000000000000000000000000815285906001600160a01b0382169063bcefc129906112f990889088908890600401612ab2565b634e487b7160e01b600052604160045260246000fd5b6040516060810167ffffffffffffffff8111828210171561146157611461611428565b60405290565b604051610100810167ffffffffffffffff8111828210171561146157611461611428565b61ffff8116811461149b57600080fd5b50565b80356114a98161148b565b919050565b6000606082840312156114c057600080fd5b6114c861143e565b905081356114d58161148b565b815260208201356114e58161148b565b602082015260408201356114f88161148b565b604082015292915050565b803560ff811681146114a957600080fd5b600080600080610100858703121561152b57600080fd5b8435935061153c86602087016114ae565b925061154b86608087016114ae565b915061155960e08601611503565b905092959194509250565b60005b8381101561157f578181015183820152602001611567565b50506000910152565b600081518084526115a0816020860160208601611564565b601f01601f19169290920160200192915050565b6020815260006109b46020830184611588565b803580151581146114a957600080fd5b6000602082840312156115e957600080fd5b6109b4826115c7565b6000806040838503121561160557600080fd5b82356116108161148b565b915060208301356116208161148b565b809150509250929050565b6000806040838503121561163e57600080fd5b50508035926020909101359150565b80356001600160a01b03811681146114a957600080fd5b600080600080600085870361018081121561167e57600080fd5b6101008082121561168e57600080fd5b611696611467565b91508735825260208801356116aa8161148b565b60208301526116bb6040890161149e565b6040830152606088013560608301526080880135608083015260a088013560a083015260c088013560c083015260e088013560e0830152819650808801359550505061170a61012087016115c7565b92506117196101408701611503565b9150611728610160870161164d565b90509295509295909350565b60006020828403121561174657600080fd5b5035919050565b60008060006060848603121561176257600080fd5b8335925060208401359150611779604085016115c7565b90509250925092565b60006020828403121561179457600080fd5b5051919050565b6000826117b857634e487b7160e01b600052601260045260246000fd5b500690565b6000602082840312156117cf57600080fd5b815167ffffffffffffffff808211156117e757600080fd5b818401915084601f8301126117fb57600080fd5b81518181111561180d5761180d611428565b604051601f8201601f19908116603f0116810190838211818310171561183557611835611428565b8160405282815287602084870101111561184e57600080fd5b61185f836020830160208801611564565b979650505050505050565b6000815161187c818560208601611564565b9290920192915050565b7f3c6c696e6561724772616469656e742069643d22736b794772616469656e742281527f206772616469656e745472616e73666f726d3d22726f746174652800000000006020820152600082516118e481603b850160208701611564565b7f29223e0000000000000000000000000000000000000000000000000000000000603b939091019283015250603e01919050565b606081016109b78284805161ffff908116835260208083015182169084015260409182015116910152565b60008351611955818460208801611564565b7f3c73746f70206f66667365743d223025220000000000000000000000000000009083019081526c1039ba37b816b1b7b637b91e9160991b601182015283516119a581601e840160208801611564565b6211179f60e91b601e9290910191820152602101949350505050565b600083516119d3818460208801611564565b80830190507f3c73746f70206f66667365743d2231303025220000000000000000000000000081526c1039ba37b816b1b7b637b91e9160991b60138201528351611a24816020840160208801611564565b6211179f60e91b60209290910191820152602301949350505050565b60008551611a52818460208a01611564565b80830190507f3c2f6c696e6561724772616469656e743e3c6c696e6561724772616469656e7481527f2069643d22636c6f75644772616469656e7422206772616469656e745472616e60208201527f73666f726d3d22726f746174652800000000000000000000000000000000000060408201528551611ad981604e840160208a01611564565b7f29223e3c73746f702073746f702d6f7061636974793d222e0000000000000000604e92909101918201528451611b17816066840160208901611564565b7f22206f66667365743d22313525222f3e3c73746f702073746f702d6f70616369606692909101918201527f74793d222e3522206f66667365743d22333025222f3e0000000000000000000060868201527f3c73746f702073746f702d6f7061636974793d222e0000000000000000000000609c8201528351611ba18160b1840160208801611564565b611bdd60b1828401017f22206f66667365743d22353025222f3e3c2f6c696e6561724772616469656e748152601f60f91b602082015260210190565b98975050505050505050565b60808101611c148285805161ffff908116835260208083015182169084015260409182015116910152565b61ffff831660608301529392505050565b600060608284031215611c3757600080fd5b611c3f61143e565b8251611c4a8161148b565b81526020830151611c5a8161148b565b60208201526040830151611c6d8161148b565b60408201529392505050565b60008451611c8b818460208901611564565b80830190507f3c6c696e6561724772616469656e742069643d226461794772616469656e742281527f206772616469656e745472616e73666f726d3d22726f7461746528313329223e60208201527f3c73746f70206f66667365743d223025222073746f702d636f6c6f723d22000060408201528451611d1281605e840160208901611564565b8082019150506211179f60e91b80605e8301527f3c73746f70206f66667365743d2231303025222073746f702d636f6c6f723d2260618301528451611d5e816081850160208901611564565b60819201918201527f3c2f6c696e6561724772616469656e743e000000000000000000000000000000608482015260950195945050505050565b7f3c726563742077696474683d223130302522206865696768743d22313030252281527f2066696c7465723d2275726c282373746172732922206f7061636974793d2200602082015260008451611df681603f850160208901611564565b6211179f60e91b603f918401918201527f3c706174682066696c6c3d2275726c28236461794772616469656e742922206460428201527f3d224d302030683531327635313248307a22206f7061636974793d220000000060628201528451611e6581607e840160208901611564565b7f22202066696c7465723d2275726c28236c6967687429222f3e00000000000000607e92909101918201527f3c706174682066696c6c3d2275726c2823736b794772616469656e742922202060978201527f643d224d302030683531327635313248307a22206f7061636974793d222e000060b7820152611ee960d582018561186a565b6211179f60e91b815290507f3c706174682066696c6c3d2275726c2823636c6f75644772616469656e74292260038201527f2066696c7465723d2275726c2823636c6f756473292220643d224d302030683560238201527f36357635313248307a222f3e00000000000000000000000000000000000000006043820152604f810161133e565b600060208284031215611f8157600080fd5b81516111898161148b565b7f3c7376672076696577426f783d2230203020353132203531322220786d6c6e7381527f3d22687474703a2f2f7777772e77332e6f72672f323030302f737667223e3c6360208201527f6c6970506174682069643d22626f78223e3c7061746820643d224d302030683560408201527f31327635313248307a222f3e3c2f636c6970506174683e3c646566733e00000060608201526000865161203681607d850160208b01611564565b86519083019061204d81607d840160208b01611564565b7f3c2f646566733e3c7376672076696577426f783d223020302035313220353132607d92909101918201527f2220636c69702d706174683d2275726c2823626f7829223e0000000000000000609d82015285516120b18160b5840160208a01611564565b6120c96120c360b5838501018861186a565b8661186a565b9150506120de81651e17b9bb339f60d11b9052565b651e17b9bb339f60d11b6006820152600c01979650505050505050565b6000835161210d818460208801611564565b80830190507f3c66696c7465722069643d227374617273223e3c666554757262756c656e636581527f20626173654672657175656e63793d222e33352220736565643d2200000000006020820152835161216e81603b840160208801611564565b6211179f60e91b603b92909101918201527f3c6665436f6c6f724d61747269782076616c7565733d2230203020302039202d603e8201527f342030203020302039202d342030203020302039202d34203020302030203020605e8201527f31222f3e3c2f66696c7465723e00000000000000000000000000000000000000607e820152608b01949350505050565b6000835161220e818460208801611564565b80830190507f3c66696c7465722069643d22636c6f7564732220783d222d3530252220793d2281527f2d35302522206865696768743d2232303025222077696474683d22323030252260208201527f3e3c6665476175737369616e426c757220696e3d22736b79222073746444657660408201527f696174696f6e3d2232302220726573756c743d22736b79626c7572222f3e000060608201527f3c666554757262756c656e636520747970653d226672616374616c4e6f697365607e8201527f2220626173654672657175656e63793d222e303122206e756d4f637461766573609e8201527f3d22352220726573756c743d22736b796e6f6973652220736565643d2200000060be820152835161232d8160db840160208801611564565b6211179f60e91b910160db81018290527f3c6665436f6c6f724d61747269782076616c7565733d2231203020302030203060de8201527f20312030203020302030203120302030203020302033202d31202d312030203060fe82015261011e8101919091527f3c6665436f6d706f73697465206f70657261746f723d22696e2220696e323d226101218201527f536f7572636547726170686963222f3e3c2f66696c7465723e0000000000000061014182015261015a810195945050505050565b60008251612400818460208701611564565b7f3c66696c7465722069643d226c69676874223e3c666553706563756c61724c699201918252507f676874696e6720726573756c743d22737065634f7574222073706563756c617260208201527f4578706f6e656e743d2231303022206c69676874696e672d636f6c6f723d227760408201527f68697465223e000000000000000000000000000000000000000000000000000060608201527f3c6665506f696e744c6967687420783d2231302220793d22373022207a3d223360668201527f3030222f3e3c2f666553706563756c61724c69676874696e673e00000000000060868201527f3c6665436f6d706f7369746520696e3d22536f7572636547726170686963222060a08201527f696e323d22737065634f757422206f70657261746f723d2261726974686d657460c08201527f696322206b313d223022206b323d223122206b333d223122206b343d2230222f60e08201527f3e3c2f66696c7465723e0000000000000000000000000000000000000000000061010082015261010a01919050565b634e487b7160e01b600052601160045260246000fd5b61ffff8181168382160190808211156125b8576125b8612587565b5092915050565b600084516125d1818460208901611564565b7f3c636972636c6520723d2231222063783d220000000000000000000000000000908301908152845161260b816012840160208901611564565b65111031bc9e9160d11b601292909101918201528351612632816018840160208801611564565b7f222066696c6c3d2277686974652220206f7061636974793d2231223e00000000601892909101918201527f3c616e696d617465206174747269627574654e616d653d2272222076616c756560348201527f733d22303b333b3122206475723d223173222f3e3c2f636972636c653e000000605482015260710195945050505050565b600084516126c7818460208901611564565b7f3c7061746820643d224d20000000000000000000000000000000000000000000908301908152845161270181600b840160208901611564565b7f2c00000000000000000000000000000000000000000000000000000000000000600b9290910191820152835161273f81600c840160208801611564565b7f6320372c3020372c3020372c2d37206320302c3720302c3720372c372063202d600c92909101918201527f372c30202d372c30202d372c37206320302c2d3720302c2d37202d372c2d3722602c820152601f60f91b604c8201527f3c616e696d6174655472616e73666f726d206174747269627574654e616d653d604d8201527f227472616e73666f726d2220747970653d227363616c65222066726f6d3d2230606d8201527f20302220746f3d223120312220626567696e3d22307322206475723d22302e35608d8201527f732220726570656174436f756e743d2231222f3e3c2f706174683e000000000060ad82015260c80195945050505050565b60008651612850818460208b01611564565b7f3c636972636c6520723d2233222063783d220000000000000000000000000000908301908152865161288a816012840160208b01611564565b65111031bc9e9160d11b6012929091019182015285516128b1816018840160208a01611564565b7f22206f7061636974793d22302e33223e3c616e696d6174652061747472696275601892909101918201527f74654e616d653d2272222076616c7565733d22303b353b3322206475723d223160388201527f73222f3e3c2f636972636c653e0000000000000000000000000000000000000060588201527f3c636972636c6520723d2231222063783d22000000000000000000000000000060658201528451612961816077840160208901611564565b016129776077820165111031bc9e9160d11b9052565b611bdd612987607d83018661186a565b7f223e3c616e696d617465206174747269627574654e616d653d2272222076616c81527f7565733d22303b333b3122206475723d223173222f3e3c2f636972636c653e006020820152603f0190565b600060ff821660ff81036129ec576129ec612587565b60010192915050565b60008251612a07818460208701611564565b7f3c2f673e00000000000000000000000000000000000000000000000000000000920191825250600401919050565b606081526000612a496060830186611588565b60208301949094525060400152919050565b60008551612a6d818460208a01611564565b855190830190612a81818360208a01611564565b8551910190612a94818360208901611564565b8451910190612aa7818360208801611564565b019695505050505050565b60006101408201905084518252602085015161ffff80821660208501528060408801511660408501525050606085015160608301526080850151608083015260a085015160a083015260c085015160c083015260e085015160e0830152836101008301526107296101208301841515905256fea2646970667358221220087decb74e5abed375bb7866e4a829fefada66e066e5a0de528bb11ca5932eb564736f6c63430008120033",
  "deployedBytecode": "0x608060405234801561001057600080fd5b506004361061007d5760003560e01c80633a20c8791161005b5780633a20c879146100e4578063428f5eb6146101055780636e6e0cf014610118578063a1759dfa1461012b57600080fd5b8063075d103714610082578063176a29a5146100ab5780633329f04f146100be575b600080fd5b610095610090366004611514565b61013e565b6040516100a291906115b4565b60405180910390f35b6100956100b93660046115d7565b610731565b6100d16100cc3660046115f2565b610919565b60405161ffff90911681526020016100a2565b6100f76100f236600461162b565b6109bd565b6040519081526020016100a2565b610095610113366004611664565b610a3b565b610095610126366004611734565b610b3d565b61009561013936600461174d565b610d96565b604051633a20c87960e01b815260048101859052607b602482015260609060009073__$11e21e6c56ca563b85c74e3fd3a08242f9$__90631b0d4b4d90602d908390633a20c87990604401602060405180830381865af41580156101a6573d6000803e3d6000fd5b505050506040513d601f19601f820116820180604052508101906101ca9190611782565b6101d4919061179b565b6040516001600160e01b031960e084901b16815261ffff9091166004820152602401600060405180830381865af4158015610213573d6000803e3d6000fd5b505050506040513d6000823e601f3d908101601f1916820160405261023b91908101906117bd565b90506000816040516020016102509190611886565b60408051601f19818403018152908290526303f1727f60e21b82529150819073__$11e21e6c56ca563b85c74e3fd3a08242f9$__90630fc5c9fc90610299908990600401611918565b600060405180830381865af41580156102b6573d6000803e3d6000fd5b505050506040513d6000823e601f3d908101601f191682016040526102de91908101906117bd565b6040516020016102ef929190611943565b60408051601f19818403018152908290526303f1727f60e21b82529150819073__$11e21e6c56ca563b85c74e3fd3a08242f9$__90630fc5c9fc90610338908a90600401611918565b600060405180830381865af4158015610355573d6000803e3d6000fd5b505050506040513d6000823e601f3d908101601f1916820160405261037d91908101906117bd565b60405160200161038e9291906119c1565b6040516020818303038152906040529050808273__$11e21e6c56ca563b85c74e3fd3a08242f9$__631b0d4b4d8760ff166000146103cc57876103cf565b60015b6040516001600160e01b031960e084901b16815260ff9091166004820152602401600060405180830381865af415801561040d573d6000803e3d6000fd5b505050506040513d6000823e601f3d908101601f1916820160405261043591908101906117bd565b73__$11e21e6c56ca563b85c74e3fd3a08242f9$__631b0d4b4d60ff89161561045e5788610461565b60015b6040516001600160e01b031960e084901b16815260ff9091166004820152602401600060405180830381865af415801561049f573d6000803e3d6000fd5b505050506040513d6000823e601f3d908101601f191682016040526104c791908101906117bd565b6040516020016104da9493929190611a40565b60408051601f19818403018152908290527fd9081a58000000000000000000000000000000000000000000000000000000008252915060009073__$11e21e6c56ca563b85c74e3fd3a08242f9$__9063d9081a5890610540908a9060f090600401611be9565b606060405180830381865af415801561055d573d6000803e3d6000fd5b505050506040513d601f19601f820116820180604052508101906105819190611c25565b605a604080830191909152516303f1727f60e21b8152909150829073__$11e21e6c56ca563b85c74e3fd3a08242f9$__90630fc5c9fc906105c6908590600401611918565b600060405180830381865af41580156105e3573d6000803e3d6000fd5b505050506040513d6000823e601f3d908101601f1916820160405261060b91908101906117bd565b73__$11e21e6c56ca563b85c74e3fd3a08242f9$__630fc5c9fc73__$11e21e6c56ca563b85c74e3fd3a08242f9$__63d9081a588c60b46040518363ffffffff1660e01b815260040161065f929190611be9565b606060405180830381865af415801561067c573d6000803e3d6000fd5b505050506040513d601f19601f820116820180604052508101906106a09190611c25565b6040518263ffffffff1660e01b81526004016106bc9190611918565b600060405180830381865af41580156106d9573d6000803e3d6000fd5b505050506040513d6000823e601f3d908101601f1916820160405261070191908101906117bd565b60405160200161071393929190611c79565b60408051601f1981840301815291905293505050505b949350505050565b60408051602081019091526000815260609073__$11e21e6c56ca563b85c74e3fd3a08242f9$__631b0d4b4d8461076957600161076c565b60005b6040516001600160e01b031960e084901b16815260ff9091166004820152602401600060405180830381865af41580156107aa573d6000803e3d6000fd5b505050506040513d6000823e601f3d908101601f191682016040526107d291908101906117bd565b73__$11e21e6c56ca563b85c74e3fd3a08242f9$__631b0d4b4d856107f85760006107fb565b60015b6040516001600160e01b031960e084901b16815260ff9091166004820152602401600060405180830381865af4158015610839573d6000803e3d6000fd5b505050506040513d6000823e601f3d908101601f1916820160405261086191908101906117bd565b73__$11e21e6c56ca563b85c74e3fd3a08242f9$__631b0d4b4d8661088757600761088a565b60005b6040516001600160e01b031960e084901b16815260ff9091166004820152602401600060405180830381865af41580156108c8573d6000803e3d6000fd5b505050506040513d6000823e601f3d908101601f191682016040526108f091908101906117bd565b60405160200161090293929190611d98565b60408051601f198184030181529190529392505050565b6040517f3329f04f00000000000000000000000000000000000000000000000000000000815261ffff80841660048301528216602482015260009073__$11e21e6c56ca563b85c74e3fd3a08242f9$__90633329f04f90604401602060405180830381865af4158015610990573d6000803e3d6000fd5b505050506040513d601f19601f820116820180604052508101906109b49190611f6f565b90505b92915050565b604051633a20c87960e01b8152600481018390526024810182905260009073__$11e21e6c56ca563b85c74e3fd3a08242f9$__90633a20c87990604401602060405180830381865af4158015610a17573d6000803e3d6000fd5b505050506040513d601f19601f820116820180604052508101906109b49190611782565b604080516060818101835260208089015161ffff90811684526064828501819052601e858701819052865180860188528c8801518416815280850192909252818701528551808701909652601586527f436f6c6f72732061726520257320616e64202573200000000000000000000000928601929092528351825193959293610ac993929182169116611190565b6000610adb896060015184848961013e565b610ae88a60800151610b3d565b610af189610731565b610b008c606001518c8c610d96565b610b0c898e8e8e61120a565b604051602001610b20959493929190611f8c565b60408051808303601f190181529190529998505050505050505050565b60408051602081018252600081529051633a20c87960e01b815260048101839052607b602482015260609190819073__$11e21e6c56ca563b85c74e3fd3a08242f9$__90631b0d4b4d90612710908390633a20c87990604401602060405180830381865af4158015610bb3573d6000803e3d6000fd5b505050506040513d601f19601f82011682018060405250810190610bd79190611782565b610be1919061179b565b6040516001600160e01b031960e084901b16815261ffff9091166004820152602401600060405180830381865af4158015610c20573d6000803e3d6000fd5b505050506040513d6000823e601f3d908101601f19168201604052610c4891908101906117bd565b604051602001610c599291906120fb565b60408051601f1981840301815290829052633a20c87960e01b825260048201859052607b60248301529150819073__$11e21e6c56ca563b85c74e3fd3a08242f9$__90631b0d4b4d90612710908390633a20c87990604401602060405180830381865af4158015610cce573d6000803e3d6000fd5b505050506040513d601f19601f82011682018060405250810190610cf29190611782565b610cfc919061179b565b6040516001600160e01b031960e084901b16815261ffff9091166004820152602401600060405180830381865af4158015610d3b573d6000803e3d6000fd5b505050506040513d6000823e601f3d908101601f19168201604052610d6391908101906117bd565b604051602001610d749291906121fc565b60405160208183030381529060405290508060405160200161090291906123ee565b60608115610db35750604080516020810190915260008152611189565b6000601e841115610dc65750601e610dc9565b50825b604080518082018252601081527f3c672066696c6c3d227768697465223e0000000000000000000000000000000060208083019190915282518082018452600080825284519283019094528382529192805b8560ff168160ff16101561116057604051633a20c87960e01b8152600481018b905260ff8216602482015273__$11e21e6c56ca563b85c74e3fd3a08242f9$__90631b0d4b4d906101ce908390633a20c87990604401602060405180830381865af4158015610e8e573d6000803e3d6000fd5b505050506040513d601f19601f82011682018060405250810190610eb29190611782565b610ebc919061179b565b610ec790601961259d565b6040516001600160e01b031960e084901b16815261ffff9091166004820152602401600060405180830381865af4158015610f06573d6000803e3d6000fd5b505050506040513d6000823e601f3d908101601f19168201604052610f2e91908101906117bd565b604051633a20c87960e01b8152600481018c905260ff838116602483015291955073__$11e21e6c56ca563b85c74e3fd3a08242f9$__91631b0d4b4d918390633a20c87990604401602060405180830381865af4158015610f93573d6000803e3d6000fd5b505050506040513d601f19601f82011682018060405250810190610fb79190611782565b610fc1919061179b565b610fcc90601961259d565b6040516001600160e01b031960e084901b16815261ffff9091166004820152602401600060405180830381865af415801561100b573d6000803e3d6000fd5b505050506040513d6000823e601f3d908101601f1916820160405261103391908101906117bd565b604051633a20c87960e01b8152600481018c905260ff8316602482015290935060039073__$11e21e6c56ca563b85c74e3fd3a08242f9$__90633a20c87990604401602060405180830381865af4158015611092573d6000803e3d6000fd5b505050506040513d601f19601f820116820180604052508101906110b69190611782565b6110c0919061179b565b91508160ff166000036110f8578484846040516020016110e2939291906125bf565b604051602081830303815290604052945061114e565b8160ff16600103611118578484846040516020016110e2939291906126b5565b8160ff1660020361114e57848484868660405160200161113c95949392919061283e565b60405160208183030381529060405294505b80611158816129d6565b915050610e1b565b508360405160200161117291906129f5565b604051602081830303815290604052955050505050505b9392505050565b6112058383836040516024016111a893929190612a36565b60408051601f198184030181529190526020810180517bffffffffffffffffffffffffffffffffffffffffffffffffffffffff167fca47c4eb00000000000000000000000000000000000000000000000000000000179052611268565b505050565b606061121885858585611289565b61122486868686611348565b61123087878787611289565b61123c888888886113b8565b60405160200161124f9493929190612a5b565b6040516020818303038152906040529050949350505050565b80516a636f6e736f6c652e6c6f67602083016000808483855afa5050505050565b60606001600160a01b0385166112ae5750604080516020810190915260008152610729565b6040517fe519084400000000000000000000000000000000000000000000000000000000815285906001600160a01b0382169063e5190844906112f990889088908890600401612ab2565b600060405180830381865afa158015611316573d6000803e3d6000fd5b505050506040513d6000823e601f3d908101601f1916820160405261133e91908101906117bd565b9695505050505050565b60606001600160a01b03851661136d5750604080516020810190915260008152610729565b6040517f9402055500000000000000000000000000000000000000000000000000000000815285906001600160a01b038216906394020555906112f990889088908890600401612ab2565b60606001600160a01b0385166113dd5750604080516020810190915260008152610729565b6040517fbcefc12900000000000000000000000000000000000000000000000000000000815285906001600160a01b0382169063bcefc129906112f990889088908890600401612ab2565b634e487b7160e01b600052604160045260246000fd5b6040516060810167ffffffffffffffff8111828210171561146157611461611428565b60405290565b604051610100810167ffffffffffffffff8111828210171561146157611461611428565b61ffff8116811461149b57600080fd5b50565b80356114a98161148b565b919050565b6000606082840312156114c057600080fd5b6114c861143e565b905081356114d58161148b565b815260208201356114e58161148b565b602082015260408201356114f88161148b565b604082015292915050565b803560ff811681146114a957600080fd5b600080600080610100858703121561152b57600080fd5b8435935061153c86602087016114ae565b925061154b86608087016114ae565b915061155960e08601611503565b905092959194509250565b60005b8381101561157f578181015183820152602001611567565b50506000910152565b600081518084526115a0816020860160208601611564565b601f01601f19169290920160200192915050565b6020815260006109b46020830184611588565b803580151581146114a957600080fd5b6000602082840312156115e957600080fd5b6109b4826115c7565b6000806040838503121561160557600080fd5b82356116108161148b565b915060208301356116208161148b565b809150509250929050565b6000806040838503121561163e57600080fd5b50508035926020909101359150565b80356001600160a01b03811681146114a957600080fd5b600080600080600085870361018081121561167e57600080fd5b6101008082121561168e57600080fd5b611696611467565b91508735825260208801356116aa8161148b565b60208301526116bb6040890161149e565b6040830152606088013560608301526080880135608083015260a088013560a083015260c088013560c083015260e088013560e0830152819650808801359550505061170a61012087016115c7565b92506117196101408701611503565b9150611728610160870161164d565b90509295509295909350565b60006020828403121561174657600080fd5b5035919050565b60008060006060848603121561176257600080fd5b8335925060208401359150611779604085016115c7565b90509250925092565b60006020828403121561179457600080fd5b5051919050565b6000826117b857634e487b7160e01b600052601260045260246000fd5b500690565b6000602082840312156117cf57600080fd5b815167ffffffffffffffff808211156117e757600080fd5b818401915084601f8301126117fb57600080fd5b81518181111561180d5761180d611428565b604051601f8201601f19908116603f0116810190838211818310171561183557611835611428565b8160405282815287602084870101111561184e57600080fd5b61185f836020830160208801611564565b979650505050505050565b6000815161187c818560208601611564565b9290920192915050565b7f3c6c696e6561724772616469656e742069643d22736b794772616469656e742281527f206772616469656e745472616e73666f726d3d22726f746174652800000000006020820152600082516118e481603b850160208701611564565b7f29223e0000000000000000000000000000000000000000000000000000000000603b939091019283015250603e01919050565b606081016109b78284805161ffff908116835260208083015182169084015260409182015116910152565b60008351611955818460208801611564565b7f3c73746f70206f66667365743d223025220000000000000000000000000000009083019081526c1039ba37b816b1b7b637b91e9160991b601182015283516119a581601e840160208801611564565b6211179f60e91b601e9290910191820152602101949350505050565b600083516119d3818460208801611564565b80830190507f3c73746f70206f66667365743d2231303025220000000000000000000000000081526c1039ba37b816b1b7b637b91e9160991b60138201528351611a24816020840160208801611564565b6211179f60e91b60209290910191820152602301949350505050565b60008551611a52818460208a01611564565b80830190507f3c2f6c696e6561724772616469656e743e3c6c696e6561724772616469656e7481527f2069643d22636c6f75644772616469656e7422206772616469656e745472616e60208201527f73666f726d3d22726f746174652800000000000000000000000000000000000060408201528551611ad981604e840160208a01611564565b7f29223e3c73746f702073746f702d6f7061636974793d222e0000000000000000604e92909101918201528451611b17816066840160208901611564565b7f22206f66667365743d22313525222f3e3c73746f702073746f702d6f70616369606692909101918201527f74793d222e3522206f66667365743d22333025222f3e0000000000000000000060868201527f3c73746f702073746f702d6f7061636974793d222e0000000000000000000000609c8201528351611ba18160b1840160208801611564565b611bdd60b1828401017f22206f66667365743d22353025222f3e3c2f6c696e6561724772616469656e748152601f60f91b602082015260210190565b98975050505050505050565b60808101611c148285805161ffff908116835260208083015182169084015260409182015116910152565b61ffff831660608301529392505050565b600060608284031215611c3757600080fd5b611c3f61143e565b8251611c4a8161148b565b81526020830151611c5a8161148b565b60208201526040830151611c6d8161148b565b60408201529392505050565b60008451611c8b818460208901611564565b80830190507f3c6c696e6561724772616469656e742069643d226461794772616469656e742281527f206772616469656e745472616e73666f726d3d22726f7461746528313329223e60208201527f3c73746f70206f66667365743d223025222073746f702d636f6c6f723d22000060408201528451611d1281605e840160208901611564565b8082019150506211179f60e91b80605e8301527f3c73746f70206f66667365743d2231303025222073746f702d636f6c6f723d2260618301528451611d5e816081850160208901611564565b60819201918201527f3c2f6c696e6561724772616469656e743e000000000000000000000000000000608482015260950195945050505050565b7f3c726563742077696474683d223130302522206865696768743d22313030252281527f2066696c7465723d2275726c282373746172732922206f7061636974793d2200602082015260008451611df681603f850160208901611564565b6211179f60e91b603f918401918201527f3c706174682066696c6c3d2275726c28236461794772616469656e742922206460428201527f3d224d302030683531327635313248307a22206f7061636974793d220000000060628201528451611e6581607e840160208901611564565b7f22202066696c7465723d2275726c28236c6967687429222f3e00000000000000607e92909101918201527f3c706174682066696c6c3d2275726c2823736b794772616469656e742922202060978201527f643d224d302030683531327635313248307a22206f7061636974793d222e000060b7820152611ee960d582018561186a565b6211179f60e91b815290507f3c706174682066696c6c3d2275726c2823636c6f75644772616469656e74292260038201527f2066696c7465723d2275726c2823636c6f756473292220643d224d302030683560238201527f36357635313248307a222f3e00000000000000000000000000000000000000006043820152604f810161133e565b600060208284031215611f8157600080fd5b81516111898161148b565b7f3c7376672076696577426f783d2230203020353132203531322220786d6c6e7381527f3d22687474703a2f2f7777772e77332e6f72672f323030302f737667223e3c6360208201527f6c6970506174682069643d22626f78223e3c7061746820643d224d302030683560408201527f31327635313248307a222f3e3c2f636c6970506174683e3c646566733e00000060608201526000865161203681607d850160208b01611564565b86519083019061204d81607d840160208b01611564565b7f3c2f646566733e3c7376672076696577426f783d223020302035313220353132607d92909101918201527f2220636c69702d706174683d2275726c2823626f7829223e0000000000000000609d82015285516120b18160b5840160208a01611564565b6120c96120c360b5838501018861186a565b8661186a565b9150506120de81651e17b9bb339f60d11b9052565b651e17b9bb339f60d11b6006820152600c01979650505050505050565b6000835161210d818460208801611564565b80830190507f3c66696c7465722069643d227374617273223e3c666554757262756c656e636581527f20626173654672657175656e63793d222e33352220736565643d2200000000006020820152835161216e81603b840160208801611564565b6211179f60e91b603b92909101918201527f3c6665436f6c6f724d61747269782076616c7565733d2230203020302039202d603e8201527f342030203020302039202d342030203020302039202d34203020302030203020605e8201527f31222f3e3c2f66696c7465723e00000000000000000000000000000000000000607e820152608b01949350505050565b6000835161220e818460208801611564565b80830190507f3c66696c7465722069643d22636c6f7564732220783d222d3530252220793d2281527f2d35302522206865696768743d2232303025222077696474683d22323030252260208201527f3e3c6665476175737369616e426c757220696e3d22736b79222073746444657660408201527f696174696f6e3d2232302220726573756c743d22736b79626c7572222f3e000060608201527f3c666554757262756c656e636520747970653d226672616374616c4e6f697365607e8201527f2220626173654672657175656e63793d222e303122206e756d4f637461766573609e8201527f3d22352220726573756c743d22736b796e6f6973652220736565643d2200000060be820152835161232d8160db840160208801611564565b6211179f60e91b910160db81018290527f3c6665436f6c6f724d61747269782076616c7565733d2231203020302030203060de8201527f20312030203020302030203120302030203020302033202d31202d312030203060fe82015261011e8101919091527f3c6665436f6d706f73697465206f70657261746f723d22696e2220696e323d226101218201527f536f7572636547726170686963222f3e3c2f66696c7465723e0000000000000061014182015261015a810195945050505050565b60008251612400818460208701611564565b7f3c66696c7465722069643d226c69676874223e3c666553706563756c61724c699201918252507f676874696e6720726573756c743d22737065634f7574222073706563756c617260208201527f4578706f6e656e743d2231303022206c69676874696e672d636f6c6f723d227760408201527f68697465223e000000000000000000000000000000000000000000000000000060608201527f3c6665506f696e744c6967687420783d2231302220793d22373022207a3d223360668201527f3030222f3e3c2f666553706563756c61724c69676874696e673e00000000000060868201527f3c6665436f6d706f7369746520696e3d22536f7572636547726170686963222060a08201527f696e323d22737065634f757422206f70657261746f723d2261726974686d657460c08201527f696322206b313d223022206b323d223122206b333d223122206b343d2230222f60e08201527f3e3c2f66696c7465723e0000000000000000000000000000000000000000000061010082015261010a01919050565b634e487b7160e01b600052601160045260246000fd5b61ffff8181168382160190808211156125b8576125b8612587565b5092915050565b600084516125d1818460208901611564565b7f3c636972636c6520723d2231222063783d220000000000000000000000000000908301908152845161260b816012840160208901611564565b65111031bc9e9160d11b601292909101918201528351612632816018840160208801611564565b7f222066696c6c3d2277686974652220206f7061636974793d2231223e00000000601892909101918201527f3c616e696d617465206174747269627574654e616d653d2272222076616c756560348201527f733d22303b333b3122206475723d223173222f3e3c2f636972636c653e000000605482015260710195945050505050565b600084516126c7818460208901611564565b7f3c7061746820643d224d20000000000000000000000000000000000000000000908301908152845161270181600b840160208901611564565b7f2c00000000000000000000000000000000000000000000000000000000000000600b9290910191820152835161273f81600c840160208801611564565b7f6320372c3020372c3020372c2d37206320302c3720302c3720372c372063202d600c92909101918201527f372c30202d372c30202d372c37206320302c2d3720302c2d37202d372c2d3722602c820152601f60f91b604c8201527f3c616e696d6174655472616e73666f726d206174747269627574654e616d653d604d8201527f227472616e73666f726d2220747970653d227363616c65222066726f6d3d2230606d8201527f20302220746f3d223120312220626567696e3d22307322206475723d22302e35608d8201527f732220726570656174436f756e743d2231222f3e3c2f706174683e000000000060ad82015260c80195945050505050565b60008651612850818460208b01611564565b7f3c636972636c6520723d2233222063783d220000000000000000000000000000908301908152865161288a816012840160208b01611564565b65111031bc9e9160d11b6012929091019182015285516128b1816018840160208a01611564565b7f22206f7061636974793d22302e33223e3c616e696d6174652061747472696275601892909101918201527f74654e616d653d2272222076616c7565733d22303b353b3322206475723d223160388201527f73222f3e3c2f636972636c653e0000000000000000000000000000000000000060588201527f3c636972636c6520723d2231222063783d22000000000000000000000000000060658201528451612961816077840160208901611564565b016129776077820165111031bc9e9160d11b9052565b611bdd612987607d83018661186a565b7f223e3c616e696d617465206174747269627574654e616d653d2272222076616c81527f7565733d22303b333b3122206475723d223173222f3e3c2f636972636c653e006020820152603f0190565b600060ff821660ff81036129ec576129ec612587565b60010192915050565b60008251612a07818460208701611564565b7f3c2f673e00000000000000000000000000000000000000000000000000000000920191825250600401919050565b606081526000612a496060830186611588565b60208301949094525060400152919050565b60008551612a6d818460208a01611564565b855190830190612a81818360208a01611564565b8551910190612a94818360208901611564565b8451910190612aa7818360208801611564565b019695505050505050565b60006101408201905084518252602085015161ffff80821660208501528060408801511660408501525050606085015160608301526080850151608083015260a085015160a083015260c085015160c083015260e085015160e0830152836101008301526107296101208301841515905256fea2646970667358221220087decb74e5abed375bb7866e4a829fefada66e066e5a0de528bb11ca5932eb564736f6c63430008120033",
  "libraries": {
    "Color": "0x384ad7A74153FC21467BC77cac5528DcA0c56F4f"
  },
  "devdoc": {
    "kind": "dev",
    "methods": {},
    "version": 1
  },
  "userdoc": {
    "kind": "user",
    "methods": {},
    "version": 1
  },
  "storageLayout": {
    "storage": [],
    "types": null
  }
}