{
  "address": "0x8Cc970a3C2228C99BC5517cbe3958b8250ffd4c5",
  "abi": [
    {
      "inputs": [
        {
          "internalType": "address",
          "name": "chainellation",
          "type": "address"
        }
      ],
      "stateMutability": "nonpayable",
      "type": "constructor"
    },
    {
      "inputs": [],
      "name": "AlreadyRegistered",
      "type": "error"
    },
    {
      "inputs": [],
      "name": "HoldChainellation",
      "type": "error"
    },
    {
      "inputs": [],
      "name": "HoldDecoration",
      "type": "error"
    },
    {
      "inputs": [],
      "name": "InvalidDecoType",
      "type": "error"
    },
    {
      "anonymous": false,
      "inputs": [
        {
          "indexed": true,
          "internalType": "address",
          "name": "previousOwner",
          "type": "address"
        },
        {
          "indexed": true,
          "internalType": "address",
          "name": "newOwner",
          "type": "address"
        }
      ],
      "name": "OwnershipTransferred",
      "type": "event"
    },
    {
      "inputs": [],
      "name": "DECORATION_ONE",
      "outputs": [
        {
          "internalType": "uint8",
          "name": "",
          "type": "uint8"
        }
      ],
      "stateMutability": "view",
      "type": "function"
    },
    {
      "inputs": [],
      "name": "FOCUS",
      "outputs": [
        {
          "internalType": "uint8",
          "name": "",
          "type": "uint8"
        }
      ],
      "stateMutability": "view",
      "type": "function"
    },
    {
      "inputs": [],
      "name": "SILHOUTTE",
      "outputs": [
        {
          "internalType": "uint8",
          "name": "",
          "type": "uint8"
        }
      ],
      "stateMutability": "view",
      "type": "function"
    },
    {
      "inputs": [],
      "name": "SKY_MATH",
      "outputs": [
        {
          "internalType": "uint8",
          "name": "",
          "type": "uint8"
        }
      ],
      "stateMutability": "view",
      "type": "function"
    },
    {
      "inputs": [
        {
          "internalType": "uint256",
          "name": "",
          "type": "uint256"
        }
      ],
      "name": "allDecorations",
      "outputs": [
        {
          "internalType": "address",
          "name": "",
          "type": "address"
        }
      ],
      "stateMutability": "view",
      "type": "function"
    },
    {
      "inputs": [],
      "name": "getAllDecorations",
      "outputs": [
        {
          "internalType": "address[]",
          "name": "",
          "type": "address[]"
        }
      ],
      "stateMutability": "view",
      "type": "function"
    },
    {
      "inputs": [
        {
          "internalType": "address",
          "name": "user",
          "type": "address"
        }
      ],
      "name": "getAvailableDecorations",
      "outputs": [
        {
          "internalType": "address[]",
          "name": "",
          "type": "address[]"
        },
        {
          "internalType": "uint256[]",
          "name": "",
          "type": "uint256[]"
        }
      ],
      "stateMutability": "view",
      "type": "function"
    },
    {
      "inputs": [
        {
          "components": [
            {
              "internalType": "uint256",
              "name": "tokenId",
              "type": "uint256"
            },
            {
              "internalType": "uint16",
              "name": "primaryHue",
              "type": "uint16"
            },
            {
              "internalType": "uint16",
              "name": "secondaryHue",
              "type": "uint16"
            },
            {
              "internalType": "uint256",
              "name": "starSeed",
              "type": "uint256"
            },
            {
              "internalType": "uint256",
              "name": "funkSeed",
              "type": "uint256"
            },
            {
              "internalType": "uint256",
              "name": "circleSeed",
              "type": "uint256"
            },
            {
              "internalType": "uint256",
              "name": "groundSeed",
              "type": "uint256"
            },
            {
              "internalType": "uint256",
              "name": "constellationSeed",
              "type": "uint256"
            }
          ],
          "internalType": "struct Color.DNA",
          "name": "dna",
          "type": "tuple"
        },
        {
          "internalType": "uint256",
          "name": "gazes",
          "type": "uint256"
        },
        {
          "internalType": "bool",
          "name": "daytime",
          "type": "bool"
        }
      ],
      "name": "getDecorationOne",
      "outputs": [
        {
          "internalType": "string",
          "name": "",
          "type": "string"
        }
      ],
      "stateMutability": "view",
      "type": "function"
    },
    {
      "inputs": [
        {
          "components": [
            {
              "internalType": "uint256",
              "name": "tokenId",
              "type": "uint256"
            },
            {
              "internalType": "uint16",
              "name": "primaryHue",
              "type": "uint16"
            },
            {
              "internalType": "uint16",
              "name": "secondaryHue",
              "type": "uint16"
            },
            {
              "internalType": "uint256",
              "name": "starSeed",
              "type": "uint256"
            },
            {
              "internalType": "uint256",
              "name": "funkSeed",
              "type": "uint256"
            },
            {
              "internalType": "uint256",
              "name": "circleSeed",
              "type": "uint256"
            },
            {
              "internalType": "uint256",
              "name": "groundSeed",
              "type": "uint256"
            },
            {
              "internalType": "uint256",
              "name": "constellationSeed",
              "type": "uint256"
            }
          ],
          "internalType": "struct Color.DNA",
          "name": "dna",
          "type": "tuple"
        },
        {
          "internalType": "uint256",
          "name": "gazes",
          "type": "uint256"
        },
        {
          "internalType": "bool",
          "name": "daytime",
          "type": "bool"
        }
      ],
      "name": "getFocus",
      "outputs": [
        {
          "internalType": "string",
          "name": "",
          "type": "string"
        }
      ],
      "stateMutability": "view",
      "type": "function"
    },
    {
      "inputs": [
        {
          "components": [
            {
              "internalType": "uint256",
              "name": "tokenId",
              "type": "uint256"
            },
            {
              "internalType": "uint16",
              "name": "primaryHue",
              "type": "uint16"
            },
            {
              "internalType": "uint16",
              "name": "secondaryHue",
              "type": "uint16"
            },
            {
              "internalType": "uint256",
              "name": "starSeed",
              "type": "uint256"
            },
            {
              "internalType": "uint256",
              "name": "funkSeed",
              "type": "uint256"
            },
            {
              "internalType": "uint256",
              "name": "circleSeed",
              "type": "uint256"
            },
            {
              "internalType": "uint256",
              "name": "groundSeed",
              "type": "uint256"
            },
            {
              "internalType": "uint256",
              "name": "constellationSeed",
              "type": "uint256"
            }
          ],
          "internalType": "struct Color.DNA",
          "name": "dna",
          "type": "tuple"
        },
        {
          "internalType": "uint256",
          "name": "gazes",
          "type": "uint256"
        },
        {
          "internalType": "bool",
          "name": "daytime",
          "type": "bool"
        }
      ],
      "name": "getSilhouette",
      "outputs": [
        {
          "internalType": "string",
          "name": "",
          "type": "string"
        }
      ],
      "stateMutability": "view",
      "type": "function"
    },
    {
      "inputs": [
        {
          "components": [
            {
              "internalType": "uint256",
              "name": "tokenId",
              "type": "uint256"
            },
            {
              "internalType": "uint16",
              "name": "primaryHue",
              "type": "uint16"
            },
            {
              "internalType": "uint16",
              "name": "secondaryHue",
              "type": "uint16"
            },
            {
              "internalType": "uint256",
              "name": "starSeed",
              "type": "uint256"
            },
            {
              "internalType": "uint256",
              "name": "funkSeed",
              "type": "uint256"
            },
            {
              "internalType": "uint256",
              "name": "circleSeed",
              "type": "uint256"
            },
            {
              "internalType": "uint256",
              "name": "groundSeed",
              "type": "uint256"
            },
            {
              "internalType": "uint256",
              "name": "constellationSeed",
              "type": "uint256"
            }
          ],
          "internalType": "struct Color.DNA",
          "name": "dna",
          "type": "tuple"
        },
        {
          "internalType": "uint256",
          "name": "gazes",
          "type": "uint256"
        },
        {
          "internalType": "bool",
          "name": "daytime",
          "type": "bool"
        }
      ],
      "name": "getSkyMath",
      "outputs": [
        {
          "internalType": "string",
          "name": "",
          "type": "string"
        }
      ],
      "stateMutability": "view",
      "type": "function"
    },
    {
      "inputs": [],
      "name": "owner",
      "outputs": [
        {
          "internalType": "address",
          "name": "",
          "type": "address"
        }
      ],
      "stateMutability": "view",
      "type": "function"
    },
    {
      "inputs": [
        {
          "internalType": "address",
          "name": "_deco",
          "type": "address"
        },
        {
          "internalType": "uint8",
          "name": "spot",
          "type": "uint8"
        }
      ],
      "name": "register",
      "outputs": [],
      "stateMutability": "nonpayable",
      "type": "function"
    },
    {
      "inputs": [],
      "name": "renounceOwnership",
      "outputs": [],
      "stateMutability": "nonpayable",
      "type": "function"
    },
    {
      "inputs": [
        {
          "internalType": "uint256",
          "name": "tokenId",
          "type": "uint256"
        },
        {
          "internalType": "uint8",
          "name": "decoType",
          "type": "uint8"
        },
        {
          "internalType": "address",
          "name": "deco",
          "type": "address"
        },
        {
          "internalType": "uint256",
          "name": "decoId",
          "type": "uint256"
        }
      ],
      "name": "setDecoration",
      "outputs": [],
      "stateMutability": "nonpayable",
      "type": "function"
    },
    {
      "inputs": [
        {
          "internalType": "uint256[]",
          "name": "tokenIds",
          "type": "uint256[]"
        },
        {
          "internalType": "uint8[]",
          "name": "decoTypes",
          "type": "uint8[]"
        },
        {
          "internalType": "address[]",
          "name": "decos",
          "type": "address[]"
        },
        {
          "internalType": "uint256[]",
          "name": "decoIds",
          "type": "uint256[]"
        }
      ],
      "name": "setDecorationBatch",
      "outputs": [],
      "stateMutability": "nonpayable",
      "type": "function"
    },
    {
      "inputs": [
        {
          "internalType": "address",
          "name": "newOwner",
          "type": "address"
        }
      ],
      "name": "transferOwnership",
      "outputs": [],
      "stateMutability": "nonpayable",
      "type": "function"
    },
    {
      "inputs": [
        {
          "internalType": "address",
          "name": "_deco",
          "type": "address"
        }
      ],
      "name": "unregister",
      "outputs": [],
      "stateMutability": "nonpayable",
      "type": "function"
    },
    {
      "inputs": [],
      "name": "withdraw",
      "outputs": [],
      "stateMutability": "nonpayable",
      "type": "function"
    },
    {
      "inputs": [
        {
          "internalType": "address",
          "name": "_tokenContract",
          "type": "address"
        },
        {
          "internalType": "uint256",
          "name": "_amount",
          "type": "uint256"
        }
      ],
      "name": "withdrawToken",
      "outputs": [],
      "stateMutability": "nonpayable",
      "type": "function"
    }
  ],
  "transactionHash": "0x95fd1e632c3f0eb6c9f2c44d1a74bae298416f36ed7f33aba87e6ecf6c619e2d",
  "args": [
    "0xf7dC791b5219e134B28E4ce10A55E61b6f44b33b"
  ],
  "numDeployments": 1,
  "solcInputHash": "786d22871d9c82d521ffcb5a979dc23c",
  "bytecode": "0x608060405234801561001057600080fd5b5060405162001b6a38038062001b6a833981016040819052610031916100af565b61003a3361005f565b600180546001600160a01b0319166001600160a01b03929092169190911790556100df565b600080546001600160a01b038381166001600160a01b0319831681178455604051919092169283917f8be0079c531659141344cd1fd0a4f28419497f9722a3daafe3b4186f6b6457e09190a35050565b6000602082840312156100c157600080fd5b81516001600160a01b03811681146100d857600080fd5b9392505050565b611a7b80620000ef6000396000f3fe608060405234801561001057600080fd5b506004361061016c5760003560e01c8063715018a6116100cd578063ac7c0ae711610081578063d145c88411610066578063d145c884146102b0578063e5190844146102d1578063f2fde38b146102e457600080fd5b8063ac7c0ae714610295578063bcefc1291461029d57600080fd5b806394020555116100b2578063940205551461024f5780639e281a981461026f578063a1f4451e1461028257600080fd5b8063715018a6146102365780638da5cb5b1461023e57600080fd5b80633942a6b91161012457806342a64f041161010957806342a64f0414610206578063433415001461021b5780635a3eadd11461022357600080fd5b80633942a6b9146101d35780633ccfd60b146101fe57600080fd5b8063291d438611610155578063291d4386146101995780632d2ea544146101b85780632ec2c246146101c057600080fd5b806307e4959814610171578063139885dd14610186575b600080fd5b61018461017f3660046112a6565b6102f7565b005b6101846101943660046112db565b6103c1565b6101a1600381565b60405160ff90911681526020015b60405180910390f35b6101a1600481565b6101846101ce366004611321565b6107df565b6101e66101e136600461133e565b61097e565b6040516001600160a01b0390911681526020016101af565b6101846109a8565b61020e6109df565b6040516101af919061139b565b6101a1600281565b610184610231366004611512565b610a41565b610184610ad6565b6000546001600160a01b03166101e6565b61026261025d366004611645565b610aea565b6040516101af9190611713565b61018461027d366004611746565b610bdf565b610262610290366004611645565b610c76565b6101a1600181565b6102626102ab366004611645565b610daa565b6102c36102be366004611321565b610e4a565b6040516101af929190611772565b6102626102df366004611645565b61109e565b6101846102f2366004611321565b611144565b6102ff6111d1565b6001600160a01b03821660009081526002602052604090205460ff1615610352576040517f3a81d6fc00000000000000000000000000000000000000000000000000000000815260040160405180910390fd5b6001600160a01b03919091166000818152600260205260408120805460ff191660ff909416939093179092556003805460018101825592527fc2575a0e9e593c00f959f8c92f12db2869c3395a3b0502d05e2516446f71f85b90910180546001600160a01b0319169091179055565b6001546040516331a9108f60e11b81526004810186905233916001600160a01b031690636352211e90602401602060405180830381865afa15801561040a573d6000803e3d6000fd5b505050506040513d601f19601f8201168201806040525081019061042e91906117c9565b6001600160a01b03161461046e576040517f31e11db100000000000000000000000000000000000000000000000000000000815260040160405180910390fd5b6040516331a9108f60e11b81526004810182905233906001600160a01b03841690636352211e90602401602060405180830381865afa1580156104b5573d6000803e3d6000fd5b505050506040513d601f19601f820116820180604052508101906104d991906117c9565b6001600160a01b031614610519576040517f5113308600000000000000000000000000000000000000000000000000000000815260040160405180910390fd5b6001600160a01b03821660009081526002602052604090205460ff8481169116146105575760405163ec64f18d60e01b815260040160405180910390fd5b6040517f081812fc000000000000000000000000000000000000000000000000000000008152600481018590528290309081906001600160a01b0384169063081812fc90602401602060405180830381865afa1580156105bb573d6000803e3d6000fd5b505050506040513d601f19601f820116820180604052508101906105df91906117c9565b6001600160a01b0316146106605760405162461bcd60e51b815260206004820152602760248201527f43616c6c6572206973206e6f7420617070726f76656420746f206275726e207460448201527f686973204e46540000000000000000000000000000000000000000000000000060648201526084015b60405180910390fd5b6040517f42966c68000000000000000000000000000000000000000000000000000000008152600481018790526001600160a01b038316906342966c6890602401600060405180830381600087803b1580156106bb57600080fd5b505af11580156106cf573d6000803e3d6000fd5b50505050600160ff168560ff160361070d57600086815260046020526040902080546001600160a01b0319166001600160a01b0386161790556107d7565b60011960ff86160161074857600086815260046020526040902060010180546001600160a01b0319166001600160a01b0386161790556107d7565b60021960ff86160161078357600086815260046020526040902060020180546001600160a01b0319166001600160a01b0386161790556107d7565b60031960ff8616016107be57600086815260046020526040902060030180546001600160a01b0319166001600160a01b0386161790556107d7565b60405163ec64f18d60e01b815260040160405180910390fd5b505050505050565b6107e76111d1565b6001600160a01b0381166000908152600260205260408120805460ff19169055805b600354610818906001906117fc565b81101561087057826001600160a01b03166003828154811061083c5761083c611815565b6000918252602090912001546001600160a01b03160361085e57809150610870565b806108688161182b565b915050610809565b50805b600354610882906001906117fc565b81101561090d576003610896826001611844565b815481106108a6576108a6611815565b600091825260209091200154600380546001600160a01b0390921691839081106108d2576108d2611815565b600091825260209091200180546001600160a01b0319166001600160a01b0392909216919091179055806109058161182b565b915050610873565b506003805461091e906001906117fc565b8154811061092e5761092e611815565b600091825260209091200180546001600160a01b0319169055600380548061095857610958611857565b600082815260209020810160001990810180546001600160a01b03191690550190555050565b6003818154811061098e57600080fd5b6000918252602090912001546001600160a01b0316905081565b6109b06111d1565b60405133904780156108fc02916000818181858888f193505050501580156109dc573d6000803e3d6000fd5b50565b60606003805480602002602001604051908101604052809291908181526020018280548015610a3757602002820191906000526020600020905b81546001600160a01b03168152600190910190602001808311610a19575b5050505050905090565b60005b8451811015610acf57610abd858281518110610a6257610a62611815565b6020026020010151858381518110610a7c57610a7c611815565b6020026020010151858481518110610a9657610a96611815565b6020026020010151858581518110610ab057610ab0611815565b60200260200101516103c1565b80610ac78161182b565b915050610a44565b5050505050565b610ade6111d1565b610ae8600061122b565b565b82516000908152600460205260409020600101546060906001600160a01b0316610b48575060408051808201909152601481527f3c672069643d22736b796d617468223e3c2f673e0000000000000000000000006020820152610bd8565b83516000908152600460208190526040918290206001015486519251633792591960e01b81526001600160a01b0390911692633792591992610b90928991899189910161186d565b600060405180830381865afa158015610bad573d6000803e3d6000fd5b505050506040513d6000823e601f3d908101601f19168201604052610bd591908101906118f0565b90505b9392505050565b610be76111d1565b6040517fa9059cbb000000000000000000000000000000000000000000000000000000008152336004820152602481018290526001600160a01b0383169063a9059cbb906044016020604051808303816000875af1158015610c4d573d6000803e3d6000fd5b505050506040513d601f19601f82011682018060405250810190610c719190611984565b505050565b82516000908152600460205260409020600301546060906001600160a01b0316610d62578260e08501516040517f5b33e80e000000000000000000000000000000000000000000000000000000008152600481019190915260ff8216602482015273B1e84Fc349D1431062AfBb37bA08De934e35D12790635b33e80e90604401600060405180830381865af4158015610d13573d6000803e3d6000fd5b505050506040513d6000823e601f3d908101601f19168201604052610d3b91908101906118f0565b604051602001610d4b91906119a1565b604051602081830303815290604052915050610bd8565b83516000908152600460208190526040918290206003015486519251633792591960e01b81526001600160a01b0390911692633792591992610b90928991899189910161186d565b82516000908152600460205260409020546060906001600160a01b0316610e05575060408051808201909152601781527f3c672069643d2273696c686f7565747465223e3c2f673e0000000000000000006020820152610bd8565b83516000908152600460208190526040918290205486519251633792591960e01b81526001600160a01b0390911692633792591992610b90928991899189910161186d565b606080600060038054905067ffffffffffffffff811115610e6d57610e6d6113ae565b604051908082528060200260200182016040528015610e96578160200160208202803683370190505b5060035490915060009067ffffffffffffffff811115610eb857610eb86113ae565b604051908082528060200260200182016040528015610ee1578160200160208202803683370190505b5090506000805b60035460ff8216101561109257600060038260ff1681548110610f0d57610f0d611815565b6000918252602090912001546040517f70a082310000000000000000000000000000000000000000000000000000000081526001600160a01b038a81166004830152909116906370a0823190602401602060405180830381865afa158015610f79573d6000803e3d6000fd5b505050506040513d601f19601f82011682018060405250810190610f9d9190611a0d565b11156110805760038160ff1681548110610fb957610fb9611815565b9060005260206000200160009054906101000a90046001600160a01b0316848360ff1681518110610fec57610fec611815565b60200260200101906001600160a01b031690816001600160a01b0316815250506002600060038360ff168154811061102657611026611815565b60009182526020808320909101546001600160a01b03168352820192909252604001902054835160ff91821691859190851690811061106757611067611815565b60209081029190910101528161107c81611a26565b9250505b8061108a81611a26565b915050610ee8565b50919590945092505050565b82516000908152600460205260409020600201546060906001600160a01b03166110fc575060408051808201909152601181527f3c672069643d226465636f223e3c2f673e0000000000000000000000000000006020820152610bd8565b83516000908152600460208190526040918290206002015486519251633792591960e01b81526001600160a01b0390911692633792591992610b90928991899189910161186d565b61114c6111d1565b6001600160a01b0381166111c85760405162461bcd60e51b815260206004820152602660248201527f4f776e61626c653a206e6577206f776e657220697320746865207a65726f206160448201527f64647265737300000000000000000000000000000000000000000000000000006064820152608401610657565b6109dc8161122b565b6000546001600160a01b03163314610ae85760405162461bcd60e51b815260206004820181905260248201527f4f776e61626c653a2063616c6c6572206973206e6f7420746865206f776e65726044820152606401610657565b600080546001600160a01b038381166001600160a01b0319831681178455604051919092169283917f8be0079c531659141344cd1fd0a4f28419497f9722a3daafe3b4186f6b6457e09190a35050565b6001600160a01b03811681146109dc57600080fd5b803560ff811681146112a157600080fd5b919050565b600080604083850312156112b957600080fd5b82356112c48161127b565b91506112d260208401611290565b90509250929050565b600080600080608085870312156112f157600080fd5b8435935061130160208601611290565b925060408501356113118161127b565b9396929550929360600135925050565b60006020828403121561133357600080fd5b8135610bd88161127b565b60006020828403121561135057600080fd5b5035919050565b600081518084526020808501945080840160005b838110156113905781516001600160a01b03168752958201959082019060010161136b565b509495945050505050565b602081526000610bd86020830184611357565b634e487b7160e01b600052604160045260246000fd5b604051610100810167ffffffffffffffff811182821017156113e8576113e86113ae565b60405290565b604051601f8201601f1916810167ffffffffffffffff81118282101715611417576114176113ae565b604052919050565b600067ffffffffffffffff821115611439576114396113ae565b5060051b60200190565b600082601f83011261145457600080fd5b813560206114696114648361141f565b6113ee565b82815260059290921b8401810191818101908684111561148857600080fd5b8286015b848110156114a3578035835291830191830161148c565b509695505050505050565b600082601f8301126114bf57600080fd5b813560206114cf6114648361141f565b82815260059290921b840181019181810190868411156114ee57600080fd5b8286015b848110156114a35780356115058161127b565b83529183019183016114f2565b6000806000806080858703121561152857600080fd5b843567ffffffffffffffff8082111561154057600080fd5b61154c88838901611443565b955060209150818701358181111561156357600080fd5b8701601f8101891361157457600080fd5b80356115826114648261141f565b81815260059190911b8201840190848101908b8311156115a157600080fd5b928501925b828410156115c6576115b784611290565b825292850192908501906115a6565b975050505060408701359150808211156115df57600080fd5b6115eb888389016114ae565b9350606087013591508082111561160157600080fd5b5061160e87828801611443565b91505092959194509250565b803561ffff811681146112a157600080fd5b80151581146109dc57600080fd5b80356112a18161162c565b600080600083850361014081121561165c57600080fd5b6101008082121561166c57600080fd5b6116746113c4565b9150853582526116866020870161161a565b60208301526116976040870161161a565b6040830152606086013560608301526080860135608083015260a086013560a083015260c086013560c083015260e086013560e083015281945080860135935050506116e6610120850161163a565b90509250925092565b60005b8381101561170a5781810151838201526020016116f2565b50506000910152565b60208152600082518060208401526117328160408501602087016116ef565b601f01601f19169190910160400192915050565b6000806040838503121561175957600080fd5b82356117648161127b565b946020939093013593505050565b6040815260006117856040830185611357565b82810360208481019190915284518083528582019282019060005b818110156117bc578451835293830193918301916001016117a0565b5090979650505050505050565b6000602082840312156117db57600080fd5b8151610bd88161127b565b634e487b7160e01b600052601160045260246000fd5b8181038181111561180f5761180f6117e6565b92915050565b634e487b7160e01b600052603260045260246000fd5b60006001820161183d5761183d6117e6565b5060010190565b8082018082111561180f5761180f6117e6565b634e487b7160e01b600052603160045260246000fd5b60006101608201905085825284516020830152602085015161ffff8082166040850152806040880151166060850152505060608501516080830152608085015160a083015260a085015160c083015260c085015160e083015260e0850151610100830152836101208301526118e761014083018415159052565b95945050505050565b60006020828403121561190257600080fd5b815167ffffffffffffffff8082111561191a57600080fd5b818401915084601f83011261192e57600080fd5b815181811115611940576119406113ae565b611953601f8201601f19166020016113ee565b915080825285602082850101111561196a57600080fd5b61197b8160208401602086016116ef565b50949350505050565b60006020828403121561199657600080fd5b8151610bd88161162c565b7f3c672069643d22666f637573223e0000000000000000000000000000000000008152600082516119d981600e8501602087016116ef565b7f3c2f673e00000000000000000000000000000000000000000000000000000000600e939091019283015250601201919050565b600060208284031215611a1f57600080fd5b5051919050565b600060ff821660ff8103611a3c57611a3c6117e6565b6001019291505056fea2646970667358221220fd9f9c0c624c7661ef4a52755b000a1ac475eb41d71bca37c3b611f4346d3d8964736f6c63430008120033",
  "deployedBytecode": "0x608060405234801561001057600080fd5b506004361061016c5760003560e01c8063715018a6116100cd578063ac7c0ae711610081578063d145c88411610066578063d145c884146102b0578063e5190844146102d1578063f2fde38b146102e457600080fd5b8063ac7c0ae714610295578063bcefc1291461029d57600080fd5b806394020555116100b2578063940205551461024f5780639e281a981461026f578063a1f4451e1461028257600080fd5b8063715018a6146102365780638da5cb5b1461023e57600080fd5b80633942a6b91161012457806342a64f041161010957806342a64f0414610206578063433415001461021b5780635a3eadd11461022357600080fd5b80633942a6b9146101d35780633ccfd60b146101fe57600080fd5b8063291d438611610155578063291d4386146101995780632d2ea544146101b85780632ec2c246146101c057600080fd5b806307e4959814610171578063139885dd14610186575b600080fd5b61018461017f3660046112a6565b6102f7565b005b6101846101943660046112db565b6103c1565b6101a1600381565b60405160ff90911681526020015b60405180910390f35b6101a1600481565b6101846101ce366004611321565b6107df565b6101e66101e136600461133e565b61097e565b6040516001600160a01b0390911681526020016101af565b6101846109a8565b61020e6109df565b6040516101af919061139b565b6101a1600281565b610184610231366004611512565b610a41565b610184610ad6565b6000546001600160a01b03166101e6565b61026261025d366004611645565b610aea565b6040516101af9190611713565b61018461027d366004611746565b610bdf565b610262610290366004611645565b610c76565b6101a1600181565b6102626102ab366004611645565b610daa565b6102c36102be366004611321565b610e4a565b6040516101af929190611772565b6102626102df366004611645565b61109e565b6101846102f2366004611321565b611144565b6102ff6111d1565b6001600160a01b03821660009081526002602052604090205460ff1615610352576040517f3a81d6fc00000000000000000000000000000000000000000000000000000000815260040160405180910390fd5b6001600160a01b03919091166000818152600260205260408120805460ff191660ff909416939093179092556003805460018101825592527fc2575a0e9e593c00f959f8c92f12db2869c3395a3b0502d05e2516446f71f85b90910180546001600160a01b0319169091179055565b6001546040516331a9108f60e11b81526004810186905233916001600160a01b031690636352211e90602401602060405180830381865afa15801561040a573d6000803e3d6000fd5b505050506040513d601f19601f8201168201806040525081019061042e91906117c9565b6001600160a01b03161461046e576040517f31e11db100000000000000000000000000000000000000000000000000000000815260040160405180910390fd5b6040516331a9108f60e11b81526004810182905233906001600160a01b03841690636352211e90602401602060405180830381865afa1580156104b5573d6000803e3d6000fd5b505050506040513d601f19601f820116820180604052508101906104d991906117c9565b6001600160a01b031614610519576040517f5113308600000000000000000000000000000000000000000000000000000000815260040160405180910390fd5b6001600160a01b03821660009081526002602052604090205460ff8481169116146105575760405163ec64f18d60e01b815260040160405180910390fd5b6040517f081812fc000000000000000000000000000000000000000000000000000000008152600481018590528290309081906001600160a01b0384169063081812fc90602401602060405180830381865afa1580156105bb573d6000803e3d6000fd5b505050506040513d601f19601f820116820180604052508101906105df91906117c9565b6001600160a01b0316146106605760405162461bcd60e51b815260206004820152602760248201527f43616c6c6572206973206e6f7420617070726f76656420746f206275726e207460448201527f686973204e46540000000000000000000000000000000000000000000000000060648201526084015b60405180910390fd5b6040517f42966c68000000000000000000000000000000000000000000000000000000008152600481018790526001600160a01b038316906342966c6890602401600060405180830381600087803b1580156106bb57600080fd5b505af11580156106cf573d6000803e3d6000fd5b50505050600160ff168560ff160361070d57600086815260046020526040902080546001600160a01b0319166001600160a01b0386161790556107d7565b60011960ff86160161074857600086815260046020526040902060010180546001600160a01b0319166001600160a01b0386161790556107d7565b60021960ff86160161078357600086815260046020526040902060020180546001600160a01b0319166001600160a01b0386161790556107d7565b60031960ff8616016107be57600086815260046020526040902060030180546001600160a01b0319166001600160a01b0386161790556107d7565b60405163ec64f18d60e01b815260040160405180910390fd5b505050505050565b6107e76111d1565b6001600160a01b0381166000908152600260205260408120805460ff19169055805b600354610818906001906117fc565b81101561087057826001600160a01b03166003828154811061083c5761083c611815565b6000918252602090912001546001600160a01b03160361085e57809150610870565b806108688161182b565b915050610809565b50805b600354610882906001906117fc565b81101561090d576003610896826001611844565b815481106108a6576108a6611815565b600091825260209091200154600380546001600160a01b0390921691839081106108d2576108d2611815565b600091825260209091200180546001600160a01b0319166001600160a01b0392909216919091179055806109058161182b565b915050610873565b506003805461091e906001906117fc565b8154811061092e5761092e611815565b600091825260209091200180546001600160a01b0319169055600380548061095857610958611857565b600082815260209020810160001990810180546001600160a01b03191690550190555050565b6003818154811061098e57600080fd5b6000918252602090912001546001600160a01b0316905081565b6109b06111d1565b60405133904780156108fc02916000818181858888f193505050501580156109dc573d6000803e3d6000fd5b50565b60606003805480602002602001604051908101604052809291908181526020018280548015610a3757602002820191906000526020600020905b81546001600160a01b03168152600190910190602001808311610a19575b5050505050905090565b60005b8451811015610acf57610abd858281518110610a6257610a62611815565b6020026020010151858381518110610a7c57610a7c611815565b6020026020010151858481518110610a9657610a96611815565b6020026020010151858581518110610ab057610ab0611815565b60200260200101516103c1565b80610ac78161182b565b915050610a44565b5050505050565b610ade6111d1565b610ae8600061122b565b565b82516000908152600460205260409020600101546060906001600160a01b0316610b48575060408051808201909152601481527f3c672069643d22736b796d617468223e3c2f673e0000000000000000000000006020820152610bd8565b83516000908152600460208190526040918290206001015486519251633792591960e01b81526001600160a01b0390911692633792591992610b90928991899189910161186d565b600060405180830381865afa158015610bad573d6000803e3d6000fd5b505050506040513d6000823e601f3d908101601f19168201604052610bd591908101906118f0565b90505b9392505050565b610be76111d1565b6040517fa9059cbb000000000000000000000000000000000000000000000000000000008152336004820152602481018290526001600160a01b0383169063a9059cbb906044016020604051808303816000875af1158015610c4d573d6000803e3d6000fd5b505050506040513d601f19601f82011682018060405250810190610c719190611984565b505050565b82516000908152600460205260409020600301546060906001600160a01b0316610d62578260e08501516040517f5b33e80e000000000000000000000000000000000000000000000000000000008152600481019190915260ff8216602482015273__$a8306bbe53a8cb7e168140ba991fce4a09$__90635b33e80e90604401600060405180830381865af4158015610d13573d6000803e3d6000fd5b505050506040513d6000823e601f3d908101601f19168201604052610d3b91908101906118f0565b604051602001610d4b91906119a1565b604051602081830303815290604052915050610bd8565b83516000908152600460208190526040918290206003015486519251633792591960e01b81526001600160a01b0390911692633792591992610b90928991899189910161186d565b82516000908152600460205260409020546060906001600160a01b0316610e05575060408051808201909152601781527f3c672069643d2273696c686f7565747465223e3c2f673e0000000000000000006020820152610bd8565b83516000908152600460208190526040918290205486519251633792591960e01b81526001600160a01b0390911692633792591992610b90928991899189910161186d565b606080600060038054905067ffffffffffffffff811115610e6d57610e6d6113ae565b604051908082528060200260200182016040528015610e96578160200160208202803683370190505b5060035490915060009067ffffffffffffffff811115610eb857610eb86113ae565b604051908082528060200260200182016040528015610ee1578160200160208202803683370190505b5090506000805b60035460ff8216101561109257600060038260ff1681548110610f0d57610f0d611815565b6000918252602090912001546040517f70a082310000000000000000000000000000000000000000000000000000000081526001600160a01b038a81166004830152909116906370a0823190602401602060405180830381865afa158015610f79573d6000803e3d6000fd5b505050506040513d601f19601f82011682018060405250810190610f9d9190611a0d565b11156110805760038160ff1681548110610fb957610fb9611815565b9060005260206000200160009054906101000a90046001600160a01b0316848360ff1681518110610fec57610fec611815565b60200260200101906001600160a01b031690816001600160a01b0316815250506002600060038360ff168154811061102657611026611815565b60009182526020808320909101546001600160a01b03168352820192909252604001902054835160ff91821691859190851690811061106757611067611815565b60209081029190910101528161107c81611a26565b9250505b8061108a81611a26565b915050610ee8565b50919590945092505050565b82516000908152600460205260409020600201546060906001600160a01b03166110fc575060408051808201909152601181527f3c672069643d226465636f223e3c2f673e0000000000000000000000000000006020820152610bd8565b83516000908152600460208190526040918290206002015486519251633792591960e01b81526001600160a01b0390911692633792591992610b90928991899189910161186d565b61114c6111d1565b6001600160a01b0381166111c85760405162461bcd60e51b815260206004820152602660248201527f4f776e61626c653a206e6577206f776e657220697320746865207a65726f206160448201527f64647265737300000000000000000000000000000000000000000000000000006064820152608401610657565b6109dc8161122b565b6000546001600160a01b03163314610ae85760405162461bcd60e51b815260206004820181905260248201527f4f776e61626c653a2063616c6c6572206973206e6f7420746865206f776e65726044820152606401610657565b600080546001600160a01b038381166001600160a01b0319831681178455604051919092169283917f8be0079c531659141344cd1fd0a4f28419497f9722a3daafe3b4186f6b6457e09190a35050565b6001600160a01b03811681146109dc57600080fd5b803560ff811681146112a157600080fd5b919050565b600080604083850312156112b957600080fd5b82356112c48161127b565b91506112d260208401611290565b90509250929050565b600080600080608085870312156112f157600080fd5b8435935061130160208601611290565b925060408501356113118161127b565b9396929550929360600135925050565b60006020828403121561133357600080fd5b8135610bd88161127b565b60006020828403121561135057600080fd5b5035919050565b600081518084526020808501945080840160005b838110156113905781516001600160a01b03168752958201959082019060010161136b565b509495945050505050565b602081526000610bd86020830184611357565b634e487b7160e01b600052604160045260246000fd5b604051610100810167ffffffffffffffff811182821017156113e8576113e86113ae565b60405290565b604051601f8201601f1916810167ffffffffffffffff81118282101715611417576114176113ae565b604052919050565b600067ffffffffffffffff821115611439576114396113ae565b5060051b60200190565b600082601f83011261145457600080fd5b813560206114696114648361141f565b6113ee565b82815260059290921b8401810191818101908684111561148857600080fd5b8286015b848110156114a3578035835291830191830161148c565b509695505050505050565b600082601f8301126114bf57600080fd5b813560206114cf6114648361141f565b82815260059290921b840181019181810190868411156114ee57600080fd5b8286015b848110156114a35780356115058161127b565b83529183019183016114f2565b6000806000806080858703121561152857600080fd5b843567ffffffffffffffff8082111561154057600080fd5b61154c88838901611443565b955060209150818701358181111561156357600080fd5b8701601f8101891361157457600080fd5b80356115826114648261141f565b81815260059190911b8201840190848101908b8311156115a157600080fd5b928501925b828410156115c6576115b784611290565b825292850192908501906115a6565b975050505060408701359150808211156115df57600080fd5b6115eb888389016114ae565b9350606087013591508082111561160157600080fd5b5061160e87828801611443565b91505092959194509250565b803561ffff811681146112a157600080fd5b80151581146109dc57600080fd5b80356112a18161162c565b600080600083850361014081121561165c57600080fd5b6101008082121561166c57600080fd5b6116746113c4565b9150853582526116866020870161161a565b60208301526116976040870161161a565b6040830152606086013560608301526080860135608083015260a086013560a083015260c086013560c083015260e086013560e083015281945080860135935050506116e6610120850161163a565b90509250925092565b60005b8381101561170a5781810151838201526020016116f2565b50506000910152565b60208152600082518060208401526117328160408501602087016116ef565b601f01601f19169190910160400192915050565b6000806040838503121561175957600080fd5b82356117648161127b565b946020939093013593505050565b6040815260006117856040830185611357565b82810360208481019190915284518083528582019282019060005b818110156117bc578451835293830193918301916001016117a0565b5090979650505050505050565b6000602082840312156117db57600080fd5b8151610bd88161127b565b634e487b7160e01b600052601160045260246000fd5b8181038181111561180f5761180f6117e6565b92915050565b634e487b7160e01b600052603260045260246000fd5b60006001820161183d5761183d6117e6565b5060010190565b8082018082111561180f5761180f6117e6565b634e487b7160e01b600052603160045260246000fd5b60006101608201905085825284516020830152602085015161ffff8082166040850152806040880151166060850152505060608501516080830152608085015160a083015260a085015160c083015260c085015160e083015260e0850151610100830152836101208301526118e761014083018415159052565b95945050505050565b60006020828403121561190257600080fd5b815167ffffffffffffffff8082111561191a57600080fd5b818401915084601f83011261192e57600080fd5b815181811115611940576119406113ae565b611953601f8201601f19166020016113ee565b915080825285602082850101111561196a57600080fd5b61197b8160208401602086016116ef565b50949350505050565b60006020828403121561199657600080fd5b8151610bd88161162c565b7f3c672069643d22666f637573223e0000000000000000000000000000000000008152600082516119d981600e8501602087016116ef565b7f3c2f673e00000000000000000000000000000000000000000000000000000000600e939091019283015250601201919050565b600060208284031215611a1f57600080fd5b5051919050565b600060ff821660ff8103611a3c57611a3c6117e6565b6001019291505056fea2646970667358221220fd9f9c0c624c7661ef4a52755b000a1ac475eb41d71bca37c3b611f4346d3d8964736f6c63430008120033",
  "libraries": {
    "Color": "0x384ad7A74153FC21467BC77cac5528DcA0c56F4f",
    "Constellations": "0xB1e84Fc349D1431062AfBb37bA08De934e35D127"
  },
  "devdoc": {
    "kind": "dev",
    "methods": {
      "owner()": {
        "details": "Returns the address of the current owner."
      },
      "renounceOwnership()": {
        "details": "Leaves the contract without owner. It will not be possible to call `onlyOwner` functions anymore. Can only be called by the current owner. NOTE: Renouncing ownership will leave the contract without an owner, thereby removing any functionality that is only available to the owner."
      },
      "transferOwnership(address)": {
        "details": "Transfers ownership of the contract to a new account (`newOwner`). Can only be called by the current owner."
      }
    },
    "version": 1
  },
  "userdoc": {
    "kind": "user",
    "methods": {},
    "version": 1
  },
  "storageLayout": {
    "storage": [
      {
        "astId": 7,
        "contract": "contracts/chainellations/Decorations.sol:Decorations",
        "label": "_owner",
        "offset": 0,
        "slot": "0",
        "type": "t_address"
      },
      {
        "astId": 6945,
        "contract": "contracts/chainellations/Decorations.sol:Decorations",
        "label": "_chainellation",
        "offset": 0,
        "slot": "1",
        "type": "t_address"
      },
      {
        "astId": 6949,
        "contract": "contracts/chainellations/Decorations.sol:Decorations",
        "label": "_registered",
        "offset": 0,
        "slot": "2",
        "type": "t_mapping(t_address,t_uint8)"
      },
      {
        "astId": 6952,
        "contract": "contracts/chainellations/Decorations.sol:Decorations",
        "label": "allDecorations",
        "offset": 0,
        "slot": "3",
        "type": "t_array(t_address)dyn_storage"
      },
      {
        "astId": 6957,
        "contract": "contracts/chainellations/Decorations.sol:Decorations",
        "label": "_decorations",
        "offset": 0,
        "slot": "4",
        "type": "t_mapping(t_uint256,t_struct(Decoration)6931_storage)"
      }
    ],
    "types": {
      "t_address": {
        "encoding": "inplace",
        "label": "address",
        "numberOfBytes": "20"
      },
      "t_array(t_address)dyn_storage": {
        "base": "t_address",
        "encoding": "dynamic_array",
        "label": "address[]",
        "numberOfBytes": "32"
      },
      "t_mapping(t_address,t_uint8)": {
        "encoding": "mapping",
        "key": "t_address",
        "label": "mapping(address => uint8)",
        "numberOfBytes": "32",
        "value": "t_uint8"
      },
      "t_mapping(t_uint256,t_struct(Decoration)6931_storage)": {
        "encoding": "mapping",
        "key": "t_uint256",
        "label": "mapping(uint256 => struct Decorations.Decoration)",
        "numberOfBytes": "32",
        "value": "t_struct(Decoration)6931_storage"
      },
      "t_struct(Decoration)6931_storage": {
        "encoding": "inplace",
        "label": "struct Decorations.Decoration",
        "members": [
          {
            "astId": 6924,
            "contract": "contracts/chainellations/Decorations.sol:Decorations",
            "label": "silhouette",
            "offset": 0,
            "slot": "0",
            "type": "t_address"
          },
          {
            "astId": 6926,
            "contract": "contracts/chainellations/Decorations.sol:Decorations",
            "label": "skyMath",
            "offset": 0,
            "slot": "1",
            "type": "t_address"
          },
          {
            "astId": 6928,
            "contract": "contracts/chainellations/Decorations.sol:Decorations",
            "label": "decorationOne",
            "offset": 0,
            "slot": "2",
            "type": "t_address"
          },
          {
            "astId": 6930,
            "contract": "contracts/chainellations/Decorations.sol:Decorations",
            "label": "focus",
            "offset": 0,
            "slot": "3",
            "type": "t_address"
          }
        ],
        "numberOfBytes": "128"
      },
      "t_uint256": {
        "encoding": "inplace",
        "label": "uint256",
        "numberOfBytes": "32"
      },
      "t_uint8": {
        "encoding": "inplace",
        "label": "uint8",
        "numberOfBytes": "1"
      }
    }
  }
}