{
  "address": "0x384ad7A74153FC21467BC77cac5528DcA0c56F4f",
  "abi": [
    {
      "inputs": [
        {
          "internalType": "uint8",
          "name": "show",
          "type": "uint8"
        },
        {
          "internalType": "bool",
          "name": "fullReveal",
          "type": "bool"
        }
      ],
      "name": "Aquarius",
      "outputs": [
        {
          "internalType": "string",
          "name": "",
          "type": "string"
        },
        {
          "internalType": "uint8",
          "name": "remaining",
          "type": "uint8"
        }
      ],
      "stateMutability": "view",
      "type": "function"
    },
    {
      "inputs": [
        {
          "internalType": "uint8",
          "name": "show",
          "type": "uint8"
        },
        {
          "internalType": "bool",
          "name": "fullReveal",
          "type": "bool"
        }
      ],
      "name": "Aries",
      "outputs": [
        {
          "internalType": "string",
          "name": "",
          "type": "string"
        },
        {
          "internalType": "uint8",
          "name": "remaining",
          "type": "uint8"
        }
      ],
      "stateMutability": "view",
      "type": "function"
    },
    {
      "inputs": [
        {
          "internalType": "uint8",
          "name": "show",
          "type": "uint8"
        },
        {
          "internalType": "bool",
          "name": "fullReveal",
          "type": "bool"
        }
      ],
      "name": "Cancer",
      "outputs": [
        {
          "internalType": "string",
          "name": "",
          "type": "string"
        },
        {
          "internalType": "uint8",
          "name": "remaining",
          "type": "uint8"
        }
      ],
      "stateMutability": "view",
      "type": "function"
    },
    {
      "inputs": [
        {
          "internalType": "uint8",
          "name": "show",
          "type": "uint8"
        },
        {
          "internalType": "bool",
          "name": "fullReveal",
          "type": "bool"
        }
      ],
      "name": "Capricorn",
      "outputs": [
        {
          "internalType": "string",
          "name": "",
          "type": "string"
        },
        {
          "internalType": "uint8",
          "name": "remaining",
          "type": "uint8"
        }
      ],
      "stateMutability": "view",
      "type": "function"
    },
    {
      "inputs": [
        {
          "internalType": "uint8",
          "name": "show",
          "type": "uint8"
        },
        {
          "internalType": "bool",
          "name": "fullReveal",
          "type": "bool"
        }
      ],
      "name": "Cygnus",
      "outputs": [
        {
          "internalType": "string",
          "name": "",
          "type": "string"
        },
        {
          "internalType": "uint8",
          "name": "remaining",
          "type": "uint8"
        }
      ],
      "stateMutability": "view",
      "type": "function"
    },
    {
      "inputs": [
        {
          "internalType": "uint8",
          "name": "show",
          "type": "uint8"
        },
        {
          "internalType": "bool",
          "name": "fullReveal",
          "type": "bool"
        }
      ],
      "name": "Gemini",
      "outputs": [
        {
          "internalType": "string",
          "name": "",
          "type": "string"
        },
        {
          "internalType": "uint8",
          "name": "remaining",
          "type": "uint8"
        }
      ],
      "stateMutability": "view",
      "type": "function"
    },
    {
      "inputs": [
        {
          "internalType": "uint8",
          "name": "show",
          "type": "uint8"
        },
        {
          "internalType": "bool",
          "name": "fullReveal",
          "type": "bool"
        }
      ],
      "name": "Leo",
      "outputs": [
        {
          "internalType": "string",
          "name": "",
          "type": "string"
        },
        {
          "internalType": "uint8",
          "name": "remaining",
          "type": "uint8"
        }
      ],
      "stateMutability": "view",
      "type": "function"
    },
    {
      "inputs": [
        {
          "internalType": "uint8",
          "name": "show",
          "type": "uint8"
        },
        {
          "internalType": "bool",
          "name": "fullReveal",
          "type": "bool"
        }
      ],
      "name": "Libra",
      "outputs": [
        {
          "internalType": "string",
          "name": "",
          "type": "string"
        },
        {
          "internalType": "uint8",
          "name": "remaining",
          "type": "uint8"
        }
      ],
      "stateMutability": "view",
      "type": "function"
    },
    {
      "inputs": [
        {
          "internalType": "uint8",
          "name": "show",
          "type": "uint8"
        },
        {
          "internalType": "bool",
          "name": "fullReveal",
          "type": "bool"
        }
      ],
      "name": "Pegasus",
      "outputs": [
        {
          "internalType": "string",
          "name": "",
          "type": "string"
        },
        {
          "internalType": "uint8",
          "name": "remaining",
          "type": "uint8"
        }
      ],
      "stateMutability": "view",
      "type": "function"
    },
    {
      "inputs": [
        {
          "internalType": "uint8",
          "name": "show",
          "type": "uint8"
        },
        {
          "internalType": "bool",
          "name": "fullReveal",
          "type": "bool"
        }
      ],
      "name": "Pisces",
      "outputs": [
        {
          "internalType": "string",
          "name": "",
          "type": "string"
        },
        {
          "internalType": "uint8",
          "name": "remaining",
          "type": "uint8"
        }
      ],
      "stateMutability": "view",
      "type": "function"
    },
    {
      "inputs": [
        {
          "internalType": "uint8",
          "name": "show",
          "type": "uint8"
        },
        {
          "internalType": "bool",
          "name": "fullReveal",
          "type": "bool"
        }
      ],
      "name": "Sagittarius",
      "outputs": [
        {
          "internalType": "string",
          "name": "",
          "type": "string"
        },
        {
          "internalType": "uint8",
          "name": "remaining",
          "type": "uint8"
        }
      ],
      "stateMutability": "view",
      "type": "function"
    },
    {
      "inputs": [
        {
          "internalType": "uint8",
          "name": "show",
          "type": "uint8"
        },
        {
          "internalType": "bool",
          "name": "fullReveal",
          "type": "bool"
        }
      ],
      "name": "Scorpio",
      "outputs": [
        {
          "internalType": "string",
          "name": "",
          "type": "string"
        },
        {
          "internalType": "uint8",
          "name": "remaining",
          "type": "uint8"
        }
      ],
      "stateMutability": "view",
      "type": "function"
    },
    {
      "inputs": [
        {
          "internalType": "uint8",
          "name": "show",
          "type": "uint8"
        },
        {
          "internalType": "bool",
          "name": "fullReveal",
          "type": "bool"
        }
      ],
      "name": "Taurus",
      "outputs": [
        {
          "internalType": "string",
          "name": "",
          "type": "string"
        },
        {
          "internalType": "uint8",
          "name": "remaining",
          "type": "uint8"
        }
      ],
      "stateMutability": "view",
      "type": "function"
    },
    {
      "inputs": [
        {
          "internalType": "uint8",
          "name": "show",
          "type": "uint8"
        },
        {
          "internalType": "bool",
          "name": "fullReveal",
          "type": "bool"
        }
      ],
      "name": "UrsaMinor",
      "outputs": [
        {
          "internalType": "string",
          "name": "",
          "type": "string"
        },
        {
          "internalType": "uint8",
          "name": "remaining",
          "type": "uint8"
        }
      ],
      "stateMutability": "view",
      "type": "function"
    },
    {
      "inputs": [
        {
          "internalType": "uint8",
          "name": "show",
          "type": "uint8"
        },
        {
          "internalType": "bool",
          "name": "fullReveal",
          "type": "bool"
        }
      ],
      "name": "Virgo",
      "outputs": [
        {
          "internalType": "string",
          "name": "",
          "type": "string"
        },
        {
          "internalType": "uint8",
          "name": "remaining",
          "type": "uint8"
        }
      ],
      "stateMutability": "view",
      "type": "function"
    },
    {
      "inputs": [
        {
          "internalType": "string[]",
          "name": "stars",
          "type": "string[]"
        },
        {
          "internalType": "string",
          "name": "open",
          "type": "string"
        },
        {
          "internalType": "string",
          "name": "close",
          "type": "string"
        },
        {
          "internalType": "uint8",
          "name": "show",
          "type": "uint8"
        },
        {
          "internalType": "bool",
          "name": "fullReveal",
          "type": "bool"
        }
      ],
      "name": "buildStar",
      "outputs": [
        {
          "internalType": "string",
          "name": "",
          "type": "string"
        },
        {
          "internalType": "uint8",
          "name": "remaining",
          "type": "uint8"
        }
      ],
      "stateMutability": "pure",
      "type": "function"
    },
    {
      "inputs": [
        {
          "internalType": "uint256",
          "name": "constellationSeed",
          "type": "uint256"
        },
        {
          "internalType": "bool",
          "name": "fullReveal",
          "type": "bool"
        },
        {
          "internalType": "uint8",
          "name": "gazed",
          "type": "uint8"
        }
      ],
      "name": "getConstellation",
      "outputs": [
        {
          "internalType": "string",
          "name": "",
          "type": "string"
        },
        {
          "internalType": "uint8",
          "name": "remaining",
          "type": "uint8"
        }
      ],
      "stateMutability": "view",
      "type": "function"
    }
  ],
  "transactionHash": "0xdaf102205202e79f9d6f66b96e9d05e591891ecff8857ff66b0f757cdd9a6a50",
  "args": [],
  "numDeployments": 1,
  "solcInputHash": "3e6973bac707de8cce66ea97621d2f00",
  "bytecode": "0x6158d561003a600b82828239805160001a60731461002d57634e487b7160e01b600052600060045260246000fd5b30600052607381538281f3fe73000000000000000000000000000000000000000030146080604052600436106101255760003560e01c80635bffdde6116100bc57806398d834701161008b578063bca2680211610070578063bca268021461024b578063c0ae6ac81461025e578063d5e884e11461027157600080fd5b806398d8347014610225578063b802f4e91461023857600080fd5b80635bffdde6146101d95780636f16d5c4146101ec5780638391883c146101ff5780639560162f1461021257600080fd5b80633aa9830f116100f85780633aa9830f1461018d578063424ee33f146101a0578063551d56da146101b35780635ba60bab146101c657600080fd5b80630614f4f91461012a5780631f06f89c146101545780631f52809b1461016757806337449d941461017a575b600080fd5b61013d61013836600461343c565b610284565b60405161014b929190613493565b60405180910390f35b61013d61016236600461343c565b610420565b61013d61017536600461343c565b610654565b61013d61018836600461343c565b6108c7565b61013d61019b36600461343c565b610c0f565b61013d6101ae36600461343c565b610f57565b61013d6101c136600461343c565b61121f565b61013d6101d436600461343c565b6113e4565b61013d6101e736600461343c565b6116f5565b61013d6101fa36600461343c565b611cff565b61013d61020d36600461343c565b612125565b61013d6102203660046134d1565b612436565b61013d6102333660046135c4565b61258a565b61013d61024636600461343c565b6126b0565b61013d61025936600461343c565b612989565b61013d61026c36600461343c565b612df5565b61013d61027f36600461343c565b6131ab565b60408051600580825260c082019092526060916000918291816020015b60608152602001906001900390816102a157905050905060006040518060800160405280604781526020016147e7604791399050604051806060016040528060228152602001613ddc6022913982600081518110610301576103016136f0565b60200260200101819052506040518060600160405280602281526020016152cf6022913982600181518110610338576103386136f0565b6020026020010181905250604051806060016040528060228152602001615269602291398260028151811061036f5761036f6136f0565b602002602001018190525060405180606001604052806022815260200161514a60229139826003815181106103a6576103a66136f0565b60200260200101819052506040518060600160405280602181526020016145cd60219139826004815181106103dd576103dd6136f0565b602002602001018190525060006040518060a0016040528060748152602001613e8b6074913990506104128383838a8a61258a565b945094505050509250929050565b60408051600880825261012082019092526060916000918291816020015b606081526020019060019003908161043e57905050905060006040518060800160405280604681526020016138e260469139905060405180606001604052806022815260200161422b602291398260008151811061049e5761049e6136f0565b6020026020010181905250604051806060016040528060228152602001614fcd60229139826001815181106104d5576104d56136f0565b602002602001018190525060405180606001604052806022815260200161473e602291398260028151811061050c5761050c6136f0565b60200260200101819052506040518060600160405280602281526020016145ee6022913982600381518110610543576105436136f0565b6020026020010181905250604051806060016040528060228152602001614a91602291398260048151811061057a5761057a6136f0565b602002602001018190525060405180606001604052806022815260200161531360229139826005815181106105b1576105b16136f0565b602002602001018190525060405180606001604052806022815260200161587e60229139826006815181106105e8576105e86136f0565b60200260200101819052506040518060600160405280602281526020016157f2602291398260078151811061061f5761061f6136f0565b602002602001018190525060006040518060e0016040528060a5815260200161484f60a5913990506104128383838a8a61258a565b60408051600680825260e082019092526060916000918291816020015b60608152602001906001900390816106715790505090506000604051806080016040528060478152602001614ceb6047913990506040518060400160405280602081526020017f3c636972636c652063783d222d3330222063793d2236302220723d2232222f3e815250826000815181106106ee576106ee6136f0565b60200260200101819052506040518060400160405280602081526020017f3c636972636c652063783d222d3130222063793d2234352220723d2232222f3e81525082600181518110610742576107426136f0565b60200260200101819052506040518060400160405280601d81526020017f3c636972636c652063783d2235222063793d22302220723d2232222f3e00000081525082600281518110610796576107966136f0565b60200260200101819052506040518060400160405280601f81526020017f3c636972636c652063783d223535222063793d2231302220723d2232222f3e00815250826003815181106107ea576107ea6136f0565b60200260200101819052506040518060400160405280601f81526020017f3c636972636c652063783d223830222063793d2233302220723d2232222f3e008152508260048151811061083e5761083e6136f0565b60200260200101819052506040518060400160405280601f81526020017f3c636972636c652063783d223835222063793d2234352220723d2232222f3e0081525082600581518110610892576108926136f0565b602002602001018190525060006040518060a00160405280606781526020016157486067913990506104128383838a8a61258a565b60408051600d8082526101c082019092526060916000918291816020015b60608152602001906001900390816108e557905050905060006040518060800160405280604481526020016151066044913990506040518060600160405280602281526020016152f16022913982600081518110610945576109456136f0565b6020026020010181905250604051806060016040528060228152602001615247602291398260018151811061097c5761097c6136f0565b6020026020010181905250604051806060016040528060228152602001614ca860229139826002815181106109b3576109b36136f0565b6020026020010181905250604051806060016040528060228152602001614d3260229139826003815181106109ea576109ea6136f0565b6020026020010181905250604051806060016040528060228152602001613ca06022913982600481518110610a2157610a216136f0565b6020026020010181905250604051806060016040528060228152602001613dfe6022913982600581518110610a5857610a586136f0565b60200260200101819052506040518060600160405280602281526020016139286022913982600681518110610a8f57610a8f6136f0565b6020026020010181905250604051806060016040528060218152602001614f696021913982600781518110610ac657610ac66136f0565b60200260200101819052506040518060600160405280602281526020016147816022913982600881518110610afd57610afd6136f0565b6020026020010181905250604051806060016040528060218152602001614b3b6021913982600981518110610b3457610b346136f0565b60200260200101819052506040518060600160405280602181526020016146106021913982600a81518110610b6b57610b6b6136f0565b60200260200101819052506040518060600160405280602281526020016137eb6022913982600b81518110610ba257610ba26136f0565b60200260200101819052506040518060600160405280602281526020016141e86022913982600c81518110610bd957610bd96136f0565b6020026020010181905250600060405180610100016040528060d0815260200161501460d0913990506104128383838a8a61258a565b60408051600d8082526101c082019092526060916000918291816020015b6060815260200190600190039081610c2d57905050905060006040518060800160405280604781526020016144d4604791399050604051806060016040528060228152602001614c656022913982600081518110610c8d57610c8d6136f0565b60200260200101819052506040518060600160405280602281526020016157266022913982600181518110610cc457610cc46136f0565b6020026020010181905250604051806060016040528060228152602001613b8a6022913982600281518110610cfb57610cfb6136f0565b60200260200101819052506040518060600160405280602281526020016147a36022913982600381518110610d3257610d326136f0565b6020026020010181905250604051806060016040528060228152602001613c126022913982600481518110610d6957610d696136f0565b60200260200101819052506040518060600160405280602281526020016144226022913982600581518110610da057610da06136f0565b6020026020010181905250604051806060016040528060228152602001614af76022913982600681518110610dd757610dd76136f0565b6020026020010181905250604051806060016040528060228152602001614c436022913982600781518110610e0e57610e0e6136f0565b6020026020010181905250604051806060016040528060228152602001614c006022913982600881518110610e4557610e456136f0565b60200260200101819052506040518060600160405280602281526020016143386022913982600981518110610e7c57610e7c6136f0565b60200260200101819052506040518060600160405280602281526020016143166022913982600a81518110610eb357610eb36136f0565b60200260200101819052506040518060600160405280602281526020016146316022913982600b81518110610eea57610eea6136f0565b6020026020010181905250604051806060016040528060228152602001613bac6022913982600c81518110610f2157610f216136f0565b6020026020010181905250600060405180610100016040528060c6815260200161467860c6913990506104128383838a8a61258a565b60408051600780825261010082019092526060916000918291816020015b6060815260200190600190039081610f75579050509050600060405180608001604052806049815260200161448b6049913990506040518060400160405280601f81526020017f3c636972636c652063783d2230222063793d2230302220723d223222202f3e0081525082600081518110610ff257610ff26136f0565b60200260200101819052506040518060400160405280602081526020017f3c636972636c652063783d222d36222063793d2232302220723d223222202f3e81525082600181518110611046576110466136f0565b60200260200101819052506040518060400160405280602081526020017f3c636972636c652063783d222d39222063793d2234302220723d223222202f3e8152508260028151811061109a5761109a6136f0565b60200260200101819052506040518060400160405280602081526020017f3c636972636c652063783d222d33222063793d2236302220723d223222202f3e815250826003815181106110ee576110ee6136f0565b60200260200101819052506040518060400160405280602081526020017f3c636972636c652063783d222d3138222063793d2237302220723d2232222f3e81525082600481518110611142576111426136f0565b60200260200101819052506040518060400160405280602081526020017f3c636972636c652063783d222d3132222063793d2239322220723d2232222f3e81525082600581518110611196576111966136f0565b60200260200101819052506040518060400160405280601f81526020017f3c636972636c652063783d2238222063793d2239312220723d223222202f3e00815250826006815181106111ea576111ea6136f0565b602002602001018190525060006040518060a0016040528060778152602001613aa06077913990506104128383838a8a61258a565b60408051600680825260e082019092526060916000918291816020015b606081526020019060019003908161123c579050509050600060405180608001604052806046815260200161389c6046913990506040518060600160405280602a8152602001614f3f602a91398260008151811061129c5761129c6136f0565b60200260200101819052506040518060600160405280602a81526020016148f4602a9139826001815181106112d3576112d36136f0565b60200260200101819052506040518060600160405280602a815260200161394a602a91398260028151811061130a5761130a6136f0565b60200260200101819052506040518060600160405280602a81526020016151d7602a913982600381518110611341576113416136f0565b60200260200101819052506040518060600160405280602a8152602001614174602a913982600481518110611378576113786136f0565b60200260200101819052506040518060600160405280602a8152602001613d08602a9139826005815181106113af576113af6136f0565b602002602001018190525060006040518060c00160405280608281526020016139956082913990506104128383838a8a61258a565b60408051600c8082526101a082019092526060916000918291816020015b60608152602001906001900390816114025790505090506000604051806080016040528060518152602001613fb66051913990506040518060600160405280602581526020016143fd6025913982600081518110611462576114626136f0565b60200260200101819052506040518060600160405280602581526020016151906025913982600181518110611499576114996136f0565b6020026020010181905250604051806060016040528060258152602001614f1a60259139826002815181106114d0576114d06136f0565b60200260200101819052506040518060600160405280602581526020016156736025913982600381518110611507576115076136f0565b6020026020010181905250604051806060016040528060258152602001613c7b602591398260048151811061153e5761153e6136f0565b6020026020010181905250604051806060016040528060258152602001614fef6025913982600581518110611575576115756136f0565b602002602001018190525060405180606001604052806025815260200161570160259139826006815181106115ac576115ac6136f0565b6020026020010181905250604051806060016040528060258152602001613a5960259139826007815181106115e3576115e36136f0565b6020026020010181905250604051806060016040528060258152602001613cc2602591398260088151811061161a5761161a6136f0565b6020026020010181905250604051806060016040528060258152602001614e496025913982600981518110611651576116516136f0565b602002602001018190525060405180606001604052806024815260200161516c6024913982600a81518110611688576116886136f0565b60200260200101819052506040518060600160405280602481526020016145a96024913982600b815181106116bf576116bf6136f0565b6020026020010181905250600060405180610100016040528060c9815260200161424d60c9913990506104128383838a8a61258a565b6060600080604051806080016040528060488152602001613832604891396040805160148082526102a0820190925291925060009190816020015b6060815260200190600190039081611730579050509050604051806060016040528060218152602001614d9b6021913981600081518110611773576117736136f0565b602002602001018190525060405180606001604052806021815260200161539c60219139816001815181106117aa576117aa6136f0565b6020026020010181905250604051806060016040528060218152602001614c2260219139816002815181106117e1576117e16136f0565b60200260200101819052506040518060600160405280602181526020016153bd6021913981600381518110611818576118186136f0565b6020026020010181905250604051806060016040528060218152602001614b5c602191398160048151811061184f5761184f6136f0565b60200260200101819052506040518060600160405280602181526020016143966021913981600581518110611886576118866136f0565b6020026020010181905250604051806060016040528060218152602001613ce760219139816006815181106118bd576118bd6136f0565b602002602001018190525060405180606001604052806021815260200161535660219139816007815181106118f4576118f46136f0565b6020026020010181905250604051806060016040528060218152602001614cca602191398160088151811061192b5761192b6136f0565b60200260200101819052506040518060400160405280602081526020017f3c636972636c6520723d2232222063783d223937222063793d22343630222f3e8152508160098151811061197f5761197f6136f0565b60200260200101819052506040518060400160405280602081526020017f3c636972636c6520723d2232222063783d223937222063793d22343231222f3e81525081600a815181106119d3576119d36136f0565b60200260200101819052506040518060400160405280602081526020017f3c636972636c6520723d2232222063783d223931222063793d22353139222f3e81525081600b81518110611a2757611a276136f0565b60200260200101819052506040518060400160405280602081526020017f3c636972636c6520723d2232222063783d223931222063793d22343533222f3e81525081600c81518110611a7b57611a7b6136f0565b60200260200101819052506040518060400160405280602081526020017f3c636972636c6520723d2232222063783d223930222063793d22343236222f3e81525081600d81518110611acf57611acf6136f0565b60200260200101819052506040518060400160405280602081526020017f3c636972636c6520723d2232222063783d223838222063793d22353037222f3e81525081600e81518110611b2357611b236136f0565b60200260200101819052506040518060400160405280602081526020017f3c636972636c6520723d2232222063783d223831222063793d22343234222f3e81525081600f81518110611b7757611b776136f0565b60200260200101819052506040518060400160405280602081526020017f3c636972636c6520723d2232222063783d223731222063793d22353135222f3e81525081601081518110611bcb57611bcb6136f0565b60200260200101819052506040518060400160405280602081526020017f3c636972636c6520723d2232222063783d223636222063793d22343135222f3e81525081601181518110611c1f57611c1f6136f0565b60200260200101819052506040518060400160405280602081526020017f3c636972636c6520723d2232222063783d223632222063793d22343436222f3e81525081601281518110611c7357611c736136f0565b60200260200101819052506040518060400160405280602081526020017f3c636972636c6520723d2232222063783d223432222063793d22343638222f3e81525081601381518110611cc757611cc76136f0565b602002602001018190525060006040518061018001604052806101418152602001615403610141913990506104128284838a8a61258a565b60408051601180825261024082019092526060916000918291816020015b6060815260200190600190039081611d1d5790505090506000604051806080016040528060528152602001613b176052913990506040518060600160405280602581526020016153de6025913982600081518110611d7d57611d7d6136f0565b60200260200101819052506040518060600160405280602581526020016153776025913982600181518110611db457611db46136f0565b602002602001018190525060405180606001604052806025815260200161491e6025913982600281518110611deb57611deb6136f0565b6020026020010181905250604051806060016040528060258152602001613c346025913982600381518110611e2257611e226136f0565b60200260200101819052506040518060600160405280602581526020016145846025913982600481518110611e5957611e596136f0565b60200260200101819052506040518060600160405280602581526020016146536025913982600581518110611e9057611e906136f0565b60200260200101819052506040518060600160405280602581526020016144666025913982600681518110611ec757611ec76136f0565b6020026020010181905250604051806060016040528060258152602001614e6e6025913982600781518110611efe57611efe6136f0565b60200260200101819052506040518060600160405280602581526020016141c36025913982600881518110611f3557611f356136f0565b6020026020010181905250604051806060016040528060258152602001614e246025913982600981518110611f6c57611f6c6136f0565b60200260200101819052506040518060600160405280602581526020016152226025913982600a81518110611fa357611fa36136f0565b6020026020010181905250604051806060016040528060258152602001614dff6025913982600b81518110611fda57611fda6136f0565b602002602001018190525060405180606001604052806025815260200161419e6025913982600c81518110612011576120116136f0565b6020026020010181905250604051806060016040528060258152602001614d766025913982600d81518110612048576120486136f0565b602002602001018190525060405180606001604052806025815260200161380d6025913982600e8151811061207f5761207f6136f0565b60200260200101819052506040518060600160405280602581526020016143d86025913982600f815181106120b6576120b66136f0565b60200260200101819052506040518060600160405280602581526020016156ba60259139826010815181106120ed576120ed6136f0565b6020026020010181905250600060405180610140016040528061010d815260200161556661010d913990506104128383838a8a61258a565b60408051600c8082526101a082019092526060916000918291816020015b60608152602001906001900390816121435790505090506000604051806080016040528060488152602001614a4960489139905060405180606001604052806022815260200161528b60229139826000815181106121a3576121a36136f0565b602002602001018190525060405180606001604052806022815260200161444460229139826001815181106121da576121da6136f0565b60200260200101819052506040518060600160405280602281526020016140296022913982600281518110612211576122116136f0565b6020026020010181905250604051806060016040528060228152602001614eb56022913982600381518110612248576122486136f0565b60200260200101819052506040518060600160405280602281526020016147c5602291398260048151811061227f5761227f6136f0565b60200260200101819052506040518060600160405280602281526020016151b560229139826005815181106122b6576122b66136f0565b60200260200101819052506040518060600160405280602281526020016152ad60229139826006815181106122ed576122ed6136f0565b60200260200101819052506040518060600160405280602281526020016141526022913982600781518110612324576123246136f0565b6020026020010181905250604051806060016040528060228152602001613a7e602291398260088151811061235b5761235b6136f0565b60200260200101819052506040518060600160405280602281526020016150e46022913982600981518110612392576123926136f0565b6020026020010181905250604051806060016040528060228152602001613bf06022913982600a815181106123c9576123c96136f0565b6020026020010181905250604051806060016040528060228152602001614dbc6022913982600b81518110612400576124006136f0565b6020026020010181905250600060405180610120016040528060e4815260200161496560e4913990506104128383838a8a61258a565b6060600080612446600d87613706565b90508060ff166000036124675761245d8486610654565b9250925050612582565b8060ff1660010361247c5761245d84866116f5565b8060ff166002036124915761245d84866126b0565b8060ff166003036124a65761245d8486610c0f565b8060ff166004036124bb5761245d8486611cff565b8060ff166005036124d05761245d8486612df5565b8060ff166006036124e55761245d8486610420565b8060ff166007036124fa5761245d8486612125565b8060ff1660080361250f5761245d84866131ab565b8060ff166009036125245761245d8486610284565b8060ff16600a036125395761245d84866108c7565b8060ff16600b0361254e5761245d84866113e4565b8060ff16600c036125635761245d8486612989565b8060ff16600d036125785761245d8486610f57565b61245d848661121f565b935093915050565b60606000828061259d575086518460ff16115b156125a757865193505b604080516020808201835260008252915186926125c89183918b9101613728565b604051602081830303815290604052905060005b8660ff168160ff16101561264b57818a8260ff1681518110612600576126006136f0565b6020026020010151604051602001612619929190613728565b604051602081830303815290604052915082806126359061376d565b93505080806126439061378a565b9150506125dc565b5088518660ff160361268057808760405160200161266a929190613728565b60405160208183030381529060405290506126a3565b8060405160200161269191906137a9565b60405160208183030381529060405290505b9890975095505050505050565b60408051600b80825261018082019092526060916000918291816020015b60608152602001906001900390816126ce579050509050600060405180608001604052806048815260200161451b604891399050604051806060016040528060218152602001615335602191398260008151811061272e5761272e6136f0565b6020026020010181905250604051806060016040528060218152602001614fac6021913982600181518110612765576127656136f0565b6020026020010181905250604051806060016040528060218152602001614760602191398260028151811061279c5761279c6136f0565b602002602001018190525060405180606001604052806021815260200161420a60219139826003815181106127d3576127d36136f0565b6020026020010181905250604051806060016040528060218152602001613a38602191398260048151811061280a5761280a6136f0565b60200260200101819052506040518060600160405280602181526020016152016021913982600581518110612841576128416136f0565b6020026020010181905250604051806060016040528060218152602001614ef96021913982600681518110612878576128786136f0565b6020026020010181905250604051806060016040528060218152602001614c8760219139826007815181106128af576128af6136f0565b60200260200101819052506040518060600160405280602181526020016157d160219139826008815181106128e6576128e66136f0565b6020026020010181905250604051806060016040528060218152602001613974602191398260098151811061291d5761291d6136f0565b6020026020010181905250604051806060016040528060218152602001613a176021913982600a81518110612954576129546136f0565b602002602001018190525060006040518060e0016040528060b78152602001613eff60b7913990506104128383838a8a61258a565b60408051600c8082526101a082019092526060916000918291816020015b60608152602001906001900390816129a757905050905060006040518060600160405280603c815260200161435a603c913990506040518060400160405280601881526020017f3c636972636c652063783d222d31332220723d2232222f3e000000000000000081525082600081518110612a2457612a246136f0565b60200260200101819052506040518060400160405280601e81526020017f3c636972636c652063783d223232222063793d22362220723d2232222f3e000081525082600181518110612a7857612a786136f0565b60200260200101819052506040518060400160405280601e81526020017f3c636972636c652063783d223334222063793d22312220723d2232222f3e000081525082600281518110612acc57612acc6136f0565b60200260200101819052506040518060400160405280601f81526020017f3c636972636c652063783d223531222063793d222d372220723d2232222f3e0081525082600381518110612b2057612b206136f0565b60200260200101819052506040518060400160405280602081526020017f3c636972636c652063783d222d3231222063793d2233352220723d2232222f3e81525082600481518110612b7457612b746136f0565b60200260200101819052506040518060400160405280601f81526020017f3c636972636c652063783d223230222063793d2233382220723d2232222f3e0081525082600581518110612bc857612bc86136f0565b60200260200101819052506040518060400160405280601f81526020017f3c636972636c652063783d223335222063793d2235302220723d2232222f3e0081525082600681518110612c1c57612c1c6136f0565b60200260200101819052506040518060400160405280601f81526020017f3c636972636c652063783d223534222063793d2236302220723d2232222f3e0081525082600781518110612c7057612c706136f0565b60200260200101819052506040518060400160405280601f81526020017f3c636972636c652063783d223730222063793d2235302220723d2232222f3e0081525082600881518110612cc457612cc46136f0565b60200260200101819052506040518060400160405280601f81526020017f3c636972636c652063783d223331222063793d2231382220723d2232222f3e0081525082600981518110612d1857612d186136f0565b60200260200101819052506040518060400160405280601f81526020017f3c636972636c652063783d223534222063793d2231332220723d2232222f3e0081525082600a81518110612d6c57612d6c6136f0565b60200260200101819052506040518060400160405280601f81526020017f3c636972636c652063783d223636222063793d2231322220723d2232222f3e0081525082600b81518110612dc057612dc06136f0565b602002602001018190525060006040518060c0016040528060838152602001614b7d6083913990506104128383838a8a61258a565b60408051600f80825261020082019092526060916000918291816020015b6060815260200190600190039081612e135790505090506000604051806080016040528060498152602001613e4260499139905060405180606001604052806022815260200161387a6022913982600081518110612e7357612e736136f0565b6020026020010181905250604051806060016040528060228152602001613e206022913982600181518110612eaa57612eaa6136f0565b60200260200101819052506040518060600160405280602281526020016156986022913982600281518110612ee157612ee16136f0565b6020026020010181905250604051806060016040528060228152602001614f8a6022913982600381518110612f1857612f186136f0565b6020026020010181905250604051806060016040528060228152602001614d546022913982600481518110612f4f57612f4f6136f0565b60200260200101819052506040518060600160405280602281526020016140076022913982600581518110612f8657612f866136f0565b60200260200101819052506040518060600160405280602281526020016156df6022913982600681518110612fbd57612fbd6136f0565b6020026020010181905250604051806060016040528060228152602001614b196022913982600781518110612ff457612ff46136f0565b6020026020010181905250604051806060016040528060228152602001614ed7602291398260088151811061302b5761302b6136f0565b60200260200101819052506040518060600160405280602281526020016155446022913982600981518110613062576130626136f0565b6020026020010181905250604051806060016040528060228152602001614e936022913982600a81518110613099576130996136f0565b6020026020010181905250604051806060016040528060228152602001614ad56022913982600b815181106130d0576130d06136f0565b60200260200101819052506040518060600160405280602281526020016141306022913982600c81518110613107576131076136f0565b60200260200101819052506040518060600160405280602281526020016149436022913982600d8151811061313e5761313e6136f0565b6020026020010181905250604051806060016040528060228152602001613bce6022913982600e81518110613175576131756136f0565b6020026020010181905250600060405180610120016040528060e5815260200161404b60e5913990506104128383838a8a61258a565b60408051600980825261014082019092526060916000918291816020015b60608152602001906001900390816131c957905050905060006040518060800160405280604881526020016158366048913990506040518060600160405280602281526020016157af6022913982600081518110613229576132296136f0565b6020026020010181905250604051806060016040528060228152602001614ab36022913982600181518110613260576132606136f0565b60200260200101819052506040518060600160405280602281526020016158146022913982600281518110613297576132976136f0565b6020026020010181905250604051806060016040528060228152602001613c5960229139826003815181106132ce576132ce6136f0565b60200260200101819052506040518060600160405280602181526020016143b76021913982600481518110613305576133056136f0565b6020026020010181905250604051806060016040528060218152602001614dde602191398260058151811061333c5761333c6136f0565b60200260200101819052506040518060600160405280602181526020016145636021913982600681518110613373576133736136f0565b602002602001018190525060405180606001604052806021815260200161482e60219139826007815181106133aa576133aa6136f0565b6020026020010181905250604051806060016040528060218152602001613b6960219139826008815181106133e1576133e16136f0565b602002602001018190525060006040518060e0016040528060aa8152602001613d3260aa913990506104128383838a8a61258a565b803560ff8116811461342757600080fd5b919050565b8035801515811461342757600080fd5b6000806040838503121561344f57600080fd5b61345883613416565b91506134666020840161342c565b90509250929050565b60005b8381101561348a578181015183820152602001613472565b50506000910152565b60408152600083518060408401526134b281606085016020880161346f565b60ff93909316602083015250601f91909101601f191601606001919050565b6000806000606084860312156134e657600080fd5b833592506134f66020850161342c565b915061350460408501613416565b90509250925092565b634e487b7160e01b600052604160045260246000fd5b604051601f8201601f1916810167ffffffffffffffff8111828210171561354c5761354c61350d565b604052919050565b600082601f83011261356557600080fd5b813567ffffffffffffffff81111561357f5761357f61350d565b613592601f8201601f1916602001613523565b8181528460208386010111156135a757600080fd5b816020850160208301376000918101602001919091529392505050565b600080600080600060a086880312156135dc57600080fd5b853567ffffffffffffffff808211156135f457600080fd5b818801915088601f83011261360857600080fd5b813560208282111561361c5761361c61350d565b8160051b61362b828201613523565b928352848101820192828101908d85111561364557600080fd5b83870192505b84831015613681578235868111156136635760008081fd5b6136718f86838b0101613554565b835250918301919083019061364b565b9a5050508901359250508082111561369857600080fd5b6136a489838a01613554565b955060408801359150808211156136ba57600080fd5b506136c788828901613554565b9350506136d660608701613416565b91506136e46080870161342c565b90509295509295909350565b634e487b7160e01b600052603260045260246000fd5b60008261372357634e487b7160e01b600052601260045260246000fd5b500690565b6000835161373a81846020880161346f565b83519083019061374e81836020880161346f565b01949350505050565b634e487b7160e01b600052601160045260246000fd5b600060ff82168061378057613780613757565b6000190192915050565b600060ff821660ff81036137a0576137a0613757565b60010192915050565b600082516137bb81846020870161346f565b7f3c2f673e0000000000000000000000000000000000000000000000000000000092019182525060040191905056fe3c636972636c6520723d2232222063783d22323937222063793d2231313620222f3e3c636972636c6520723d22322e3836222063783d22343235222063793d2235343120222f3e3c67207472616e73666f726d3d227472616e736c617465283233342c2d323930292c20726f74617465283029222066696c6c3d222366666622206f7061636974793d22302e38223e3c636972636c6520723d2232222063783d22353133222063793d2232353620222f3e3c67207472616e73666f726d3d227472616e736c617465283133342c202d373029207363616c65283329222066696c6c3d222366666622206f7061636974793d22302e38223e3c67207472616e73666f726d3d227472616e736c61746528342c2d313230292c20726f74617465283029222066696c6c3d222366666622206f7061636974793d22302e38223e3c636972636c6520723d2232222063783d22333334222063793d2231333220222f3e3c636972636c6520723d22302e3636222063783d2236322e303030222063793d2239332e303030222f3e3c636972636c6520723d2232222063783d22313931222063793d22353131222f3e3c7061746820643d226d3837203736204c203732203736204c203539203830204c203439203739204d203632203933204c203539203830204c20363120363422207374726f6b652d77696474683d22302e333333222066696c6c3d226e6f6e6522207374726f6b653d222366666622206f7061636974793d222e35222f3e3c2f673e3c636972636c6520723d2232222063783d22313839222063793d22353139222f3e3c636972636c6520723d2232222063783d22323331222063793d22343134222f3e3c636972636c6520723d22322e3836222063783d22323037222063793d2231333520222f3e3c636972636c6520723d2232222063783d22323231222063793d2233343220222f3e3c7061746820643d226d2030203030204c202d36203230204c202d39203430204c202d33203630204c202d3138203730204c202d3132203932204c2038203931204c202d33203630222066696c6c3d226e6f6e6522207374726f6b653d22776869746522206f7061636974793d222e35222f3e3c2f673e3c67207472616e73666f726d3d227472616e736c6174652831342c2d313730292c20726f74617465283029207363616c6528302e3729222066696c6c3d222366666622206f7061636974793d22302e38223e3c636972636c6520723d2232222063783d223631222063793d2233343420222f3e3c636972636c6520723d2232222063783d22333534222063793d2235313720222f3e3c636972636c6520723d2232222063783d22333635222063793d2234373220222f3e3c636972636c6520723d2232222063783d22353133222063793d2232383120222f3e3c636972636c6520723d2232222063783d22313938222063793d2232343220222f3e3c636972636c6520723d2232222063783d22333339222063793d2234333520222f3e3c636972636c6520723d22322e3836222063783d22343832222063793d2235303220222f3e3c636972636c6520723d2232222063783d22313032222063793d2232363520222f3e3c636972636c6520723d22322e3836222063783d22323134222063793d2231323920222f3e3c636972636c6520723d2232222063783d22333539222063793d2231303920222f3e3c636972636c6520723d22322e3836222063783d22323033222063793d2231303020222f3e3c636972636c6520723d2232222063783d22313238222063793d22343431222f3e3c636972636c6520723d22302e3636222063783d2234392e303030222063793d2237392e303030222f3e3c7061746820643d226d3130382c323234204c2039342c20323236204c2039322c20323533204c203130322c20323635204c2031323020323634204c202031333620323736204c20383020333234204c203631203334344c20363420333037204c2031303220323635204d20383020333234204c203132302032363422207374726f6b653d222366666622206f7061636974793d222e35222066696c6c3d226e6f6e65222f3e3c2f673e3c636972636c6520723d2232222063783d22343931222063793d2231343320222f3e3c636972636c6520723d2232222063783d22333539222063793d2231363220222f3e3c636972636c6520723d2232222063783d22353133222063793d2232363820222f3e3c67207472616e73666f726d3d227472616e736c617465282d3132312c2d313230292c20726f74617465283029222066696c6c3d222366666622206f7061636974793d22302e38223e3c7061746820643d226d34393120313433204c203434332c20313233204c2034333720313132204c20343138203838204d2034343220313233204c203434302031353720202022207374726f6b653d222366666622206f7061636974793d222e35222066696c6c3d226e6f6e65222f3e3c2f673e3c7061746820643d224d203235342c20343932204c203234312c20343938204c203232312c20353130204c203230322c353134204c203138392c20353139204c203139312c20353131204c203230312c343935204c203231322c20343831204c203233322c20343234204c2032333120343134204d203233322c20343234204c203235332c2034383322207374726f6b653d222366666622206f7061636974793d222e35222066696c6c3d226e6f6e65222f3e3c2f673e3c67207472616e73666f726d3d227472616e736c617465283139342c3830292c20726f74617465283029207363616c6528302e3729222066696c6c3d222366666622206f7061636974793d22302e38223e3c636972636c6520723d2232222063783d22343735222063793d2232373420222f3e3c636972636c6520723d2232222063783d22323438222063793d2232373620222f3e3c7061746820643d226d3431392c20333034204c203431302c20333133204c203430352c20333230204c203431352c20333332204c203433352c20333333204c20203435322c20333238204c203435362c20333134204c203435382c20323936204c203437352c20323734204c203438312c20323638204c203438392c20323634204c203531332c20323536204c203531302c20323438204d203531332c20323536204c203531332c20323638204c203531332032383122207374726f6b653d222366666622206f7061636974793d222e35222066696c6c3d226e6f6e65222f3e3c2f673e3c636972636c6520723d2232222063783d22343130222063793d2233313320222f3e3c636972636c6520723d2232222063783d22323233222063793d2232383520222f3e3c636972636c6520723d22302e3636222063783d2235392e303030222063793d2238302e303030222f3e3c636972636c6520723d22322e3836222063783d22343438222063793d2234303120222f3e3c636972636c6520723d22322e3836222063783d22343635222063793d2235333920222f3e3c636972636c6520723d2232222063783d22323935222063793d2231303620222f3e3c636972636c6520723d2232222063783d22323332222063793d22343234222f3e3c636972636c6520723d2232222063783d22333631222063793d2232373220222f3e3c7061746820643d226d32363220313834204c2032353920313735204c2032323820313534204c2032313420313339204c2032313420313239204c2032313020313237204c2032313020313231204c2032303320313030204c20313834203637204d2032313420313339204c2032303720313335204c2032303120313331204c2031363420393322207374726f6b653d222366666622206f7061636974793d222e35222066696c6c3d226e6f6e6522207374726f6b652d77696474683d22312e3433222f3e3c2f673e3c636972636c6520723d2232222063783d22323932222063793d2234383420222f3e3c636972636c6520723d2232222063783d22333032222063793d2234383020222f3e3c67207472616e73666f726d3d227472616e736c617465283332322031353029222066696c6c3d222366666622206f7061636974793d22302e38223e3c636972636c6520723d2232222063783d22313332222063793d22343735222f3e3c636972636c6520723d2232222063783d223934222063793d2232323620222f3e3c636972636c6520723d22322e3836222063783d22343135222063793d2235353320222f3e3c636972636c6520723d22322e3836222063783d22323632222063793d2231383420222f3e3c636972636c6520723d2232222063783d22333335222063793d2234373620222f3e3c636972636c6520723d2232222063783d22323531222063793d2232323520222f3e3c636972636c6520723d22322e3836222063783d22343731222063793d2234303020222f3e3c67207472616e73666f726d3d227472616e736c617465283332302c313330292c20726f74617465282d333029222066696c6c3d222366666622206f7061636974793d22302e38223e3c67207472616e73666f726d3d227472616e736c617465282d362c2d333030292c20726f74617465283029222066696c6c3d222366666622206f7061636974793d22302e38223e3c67207472616e73666f726d3d227472616e736c617465283131342c2d333030292c20726f74617465283029222066696c6c3d222366666622206f7061636974793d22302e38223e3c636972636c6520723d2232222063783d223830222063793d2233323420222f3e3c636972636c6520723d22322e3836222063783d22343735222063793d2234383420222f3e3c636972636c6520723d22322e3836222063783d22313634222063793d22393320222f3e3c636972636c6520723d2232222063783d22343138222063793d22383820222f3e3c636972636c6520723d2232222063783d22333335222063793d2233323120222f3e3c636972636c6520723d2232222063783d22333036222063793d22383620222f3e3c636972636c6520723d2232222063783d22323839222063793d2234393220222f3e3c636972636c6520723d22322e3836222063783d22343734222063793d2234313720222f3e3c7061746820643d224d3337382c20343036204c203333392c20343335204c203330322c20343539204c203330322c20343830204c2032393220343834204c203238392c20343932204c2033313920353334204c203332352c353135204c203334372c353132204c203335342c353137204c203337322c353330204d203330322c343539204c203333352c343736204c2033363520343732222066696c6c3d226e6f6e6522207374726f6b653d222366666622206f7061636974793d222e35222f3e3c2f673e3c636972636c6520723d2232222063783d22333335222063793d2233323920222f3e3c636972636c6520723d2232222063783d22323431222063793d22343938222f3e3c636972636c6520723d2232222063783d22333139222063793d2231323520222f3e3c636972636c6520723d2232222063783d22333437222063793d2235313220222f3e3c636972636c6520723d2232222063783d22323431222063793d2233323720222f3e3c67207472616e73666f726d3d227472616e736c617465282d3130362c3530292c20726f74617465283029222066696c6c3d222366666622206f7061636974793d22302e38223e3c636972636c6520723d2232222063783d223634222063793d2233303720222f3e3c7061746820643d224d203330392c20323837204c203331382c20323831204c203332342c20323736204c203333332c20323532204c203336312c203237322c203335362c20333037204c20203333352c20333231204c203333352c20333239204d203335362c20333037204c203333332c203235322022207374726f6b653d222366666622206f7061636974793d222e35222066696c6c3d226e6f6e65222f3e3c2f673e3c636972636c6520723d22302e3636222063783d2237322e303030222063793d2237362e303030222f3e3c636972636c6520723d22322e3836222063783d22343935222063793d2235343120222f3e3c636972636c6520723d2232222063783d22343035222063793d2233323020222f3e3c7061746820643d226d3232312c20333432204c203233312c20333234204c203234312c20333237204c203236312c20323936204c203234382c20323736204c20203234362c20323434204c203235312c20323235204d203234362c20323434204c203232352c20323439204c203139382c20323432204d203232352c20323439204c203232332c20323835204c203236312c20323936204d203232332c20323835204c2032303720323939204c203138382033333022207374726f6b653d222366666622206f7061636974793d222e35222066696c6c3d226e6f6e65222f3e3c2f673e3c67207472616e73666f726d3d227472616e736c617465283131342c2d313134292c20726f74617465283029222066696c6c3d222366666622206f7061636974793d22302e38223e3c636972636c6520723d2232222063783d22333333222063793d2232353220222f3e3c636972636c6520723d2232222063783d22313230222063793d2232363420222f3e3c636972636c6520723d2232222063783d22343135222063793d2233333220222f3e3c636972636c6520723d2232222063783d22333235222063793d2235313520222f3e3c636972636c6520723d2232222063783d22343536222063793d2233313420222f3e3c636972636c6520723d2232222063783d22333135222063793d22383720222f3e3c636972636c6520723d2232222063783d22313334222063793d22343537222f3e3c7061746820643d224d37302035302035342036302033352035302032302033386c2d34312d3320382d333520333520362d322033326d34362d32362d313220312d323320352d392d31322031322d352031372d38222066696c6c3d226e6f6e6522207374726f6b653d222366666622206f7061636974793d222e35222f3e3c2f673e3c636972636c6520723d2232222063783d22333032222063793d2234353920222f3e3c636972636c6520723d2232222063783d22313339222063793d22343832222f3e3c636972636c6520723d2232222063783d22333139222063793d2235333420222f3e3c636972636c6520723d2232222063783d22333738222063793d2234303620222f3e3c636972636c6520723d2232222063783d22323032222063793d22353134222f3e3c636972636c6520723d2232222063783d22333734222063793d2231323820222f3e3c636972636c6520723d2232222063783d22313030222063793d22343436222f3e3c67207472616e73666f726d3d227472616e736c617465283331362c313333292c20726f74617465283029222066696c6c3d222366666622206f7061636974793d22302e38223e3c636972636c6520723d2232222063783d22333635222063793d2231343420222f3e3c636972636c6520723d2232222063783d22343831222063793d2232363820222f3e3c636972636c6520723d22322e3836222063783d22343435222063793d2234313320222f3e3c636972636c6520723d2232222063783d22313639222063793d22343437222f3e3c636972636c6520723d2232222063783d22313838222063793d2233333020222f3e3c636972636c6520723d2232222063783d223932222063793d2232353320222f3e3c636972636c6520723d22322e3836222063783d22343534222063793d2234323520222f3e3c636972636c6520723d22322e3836222063783d22343539222063793d2234343520222f3e3c636972636c6520723d22322e3836222063783d22323031222063793d2231333120222f3e3c636972636c6520723d22322e3836222063783d22343638222063793d2234323720222f3e3c636972636c6520723d2232222063783d22343139222063793d2233303420222f3e3c636972636c6520723d2232222063783d22323436222063793d2232343420222f3e3c636972636c6520723d2232222063783d22343532222063793d2233323820222f3e3c636972636c6520723d2232222063783d22323132222063793d22343831222f3e3c636972636c6520723d22322e3836222063783d22323238222063793d2231353420222f3e3c636972636c6520723d22302e3636222063783d2238372e303030222063793d2237362e303030222f3e3c636972636c6520723d2232222063783d22333234222063793d22383920222f3e3c636972636c6520723d2232222063783d22343839222063793d2232363420222f3e3c636972636c6520723d2232222063783d22323533222063793d22343833222f3e3c636972636c6520723d2232222063783d22333536222063793d2233303720222f3e3c636972636c6520723d22322e3836222063783d22323130222063793d2231323720222f3e3c7061746820643d226d333836202c20313136204c203337372c20313135204c203337342c20313238204c203336352c20313434204c203333342c20313332204c20203331392c20313235204c2032393720313136204c2032393520313036204c20333036203836204c20333135203837204c20333234203839204c2033353920313039204c2033373720313135204d2033363520313434204c203335392031363222207374726f6b653d222366666622206f7061636974793d222e35222066696c6c3d226e6f6e65222f3e3c2f673e3c636972636c6520723d2232222063783d22323037222063793d2232393920222f3e3c67207472616e73666f726d3d227472616e736c61746528342c3530292c20726f74617465283029222066696c6c3d222366666622206f7061636974793d22302e38223e3c636972636c6520723d2232222063783d22343337222063793d2231313220222f3e3c636972636c6520723d22322e3836222063783d22313834222063793d22363720222f3e3c636972636c6520723d22322e3836222063783d22323539222063793d2231373520222f3e3c636972636c6520723d2232222063783d22323331222063793d2233323420222f3e3c636972636c6520723d22302e3636222063783d2236312e303030222063793d2236342e303030222f3e3c636972636c6520723d2232222063783d22323231222063793d22353130222f3e3c636972636c6520723d22322e3836222063783d22343537222063793d2233393520222f3e3c636972636c6520723d2232222063783d22333737222063793d2231313520222f3e3c636972636c6520723d2232222063783d22343430222063793d2231353720222f3e3c636972636c6520723d2232222063783d22323631222063793d2232393620222f3e3c636972636c6520723d2232222063783d22323235222063793d2232343920222f3e3c636972636c6520723d2232222063783d22343433222063793d2231323320222f3e3c636972636c6520723d2232222063783d22333836222063793d2231313620222f3e3c636972636c6520723d2232222063783d22333234222063793d2232373620222f3e3c636972636c6520723d2232222063783d22323534222063793d22343932222f3e3c636972636c6520723d2232222063783d22313130222063793d22343439222f3e3c636972636c6520723d22322e3836222063783d22353032222063793d2235323620222f3e3c636972636c6520723d2232222063783d22313438222063793d22343632222f3e3c636972636c6520723d2232222063783d22313336222063793d22343139222f3e3c636972636c6520723d22322e3836222063783d22353233222063793d2235343720222f3e3c7061746820643d226d3136392c20343437204c203134382c20343632204c203133342c343537204c203133322c20343735204c203133392c20343832204d203133342c343537204c203132382c343431204c203133362c343139204d203132382c20343431204c203131302c20343439204c203130302c343436204c2039302c343236204c2039372c343231204d2039302c343236204c2038312c343234204c2036362c343135204d203131302c20343439204c2039372c20343630204c2039312c20343533204c203130302c343436204d2039312c343533204c2036322c20343436204c2034322c20343638204c2037312c20353135204c2038382c353037204d2037312c353135204c2039312c35313922207374726f6b653d222366666622206f7061636974793d222e35222066696c6c3d226e6f6e65222f3e3c2f673e3c636972636c6520723d2232222063783d22343335222063793d2233333320222f3e3c7061746820643d226d3430302c20353434204c203431352c20353533204c203432352c353431204c3436352c20353339204c203439352c20353431204c203532332c20353437204c203530322c20353236204c203438322c20353032204c203437352c20343834204c203435392c20343435204c203435342c20343235204c203434352c20343133204c203434382c20343031204c203435372c20333935204c203437312c20343030204c203437342c20343137204c203436382c20343237204c20343534203432352022207374726f6b653d222366666622206f7061636974793d222e35222066696c6c3d226e6f6e6522207374726f6b652d77696474683d22312e3433222f3e3c2f673e3c636972636c6520723d22322e3836222063783d22323134222063793d2231333920222f3e3c636972636c6520723d2232222063783d22353130222063793d2232343820222f3e3c636972636c6520723d22322e3836222063783d22343030222063793d2235343420222f3e3c636972636c6520723d2232222063783d22343538222063793d2232393620222f3e3c636972636c6520723d22322e3836222063783d22323130222063793d2231323120222f3e3c636972636c6520723d2232222063783d22333732222063793d2235333020222f3e3c7061746820643d226d202d3330203630204c202d3130203435204c20352030204c203535203130204c203830203330204c203835203435222066696c6c3d226e6f6e6522207374726f6b653d22776869746522206f7061636974793d222e35222f3e3c2f673e3c636972636c6520723d2232222063783d22313336222063793d2232373620222f3e3c636972636c6520723d2232222063783d22323031222063793d22343935222f3e3c636972636c6520723d2232222063783d22333039222063793d2232383720222f3e3c636972636c6520723d2232222063783d22313038222063793d2232323420222f3e3c67207472616e73666f726d3d227472616e736c617465283235342c2d313134292c20726f74617465283029222066696c6c3d222366666622206f7061636974793d22302e38223e3c636972636c6520723d2232222063783d22333138222063793d2232383120222f3ea2646970667358221220465a5734effbff160d5cced3d1c4431b0f47d872715d555936bd988c20adbdb564736f6c63430008120033",
  "devdoc": {
    "kind": "dev",
    "methods": {},
    "version": 1
  },
  "userdoc": {
    "kind": "user",
    "methods": {},
    "version": 1
  },
  "storageLayout": {
    "storage": [],
    "types": null
  }
}