{
  "address": "0xf7dC791b5219e134B28E4ce10A55E61b6f44b33b",
  "abi": [
    {
      "inputs": [
        {
          "internalType": "address",
          "name": "chainellation",
          "type": "address"
        }
      ],
      "stateMutability": "nonpayable",
      "type": "constructor"
    },
    {
      "inputs": [],
      "name": "AlreadyRegistered",
      "type": "error"
    },
    {
      "inputs": [],
      "name": "HoldChainellation",
      "type": "error"
    },
    {
      "inputs": [],
      "name": "HoldDecoration",
      "type": "error"
    },
    {
      "inputs": [],
      "name": "InvalidDecoType",
      "type": "error"
    },
    {
      "anonymous": false,
      "inputs": [
        {
          "indexed": true,
          "internalType": "address",
          "name": "previousOwner",
          "type": "address"
        },
        {
          "indexed": true,
          "internalType": "address",
          "name": "newOwner",
          "type": "address"
        }
      ],
      "name": "OwnershipTransferred",
      "type": "event"
    },
    {
      "inputs": [],
      "name": "DECORATION_ONE",
      "outputs": [
        {
          "internalType": "uint8",
          "name": "",
          "type": "uint8"
        }
      ],
      "stateMutability": "view",
      "type": "function"
    },
    {
      "inputs": [],
      "name": "SILHOUTTE",
      "outputs": [
        {
          "internalType": "uint8",
          "name": "",
          "type": "uint8"
        }
      ],
      "stateMutability": "view",
      "type": "function"
    },
    {
      "inputs": [],
      "name": "SKY_MATH",
      "outputs": [
        {
          "internalType": "uint8",
          "name": "",
          "type": "uint8"
        }
      ],
      "stateMutability": "view",
      "type": "function"
    },
    {
      "inputs": [
        {
          "internalType": "uint256",
          "name": "",
          "type": "uint256"
        }
      ],
      "name": "allDecorations",
      "outputs": [
        {
          "internalType": "address",
          "name": "",
          "type": "address"
        }
      ],
      "stateMutability": "view",
      "type": "function"
    },
    {
      "inputs": [],
      "name": "getAllDecorations",
      "outputs": [
        {
          "internalType": "address[]",
          "name": "",
          "type": "address[]"
        }
      ],
      "stateMutability": "view",
      "type": "function"
    },
    {
      "inputs": [
        {
          "internalType": "address",
          "name": "user",
          "type": "address"
        }
      ],
      "name": "getAvailableDecorations",
      "outputs": [
        {
          "internalType": "address[]",
          "name": "",
          "type": "address[]"
        },
        {
          "internalType": "uint256[]",
          "name": "",
          "type": "uint256[]"
        }
      ],
      "stateMutability": "view",
      "type": "function"
    },
    {
      "inputs": [
        {
          "components": [
            {
              "internalType": "uint256",
              "name": "tokenId",
              "type": "uint256"
            },
            {
              "internalType": "uint16",
              "name": "baseColor",
              "type": "uint16"
            },
            {
              "internalType": "uint256",
              "name": "starSeed",
              "type": "uint256"
            },
            {
              "internalType": "uint256",
              "name": "funkSeed",
              "type": "uint256"
            },
            {
              "internalType": "uint256",
              "name": "circleSeed",
              "type": "uint256"
            },
            {
              "internalType": "uint256",
              "name": "groundSeed",
              "type": "uint256"
            },
            {
              "internalType": "uint256",
              "name": "constellationSeed",
              "type": "uint256"
            }
          ],
          "internalType": "struct Color.DNA",
          "name": "dna",
          "type": "tuple"
        },
        {
          "internalType": "uint256",
          "name": "gazes",
          "type": "uint256"
        },
        {
          "internalType": "bool",
          "name": "daytime",
          "type": "bool"
        }
      ],
      "name": "getDecorationOne",
      "outputs": [
        {
          "internalType": "string",
          "name": "",
          "type": "string"
        }
      ],
      "stateMutability": "view",
      "type": "function"
    },
    {
      "inputs": [
        {
          "components": [
            {
              "internalType": "uint256",
              "name": "tokenId",
              "type": "uint256"
            },
            {
              "internalType": "uint16",
              "name": "baseColor",
              "type": "uint16"
            },
            {
              "internalType": "uint256",
              "name": "starSeed",
              "type": "uint256"
            },
            {
              "internalType": "uint256",
              "name": "funkSeed",
              "type": "uint256"
            },
            {
              "internalType": "uint256",
              "name": "circleSeed",
              "type": "uint256"
            },
            {
              "internalType": "uint256",
              "name": "groundSeed",
              "type": "uint256"
            },
            {
              "internalType": "uint256",
              "name": "constellationSeed",
              "type": "uint256"
            }
          ],
          "internalType": "struct Color.DNA",
          "name": "dna",
          "type": "tuple"
        },
        {
          "internalType": "uint256",
          "name": "gazes",
          "type": "uint256"
        },
        {
          "internalType": "bool",
          "name": "daytime",
          "type": "bool"
        }
      ],
      "name": "getSilhouette",
      "outputs": [
        {
          "internalType": "string",
          "name": "",
          "type": "string"
        }
      ],
      "stateMutability": "view",
      "type": "function"
    },
    {
      "inputs": [
        {
          "components": [
            {
              "internalType": "uint256",
              "name": "tokenId",
              "type": "uint256"
            },
            {
              "internalType": "uint16",
              "name": "baseColor",
              "type": "uint16"
            },
            {
              "internalType": "uint256",
              "name": "starSeed",
              "type": "uint256"
            },
            {
              "internalType": "uint256",
              "name": "funkSeed",
              "type": "uint256"
            },
            {
              "internalType": "uint256",
              "name": "circleSeed",
              "type": "uint256"
            },
            {
              "internalType": "uint256",
              "name": "groundSeed",
              "type": "uint256"
            },
            {
              "internalType": "uint256",
              "name": "constellationSeed",
              "type": "uint256"
            }
          ],
          "internalType": "struct Color.DNA",
          "name": "dna",
          "type": "tuple"
        },
        {
          "internalType": "uint256",
          "name": "gazes",
          "type": "uint256"
        },
        {
          "internalType": "bool",
          "name": "daytime",
          "type": "bool"
        }
      ],
      "name": "getSkyMath",
      "outputs": [
        {
          "internalType": "string",
          "name": "",
          "type": "string"
        }
      ],
      "stateMutability": "view",
      "type": "function"
    },
    {
      "inputs": [],
      "name": "owner",
      "outputs": [
        {
          "internalType": "address",
          "name": "",
          "type": "address"
        }
      ],
      "stateMutability": "view",
      "type": "function"
    },
    {
      "inputs": [
        {
          "internalType": "address",
          "name": "_deco",
          "type": "address"
        },
        {
          "internalType": "uint8",
          "name": "spot",
          "type": "uint8"
        }
      ],
      "name": "register",
      "outputs": [],
      "stateMutability": "nonpayable",
      "type": "function"
    },
    {
      "inputs": [],
      "name": "renounceOwnership",
      "outputs": [],
      "stateMutability": "nonpayable",
      "type": "function"
    },
    {
      "inputs": [
        {
          "internalType": "uint256",
          "name": "tokenId",
          "type": "uint256"
        },
        {
          "internalType": "uint8",
          "name": "decoType",
          "type": "uint8"
        },
        {
          "internalType": "address",
          "name": "deco",
          "type": "address"
        },
        {
          "internalType": "uint256",
          "name": "decoId",
          "type": "uint256"
        }
      ],
      "name": "setDecoration",
      "outputs": [],
      "stateMutability": "nonpayable",
      "type": "function"
    },
    {
      "inputs": [
        {
          "internalType": "uint256[]",
          "name": "tokenIds",
          "type": "uint256[]"
        },
        {
          "internalType": "uint8[]",
          "name": "decoTypes",
          "type": "uint8[]"
        },
        {
          "internalType": "address[]",
          "name": "decos",
          "type": "address[]"
        },
        {
          "internalType": "uint256[]",
          "name": "decoIds",
          "type": "uint256[]"
        }
      ],
      "name": "setDecorationBatch",
      "outputs": [],
      "stateMutability": "nonpayable",
      "type": "function"
    },
    {
      "inputs": [
        {
          "internalType": "address",
          "name": "newOwner",
          "type": "address"
        }
      ],
      "name": "transferOwnership",
      "outputs": [],
      "stateMutability": "nonpayable",
      "type": "function"
    },
    {
      "inputs": [
        {
          "internalType": "address",
          "name": "_deco",
          "type": "address"
        }
      ],
      "name": "unregister",
      "outputs": [],
      "stateMutability": "nonpayable",
      "type": "function"
    },
    {
      "inputs": [],
      "name": "withdraw",
      "outputs": [],
      "stateMutability": "nonpayable",
      "type": "function"
    },
    {
      "inputs": [
        {
          "internalType": "address",
          "name": "_tokenContract",
          "type": "address"
        },
        {
          "internalType": "uint256",
          "name": "_amount",
          "type": "uint256"
        }
      ],
      "name": "withdrawToken",
      "outputs": [],
      "stateMutability": "nonpayable",
      "type": "function"
    }
  ],
  "transactionHash": "0x6ebabc63f83eb576a61296b30ca1ac13869faaddb8ec52e129794416ca180cd0",
  "args": [
    "0xbcE1b660Ee52F5b378b7A8f0e01A3dd4EC5c590A"
  ],
  "numDeployments": 1,
  "solcInputHash": "017c1ee9e5326ad7f899b5b4c635f957",
  "bytecode": "0x608060405234801561001057600080fd5b5060405161199138038061199183398101604081905261002f916100ad565b6100383361005d565b600180546001600160a01b0319166001600160a01b03929092169190911790556100dd565b600080546001600160a01b038381166001600160a01b0319831681178455604051919092169283917f8be0079c531659141344cd1fd0a4f28419497f9722a3daafe3b4186f6b6457e09190a35050565b6000602082840312156100bf57600080fd5b81516001600160a01b03811681146100d657600080fd5b9392505050565b6118a5806100ec6000396000f3fe608060405234801561001057600080fd5b50600436106101365760003560e01c8063546faa06116100b25780638da5cb5b11610081578063ac7c0ae711610066578063ac7c0ae71461026a578063d145c88414610272578063f2fde38b1461029357600080fd5b80638da5cb5b146102465780639e281a981461025757600080fd5b8063546faa06146102055780635a3eadd114610218578063692577331461022b578063715018a61461023e57600080fd5b80633942a6b91161010957806342a64f04116100ee57806342a64f04146101c857806343341500146101dd5780634fd0685a146101e557600080fd5b80633942a6b9146101955780633ccfd60b146101c057600080fd5b806307e495981461013b578063139885dd14610150578063291d4386146101635780632ec2c24614610182575b600080fd5b61014e6101493660046111db565b6102a6565b005b61014e61015e366004611210565b610370565b61016b600381565b60405160ff90911681526020015b60405180910390f35b61014e610190366004611256565b610753565b6101a86101a3366004611273565b6108f2565b6040516001600160a01b039091168152602001610179565b61014e61091c565b6101d0610953565b60405161017991906112d0565b61016b600281565b6101f86101f336600461136c565b6109b5565b6040516101799190611431565b6101f861021336600461136c565b610af9565b61014e610226366004611557565b610bf2565b6101f861023936600461136c565b610c87565b61014e610d7a565b6000546001600160a01b03166101a8565b61014e61026536600461165f565b610d8e565b61016b600181565b610285610280366004611256565b610e25565b60405161017992919061168b565b61014e6102a1366004611256565b611079565b6102ae611106565b6001600160a01b03821660009081526002602052604090205460ff1615610301576040517f3a81d6fc00000000000000000000000000000000000000000000000000000000815260040160405180910390fd5b6001600160a01b03919091166000818152600260205260408120805460ff191660ff909416939093179092556003805460018101825592527fc2575a0e9e593c00f959f8c92f12db2869c3395a3b0502d05e2516446f71f85b90910180546001600160a01b0319169091179055565b6001546040516331a9108f60e11b81526004810186905233916001600160a01b031690636352211e90602401602060405180830381865afa1580156103b9573d6000803e3d6000fd5b505050506040513d601f19601f820116820180604052508101906103dd91906116e2565b6001600160a01b03161461041d576040517f31e11db100000000000000000000000000000000000000000000000000000000815260040160405180910390fd5b6040516331a9108f60e11b81526004810182905233906001600160a01b03841690636352211e90602401602060405180830381865afa158015610464573d6000803e3d6000fd5b505050506040513d601f19601f8201168201806040525081019061048891906116e2565b6001600160a01b0316146104c8576040517f5113308600000000000000000000000000000000000000000000000000000000815260040160405180910390fd5b6001600160a01b03821660009081526002602052604090205460ff8481169116146105065760405163ec64f18d60e01b815260040160405180910390fd5b6040517f081812fc000000000000000000000000000000000000000000000000000000008152600481018590528290309081906001600160a01b0384169063081812fc90602401602060405180830381865afa15801561056a573d6000803e3d6000fd5b505050506040513d601f19601f8201168201806040525081019061058e91906116e2565b6001600160a01b03161461060f5760405162461bcd60e51b815260206004820152602760248201527f43616c6c6572206973206e6f7420617070726f76656420746f206275726e207460448201527f686973204e46540000000000000000000000000000000000000000000000000060648201526084015b60405180910390fd5b6040517f42966c68000000000000000000000000000000000000000000000000000000008152600481018790526001600160a01b038316906342966c6890602401600060405180830381600087803b15801561066a57600080fd5b505af115801561067e573d6000803e3d6000fd5b50505050600160ff168560ff16036106bc57600086815260046020526040902080546001600160a01b0319166001600160a01b03861617905561074b565b60011960ff8616016106f757600086815260046020526040902060010180546001600160a01b0319166001600160a01b03861617905561074b565b60021960ff86160161073257600086815260046020526040902060020180546001600160a01b0319166001600160a01b03861617905561074b565b60405163ec64f18d60e01b815260040160405180910390fd5b505050505050565b61075b611106565b6001600160a01b0381166000908152600260205260408120805460ff19169055805b60035461078c90600190611715565b8110156107e457826001600160a01b0316600382815481106107b0576107b061172e565b6000918252602090912001546001600160a01b0316036107d2578091506107e4565b806107dc81611744565b91505061077d565b50805b6003546107f690600190611715565b81101561088157600361080a82600161175d565b8154811061081a5761081a61172e565b600091825260209091200154600380546001600160a01b0390921691839081106108465761084661172e565b600091825260209091200180546001600160a01b0319166001600160a01b03929092169190911790558061087981611744565b9150506107e7565b506003805461089290600190611715565b815481106108a2576108a261172e565b600091825260209091200180546001600160a01b031916905560038054806108cc576108cc611770565b600082815260209020810160001990810180546001600160a01b03191690550190555050565b6003818154811061090257600080fd5b6000918252602090912001546001600160a01b0316905081565b610924611106565b60405133904780156108fc02916000818181858888f19350505050158015610950573d6000803e3d6000fd5b50565b606060038054806020026020016040519081016040528092919081815260200182805480156109ab57602002820191906000526020600020905b81546001600160a01b0316815260019091019060200180831161098d575b5050505050905090565b82516000908152600460205260409020600101546060906001600160a01b0316610a13575060408051808201909152601481527f3c672069643d22736b796d617468223e3c2f673e0000000000000000000000006020820152610af2565b8351600090815260046020818152604092839020600101548751845163e3366c9960e01b815293840152875160248401529087015161ffff16604483015291860151606482015260608601516084820152608086015160a482015260a086015160c482015260c086015160e482015261010481018590528315156101248201526001600160a01b039091169063e3366c9990610144015b600060405180830381865afa158015610ac7573d6000803e3d6000fd5b505050506040513d6000823e601f3d908101601f19168201604052610aef9190810190611786565b90505b9392505050565b82516000908152600460205260409020600201546060906001600160a01b0316610b57575060408051808201909152601181527f3c672069643d226465636f223e3c2f673e0000000000000000000000000000006020820152610af2565b8351600090815260046020818152604092839020600201548751845163e3366c9960e01b815293840152875160248401529087015161ffff16604483015291860151606482015260608601516084820152608086015160a482015260a086015160c482015260c086015160e482015261010481018590528315156101248201526001600160a01b039091169063e3366c999061014401610aaa565b60005b8451811015610c8057610c6e858281518110610c1357610c1361172e565b6020026020010151858381518110610c2d57610c2d61172e565b6020026020010151858481518110610c4757610c4761172e565b6020026020010151858581518110610c6157610c6161172e565b6020026020010151610370565b80610c7881611744565b915050610bf5565b5050505050565b82516000908152600460205260409020546060906001600160a01b0316610ce2575060408051808201909152601781527f3c672069643d2273696c686f7565747465223e3c2f673e0000000000000000006020820152610af2565b8351600090815260046020818152604092839020548751845163e3366c9960e01b815293840152875160248401529087015161ffff16604483015291860151606482015260608601516084820152608086015160a482015260a086015160c482015260c086015160e482015261010481018590528315156101248201526001600160a01b039091169063e3366c999061014401610aaa565b610d82611106565b610d8c6000611160565b565b610d96611106565b6040517fa9059cbb000000000000000000000000000000000000000000000000000000008152336004820152602481018290526001600160a01b0383169063a9059cbb906044016020604051808303816000875af1158015610dfc573d6000803e3d6000fd5b505050506040513d601f19601f82011682018060405250810190610e20919061181a565b505050565b606080600060038054905067ffffffffffffffff811115610e4857610e486112e3565b604051908082528060200260200182016040528015610e71578160200160208202803683370190505b5060035490915060009067ffffffffffffffff811115610e9357610e936112e3565b604051908082528060200260200182016040528015610ebc578160200160208202803683370190505b5090506000805b60035460ff8216101561106d57600060038260ff1681548110610ee857610ee861172e565b6000918252602090912001546040517f70a082310000000000000000000000000000000000000000000000000000000081526001600160a01b038a81166004830152909116906370a0823190602401602060405180830381865afa158015610f54573d6000803e3d6000fd5b505050506040513d601f19601f82011682018060405250810190610f789190611837565b111561105b5760038160ff1681548110610f9457610f9461172e565b9060005260206000200160009054906101000a90046001600160a01b0316848360ff1681518110610fc757610fc761172e565b60200260200101906001600160a01b031690816001600160a01b0316815250506002600060038360ff16815481106110015761100161172e565b60009182526020808320909101546001600160a01b03168352820192909252604001902054835160ff9182169185919085169081106110425761104261172e565b60209081029190910101528161105781611850565b9250505b8061106581611850565b915050610ec3565b50919590945092505050565b611081611106565b6001600160a01b0381166110fd5760405162461bcd60e51b815260206004820152602660248201527f4f776e61626c653a206e6577206f776e657220697320746865207a65726f206160448201527f64647265737300000000000000000000000000000000000000000000000000006064820152608401610606565b61095081611160565b6000546001600160a01b03163314610d8c5760405162461bcd60e51b815260206004820181905260248201527f4f776e61626c653a2063616c6c6572206973206e6f7420746865206f776e65726044820152606401610606565b600080546001600160a01b038381166001600160a01b0319831681178455604051919092169283917f8be0079c531659141344cd1fd0a4f28419497f9722a3daafe3b4186f6b6457e09190a35050565b6001600160a01b038116811461095057600080fd5b803560ff811681146111d657600080fd5b919050565b600080604083850312156111ee57600080fd5b82356111f9816111b0565b9150611207602084016111c5565b90509250929050565b6000806000806080858703121561122657600080fd5b84359350611236602086016111c5565b92506040850135611246816111b0565b9396929550929360600135925050565b60006020828403121561126857600080fd5b8135610af2816111b0565b60006020828403121561128557600080fd5b5035919050565b600081518084526020808501945080840160005b838110156112c55781516001600160a01b0316875295820195908201906001016112a0565b509495945050505050565b602081526000610af2602083018461128c565b634e487b7160e01b600052604160045260246000fd5b60405160e0810167ffffffffffffffff8111828210171561131c5761131c6112e3565b60405290565b604051601f8201601f1916810167ffffffffffffffff8111828210171561134b5761134b6112e3565b604052919050565b801515811461095057600080fd5b80356111d681611353565b600080600083850361012081121561138357600080fd5b60e081121561139157600080fd5b5061139a6112f9565b84358152602085013561ffff811681146113b357600080fd5b8060208301525060408501356040820152606085013560608201526080850135608082015260a085013560a082015260c085013560c08201528093505060e084013591506114046101008501611361565b90509250925092565b60005b83811015611428578181015183820152602001611410565b50506000910152565b602081526000825180602084015261145081604085016020870161140d565b601f01601f19169190910160400192915050565b600067ffffffffffffffff82111561147e5761147e6112e3565b5060051b60200190565b600082601f83011261149957600080fd5b813560206114ae6114a983611464565b611322565b82815260059290921b840181019181810190868411156114cd57600080fd5b8286015b848110156114e857803583529183019183016114d1565b509695505050505050565b600082601f83011261150457600080fd5b813560206115146114a983611464565b82815260059290921b8401810191818101908684111561153357600080fd5b8286015b848110156114e857803561154a816111b0565b8352918301918301611537565b6000806000806080858703121561156d57600080fd5b843567ffffffffffffffff8082111561158557600080fd5b61159188838901611488565b95506020915081870135818111156115a857600080fd5b8701601f810189136115b957600080fd5b80356115c76114a982611464565b81815260059190911b8201840190848101908b8311156115e657600080fd5b928501925b8284101561160b576115fc846111c5565b825292850192908501906115eb565b9750505050604087013591508082111561162457600080fd5b611630888389016114f3565b9350606087013591508082111561164657600080fd5b5061165387828801611488565b91505092959194509250565b6000806040838503121561167257600080fd5b823561167d816111b0565b946020939093013593505050565b60408152600061169e604083018561128c565b82810360208481019190915284518083528582019282019060005b818110156116d5578451835293830193918301916001016116b9565b5090979650505050505050565b6000602082840312156116f457600080fd5b8151610af2816111b0565b634e487b7160e01b600052601160045260246000fd5b81810381811115611728576117286116ff565b92915050565b634e487b7160e01b600052603260045260246000fd5b600060018201611756576117566116ff565b5060010190565b80820180821115611728576117286116ff565b634e487b7160e01b600052603160045260246000fd5b60006020828403121561179857600080fd5b815167ffffffffffffffff808211156117b057600080fd5b818401915084601f8301126117c457600080fd5b8151818111156117d6576117d66112e3565b6117e9601f8201601f1916602001611322565b915080825285602082850101111561180057600080fd5b61181181602084016020860161140d565b50949350505050565b60006020828403121561182c57600080fd5b8151610af281611353565b60006020828403121561184957600080fd5b5051919050565b600060ff821660ff8103611866576118666116ff565b6001019291505056fea26469706673582212204ad9e3647686c10ce53b06c493dc55a059846edc117eaff05ad827efb30b48e864736f6c63430008120033",
  "libraries": {
    "Color": "0xd795DE79b46792928a386EAcddE5Ef173146509F"
  },
  "devdoc": {
    "kind": "dev",
    "methods": {
      "owner()": {
        "details": "Returns the address of the current owner."
      },
      "renounceOwnership()": {
        "details": "Leaves the contract without owner. It will not be possible to call `onlyOwner` functions anymore. Can only be called by the current owner. NOTE: Renouncing ownership will leave the contract without an owner, thereby removing any functionality that is only available to the owner."
      },
      "transferOwnership(address)": {
        "details": "Transfers ownership of the contract to a new account (`newOwner`). Can only be called by the current owner."
      }
    },
    "version": 1
  },
  "userdoc": {
    "kind": "user",
    "methods": {},
    "version": 1
  },
  "storageLayout": {
    "storage": [
      {
        "astId": 7,
        "contract": "contracts/Decorations.sol:Decorations",
        "label": "_owner",
        "offset": 0,
        "slot": "0",
        "type": "t_address"
      },
      {
        "astId": 1614,
        "contract": "contracts/Decorations.sol:Decorations",
        "label": "_chainellation",
        "offset": 0,
        "slot": "1",
        "type": "t_address"
      },
      {
        "astId": 1618,
        "contract": "contracts/Decorations.sol:Decorations",
        "label": "_registered",
        "offset": 0,
        "slot": "2",
        "type": "t_mapping(t_address,t_uint8)"
      },
      {
        "astId": 1621,
        "contract": "contracts/Decorations.sol:Decorations",
        "label": "allDecorations",
        "offset": 0,
        "slot": "3",
        "type": "t_array(t_address)dyn_storage"
      },
      {
        "astId": 1626,
        "contract": "contracts/Decorations.sol:Decorations",
        "label": "_decorations",
        "offset": 0,
        "slot": "4",
        "type": "t_mapping(t_uint256,t_struct(Decoration)1603_storage)"
      }
    ],
    "types": {
      "t_address": {
        "encoding": "inplace",
        "label": "address",
        "numberOfBytes": "20"
      },
      "t_array(t_address)dyn_storage": {
        "base": "t_address",
        "encoding": "dynamic_array",
        "label": "address[]",
        "numberOfBytes": "32"
      },
      "t_mapping(t_address,t_uint8)": {
        "encoding": "mapping",
        "key": "t_address",
        "label": "mapping(address => uint8)",
        "numberOfBytes": "32",
        "value": "t_uint8"
      },
      "t_mapping(t_uint256,t_struct(Decoration)1603_storage)": {
        "encoding": "mapping",
        "key": "t_uint256",
        "label": "mapping(uint256 => struct Decorations.Decoration)",
        "numberOfBytes": "32",
        "value": "t_struct(Decoration)1603_storage"
      },
      "t_struct(Decoration)1603_storage": {
        "encoding": "inplace",
        "label": "struct Decorations.Decoration",
        "members": [
          {
            "astId": 1598,
            "contract": "contracts/Decorations.sol:Decorations",
            "label": "silhouette",
            "offset": 0,
            "slot": "0",
            "type": "t_address"
          },
          {
            "astId": 1600,
            "contract": "contracts/Decorations.sol:Decorations",
            "label": "skyMath",
            "offset": 0,
            "slot": "1",
            "type": "t_address"
          },
          {
            "astId": 1602,
            "contract": "contracts/Decorations.sol:Decorations",
            "label": "decorationOne",
            "offset": 0,
            "slot": "2",
            "type": "t_address"
          }
        ],
        "numberOfBytes": "96"
      },
      "t_uint256": {
        "encoding": "inplace",
        "label": "uint256",
        "numberOfBytes": "32"
      },
      "t_uint8": {
        "encoding": "inplace",
        "label": "uint8",
        "numberOfBytes": "1"
      }
    }
  }
}