{
  "address": "0xdB007aB5b1800ba7ABc2Ac8b33c24b4C4afFb03D",
  "abi": [
    {
      "anonymous": false,
      "inputs": [
        {
          "indexed": true,
          "internalType": "address",
          "name": "previousOwner",
          "type": "address"
        },
        {
          "indexed": true,
          "internalType": "address",
          "name": "newOwner",
          "type": "address"
        }
      ],
      "name": "OwnershipTransferred",
      "type": "event"
    },
    {
      "inputs": [
        {
          "internalType": "address",
          "name": "owner",
          "type": "address"
        }
      ],
      "name": "balanceOf",
      "outputs": [
        {
          "internalType": "uint256",
          "name": "",
          "type": "uint256"
        }
      ],
      "stateMutability": "view",
      "type": "function"
    },
    {
      "inputs": [
        {
          "internalType": "uint256",
          "name": "tokenId",
          "type": "uint256"
        }
      ],
      "name": "burn",
      "outputs": [],
      "stateMutability": "nonpayable",
      "type": "function"
    },
    {
      "inputs": [
        {
          "internalType": "uint256",
          "name": "tokenId",
          "type": "uint256"
        }
      ],
      "name": "generateCharacter",
      "outputs": [
        {
          "internalType": "string",
          "name": "",
          "type": "string"
        }
      ],
      "stateMutability": "view",
      "type": "function"
    },
    {
      "inputs": [
        {
          "internalType": "uint256",
          "name": "tokenId",
          "type": "uint256"
        }
      ],
      "name": "getApproved",
      "outputs": [
        {
          "internalType": "address",
          "name": "",
          "type": "address"
        }
      ],
      "stateMutability": "view",
      "type": "function"
    },
    {
      "inputs": [
        {
          "internalType": "uint256",
          "name": "tokenId",
          "type": "uint256"
        },
        {
          "components": [
            {
              "internalType": "uint256",
              "name": "tokenId",
              "type": "uint256"
            },
            {
              "internalType": "uint16",
              "name": "baseColor",
              "type": "uint16"
            },
            {
              "internalType": "uint256",
              "name": "starSeed",
              "type": "uint256"
            },
            {
              "internalType": "uint256",
              "name": "funkSeed",
              "type": "uint256"
            },
            {
              "internalType": "uint256",
              "name": "circleSeed",
              "type": "uint256"
            },
            {
              "internalType": "uint256",
              "name": "groundSeed",
              "type": "uint256"
            },
            {
              "internalType": "uint256",
              "name": "constellationSeed",
              "type": "uint256"
            }
          ],
          "internalType": "struct Color.DNA",
          "name": "dna",
          "type": "tuple"
        },
        {
          "internalType": "uint256",
          "name": "gazes",
          "type": "uint256"
        },
        {
          "internalType": "bool",
          "name": "daytime",
          "type": "bool"
        }
      ],
      "name": "getDeco",
      "outputs": [
        {
          "internalType": "string",
          "name": "",
          "type": "string"
        }
      ],
      "stateMutability": "pure",
      "type": "function"
    },
    {
      "inputs": [],
      "name": "owner",
      "outputs": [
        {
          "internalType": "address",
          "name": "",
          "type": "address"
        }
      ],
      "stateMutability": "view",
      "type": "function"
    },
    {
      "inputs": [
        {
          "internalType": "uint256",
          "name": "tokenId",
          "type": "uint256"
        }
      ],
      "name": "ownerOf",
      "outputs": [
        {
          "internalType": "address",
          "name": "",
          "type": "address"
        }
      ],
      "stateMutability": "view",
      "type": "function"
    },
    {
      "inputs": [
        {
          "internalType": "uint256",
          "name": "tokenId",
          "type": "uint256"
        },
        {
          "components": [
            {
              "internalType": "uint256",
              "name": "tokenId",
              "type": "uint256"
            },
            {
              "internalType": "uint16",
              "name": "baseColor",
              "type": "uint16"
            },
            {
              "internalType": "uint256",
              "name": "starSeed",
              "type": "uint256"
            },
            {
              "internalType": "uint256",
              "name": "funkSeed",
              "type": "uint256"
            },
            {
              "internalType": "uint256",
              "name": "circleSeed",
              "type": "uint256"
            },
            {
              "internalType": "uint256",
              "name": "groundSeed",
              "type": "uint256"
            },
            {
              "internalType": "uint256",
              "name": "constellationSeed",
              "type": "uint256"
            }
          ],
          "internalType": "struct Color.DNA",
          "name": "dna",
          "type": "tuple"
        },
        {
          "internalType": "uint256",
          "name": "gazes",
          "type": "uint256"
        },
        {
          "internalType": "bool",
          "name": "daytime",
          "type": "bool"
        }
      ],
      "name": "packageAsSVG",
      "outputs": [
        {
          "internalType": "string",
          "name": "",
          "type": "string"
        }
      ],
      "stateMutability": "view",
      "type": "function"
    },
    {
      "inputs": [],
      "name": "renounceOwnership",
      "outputs": [],
      "stateMutability": "nonpayable",
      "type": "function"
    },
    {
      "inputs": [
        {
          "internalType": "address",
          "name": "from",
          "type": "address"
        },
        {
          "internalType": "address",
          "name": "to",
          "type": "address"
        },
        {
          "internalType": "uint256",
          "name": "tokenId",
          "type": "uint256"
        }
      ],
      "name": "safeTransferFrom",
      "outputs": [],
      "stateMutability": "nonpayable",
      "type": "function"
    },
    {
      "inputs": [
        {
          "internalType": "uint256",
          "name": "tokenId",
          "type": "uint256"
        }
      ],
      "name": "tokenURI",
      "outputs": [
        {
          "internalType": "string",
          "name": "",
          "type": "string"
        }
      ],
      "stateMutability": "view",
      "type": "function"
    },
    {
      "inputs": [
        {
          "internalType": "address",
          "name": "newOwner",
          "type": "address"
        }
      ],
      "name": "transferOwnership",
      "outputs": [],
      "stateMutability": "nonpayable",
      "type": "function"
    }
  ],
  "transactionHash": "0xed28d4752dbe94839d484befc369c2dbb6b0df6828f740b4e578f9da0a14e7cc",
  "args": [],
  "numDeployments": 1,
  "solcInputHash": "bcc7bb6fe413bf74408cb40fb5fcac35",
  "bytecode": "0x608060405234801561001057600080fd5b5061001a3361001f565b61006f565b600080546001600160a01b038381166001600160a01b0319831681178455604051919092169283917f8be0079c531659141344cd1fd0a4f28419497f9722a3daafe3b4186f6b6457e09190a35050565b610e178061007e6000396000f3fe608060405234801561001057600080fd5b50600436106100d45760003560e01c8063715018a611610081578063e3366c991161005b578063e3366c991461019d578063e8b5bef6146101b0578063f2fde38b146101c357600080fd5b8063715018a6146101715780638da5cb5b14610179578063c87b56dd1461018a57600080fd5b806342966c68116100b257806342966c681461013e5780636352211e146100d957806370a082311461014f57600080fd5b8063081812fc146100d95780630daefed51461010957806342842e0e14610129575b600080fd5b6100ec6100e7366004610809565b6101d6565b6040516001600160a01b0390911681526020015b60405180910390f35b61011c610117366004610809565b6101e0565b6040516101009190610846565b61013c610137366004610895565b505050565b005b61013c61014c366004610809565b50565b61016361015d3660046108d1565b50600190565b604051908152602001610100565b61013c6102d7565b6000546001600160a01b03166100ec565b61011c610198366004610809565b6102eb565b61011c6101ab366004610960565b610353565b61011c6101be366004610960565b6103c2565b61013c6101d13660046108d1565b6103e0565b6000335b92915050565b6040517f761fc4030000000000000000000000000000000000000000000000000000000081526004810182905260609060009073d795DE79b46792928a386EAcddE5Ef173146509F9063761fc4039060240160e060405180830381865af415801561024f573d6000803e3d6000fd5b505050506040513d601f19601f820116820180604052508101906102739190610a09565b905060006102858483600060016103c2565b6040516020016102959190610a78565b60405160208183030381529060405290506102af81610472565b6040516020016102bf9190610a94565b60405160208183030381529060405292505050919050565b6102df6105c5565b6102e9600061061f565b565b606060006102f883610687565b610301846101e0565b604051602001610312929190610ad9565b604051602081830303815290604052905061032c81610472565b60405160200161033c9190610c68565b604051602081830303815290604052915050919050565b6040517f3c672069643d2273696c686f7565747465223e0000000000000000000000000060208201527f3c2f673e0000000000000000000000000000000000000000000000000000000060338201526060906037015b6040516020818303038152906040529050949350505050565b60606103d085858585610353565b6040516020016103a99190610cad565b6103e86105c5565b6001600160a01b0381166104695760405162461bcd60e51b815260206004820152602660248201527f4f776e61626c653a206e6577206f776e657220697320746865207a65726f206160448201527f646472657373000000000000000000000000000000000000000000000000000060648201526084015b60405180910390fd5b61014c8161061f565b6060815160000361049157505060408051602081019091526000815290565b6000604051806060016040528060408152602001610da260409139905060006003845160026104c09190610d55565b6104ca9190610d68565b6104d5906004610d8a565b67ffffffffffffffff8111156104ed576104ed6108f3565b6040519080825280601f01601f191660200182016040528015610517576020820181803683370190505b509050600182016020820185865187015b80821015610583576003820191508151603f8160121c168501518453600184019350603f81600c1c168501518453600184019350603f8160061c168501518453600184019350603f8116850151845350600183019250610528565b505060038651066001811461059f57600281146105b2576105ba565b603d6001830353603d60028303536105ba565b603d60018303535b509195945050505050565b6000546001600160a01b031633146102e95760405162461bcd60e51b815260206004820181905260248201527f4f776e61626c653a2063616c6c6572206973206e6f7420746865206f776e65726044820152606401610460565b600080546001600160a01b038381167fffffffffffffffffffffffff0000000000000000000000000000000000000000831681178455604051919092169283917f8be0079c531659141344cd1fd0a4f28419497f9722a3daafe3b4186f6b6457e09190a35050565b6060600061069483610727565b600101905060008167ffffffffffffffff8111156106b4576106b46108f3565b6040519080825280601f01601f1916602001820160405280156106de576020820181803683370190505b5090508181016020015b600019017f3031323334353637383961626364656600000000000000000000000000000000600a86061a8153600a85049450846106e857509392505050565b6000807a184f03e93ff9f4daa797ed6e38ed64bf6a1f0100000000000000008310610770577a184f03e93ff9f4daa797ed6e38ed64bf6a1f010000000000000000830492506040015b6d04ee2d6d415b85acef8100000000831061079c576d04ee2d6d415b85acef8100000000830492506020015b662386f26fc1000083106107ba57662386f26fc10000830492506010015b6305f5e10083106107d2576305f5e100830492506008015b61271083106107e657612710830492506004015b606483106107f8576064830492506002015b600a83106101da5760010192915050565b60006020828403121561081b57600080fd5b5035919050565b60005b8381101561083d578181015183820152602001610825565b50506000910152565b6020815260008251806020840152610865816040850160208701610822565b601f01601f19169190910160400192915050565b80356001600160a01b038116811461089057600080fd5b919050565b6000806000606084860312156108aa57600080fd5b6108b384610879565b92506108c160208501610879565b9150604084013590509250925092565b6000602082840312156108e357600080fd5b6108ec82610879565b9392505050565b634e487b7160e01b600052604160045260246000fd5b60405160e0810167ffffffffffffffff8111828210171561093a57634e487b7160e01b600052604160045260246000fd5b60405290565b61ffff8116811461014c57600080fd5b8035801515811461089057600080fd5b60008060008084860361014081121561097857600080fd5b8535945060e0601f198201121561098e57600080fd5b50610997610909565b6020860135815260408601356109ac81610940565b80602083015250606086013560408201526080860135606082015260a0860135608082015260c086013560a082015260e086013560c08201528093505061010085013591506109fe6101208601610950565b905092959194509250565b600060e08284031215610a1b57600080fd5b610a23610909565b825181526020830151610a3581610940565b8060208301525060408301516040820152606083015160608201526080830151608082015260a083015160a082015260c083015160c08201528091505092915050565b60008251610a8a818460208701610822565b9190910192915050565b7f646174613a696d6167652f7376672b786d6c3b6261736536342c000000000000815260008251610acc81601a850160208701610822565b91909101601a0192915050565b7f7b0000000000000000000000000000000000000000000000000000000000000081527f226e616d65223a2022636861696e656c6c6174696f6e204d6f756e7461696e7360018201527f2023000000000000000000000000000000000000000000000000000000000000602182015260008351610b5d816023850160208801610822565b7f222c0000000000000000000000000000000000000000000000000000000000006023918401918201527f226465736372697074696f6e223a2022636861696e656c6c6174696f6e204d6f60258201527f756e7461696e73222c000000000000000000000000000000000000000000000060458201527f22696d616765223a202200000000000000000000000000000000000000000000604e8201528351610c0c816058840160208801610822565b7f2200000000000000000000000000000000000000000000000000000000000000605892909101918201527f7d000000000000000000000000000000000000000000000000000000000000006059820152605a01949350505050565b7f646174613a6170706c69636174696f6e2f6a736f6e3b6261736536342c000000815260008251610ca081601d850160208701610822565b91909101601d0192915050565b7f3c7376672076696577426f783d2230203020353132203531322220786d6c6e7381527f3d22687474703a2f2f7777772e77332e6f72672f323030302f737667223e0000602082015260008251610d0b81603e850160208701610822565b7f3c2f7376673e0000000000000000000000000000000000000000000000000000603e939091019283015250604401919050565b634e487b7160e01b600052601160045260246000fd5b808201808211156101da576101da610d3f565b600082610d8557634e487b7160e01b600052601260045260246000fd5b500490565b80820281158282048414176101da576101da610d3f56fe4142434445464748494a4b4c4d4e4f505152535455565758595a6162636465666768696a6b6c6d6e6f707172737475767778797a303132333435363738392b2fa2646970667358221220b26f4f336dfba2fda63b54782525aa0e56603c6aed15518f6f61a70dc6af7d6b64736f6c63430008120033",
  "deployedBytecode": "0x608060405234801561001057600080fd5b50600436106100d45760003560e01c8063715018a611610081578063e3366c991161005b578063e3366c991461019d578063e8b5bef6146101b0578063f2fde38b146101c357600080fd5b8063715018a6146101715780638da5cb5b14610179578063c87b56dd1461018a57600080fd5b806342966c68116100b257806342966c681461013e5780636352211e146100d957806370a082311461014f57600080fd5b8063081812fc146100d95780630daefed51461010957806342842e0e14610129575b600080fd5b6100ec6100e7366004610809565b6101d6565b6040516001600160a01b0390911681526020015b60405180910390f35b61011c610117366004610809565b6101e0565b6040516101009190610846565b61013c610137366004610895565b505050565b005b61013c61014c366004610809565b50565b61016361015d3660046108d1565b50600190565b604051908152602001610100565b61013c6102d7565b6000546001600160a01b03166100ec565b61011c610198366004610809565b6102eb565b61011c6101ab366004610960565b610353565b61011c6101be366004610960565b6103c2565b61013c6101d13660046108d1565b6103e0565b6000335b92915050565b6040517f761fc4030000000000000000000000000000000000000000000000000000000081526004810182905260609060009073__$11e21e6c56ca563b85c74e3fd3a08242f9$__9063761fc4039060240160e060405180830381865af415801561024f573d6000803e3d6000fd5b505050506040513d601f19601f820116820180604052508101906102739190610a09565b905060006102858483600060016103c2565b6040516020016102959190610a78565b60405160208183030381529060405290506102af81610472565b6040516020016102bf9190610a94565b60405160208183030381529060405292505050919050565b6102df6105c5565b6102e9600061061f565b565b606060006102f883610687565b610301846101e0565b604051602001610312929190610ad9565b604051602081830303815290604052905061032c81610472565b60405160200161033c9190610c68565b604051602081830303815290604052915050919050565b6040517f3c672069643d2273696c686f7565747465223e0000000000000000000000000060208201527f3c2f673e0000000000000000000000000000000000000000000000000000000060338201526060906037015b6040516020818303038152906040529050949350505050565b60606103d085858585610353565b6040516020016103a99190610cad565b6103e86105c5565b6001600160a01b0381166104695760405162461bcd60e51b815260206004820152602660248201527f4f776e61626c653a206e6577206f776e657220697320746865207a65726f206160448201527f646472657373000000000000000000000000000000000000000000000000000060648201526084015b60405180910390fd5b61014c8161061f565b6060815160000361049157505060408051602081019091526000815290565b6000604051806060016040528060408152602001610da260409139905060006003845160026104c09190610d55565b6104ca9190610d68565b6104d5906004610d8a565b67ffffffffffffffff8111156104ed576104ed6108f3565b6040519080825280601f01601f191660200182016040528015610517576020820181803683370190505b509050600182016020820185865187015b80821015610583576003820191508151603f8160121c168501518453600184019350603f81600c1c168501518453600184019350603f8160061c168501518453600184019350603f8116850151845350600183019250610528565b505060038651066001811461059f57600281146105b2576105ba565b603d6001830353603d60028303536105ba565b603d60018303535b509195945050505050565b6000546001600160a01b031633146102e95760405162461bcd60e51b815260206004820181905260248201527f4f776e61626c653a2063616c6c6572206973206e6f7420746865206f776e65726044820152606401610460565b600080546001600160a01b038381167fffffffffffffffffffffffff0000000000000000000000000000000000000000831681178455604051919092169283917f8be0079c531659141344cd1fd0a4f28419497f9722a3daafe3b4186f6b6457e09190a35050565b6060600061069483610727565b600101905060008167ffffffffffffffff8111156106b4576106b46108f3565b6040519080825280601f01601f1916602001820160405280156106de576020820181803683370190505b5090508181016020015b600019017f3031323334353637383961626364656600000000000000000000000000000000600a86061a8153600a85049450846106e857509392505050565b6000807a184f03e93ff9f4daa797ed6e38ed64bf6a1f0100000000000000008310610770577a184f03e93ff9f4daa797ed6e38ed64bf6a1f010000000000000000830492506040015b6d04ee2d6d415b85acef8100000000831061079c576d04ee2d6d415b85acef8100000000830492506020015b662386f26fc1000083106107ba57662386f26fc10000830492506010015b6305f5e10083106107d2576305f5e100830492506008015b61271083106107e657612710830492506004015b606483106107f8576064830492506002015b600a83106101da5760010192915050565b60006020828403121561081b57600080fd5b5035919050565b60005b8381101561083d578181015183820152602001610825565b50506000910152565b6020815260008251806020840152610865816040850160208701610822565b601f01601f19169190910160400192915050565b80356001600160a01b038116811461089057600080fd5b919050565b6000806000606084860312156108aa57600080fd5b6108b384610879565b92506108c160208501610879565b9150604084013590509250925092565b6000602082840312156108e357600080fd5b6108ec82610879565b9392505050565b634e487b7160e01b600052604160045260246000fd5b60405160e0810167ffffffffffffffff8111828210171561093a57634e487b7160e01b600052604160045260246000fd5b60405290565b61ffff8116811461014c57600080fd5b8035801515811461089057600080fd5b60008060008084860361014081121561097857600080fd5b8535945060e0601f198201121561098e57600080fd5b50610997610909565b6020860135815260408601356109ac81610940565b80602083015250606086013560408201526080860135606082015260a0860135608082015260c086013560a082015260e086013560c08201528093505061010085013591506109fe6101208601610950565b905092959194509250565b600060e08284031215610a1b57600080fd5b610a23610909565b825181526020830151610a3581610940565b8060208301525060408301516040820152606083015160608201526080830151608082015260a083015160a082015260c083015160c08201528091505092915050565b60008251610a8a818460208701610822565b9190910192915050565b7f646174613a696d6167652f7376672b786d6c3b6261736536342c000000000000815260008251610acc81601a850160208701610822565b91909101601a0192915050565b7f7b0000000000000000000000000000000000000000000000000000000000000081527f226e616d65223a2022636861696e656c6c6174696f6e204d6f756e7461696e7360018201527f2023000000000000000000000000000000000000000000000000000000000000602182015260008351610b5d816023850160208801610822565b7f222c0000000000000000000000000000000000000000000000000000000000006023918401918201527f226465736372697074696f6e223a2022636861696e656c6c6174696f6e204d6f60258201527f756e7461696e73222c000000000000000000000000000000000000000000000060458201527f22696d616765223a202200000000000000000000000000000000000000000000604e8201528351610c0c816058840160208801610822565b7f2200000000000000000000000000000000000000000000000000000000000000605892909101918201527f7d000000000000000000000000000000000000000000000000000000000000006059820152605a01949350505050565b7f646174613a6170706c69636174696f6e2f6a736f6e3b6261736536342c000000815260008251610ca081601d850160208701610822565b91909101601d0192915050565b7f3c7376672076696577426f783d2230203020353132203531322220786d6c6e7381527f3d22687474703a2f2f7777772e77332e6f72672f323030302f737667223e0000602082015260008251610d0b81603e850160208701610822565b7f3c2f7376673e0000000000000000000000000000000000000000000000000000603e939091019283015250604401919050565b634e487b7160e01b600052601160045260246000fd5b808201808211156101da576101da610d3f565b600082610d8557634e487b7160e01b600052601260045260246000fd5b500490565b80820281158282048414176101da576101da610d3f56fe4142434445464748494a4b4c4d4e4f505152535455565758595a6162636465666768696a6b6c6d6e6f707172737475767778797a303132333435363738392b2fa2646970667358221220b26f4f336dfba2fda63b54782525aa0e56603c6aed15518f6f61a70dc6af7d6b64736f6c63430008120033",
  "libraries": {
    "Color": "0xd795DE79b46792928a386EAcddE5Ef173146509F"
  },
  "devdoc": {
    "kind": "dev",
    "methods": {
      "owner()": {
        "details": "Returns the address of the current owner."
      },
      "renounceOwnership()": {
        "details": "Leaves the contract without owner. It will not be possible to call `onlyOwner` functions anymore. Can only be called by the current owner. NOTE: Renouncing ownership will leave the contract without an owner, thereby removing any functionality that is only available to the owner."
      },
      "transferOwnership(address)": {
        "details": "Transfers ownership of the contract to a new account (`newOwner`). Can only be called by the current owner."
      }
    },
    "version": 1
  },
  "userdoc": {
    "kind": "user",
    "methods": {},
    "version": 1
  },
  "storageLayout": {
    "storage": [
      {
        "astId": 7,
        "contract": "contracts/decos/Empty_Silhouette.sol:Empty_Silhouette",
        "label": "_owner",
        "offset": 0,
        "slot": "0",
        "type": "t_address"
      }
    ],
    "types": {
      "t_address": {
        "encoding": "inplace",
        "label": "address",
        "numberOfBytes": "20"
      }
    }
  }
}