{
  "address": "0x7A3407Ead6a822c920395b1d09E294720D190bc4",
  "abi": [
    {
      "anonymous": false,
      "inputs": [
        {
          "indexed": true,
          "internalType": "address",
          "name": "previousOwner",
          "type": "address"
        },
        {
          "indexed": true,
          "internalType": "address",
          "name": "newOwner",
          "type": "address"
        }
      ],
      "name": "OwnershipTransferred",
      "type": "event"
    },
    {
      "inputs": [
        {
          "internalType": "address",
          "name": "owner",
          "type": "address"
        }
      ],
      "name": "balanceOf",
      "outputs": [
        {
          "internalType": "uint256",
          "name": "",
          "type": "uint256"
        }
      ],
      "stateMutability": "view",
      "type": "function"
    },
    {
      "inputs": [
        {
          "internalType": "uint256",
          "name": "tokenId",
          "type": "uint256"
        }
      ],
      "name": "burn",
      "outputs": [],
      "stateMutability": "nonpayable",
      "type": "function"
    },
    {
      "inputs": [
        {
          "internalType": "uint256",
          "name": "tokenId",
          "type": "uint256"
        }
      ],
      "name": "generateCharacter",
      "outputs": [
        {
          "internalType": "string",
          "name": "",
          "type": "string"
        }
      ],
      "stateMutability": "view",
      "type": "function"
    },
    {
      "inputs": [
        {
          "internalType": "uint256",
          "name": "tokenId",
          "type": "uint256"
        }
      ],
      "name": "getApproved",
      "outputs": [
        {
          "internalType": "address",
          "name": "",
          "type": "address"
        }
      ],
      "stateMutability": "view",
      "type": "function"
    },
    {
      "inputs": [
        {
          "internalType": "uint256",
          "name": "gazes",
          "type": "uint256"
        }
      ],
      "name": "getCircles",
      "outputs": [
        {
          "internalType": "string",
          "name": "",
          "type": "string"
        }
      ],
      "stateMutability": "pure",
      "type": "function"
    },
    {
      "inputs": [
        {
          "internalType": "uint256",
          "name": "tokenId",
          "type": "uint256"
        },
        {
          "components": [
            {
              "internalType": "uint256",
              "name": "tokenId",
              "type": "uint256"
            },
            {
              "internalType": "uint16",
              "name": "baseColor",
              "type": "uint16"
            },
            {
              "internalType": "uint256",
              "name": "starSeed",
              "type": "uint256"
            },
            {
              "internalType": "uint256",
              "name": "funkSeed",
              "type": "uint256"
            },
            {
              "internalType": "uint256",
              "name": "circleSeed",
              "type": "uint256"
            },
            {
              "internalType": "uint256",
              "name": "groundSeed",
              "type": "uint256"
            },
            {
              "internalType": "uint256",
              "name": "constellationSeed",
              "type": "uint256"
            }
          ],
          "internalType": "struct Color.DNA",
          "name": "dna",
          "type": "tuple"
        },
        {
          "internalType": "uint256",
          "name": "gazes",
          "type": "uint256"
        },
        {
          "internalType": "bool",
          "name": "daytime",
          "type": "bool"
        }
      ],
      "name": "getDeco",
      "outputs": [
        {
          "internalType": "string",
          "name": "",
          "type": "string"
        }
      ],
      "stateMutability": "pure",
      "type": "function"
    },
    {
      "inputs": [],
      "name": "owner",
      "outputs": [
        {
          "internalType": "address",
          "name": "",
          "type": "address"
        }
      ],
      "stateMutability": "view",
      "type": "function"
    },
    {
      "inputs": [
        {
          "internalType": "uint256",
          "name": "tokenId",
          "type": "uint256"
        }
      ],
      "name": "ownerOf",
      "outputs": [
        {
          "internalType": "address",
          "name": "",
          "type": "address"
        }
      ],
      "stateMutability": "view",
      "type": "function"
    },
    {
      "inputs": [
        {
          "internalType": "uint256",
          "name": "tokenId",
          "type": "uint256"
        },
        {
          "components": [
            {
              "internalType": "uint256",
              "name": "tokenId",
              "type": "uint256"
            },
            {
              "internalType": "uint16",
              "name": "baseColor",
              "type": "uint16"
            },
            {
              "internalType": "uint256",
              "name": "starSeed",
              "type": "uint256"
            },
            {
              "internalType": "uint256",
              "name": "funkSeed",
              "type": "uint256"
            },
            {
              "internalType": "uint256",
              "name": "circleSeed",
              "type": "uint256"
            },
            {
              "internalType": "uint256",
              "name": "groundSeed",
              "type": "uint256"
            },
            {
              "internalType": "uint256",
              "name": "constellationSeed",
              "type": "uint256"
            }
          ],
          "internalType": "struct Color.DNA",
          "name": "dna",
          "type": "tuple"
        },
        {
          "internalType": "uint256",
          "name": "gazes",
          "type": "uint256"
        },
        {
          "internalType": "bool",
          "name": "daytime",
          "type": "bool"
        }
      ],
      "name": "packageAsSVG",
      "outputs": [
        {
          "internalType": "string",
          "name": "",
          "type": "string"
        }
      ],
      "stateMutability": "view",
      "type": "function"
    },
    {
      "inputs": [],
      "name": "renounceOwnership",
      "outputs": [],
      "stateMutability": "nonpayable",
      "type": "function"
    },
    {
      "inputs": [
        {
          "internalType": "address",
          "name": "from",
          "type": "address"
        },
        {
          "internalType": "address",
          "name": "to",
          "type": "address"
        },
        {
          "internalType": "uint256",
          "name": "tokenId",
          "type": "uint256"
        }
      ],
      "name": "safeTransferFrom",
      "outputs": [],
      "stateMutability": "nonpayable",
      "type": "function"
    },
    {
      "inputs": [
        {
          "internalType": "uint256",
          "name": "tokenId",
          "type": "uint256"
        }
      ],
      "name": "tokenURI",
      "outputs": [
        {
          "internalType": "string",
          "name": "",
          "type": "string"
        }
      ],
      "stateMutability": "view",
      "type": "function"
    },
    {
      "inputs": [
        {
          "internalType": "address",
          "name": "newOwner",
          "type": "address"
        }
      ],
      "name": "transferOwnership",
      "outputs": [],
      "stateMutability": "nonpayable",
      "type": "function"
    }
  ],
  "transactionHash": "0x947f192f481c9a79cf7d6a73c644932d7d60f6ef25a6f65b06b6d09c20ca9d20",
  "args": [],
  "numDeployments": 1,
  "solcInputHash": "5c9dd798b896730c892dbd999afd44b4",
  "bytecode": "0x608060405234801561001057600080fd5b5061001a3361001f565b61006f565b600080546001600160a01b038381166001600160a01b0319831681178455604051919092169283917f8be0079c531659141344cd1fd0a4f28419497f9722a3daafe3b4186f6b6457e09190a35050565b6113d48061007e6000396000f3fe608060405234801561001057600080fd5b50600436106100df5760003560e01c806370a082311161008c578063c87b56dd11610066578063c87b56dd146101a8578063e3366c99146101bb578063e8b5bef6146101ce578063f2fde38b146101e157600080fd5b806370a082311461016d578063715018a61461018f5780638da5cb5b1461019757600080fd5b806342966c68116100bd57806342966c681461014957806355d26c461461015a5780636352211e146100e457600080fd5b8063081812fc146100e45780630daefed51461011457806342842e0e14610134575b600080fd5b6100f76100f2366004610b7b565b6101f4565b6040516001600160a01b0390911681526020015b60405180910390f35b610127610122366004610b7b565b6101fe565b60405161010b9190610bb8565b610147610142366004610c07565b505050565b005b610147610157366004610b7b565b50565b610127610168366004610b7b565b6102f5565b61018161017b366004610c43565b50600190565b60405190815260200161010b565b610147610684565b6000546001600160a01b03166100f7565b6101276101b6366004610b7b565b610698565b6101276101c9366004610cc4565b610700565b6101276101dc366004610cc4565b610734565b6101476101ef366004610c43565b610752565b6000335b92915050565b6040517f761fc4030000000000000000000000000000000000000000000000000000000081526004810182905260609060009073d795DE79b46792928a386EAcddE5Ef173146509F9063761fc4039060240160e060405180830381865af415801561026d573d6000803e3d6000fd5b505050506040513d601f19601f820116820180604052508101906102919190610d6d565b905060006102a3848360006001610734565b6040516020016102b39190610ddc565b60405160208183030381529060405290506102cd816107e4565b6040516020016102dd9190610df8565b60405160208183030381529060405292505050919050565b60606000604051602001610476907f3c672069643d22736b796d61746822206f7061636974793d2231222066696c6c81527f3d226e6f6e6522207374726f6b653d22776869746522207374726f6b652d776960208201527f6474683d2231223e00000000000000000000000000000000000000000000000060408201527f3c636972636c6520723d223830222063783d22333430222063793d223137302260488201527f207374726f6b652d6461736861727261793d22302031203022206f7061636974606882018190527f793d22302e3822202f3e00000000000000000000000000000000000000000000608883018190527f3c636972636c6520723d223835222063783d22333430222063793d223137302260928401527f207374726f6b652d6461736861727261793d22312030203122206f706163697460b284015260d283018190527f3c636972636c6520723d223930222063783d22333430222063793d223137302260dc84015260fc83019190915261011c8201526101260190565b60408051601f1981840301815291905290506000610495600685610e53565b9050600060058260ff1610156104ab57816104ae565b60055b905060005b8160ff168161ffff161015610659578373d795DE79b46792928a386EAcddE5Ef173146509F631b0d4b4d6104e8846005610e75565b6104f49061014a610e9b565b6040517fffffffff0000000000000000000000000000000000000000000000000000000060e084901b16815261ffff9091166004820152602401600060405180830381865af415801561054b573d6000803e3d6000fd5b505050506040513d6000823e601f3d908101601f191682016040526105739190810190610ebd565b73d795DE79b46792928a386EAcddE5Ef173146509F631b0d4b4d610598856005610e75565b6105a49061014a610e9b565b6040517fffffffff0000000000000000000000000000000000000000000000000000000060e084901b16815261ffff9091166004820152602401600060405180830381865af41580156105fb573d6000803e3d6000fd5b505050506040513d6000823e601f3d908101601f191682016040526106239190810190610ebd565b60405160200161063593929190610f6a565b6040516020818303038152906040529350808061065190611032565b9150506104b3565b508260405160200161066b9190611053565b60408051601f1981840301815291905295945050505050565b61068c610937565b6106966000610991565b565b606060006106a5836109f9565b6106ae846101fe565b6040516020016106bf92919061107b565b60405160208183030381529060405290506106d9816107e4565b6040516020016106e9919061120a565b604051602081830303815290604052915050919050565b606061070b836102f5565b60405160200161071b919061124f565b6040516020818303038152906040529050949350505050565b606061074285858585610700565b60405160200161071b91906112a2565b61075a610937565b6001600160a01b0381166107db5760405162461bcd60e51b815260206004820152602660248201527f4f776e61626c653a206e6577206f776e657220697320746865207a65726f206160448201527f646472657373000000000000000000000000000000000000000000000000000060648201526084015b60405180910390fd5b61015781610991565b6060815160000361080357505060408051602081019091526000815290565b600060405180606001604052806040815260200161135f60409139905060006003845160026108329190611334565b61083c9190610e53565b610847906004611347565b67ffffffffffffffff81111561085f5761085f610c65565b6040519080825280601f01601f191660200182016040528015610889576020820181803683370190505b509050600182016020820185865187015b808210156108f5576003820191508151603f8160121c168501518453600184019350603f81600c1c168501518453600184019350603f8160061c168501518453600184019350603f811685015184535060018301925061089a565b505060038651066001811461091157600281146109245761092c565b603d6001830353603d600283035361092c565b603d60018303535b509195945050505050565b6000546001600160a01b031633146106965760405162461bcd60e51b815260206004820181905260248201527f4f776e61626c653a2063616c6c6572206973206e6f7420746865206f776e657260448201526064016107d2565b600080546001600160a01b038381167fffffffffffffffffffffffff0000000000000000000000000000000000000000831681178455604051919092169283917f8be0079c531659141344cd1fd0a4f28419497f9722a3daafe3b4186f6b6457e09190a35050565b60606000610a0683610a99565b600101905060008167ffffffffffffffff811115610a2657610a26610c65565b6040519080825280601f01601f191660200182016040528015610a50576020820181803683370190505b5090508181016020015b600019017f3031323334353637383961626364656600000000000000000000000000000000600a86061a8153600a8504945084610a5a57509392505050565b6000807a184f03e93ff9f4daa797ed6e38ed64bf6a1f0100000000000000008310610ae2577a184f03e93ff9f4daa797ed6e38ed64bf6a1f010000000000000000830492506040015b6d04ee2d6d415b85acef81000000008310610b0e576d04ee2d6d415b85acef8100000000830492506020015b662386f26fc100008310610b2c57662386f26fc10000830492506010015b6305f5e1008310610b44576305f5e100830492506008015b6127108310610b5857612710830492506004015b60648310610b6a576064830492506002015b600a83106101f85760010192915050565b600060208284031215610b8d57600080fd5b5035919050565b60005b83811015610baf578181015183820152602001610b97565b50506000910152565b6020815260008251806020840152610bd7816040850160208701610b94565b601f01601f19169190910160400192915050565b80356001600160a01b0381168114610c0257600080fd5b919050565b600080600060608486031215610c1c57600080fd5b610c2584610beb565b9250610c3360208501610beb565b9150604084013590509250925092565b600060208284031215610c5557600080fd5b610c5e82610beb565b9392505050565b634e487b7160e01b600052604160045260246000fd5b60405160e0810167ffffffffffffffff81118282101715610c9e57610c9e610c65565b60405290565b61ffff8116811461015757600080fd5b80358015158114610c0257600080fd5b600080600080848603610140811215610cdc57600080fd5b8535945060e0601f1982011215610cf257600080fd5b50610cfb610c7b565b602086013581526040860135610d1081610ca4565b80602083015250606086013560408201526080860135606082015260a0860135608082015260c086013560a082015260e086013560c0820152809350506101008501359150610d626101208601610cb4565b905092959194509250565b600060e08284031215610d7f57600080fd5b610d87610c7b565b825181526020830151610d9981610ca4565b8060208301525060408301516040820152606083015160608201526080830151608082015260a083015160a082015260c083015160c08201528091505092915050565b60008251610dee818460208701610b94565b9190910192915050565b7f646174613a696d6167652f7376672b786d6c3b6261736536342c000000000000815260008251610e3081601a850160208701610b94565b91909101601a0192915050565b634e487b7160e01b600052601160045260246000fd5b600082610e7057634e487b7160e01b600052601260045260246000fd5b500490565b61ffff818116838216028082169190828114610e9357610e93610e3d565b505092915050565b61ffff818116838216019080821115610eb657610eb6610e3d565b5092915050565b600060208284031215610ecf57600080fd5b815167ffffffffffffffff80821115610ee757600080fd5b818401915084601f830112610efb57600080fd5b815181811115610f0d57610f0d610c65565b604051601f8201601f19908116603f01168101908382118183101715610f3557610f35610c65565b81604052828152876020848701011115610f4e57600080fd5b610f5f836020830160208801610b94565b979650505050505050565b60008451610f7c818460208901610b94565b80830190507f3c706174682064203d20224d00000000000000000000000000000000000000008082528551610fb881600c850160208a01610b94565b7f2030207620383022206f7061636974793d22302e3522202f3e00000000000000600c939091019283015260258201528351610ffb816031840160208801610b94565b7f2032363020762032383022206f7061636974793d22302e3522202f3e0000000060319290910191820152604d0195945050505050565b600061ffff80831681810361104957611049610e3d565b6001019392505050565b60008251611065818460208701610b94565b631e17b39f60e11b920191825250600401919050565b7f7b0000000000000000000000000000000000000000000000000000000000000081527f226e616d65223a2022636861696e656c6c6174696f6e204d6f756e7461696e7360018201527f20230000000000000000000000000000000000000000000000000000000000006021820152600083516110ff816023850160208801610b94565b7f222c0000000000000000000000000000000000000000000000000000000000006023918401918201527f226465736372697074696f6e223a2022636861696e656c6c6174696f6e204d6f60258201527f756e7461696e73222c000000000000000000000000000000000000000000000060458201527f22696d616765223a202200000000000000000000000000000000000000000000604e82015283516111ae816058840160208801610b94565b7f2200000000000000000000000000000000000000000000000000000000000000605892909101918201527f7d000000000000000000000000000000000000000000000000000000000000006059820152605a01949350505050565b7f646174613a6170706c69636174696f6e2f6a736f6e3b6261736536342c00000081526000825161124281601d850160208701610b94565b91909101601d0192915050565b7f3c673e0000000000000000000000000000000000000000000000000000000000815260008251611287816003850160208701610b94565b631e17b39f60e11b6003939091019283015250600701919050565b7f3c7376672076696577426f783d2230203020353132203531322220786d6c6e7381527f3d22687474703a2f2f7777772e77332e6f72672f323030302f737667223e000060208201526000825161130081603e850160208701610b94565b7f3c2f7376673e0000000000000000000000000000000000000000000000000000603e939091019283015250604401919050565b808201808211156101f8576101f8610e3d565b80820281158282048414176101f8576101f8610e3d56fe4142434445464748494a4b4c4d4e4f505152535455565758595a6162636465666768696a6b6c6d6e6f707172737475767778797a303132333435363738392b2fa2646970667358221220dbb04644c1ca063c3120ea86d43d660b57c8f1c4f9678b2463b22fa6c7c140b664736f6c63430008120033",
  "deployedBytecode": "0x608060405234801561001057600080fd5b50600436106100df5760003560e01c806370a082311161008c578063c87b56dd11610066578063c87b56dd146101a8578063e3366c99146101bb578063e8b5bef6146101ce578063f2fde38b146101e157600080fd5b806370a082311461016d578063715018a61461018f5780638da5cb5b1461019757600080fd5b806342966c68116100bd57806342966c681461014957806355d26c461461015a5780636352211e146100e457600080fd5b8063081812fc146100e45780630daefed51461011457806342842e0e14610134575b600080fd5b6100f76100f2366004610b7b565b6101f4565b6040516001600160a01b0390911681526020015b60405180910390f35b610127610122366004610b7b565b6101fe565b60405161010b9190610bb8565b610147610142366004610c07565b505050565b005b610147610157366004610b7b565b50565b610127610168366004610b7b565b6102f5565b61018161017b366004610c43565b50600190565b60405190815260200161010b565b610147610684565b6000546001600160a01b03166100f7565b6101276101b6366004610b7b565b610698565b6101276101c9366004610cc4565b610700565b6101276101dc366004610cc4565b610734565b6101476101ef366004610c43565b610752565b6000335b92915050565b6040517f761fc4030000000000000000000000000000000000000000000000000000000081526004810182905260609060009073__$11e21e6c56ca563b85c74e3fd3a08242f9$__9063761fc4039060240160e060405180830381865af415801561026d573d6000803e3d6000fd5b505050506040513d601f19601f820116820180604052508101906102919190610d6d565b905060006102a3848360006001610734565b6040516020016102b39190610ddc565b60405160208183030381529060405290506102cd816107e4565b6040516020016102dd9190610df8565b60405160208183030381529060405292505050919050565b60606000604051602001610476907f3c672069643d22736b796d61746822206f7061636974793d2231222066696c6c81527f3d226e6f6e6522207374726f6b653d22776869746522207374726f6b652d776960208201527f6474683d2231223e00000000000000000000000000000000000000000000000060408201527f3c636972636c6520723d223830222063783d22333430222063793d223137302260488201527f207374726f6b652d6461736861727261793d22302031203022206f7061636974606882018190527f793d22302e3822202f3e00000000000000000000000000000000000000000000608883018190527f3c636972636c6520723d223835222063783d22333430222063793d223137302260928401527f207374726f6b652d6461736861727261793d22312030203122206f706163697460b284015260d283018190527f3c636972636c6520723d223930222063783d22333430222063793d223137302260dc84015260fc83019190915261011c8201526101260190565b60408051601f1981840301815291905290506000610495600685610e53565b9050600060058260ff1610156104ab57816104ae565b60055b905060005b8160ff168161ffff161015610659578373__$11e21e6c56ca563b85c74e3fd3a08242f9$__631b0d4b4d6104e8846005610e75565b6104f49061014a610e9b565b6040517fffffffff0000000000000000000000000000000000000000000000000000000060e084901b16815261ffff9091166004820152602401600060405180830381865af415801561054b573d6000803e3d6000fd5b505050506040513d6000823e601f3d908101601f191682016040526105739190810190610ebd565b73__$11e21e6c56ca563b85c74e3fd3a08242f9$__631b0d4b4d610598856005610e75565b6105a49061014a610e9b565b6040517fffffffff0000000000000000000000000000000000000000000000000000000060e084901b16815261ffff9091166004820152602401600060405180830381865af41580156105fb573d6000803e3d6000fd5b505050506040513d6000823e601f3d908101601f191682016040526106239190810190610ebd565b60405160200161063593929190610f6a565b6040516020818303038152906040529350808061065190611032565b9150506104b3565b508260405160200161066b9190611053565b60408051601f1981840301815291905295945050505050565b61068c610937565b6106966000610991565b565b606060006106a5836109f9565b6106ae846101fe565b6040516020016106bf92919061107b565b60405160208183030381529060405290506106d9816107e4565b6040516020016106e9919061120a565b604051602081830303815290604052915050919050565b606061070b836102f5565b60405160200161071b919061124f565b6040516020818303038152906040529050949350505050565b606061074285858585610700565b60405160200161071b91906112a2565b61075a610937565b6001600160a01b0381166107db5760405162461bcd60e51b815260206004820152602660248201527f4f776e61626c653a206e6577206f776e657220697320746865207a65726f206160448201527f646472657373000000000000000000000000000000000000000000000000000060648201526084015b60405180910390fd5b61015781610991565b6060815160000361080357505060408051602081019091526000815290565b600060405180606001604052806040815260200161135f60409139905060006003845160026108329190611334565b61083c9190610e53565b610847906004611347565b67ffffffffffffffff81111561085f5761085f610c65565b6040519080825280601f01601f191660200182016040528015610889576020820181803683370190505b509050600182016020820185865187015b808210156108f5576003820191508151603f8160121c168501518453600184019350603f81600c1c168501518453600184019350603f8160061c168501518453600184019350603f811685015184535060018301925061089a565b505060038651066001811461091157600281146109245761092c565b603d6001830353603d600283035361092c565b603d60018303535b509195945050505050565b6000546001600160a01b031633146106965760405162461bcd60e51b815260206004820181905260248201527f4f776e61626c653a2063616c6c6572206973206e6f7420746865206f776e657260448201526064016107d2565b600080546001600160a01b038381167fffffffffffffffffffffffff0000000000000000000000000000000000000000831681178455604051919092169283917f8be0079c531659141344cd1fd0a4f28419497f9722a3daafe3b4186f6b6457e09190a35050565b60606000610a0683610a99565b600101905060008167ffffffffffffffff811115610a2657610a26610c65565b6040519080825280601f01601f191660200182016040528015610a50576020820181803683370190505b5090508181016020015b600019017f3031323334353637383961626364656600000000000000000000000000000000600a86061a8153600a8504945084610a5a57509392505050565b6000807a184f03e93ff9f4daa797ed6e38ed64bf6a1f0100000000000000008310610ae2577a184f03e93ff9f4daa797ed6e38ed64bf6a1f010000000000000000830492506040015b6d04ee2d6d415b85acef81000000008310610b0e576d04ee2d6d415b85acef8100000000830492506020015b662386f26fc100008310610b2c57662386f26fc10000830492506010015b6305f5e1008310610b44576305f5e100830492506008015b6127108310610b5857612710830492506004015b60648310610b6a576064830492506002015b600a83106101f85760010192915050565b600060208284031215610b8d57600080fd5b5035919050565b60005b83811015610baf578181015183820152602001610b97565b50506000910152565b6020815260008251806020840152610bd7816040850160208701610b94565b601f01601f19169190910160400192915050565b80356001600160a01b0381168114610c0257600080fd5b919050565b600080600060608486031215610c1c57600080fd5b610c2584610beb565b9250610c3360208501610beb565b9150604084013590509250925092565b600060208284031215610c5557600080fd5b610c5e82610beb565b9392505050565b634e487b7160e01b600052604160045260246000fd5b60405160e0810167ffffffffffffffff81118282101715610c9e57610c9e610c65565b60405290565b61ffff8116811461015757600080fd5b80358015158114610c0257600080fd5b600080600080848603610140811215610cdc57600080fd5b8535945060e0601f1982011215610cf257600080fd5b50610cfb610c7b565b602086013581526040860135610d1081610ca4565b80602083015250606086013560408201526080860135606082015260a0860135608082015260c086013560a082015260e086013560c0820152809350506101008501359150610d626101208601610cb4565b905092959194509250565b600060e08284031215610d7f57600080fd5b610d87610c7b565b825181526020830151610d9981610ca4565b8060208301525060408301516040820152606083015160608201526080830151608082015260a083015160a082015260c083015160c08201528091505092915050565b60008251610dee818460208701610b94565b9190910192915050565b7f646174613a696d6167652f7376672b786d6c3b6261736536342c000000000000815260008251610e3081601a850160208701610b94565b91909101601a0192915050565b634e487b7160e01b600052601160045260246000fd5b600082610e7057634e487b7160e01b600052601260045260246000fd5b500490565b61ffff818116838216028082169190828114610e9357610e93610e3d565b505092915050565b61ffff818116838216019080821115610eb657610eb6610e3d565b5092915050565b600060208284031215610ecf57600080fd5b815167ffffffffffffffff80821115610ee757600080fd5b818401915084601f830112610efb57600080fd5b815181811115610f0d57610f0d610c65565b604051601f8201601f19908116603f01168101908382118183101715610f3557610f35610c65565b81604052828152876020848701011115610f4e57600080fd5b610f5f836020830160208801610b94565b979650505050505050565b60008451610f7c818460208901610b94565b80830190507f3c706174682064203d20224d00000000000000000000000000000000000000008082528551610fb881600c850160208a01610b94565b7f2030207620383022206f7061636974793d22302e3522202f3e00000000000000600c939091019283015260258201528351610ffb816031840160208801610b94565b7f2032363020762032383022206f7061636974793d22302e3522202f3e0000000060319290910191820152604d0195945050505050565b600061ffff80831681810361104957611049610e3d565b6001019392505050565b60008251611065818460208701610b94565b631e17b39f60e11b920191825250600401919050565b7f7b0000000000000000000000000000000000000000000000000000000000000081527f226e616d65223a2022636861696e656c6c6174696f6e204d6f756e7461696e7360018201527f20230000000000000000000000000000000000000000000000000000000000006021820152600083516110ff816023850160208801610b94565b7f222c0000000000000000000000000000000000000000000000000000000000006023918401918201527f226465736372697074696f6e223a2022636861696e656c6c6174696f6e204d6f60258201527f756e7461696e73222c000000000000000000000000000000000000000000000060458201527f22696d616765223a202200000000000000000000000000000000000000000000604e82015283516111ae816058840160208801610b94565b7f2200000000000000000000000000000000000000000000000000000000000000605892909101918201527f7d000000000000000000000000000000000000000000000000000000000000006059820152605a01949350505050565b7f646174613a6170706c69636174696f6e2f6a736f6e3b6261736536342c00000081526000825161124281601d850160208701610b94565b91909101601d0192915050565b7f3c673e0000000000000000000000000000000000000000000000000000000000815260008251611287816003850160208701610b94565b631e17b39f60e11b6003939091019283015250600701919050565b7f3c7376672076696577426f783d2230203020353132203531322220786d6c6e7381527f3d22687474703a2f2f7777772e77332e6f72672f323030302f737667223e000060208201526000825161130081603e850160208701610b94565b7f3c2f7376673e0000000000000000000000000000000000000000000000000000603e939091019283015250604401919050565b808201808211156101f8576101f8610e3d565b80820281158282048414176101f8576101f8610e3d56fe4142434445464748494a4b4c4d4e4f505152535455565758595a6162636465666768696a6b6c6d6e6f707172737475767778797a303132333435363738392b2fa2646970667358221220dbb04644c1ca063c3120ea86d43d660b57c8f1c4f9678b2463b22fa6c7c140b664736f6c63430008120033",
  "libraries": {
    "Color": "0xd795DE79b46792928a386EAcddE5Ef173146509F"
  },
  "devdoc": {
    "kind": "dev",
    "methods": {
      "owner()": {
        "details": "Returns the address of the current owner."
      },
      "renounceOwnership()": {
        "details": "Leaves the contract without owner. It will not be possible to call `onlyOwner` functions anymore. Can only be called by the current owner. NOTE: Renouncing ownership will leave the contract without an owner, thereby removing any functionality that is only available to the owner."
      },
      "transferOwnership(address)": {
        "details": "Transfers ownership of the contract to a new account (`newOwner`). Can only be called by the current owner."
      }
    },
    "version": 1
  },
  "userdoc": {
    "kind": "user",
    "methods": {},
    "version": 1
  },
  "storageLayout": {
    "storage": [
      {
        "astId": 7,
        "contract": "contracts/decos/SkyCircle.sol:SkyCircle",
        "label": "_owner",
        "offset": 0,
        "slot": "0",
        "type": "t_address"
      }
    ],
    "types": {
      "t_address": {
        "encoding": "inplace",
        "label": "address",
        "numberOfBytes": "20"
      }
    }
  }
}