{
  "address": "0xB1e84Fc349D1431062AfBb37bA08De934e35D127",
  "abi": [
    {
      "inputs": [
        {
          "internalType": "uint256",
          "name": "starSeed",
          "type": "uint256"
        },
        {
          "internalType": "uint256",
          "name": "constellationSeed",
          "type": "uint256"
        },
        {
          "internalType": "uint256",
          "name": "gazes",
          "type": "uint256"
        },
        {
          "internalType": "bool",
          "name": "day",
          "type": "bool"
        }
      ],
      "name": "buildStars",
      "outputs": [
        {
          "internalType": "string",
          "name": "",
          "type": "string"
        }
      ],
      "stateMutability": "view",
      "type": "function"
    },
    {
      "inputs": [
        {
          "components": [
            {
              "internalType": "uint256",
              "name": "tokenId",
              "type": "uint256"
            },
            {
              "internalType": "uint16",
              "name": "baseColor",
              "type": "uint16"
            },
            {
              "internalType": "uint256",
              "name": "starSeed",
              "type": "uint256"
            },
            {
              "internalType": "uint256",
              "name": "funkSeed",
              "type": "uint256"
            },
            {
              "internalType": "uint256",
              "name": "circleSeed",
              "type": "uint256"
            },
            {
              "internalType": "uint256",
              "name": "groundSeed",
              "type": "uint256"
            },
            {
              "internalType": "uint256",
              "name": "constellationSeed",
              "type": "uint256"
            }
          ],
          "internalType": "struct Color.DNA",
          "name": "dna",
          "type": "tuple"
        },
        {
          "internalType": "uint256",
          "name": "gazes",
          "type": "uint256"
        },
        {
          "internalType": "bool",
          "name": "daytime",
          "type": "bool"
        },
        {
          "internalType": "uint8",
          "name": "cloudDays",
          "type": "uint8"
        },
        {
          "internalType": "address",
          "name": "decorator",
          "type": "address"
        }
      ],
      "name": "generateSVG",
      "outputs": [
        {
          "internalType": "string",
          "name": "",
          "type": "string"
        }
      ],
      "stateMutability": "view",
      "type": "function"
    },
    {
      "inputs": [
        {
          "internalType": "bool",
          "name": "day",
          "type": "bool"
        }
      ],
      "name": "getBackgrounds",
      "outputs": [
        {
          "internalType": "string",
          "name": "",
          "type": "string"
        }
      ],
      "stateMutability": "pure",
      "type": "function"
    },
    {
      "inputs": [
        {
          "internalType": "uint256",
          "name": "seed",
          "type": "uint256"
        }
      ],
      "name": "getFilters",
      "outputs": [
        {
          "internalType": "string",
          "name": "",
          "type": "string"
        }
      ],
      "stateMutability": "pure",
      "type": "function"
    },
    {
      "inputs": [
        {
          "internalType": "uint256",
          "name": "seed",
          "type": "uint256"
        },
        {
          "components": [
            {
              "internalType": "uint16",
              "name": "H",
              "type": "uint16"
            },
            {
              "internalType": "uint16",
              "name": "S",
              "type": "uint16"
            },
            {
              "internalType": "uint16",
              "name": "L",
              "type": "uint16"
            }
          ],
          "internalType": "struct Color.HSL",
          "name": "primary",
          "type": "tuple"
        },
        {
          "internalType": "uint8",
          "name": "cloudDays",
          "type": "uint8"
        }
      ],
      "name": "getGradients",
      "outputs": [
        {
          "internalType": "string",
          "name": "",
          "type": "string"
        }
      ],
      "stateMutability": "pure",
      "type": "function"
    },
    {
      "inputs": [
        {
          "internalType": "uint256",
          "name": "starSeed",
          "type": "uint256"
        },
        {
          "internalType": "uint8",
          "name": "count",
          "type": "uint8"
        }
      ],
      "name": "getStars",
      "outputs": [
        {
          "internalType": "string",
          "name": "",
          "type": "string"
        }
      ],
      "stateMutability": "pure",
      "type": "function"
    },
    {
      "inputs": [
        {
          "internalType": "uint256",
          "name": "tokenId",
          "type": "uint256"
        },
        {
          "internalType": "uint256",
          "name": "nonce",
          "type": "uint256"
        }
      ],
      "name": "psuedorandom",
      "outputs": [
        {
          "internalType": "uint256",
          "name": "",
          "type": "uint256"
        }
      ],
      "stateMutability": "pure",
      "type": "function"
    },
    {
      "inputs": [
        {
          "internalType": "uint16",
          "name": "first",
          "type": "uint16"
        },
        {
          "internalType": "uint16",
          "name": "second",
          "type": "uint16"
        }
      ],
      "name": "subZero",
      "outputs": [
        {
          "internalType": "uint16",
          "name": "",
          "type": "uint16"
        }
      ],
      "stateMutability": "pure",
      "type": "function"
    }
  ],
  "transactionHash": "0x6ff06535a3c138450c155f14523fd85ac55b1546ffac71d5a2d8a6ce810eabfc",
  "args": [],
  "numDeployments": 1,
  "solcInputHash": "3e6973bac707de8cce66ea97621d2f00",
  "bytecode": "0x608060405234801561001057600080fd5b50612c10806100206000396000f3fe608060405234801561001057600080fd5b50600436106100885760003560e01c806354bd3f881161005b57806354bd3f88146101105780636e6e0cf014610123578063e2fe026314610136578063f75e9ad51461014957600080fd5b8063176a29a51461008d5780633329f04f146100b65780633a20c879146100dc5780633af5e6ba146100fd575b600080fd5b6100a061009b366004611633565b61015c565b6040516100ad9190611672565b60405180910390f35b6100c96100c43660046116b8565b610344565b60405161ffff90911681526020016100ad565b6100ef6100ea3660046116f1565b6103e8565b6040519081526020016100ad565b6100a061010b36600461172d565b610466565b6100a061011e366004611752565b6107e3565b6100a0610131366004611791565b610a21565b6100a061014436600461180c565b610c7a565b6100a06101573660046118a9565b6112e4565b60408051602081019091526000815260609073d795DE79b46792928a386EAcddE5Ef173146509F631b0d4b4d84610194576001610197565b60005b6040516001600160e01b031960e084901b16815260ff9091166004820152602401600060405180830381865af41580156101d5573d6000803e3d6000fd5b505050506040513d6000823e601f3d908101601f191682016040526101fd91908101906119e5565b73d795DE79b46792928a386EAcddE5Ef173146509F631b0d4b4d85610223576000610226565b60015b6040516001600160e01b031960e084901b16815260ff9091166004820152602401600060405180830381865af4158015610264573d6000803e3d6000fd5b505050506040513d6000823e601f3d908101601f1916820160405261028c91908101906119e5565b73d795DE79b46792928a386EAcddE5Ef173146509F631b0d4b4d866102b25760076102b5565b60005b6040516001600160e01b031960e084901b16815260ff9091166004820152602401600060405180830381865af41580156102f3573d6000803e3d6000fd5b505050506040513d6000823e601f3d908101601f1916820160405261031b91908101906119e5565b60405160200161032d93929190611a36565b60408051601f198184030181529190529392505050565b6040517f3329f04f00000000000000000000000000000000000000000000000000000000815261ffff80841660048301528216602482015260009073d795DE79b46792928a386EAcddE5Ef173146509F90633329f04f90604401602060405180830381865af41580156103bb573d6000803e3d6000fd5b505050506040513d601f19601f820116820180604052508101906103df9190611c0d565b90505b92915050565b604051633a20c87960e01b8152600481018390526024810182905260009073d795DE79b46792928a386EAcddE5Ef173146509F90633a20c87990604401602060405180830381865af4158015610442573d6000803e3d6000fd5b505050506040513d601f19601f820116820180604052508101906103df9190611c31565b604080516020808201835260008083528351808301855281815284519283019094528082526060939190805b8660ff168160ff1610156107d757604051633a20c87960e01b81526004810189905260ff8216602482015273d795DE79b46792928a386EAcddE5Ef173146509F90631b0d4b4d906101ce908390633a20c87990604401602060405180830381865af4158015610505573d6000803e3d6000fd5b505050506040513d601f19601f820116820180604052508101906105299190611c31565b6105339190611c4a565b61053e906019611c82565b6040516001600160e01b031960e084901b16815261ffff9091166004820152602401600060405180830381865af415801561057d573d6000803e3d6000fd5b505050506040513d6000823e601f3d908101601f191682016040526105a591908101906119e5565b604051633a20c87960e01b8152600481018a905260ff838116602483015291955073d795DE79b46792928a386EAcddE5Ef173146509F91631b0d4b4d918390633a20c87990604401602060405180830381865af415801561060a573d6000803e3d6000fd5b505050506040513d601f19601f8201168201806040525081019061062e9190611c31565b6106389190611c4a565b610643906019611c82565b6040516001600160e01b031960e084901b16815261ffff9091166004820152602401600060405180830381865af4158015610682573d6000803e3d6000fd5b505050506040513d6000823e601f3d908101601f191682016040526106aa91908101906119e5565b604051633a20c87960e01b8152600481018a905260ff8316602482015290935060039073d795DE79b46792928a386EAcddE5Ef173146509F90633a20c87990604401602060405180830381865af4158015610709573d6000803e3d6000fd5b505050506040513d601f19601f8201168201806040525081019061072d9190611c31565b6107379190611c4a565b91508160ff1660000361076f5784848460405160200161075993929190611ca4565b60405160208183030381529060405294506107c5565b8160ff1660010361078f5784848460405160200161075993929190611d4e565b8160ff166002036107c55784848486866040516020016107b3959493929190611e5b565b60405160208183030381529060405294505b806107cf81611f70565b915050610492565b50929695505050505050565b606081156108005750604080516020810190915260008152610a19565b6040805160208101909152600080825280601e8610610825575060199050601e6108fd565b856108308284611f8f565b60ff1610156108fd57600573d795DE79b46792928a386EAcddE5Ef173146509F633a20c8798a6108608587611f8f565b6040516001600160e01b031960e085901b168152600481019290925260ff166024820152604401602060405180830381865af41580156108a4573d6000803e3d6000fd5b505050506040513d601f19601f820116820180604052508101906108c89190611c31565b6108d29190611c4a565b6002036108eb57806108e381611f70565b915050610825565b816108f581611f70565b925050610825565b6040517f9560162f0000000000000000000000000000000000000000000000000000000081526004810188905260ff8216601e811460248301526044820152600090819073384ad7A74153FC21467BC77cac5528DcA0c56F4f90639560162f90606401600060405180830381865af415801561097d573d6000803e3d6000fd5b505050506040513d6000823e601f3d908101601f191682016040526109a59190810190611fa8565b9150915084826040516020016109bc929190611fef565b6040516020818303038152906040529450846109f08b8360ff16601e146109e357836109e6565b60005b61010b9088611f8f565b604051602001610a01929190612046565b60408051601f19818403018152919052955050505050505b949350505050565b60408051602081018252600081529051633a20c87960e01b815260048101839052607b602482015260609190819073d795DE79b46792928a386EAcddE5Ef173146509F90631b0d4b4d90612710908390633a20c87990604401602060405180830381865af4158015610a97573d6000803e3d6000fd5b505050506040513d601f19601f82011682018060405250810190610abb9190611c31565b610ac59190611c4a565b6040516001600160e01b031960e084901b16815261ffff9091166004820152602401600060405180830381865af4158015610b04573d6000803e3d6000fd5b505050506040513d6000823e601f3d908101601f19168201604052610b2c91908101906119e5565b604051602001610b3d92919061209d565b60408051601f1981840301815290829052633a20c87960e01b825260048201859052607b60248301529150819073d795DE79b46792928a386EAcddE5Ef173146509F90631b0d4b4d90612710908390633a20c87990604401602060405180830381865af4158015610bb2573d6000803e3d6000fd5b505050506040513d601f19601f82011682018060405250810190610bd69190611c31565b610be09190611c4a565b6040516001600160e01b031960e084901b16815261ffff9091166004820152602401600060405180830381865af4158015610c1f573d6000803e3d6000fd5b505050506040513d6000823e601f3d908101601f19168201604052610c4791908101906119e5565b604051602001610c5892919061219e565b60405160208183030381529060405290508060405160200161032d9190612390565b604051633a20c87960e01b815260048101849052607b602482015260609060009073d795DE79b46792928a386EAcddE5Ef173146509F90631b0d4b4d90602d908390633a20c87990604401602060405180830381865af4158015610ce2573d6000803e3d6000fd5b505050506040513d601f19601f82011682018060405250810190610d069190611c31565b610d109190611c4a565b6040516001600160e01b031960e084901b16815261ffff9091166004820152602401600060405180830381865af4158015610d4f573d6000803e3d6000fd5b505050506040513d6000823e601f3d908101601f19168201604052610d7791908101906119e5565b9050600081604051602001610d8c9190612529565b60405160208183030381529060405290508073d795DE79b46792928a386EAcddE5Ef173146509F630fc5c9fc73d795DE79b46792928a386EAcddE5Ef173146509F63d9081a5889603c6040518363ffffffff1660e01b8152600401610df29291906125bb565b606060405180830381865af4158015610e0f573d6000803e3d6000fd5b505050506040513d601f19601f82011682018060405250810190610e3391906125f7565b6040518263ffffffff1660e01b8152600401610e4f919061264b565b600060405180830381865af4158015610e6c573d6000803e3d6000fd5b505050506040513d6000823e601f3d908101601f19168201604052610e9491908101906119e5565b604051602001610ea5929190612676565b60408051601f19818403018152908290526303f1727f60e21b82529150819073d795DE79b46792928a386EAcddE5Ef173146509F90630fc5c9fc90610eee90899060040161264b565b600060405180830381865af4158015610f0b573d6000803e3d6000fd5b505050506040513d6000823e601f3d908101601f19168201604052610f3391908101906119e5565b604051602001610f449291906126f4565b6040516020818303038152906040529050808273d795DE79b46792928a386EAcddE5Ef173146509F631b0d4b4d8760ff16600014610f825787610f85565b60015b6040516001600160e01b031960e084901b16815260ff9091166004820152602401600060405180830381865af4158015610fc3573d6000803e3d6000fd5b505050506040513d6000823e601f3d908101601f19168201604052610feb91908101906119e5565b73d795DE79b46792928a386EAcddE5Ef173146509F631b0d4b4d60ff8916156110145788611017565b60015b6040516001600160e01b031960e084901b16815260ff9091166004820152602401600060405180830381865af4158015611055573d6000803e3d6000fd5b505050506040513d6000823e601f3d908101601f1916820160405261107d91908101906119e5565b6040516020016110909493929190612773565b60408051601f19818403018152908290527fd9081a58000000000000000000000000000000000000000000000000000000008252915060009073d795DE79b46792928a386EAcddE5Ef173146509F9063d9081a58906110f690899060f0906004016125bb565b606060405180830381865af4158015611113573d6000803e3d6000fd5b505050506040513d601f19601f8201168201806040525081019061113791906125f7565b605a604080830191909152516303f1727f60e21b8152909150829073d795DE79b46792928a386EAcddE5Ef173146509F90630fc5c9fc9061117c90859060040161264b565b600060405180830381865af4158015611199573d6000803e3d6000fd5b505050506040513d6000823e601f3d908101601f191682016040526111c191908101906119e5565b73d795DE79b46792928a386EAcddE5Ef173146509F630fc5c9fc73d795DE79b46792928a386EAcddE5Ef173146509F63d9081a588b60b46040518363ffffffff1660e01b81526004016112159291906125bb565b606060405180830381865af4158015611232573d6000803e3d6000fd5b505050506040513d601f19601f8201168201806040525081019061125691906125f7565b6040518263ffffffff1660e01b8152600401611272919061264b565b600060405180830381865af415801561128f573d6000803e3d6000fd5b505050506040513d6000823e601f3d908101601f191682016040526112b791908101906119e5565b6040516020016112c993929190612938565b60408051808303601f19018152919052979650505050505050565b604080516060818101835260208089015161ffff168352606490830152601e8284015291870151600090611319908387610c7a565b6113268960600151610a21565b61132f8861015c565b6113438b604001518c60c001518c8c6107e3565b61134f888d8d8d611399565b61135b898e8e8e6114a2565b6113678a8f8f8f611560565b60405160200161137d9796959493929190612a57565b60408051808303601f1901815291905298975050505050505050565b60606001600160a01b0385166113be5750604080516020810190915260008152610a19565b604080517f4fd0685a00000000000000000000000000000000000000000000000000000000815285516004820152602086015161ffff166024820152908501516044820152606085015160648201526080850151608482015260a085015160a482015260c085015160c482015260e4810184905282151561010482015285906001600160a01b03821690634fd0685a90610124015b600060405180830381865afa158015611470573d6000803e3d6000fd5b505050506040513d6000823e601f3d908101601f1916820160405261149891908101906119e5565b9695505050505050565b60606001600160a01b0385166114c75750604080516020810190915260008152610a19565b604080517f546faa0600000000000000000000000000000000000000000000000000000000815285516004820152602086015161ffff166024820152908501516044820152606085015160648201526080850151608482015260a085015160a482015260c085015160c482015260e4810184905282151561010482015285906001600160a01b0382169063546faa069061012401611453565b60606001600160a01b0385166115855750604080516020810190915260008152610a19565b604080517f6925773300000000000000000000000000000000000000000000000000000000815285516004820152602086015161ffff166024820152908501516044820152606085015160648201526080850151608482015260a085015160a482015260c085015160c482015260e4810184905282151561010482015285906001600160a01b0382169063692577339061012401611453565b8035801515811461162e57600080fd5b919050565b60006020828403121561164557600080fd5b6103df8261161e565b60005b83811015611669578181015183820152602001611651565b50506000910152565b602081526000825180602084015261169181604085016020870161164e565b601f01601f19169190910160400192915050565b61ffff811681146116b557600080fd5b50565b600080604083850312156116cb57600080fd5b82356116d6816116a5565b915060208301356116e6816116a5565b809150509250929050565b6000806040838503121561170457600080fd5b50508035926020909101359150565b60ff811681146116b557600080fd5b803561162e81611713565b6000806040838503121561174057600080fd5b8235915060208301356116e681611713565b6000806000806080858703121561176857600080fd5b8435935060208501359250604085013591506117866060860161161e565b905092959194509250565b6000602082840312156117a357600080fd5b5035919050565b634e487b7160e01b600052604160045260246000fd5b6040516060810167ffffffffffffffff811182821017156117e3576117e36117aa565b60405290565b60405160e0810167ffffffffffffffff811182821017156117e3576117e36117aa565b600080600083850360a081121561182257600080fd5b843593506060601f198201121561183857600080fd5b506118416117c0565b602085013561184f816116a5565b8152604085013561185f816116a5565b60208201526060850135611872816116a5565b60408201529150608084013561188781611713565b809150509250925092565b80356001600160a01b038116811461162e57600080fd5b60008060008060008587036101608112156118c357600080fd5b60e08112156118d157600080fd5b506118da6117e9565b8635815260208701356118ec816116a5565b8060208301525060408701356040820152606087013560608201526080870135608082015260a087013560a082015260c087013560c08201528095505060e0860135935061193d610100870161161e565b925061194c6101208701611722565b915061195b6101408701611892565b90509295509295909350565b600082601f83011261197857600080fd5b815167ffffffffffffffff80821115611993576119936117aa565b604051601f8301601f19908116603f011681019082821181831017156119bb576119bb6117aa565b816040528381528660208588010111156119d457600080fd5b61149884602083016020890161164e565b6000602082840312156119f757600080fd5b815167ffffffffffffffff811115611a0e57600080fd5b610a1984828501611967565b60008151611a2c81856020860161164e565b9290920192915050565b7f3c726563742077696474683d223130302522206865696768743d22313030252281527f2066696c7465723d2275726c282373746172732922206f7061636974793d2200602082015260008451611a9481603f85016020890161164e565b6211179f60e91b603f918401918201527f3c706174682066696c6c3d2275726c28236461794772616469656e742922206460428201527f3d224d302030683531327635313248307a22206f7061636974793d220000000060628201528451611b0381607e84016020890161164e565b7f22202066696c7465723d2275726c28236c6967687429222f3e00000000000000607e92909101918201527f3c706174682066696c6c3d2275726c2823736b794772616469656e742922202060978201527f643d224d302030683531327635313248307a22206f7061636974793d222e000060b7820152611b8760d5820185611a1a565b6211179f60e91b815290507f3c706174682066696c6c3d2275726c2823636c6f75644772616469656e74292260038201527f2066696c7465723d2275726c2823636c6f756473292220643d224d302030683560238201527f36357635313248307a222f3e00000000000000000000000000000000000000006043820152604f8101611498565b600060208284031215611c1f57600080fd5b8151611c2a816116a5565b9392505050565b600060208284031215611c4357600080fd5b5051919050565b600082611c6757634e487b7160e01b600052601260045260246000fd5b500690565b634e487b7160e01b600052601160045260246000fd5b61ffff818116838216019080821115611c9d57611c9d611c6c565b5092915050565b60008451611cb681846020890161164e565b7f3c636972636c6520723d2231222063783d2200000000000000000000000000009083019081528451611cf081601284016020890161164e565b65111031bc9e9160d11b601292909101918201528351611d1781601884016020880161164e565b7f222066696c6c3d2277686974652220206f7061636974793d2231222f3e0000006018929091019182015260350195945050505050565b60008451611d6081846020890161164e565b7f3c7061746820643d224d200000000000000000000000000000000000000000009083019081528451611d9a81600b84016020890161164e565b7f2c00000000000000000000000000000000000000000000000000000000000000600b92909101918201528351611dd881600c84016020880161164e565b7f6320352c3020352c3020352c2d35206320302c3520302c3520352c352063202d600c92909101918201527f352c30202d352c30202d352c35206320302c2d3520302c2d35202d352c2d3522602c8201527f2f3e000000000000000000000000000000000000000000000000000000000000604c820152604e0195945050505050565b60008651611e6d818460208b0161164e565b7f3c636972636c6520723d2233222063783d2200000000000000000000000000009083019081528651611ea7816012840160208b0161164e565b80820191505065111031bc9e9160d11b8060128301528651611ed0816018850160208b0161164e565b7f22206f7061636974793d22302e33222f3e000000000000000000000000000000601893909101928301527f3c636972636c6520723d2231222063783d22000000000000000000000000000060298301528551611f3481603b850160208a0161164e565b603b9201918201528351611f4f81604184016020880161164e565b01611f62604182016211179f60e91b9052565b604401979650505050505050565b600060ff821660ff8103611f8657611f86611c6c565b60010192915050565b60ff81811683821601908111156103e2576103e2611c6c565b60008060408385031215611fbb57600080fd5b825167ffffffffffffffff811115611fd257600080fd5b611fde85828601611967565b92505060208301516116e681611713565b6000835161200181846020880161164e565b83519083019061201581836020880161164e565b7f3c672066696c6c3d22776869746522206f7061636974793d22302e37223e00009101908152601e01949350505050565b6000835161205881846020880161164e565b83519083019061206c81836020880161164e565b7f3c2f673e000000000000000000000000000000000000000000000000000000009101908152600401949350505050565b600083516120af81846020880161164e565b80830190507f3c66696c7465722069643d227374617273223e3c666554757262756c656e636581527f20626173654672657175656e63793d222e33352220736565643d2200000000006020820152835161211081603b84016020880161164e565b6211179f60e91b603b92909101918201527f3c6665436f6c6f724d61747269782076616c7565733d2230203020302039202d603e8201527f342030203020302039202d342030203020302039202d34203020302030203020605e8201527f31222f3e3c2f66696c7465723e00000000000000000000000000000000000000607e820152608b01949350505050565b600083516121b081846020880161164e565b80830190507f3c66696c7465722069643d22636c6f7564732220783d222d3530252220793d2281527f2d35302522206865696768743d2232303025222077696474683d22323030252260208201527f3e3c6665476175737369616e426c757220696e3d22736b79222073746444657660408201527f696174696f6e3d2232302220726573756c743d22736b79626c7572222f3e000060608201527f3c666554757262756c656e636520747970653d226672616374616c4e6f697365607e8201527f2220626173654672657175656e63793d222e303122206e756d4f637461766573609e8201527f3d22352220726573756c743d22736b796e6f6973652220736565643d2200000060be82015283516122cf8160db84016020880161164e565b6211179f60e91b910160db81018290527f3c6665436f6c6f724d61747269782076616c7565733d2231203020302030203060de8201527f20312030203020302030203120302030203020302033202d31202d312030203060fe82015261011e8101919091527f3c6665436f6d706f73697465206f70657261746f723d22696e2220696e323d226101218201527f536f7572636547726170686963222f3e3c2f66696c7465723e0000000000000061014182015261015a810195945050505050565b600082516123a281846020870161164e565b7f3c66696c7465722069643d226c69676874223e3c666553706563756c61724c699201918252507f676874696e6720726573756c743d22737065634f7574222073706563756c617260208201527f4578706f6e656e743d2231303022206c69676874696e672d636f6c6f723d227760408201527f68697465223e000000000000000000000000000000000000000000000000000060608201527f3c6665506f696e744c6967687420783d2231302220793d22373022207a3d223360668201527f3030222f3e3c2f666553706563756c61724c69676874696e673e00000000000060868201527f3c6665436f6d706f7369746520696e3d22536f7572636547726170686963222060a08201527f696e323d22737065634f757422206f70657261746f723d2261726974686d657460c08201527f696322206b313d223022206b323d223122206b333d223122206b343d2230222f60e08201527f3e3c2f66696c7465723e0000000000000000000000000000000000000000000061010082015261010a01919050565b7f3c6c696e6561724772616469656e742069643d22736b794772616469656e742281527f206772616469656e745472616e73666f726d3d22726f7461746528000000000060208201526000825161258781603b85016020870161164e565b7f29223e0000000000000000000000000000000000000000000000000000000000603b939091019283015250603e01919050565b608081016125e68285805161ffff908116835260208083015182169084015260409182015116910152565b61ffff831660608301529392505050565b60006060828403121561260957600080fd5b6126116117c0565b825161261c816116a5565b8152602083015161262c816116a5565b6020820152604083015161263f816116a5565b60408201529392505050565b606081016103e28284805161ffff908116835260208083015182169084015260409182015116910152565b6000835161268881846020880161164e565b7f3c73746f70206f66667365743d223025220000000000000000000000000000009083019081526c1039ba37b816b1b7b637b91e9160991b601182015283516126d881601e84016020880161164e565b6211179f60e91b601e9290910191820152602101949350505050565b6000835161270681846020880161164e565b80830190507f3c73746f70206f66667365743d2231303025220000000000000000000000000081526c1039ba37b816b1b7b637b91e9160991b6013820152835161275781602084016020880161164e565b6211179f60e91b60209290910191820152602301949350505050565b60008551612785818460208a0161164e565b80830190507f3c2f6c696e6561724772616469656e743e3c6c696e6561724772616469656e7481527f2069643d22636c6f75644772616469656e7422206772616469656e745472616e60208201527f73666f726d3d22726f74617465280000000000000000000000000000000000006040820152855161280c81604e840160208a0161164e565b7f29223e3c73746f702073746f702d6f7061636974793d222e0000000000000000604e9290910191820152845161284a81606684016020890161164e565b7f22206f66667365743d22313525222f3e3c73746f702073746f702d6f70616369606692909101918201527f74793d222e3522206f66667365743d22333025222f3e0000000000000000000060868201527f3c73746f702073746f702d6f7061636974793d222e0000000000000000000000609c82015283516128d48160b184016020880161164e565b61292c60b1828401017f22206f66667365743d22353025222f3e3c2f6c696e6561724772616469656e7481527f3e00000000000000000000000000000000000000000000000000000000000000602082015260210190565b98975050505050505050565b6000845161294a81846020890161164e565b80830190507f3c6c696e6561724772616469656e742069643d226461794772616469656e742281527f206772616469656e745472616e73666f726d3d22726f7461746528313329223e60208201527f3c73746f70206f66667365743d223025222073746f702d636f6c6f723d220000604082015284516129d181605e84016020890161164e565b8082019150506211179f60e91b80605e8301527f3c73746f70206f66667365743d2231303025222073746f702d636f6c6f723d2260618301528451612a1d81608185016020890161164e565b60819201918201527f3c2f6c696e6561724772616469656e743e000000000000000000000000000000608482015260950195945050505050565b7f3c7376672076696577426f783d2230203020353132203531322220786d6c6e7381527f3d22687474703a2f2f7777772e77332e6f72672f323030302f737667223e3c6360208201527f6c6970506174682069643d22626f78223e3c7061746820643d224d302030683560408201527f31327635313248307a222f3e3c2f636c6970506174683e3c646566733e000000606082015260008851612b0181607d850160208d0161164e565b885190830190612b1881607d840160208d0161164e565b7f3c2f646566733e3c7376672076696577426f783d223020302035313220353132607d92909101918201527f2220636c69702d706174683d2275726c2823626f7829223e0000000000000000609d8201528751612b7c8160b5840160208c0161164e565b612ba6612ba0612b9a612b9460b5858701018c611a1a565b8a611a1a565b88611a1a565b86611a1a565b915050612bbb81651e17b9bb339f60d11b9052565b651e17b9bb339f60d11b6006820152600c01999850505050505050505056fea2646970667358221220a17441ac5e807dcc805e3cfa5c1003db535348f13aab087d6ef216c9f93614c864736f6c63430008120033",
  "deployedBytecode": "0x608060405234801561001057600080fd5b50600436106100885760003560e01c806354bd3f881161005b57806354bd3f88146101105780636e6e0cf014610123578063e2fe026314610136578063f75e9ad51461014957600080fd5b8063176a29a51461008d5780633329f04f146100b65780633a20c879146100dc5780633af5e6ba146100fd575b600080fd5b6100a061009b366004611633565b61015c565b6040516100ad9190611672565b60405180910390f35b6100c96100c43660046116b8565b610344565b60405161ffff90911681526020016100ad565b6100ef6100ea3660046116f1565b6103e8565b6040519081526020016100ad565b6100a061010b36600461172d565b610466565b6100a061011e366004611752565b6107e3565b6100a0610131366004611791565b610a21565b6100a061014436600461180c565b610c7a565b6100a06101573660046118a9565b6112e4565b60408051602081019091526000815260609073__$11e21e6c56ca563b85c74e3fd3a08242f9$__631b0d4b4d84610194576001610197565b60005b6040516001600160e01b031960e084901b16815260ff9091166004820152602401600060405180830381865af41580156101d5573d6000803e3d6000fd5b505050506040513d6000823e601f3d908101601f191682016040526101fd91908101906119e5565b73__$11e21e6c56ca563b85c74e3fd3a08242f9$__631b0d4b4d85610223576000610226565b60015b6040516001600160e01b031960e084901b16815260ff9091166004820152602401600060405180830381865af4158015610264573d6000803e3d6000fd5b505050506040513d6000823e601f3d908101601f1916820160405261028c91908101906119e5565b73__$11e21e6c56ca563b85c74e3fd3a08242f9$__631b0d4b4d866102b25760076102b5565b60005b6040516001600160e01b031960e084901b16815260ff9091166004820152602401600060405180830381865af41580156102f3573d6000803e3d6000fd5b505050506040513d6000823e601f3d908101601f1916820160405261031b91908101906119e5565b60405160200161032d93929190611a36565b60408051601f198184030181529190529392505050565b6040517f3329f04f00000000000000000000000000000000000000000000000000000000815261ffff80841660048301528216602482015260009073__$11e21e6c56ca563b85c74e3fd3a08242f9$__90633329f04f90604401602060405180830381865af41580156103bb573d6000803e3d6000fd5b505050506040513d601f19601f820116820180604052508101906103df9190611c0d565b90505b92915050565b604051633a20c87960e01b8152600481018390526024810182905260009073__$11e21e6c56ca563b85c74e3fd3a08242f9$__90633a20c87990604401602060405180830381865af4158015610442573d6000803e3d6000fd5b505050506040513d601f19601f820116820180604052508101906103df9190611c31565b604080516020808201835260008083528351808301855281815284519283019094528082526060939190805b8660ff168160ff1610156107d757604051633a20c87960e01b81526004810189905260ff8216602482015273__$11e21e6c56ca563b85c74e3fd3a08242f9$__90631b0d4b4d906101ce908390633a20c87990604401602060405180830381865af4158015610505573d6000803e3d6000fd5b505050506040513d601f19601f820116820180604052508101906105299190611c31565b6105339190611c4a565b61053e906019611c82565b6040516001600160e01b031960e084901b16815261ffff9091166004820152602401600060405180830381865af415801561057d573d6000803e3d6000fd5b505050506040513d6000823e601f3d908101601f191682016040526105a591908101906119e5565b604051633a20c87960e01b8152600481018a905260ff838116602483015291955073__$11e21e6c56ca563b85c74e3fd3a08242f9$__91631b0d4b4d918390633a20c87990604401602060405180830381865af415801561060a573d6000803e3d6000fd5b505050506040513d601f19601f8201168201806040525081019061062e9190611c31565b6106389190611c4a565b610643906019611c82565b6040516001600160e01b031960e084901b16815261ffff9091166004820152602401600060405180830381865af4158015610682573d6000803e3d6000fd5b505050506040513d6000823e601f3d908101601f191682016040526106aa91908101906119e5565b604051633a20c87960e01b8152600481018a905260ff8316602482015290935060039073__$11e21e6c56ca563b85c74e3fd3a08242f9$__90633a20c87990604401602060405180830381865af4158015610709573d6000803e3d6000fd5b505050506040513d601f19601f8201168201806040525081019061072d9190611c31565b6107379190611c4a565b91508160ff1660000361076f5784848460405160200161075993929190611ca4565b60405160208183030381529060405294506107c5565b8160ff1660010361078f5784848460405160200161075993929190611d4e565b8160ff166002036107c55784848486866040516020016107b3959493929190611e5b565b60405160208183030381529060405294505b806107cf81611f70565b915050610492565b50929695505050505050565b606081156108005750604080516020810190915260008152610a19565b6040805160208101909152600080825280601e8610610825575060199050601e6108fd565b856108308284611f8f565b60ff1610156108fd57600573__$11e21e6c56ca563b85c74e3fd3a08242f9$__633a20c8798a6108608587611f8f565b6040516001600160e01b031960e085901b168152600481019290925260ff166024820152604401602060405180830381865af41580156108a4573d6000803e3d6000fd5b505050506040513d601f19601f820116820180604052508101906108c89190611c31565b6108d29190611c4a565b6002036108eb57806108e381611f70565b915050610825565b816108f581611f70565b925050610825565b6040517f9560162f0000000000000000000000000000000000000000000000000000000081526004810188905260ff8216601e811460248301526044820152600090819073__$00bbbf98e0f0139f358cfbb4fb86c8766f$__90639560162f90606401600060405180830381865af415801561097d573d6000803e3d6000fd5b505050506040513d6000823e601f3d908101601f191682016040526109a59190810190611fa8565b9150915084826040516020016109bc929190611fef565b6040516020818303038152906040529450846109f08b8360ff16601e146109e357836109e6565b60005b61010b9088611f8f565b604051602001610a01929190612046565b60408051601f19818403018152919052955050505050505b949350505050565b60408051602081018252600081529051633a20c87960e01b815260048101839052607b602482015260609190819073__$11e21e6c56ca563b85c74e3fd3a08242f9$__90631b0d4b4d90612710908390633a20c87990604401602060405180830381865af4158015610a97573d6000803e3d6000fd5b505050506040513d601f19601f82011682018060405250810190610abb9190611c31565b610ac59190611c4a565b6040516001600160e01b031960e084901b16815261ffff9091166004820152602401600060405180830381865af4158015610b04573d6000803e3d6000fd5b505050506040513d6000823e601f3d908101601f19168201604052610b2c91908101906119e5565b604051602001610b3d92919061209d565b60408051601f1981840301815290829052633a20c87960e01b825260048201859052607b60248301529150819073__$11e21e6c56ca563b85c74e3fd3a08242f9$__90631b0d4b4d90612710908390633a20c87990604401602060405180830381865af4158015610bb2573d6000803e3d6000fd5b505050506040513d601f19601f82011682018060405250810190610bd69190611c31565b610be09190611c4a565b6040516001600160e01b031960e084901b16815261ffff9091166004820152602401600060405180830381865af4158015610c1f573d6000803e3d6000fd5b505050506040513d6000823e601f3d908101601f19168201604052610c4791908101906119e5565b604051602001610c5892919061219e565b60405160208183030381529060405290508060405160200161032d9190612390565b604051633a20c87960e01b815260048101849052607b602482015260609060009073__$11e21e6c56ca563b85c74e3fd3a08242f9$__90631b0d4b4d90602d908390633a20c87990604401602060405180830381865af4158015610ce2573d6000803e3d6000fd5b505050506040513d601f19601f82011682018060405250810190610d069190611c31565b610d109190611c4a565b6040516001600160e01b031960e084901b16815261ffff9091166004820152602401600060405180830381865af4158015610d4f573d6000803e3d6000fd5b505050506040513d6000823e601f3d908101601f19168201604052610d7791908101906119e5565b9050600081604051602001610d8c9190612529565b60405160208183030381529060405290508073__$11e21e6c56ca563b85c74e3fd3a08242f9$__630fc5c9fc73__$11e21e6c56ca563b85c74e3fd3a08242f9$__63d9081a5889603c6040518363ffffffff1660e01b8152600401610df29291906125bb565b606060405180830381865af4158015610e0f573d6000803e3d6000fd5b505050506040513d601f19601f82011682018060405250810190610e3391906125f7565b6040518263ffffffff1660e01b8152600401610e4f919061264b565b600060405180830381865af4158015610e6c573d6000803e3d6000fd5b505050506040513d6000823e601f3d908101601f19168201604052610e9491908101906119e5565b604051602001610ea5929190612676565b60408051601f19818403018152908290526303f1727f60e21b82529150819073__$11e21e6c56ca563b85c74e3fd3a08242f9$__90630fc5c9fc90610eee90899060040161264b565b600060405180830381865af4158015610f0b573d6000803e3d6000fd5b505050506040513d6000823e601f3d908101601f19168201604052610f3391908101906119e5565b604051602001610f449291906126f4565b6040516020818303038152906040529050808273__$11e21e6c56ca563b85c74e3fd3a08242f9$__631b0d4b4d8760ff16600014610f825787610f85565b60015b6040516001600160e01b031960e084901b16815260ff9091166004820152602401600060405180830381865af4158015610fc3573d6000803e3d6000fd5b505050506040513d6000823e601f3d908101601f19168201604052610feb91908101906119e5565b73__$11e21e6c56ca563b85c74e3fd3a08242f9$__631b0d4b4d60ff8916156110145788611017565b60015b6040516001600160e01b031960e084901b16815260ff9091166004820152602401600060405180830381865af4158015611055573d6000803e3d6000fd5b505050506040513d6000823e601f3d908101601f1916820160405261107d91908101906119e5565b6040516020016110909493929190612773565b60408051601f19818403018152908290527fd9081a58000000000000000000000000000000000000000000000000000000008252915060009073__$11e21e6c56ca563b85c74e3fd3a08242f9$__9063d9081a58906110f690899060f0906004016125bb565b606060405180830381865af4158015611113573d6000803e3d6000fd5b505050506040513d601f19601f8201168201806040525081019061113791906125f7565b605a604080830191909152516303f1727f60e21b8152909150829073__$11e21e6c56ca563b85c74e3fd3a08242f9$__90630fc5c9fc9061117c90859060040161264b565b600060405180830381865af4158015611199573d6000803e3d6000fd5b505050506040513d6000823e601f3d908101601f191682016040526111c191908101906119e5565b73__$11e21e6c56ca563b85c74e3fd3a08242f9$__630fc5c9fc73__$11e21e6c56ca563b85c74e3fd3a08242f9$__63d9081a588b60b46040518363ffffffff1660e01b81526004016112159291906125bb565b606060405180830381865af4158015611232573d6000803e3d6000fd5b505050506040513d601f19601f8201168201806040525081019061125691906125f7565b6040518263ffffffff1660e01b8152600401611272919061264b565b600060405180830381865af415801561128f573d6000803e3d6000fd5b505050506040513d6000823e601f3d908101601f191682016040526112b791908101906119e5565b6040516020016112c993929190612938565b60408051808303601f19018152919052979650505050505050565b604080516060818101835260208089015161ffff168352606490830152601e8284015291870151600090611319908387610c7a565b6113268960600151610a21565b61132f8861015c565b6113438b604001518c60c001518c8c6107e3565b61134f888d8d8d611399565b61135b898e8e8e6114a2565b6113678a8f8f8f611560565b60405160200161137d9796959493929190612a57565b60408051808303601f1901815291905298975050505050505050565b60606001600160a01b0385166113be5750604080516020810190915260008152610a19565b604080517f4fd0685a00000000000000000000000000000000000000000000000000000000815285516004820152602086015161ffff166024820152908501516044820152606085015160648201526080850151608482015260a085015160a482015260c085015160c482015260e4810184905282151561010482015285906001600160a01b03821690634fd0685a90610124015b600060405180830381865afa158015611470573d6000803e3d6000fd5b505050506040513d6000823e601f3d908101601f1916820160405261149891908101906119e5565b9695505050505050565b60606001600160a01b0385166114c75750604080516020810190915260008152610a19565b604080517f546faa0600000000000000000000000000000000000000000000000000000000815285516004820152602086015161ffff166024820152908501516044820152606085015160648201526080850151608482015260a085015160a482015260c085015160c482015260e4810184905282151561010482015285906001600160a01b0382169063546faa069061012401611453565b60606001600160a01b0385166115855750604080516020810190915260008152610a19565b604080517f6925773300000000000000000000000000000000000000000000000000000000815285516004820152602086015161ffff166024820152908501516044820152606085015160648201526080850151608482015260a085015160a482015260c085015160c482015260e4810184905282151561010482015285906001600160a01b0382169063692577339061012401611453565b8035801515811461162e57600080fd5b919050565b60006020828403121561164557600080fd5b6103df8261161e565b60005b83811015611669578181015183820152602001611651565b50506000910152565b602081526000825180602084015261169181604085016020870161164e565b601f01601f19169190910160400192915050565b61ffff811681146116b557600080fd5b50565b600080604083850312156116cb57600080fd5b82356116d6816116a5565b915060208301356116e6816116a5565b809150509250929050565b6000806040838503121561170457600080fd5b50508035926020909101359150565b60ff811681146116b557600080fd5b803561162e81611713565b6000806040838503121561174057600080fd5b8235915060208301356116e681611713565b6000806000806080858703121561176857600080fd5b8435935060208501359250604085013591506117866060860161161e565b905092959194509250565b6000602082840312156117a357600080fd5b5035919050565b634e487b7160e01b600052604160045260246000fd5b6040516060810167ffffffffffffffff811182821017156117e3576117e36117aa565b60405290565b60405160e0810167ffffffffffffffff811182821017156117e3576117e36117aa565b600080600083850360a081121561182257600080fd5b843593506060601f198201121561183857600080fd5b506118416117c0565b602085013561184f816116a5565b8152604085013561185f816116a5565b60208201526060850135611872816116a5565b60408201529150608084013561188781611713565b809150509250925092565b80356001600160a01b038116811461162e57600080fd5b60008060008060008587036101608112156118c357600080fd5b60e08112156118d157600080fd5b506118da6117e9565b8635815260208701356118ec816116a5565b8060208301525060408701356040820152606087013560608201526080870135608082015260a087013560a082015260c087013560c08201528095505060e0860135935061193d610100870161161e565b925061194c6101208701611722565b915061195b6101408701611892565b90509295509295909350565b600082601f83011261197857600080fd5b815167ffffffffffffffff80821115611993576119936117aa565b604051601f8301601f19908116603f011681019082821181831017156119bb576119bb6117aa565b816040528381528660208588010111156119d457600080fd5b61149884602083016020890161164e565b6000602082840312156119f757600080fd5b815167ffffffffffffffff811115611a0e57600080fd5b610a1984828501611967565b60008151611a2c81856020860161164e565b9290920192915050565b7f3c726563742077696474683d223130302522206865696768743d22313030252281527f2066696c7465723d2275726c282373746172732922206f7061636974793d2200602082015260008451611a9481603f85016020890161164e565b6211179f60e91b603f918401918201527f3c706174682066696c6c3d2275726c28236461794772616469656e742922206460428201527f3d224d302030683531327635313248307a22206f7061636974793d220000000060628201528451611b0381607e84016020890161164e565b7f22202066696c7465723d2275726c28236c6967687429222f3e00000000000000607e92909101918201527f3c706174682066696c6c3d2275726c2823736b794772616469656e742922202060978201527f643d224d302030683531327635313248307a22206f7061636974793d222e000060b7820152611b8760d5820185611a1a565b6211179f60e91b815290507f3c706174682066696c6c3d2275726c2823636c6f75644772616469656e74292260038201527f2066696c7465723d2275726c2823636c6f756473292220643d224d302030683560238201527f36357635313248307a222f3e00000000000000000000000000000000000000006043820152604f8101611498565b600060208284031215611c1f57600080fd5b8151611c2a816116a5565b9392505050565b600060208284031215611c4357600080fd5b5051919050565b600082611c6757634e487b7160e01b600052601260045260246000fd5b500690565b634e487b7160e01b600052601160045260246000fd5b61ffff818116838216019080821115611c9d57611c9d611c6c565b5092915050565b60008451611cb681846020890161164e565b7f3c636972636c6520723d2231222063783d2200000000000000000000000000009083019081528451611cf081601284016020890161164e565b65111031bc9e9160d11b601292909101918201528351611d1781601884016020880161164e565b7f222066696c6c3d2277686974652220206f7061636974793d2231222f3e0000006018929091019182015260350195945050505050565b60008451611d6081846020890161164e565b7f3c7061746820643d224d200000000000000000000000000000000000000000009083019081528451611d9a81600b84016020890161164e565b7f2c00000000000000000000000000000000000000000000000000000000000000600b92909101918201528351611dd881600c84016020880161164e565b7f6320352c3020352c3020352c2d35206320302c3520302c3520352c352063202d600c92909101918201527f352c30202d352c30202d352c35206320302c2d3520302c2d35202d352c2d3522602c8201527f2f3e000000000000000000000000000000000000000000000000000000000000604c820152604e0195945050505050565b60008651611e6d818460208b0161164e565b7f3c636972636c6520723d2233222063783d2200000000000000000000000000009083019081528651611ea7816012840160208b0161164e565b80820191505065111031bc9e9160d11b8060128301528651611ed0816018850160208b0161164e565b7f22206f7061636974793d22302e33222f3e000000000000000000000000000000601893909101928301527f3c636972636c6520723d2231222063783d22000000000000000000000000000060298301528551611f3481603b850160208a0161164e565b603b9201918201528351611f4f81604184016020880161164e565b01611f62604182016211179f60e91b9052565b604401979650505050505050565b600060ff821660ff8103611f8657611f86611c6c565b60010192915050565b60ff81811683821601908111156103e2576103e2611c6c565b60008060408385031215611fbb57600080fd5b825167ffffffffffffffff811115611fd257600080fd5b611fde85828601611967565b92505060208301516116e681611713565b6000835161200181846020880161164e565b83519083019061201581836020880161164e565b7f3c672066696c6c3d22776869746522206f7061636974793d22302e37223e00009101908152601e01949350505050565b6000835161205881846020880161164e565b83519083019061206c81836020880161164e565b7f3c2f673e000000000000000000000000000000000000000000000000000000009101908152600401949350505050565b600083516120af81846020880161164e565b80830190507f3c66696c7465722069643d227374617273223e3c666554757262756c656e636581527f20626173654672657175656e63793d222e33352220736565643d2200000000006020820152835161211081603b84016020880161164e565b6211179f60e91b603b92909101918201527f3c6665436f6c6f724d61747269782076616c7565733d2230203020302039202d603e8201527f342030203020302039202d342030203020302039202d34203020302030203020605e8201527f31222f3e3c2f66696c7465723e00000000000000000000000000000000000000607e820152608b01949350505050565b600083516121b081846020880161164e565b80830190507f3c66696c7465722069643d22636c6f7564732220783d222d3530252220793d2281527f2d35302522206865696768743d2232303025222077696474683d22323030252260208201527f3e3c6665476175737369616e426c757220696e3d22736b79222073746444657660408201527f696174696f6e3d2232302220726573756c743d22736b79626c7572222f3e000060608201527f3c666554757262756c656e636520747970653d226672616374616c4e6f697365607e8201527f2220626173654672657175656e63793d222e303122206e756d4f637461766573609e8201527f3d22352220726573756c743d22736b796e6f6973652220736565643d2200000060be82015283516122cf8160db84016020880161164e565b6211179f60e91b910160db81018290527f3c6665436f6c6f724d61747269782076616c7565733d2231203020302030203060de8201527f20312030203020302030203120302030203020302033202d31202d312030203060fe82015261011e8101919091527f3c6665436f6d706f73697465206f70657261746f723d22696e2220696e323d226101218201527f536f7572636547726170686963222f3e3c2f66696c7465723e0000000000000061014182015261015a810195945050505050565b600082516123a281846020870161164e565b7f3c66696c7465722069643d226c69676874223e3c666553706563756c61724c699201918252507f676874696e6720726573756c743d22737065634f7574222073706563756c617260208201527f4578706f6e656e743d2231303022206c69676874696e672d636f6c6f723d227760408201527f68697465223e000000000000000000000000000000000000000000000000000060608201527f3c6665506f696e744c6967687420783d2231302220793d22373022207a3d223360668201527f3030222f3e3c2f666553706563756c61724c69676874696e673e00000000000060868201527f3c6665436f6d706f7369746520696e3d22536f7572636547726170686963222060a08201527f696e323d22737065634f757422206f70657261746f723d2261726974686d657460c08201527f696322206b313d223022206b323d223122206b333d223122206b343d2230222f60e08201527f3e3c2f66696c7465723e0000000000000000000000000000000000000000000061010082015261010a01919050565b7f3c6c696e6561724772616469656e742069643d22736b794772616469656e742281527f206772616469656e745472616e73666f726d3d22726f7461746528000000000060208201526000825161258781603b85016020870161164e565b7f29223e0000000000000000000000000000000000000000000000000000000000603b939091019283015250603e01919050565b608081016125e68285805161ffff908116835260208083015182169084015260409182015116910152565b61ffff831660608301529392505050565b60006060828403121561260957600080fd5b6126116117c0565b825161261c816116a5565b8152602083015161262c816116a5565b6020820152604083015161263f816116a5565b60408201529392505050565b606081016103e28284805161ffff908116835260208083015182169084015260409182015116910152565b6000835161268881846020880161164e565b7f3c73746f70206f66667365743d223025220000000000000000000000000000009083019081526c1039ba37b816b1b7b637b91e9160991b601182015283516126d881601e84016020880161164e565b6211179f60e91b601e9290910191820152602101949350505050565b6000835161270681846020880161164e565b80830190507f3c73746f70206f66667365743d2231303025220000000000000000000000000081526c1039ba37b816b1b7b637b91e9160991b6013820152835161275781602084016020880161164e565b6211179f60e91b60209290910191820152602301949350505050565b60008551612785818460208a0161164e565b80830190507f3c2f6c696e6561724772616469656e743e3c6c696e6561724772616469656e7481527f2069643d22636c6f75644772616469656e7422206772616469656e745472616e60208201527f73666f726d3d22726f74617465280000000000000000000000000000000000006040820152855161280c81604e840160208a0161164e565b7f29223e3c73746f702073746f702d6f7061636974793d222e0000000000000000604e9290910191820152845161284a81606684016020890161164e565b7f22206f66667365743d22313525222f3e3c73746f702073746f702d6f70616369606692909101918201527f74793d222e3522206f66667365743d22333025222f3e0000000000000000000060868201527f3c73746f702073746f702d6f7061636974793d222e0000000000000000000000609c82015283516128d48160b184016020880161164e565b61292c60b1828401017f22206f66667365743d22353025222f3e3c2f6c696e6561724772616469656e7481527f3e00000000000000000000000000000000000000000000000000000000000000602082015260210190565b98975050505050505050565b6000845161294a81846020890161164e565b80830190507f3c6c696e6561724772616469656e742069643d226461794772616469656e742281527f206772616469656e745472616e73666f726d3d22726f7461746528313329223e60208201527f3c73746f70206f66667365743d223025222073746f702d636f6c6f723d220000604082015284516129d181605e84016020890161164e565b8082019150506211179f60e91b80605e8301527f3c73746f70206f66667365743d2231303025222073746f702d636f6c6f723d2260618301528451612a1d81608185016020890161164e565b60819201918201527f3c2f6c696e6561724772616469656e743e000000000000000000000000000000608482015260950195945050505050565b7f3c7376672076696577426f783d2230203020353132203531322220786d6c6e7381527f3d22687474703a2f2f7777772e77332e6f72672f323030302f737667223e3c6360208201527f6c6970506174682069643d22626f78223e3c7061746820643d224d302030683560408201527f31327635313248307a222f3e3c2f636c6970506174683e3c646566733e000000606082015260008851612b0181607d850160208d0161164e565b885190830190612b1881607d840160208d0161164e565b7f3c2f646566733e3c7376672076696577426f783d223020302035313220353132607d92909101918201527f2220636c69702d706174683d2275726c2823626f7829223e0000000000000000609d8201528751612b7c8160b5840160208c0161164e565b612ba6612ba0612b9a612b9460b5858701018c611a1a565b8a611a1a565b88611a1a565b86611a1a565b915050612bbb81651e17b9bb339f60d11b9052565b651e17b9bb339f60d11b6006820152600c01999850505050505050505056fea2646970667358221220a17441ac5e807dcc805e3cfa5c1003db535348f13aab087d6ef216c9f93614c864736f6c63430008120033",
  "libraries": {
    "Color": "0xd795DE79b46792928a386EAcddE5Ef173146509F",
    "Constellations": "0x384ad7A74153FC21467BC77cac5528DcA0c56F4f"
  },
  "devdoc": {
    "kind": "dev",
    "methods": {},
    "version": 1
  },
  "userdoc": {
    "kind": "user",
    "methods": {},
    "version": 1
  },
  "storageLayout": {
    "storage": [],
    "types": null
  }
}