{
  "address": "0x4EaD2064aB2C3FAA237818708948FD498Aeed7f2",
  "abi": [
    {
      "inputs": [],
      "stateMutability": "nonpayable",
      "type": "constructor"
    },
    {
      "inputs": [],
      "name": "Cost",
      "type": "error"
    },
    {
      "inputs": [],
      "name": "MaxSupplyReached",
      "type": "error"
    },
    {
      "inputs": [],
      "name": "NotOwner",
      "type": "error"
    },
    {
      "inputs": [],
      "name": "SoulBound",
      "type": "error"
    },
    {
      "anonymous": false,
      "inputs": [
        {
          "indexed": true,
          "internalType": "address",
          "name": "owner",
          "type": "address"
        },
        {
          "indexed": true,
          "internalType": "address",
          "name": "approved",
          "type": "address"
        },
        {
          "indexed": true,
          "internalType": "uint256",
          "name": "tokenId",
          "type": "uint256"
        }
      ],
      "name": "Approval",
      "type": "event"
    },
    {
      "anonymous": false,
      "inputs": [
        {
          "indexed": true,
          "internalType": "address",
          "name": "owner",
          "type": "address"
        },
        {
          "indexed": true,
          "internalType": "address",
          "name": "operator",
          "type": "address"
        },
        {
          "indexed": false,
          "internalType": "bool",
          "name": "approved",
          "type": "bool"
        }
      ],
      "name": "ApprovalForAll",
      "type": "event"
    },
    {
      "anonymous": false,
      "inputs": [
        {
          "indexed": true,
          "internalType": "address",
          "name": "previousOwner",
          "type": "address"
        },
        {
          "indexed": true,
          "internalType": "address",
          "name": "newOwner",
          "type": "address"
        }
      ],
      "name": "OwnershipTransferred",
      "type": "event"
    },
    {
      "anonymous": false,
      "inputs": [
        {
          "indexed": true,
          "internalType": "address",
          "name": "from",
          "type": "address"
        },
        {
          "indexed": true,
          "internalType": "address",
          "name": "to",
          "type": "address"
        },
        {
          "indexed": true,
          "internalType": "uint256",
          "name": "tokenId",
          "type": "uint256"
        }
      ],
      "name": "Transfer",
      "type": "event"
    },
    {
      "inputs": [
        {
          "internalType": "address",
          "name": "to",
          "type": "address"
        },
        {
          "internalType": "uint256",
          "name": "tokenId",
          "type": "uint256"
        }
      ],
      "name": "approve",
      "outputs": [],
      "stateMutability": "nonpayable",
      "type": "function"
    },
    {
      "inputs": [
        {
          "internalType": "address",
          "name": "owner",
          "type": "address"
        }
      ],
      "name": "balanceOf",
      "outputs": [
        {
          "internalType": "uint256",
          "name": "",
          "type": "uint256"
        }
      ],
      "stateMutability": "view",
      "type": "function"
    },
    {
      "inputs": [],
      "name": "currentSupply",
      "outputs": [
        {
          "internalType": "uint256",
          "name": "",
          "type": "uint256"
        }
      ],
      "stateMutability": "view",
      "type": "function"
    },
    {
      "inputs": [
        {
          "internalType": "uint256",
          "name": "tokenId",
          "type": "uint256"
        }
      ],
      "name": "generateCharacter",
      "outputs": [
        {
          "internalType": "string",
          "name": "",
          "type": "string"
        }
      ],
      "stateMutability": "view",
      "type": "function"
    },
    {
      "inputs": [
        {
          "internalType": "uint256",
          "name": "tokenId",
          "type": "uint256"
        }
      ],
      "name": "getApproved",
      "outputs": [
        {
          "internalType": "address",
          "name": "",
          "type": "address"
        }
      ],
      "stateMutability": "view",
      "type": "function"
    },
    {
      "inputs": [
        {
          "internalType": "uint256",
          "name": "tokenId",
          "type": "uint256"
        },
        {
          "components": [
            {
              "internalType": "uint256",
              "name": "tokenId",
              "type": "uint256"
            },
            {
              "internalType": "uint16",
              "name": "primaryHue",
              "type": "uint16"
            },
            {
              "internalType": "uint16",
              "name": "secondaryHue",
              "type": "uint16"
            },
            {
              "internalType": "uint8",
              "name": "constellation",
              "type": "uint8"
            },
            {
              "internalType": "uint8",
              "name": "cloudsAt",
              "type": "uint8"
            },
            {
              "internalType": "uint256",
              "name": "starSeed",
              "type": "uint256"
            },
            {
              "internalType": "uint256",
              "name": "funkSeed",
              "type": "uint256"
            },
            {
              "internalType": "uint256",
              "name": "circleSeed",
              "type": "uint256"
            },
            {
              "internalType": "uint256",
              "name": "groundSeed",
              "type": "uint256"
            }
          ],
          "internalType": "struct Color.DNA",
          "name": "dna",
          "type": "tuple"
        },
        {
          "internalType": "uint256",
          "name": "gazes",
          "type": "uint256"
        },
        {
          "internalType": "bool",
          "name": "daytime",
          "type": "bool"
        }
      ],
      "name": "getDeco",
      "outputs": [
        {
          "internalType": "string",
          "name": "",
          "type": "string"
        }
      ],
      "stateMutability": "pure",
      "type": "function"
    },
    {
      "inputs": [
        {
          "internalType": "uint256",
          "name": "tokenId",
          "type": "uint256"
        }
      ],
      "name": "getMetadata",
      "outputs": [
        {
          "internalType": "string",
          "name": "",
          "type": "string"
        }
      ],
      "stateMutability": "view",
      "type": "function"
    },
    {
      "inputs": [
        {
          "internalType": "address",
          "name": "owner",
          "type": "address"
        },
        {
          "internalType": "address",
          "name": "operator",
          "type": "address"
        }
      ],
      "name": "isApprovedForAll",
      "outputs": [
        {
          "internalType": "bool",
          "name": "",
          "type": "bool"
        }
      ],
      "stateMutability": "view",
      "type": "function"
    },
    {
      "inputs": [],
      "name": "maxSupply",
      "outputs": [
        {
          "internalType": "uint256",
          "name": "",
          "type": "uint256"
        }
      ],
      "stateMutability": "view",
      "type": "function"
    },
    {
      "inputs": [],
      "name": "mint",
      "outputs": [],
      "stateMutability": "payable",
      "type": "function"
    },
    {
      "inputs": [],
      "name": "mintCost",
      "outputs": [
        {
          "internalType": "uint256",
          "name": "",
          "type": "uint256"
        }
      ],
      "stateMutability": "view",
      "type": "function"
    },
    {
      "inputs": [],
      "name": "name",
      "outputs": [
        {
          "internalType": "string",
          "name": "",
          "type": "string"
        }
      ],
      "stateMutability": "view",
      "type": "function"
    },
    {
      "inputs": [],
      "name": "owner",
      "outputs": [
        {
          "internalType": "address",
          "name": "",
          "type": "address"
        }
      ],
      "stateMutability": "view",
      "type": "function"
    },
    {
      "inputs": [
        {
          "internalType": "uint256",
          "name": "tokenId",
          "type": "uint256"
        }
      ],
      "name": "ownerOf",
      "outputs": [
        {
          "internalType": "address",
          "name": "owner",
          "type": "address"
        }
      ],
      "stateMutability": "view",
      "type": "function"
    },
    {
      "inputs": [
        {
          "internalType": "uint256",
          "name": "tokenId",
          "type": "uint256"
        },
        {
          "components": [
            {
              "internalType": "uint256",
              "name": "tokenId",
              "type": "uint256"
            },
            {
              "internalType": "uint16",
              "name": "primaryHue",
              "type": "uint16"
            },
            {
              "internalType": "uint16",
              "name": "secondaryHue",
              "type": "uint16"
            },
            {
              "internalType": "uint8",
              "name": "constellation",
              "type": "uint8"
            },
            {
              "internalType": "uint8",
              "name": "cloudsAt",
              "type": "uint8"
            },
            {
              "internalType": "uint256",
              "name": "starSeed",
              "type": "uint256"
            },
            {
              "internalType": "uint256",
              "name": "funkSeed",
              "type": "uint256"
            },
            {
              "internalType": "uint256",
              "name": "circleSeed",
              "type": "uint256"
            },
            {
              "internalType": "uint256",
              "name": "groundSeed",
              "type": "uint256"
            }
          ],
          "internalType": "struct Color.DNA",
          "name": "dna",
          "type": "tuple"
        },
        {
          "internalType": "uint256",
          "name": "gazes",
          "type": "uint256"
        },
        {
          "internalType": "bool",
          "name": "daytime",
          "type": "bool"
        }
      ],
      "name": "packageAsSVG",
      "outputs": [
        {
          "internalType": "string",
          "name": "",
          "type": "string"
        }
      ],
      "stateMutability": "view",
      "type": "function"
    },
    {
      "inputs": [],
      "name": "renounceOwnership",
      "outputs": [],
      "stateMutability": "nonpayable",
      "type": "function"
    },
    {
      "inputs": [
        {
          "internalType": "address",
          "name": "from",
          "type": "address"
        },
        {
          "internalType": "address",
          "name": "to",
          "type": "address"
        },
        {
          "internalType": "uint256",
          "name": "tokenId",
          "type": "uint256"
        }
      ],
      "name": "safeTransferFrom",
      "outputs": [],
      "stateMutability": "nonpayable",
      "type": "function"
    },
    {
      "inputs": [
        {
          "internalType": "address",
          "name": "from",
          "type": "address"
        },
        {
          "internalType": "address",
          "name": "to",
          "type": "address"
        },
        {
          "internalType": "uint256",
          "name": "tokenId",
          "type": "uint256"
        },
        {
          "internalType": "bytes",
          "name": "data",
          "type": "bytes"
        }
      ],
      "name": "safeTransferFrom",
      "outputs": [],
      "stateMutability": "nonpayable",
      "type": "function"
    },
    {
      "inputs": [
        {
          "internalType": "address",
          "name": "operator",
          "type": "address"
        },
        {
          "internalType": "bool",
          "name": "approved",
          "type": "bool"
        }
      ],
      "name": "setApprovalForAll",
      "outputs": [],
      "stateMutability": "nonpayable",
      "type": "function"
    },
    {
      "inputs": [
        {
          "internalType": "uint256",
          "name": "_maxSupply",
          "type": "uint256"
        }
      ],
      "name": "setMaxSupply",
      "outputs": [],
      "stateMutability": "nonpayable",
      "type": "function"
    },
    {
      "inputs": [
        {
          "internalType": "uint256",
          "name": "_newMintCost",
          "type": "uint256"
        }
      ],
      "name": "setMintCost",
      "outputs": [],
      "stateMutability": "nonpayable",
      "type": "function"
    },
    {
      "inputs": [
        {
          "internalType": "uint256",
          "name": "tokenId",
          "type": "uint256"
        }
      ],
      "name": "soulbind",
      "outputs": [],
      "stateMutability": "nonpayable",
      "type": "function"
    },
    {
      "inputs": [
        {
          "internalType": "uint256",
          "name": "",
          "type": "uint256"
        }
      ],
      "name": "soulbound",
      "outputs": [
        {
          "internalType": "bool",
          "name": "",
          "type": "bool"
        }
      ],
      "stateMutability": "view",
      "type": "function"
    },
    {
      "inputs": [
        {
          "internalType": "bytes4",
          "name": "interfaceId",
          "type": "bytes4"
        }
      ],
      "name": "supportsInterface",
      "outputs": [
        {
          "internalType": "bool",
          "name": "",
          "type": "bool"
        }
      ],
      "stateMutability": "view",
      "type": "function"
    },
    {
      "inputs": [],
      "name": "symbol",
      "outputs": [
        {
          "internalType": "string",
          "name": "",
          "type": "string"
        }
      ],
      "stateMutability": "view",
      "type": "function"
    },
    {
      "inputs": [
        {
          "internalType": "uint256",
          "name": "index",
          "type": "uint256"
        }
      ],
      "name": "tokenByIndex",
      "outputs": [
        {
          "internalType": "uint256",
          "name": "",
          "type": "uint256"
        }
      ],
      "stateMutability": "view",
      "type": "function"
    },
    {
      "inputs": [
        {
          "internalType": "address",
          "name": "owner",
          "type": "address"
        },
        {
          "internalType": "uint256",
          "name": "index",
          "type": "uint256"
        }
      ],
      "name": "tokenOfOwnerByIndex",
      "outputs": [
        {
          "internalType": "uint256",
          "name": "",
          "type": "uint256"
        }
      ],
      "stateMutability": "view",
      "type": "function"
    },
    {
      "inputs": [
        {
          "internalType": "uint256",
          "name": "tokenId",
          "type": "uint256"
        }
      ],
      "name": "tokenURI",
      "outputs": [
        {
          "internalType": "string",
          "name": "",
          "type": "string"
        }
      ],
      "stateMutability": "view",
      "type": "function"
    },
    {
      "inputs": [],
      "name": "totalSupply",
      "outputs": [
        {
          "internalType": "uint256",
          "name": "",
          "type": "uint256"
        }
      ],
      "stateMutability": "view",
      "type": "function"
    },
    {
      "inputs": [
        {
          "internalType": "address",
          "name": "from",
          "type": "address"
        },
        {
          "internalType": "address",
          "name": "to",
          "type": "address"
        },
        {
          "internalType": "uint256",
          "name": "tokenId",
          "type": "uint256"
        }
      ],
      "name": "transferFrom",
      "outputs": [],
      "stateMutability": "nonpayable",
      "type": "function"
    },
    {
      "inputs": [
        {
          "internalType": "address",
          "name": "newOwner",
          "type": "address"
        }
      ],
      "name": "transferOwnership",
      "outputs": [],
      "stateMutability": "nonpayable",
      "type": "function"
    }
  ],
  "transactionHash": "0x14ea7a3c316e61e5dc6d5ec99f0447968814cffcead1860a40afcdb678a0349c",
  "args": [],
  "numDeployments": 2,
  "solcInputHash": "56930af7b938deac2ecf057e8304b3a4",
  "bytecode": "0x60806040526101f4600d556000600e553480156200001c57600080fd5b506040518060400160405280600781526020016614dade4810d85d60ca1b8152506040518060400160405280600681526020016514dade50d85d60d21b81525081600090816200006d91906200019a565b5060016200007c82826200019a565b50505062000099620000936200009f60201b60201c565b620000a3565b62000266565b3390565b600b80546001600160a01b038381166001600160a01b0319831681179093556040519116919082907f8be0079c531659141344cd1fd0a4f28419497f9722a3daafe3b4186f6b6457e090600090a35050565b634e487b7160e01b600052604160045260246000fd5b600181811c908216806200012057607f821691505b6020821081036200014157634e487b7160e01b600052602260045260246000fd5b50919050565b601f8211156200019557600081815260208120601f850160051c81016020861015620001705750805b601f850160051c820191505b8181101562000191578281556001016200017c565b5050505b505050565b81516001600160401b03811115620001b657620001b6620000f5565b620001ce81620001c784546200010b565b8462000147565b602080601f831160018114620002065760008415620001ed5750858301515b600019600386901b1c1916600185901b17855562000191565b600085815260208120601f198616915b82811015620002375788860151825594840194600190910190840162000216565b5085821015620002565787850151600019600388901b60f8161c191681555b5050505050600190811b01905550565b614e2080620002766000396000f3fe6080604052600436106101d85760003560e01c8063715018a611610102578063a574cea411610095578063c87b56dd11610064578063c87b56dd14610539578063d5abeb0114610559578063e985e9c51461056f578063f2fde38b146105b857600080fd5b8063a574cea4146104c3578063a5d5a10b146104e3578063b88d4fde14610503578063bdb4b8481461052357600080fd5b80638a8351ef116100d15780638a8351ef146104505780638da5cb5b1461047057806395d89b411461048e578063a22cb465146104a357600080fd5b8063715018a6146103d5578063771282f6146103ea5780637a181597146104005780638545f4ea1461043057600080fd5b806318160ddd1161017a5780634f6ccce7116101495780634f6ccce7146103555780636352211e146103755780636f8b44b01461039557806370a08231146103b557600080fd5b806318160ddd146102d657806323b872dd146102f55780632f745c591461031557806342842e0e1461033557600080fd5b8063081812fc116101b6578063081812fc14610256578063095ea7b31461028e5780630daefed5146102ae5780631249c58b146102ce57600080fd5b806301ffc9a7146101dd57806306fdde031461021257806306febcba14610234575b600080fd5b3480156101e957600080fd5b506101fd6101f83660046144c0565b6105d8565b60405190151581526020015b60405180910390f35b34801561021e57600080fd5b5061022761061c565b6040516102099190614534565b34801561024057600080fd5b5061025461024f366004614547565b6106ae565b005b34801561026257600080fd5b50610276610271366004614547565b610713565b6040516001600160a01b039091168152602001610209565b34801561029a57600080fd5b506102546102a936600461457c565b61073a565b3480156102ba57600080fd5b506102276102c9366004614547565b610778565b6102546108ef565b3480156102e257600080fd5b506008545b604051908152602001610209565b34801561030157600080fd5b506102546103103660046145a6565b61098b565b34801561032157600080fd5b506102e761033036600461457c565b610a0c565b34801561034157600080fd5b506102546103503660046145a6565b610ab4565b34801561036157600080fd5b506102e7610370366004614547565b610acf565b34801561038157600080fd5b50610276610390366004614547565b610b73565b3480156103a157600080fd5b506102546103b0366004614547565b610b7e565b3480156103c157600080fd5b506102e76103d03660046145e2565b610b8b565b3480156103e157600080fd5b50610254610b96565b3480156103f657600080fd5b506102e7600c5481565b34801561040c57600080fd5b506101fd61041b366004614547565b600a6020526000908152604090205460ff1681565b34801561043c57600080fd5b5061025461044b366004614547565b610ba8565b34801561045c57600080fd5b5061022761046b3660046146b3565b610bb5565b34801561047c57600080fd5b50600b546001600160a01b0316610276565b34801561049a57600080fd5b50610227610bed565b3480156104af57600080fd5b506102546104be366004614786565b610bfc565b3480156104cf57600080fd5b506102276104de366004614547565b610c07565b3480156104ef57600080fd5b506102276104fe3660046146b3565b610c38565b34801561050f57600080fd5b5061025461051e3660046147b9565b6130f6565b34801561052f57600080fd5b506102e7600e5481565b34801561054557600080fd5b50610227610554366004614547565b613174565b34801561056557600080fd5b506102e7600d5481565b34801561057b57600080fd5b506101fd61058a366004614879565b6001600160a01b03918216600090815260056020908152604080832093909416825291909152205460ff1690565b3480156105c457600080fd5b506102546105d33660046145e2565b61317f565b60006001600160e01b031982167f780e9d6300000000000000000000000000000000000000000000000000000000148061061657506106168261320f565b92915050565b60606000805461062b906148a3565b80601f0160208091040260200160405190810160405280929190818152602001828054610657906148a3565b80156106a45780601f10610679576101008083540402835291602001916106a4565b820191906000526020600020905b81548152906001019060200180831161068757829003601f168201915b5050505050905090565b326106b882610b73565b6001600160a01b0316146106f8576040517f30cd747100000000000000000000000000000000000000000000000000000000815260040160405180910390fd5b6000908152600a60205260409020805460ff19166001179055565b600061071e826132aa565b506000908152600460205260409020546001600160a01b031690565b6000818152600a602052604090205460ff161561076a57604051631267838f60e11b815260040160405180910390fd5b610774828261330e565b5050565b606060007368AD5E2e4709849e1730aFF98C9b78648EF2752d6343e3b108847368AD5E2e4709849e1730aFF98C9b78648EF2752d638f6aa355876040518263ffffffff1660e01b81526004016107d091815260200190565b602060405180830381865af41580156107ed573d6000803e3d6000fd5b505050506040513d601f19601f8201168201806040525081019061081191906148dd565b6040516001600160e01b031960e085901b168152600481019290925263ffffffff166024820152600060448201819052606482015260840161012060405180830381865af4158015610867573d6000803e3d6000fd5b505050506040513d601f19601f8201168201806040525081019061088b9190614919565b9050600061089d848360006001610bb5565b6040516020016108ad91906149b0565b60405160208183030381529060405290506108c78161343a565b6040516020016108d791906149cc565b60405160208183030381529060405292505050919050565b600e5434101561092b576040517ff63c533c00000000000000000000000000000000000000000000000000000000815260040160405180910390fd5b600c805490600061093b83614a27565b9190505550600d54600c541061097d576040517fd05cb60900000000000000000000000000000000000000000000000000000000815260040160405180910390fd5b61098933600c5461358d565b565b61099533826135a7565b6109fc5760405162461bcd60e51b815260206004820152602d60248201527f4552433732313a2063616c6c6572206973206e6f7420746f6b656e206f776e6560448201526c1c881bdc88185c1c1c9bdd9959609a1b60648201526084015b60405180910390fd5b610a07838383613625565b505050565b6000610a1783613838565b8210610a8b5760405162461bcd60e51b815260206004820152602b60248201527f455243373231456e756d657261626c653a206f776e657220696e646578206f7560448201527f74206f6620626f756e647300000000000000000000000000000000000000000060648201526084016109f3565b506001600160a01b03919091166000908152600660209081526040808320938352929052205490565b610a07838383604051806020016040528060008152506130f6565b6000610ada60085490565b8210610b4e5760405162461bcd60e51b815260206004820152602c60248201527f455243373231456e756d657261626c653a20676c6f62616c20696e646578206f60448201527f7574206f6620626f756e6473000000000000000000000000000000000000000060648201526084016109f3565b60088281548110610b6157610b61614a40565b90600052602060002001549050919050565b6000610616826138d2565b610b86613937565b600d55565b600061061682613838565b610b9e613937565b6109896000613991565b610bb0613937565b600e55565b6060610bc385858585610c38565b604051602001610bd39190614a56565b60405160208183030381529060405290505b949350505050565b60606001805461062b906148a3565b6107743383836139f0565b6060610c1282613abe565b604051602001610c229190614ae8565b6040516020818303038152906040529050919050565b6040517f3c673e000000000000000000000000000000000000000000000000000000000060208201527f3c7376672069643d2273696c686f7565747465222076657273696f6e3d22312e60238201527f302220786d6c6e733d22687474703a2f2f7777772e77332e6f72672f3230303060438201527f2f737667222077696474683d2235313222206865696768743d2235313222207660638201527f696577426f783d2230203020313237392031323830223e3c7061746820643d2260838201527f4d383836202e36632d312e342e322d352e392e392d313020312e352d32332e3960a38201527f20332e332d35312e372031342e372d37372e362033312e372d32352e3320313660c38201527f2e372d34342e332033322e352d38312e392036382e322d32382e392032372e3460e38201527f2d34302e372033372e382d35342e322034372e392d35312e392033382e362d316101038201527f32352e372036352e382d3234342e332039302e316c2d31352e3620332e322d386101238201527f2e392d352e38632d35352e332d33352e372d3131332e312d36322d3137362e376101438201527f2d38302e342d31392e352d352e372d34372e372d31322e322d36322e382d31346101638201527f2e362d31322e352d312e392d33372e382d322e322d34372d2e352d33392e36206101838201527f372e332d36312033342e342d36362038332e362d312e372031352e382d2e38206101a38201527f34382e3920322037352e3520392e342039312e372032392e31203137332e32206101c38201527f36322e35203235392e352031332033332e362031352e352034322e382031352e6101e38201527f352035362e382d2e312031332e332d342e372032332e382d31362e372033372e6102038201527f382d322e3620332e312d31312e372031322e392d32302032312e382d382e34206102238201527f382e392d31392e332032312e362d32342e322032382e312d33322e372034332e6102438201527f342d35312e352039352e372d35382e33203136322d312e372031362e342d312e6102638201527f372037312e3320302038392e3520342e312034342e362031302e322038302e376102838201527f2032322e382031333620372e352033322e3520382e322033362e3320313020346102a38201527f3920312e3820313320342e362031392e372031302e332032352e3120332e33206102c38201527f332e322031332e3920382e392031342e382038202e322d2e312d312e352d352e6102e38201527f362d332e372d31322e322d33332e312d39382e312d34362e372d3231392e332d6103038201527f33342e352d3330362e3920362e332d34342e392031382d37392e342033362e346103238201527f2d3130362e3620382e342d31322e352031352e352d32302e362032342e392d326103438201527f382e332034312e372d33342039352e382d33352e32203135392e322d332e35206103638201527f37332e312033362e36203132322e392039322e37203133362e35203135332e396103838201527f20322e362031312e3820332e312033372e3520312035302e312d382e312034386103a38201527f2e342d34302e342038342e372d38362e332039372e312d31322e3120332e332d6103c38201527f33372e3320332e372d3532202e392d34352e382d382e382d38352e382d34302e6103e38201527f392d3130362e382d38352e372d322e352d352e352d362e322d31332e312d382d6104038201527f31372e312d362e342d31332e352d31372d31392e342d32322e342d31322e352d6104238201527f3520362e322d2e342032372e322031302e362034382e3220382e3320313620316104438201527f372e342032382033322e342034332e312032322e382032322e392034352e37206104638201527f33352e392037352e352034322e372031332e3820332e322032352e3920342e326104838201527f2036342e3520352e322033372e3420312034352e3920312e392036302e3320366104a38201527f2e352031312e3520332e372032312e3820382e372033322e362031352e3920316104c38201527f332e3320382e392032322e322031362e352034372e362034302e362032352e316104e38201527f2032332e382033342e332033312e372034362e392034302e322031312e3820376105038201527f2e392032312e392031322e392033342e372031372e3120392e3420332e3220316105238201527f382e3820352e322036302e392031332e322034302e3420372e382036322e36206105438201527f31392e362037372e352034312e346c342e3620362e382d322e3520382e39632d6105638201527f362e372032342e312d392e372033382e332d382e372034302e3320312e3220326105838201527f2e322031302e3720362e312031352e3120362e3120352e38203020362e362d316105a38201527f2e372031332d32372e3320382e362d33352031312e382d34332e372032302e366105c38201527f2d35362e382031312d31362e342032312d32382e372033342e382d34322e35206105e38201527f33392e342d33392e322038382e322d36342e36203133362e332d37302e3920366106038201527f312e312d38203131372e352032302e31203134382e322037342031332e3220326106238201527f332e322031392e362034382e322031382e392037342e336c2d2e332031332e326106438201527f203320312e3263392e3620342032322e312d322e372032362e312d31332e39206106638201527f312e382d352e3220312e372d32302e392d2e322d33312e382d342e372d32372e6106838201527f322d32322e332d36332e382d34332e312d38392e352d362e312d372e352d32326106a38201527f2e312d32332e352d33322d33326c2d352e332d342e352032332e362d34312e356106c38201527f6337302e372d3132342e352037362e392d3133342e372038362e342d3134332e6106e38201527f3320392e342d382e352032312e392d31302e392033332e372d362e3520372e386107038201527f20322e382031382e352031332e362032332e312032322e3920392e362031392e6107238201527f3720382e322033362e352d362e332037362e372d31312e362033322e352d31346107438201527f2e312034362d31332e32203732202e382032352e3720362e312034372e3120316107638201527f372e372037312e312031342e392033302e372033352e392035352e322036322e6107838201527f382037332e322031322e3320382e332032332e352031332e372033372e3920316107a38201527f382e3520313820362e312032372e3220342e382033332e382d342e356c332d346107c38201527f2e332d2e322d32332e36632d2e342d36352e392d31362e382d3133342e382d346107e38201527f372e322d3139372e372d31302e332d32312e332d31392d33362e352d33322e366108038201527f2d35372d31332e382d32302e372d32342e332d33342e322d34352e362d35382e6108238201527f352d31392e352d32322e332d32372e352d33332e332d33342d34362e352d362e6108438201527f362d31332e362d382e392d32332e372d382e392d33392e3520302d313620312e6108638201527f362d32352e3320392e342d35362e332031302e342d34302e372031342e312d366108838201527f332e332031352e352d39332e3920322e322d35302e312d352d39362d32332e396108a38201527f2d3135312d332e332d392e372d31322e382d33342e362d32312e312d35352e356108c38201527f2d33362e342d39312e332d34312e312d3131312e322d34352e342d3139332e336108e38201527f2d322e342d34372e322d342e332d36382e342d372e362d38382d372e392d34376109038201527f2e312d32352e312d38342e322d35302e382d3131302e312d31382e352d31382e6109238201527f352d33372e372d32392e322d36322e332d33342e352d372d312e352d33322e366109438201527f2d322e372d33372e382d312e387a6d33312033382e396334312e382031352e346109638201527f2037362e342036382e342039302e39203133392e312031302e382035322e38206109838201527f382e35203130332e382d362e39203134382e382d332e3320392e392d332e38206109a38201527f31352e362d312e35203230202e3820312e3520352e3720382e352031302e39206109c38201527f31352e352035362e342037362e322037342e32203132302e33203835203231316109e38201527f2e3120362e312035312e3120352e342039362d322e35203135332d342e352033610a038201527f322e352d31332e352037302e342d31392e352038322e312d2e3720312e352d35610a238201527f2031332e342d392e352032362e352d342e342031332e312d31302e332032382e610a438201527f382d31332033342e392d31392e342034332e332d35302037392e372d39342e32610a638201527f203131312e382d32332e342031372e312d34342e372032392e312d38382e3320610a838201527f34392e382d3130342e392034392e382d3134382036342e392d3139392e382037610aa38201527f302d31372e3520312e372d35362e342e362d37332e362d322d33372d352e382d610ac38201527f37392e322d31382e312d3132342e352d33362e332d34352e382d31382e342d39610ae38201527f322e392d34312e392d39372e312d34382e332d322e342d332e372d312e312d36610b038201527f2e3720352e352d31322e3420332e332d322e3920382e332d382e342031312e32610b238201527f2d31322e3473372e332d392e3920392e372d31332e3263352e342d372e322031610b438201527f302e352d31372e382031322e372d323620322e332d382e3420332d32392e3120610b638201527f312e362d34312e312d312e382d31342e312d352e342d33302e352d31312e362d610b838201527f35322e362d31322e322d34332e392d32312e382d36342e382d33382e362d3834610ba38201527f2e382d332d332e362d372e372d392e342d31302e342d31332d322e382d332e36610bc38201527f2d372e382d392e362d31312e322d31332e332d392e362d31302e352d392e362d610be38201527f31322e362e312d32332e3820332e352d342e312031302d31312e362031342e35610c038201527f2d31362e382032312e392d32352e342033382e392d35312e342036372e352d31610c238201527f30332e342032372e372d35302e322033372e362d38372034342e352d3136352e610c438201527f3220342d34342e3420332e372d36332e312d312e332d38322e392d342e342d31610c638201527f372e322d31362e332d34332e382d32342e322d35342e322d342e392d362e342d610c838201527f362e342d392e382d362e342d31342e3920302d342e312e352d352e3120342e35610ca38201527f2d392e3420392e352d31302e322032372e362d31362e382038312e352d32392e610cc38201527f392033382d392e332038392e382d31372e37203131372e352d31392e31203130610ce38201527f2e322d2e352031352d312e322031372e372d322e3520362e382d332e33203138610d038201527f2e382d31372e322033322e332d33372e3420372e312d31302e362031362e352d610d238201527f32332e372032302e392d32392031302e342d31322e352033382e312d34302e37610d438201527f2035302e382d35322033362d33312e362038382e312d36322e31203131372e35610d638201527f2d36382e362031302e392d322e352032372e392d312e362033372e3320312e39610d838201527f7a6d2d3736312e38203230386331322e3820322e3220323620362e392033392e610da38201527f382031342e322034332e392032332e312036332e342034352e34203639203739610dc38201527f2e3320332e322031382e382d332033382e352d31382e342035392d31322e3320610de38201527f31362e342d34322e322034322e362d35362e362034392e372d31372e3320382e610e038201527f352d33302e3320312d34372e322d32372e332d31342e362d32342e352d32352e610e238201527f352d34382e342d33322e322d37302e372d342e342d31342e352d31322e322d34610e438201527f392e322d31332e362d36302e312d322e392d32332e3320382d34302e36203238610e638201527f2d34342e3520372e322d312e342032322d312e322033312e322e347a222f3e3c610e838201527f7061746820643d224d3838352e312039372e31632d372e3120312e322d32312e610ea38201527f3620362e312d32382e3820392e382d32352e392031332e312d35332e35203339610ec38201527f2e312d37362e362037322e342d31332e372031392e362d31382e372033302e38610ee38201527f2d31382e372034312e3920302031332e3220362e392032302e362032372e3520610f038201527f32392e33203520322e312032352e322031312e392034342e392032312e382031610f238201527f392e3820392e382033382e372031392034322032302e322031372e3720362e36610f438201527f2033342e3220372e322034362e3120312e372032322e312d31302e342033332e610f638201527f362d34312e342033322e322d38372e322d2e362d31392d322e312d32392e342d610f838201527f382e362d35382e352d342e342d31392e362d352e352d32332e352d392e362d33610fa38201527f312e342d382e352d31362e382d32362e352d32332e392d35302e342d32307a6d610fc38201527f362e342033342e3263362e3420362e372031302e312031382e322031372e3920610fe38201527f35342e3720342e372032322e3320362e372033392e3320362e392035382e362e6110038201527f322031342e3620302031362e342d312e372031382e332d332e3720342e312d316110238201527f312e3420322e342d33332e352d372d32312d392d33382e322d31392e332d35376110438201527f2e362d33342e342d31362e332d31322e372d31392e342d31382e382d31342e326110638201527f2d32382e3420332e372d372032352e362d33352033352d34342e382031332e386110838201527f2d31342e332032362d32312e322033372e362d32312e3320352e31203020352e6110a38201527f372e3320392e3620342e337a6d2d312e39203434312e32632d332e3320312e336110c38201527f2d313120352e382d313720392e382d362e3120342e312d31352031302d31392e6110e38201527f372031332e312d392e3820362e332d31382e352031352e322d32322032322e336111038201527f2d332e3520372e322d332e382031372e342d2e372032332e3220332e3620362e6111238201527f3820382e372031302e332031352e332031302e3920352e332e3420352e372e336111438201527f20382e392d332e3220322e332d322e3420342e382d372e3220372e362d31342e6111638201527f3320362e392d31382031312e392d32342032362d33302e362031312e332d352e6111838201527f342031372e372d342e322032392e3420352e3520332e3220322e3720372e33206111a38201527f352e36203920362e3620342e3220322e322031342e3120322e322031382e342d6111c38201527f2e3120362e392d332e3720392e322d31322e3920352e332d32302e362d332d356111e38201527f2e382d31322e332d31332e372d32312e352d31382e312d31352e362d372e352d6112038201527f32382e322d392d33392d342e357a6d3131302e39203936632d31332e3320322e6112238201527f332d34352e352031322e392d35362e372031382e362d342e3720322e342d372e6112438201527f3820362e342d372e382031302e31203020332e3920332e3220313020372031336112638201527f2e3220352e3120342e3220392e3920332e362032332e332d322e3920392e382d6112838201527f342e382031322e362d352e372032322e322d372e3120382e362d312e322031326112a38201527f2e362d322e342031382e342d352e3220382e352d342e3320392e322d352e35206112c38201527f392e352d31352e392e312d362d2e322d372e352d312e392d392e312d322e382d6112e38201527f322e382d362d332e312d31342d312e377a4d343936203639332e36632d312e346113038201527f2e322d352e322e392d382e3520312e352d31342e3320322e352d32382e3920316113238201527f332e312d33382e392032382e322d31342e362032322e322d31352e372033302e6113438201527f392d342e362033382e3420342e3420332e312031302e3620332031352e3120306113638201527f20322e312d312e3420342e392d3520372e342d392e3720352e322d392e3720316113838201527f382e362d32332e362032362e362d32372e342031312e352d352e352032312e366113a38201527f2d352e332033372e392e392031302e3920342e3120313620342e342032322e316113c38201527f20312e3220382e342d342e3520392d31302e3920312e382d31392e312d362e316113e38201527f2d372d31312e332d392e312d32382e392d31322d392e332d312e362d32362e316114038201527f2d322e372d33302d327a6d3530382e352033352e31632d33332e3220392d33336114238201527f2e3620392e322d33372e312031322e382d332e3420332e372d342e3920382e376114438201527f2d332e342031312e352e35203120322e3420322e3320342e3120322e3920352e6114638201527f3820322031312e3420312e332032322e362d3320392e392d332e382031312e376114838201527f2d342e312032322e332d342e352031342e362d2e352032342e342d322e3120326114a38201527f362e332d342e3220342d342e3520332e322d31322e352d312e382d31372e372d6114c38201527f322e392d332e312d332e382d332e352d382e312d332e342d322e372e312d31336114e38201527f2e3920322e362d32342e3920352e367a6d2d3237382e3220332e38632d32362e6115038201527f3120342e372d34392e332031392e352d36322e332033392e362d362e3320392e6115238201527f382d372e372031382e362d342e312032362e3420342e3220392031332e3220316115438201527f342e322033312e382031382e312032362e3720352e362033312e3620372e34206115638201527f33332e322031312e3720312e3920342e3920362e322033382e3920362e3220346115838201527f39203020392e362d2e342031312e372d332e372032312e372d352e382031372e6115a38201527f362d31322e332032352e382d32342e362033312e352d31392e3320382e382d346115c38201527f332e3320322e382d36332e362d31352e392d352e312d342e362d31302e382d396115e38201527f2d31322e372d392e362d352e332d312e382d392e382e382d31332e3120372e366116038201527f2d322e3320342e382d322e3620362e332d322e322031322e342e382031312e336116238201527f20372e322031392e362032302e332032362e322031352e3820382e312033322e6116438201527f372031312e332035342e342031302e352032382e362d312034332e312d382e336116638201527f2035322e332d323620372e372d31342e382031352e392d32332e362032342e326116838201527f2d32352e3820332e362d3120342e392d2e392031302e3620312e3220352e39206116a38201527f322e3220382e3420322e3420323620322e372031302e372e322032352e332d2e6116c38201527f312033322e342d2e372031352e362d312e332032302e342d332e322032392e356116e38201527f2d31312e3720332e352d332e322031302e372d392e352031352e392d31332e396117038201527f2031322e372d31302e362031332e382d31322e382031362e342d33332e3120316117238201527f2e322d392e3220312e372d31372e3520312e332d32302e312d2e382d352e352d6117438201527f352e312d31302e362d31302e332d31322e312d352e332d312e362d31352e352d6117638201527f312e352d31392e352e322d362e3220322e362d3720342e352d372e382031372e6117838201527f392d2e392031332e362d332e372032362e322d372033302e392d3320342e322d6117a38201527f31302e3120382e352d31382e342031312e312d382e3920322e382d32362e36206117c38201527f332d33362e352e342d31352e312d342d32372e312d31322e382d33302e342d326117e38201527f322e322d2e382d322e362d322d392e332d322e372d31342e392d322e312d31386118038201527f2e3920312d33312e372031322e392d35332e342031312e362d32302e392031336118238201527f2e352d32352e352031342d33342e312e332d372e312e322d372e392d322e362d6118438201527f31322e332d352e382d392d32322e362d31342e382d34322e322d31342e372d356118638201527f2e3820302d31332e372e372d31372e3720312e347a6d3235362e352037332e366118838201527f632d342e3420312e332d382e3820362d382e3820392e352030203420322e35206118a38201527f382e3820362e312031312e3820332e3220322e3720332e3620322e3820392e396118c38201527f20322031342e322d312e382031382d312e322032382e3220332e3973313420356118e38201527f2e372031392e3320332e3163342e332d322031332e352d31312e372031332e356119038201527f2d31342e3220302d352e362d392e392d31312e312d32352e372d31342e332d316119238201527f312e352d322e332d33362e392d332e342d34322e352d312e387a6d2d3439372e6119438201527f33203133632d31372e3120352e392d33382e342031382e382d34372e382032386119638201527f2e392d352e3620362d382e362031322e332d372e342031352e3420312e3120326119838201527f2e3920352e3720332e392031312e3420322e3820362e382d312e342035302e356119a38201527f2d31392e362035362e362d32332e3620362e382d342e3520372e362d31362e386119c38201527f20312e352d32332e342d322e372d322e382d362e342d322e382d31342e332d2e6119e38201527f317a6d2d322e352036332e36632d312e342e322d3620312e352d31302e322032611a038201527f2e392d31392e3520362e342d33342032322e352d33302e382033342e3320312e611a238201527f3420352e3220362e322031302e382031302e312031312e3620342e3320312031611a438201527f322e352d332e332031382e352d392e3620322e372d322e3820352e382d352e36611a638201527f20362e392d362e3220312e322d2e3620372e312d312e312031342d312e322031611a838201527f302e3420302031322e362d2e342031362e322d322e3320372d332e3720382e38611aa38201527f2d392e3320352e342d31362e372d342e362d31302e322d31362e322d31352e31611ac38201527f2d33302e312d31322e387a6d31322e352036342e32632d342e3620322e312d31611ae38201527f302e3620372e372d32322e372032312e352d31312e372031332e312d31332e32611b038201527f2031392e312d362e362032352e3620382e3920382e392032362e3120342e3120611b238201527f33352e342d313020332e352d352e3220362e312d362e372031342e342d382e35611b438201527f2031332e392d322e392031382d362e322031382d31342e3620302d352e372d31611b638201527f2e382d382d382e352d31302e392d342e372d322d31382e382d352d32332e342d611b838201527f352d312e3420302d342e342e392d362e3620312e397a4d3330302e3320383332611ba38201527f2e35632d332e3420312e352d332e3720322e332d332e3320392e352e3520392e611bc38201527f3420372e312032312e3220313820333220382e3620382e372031352e33203132611be38201527f2e352032302e312031312e3520342e322d2e3920392e352d352e392031302e39611c038201527f2d313020312e352d342e362e332d382e332d352e392d31372e372d392e352d31611c238201527f342e352d31382e322d32322d32392d32352e322d362e352d312e392d362e372d611c438201527f312e392d31302e382d2e317a6d2d36362e322032382e31632d312e332e392d32611c638201527f2e3920332e322d332e3720352d322e3520362d312e3920372e3820342e372031611c838201527f332e362037203620392e392031302e362031332e332032302e3520342e352031611ca38201527f332e3120382e312031352e392031382e382031342e3720382e332d2e39203130611cc38201527f2e322d322e3920392e352d392e382d312d392e342d352e332d31382e392d3131611ce38201527f2e382d32362d392e382d31302e372d32322e322d31392e362d32372e312d3139611d038201527f2e362d2e3820302d322e342e372d332e3720312e367a6d2d36352e372033312e611d238201527f39632d322e3620342d312e342031302e3420332e342031372e3720352e362038611d438201527f2e3720382e372031352e372031312e362032362e3720312e3420352e3220332e611d638201527f332031302e3220342e312031312031203120332e3320312e3620362e3120312e611d838201527f362034203020352d2e3520372e392d332e3620382e332d392e3120332e382d32611da38201527f392d31302d34332e382d31302e382d31312e352d31392e352d31352e312d3233611dc38201527f2e312d392e367a222f3e3c2f7376673e00000000000000000000000000000000611de38201527f3c2f673e00000000000000000000000000000000000000000000000000000000611df3820152606090611df701610bd3565b61310033836135a7565b6131625760405162461bcd60e51b815260206004820152602d60248201527f4552433732313a2063616c6c6572206973206e6f7420746f6b656e206f776e6560448201526c1c881bdc88185c1c1c9bdd9959609a1b60648201526084016109f3565b61316e84848484613b5e565b50505050565b606061061682613bdc565b613187613937565b6001600160a01b0381166132035760405162461bcd60e51b815260206004820152602660248201527f4f776e61626c653a206e6577206f776e657220697320746865207a65726f206160448201527f646472657373000000000000000000000000000000000000000000000000000060648201526084016109f3565b61320c81613991565b50565b60006001600160e01b031982167f80ac58cd00000000000000000000000000000000000000000000000000000000148061327257506001600160e01b031982167f5b5e139f00000000000000000000000000000000000000000000000000000000145b8061061657507f01ffc9a7000000000000000000000000000000000000000000000000000000006001600160e01b0319831614610616565b6000818152600260205260409020546001600160a01b031661320c5760405162461bcd60e51b815260206004820152601860248201527f4552433732313a20696e76616c696420746f6b656e204944000000000000000060448201526064016109f3565b6000613319826138d2565b9050806001600160a01b0316836001600160a01b0316036133a25760405162461bcd60e51b815260206004820152602160248201527f4552433732313a20617070726f76616c20746f2063757272656e74206f776e6560448201527f720000000000000000000000000000000000000000000000000000000000000060648201526084016109f3565b336001600160a01b03821614806133be57506133be813361058a565b6134305760405162461bcd60e51b815260206004820152603d60248201527f4552433732313a20617070726f76652063616c6c6572206973206e6f7420746f60448201527f6b656e206f776e6572206f7220617070726f76656420666f7220616c6c00000060648201526084016109f3565b610a078383613c44565b6060815160000361345957505060408051602081019091526000815290565b6000604051806060016040528060408152602001614dab60409139905060006003845160026134889190614ba0565b6134929190614bb3565b61349d906004614bd5565b67ffffffffffffffff8111156134b5576134b56145fd565b6040519080825280601f01601f1916602001820160405280156134df576020820181803683370190505b509050600182016020820185865187015b8082101561354b576003820191508151603f8160121c168501518453600184019350603f81600c1c168501518453600184019350603f8160061c168501518453600184019350603f81168501518453506001830192506134f0565b5050600386510660018114613567576002811461357a57613582565b603d6001830353603d6002830353613582565b603d60018303535b509195945050505050565b610774828260405180602001604052806000815250613cbf565b6000806135b3836138d2565b9050806001600160a01b0316846001600160a01b031614806135fa57506001600160a01b0380821660009081526005602090815260408083209388168352929052205460ff165b80610be55750836001600160a01b031661361384610713565b6001600160a01b031614949350505050565b826001600160a01b0316613638826138d2565b6001600160a01b03161461369c5760405162461bcd60e51b815260206004820152602560248201527f4552433732313a207472616e736665722066726f6d20696e636f72726563742060448201526437bbb732b960d91b60648201526084016109f3565b6001600160a01b0382166137175760405162461bcd60e51b8152602060048201526024808201527f4552433732313a207472616e7366657220746f20746865207a65726f2061646460448201527f726573730000000000000000000000000000000000000000000000000000000060648201526084016109f3565b6137248383836001613d3d565b826001600160a01b0316613737826138d2565b6001600160a01b03161461379b5760405162461bcd60e51b815260206004820152602560248201527f4552433732313a207472616e736665722066726f6d20696e636f72726563742060448201526437bbb732b960d91b60648201526084016109f3565b6000818152600460209081526040808320805473ffffffffffffffffffffffffffffffffffffffff199081169091556001600160a01b0387811680865260038552838620805460001901905590871680865283862080546001019055868652600290945282852080549092168417909155905184937fddf252ad1be2c89b69c2b068fc378daa952ba7f163c4a11628f55a4df523b3ef91a4505050565b60006001600160a01b0382166138b65760405162461bcd60e51b815260206004820152602960248201527f4552433732313a2061646472657373207a65726f206973206e6f74206120766160448201527f6c6964206f776e6572000000000000000000000000000000000000000000000060648201526084016109f3565b506001600160a01b031660009081526003602052604090205490565b6000818152600260205260408120546001600160a01b0316806106165760405162461bcd60e51b815260206004820152601860248201527f4552433732313a20696e76616c696420746f6b656e204944000000000000000060448201526064016109f3565b600b546001600160a01b031633146109895760405162461bcd60e51b815260206004820181905260248201527f4f776e61626c653a2063616c6c6572206973206e6f7420746865206f776e657260448201526064016109f3565b600b80546001600160a01b0383811673ffffffffffffffffffffffffffffffffffffffff19831681179093556040519116919082907f8be0079c531659141344cd1fd0a4f28419497f9722a3daafe3b4186f6b6457e090600090a35050565b816001600160a01b0316836001600160a01b031603613a515760405162461bcd60e51b815260206004820152601960248201527f4552433732313a20617070726f766520746f2063616c6c65720000000000000060448201526064016109f3565b6001600160a01b03838116600081815260056020908152604080832094871680845294825291829020805460ff191686151590811790915591519182527f17307eab39ab6107e8899845ad3d59bd9653f200f220920489ca2b5937696c31910160405180910390a3505050565b60606000613acb83613d79565b600101905060008167ffffffffffffffff811115613aeb57613aeb6145fd565b6040519080825280601f01601f191660200182016040528015613b15576020820181803683370190505b5090508181016020015b600019017f3031323334353637383961626364656600000000000000000000000000000000600a86061a8153600a8504945084613b1f57509392505050565b613b69848484613625565b613b7584848484613e5b565b61316e5760405162461bcd60e51b815260206004820152603260248201527f4552433732313a207472616e7366657220746f206e6f6e20455243373231526560448201527131b2b4bb32b91034b6b83632b6b2b73a32b960711b60648201526084016109f3565b60606000613be983610c07565b613bf284610778565b604051602001613c03929190614bec565b6040516020818303038152906040529050613c1d8161343a565b604051602001613c2d9190614ce3565b604051602081830303815290604052915050919050565b6000818152600460205260409020805473ffffffffffffffffffffffffffffffffffffffff19166001600160a01b0384169081179091558190613c86826138d2565b6001600160a01b03167f8c5be1e5ebec7d5bd14f71427d1e84f3dd0314c0f7b2291e5b200ac8c7c3b92560405160405180910390a45050565b613cc98383613fa4565b613cd66000848484613e5b565b610a075760405162461bcd60e51b815260206004820152603260248201527f4552433732313a207472616e7366657220746f206e6f6e20455243373231526560448201527131b2b4bb32b91034b6b83632b6b2b73a32b960711b60648201526084016109f3565b6000828152600a602052604090205460ff1615613d6d57604051631267838f60e11b815260040160405180910390fd5b61316e8484848461414a565b6000807a184f03e93ff9f4daa797ed6e38ed64bf6a1f0100000000000000008310613dc2577a184f03e93ff9f4daa797ed6e38ed64bf6a1f010000000000000000830492506040015b6d04ee2d6d415b85acef81000000008310613dee576d04ee2d6d415b85acef8100000000830492506020015b662386f26fc100008310613e0c57662386f26fc10000830492506010015b6305f5e1008310613e24576305f5e100830492506008015b6127108310613e3857612710830492506004015b60648310613e4a576064830492506002015b600a83106106165760010192915050565b60006001600160a01b0384163b15613f9c57604051630a85bd0160e11b81526001600160a01b0385169063150b7a0290613e9f903390899088908890600401614d28565b6020604051808303816000875af1925050508015613eda575060408051601f3d908101601f19168201909252613ed791810190614d64565b60015b613f82573d808015613f08576040519150601f19603f3d011682016040523d82523d6000602084013e613f0d565b606091505b508051600003613f7a5760405162461bcd60e51b815260206004820152603260248201527f4552433732313a207472616e7366657220746f206e6f6e20455243373231526560448201527131b2b4bb32b91034b6b83632b6b2b73a32b960711b60648201526084016109f3565b805181602001fd5b6001600160e01b031916630a85bd0160e11b149050610be5565b506001610be5565b6001600160a01b038216613ffa5760405162461bcd60e51b815260206004820181905260248201527f4552433732313a206d696e7420746f20746865207a65726f206164647265737360448201526064016109f3565b6000818152600260205260409020546001600160a01b03161561405f5760405162461bcd60e51b815260206004820152601c60248201527f4552433732313a20746f6b656e20616c7265616479206d696e7465640000000060448201526064016109f3565b61406d600083836001613d3d565b6000818152600260205260409020546001600160a01b0316156140d25760405162461bcd60e51b815260206004820152601c60248201527f4552433732313a20746f6b656e20616c7265616479206d696e7465640000000060448201526064016109f3565b6001600160a01b0382166000818152600360209081526040808320805460010190558483526002909152808220805473ffffffffffffffffffffffffffffffffffffffff19168417905551839291907fddf252ad1be2c89b69c2b068fc378daa952ba7f163c4a11628f55a4df523b3ef908290a45050565b61415684848484614292565b60018111156141cd5760405162461bcd60e51b815260206004820152603560248201527f455243373231456e756d657261626c653a20636f6e736563757469766520747260448201527f616e7366657273206e6f7420737570706f72746564000000000000000000000060648201526084016109f3565b816001600160a01b0385166142295761422481600880546000838152600960205260408120829055600182018355919091527ff3f7a9fe364faab93b216da50a3214154f22a0a2b415b23a84c8169e8b636ee30155565b61424c565b836001600160a01b0316856001600160a01b03161461424c5761424c858261431a565b6001600160a01b03841661426857614263816143b7565b61428b565b846001600160a01b0316846001600160a01b03161461428b5761428b8482614466565b5050505050565b600181111561316e576001600160a01b038416156142d8576001600160a01b038416600090815260036020526040812080548392906142d2908490614d81565b90915550505b6001600160a01b0383161561316e576001600160a01b0383166000908152600360205260408120805483929061430f908490614ba0565b909155505050505050565b6000600161432784613838565b6143319190614d81565b600083815260076020526040902054909150808214614384576001600160a01b03841660009081526006602090815260408083208584528252808320548484528184208190558352600790915290208190555b5060009182526007602090815260408084208490556001600160a01b039094168352600681528383209183525290812055565b6008546000906143c990600190614d81565b600083815260096020526040812054600880549394509092849081106143f1576143f1614a40565b90600052602060002001549050806008838154811061441257614412614a40565b600091825260208083209091019290925582815260099091526040808220849055858252812055600880548061444a5761444a614d94565b6001900381819060005260206000200160009055905550505050565b600061447183613838565b6001600160a01b039093166000908152600660209081526040808320868452825280832085905593825260079052919091209190915550565b6001600160e01b03198116811461320c57600080fd5b6000602082840312156144d257600080fd5b81356144dd816144aa565b9392505050565b60005b838110156144ff5781810151838201526020016144e7565b50506000910152565b600081518084526145208160208601602086016144e4565b601f01601f19169290920160200192915050565b6020815260006144dd6020830184614508565b60006020828403121561455957600080fd5b5035919050565b80356001600160a01b038116811461457757600080fd5b919050565b6000806040838503121561458f57600080fd5b61459883614560565b946020939093013593505050565b6000806000606084860312156145bb57600080fd5b6145c484614560565b92506145d260208501614560565b9150604084013590509250925092565b6000602082840312156145f457600080fd5b6144dd82614560565b634e487b7160e01b600052604160045260246000fd5b604051610120810167ffffffffffffffff81118282101715614637576146376145fd565b60405290565b604051601f8201601f1916810167ffffffffffffffff81118282101715614666576146666145fd565b604052919050565b61ffff8116811461320c57600080fd5b80356145778161466e565b60ff8116811461320c57600080fd5b803561457781614689565b8035801515811461457757600080fd5b6000806000808486036101808112156146cb57600080fd5b8535945061012080601f19830112156146e357600080fd5b6146eb614613565b9150602087013582526147006040880161467e565b60208301526147116060880161467e565b604083015261472260808801614698565b606083015261473360a08801614698565b608083015260c087013560a083015260e087013560c08301526101008088013560e08401528188013581840152505080935050610140850135915061477b61016086016146a3565b905092959194509250565b6000806040838503121561479957600080fd5b6147a283614560565b91506147b0602084016146a3565b90509250929050565b600080600080608085870312156147cf57600080fd5b6147d885614560565b935060206147e7818701614560565b935060408601359250606086013567ffffffffffffffff8082111561480b57600080fd5b818801915088601f83011261481f57600080fd5b813581811115614831576148316145fd565b614843601f8201601f1916850161463d565b9150808252898482850101111561485957600080fd5b808484018584013760008482840101525080935050505092959194509250565b6000806040838503121561488c57600080fd5b61489583614560565b91506147b060208401614560565b600181811c908216806148b757607f821691505b6020821081036148d757634e487b7160e01b600052602260045260246000fd5b50919050565b6000602082840312156148ef57600080fd5b815163ffffffff811681146144dd57600080fd5b80516145778161466e565b805161457781614689565b6000610120828403121561492c57600080fd5b614934614613565b8251815261494460208401614903565b602082015261495560408401614903565b60408201526149666060840161490e565b60608201526149776080840161490e565b608082015260a083015160a082015260c083015160c082015260e083015160e08201526101008084015181830152508091505092915050565b600082516149c28184602087016144e4565b9190910192915050565b7f646174613a696d6167652f7376672b786d6c3b6261736536342c000000000000815260008251614a0481601a8501602087016144e4565b91909101601a0192915050565b634e487b7160e01b600052601160045260246000fd5b600060018201614a3957614a39614a11565b5060010190565b634e487b7160e01b600052603260045260246000fd5b7f3c7376672076696577426f783d2230203020353132203531322220786d6c6e7381527f3d22687474703a2f2f7777772e77332e6f72672f323030302f737667223e0000602082015260008251614ab481603e8501602087016144e4565b7f3c2f7376673e0000000000000000000000000000000000000000000000000000603e939091019283015250604401919050565b7f226e616d65223a202254776f204d6f6f6e7320536b7920436174202300000000815260008251614b2081601c8501602087016144e4565b7f222c000000000000000000000000000000000000000000000000000000000000601c9390910192830152507f226465736372697074696f6e223a202254776f204d6f6f6e7320536b79204361601e8201527f742053696c686f75747465220000000000000000000000000000000000000000603e820152604a01919050565b8082018082111561061657610616614a11565b600082614bd057634e487b7160e01b600052601260045260246000fd5b500490565b808202811582820484141761061657610616614a11565b7f7b00000000000000000000000000000000000000000000000000000000000000815260008351614c248160018501602088016144e4565b7f2c000000000000000000000000000000000000000000000000000000000000006001918401918201527f22696d616765223a20220000000000000000000000000000000000000000000060028201528351614c8781600c8401602088016144e4565b7f2200000000000000000000000000000000000000000000000000000000000000600c92909101918201527f7d00000000000000000000000000000000000000000000000000000000000000600d820152600e01949350505050565b7f646174613a6170706c69636174696f6e2f6a736f6e3b6261736536342c000000815260008251614d1b81601d8501602087016144e4565b91909101601d0192915050565b60006001600160a01b03808716835280861660208401525083604083015260806060830152614d5a6080830184614508565b9695505050505050565b600060208284031215614d7657600080fd5b81516144dd816144aa565b8181038181111561061657610616614a11565b634e487b7160e01b600052603160045260246000fdfe4142434445464748494a4b4c4d4e4f505152535455565758595a6162636465666768696a6b6c6d6e6f707172737475767778797a303132333435363738392b2fa26469706673582212203b614ca5ca6c6a6b14df732e747f64f831a60da72338920eae7cd8e9574872b564736f6c63430008120033",
  "deployedBytecode": "0x6080604052600436106101d85760003560e01c8063715018a611610102578063a574cea411610095578063c87b56dd11610064578063c87b56dd14610539578063d5abeb0114610559578063e985e9c51461056f578063f2fde38b146105b857600080fd5b8063a574cea4146104c3578063a5d5a10b146104e3578063b88d4fde14610503578063bdb4b8481461052357600080fd5b80638a8351ef116100d15780638a8351ef146104505780638da5cb5b1461047057806395d89b411461048e578063a22cb465146104a357600080fd5b8063715018a6146103d5578063771282f6146103ea5780637a181597146104005780638545f4ea1461043057600080fd5b806318160ddd1161017a5780634f6ccce7116101495780634f6ccce7146103555780636352211e146103755780636f8b44b01461039557806370a08231146103b557600080fd5b806318160ddd146102d657806323b872dd146102f55780632f745c591461031557806342842e0e1461033557600080fd5b8063081812fc116101b6578063081812fc14610256578063095ea7b31461028e5780630daefed5146102ae5780631249c58b146102ce57600080fd5b806301ffc9a7146101dd57806306fdde031461021257806306febcba14610234575b600080fd5b3480156101e957600080fd5b506101fd6101f83660046144c0565b6105d8565b60405190151581526020015b60405180910390f35b34801561021e57600080fd5b5061022761061c565b6040516102099190614534565b34801561024057600080fd5b5061025461024f366004614547565b6106ae565b005b34801561026257600080fd5b50610276610271366004614547565b610713565b6040516001600160a01b039091168152602001610209565b34801561029a57600080fd5b506102546102a936600461457c565b61073a565b3480156102ba57600080fd5b506102276102c9366004614547565b610778565b6102546108ef565b3480156102e257600080fd5b506008545b604051908152602001610209565b34801561030157600080fd5b506102546103103660046145a6565b61098b565b34801561032157600080fd5b506102e761033036600461457c565b610a0c565b34801561034157600080fd5b506102546103503660046145a6565b610ab4565b34801561036157600080fd5b506102e7610370366004614547565b610acf565b34801561038157600080fd5b50610276610390366004614547565b610b73565b3480156103a157600080fd5b506102546103b0366004614547565b610b7e565b3480156103c157600080fd5b506102e76103d03660046145e2565b610b8b565b3480156103e157600080fd5b50610254610b96565b3480156103f657600080fd5b506102e7600c5481565b34801561040c57600080fd5b506101fd61041b366004614547565b600a6020526000908152604090205460ff1681565b34801561043c57600080fd5b5061025461044b366004614547565b610ba8565b34801561045c57600080fd5b5061022761046b3660046146b3565b610bb5565b34801561047c57600080fd5b50600b546001600160a01b0316610276565b34801561049a57600080fd5b50610227610bed565b3480156104af57600080fd5b506102546104be366004614786565b610bfc565b3480156104cf57600080fd5b506102276104de366004614547565b610c07565b3480156104ef57600080fd5b506102276104fe3660046146b3565b610c38565b34801561050f57600080fd5b5061025461051e3660046147b9565b6130f6565b34801561052f57600080fd5b506102e7600e5481565b34801561054557600080fd5b50610227610554366004614547565b613174565b34801561056557600080fd5b506102e7600d5481565b34801561057b57600080fd5b506101fd61058a366004614879565b6001600160a01b03918216600090815260056020908152604080832093909416825291909152205460ff1690565b3480156105c457600080fd5b506102546105d33660046145e2565b61317f565b60006001600160e01b031982167f780e9d6300000000000000000000000000000000000000000000000000000000148061061657506106168261320f565b92915050565b60606000805461062b906148a3565b80601f0160208091040260200160405190810160405280929190818152602001828054610657906148a3565b80156106a45780601f10610679576101008083540402835291602001916106a4565b820191906000526020600020905b81548152906001019060200180831161068757829003601f168201915b5050505050905090565b326106b882610b73565b6001600160a01b0316146106f8576040517f30cd747100000000000000000000000000000000000000000000000000000000815260040160405180910390fd5b6000908152600a60205260409020805460ff19166001179055565b600061071e826132aa565b506000908152600460205260409020546001600160a01b031690565b6000818152600a602052604090205460ff161561076a57604051631267838f60e11b815260040160405180910390fd5b610774828261330e565b5050565b6060600073__$11e21e6c56ca563b85c74e3fd3a08242f9$__6343e3b1088473__$11e21e6c56ca563b85c74e3fd3a08242f9$__638f6aa355876040518263ffffffff1660e01b81526004016107d091815260200190565b602060405180830381865af41580156107ed573d6000803e3d6000fd5b505050506040513d601f19601f8201168201806040525081019061081191906148dd565b6040516001600160e01b031960e085901b168152600481019290925263ffffffff166024820152600060448201819052606482015260840161012060405180830381865af4158015610867573d6000803e3d6000fd5b505050506040513d601f19601f8201168201806040525081019061088b9190614919565b9050600061089d848360006001610bb5565b6040516020016108ad91906149b0565b60405160208183030381529060405290506108c78161343a565b6040516020016108d791906149cc565b60405160208183030381529060405292505050919050565b600e5434101561092b576040517ff63c533c00000000000000000000000000000000000000000000000000000000815260040160405180910390fd5b600c805490600061093b83614a27565b9190505550600d54600c541061097d576040517fd05cb60900000000000000000000000000000000000000000000000000000000815260040160405180910390fd5b61098933600c5461358d565b565b61099533826135a7565b6109fc5760405162461bcd60e51b815260206004820152602d60248201527f4552433732313a2063616c6c6572206973206e6f7420746f6b656e206f776e6560448201526c1c881bdc88185c1c1c9bdd9959609a1b60648201526084015b60405180910390fd5b610a07838383613625565b505050565b6000610a1783613838565b8210610a8b5760405162461bcd60e51b815260206004820152602b60248201527f455243373231456e756d657261626c653a206f776e657220696e646578206f7560448201527f74206f6620626f756e647300000000000000000000000000000000000000000060648201526084016109f3565b506001600160a01b03919091166000908152600660209081526040808320938352929052205490565b610a07838383604051806020016040528060008152506130f6565b6000610ada60085490565b8210610b4e5760405162461bcd60e51b815260206004820152602c60248201527f455243373231456e756d657261626c653a20676c6f62616c20696e646578206f60448201527f7574206f6620626f756e6473000000000000000000000000000000000000000060648201526084016109f3565b60088281548110610b6157610b61614a40565b90600052602060002001549050919050565b6000610616826138d2565b610b86613937565b600d55565b600061061682613838565b610b9e613937565b6109896000613991565b610bb0613937565b600e55565b6060610bc385858585610c38565b604051602001610bd39190614a56565b60405160208183030381529060405290505b949350505050565b60606001805461062b906148a3565b6107743383836139f0565b6060610c1282613abe565b604051602001610c229190614ae8565b6040516020818303038152906040529050919050565b6040517f3c673e000000000000000000000000000000000000000000000000000000000060208201527f3c7376672069643d2273696c686f7565747465222076657273696f6e3d22312e60238201527f302220786d6c6e733d22687474703a2f2f7777772e77332e6f72672f3230303060438201527f2f737667222077696474683d2235313222206865696768743d2235313222207660638201527f696577426f783d2230203020313237392031323830223e3c7061746820643d2260838201527f4d383836202e36632d312e342e322d352e392e392d313020312e352d32332e3960a38201527f20332e332d35312e372031342e372d37372e362033312e372d32352e3320313660c38201527f2e372d34342e332033322e352d38312e392036382e322d32382e392032372e3460e38201527f2d34302e372033372e382d35342e322034372e392d35312e392033382e362d316101038201527f32352e372036352e382d3234342e332039302e316c2d31352e3620332e322d386101238201527f2e392d352e38632d35352e332d33352e372d3131332e312d36322d3137362e376101438201527f2d38302e342d31392e352d352e372d34372e372d31322e322d36322e382d31346101638201527f2e362d31322e352d312e392d33372e382d322e322d34372d2e352d33392e36206101838201527f372e332d36312033342e342d36362038332e362d312e372031352e382d2e38206101a38201527f34382e3920322037352e3520392e342039312e372032392e31203137332e32206101c38201527f36322e35203235392e352031332033332e362031352e352034322e382031352e6101e38201527f352035362e382d2e312031332e332d342e372032332e382d31362e372033372e6102038201527f382d322e3620332e312d31312e372031322e392d32302032312e382d382e34206102238201527f382e392d31392e332032312e362d32342e322032382e312d33322e372034332e6102438201527f342d35312e352039352e372d35382e33203136322d312e372031362e342d312e6102638201527f372037312e3320302038392e3520342e312034342e362031302e322038302e376102838201527f2032322e382031333620372e352033322e3520382e322033362e3320313020346102a38201527f3920312e3820313320342e362031392e372031302e332032352e3120332e33206102c38201527f332e322031332e3920382e392031342e382038202e322d2e312d312e352d352e6102e38201527f362d332e372d31322e322d33332e312d39382e312d34362e372d3231392e332d6103038201527f33342e352d3330362e3920362e332d34342e392031382d37392e342033362e346103238201527f2d3130362e3620382e342d31322e352031352e352d32302e362032342e392d326103438201527f382e332034312e372d33342039352e382d33352e32203135392e322d332e35206103638201527f37332e312033362e36203132322e392039322e37203133362e35203135332e396103838201527f20322e362031312e3820332e312033372e3520312035302e312d382e312034386103a38201527f2e342d34302e342038342e372d38362e332039372e312d31322e3120332e332d6103c38201527f33372e3320332e372d3532202e392d34352e382d382e382d38352e382d34302e6103e38201527f392d3130362e382d38352e372d322e352d352e352d362e322d31332e312d382d6104038201527f31372e312d362e342d31332e352d31372d31392e342d32322e342d31322e352d6104238201527f3520362e322d2e342032372e322031302e362034382e3220382e3320313620316104438201527f372e342032382033322e342034332e312032322e382032322e392034352e37206104638201527f33352e392037352e352034322e372031332e3820332e322032352e3920342e326104838201527f2036342e3520352e322033372e3420312034352e3920312e392036302e3320366104a38201527f2e352031312e3520332e372032312e3820382e372033322e362031352e3920316104c38201527f332e3320382e392032322e322031362e352034372e362034302e362032352e316104e38201527f2032332e382033342e332033312e372034362e392034302e322031312e3820376105038201527f2e392032312e392031322e392033342e372031372e3120392e3420332e3220316105238201527f382e3820352e322036302e392031332e322034302e3420372e382036322e36206105438201527f31392e362037372e352034312e346c342e3620362e382d322e3520382e39632d6105638201527f362e372032342e312d392e372033382e332d382e372034302e3320312e3220326105838201527f2e322031302e3720362e312031352e3120362e3120352e38203020362e362d316105a38201527f2e372031332d32372e3320382e362d33352031312e382d34332e372032302e366105c38201527f2d35362e382031312d31362e342032312d32382e372033342e382d34322e35206105e38201527f33392e342d33392e322038382e322d36342e36203133362e332d37302e3920366106038201527f312e312d38203131372e352032302e31203134382e322037342031332e3220326106238201527f332e322031392e362034382e322031382e392037342e336c2d2e332031332e326106438201527f203320312e3263392e3620342032322e312d322e372032362e312d31332e39206106638201527f312e382d352e3220312e372d32302e392d2e322d33312e382d342e372d32372e6106838201527f322d32322e332d36332e382d34332e312d38392e352d362e312d372e352d32326106a38201527f2e312d32332e352d33322d33326c2d352e332d342e352032332e362d34312e356106c38201527f6337302e372d3132342e352037362e392d3133342e372038362e342d3134332e6106e38201527f3320392e342d382e352032312e392d31302e392033332e372d362e3520372e386107038201527f20322e382031382e352031332e362032332e312032322e3920392e362031392e6107238201527f3720382e322033362e352d362e332037362e372d31312e362033322e352d31346107438201527f2e312034362d31332e32203732202e382032352e3720362e312034372e3120316107638201527f372e372037312e312031342e392033302e372033352e392035352e322036322e6107838201527f382037332e322031322e3320382e332032332e352031332e372033372e3920316107a38201527f382e3520313820362e312032372e3220342e382033332e382d342e356c332d346107c38201527f2e332d2e322d32332e36632d2e342d36352e392d31362e382d3133342e382d346107e38201527f372e322d3139372e372d31302e332d32312e332d31392d33362e352d33322e366108038201527f2d35372d31332e382d32302e372d32342e332d33342e322d34352e362d35382e6108238201527f352d31392e352d32322e332d32372e352d33332e332d33342d34362e352d362e6108438201527f362d31332e362d382e392d32332e372d382e392d33392e3520302d313620312e6108638201527f362d32352e3320392e342d35362e332031302e342d34302e372031342e312d366108838201527f332e332031352e352d39332e3920322e322d35302e312d352d39362d32332e396108a38201527f2d3135312d332e332d392e372d31322e382d33342e362d32312e312d35352e356108c38201527f2d33362e342d39312e332d34312e312d3131312e322d34352e342d3139332e336108e38201527f2d322e342d34372e322d342e332d36382e342d372e362d38382d372e392d34376109038201527f2e312d32352e312d38342e322d35302e382d3131302e312d31382e352d31382e6109238201527f352d33372e372d32392e322d36322e332d33342e352d372d312e352d33322e366109438201527f2d322e372d33372e382d312e387a6d33312033382e396334312e382031352e346109638201527f2037362e342036382e342039302e39203133392e312031302e382035322e38206109838201527f382e35203130332e382d362e39203134382e382d332e3320392e392d332e38206109a38201527f31352e362d312e35203230202e3820312e3520352e3720382e352031302e39206109c38201527f31352e352035362e342037362e322037342e32203132302e33203835203231316109e38201527f2e3120362e312035312e3120352e342039362d322e35203135332d342e352033610a038201527f322e352d31332e352037302e342d31392e352038322e312d2e3720312e352d35610a238201527f2031332e342d392e352032362e352d342e342031332e312d31302e332032382e610a438201527f382d31332033342e392d31392e342034332e332d35302037392e372d39342e32610a638201527f203131312e382d32332e342031372e312d34342e372032392e312d38382e3320610a838201527f34392e382d3130342e392034392e382d3134382036342e392d3139392e382037610aa38201527f302d31372e3520312e372d35362e342e362d37332e362d322d33372d352e382d610ac38201527f37392e322d31382e312d3132342e352d33362e332d34352e382d31382e342d39610ae38201527f322e392d34312e392d39372e312d34382e332d322e342d332e372d312e312d36610b038201527f2e3720352e352d31322e3420332e332d322e3920382e332d382e342031312e32610b238201527f2d31322e3473372e332d392e3920392e372d31332e3263352e342d372e322031610b438201527f302e352d31372e382031322e372d323620322e332d382e3420332d32392e3120610b638201527f312e362d34312e312d312e382d31342e312d352e342d33302e352d31312e362d610b838201527f35322e362d31322e322d34332e392d32312e382d36342e382d33382e362d3834610ba38201527f2e382d332d332e362d372e372d392e342d31302e342d31332d322e382d332e36610bc38201527f2d372e382d392e362d31312e322d31332e332d392e362d31302e352d392e362d610be38201527f31322e362e312d32332e3820332e352d342e312031302d31312e362031342e35610c038201527f2d31362e382032312e392d32352e342033382e392d35312e342036372e352d31610c238201527f30332e342032372e372d35302e322033372e362d38372034342e352d3136352e610c438201527f3220342d34342e3420332e372d36332e312d312e332d38322e392d342e342d31610c638201527f372e322d31362e332d34332e382d32342e322d35342e322d342e392d362e342d610c838201527f362e342d392e382d362e342d31342e3920302d342e312e352d352e3120342e35610ca38201527f2d392e3420392e352d31302e322032372e362d31362e382038312e352d32392e610cc38201527f392033382d392e332038392e382d31372e37203131372e352d31392e31203130610ce38201527f2e322d2e352031352d312e322031372e372d322e3520362e382d332e33203138610d038201527f2e382d31372e322033322e332d33372e3420372e312d31302e362031362e352d610d238201527f32332e372032302e392d32392031302e342d31322e352033382e312d34302e37610d438201527f2035302e382d35322033362d33312e362038382e312d36322e31203131372e35610d638201527f2d36382e362031302e392d322e352032372e392d312e362033372e3320312e39610d838201527f7a6d2d3736312e38203230386331322e3820322e3220323620362e392033392e610da38201527f382031342e322034332e392032332e312036332e342034352e34203639203739610dc38201527f2e3320332e322031382e382d332033382e352d31382e342035392d31322e3320610de38201527f31362e342d34322e322034322e362d35362e362034392e372d31372e3320382e610e038201527f352d33302e3320312d34372e322d32372e332d31342e362d32342e352d32352e610e238201527f352d34382e342d33322e322d37302e372d342e342d31342e352d31322e322d34610e438201527f392e322d31332e362d36302e312d322e392d32332e3320382d34302e36203238610e638201527f2d34342e3520372e322d312e342032322d312e322033312e322e347a222f3e3c610e838201527f7061746820643d224d3838352e312039372e31632d372e3120312e322d32312e610ea38201527f3620362e312d32382e3820392e382d32352e392031332e312d35332e35203339610ec38201527f2e312d37362e362037322e342d31332e372031392e362d31382e372033302e38610ee38201527f2d31382e372034312e3920302031332e3220362e392032302e362032372e3520610f038201527f32392e33203520322e312032352e322031312e392034342e392032312e382031610f238201527f392e3820392e382033382e372031392034322032302e322031372e3720362e36610f438201527f2033342e3220372e322034362e3120312e372032322e312d31302e342033332e610f638201527f362d34312e342033322e322d38372e322d2e362d31392d322e312d32392e342d610f838201527f382e362d35382e352d342e342d31392e362d352e352d32332e352d392e362d33610fa38201527f312e342d382e352d31362e382d32362e352d32332e392d35302e342d32307a6d610fc38201527f362e342033342e3263362e3420362e372031302e312031382e322031372e3920610fe38201527f35342e3720342e372032322e3320362e372033392e3320362e392035382e362e6110038201527f322031342e3620302031362e342d312e372031382e332d332e3720342e312d316110238201527f312e3420322e342d33332e352d372d32312d392d33382e322d31392e332d35376110438201527f2e362d33342e342d31362e332d31322e372d31392e342d31382e382d31342e326110638201527f2d32382e3420332e372d372032352e362d33352033352d34342e382031332e386110838201527f2d31342e332032362d32312e322033372e362d32312e3320352e31203020352e6110a38201527f372e3320392e3620342e337a6d2d312e39203434312e32632d332e3320312e336110c38201527f2d313120352e382d313720392e382d362e3120342e312d31352031302d31392e6110e38201527f372031332e312d392e3820362e332d31382e352031352e322d32322032322e336111038201527f2d332e3520372e322d332e382031372e342d2e372032332e3220332e3620362e6111238201527f3820382e372031302e332031352e332031302e3920352e332e3420352e372e336111438201527f20382e392d332e3220322e332d322e3420342e382d372e3220372e362d31342e6111638201527f3320362e392d31382031312e392d32342032362d33302e362031312e332d352e6111838201527f342031372e372d342e322032392e3420352e3520332e3220322e3720372e33206111a38201527f352e36203920362e3620342e3220322e322031342e3120322e322031382e342d6111c38201527f2e3120362e392d332e3720392e322d31322e3920352e332d32302e362d332d356111e38201527f2e382d31322e332d31332e372d32312e352d31382e312d31352e362d372e352d6112038201527f32382e322d392d33392d342e357a6d3131302e39203936632d31332e3320322e6112238201527f332d34352e352031322e392d35362e372031382e362d342e3720322e342d372e6112438201527f3820362e342d372e382031302e31203020332e3920332e3220313020372031336112638201527f2e3220352e3120342e3220392e3920332e362032332e332d322e3920392e382d6112838201527f342e382031322e362d352e372032322e322d372e3120382e362d312e322031326112a38201527f2e362d322e342031382e342d352e3220382e352d342e3320392e322d352e35206112c38201527f392e352d31352e392e312d362d2e322d372e352d312e392d392e312d322e382d6112e38201527f322e382d362d332e312d31342d312e377a4d343936203639332e36632d312e346113038201527f2e322d352e322e392d382e3520312e352d31342e3320322e352d32382e3920316113238201527f332e312d33382e392032382e322d31342e362032322e322d31352e372033302e6113438201527f392d342e362033382e3420342e3420332e312031302e3620332031352e3120306113638201527f20322e312d312e3420342e392d3520372e342d392e3720352e322d392e3720316113838201527f382e362d32332e362032362e362d32372e342031312e352d352e352032312e366113a38201527f2d352e332033372e392e392031302e3920342e3120313620342e342032322e316113c38201527f20312e3220382e342d342e3520392d31302e3920312e382d31392e312d362e316113e38201527f2d372d31312e332d392e312d32382e392d31322d392e332d312e362d32362e316114038201527f2d322e372d33302d327a6d3530382e352033352e31632d33332e3220392d33336114238201527f2e3620392e322d33372e312031322e382d332e3420332e372d342e3920382e376114438201527f2d332e342031312e352e35203120322e3420322e3320342e3120322e3920352e6114638201527f3820322031312e3420312e332032322e362d3320392e392d332e382031312e376114838201527f2d342e312032322e332d342e352031342e362d2e352032342e342d322e3120326114a38201527f362e332d342e3220342d342e3520332e322d31322e352d312e382d31372e372d6114c38201527f322e392d332e312d332e382d332e352d382e312d332e342d322e372e312d31336114e38201527f2e3920322e362d32342e3920352e367a6d2d3237382e3220332e38632d32362e6115038201527f3120342e372d34392e332031392e352d36322e332033392e362d362e3320392e6115238201527f382d372e372031382e362d342e312032362e3420342e3220392031332e3220316115438201527f342e322033312e382031382e312032362e3720352e362033312e3620372e34206115638201527f33332e322031312e3720312e3920342e3920362e322033382e3920362e3220346115838201527f39203020392e362d2e342031312e372d332e372032312e372d352e382031372e6115a38201527f362d31322e332032352e382d32342e362033312e352d31392e3320382e382d346115c38201527f332e3320322e382d36332e362d31352e392d352e312d342e362d31302e382d396115e38201527f2d31322e372d392e362d352e332d312e382d392e382e382d31332e3120372e366116038201527f2d322e3320342e382d322e3620362e332d322e322031322e342e382031312e336116238201527f20372e322031392e362032302e332032362e322031352e3820382e312033322e6116438201527f372031312e332035342e342031302e352032382e362d312034332e312d382e336116638201527f2035322e332d323620372e372d31342e382031352e392d32332e362032342e326116838201527f2d32352e3820332e362d3120342e392d2e392031302e3620312e3220352e39206116a38201527f322e3220382e3420322e3420323620322e372031302e372e322032352e332d2e6116c38201527f312033322e342d2e372031352e362d312e332032302e342d332e322032392e356116e38201527f2d31312e3720332e352d332e322031302e372d392e352031352e392d31332e396117038201527f2031322e372d31302e362031332e382d31322e382031362e342d33332e3120316117238201527f2e322d392e3220312e372d31372e3520312e332d32302e312d2e382d352e352d6117438201527f352e312d31302e362d31302e332d31322e312d352e332d312e362d31352e352d6117638201527f312e352d31392e352e322d362e3220322e362d3720342e352d372e382031372e6117838201527f392d2e392031332e362d332e372032362e322d372033302e392d3320342e322d6117a38201527f31302e3120382e352d31382e342031312e312d382e3920322e382d32362e36206117c38201527f332d33362e352e342d31352e312d342d32372e312d31322e382d33302e342d326117e38201527f322e322d2e382d322e362d322d392e332d322e372d31342e392d322e312d31386118038201527f2e3920312d33312e372031322e392d35332e342031312e362d32302e392031336118238201527f2e352d32352e352031342d33342e312e332d372e312e322d372e392d322e362d6118438201527f31322e332d352e382d392d32322e362d31342e382d34322e322d31342e372d356118638201527f2e3820302d31332e372e372d31372e3720312e347a6d3235362e352037332e366118838201527f632d342e3420312e332d382e3820362d382e3820392e352030203420322e35206118a38201527f382e3820362e312031312e3820332e3220322e3720332e3620322e3820392e396118c38201527f20322031342e322d312e382031382d312e322032382e3220332e3973313420356118e38201527f2e372031392e3320332e3163342e332d322031332e352d31312e372031332e356119038201527f2d31342e3220302d352e362d392e392d31312e312d32352e372d31342e332d316119238201527f312e352d322e332d33362e392d332e342d34322e352d312e387a6d2d3439372e6119438201527f33203133632d31372e3120352e392d33382e342031382e382d34372e382032386119638201527f2e392d352e3620362d382e362031322e332d372e342031352e3420312e3120326119838201527f2e3920352e3720332e392031312e3420322e3820362e382d312e342035302e356119a38201527f2d31392e362035362e362d32332e3620362e382d342e3520372e362d31362e386119c38201527f20312e352d32332e342d322e372d322e382d362e342d322e382d31342e332d2e6119e38201527f317a6d2d322e352036332e36632d312e342e322d3620312e352d31302e322032611a038201527f2e392d31392e3520362e342d33342032322e352d33302e382033342e3320312e611a238201527f3420352e3220362e322031302e382031302e312031312e3620342e3320312031611a438201527f322e352d332e332031382e352d392e3620322e372d322e3820352e382d352e36611a638201527f20362e392d362e3220312e322d2e3620372e312d312e312031342d312e322031611a838201527f302e3420302031322e362d2e342031362e322d322e3320372d332e3720382e38611aa38201527f2d392e3320352e342d31362e372d342e362d31302e322d31362e322d31352e31611ac38201527f2d33302e312d31322e387a6d31322e352036342e32632d342e3620322e312d31611ae38201527f302e3620372e372d32322e372032312e352d31312e372031332e312d31332e32611b038201527f2031392e312d362e362032352e3620382e3920382e392032362e3120342e3120611b238201527f33352e342d313020332e352d352e3220362e312d362e372031342e342d382e35611b438201527f2031332e392d322e392031382d362e322031382d31342e3620302d352e372d31611b638201527f2e382d382d382e352d31302e392d342e372d322d31382e382d352d32332e342d611b838201527f352d312e3420302d342e342e392d362e3620312e397a4d3330302e3320383332611ba38201527f2e35632d332e3420312e352d332e3720322e332d332e3320392e352e3520392e611bc38201527f3420372e312032312e3220313820333220382e3620382e372031352e33203132611be38201527f2e352032302e312031312e3520342e322d2e3920392e352d352e392031302e39611c038201527f2d313020312e352d342e362e332d382e332d352e392d31372e372d392e352d31611c238201527f342e352d31382e322d32322d32392d32352e322d362e352d312e392d362e372d611c438201527f312e392d31302e382d2e317a6d2d36362e322032382e31632d312e332e392d32611c638201527f2e3920332e322d332e3720352d322e3520362d312e3920372e3820342e372031611c838201527f332e362037203620392e392031302e362031332e332032302e3520342e352031611ca38201527f332e3120382e312031352e392031382e382031342e3720382e332d2e39203130611cc38201527f2e322d322e3920392e352d392e382d312d392e342d352e332d31382e392d3131611ce38201527f2e382d32362d392e382d31302e372d32322e322d31392e362d32372e312d3139611d038201527f2e362d2e3820302d322e342e372d332e3720312e367a6d2d36352e372033312e611d238201527f39632d322e3620342d312e342031302e3420332e342031372e3720352e362038611d438201527f2e3720382e372031352e372031312e362032362e3720312e3420352e3220332e611d638201527f332031302e3220342e312031312031203120332e3320312e3620362e3120312e611d838201527f362034203020352d2e3520372e392d332e3620382e332d392e3120332e382d32611da38201527f392d31302d34332e382d31302e382d31312e352d31392e352d31352e312d3233611dc38201527f2e312d392e367a222f3e3c2f7376673e00000000000000000000000000000000611de38201527f3c2f673e00000000000000000000000000000000000000000000000000000000611df3820152606090611df701610bd3565b61310033836135a7565b6131625760405162461bcd60e51b815260206004820152602d60248201527f4552433732313a2063616c6c6572206973206e6f7420746f6b656e206f776e6560448201526c1c881bdc88185c1c1c9bdd9959609a1b60648201526084016109f3565b61316e84848484613b5e565b50505050565b606061061682613bdc565b613187613937565b6001600160a01b0381166132035760405162461bcd60e51b815260206004820152602660248201527f4f776e61626c653a206e6577206f776e657220697320746865207a65726f206160448201527f646472657373000000000000000000000000000000000000000000000000000060648201526084016109f3565b61320c81613991565b50565b60006001600160e01b031982167f80ac58cd00000000000000000000000000000000000000000000000000000000148061327257506001600160e01b031982167f5b5e139f00000000000000000000000000000000000000000000000000000000145b8061061657507f01ffc9a7000000000000000000000000000000000000000000000000000000006001600160e01b0319831614610616565b6000818152600260205260409020546001600160a01b031661320c5760405162461bcd60e51b815260206004820152601860248201527f4552433732313a20696e76616c696420746f6b656e204944000000000000000060448201526064016109f3565b6000613319826138d2565b9050806001600160a01b0316836001600160a01b0316036133a25760405162461bcd60e51b815260206004820152602160248201527f4552433732313a20617070726f76616c20746f2063757272656e74206f776e6560448201527f720000000000000000000000000000000000000000000000000000000000000060648201526084016109f3565b336001600160a01b03821614806133be57506133be813361058a565b6134305760405162461bcd60e51b815260206004820152603d60248201527f4552433732313a20617070726f76652063616c6c6572206973206e6f7420746f60448201527f6b656e206f776e6572206f7220617070726f76656420666f7220616c6c00000060648201526084016109f3565b610a078383613c44565b6060815160000361345957505060408051602081019091526000815290565b6000604051806060016040528060408152602001614dab60409139905060006003845160026134889190614ba0565b6134929190614bb3565b61349d906004614bd5565b67ffffffffffffffff8111156134b5576134b56145fd565b6040519080825280601f01601f1916602001820160405280156134df576020820181803683370190505b509050600182016020820185865187015b8082101561354b576003820191508151603f8160121c168501518453600184019350603f81600c1c168501518453600184019350603f8160061c168501518453600184019350603f81168501518453506001830192506134f0565b5050600386510660018114613567576002811461357a57613582565b603d6001830353603d6002830353613582565b603d60018303535b509195945050505050565b610774828260405180602001604052806000815250613cbf565b6000806135b3836138d2565b9050806001600160a01b0316846001600160a01b031614806135fa57506001600160a01b0380821660009081526005602090815260408083209388168352929052205460ff165b80610be55750836001600160a01b031661361384610713565b6001600160a01b031614949350505050565b826001600160a01b0316613638826138d2565b6001600160a01b03161461369c5760405162461bcd60e51b815260206004820152602560248201527f4552433732313a207472616e736665722066726f6d20696e636f72726563742060448201526437bbb732b960d91b60648201526084016109f3565b6001600160a01b0382166137175760405162461bcd60e51b8152602060048201526024808201527f4552433732313a207472616e7366657220746f20746865207a65726f2061646460448201527f726573730000000000000000000000000000000000000000000000000000000060648201526084016109f3565b6137248383836001613d3d565b826001600160a01b0316613737826138d2565b6001600160a01b03161461379b5760405162461bcd60e51b815260206004820152602560248201527f4552433732313a207472616e736665722066726f6d20696e636f72726563742060448201526437bbb732b960d91b60648201526084016109f3565b6000818152600460209081526040808320805473ffffffffffffffffffffffffffffffffffffffff199081169091556001600160a01b0387811680865260038552838620805460001901905590871680865283862080546001019055868652600290945282852080549092168417909155905184937fddf252ad1be2c89b69c2b068fc378daa952ba7f163c4a11628f55a4df523b3ef91a4505050565b60006001600160a01b0382166138b65760405162461bcd60e51b815260206004820152602960248201527f4552433732313a2061646472657373207a65726f206973206e6f74206120766160448201527f6c6964206f776e6572000000000000000000000000000000000000000000000060648201526084016109f3565b506001600160a01b031660009081526003602052604090205490565b6000818152600260205260408120546001600160a01b0316806106165760405162461bcd60e51b815260206004820152601860248201527f4552433732313a20696e76616c696420746f6b656e204944000000000000000060448201526064016109f3565b600b546001600160a01b031633146109895760405162461bcd60e51b815260206004820181905260248201527f4f776e61626c653a2063616c6c6572206973206e6f7420746865206f776e657260448201526064016109f3565b600b80546001600160a01b0383811673ffffffffffffffffffffffffffffffffffffffff19831681179093556040519116919082907f8be0079c531659141344cd1fd0a4f28419497f9722a3daafe3b4186f6b6457e090600090a35050565b816001600160a01b0316836001600160a01b031603613a515760405162461bcd60e51b815260206004820152601960248201527f4552433732313a20617070726f766520746f2063616c6c65720000000000000060448201526064016109f3565b6001600160a01b03838116600081815260056020908152604080832094871680845294825291829020805460ff191686151590811790915591519182527f17307eab39ab6107e8899845ad3d59bd9653f200f220920489ca2b5937696c31910160405180910390a3505050565b60606000613acb83613d79565b600101905060008167ffffffffffffffff811115613aeb57613aeb6145fd565b6040519080825280601f01601f191660200182016040528015613b15576020820181803683370190505b5090508181016020015b600019017f3031323334353637383961626364656600000000000000000000000000000000600a86061a8153600a8504945084613b1f57509392505050565b613b69848484613625565b613b7584848484613e5b565b61316e5760405162461bcd60e51b815260206004820152603260248201527f4552433732313a207472616e7366657220746f206e6f6e20455243373231526560448201527131b2b4bb32b91034b6b83632b6b2b73a32b960711b60648201526084016109f3565b60606000613be983610c07565b613bf284610778565b604051602001613c03929190614bec565b6040516020818303038152906040529050613c1d8161343a565b604051602001613c2d9190614ce3565b604051602081830303815290604052915050919050565b6000818152600460205260409020805473ffffffffffffffffffffffffffffffffffffffff19166001600160a01b0384169081179091558190613c86826138d2565b6001600160a01b03167f8c5be1e5ebec7d5bd14f71427d1e84f3dd0314c0f7b2291e5b200ac8c7c3b92560405160405180910390a45050565b613cc98383613fa4565b613cd66000848484613e5b565b610a075760405162461bcd60e51b815260206004820152603260248201527f4552433732313a207472616e7366657220746f206e6f6e20455243373231526560448201527131b2b4bb32b91034b6b83632b6b2b73a32b960711b60648201526084016109f3565b6000828152600a602052604090205460ff1615613d6d57604051631267838f60e11b815260040160405180910390fd5b61316e8484848461414a565b6000807a184f03e93ff9f4daa797ed6e38ed64bf6a1f0100000000000000008310613dc2577a184f03e93ff9f4daa797ed6e38ed64bf6a1f010000000000000000830492506040015b6d04ee2d6d415b85acef81000000008310613dee576d04ee2d6d415b85acef8100000000830492506020015b662386f26fc100008310613e0c57662386f26fc10000830492506010015b6305f5e1008310613e24576305f5e100830492506008015b6127108310613e3857612710830492506004015b60648310613e4a576064830492506002015b600a83106106165760010192915050565b60006001600160a01b0384163b15613f9c57604051630a85bd0160e11b81526001600160a01b0385169063150b7a0290613e9f903390899088908890600401614d28565b6020604051808303816000875af1925050508015613eda575060408051601f3d908101601f19168201909252613ed791810190614d64565b60015b613f82573d808015613f08576040519150601f19603f3d011682016040523d82523d6000602084013e613f0d565b606091505b508051600003613f7a5760405162461bcd60e51b815260206004820152603260248201527f4552433732313a207472616e7366657220746f206e6f6e20455243373231526560448201527131b2b4bb32b91034b6b83632b6b2b73a32b960711b60648201526084016109f3565b805181602001fd5b6001600160e01b031916630a85bd0160e11b149050610be5565b506001610be5565b6001600160a01b038216613ffa5760405162461bcd60e51b815260206004820181905260248201527f4552433732313a206d696e7420746f20746865207a65726f206164647265737360448201526064016109f3565b6000818152600260205260409020546001600160a01b03161561405f5760405162461bcd60e51b815260206004820152601c60248201527f4552433732313a20746f6b656e20616c7265616479206d696e7465640000000060448201526064016109f3565b61406d600083836001613d3d565b6000818152600260205260409020546001600160a01b0316156140d25760405162461bcd60e51b815260206004820152601c60248201527f4552433732313a20746f6b656e20616c7265616479206d696e7465640000000060448201526064016109f3565b6001600160a01b0382166000818152600360209081526040808320805460010190558483526002909152808220805473ffffffffffffffffffffffffffffffffffffffff19168417905551839291907fddf252ad1be2c89b69c2b068fc378daa952ba7f163c4a11628f55a4df523b3ef908290a45050565b61415684848484614292565b60018111156141cd5760405162461bcd60e51b815260206004820152603560248201527f455243373231456e756d657261626c653a20636f6e736563757469766520747260448201527f616e7366657273206e6f7420737570706f72746564000000000000000000000060648201526084016109f3565b816001600160a01b0385166142295761422481600880546000838152600960205260408120829055600182018355919091527ff3f7a9fe364faab93b216da50a3214154f22a0a2b415b23a84c8169e8b636ee30155565b61424c565b836001600160a01b0316856001600160a01b03161461424c5761424c858261431a565b6001600160a01b03841661426857614263816143b7565b61428b565b846001600160a01b0316846001600160a01b03161461428b5761428b8482614466565b5050505050565b600181111561316e576001600160a01b038416156142d8576001600160a01b038416600090815260036020526040812080548392906142d2908490614d81565b90915550505b6001600160a01b0383161561316e576001600160a01b0383166000908152600360205260408120805483929061430f908490614ba0565b909155505050505050565b6000600161432784613838565b6143319190614d81565b600083815260076020526040902054909150808214614384576001600160a01b03841660009081526006602090815260408083208584528252808320548484528184208190558352600790915290208190555b5060009182526007602090815260408084208490556001600160a01b039094168352600681528383209183525290812055565b6008546000906143c990600190614d81565b600083815260096020526040812054600880549394509092849081106143f1576143f1614a40565b90600052602060002001549050806008838154811061441257614412614a40565b600091825260208083209091019290925582815260099091526040808220849055858252812055600880548061444a5761444a614d94565b6001900381819060005260206000200160009055905550505050565b600061447183613838565b6001600160a01b039093166000908152600660209081526040808320868452825280832085905593825260079052919091209190915550565b6001600160e01b03198116811461320c57600080fd5b6000602082840312156144d257600080fd5b81356144dd816144aa565b9392505050565b60005b838110156144ff5781810151838201526020016144e7565b50506000910152565b600081518084526145208160208601602086016144e4565b601f01601f19169290920160200192915050565b6020815260006144dd6020830184614508565b60006020828403121561455957600080fd5b5035919050565b80356001600160a01b038116811461457757600080fd5b919050565b6000806040838503121561458f57600080fd5b61459883614560565b946020939093013593505050565b6000806000606084860312156145bb57600080fd5b6145c484614560565b92506145d260208501614560565b9150604084013590509250925092565b6000602082840312156145f457600080fd5b6144dd82614560565b634e487b7160e01b600052604160045260246000fd5b604051610120810167ffffffffffffffff81118282101715614637576146376145fd565b60405290565b604051601f8201601f1916810167ffffffffffffffff81118282101715614666576146666145fd565b604052919050565b61ffff8116811461320c57600080fd5b80356145778161466e565b60ff8116811461320c57600080fd5b803561457781614689565b8035801515811461457757600080fd5b6000806000808486036101808112156146cb57600080fd5b8535945061012080601f19830112156146e357600080fd5b6146eb614613565b9150602087013582526147006040880161467e565b60208301526147116060880161467e565b604083015261472260808801614698565b606083015261473360a08801614698565b608083015260c087013560a083015260e087013560c08301526101008088013560e08401528188013581840152505080935050610140850135915061477b61016086016146a3565b905092959194509250565b6000806040838503121561479957600080fd5b6147a283614560565b91506147b0602084016146a3565b90509250929050565b600080600080608085870312156147cf57600080fd5b6147d885614560565b935060206147e7818701614560565b935060408601359250606086013567ffffffffffffffff8082111561480b57600080fd5b818801915088601f83011261481f57600080fd5b813581811115614831576148316145fd565b614843601f8201601f1916850161463d565b9150808252898482850101111561485957600080fd5b808484018584013760008482840101525080935050505092959194509250565b6000806040838503121561488c57600080fd5b61489583614560565b91506147b060208401614560565b600181811c908216806148b757607f821691505b6020821081036148d757634e487b7160e01b600052602260045260246000fd5b50919050565b6000602082840312156148ef57600080fd5b815163ffffffff811681146144dd57600080fd5b80516145778161466e565b805161457781614689565b6000610120828403121561492c57600080fd5b614934614613565b8251815261494460208401614903565b602082015261495560408401614903565b60408201526149666060840161490e565b60608201526149776080840161490e565b608082015260a083015160a082015260c083015160c082015260e083015160e08201526101008084015181830152508091505092915050565b600082516149c28184602087016144e4565b9190910192915050565b7f646174613a696d6167652f7376672b786d6c3b6261736536342c000000000000815260008251614a0481601a8501602087016144e4565b91909101601a0192915050565b634e487b7160e01b600052601160045260246000fd5b600060018201614a3957614a39614a11565b5060010190565b634e487b7160e01b600052603260045260246000fd5b7f3c7376672076696577426f783d2230203020353132203531322220786d6c6e7381527f3d22687474703a2f2f7777772e77332e6f72672f323030302f737667223e0000602082015260008251614ab481603e8501602087016144e4565b7f3c2f7376673e0000000000000000000000000000000000000000000000000000603e939091019283015250604401919050565b7f226e616d65223a202254776f204d6f6f6e7320536b7920436174202300000000815260008251614b2081601c8501602087016144e4565b7f222c000000000000000000000000000000000000000000000000000000000000601c9390910192830152507f226465736372697074696f6e223a202254776f204d6f6f6e7320536b79204361601e8201527f742053696c686f75747465220000000000000000000000000000000000000000603e820152604a01919050565b8082018082111561061657610616614a11565b600082614bd057634e487b7160e01b600052601260045260246000fd5b500490565b808202811582820484141761061657610616614a11565b7f7b00000000000000000000000000000000000000000000000000000000000000815260008351614c248160018501602088016144e4565b7f2c000000000000000000000000000000000000000000000000000000000000006001918401918201527f22696d616765223a20220000000000000000000000000000000000000000000060028201528351614c8781600c8401602088016144e4565b7f2200000000000000000000000000000000000000000000000000000000000000600c92909101918201527f7d00000000000000000000000000000000000000000000000000000000000000600d820152600e01949350505050565b7f646174613a6170706c69636174696f6e2f6a736f6e3b6261736536342c000000815260008251614d1b81601d8501602087016144e4565b91909101601d0192915050565b60006001600160a01b03808716835280861660208401525083604083015260806060830152614d5a6080830184614508565b9695505050505050565b600060208284031215614d7657600080fd5b81516144dd816144aa565b8181038181111561061657610616614a11565b634e487b7160e01b600052603160045260246000fdfe4142434445464748494a4b4c4d4e4f505152535455565758595a6162636465666768696a6b6c6d6e6f707172737475767778797a303132333435363738392b2fa26469706673582212203b614ca5ca6c6a6b14df732e747f64f831a60da72338920eae7cd8e9574872b564736f6c63430008120033",
  "libraries": {
    "Color": "0x68AD5E2e4709849e1730aFF98C9b78648EF2752d"
  },
  "devdoc": {
    "events": {
      "Approval(address,address,uint256)": {
        "details": "Emitted when `owner` enables `approved` to manage the `tokenId` token."
      },
      "ApprovalForAll(address,address,bool)": {
        "details": "Emitted when `owner` enables or disables (`approved`) `operator` to manage all of its assets."
      },
      "Transfer(address,address,uint256)": {
        "details": "Emitted when `tokenId` token is transferred from `from` to `to`."
      }
    },
    "kind": "dev",
    "methods": {
      "getApproved(uint256)": {
        "details": "See {IERC721-getApproved}."
      },
      "isApprovedForAll(address,address)": {
        "details": "See {IERC721-isApprovedForAll}."
      },
      "name()": {
        "details": "See {IERC721Metadata-name}."
      },
      "owner()": {
        "details": "Returns the address of the current owner."
      },
      "renounceOwnership()": {
        "details": "Leaves the contract without owner. It will not be possible to call `onlyOwner` functions anymore. Can only be called by the current owner. NOTE: Renouncing ownership will leave the contract without an owner, thereby removing any functionality that is only available to the owner."
      },
      "safeTransferFrom(address,address,uint256)": {
        "details": "See {IERC721-safeTransferFrom}."
      },
      "safeTransferFrom(address,address,uint256,bytes)": {
        "details": "See {IERC721-safeTransferFrom}."
      },
      "setApprovalForAll(address,bool)": {
        "details": "See {IERC721-setApprovalForAll}."
      },
      "supportsInterface(bytes4)": {
        "details": "See {IERC165-supportsInterface}."
      },
      "symbol()": {
        "details": "See {IERC721Metadata-symbol}."
      },
      "tokenByIndex(uint256)": {
        "details": "See {IERC721Enumerable-tokenByIndex}."
      },
      "tokenOfOwnerByIndex(address,uint256)": {
        "details": "See {IERC721Enumerable-tokenOfOwnerByIndex}."
      },
      "totalSupply()": {
        "details": "See {IERC721Enumerable-totalSupply}."
      },
      "transferFrom(address,address,uint256)": {
        "details": "See {IERC721-transferFrom}."
      },
      "transferOwnership(address)": {
        "details": "Transfers ownership of the contract to a new account (`newOwner`). Can only be called by the current owner."
      }
    },
    "version": 1
  },
  "userdoc": {
    "kind": "user",
    "methods": {},
    "version": 1
  },
  "storageLayout": {
    "storage": [
      {
        "astId": 138,
        "contract": "contracts/chainellations/decos/Cat.sol:Cat",
        "label": "_name",
        "offset": 0,
        "slot": "0",
        "type": "t_string_storage"
      },
      {
        "astId": 140,
        "contract": "contracts/chainellations/decos/Cat.sol:Cat",
        "label": "_symbol",
        "offset": 0,
        "slot": "1",
        "type": "t_string_storage"
      },
      {
        "astId": 144,
        "contract": "contracts/chainellations/decos/Cat.sol:Cat",
        "label": "_owners",
        "offset": 0,
        "slot": "2",
        "type": "t_mapping(t_uint256,t_address)"
      },
      {
        "astId": 148,
        "contract": "contracts/chainellations/decos/Cat.sol:Cat",
        "label": "_balances",
        "offset": 0,
        "slot": "3",
        "type": "t_mapping(t_address,t_uint256)"
      },
      {
        "astId": 152,
        "contract": "contracts/chainellations/decos/Cat.sol:Cat",
        "label": "_tokenApprovals",
        "offset": 0,
        "slot": "4",
        "type": "t_mapping(t_uint256,t_address)"
      },
      {
        "astId": 158,
        "contract": "contracts/chainellations/decos/Cat.sol:Cat",
        "label": "_operatorApprovals",
        "offset": 0,
        "slot": "5",
        "type": "t_mapping(t_address,t_mapping(t_address,t_bool))"
      },
      {
        "astId": 1206,
        "contract": "contracts/chainellations/decos/Cat.sol:Cat",
        "label": "_ownedTokens",
        "offset": 0,
        "slot": "6",
        "type": "t_mapping(t_address,t_mapping(t_uint256,t_uint256))"
      },
      {
        "astId": 1210,
        "contract": "contracts/chainellations/decos/Cat.sol:Cat",
        "label": "_ownedTokensIndex",
        "offset": 0,
        "slot": "7",
        "type": "t_mapping(t_uint256,t_uint256)"
      },
      {
        "astId": 1213,
        "contract": "contracts/chainellations/decos/Cat.sol:Cat",
        "label": "_allTokens",
        "offset": 0,
        "slot": "8",
        "type": "t_array(t_uint256)dyn_storage"
      },
      {
        "astId": 1217,
        "contract": "contracts/chainellations/decos/Cat.sol:Cat",
        "label": "_allTokensIndex",
        "offset": 0,
        "slot": "9",
        "type": "t_mapping(t_uint256,t_uint256)"
      },
      {
        "astId": 9132,
        "contract": "contracts/chainellations/decos/Cat.sol:Cat",
        "label": "soulbound",
        "offset": 0,
        "slot": "10",
        "type": "t_mapping(t_uint256,t_bool)"
      },
      {
        "astId": 7,
        "contract": "contracts/chainellations/decos/Cat.sol:Cat",
        "label": "_owner",
        "offset": 0,
        "slot": "11",
        "type": "t_address"
      },
      {
        "astId": 7902,
        "contract": "contracts/chainellations/decos/Cat.sol:Cat",
        "label": "currentSupply",
        "offset": 0,
        "slot": "12",
        "type": "t_uint256"
      },
      {
        "astId": 7905,
        "contract": "contracts/chainellations/decos/Cat.sol:Cat",
        "label": "maxSupply",
        "offset": 0,
        "slot": "13",
        "type": "t_uint256"
      },
      {
        "astId": 7908,
        "contract": "contracts/chainellations/decos/Cat.sol:Cat",
        "label": "mintCost",
        "offset": 0,
        "slot": "14",
        "type": "t_uint256"
      }
    ],
    "types": {
      "t_address": {
        "encoding": "inplace",
        "label": "address",
        "numberOfBytes": "20"
      },
      "t_array(t_uint256)dyn_storage": {
        "base": "t_uint256",
        "encoding": "dynamic_array",
        "label": "uint256[]",
        "numberOfBytes": "32"
      },
      "t_bool": {
        "encoding": "inplace",
        "label": "bool",
        "numberOfBytes": "1"
      },
      "t_mapping(t_address,t_bool)": {
        "encoding": "mapping",
        "key": "t_address",
        "label": "mapping(address => bool)",
        "numberOfBytes": "32",
        "value": "t_bool"
      },
      "t_mapping(t_address,t_mapping(t_address,t_bool))": {
        "encoding": "mapping",
        "key": "t_address",
        "label": "mapping(address => mapping(address => bool))",
        "numberOfBytes": "32",
        "value": "t_mapping(t_address,t_bool)"
      },
      "t_mapping(t_address,t_mapping(t_uint256,t_uint256))": {
        "encoding": "mapping",
        "key": "t_address",
        "label": "mapping(address => mapping(uint256 => uint256))",
        "numberOfBytes": "32",
        "value": "t_mapping(t_uint256,t_uint256)"
      },
      "t_mapping(t_address,t_uint256)": {
        "encoding": "mapping",
        "key": "t_address",
        "label": "mapping(address => uint256)",
        "numberOfBytes": "32",
        "value": "t_uint256"
      },
      "t_mapping(t_uint256,t_address)": {
        "encoding": "mapping",
        "key": "t_uint256",
        "label": "mapping(uint256 => address)",
        "numberOfBytes": "32",
        "value": "t_address"
      },
      "t_mapping(t_uint256,t_bool)": {
        "encoding": "mapping",
        "key": "t_uint256",
        "label": "mapping(uint256 => bool)",
        "numberOfBytes": "32",
        "value": "t_bool"
      },
      "t_mapping(t_uint256,t_uint256)": {
        "encoding": "mapping",
        "key": "t_uint256",
        "label": "mapping(uint256 => uint256)",
        "numberOfBytes": "32",
        "value": "t_uint256"
      },
      "t_string_storage": {
        "encoding": "bytes",
        "label": "string",
        "numberOfBytes": "32"
      },
      "t_uint256": {
        "encoding": "inplace",
        "label": "uint256",
        "numberOfBytes": "32"
      }
    }
  }
}