{
  "address": "0xb6F38EfB4eF37d763dA3a1de14A2be09e5eC56c7",
  "abi": [
    {
      "inputs": [
        {
          "components": [
            {
              "internalType": "uint256",
              "name": "tokenId",
              "type": "uint256"
            },
            {
              "internalType": "uint16",
              "name": "primaryHue",
              "type": "uint16"
            },
            {
              "internalType": "uint16",
              "name": "secondaryHue",
              "type": "uint16"
            },
            {
              "internalType": "uint256",
              "name": "starSeed",
              "type": "uint256"
            },
            {
              "internalType": "uint256",
              "name": "funkSeed",
              "type": "uint256"
            },
            {
              "internalType": "uint256",
              "name": "circleSeed",
              "type": "uint256"
            },
            {
              "internalType": "uint256",
              "name": "groundSeed",
              "type": "uint256"
            },
            {
              "internalType": "uint256",
              "name": "constellationSeed",
              "type": "uint256"
            }
          ],
          "internalType": "struct Color.DNA",
          "name": "dna",
          "type": "tuple"
        },
        {
          "internalType": "uint256",
          "name": "gazes",
          "type": "uint256"
        },
        {
          "internalType": "bool",
          "name": "daytime",
          "type": "bool"
        },
        {
          "internalType": "uint8",
          "name": "cloudDays",
          "type": "uint8"
        },
        {
          "internalType": "address",
          "name": "decorator",
          "type": "address"
        }
      ],
      "name": "generateSVG",
      "outputs": [
        {
          "internalType": "string",
          "name": "",
          "type": "string"
        }
      ],
      "stateMutability": "view",
      "type": "function"
    },
    {
      "inputs": [
        {
          "internalType": "bool",
          "name": "day",
          "type": "bool"
        }
      ],
      "name": "getBackgrounds",
      "outputs": [
        {
          "internalType": "string",
          "name": "",
          "type": "string"
        }
      ],
      "stateMutability": "pure",
      "type": "function"
    },
    {
      "inputs": [
        {
          "internalType": "uint256",
          "name": "seed",
          "type": "uint256"
        }
      ],
      "name": "getFilters",
      "outputs": [
        {
          "internalType": "string",
          "name": "",
          "type": "string"
        }
      ],
      "stateMutability": "pure",
      "type": "function"
    },
    {
      "inputs": [
        {
          "internalType": "uint256",
          "name": "seed",
          "type": "uint256"
        },
        {
          "components": [
            {
              "internalType": "uint16",
              "name": "H",
              "type": "uint16"
            },
            {
              "internalType": "uint16",
              "name": "S",
              "type": "uint16"
            },
            {
              "internalType": "uint16",
              "name": "L",
              "type": "uint16"
            }
          ],
          "internalType": "struct Color.HSL",
          "name": "primary",
          "type": "tuple"
        },
        {
          "components": [
            {
              "internalType": "uint16",
              "name": "H",
              "type": "uint16"
            },
            {
              "internalType": "uint16",
              "name": "S",
              "type": "uint16"
            },
            {
              "internalType": "uint16",
              "name": "L",
              "type": "uint16"
            }
          ],
          "internalType": "struct Color.HSL",
          "name": "secondary",
          "type": "tuple"
        },
        {
          "internalType": "uint8",
          "name": "cloudDays",
          "type": "uint8"
        }
      ],
      "name": "getGradients",
      "outputs": [
        {
          "internalType": "string",
          "name": "",
          "type": "string"
        }
      ],
      "stateMutability": "pure",
      "type": "function"
    },
    {
      "inputs": [
        {
          "internalType": "uint256",
          "name": "starSeed",
          "type": "uint256"
        },
        {
          "internalType": "uint256",
          "name": "gazes",
          "type": "uint256"
        },
        {
          "internalType": "bool",
          "name": "daytime",
          "type": "bool"
        }
      ],
      "name": "getStars",
      "outputs": [
        {
          "internalType": "string",
          "name": "",
          "type": "string"
        }
      ],
      "stateMutability": "pure",
      "type": "function"
    },
    {
      "inputs": [
        {
          "internalType": "uint256",
          "name": "tokenId",
          "type": "uint256"
        },
        {
          "internalType": "uint256",
          "name": "nonce",
          "type": "uint256"
        }
      ],
      "name": "psuedorandom",
      "outputs": [
        {
          "internalType": "uint256",
          "name": "",
          "type": "uint256"
        }
      ],
      "stateMutability": "pure",
      "type": "function"
    },
    {
      "inputs": [
        {
          "internalType": "uint16",
          "name": "first",
          "type": "uint16"
        },
        {
          "internalType": "uint16",
          "name": "second",
          "type": "uint16"
        }
      ],
      "name": "subZero",
      "outputs": [
        {
          "internalType": "uint16",
          "name": "",
          "type": "uint16"
        }
      ],
      "stateMutability": "pure",
      "type": "function"
    }
  ],
  "transactionHash": "0x78b7b6cfd797da9741f0babd478e652c898c466312513366afe0663abb174059",
  "args": [],
  "numDeployments": 1,
  "solcInputHash": "024556009ac9c877de40b16c8147d315",
  "bytecode": "0x608060405234801561001057600080fd5b50612a95806100206000396000f3fe608060405234801561001057600080fd5b506004361061007d5760003560e01c80633a20c8791161005b5780633a20c879146100e4578063428f5eb6146101055780636e6e0cf014610118578063a1759dfa1461012b57600080fd5b8063075d103714610082578063176a29a5146100ab5780633329f04f146100be575b600080fd5b61009561009036600461147f565b61013e565b6040516100a291906114f3565b60405180910390f35b6100956100b9366004611536565b610780565b6100d16100cc366004611551565b610968565b60405161ffff90911681526020016100a2565b6100f76100f236600461158a565b610a0c565b6040519081526020016100a2565b6100956101133660046115c3565b610a8a565b610095610126366004611693565b610b43565b6100956101393660046116ac565b610d9c565b604051633a20c87960e01b815260048101859052607b602482015260609060009073bB158e58EE3b8fb58335E9E3B076240205333C7290631b0d4b4d90602d908390633a20c87990604401602060405180830381865af41580156101a6573d6000803e3d6000fd5b505050506040513d601f19601f820116820180604052508101906101ca91906116e1565b6101d491906116fa565b6040516001600160e01b031960e084901b16815261ffff9091166004820152602401600060405180830381865af4158015610213573d6000803e3d6000fd5b505050506040513d6000823e601f3d908101601f1916820160405261023b919081019061171c565b905060008160405160200161025091906117e5565b60408051601f19818403018152908290526303f1727f60e21b82529150819073bB158e58EE3b8fb58335E9E3B076240205333C7290630fc5c9fc90610299908a90600401611877565b600060405180830381865af41580156102b6573d6000803e3d6000fd5b505050506040513d6000823e601f3d908101601f191682016040526102de919081019061171c565b6040516020016102ef9291906118a2565b60408051601f19818403018152908290526303f1727f60e21b82529150819073bB158e58EE3b8fb58335E9E3B076240205333C7290630fc5c9fc90610338908990600401611877565b600060405180830381865af4158015610355573d6000803e3d6000fd5b505050506040513d6000823e601f3d908101601f1916820160405261037d919081019061171c565b60405160200161038e929190611920565b6040516020818303038152906040529050808273bB158e58EE3b8fb58335E9E3B076240205333C72631b0d4b4d8760ff166000146103cc57876103cf565b60015b6040516001600160e01b031960e084901b16815260ff9091166004820152602401600060405180830381865af415801561040d573d6000803e3d6000fd5b505050506040513d6000823e601f3d908101601f19168201604052610435919081019061171c565b73bB158e58EE3b8fb58335E9E3B076240205333C72631b0d4b4d60ff89161561045e5788610461565b60015b6040516001600160e01b031960e084901b16815260ff9091166004820152602401600060405180830381865af415801561049f573d6000803e3d6000fd5b505050506040513d6000823e601f3d908101601f191682016040526104c7919081019061171c565b6040516020016104da949392919061199f565b60408051601f1981840301815290829052631b21034b60e31b8252915060009073bB158e58EE3b8fb58335E9E3B076240205333C729063d9081a5890610527908a9060f090600401611b48565b606060405180830381865af4158015610544573d6000803e3d6000fd5b505050506040513d601f19601f820116820180604052508101906105689190611b84565b605a60408083019190915251631b21034b60e31b8152909150829073bB158e58EE3b8fb58335E9E3B076240205333C7290630fc5c9fc90829063d9081a58906105b8908d9060b490600401611b48565b606060405180830381865af41580156105d5573d6000803e3d6000fd5b505050506040513d601f19601f820116820180604052508101906105f99190611b84565b6040518263ffffffff1660e01b81526004016106159190611877565b600060405180830381865af4158015610632573d6000803e3d6000fd5b505050506040513d6000823e601f3d908101601f1916820160405261065a919081019061171c565b73bB158e58EE3b8fb58335E9E3B076240205333C72630fc5c9fc73bB158e58EE3b8fb58335E9E3B076240205333C7263d9081a588b60b46040518363ffffffff1660e01b81526004016106ae929190611b48565b606060405180830381865af41580156106cb573d6000803e3d6000fd5b505050506040513d601f19601f820116820180604052508101906106ef9190611b84565b6040518263ffffffff1660e01b815260040161070b9190611877565b600060405180830381865af4158015610728573d6000803e3d6000fd5b505050506040513d6000823e601f3d908101601f19168201604052610750919081019061171c565b60405160200161076293929190611bd8565b60408051601f1981840301815291905293505050505b949350505050565b60408051602081019091526000815260609073bB158e58EE3b8fb58335E9E3B076240205333C72631b0d4b4d846107b85760016107bb565b60005b6040516001600160e01b031960e084901b16815260ff9091166004820152602401600060405180830381865af41580156107f9573d6000803e3d6000fd5b505050506040513d6000823e601f3d908101601f19168201604052610821919081019061171c565b73bB158e58EE3b8fb58335E9E3B076240205333C72631b0d4b4d8561084757600061084a565b60015b6040516001600160e01b031960e084901b16815260ff9091166004820152602401600060405180830381865af4158015610888573d6000803e3d6000fd5b505050506040513d6000823e601f3d908101601f191682016040526108b0919081019061171c565b73bB158e58EE3b8fb58335E9E3B076240205333C72631b0d4b4d866108d65760076108d9565b60005b6040516001600160e01b031960e084901b16815260ff9091166004820152602401600060405180830381865af4158015610917573d6000803e3d6000fd5b505050506040513d6000823e601f3d908101601f1916820160405261093f919081019061171c565b60405160200161095193929190611cf7565b60408051601f198184030181529190529392505050565b6040517f3329f04f00000000000000000000000000000000000000000000000000000000815261ffff80841660048301528216602482015260009073bB158e58EE3b8fb58335E9E3B076240205333C7290633329f04f90604401602060405180830381865af41580156109df573d6000803e3d6000fd5b505050506040513d601f19601f82011682018060405250810190610a039190611ece565b90505b92915050565b604051633a20c87960e01b8152600481018390526024810182905260009073bB158e58EE3b8fb58335E9E3B076240205333C7290633a20c87990604401602060405180830381865af4158015610a66573d6000803e3d6000fd5b505050506040513d601f19601f82011682018060405250810190610a0391906116e1565b604080516060818101835260208089015161ffff90811684526064828501819052601e858701819052865180860188528c8801519093168352928201529384015287810151909290600090610ae19084848961013e565b610aee8a60800151610b43565b610af789610780565b610b068c606001518c8c610d9c565b610b12898e8e8e611196565b604051602001610b26959493929190611eeb565b60408051808303601f190181529190529998505050505050505050565b60408051602081018252600081529051633a20c87960e01b815260048101839052607b602482015260609190819073bB158e58EE3b8fb58335E9E3B076240205333C7290631b0d4b4d90612710908390633a20c87990604401602060405180830381865af4158015610bb9573d6000803e3d6000fd5b505050506040513d601f19601f82011682018060405250810190610bdd91906116e1565b610be791906116fa565b6040516001600160e01b031960e084901b16815261ffff9091166004820152602401600060405180830381865af4158015610c26573d6000803e3d6000fd5b505050506040513d6000823e601f3d908101601f19168201604052610c4e919081019061171c565b604051602001610c5f92919061205a565b60408051601f1981840301815290829052633a20c87960e01b825260048201859052607b60248301529150819073bB158e58EE3b8fb58335E9E3B076240205333C7290631b0d4b4d90612710908390633a20c87990604401602060405180830381865af4158015610cd4573d6000803e3d6000fd5b505050506040513d601f19601f82011682018060405250810190610cf891906116e1565b610d0291906116fa565b6040516001600160e01b031960e084901b16815261ffff9091166004820152602401600060405180830381865af4158015610d41573d6000803e3d6000fd5b505050506040513d6000823e601f3d908101601f19168201604052610d69919081019061171c565b604051602001610d7a92919061215b565b604051602081830303815290604052905080604051602001610951919061234d565b60608115610db9575060408051602081019091526000815261118f565b6000601e841115610dcc5750601e610dcf565b50825b604080518082018252601081527f3c672066696c6c3d227768697465223e0000000000000000000000000000000060208083019190915282518082018452600080825284519283019094528382529192805b8560ff168160ff16101561116657604051633a20c87960e01b8152600481018b905260ff8216602482015273bB158e58EE3b8fb58335E9E3B076240205333C7290631b0d4b4d906101ce908390633a20c87990604401602060405180830381865af4158015610e94573d6000803e3d6000fd5b505050506040513d601f19601f82011682018060405250810190610eb891906116e1565b610ec291906116fa565b610ecd9060196124fc565b6040516001600160e01b031960e084901b16815261ffff9091166004820152602401600060405180830381865af4158015610f0c573d6000803e3d6000fd5b505050506040513d6000823e601f3d908101601f19168201604052610f34919081019061171c565b604051633a20c87960e01b8152600481018c905260ff838116602483015291955073bB158e58EE3b8fb58335E9E3B076240205333C7291631b0d4b4d918390633a20c87990604401602060405180830381865af4158015610f99573d6000803e3d6000fd5b505050506040513d601f19601f82011682018060405250810190610fbd91906116e1565b610fc791906116fa565b610fd29060196124fc565b6040516001600160e01b031960e084901b16815261ffff9091166004820152602401600060405180830381865af4158015611011573d6000803e3d6000fd5b505050506040513d6000823e601f3d908101601f19168201604052611039919081019061171c565b604051633a20c87960e01b8152600481018c905260ff8316602482015290935060039073bB158e58EE3b8fb58335E9E3B076240205333C7290633a20c87990604401602060405180830381865af4158015611098573d6000803e3d6000fd5b505050506040513d601f19601f820116820180604052508101906110bc91906116e1565b6110c691906116fa565b91508160ff166000036110fe578484846040516020016110e89392919061251e565b6040516020818303038152906040529450611154565b8160ff1660010361111e578484846040516020016110e893929190612614565b8160ff1660020361115457848484868660405160200161114295949392919061279d565b60405160208183030381529060405294505b8061115e81612935565b915050610e21565b50836040516020016111789190612954565b604051602081830303815290604052955050505050505b9392505050565b60606111a4858585856111f4565b6111b0868686866112b3565b6111bc878787876111f4565b6111c888888888611323565b6040516020016111db9493929190612995565b6040516020818303038152906040529050949350505050565b60606001600160a01b0385166112195750604080516020810190915260008152610778565b6040517fe519084400000000000000000000000000000000000000000000000000000000815285906001600160a01b0382169063e519084490611264908890889088906004016129ec565b600060405180830381865afa158015611281573d6000803e3d6000fd5b505050506040513d6000823e601f3d908101601f191682016040526112a9919081019061171c565b9695505050505050565b60606001600160a01b0385166112d85750604080516020810190915260008152610778565b6040517f9402055500000000000000000000000000000000000000000000000000000000815285906001600160a01b03821690639402055590611264908890889088906004016129ec565b60606001600160a01b0385166113485750604080516020810190915260008152610778565b6040517fbcefc12900000000000000000000000000000000000000000000000000000000815285906001600160a01b0382169063bcefc12990611264908890889088906004016129ec565b634e487b7160e01b600052604160045260246000fd5b6040516060810167ffffffffffffffff811182821017156113cc576113cc611393565b60405290565b604051610100810167ffffffffffffffff811182821017156113cc576113cc611393565b61ffff8116811461140657600080fd5b50565b8035611414816113f6565b919050565b60006060828403121561142b57600080fd5b6114336113a9565b90508135611440816113f6565b81526020820135611450816113f6565b60208201526040820135611463816113f6565b604082015292915050565b803560ff8116811461141457600080fd5b600080600080610100858703121561149657600080fd5b843593506114a78660208701611419565b92506114b68660808701611419565b91506114c460e0860161146e565b905092959194509250565b60005b838110156114ea5781810151838201526020016114d2565b50506000910152565b60208152600082518060208401526115128160408501602087016114cf565b601f01601f19169190910160400192915050565b8035801515811461141457600080fd5b60006020828403121561154857600080fd5b610a0382611526565b6000806040838503121561156457600080fd5b823561156f816113f6565b9150602083013561157f816113f6565b809150509250929050565b6000806040838503121561159d57600080fd5b50508035926020909101359150565b80356001600160a01b038116811461141457600080fd5b60008060008060008587036101808112156115dd57600080fd5b610100808212156115ed57600080fd5b6115f56113d2565b9150873582526020880135611609816113f6565b602083015261161a60408901611409565b6040830152606088013560608301526080880135608083015260a088013560a083015260c088013560c083015260e088013560e083015281965080880135955050506116696101208701611526565b9250611678610140870161146e565b915061168761016087016115ac565b90509295509295909350565b6000602082840312156116a557600080fd5b5035919050565b6000806000606084860312156116c157600080fd5b83359250602084013591506116d860408501611526565b90509250925092565b6000602082840312156116f357600080fd5b5051919050565b60008261171757634e487b7160e01b600052601260045260246000fd5b500690565b60006020828403121561172e57600080fd5b815167ffffffffffffffff8082111561174657600080fd5b818401915084601f83011261175a57600080fd5b81518181111561176c5761176c611393565b604051601f8201601f19908116603f0116810190838211818310171561179457611794611393565b816040528281528760208487010111156117ad57600080fd5b6117be8360208301602088016114cf565b979650505050505050565b600081516117db8185602086016114cf565b9290920192915050565b7f3c6c696e6561724772616469656e742069643d22736b794772616469656e742281527f206772616469656e745472616e73666f726d3d22726f7461746528000000000060208201526000825161184381603b8501602087016114cf565b7f29223e0000000000000000000000000000000000000000000000000000000000603b939091019283015250603e01919050565b60608101610a068284805161ffff908116835260208083015182169084015260409182015116910152565b600083516118b48184602088016114cf565b7f3c73746f70206f66667365743d223025220000000000000000000000000000009083019081526c1039ba37b816b1b7b637b91e9160991b6011820152835161190481601e8401602088016114cf565b6211179f60e91b601e9290910191820152602101949350505050565b600083516119328184602088016114cf565b80830190507f3c73746f70206f66667365743d2231303025220000000000000000000000000081526c1039ba37b816b1b7b637b91e9160991b601382015283516119838160208401602088016114cf565b6211179f60e91b60209290910191820152602301949350505050565b600085516119b1818460208a016114cf565b80830190507f3c2f6c696e6561724772616469656e743e3c6c696e6561724772616469656e7481527f2069643d22636c6f75644772616469656e7422206772616469656e745472616e60208201527f73666f726d3d22726f746174652800000000000000000000000000000000000060408201528551611a3881604e840160208a016114cf565b7f29223e3c73746f702073746f702d6f7061636974793d222e0000000000000000604e92909101918201528451611a768160668401602089016114cf565b7f22206f66667365743d22313525222f3e3c73746f702073746f702d6f70616369606692909101918201527f74793d222e3522206f66667365743d22333025222f3e0000000000000000000060868201527f3c73746f702073746f702d6f7061636974793d222e0000000000000000000000609c8201528351611b008160b18401602088016114cf565b611b3c60b1828401017f22206f66667365743d22353025222f3e3c2f6c696e6561724772616469656e748152601f60f91b602082015260210190565b98975050505050505050565b60808101611b738285805161ffff908116835260208083015182169084015260409182015116910152565b61ffff831660608301529392505050565b600060608284031215611b9657600080fd5b611b9e6113a9565b8251611ba9816113f6565b81526020830151611bb9816113f6565b60208201526040830151611bcc816113f6565b60408201529392505050565b60008451611bea8184602089016114cf565b80830190507f3c6c696e6561724772616469656e742069643d226461794772616469656e742281527f206772616469656e745472616e73666f726d3d22726f7461746528313329223e60208201527f3c73746f70206f66667365743d223025222073746f702d636f6c6f723d22000060408201528451611c7181605e8401602089016114cf565b8082019150506211179f60e91b80605e8301527f3c73746f70206f66667365743d2231303025222073746f702d636f6c6f723d2260618301528451611cbd8160818501602089016114cf565b60819201918201527f3c2f6c696e6561724772616469656e743e000000000000000000000000000000608482015260950195945050505050565b7f3c726563742077696474683d223130302522206865696768743d22313030252281527f2066696c7465723d2275726c282373746172732922206f7061636974793d2200602082015260008451611d5581603f8501602089016114cf565b6211179f60e91b603f918401918201527f3c706174682066696c6c3d2275726c28236461794772616469656e742922206460428201527f3d224d302030683531327635313248307a22206f7061636974793d220000000060628201528451611dc481607e8401602089016114cf565b7f22202066696c7465723d2275726c28236c6967687429222f3e00000000000000607e92909101918201527f3c706174682066696c6c3d2275726c2823736b794772616469656e742922202060978201527f643d224d302030683531327635313248307a22206f7061636974793d222e000060b7820152611e4860d58201856117c9565b6211179f60e91b815290507f3c706174682066696c6c3d2275726c2823636c6f75644772616469656e74292260038201527f2066696c7465723d2275726c2823636c6f756473292220643d224d302030683560238201527f36357635313248307a222f3e00000000000000000000000000000000000000006043820152604f81016112a9565b600060208284031215611ee057600080fd5b815161118f816113f6565b7f3c7376672076696577426f783d2230203020353132203531322220786d6c6e7381527f3d22687474703a2f2f7777772e77332e6f72672f323030302f737667223e3c6360208201527f6c6970506174682069643d22626f78223e3c7061746820643d224d302030683560408201527f31327635313248307a222f3e3c2f636c6970506174683e3c646566733e000000606082015260008651611f9581607d850160208b016114cf565b865190830190611fac81607d840160208b016114cf565b7f3c2f646566733e3c7376672076696577426f783d223020302035313220353132607d92909101918201527f2220636c69702d706174683d2275726c2823626f7829223e0000000000000000609d82015285516120108160b5840160208a016114cf565b61202861202260b583850101886117c9565b866117c9565b91505061203d81651e17b9bb339f60d11b9052565b651e17b9bb339f60d11b6006820152600c01979650505050505050565b6000835161206c8184602088016114cf565b80830190507f3c66696c7465722069643d227374617273223e3c666554757262756c656e636581527f20626173654672657175656e63793d222e33352220736565643d220000000000602082015283516120cd81603b8401602088016114cf565b6211179f60e91b603b92909101918201527f3c6665436f6c6f724d61747269782076616c7565733d2230203020302039202d603e8201527f342030203020302039202d342030203020302039202d34203020302030203020605e8201527f31222f3e3c2f66696c7465723e00000000000000000000000000000000000000607e820152608b01949350505050565b6000835161216d8184602088016114cf565b80830190507f3c66696c7465722069643d22636c6f7564732220783d222d3530252220793d2281527f2d35302522206865696768743d2232303025222077696474683d22323030252260208201527f3e3c6665476175737369616e426c757220696e3d22736b79222073746444657660408201527f696174696f6e3d2232302220726573756c743d22736b79626c7572222f3e000060608201527f3c666554757262756c656e636520747970653d226672616374616c4e6f697365607e8201527f2220626173654672657175656e63793d222e303122206e756d4f637461766573609e8201527f3d22352220726573756c743d22736b796e6f6973652220736565643d2200000060be820152835161228c8160db8401602088016114cf565b6211179f60e91b910160db81018290527f3c6665436f6c6f724d61747269782076616c7565733d2231203020302030203060de8201527f20312030203020302030203120302030203020302033202d31202d312030203060fe82015261011e8101919091527f3c6665436f6d706f73697465206f70657261746f723d22696e2220696e323d226101218201527f536f7572636547726170686963222f3e3c2f66696c7465723e0000000000000061014182015261015a810195945050505050565b6000825161235f8184602087016114cf565b7f3c66696c7465722069643d226c69676874223e3c666553706563756c61724c699201918252507f676874696e6720726573756c743d22737065634f7574222073706563756c617260208201527f4578706f6e656e743d2231303022206c69676874696e672d636f6c6f723d227760408201527f68697465223e000000000000000000000000000000000000000000000000000060608201527f3c6665506f696e744c6967687420783d2231302220793d22373022207a3d223360668201527f3030222f3e3c2f666553706563756c61724c69676874696e673e00000000000060868201527f3c6665436f6d706f7369746520696e3d22536f7572636547726170686963222060a08201527f696e323d22737065634f757422206f70657261746f723d2261726974686d657460c08201527f696322206b313d223022206b323d223122206b333d223122206b343d2230222f60e08201527f3e3c2f66696c7465723e0000000000000000000000000000000000000000000061010082015261010a01919050565b634e487b7160e01b600052601160045260246000fd5b61ffff818116838216019080821115612517576125176124e6565b5092915050565b600084516125308184602089016114cf565b7f3c636972636c6520723d2231222063783d220000000000000000000000000000908301908152845161256a8160128401602089016114cf565b65111031bc9e9160d11b6012929091019182015283516125918160188401602088016114cf565b7f222066696c6c3d2277686974652220206f7061636974793d2231223e00000000601892909101918201527f3c616e696d617465206174747269627574654e616d653d2272222076616c756560348201527f733d22303b333b3122206475723d223173222f3e3c2f636972636c653e000000605482015260710195945050505050565b600084516126268184602089016114cf565b7f3c7061746820643d224d20000000000000000000000000000000000000000000908301908152845161266081600b8401602089016114cf565b7f2c00000000000000000000000000000000000000000000000000000000000000600b9290910191820152835161269e81600c8401602088016114cf565b7f6320372c3020372c3020372c2d37206320302c3720302c3720372c372063202d600c92909101918201527f372c30202d372c30202d372c37206320302c2d3720302c2d37202d372c2d3722602c820152601f60f91b604c8201527f3c616e696d6174655472616e73666f726d206174747269627574654e616d653d604d8201527f227472616e73666f726d2220747970653d227363616c65222066726f6d3d2230606d8201527f20302220746f3d223120312220626567696e3d22307322206475723d22302e35608d8201527f732220726570656174436f756e743d2231222f3e3c2f706174683e000000000060ad82015260c80195945050505050565b600086516127af818460208b016114cf565b7f3c636972636c6520723d2233222063783d22000000000000000000000000000090830190815286516127e9816012840160208b016114cf565b65111031bc9e9160d11b601292909101918201528551612810816018840160208a016114cf565b7f22206f7061636974793d22302e33223e3c616e696d6174652061747472696275601892909101918201527f74654e616d653d2272222076616c7565733d22303b353b3322206475723d223160388201527f73222f3e3c2f636972636c653e0000000000000000000000000000000000000060588201527f3c636972636c6520723d2231222063783d220000000000000000000000000000606582015284516128c08160778401602089016114cf565b016128d66077820165111031bc9e9160d11b9052565b611b3c6128e6607d8301866117c9565b7f223e3c616e696d617465206174747269627574654e616d653d2272222076616c81527f7565733d22303b333b3122206475723d223173222f3e3c2f636972636c653e006020820152603f0190565b600060ff821660ff810361294b5761294b6124e6565b60010192915050565b600082516129668184602087016114cf565b7f3c2f673e00000000000000000000000000000000000000000000000000000000920191825250600401919050565b600085516129a7818460208a016114cf565b8551908301906129bb818360208a016114cf565b85519101906129ce8183602089016114cf565b84519101906129e18183602088016114cf565b019695505050505050565b60006101408201905084518252602085015161ffff80821660208501528060408801511660408501525050606085015160608301526080850151608083015260a085015160a083015260c085015160c083015260e085015160e0830152836101008301526107786101208301841515905256fea26469706673582212202808de9bd79de3749e901441cb73b4427c4e3a19c3495a5ee50e6d80ed9adb8e64736f6c63430008120033",
  "deployedBytecode": "0x608060405234801561001057600080fd5b506004361061007d5760003560e01c80633a20c8791161005b5780633a20c879146100e4578063428f5eb6146101055780636e6e0cf014610118578063a1759dfa1461012b57600080fd5b8063075d103714610082578063176a29a5146100ab5780633329f04f146100be575b600080fd5b61009561009036600461147f565b61013e565b6040516100a291906114f3565b60405180910390f35b6100956100b9366004611536565b610780565b6100d16100cc366004611551565b610968565b60405161ffff90911681526020016100a2565b6100f76100f236600461158a565b610a0c565b6040519081526020016100a2565b6100956101133660046115c3565b610a8a565b610095610126366004611693565b610b43565b6100956101393660046116ac565b610d9c565b604051633a20c87960e01b815260048101859052607b602482015260609060009073__$11e21e6c56ca563b85c74e3fd3a08242f9$__90631b0d4b4d90602d908390633a20c87990604401602060405180830381865af41580156101a6573d6000803e3d6000fd5b505050506040513d601f19601f820116820180604052508101906101ca91906116e1565b6101d491906116fa565b6040516001600160e01b031960e084901b16815261ffff9091166004820152602401600060405180830381865af4158015610213573d6000803e3d6000fd5b505050506040513d6000823e601f3d908101601f1916820160405261023b919081019061171c565b905060008160405160200161025091906117e5565b60408051601f19818403018152908290526303f1727f60e21b82529150819073__$11e21e6c56ca563b85c74e3fd3a08242f9$__90630fc5c9fc90610299908a90600401611877565b600060405180830381865af41580156102b6573d6000803e3d6000fd5b505050506040513d6000823e601f3d908101601f191682016040526102de919081019061171c565b6040516020016102ef9291906118a2565b60408051601f19818403018152908290526303f1727f60e21b82529150819073__$11e21e6c56ca563b85c74e3fd3a08242f9$__90630fc5c9fc90610338908990600401611877565b600060405180830381865af4158015610355573d6000803e3d6000fd5b505050506040513d6000823e601f3d908101601f1916820160405261037d919081019061171c565b60405160200161038e929190611920565b6040516020818303038152906040529050808273__$11e21e6c56ca563b85c74e3fd3a08242f9$__631b0d4b4d8760ff166000146103cc57876103cf565b60015b6040516001600160e01b031960e084901b16815260ff9091166004820152602401600060405180830381865af415801561040d573d6000803e3d6000fd5b505050506040513d6000823e601f3d908101601f19168201604052610435919081019061171c565b73__$11e21e6c56ca563b85c74e3fd3a08242f9$__631b0d4b4d60ff89161561045e5788610461565b60015b6040516001600160e01b031960e084901b16815260ff9091166004820152602401600060405180830381865af415801561049f573d6000803e3d6000fd5b505050506040513d6000823e601f3d908101601f191682016040526104c7919081019061171c565b6040516020016104da949392919061199f565b60408051601f1981840301815290829052631b21034b60e31b8252915060009073__$11e21e6c56ca563b85c74e3fd3a08242f9$__9063d9081a5890610527908a9060f090600401611b48565b606060405180830381865af4158015610544573d6000803e3d6000fd5b505050506040513d601f19601f820116820180604052508101906105689190611b84565b605a60408083019190915251631b21034b60e31b8152909150829073__$11e21e6c56ca563b85c74e3fd3a08242f9$__90630fc5c9fc90829063d9081a58906105b8908d9060b490600401611b48565b606060405180830381865af41580156105d5573d6000803e3d6000fd5b505050506040513d601f19601f820116820180604052508101906105f99190611b84565b6040518263ffffffff1660e01b81526004016106159190611877565b600060405180830381865af4158015610632573d6000803e3d6000fd5b505050506040513d6000823e601f3d908101601f1916820160405261065a919081019061171c565b73__$11e21e6c56ca563b85c74e3fd3a08242f9$__630fc5c9fc73__$11e21e6c56ca563b85c74e3fd3a08242f9$__63d9081a588b60b46040518363ffffffff1660e01b81526004016106ae929190611b48565b606060405180830381865af41580156106cb573d6000803e3d6000fd5b505050506040513d601f19601f820116820180604052508101906106ef9190611b84565b6040518263ffffffff1660e01b815260040161070b9190611877565b600060405180830381865af4158015610728573d6000803e3d6000fd5b505050506040513d6000823e601f3d908101601f19168201604052610750919081019061171c565b60405160200161076293929190611bd8565b60408051601f1981840301815291905293505050505b949350505050565b60408051602081019091526000815260609073__$11e21e6c56ca563b85c74e3fd3a08242f9$__631b0d4b4d846107b85760016107bb565b60005b6040516001600160e01b031960e084901b16815260ff9091166004820152602401600060405180830381865af41580156107f9573d6000803e3d6000fd5b505050506040513d6000823e601f3d908101601f19168201604052610821919081019061171c565b73__$11e21e6c56ca563b85c74e3fd3a08242f9$__631b0d4b4d8561084757600061084a565b60015b6040516001600160e01b031960e084901b16815260ff9091166004820152602401600060405180830381865af4158015610888573d6000803e3d6000fd5b505050506040513d6000823e601f3d908101601f191682016040526108b0919081019061171c565b73__$11e21e6c56ca563b85c74e3fd3a08242f9$__631b0d4b4d866108d65760076108d9565b60005b6040516001600160e01b031960e084901b16815260ff9091166004820152602401600060405180830381865af4158015610917573d6000803e3d6000fd5b505050506040513d6000823e601f3d908101601f1916820160405261093f919081019061171c565b60405160200161095193929190611cf7565b60408051601f198184030181529190529392505050565b6040517f3329f04f00000000000000000000000000000000000000000000000000000000815261ffff80841660048301528216602482015260009073__$11e21e6c56ca563b85c74e3fd3a08242f9$__90633329f04f90604401602060405180830381865af41580156109df573d6000803e3d6000fd5b505050506040513d601f19601f82011682018060405250810190610a039190611ece565b90505b92915050565b604051633a20c87960e01b8152600481018390526024810182905260009073__$11e21e6c56ca563b85c74e3fd3a08242f9$__90633a20c87990604401602060405180830381865af4158015610a66573d6000803e3d6000fd5b505050506040513d601f19601f82011682018060405250810190610a0391906116e1565b604080516060818101835260208089015161ffff90811684526064828501819052601e858701819052865180860188528c8801519093168352928201529384015287810151909290600090610ae19084848961013e565b610aee8a60800151610b43565b610af789610780565b610b068c606001518c8c610d9c565b610b12898e8e8e611196565b604051602001610b26959493929190611eeb565b60408051808303601f190181529190529998505050505050505050565b60408051602081018252600081529051633a20c87960e01b815260048101839052607b602482015260609190819073__$11e21e6c56ca563b85c74e3fd3a08242f9$__90631b0d4b4d90612710908390633a20c87990604401602060405180830381865af4158015610bb9573d6000803e3d6000fd5b505050506040513d601f19601f82011682018060405250810190610bdd91906116e1565b610be791906116fa565b6040516001600160e01b031960e084901b16815261ffff9091166004820152602401600060405180830381865af4158015610c26573d6000803e3d6000fd5b505050506040513d6000823e601f3d908101601f19168201604052610c4e919081019061171c565b604051602001610c5f92919061205a565b60408051601f1981840301815290829052633a20c87960e01b825260048201859052607b60248301529150819073__$11e21e6c56ca563b85c74e3fd3a08242f9$__90631b0d4b4d90612710908390633a20c87990604401602060405180830381865af4158015610cd4573d6000803e3d6000fd5b505050506040513d601f19601f82011682018060405250810190610cf891906116e1565b610d0291906116fa565b6040516001600160e01b031960e084901b16815261ffff9091166004820152602401600060405180830381865af4158015610d41573d6000803e3d6000fd5b505050506040513d6000823e601f3d908101601f19168201604052610d69919081019061171c565b604051602001610d7a92919061215b565b604051602081830303815290604052905080604051602001610951919061234d565b60608115610db9575060408051602081019091526000815261118f565b6000601e841115610dcc5750601e610dcf565b50825b604080518082018252601081527f3c672066696c6c3d227768697465223e0000000000000000000000000000000060208083019190915282518082018452600080825284519283019094528382529192805b8560ff168160ff16101561116657604051633a20c87960e01b8152600481018b905260ff8216602482015273__$11e21e6c56ca563b85c74e3fd3a08242f9$__90631b0d4b4d906101ce908390633a20c87990604401602060405180830381865af4158015610e94573d6000803e3d6000fd5b505050506040513d601f19601f82011682018060405250810190610eb891906116e1565b610ec291906116fa565b610ecd9060196124fc565b6040516001600160e01b031960e084901b16815261ffff9091166004820152602401600060405180830381865af4158015610f0c573d6000803e3d6000fd5b505050506040513d6000823e601f3d908101601f19168201604052610f34919081019061171c565b604051633a20c87960e01b8152600481018c905260ff838116602483015291955073__$11e21e6c56ca563b85c74e3fd3a08242f9$__91631b0d4b4d918390633a20c87990604401602060405180830381865af4158015610f99573d6000803e3d6000fd5b505050506040513d601f19601f82011682018060405250810190610fbd91906116e1565b610fc791906116fa565b610fd29060196124fc565b6040516001600160e01b031960e084901b16815261ffff9091166004820152602401600060405180830381865af4158015611011573d6000803e3d6000fd5b505050506040513d6000823e601f3d908101601f19168201604052611039919081019061171c565b604051633a20c87960e01b8152600481018c905260ff8316602482015290935060039073__$11e21e6c56ca563b85c74e3fd3a08242f9$__90633a20c87990604401602060405180830381865af4158015611098573d6000803e3d6000fd5b505050506040513d601f19601f820116820180604052508101906110bc91906116e1565b6110c691906116fa565b91508160ff166000036110fe578484846040516020016110e89392919061251e565b6040516020818303038152906040529450611154565b8160ff1660010361111e578484846040516020016110e893929190612614565b8160ff1660020361115457848484868660405160200161114295949392919061279d565b60405160208183030381529060405294505b8061115e81612935565b915050610e21565b50836040516020016111789190612954565b604051602081830303815290604052955050505050505b9392505050565b60606111a4858585856111f4565b6111b0868686866112b3565b6111bc878787876111f4565b6111c888888888611323565b6040516020016111db9493929190612995565b6040516020818303038152906040529050949350505050565b60606001600160a01b0385166112195750604080516020810190915260008152610778565b6040517fe519084400000000000000000000000000000000000000000000000000000000815285906001600160a01b0382169063e519084490611264908890889088906004016129ec565b600060405180830381865afa158015611281573d6000803e3d6000fd5b505050506040513d6000823e601f3d908101601f191682016040526112a9919081019061171c565b9695505050505050565b60606001600160a01b0385166112d85750604080516020810190915260008152610778565b6040517f9402055500000000000000000000000000000000000000000000000000000000815285906001600160a01b03821690639402055590611264908890889088906004016129ec565b60606001600160a01b0385166113485750604080516020810190915260008152610778565b6040517fbcefc12900000000000000000000000000000000000000000000000000000000815285906001600160a01b0382169063bcefc12990611264908890889088906004016129ec565b634e487b7160e01b600052604160045260246000fd5b6040516060810167ffffffffffffffff811182821017156113cc576113cc611393565b60405290565b604051610100810167ffffffffffffffff811182821017156113cc576113cc611393565b61ffff8116811461140657600080fd5b50565b8035611414816113f6565b919050565b60006060828403121561142b57600080fd5b6114336113a9565b90508135611440816113f6565b81526020820135611450816113f6565b60208201526040820135611463816113f6565b604082015292915050565b803560ff8116811461141457600080fd5b600080600080610100858703121561149657600080fd5b843593506114a78660208701611419565b92506114b68660808701611419565b91506114c460e0860161146e565b905092959194509250565b60005b838110156114ea5781810151838201526020016114d2565b50506000910152565b60208152600082518060208401526115128160408501602087016114cf565b601f01601f19169190910160400192915050565b8035801515811461141457600080fd5b60006020828403121561154857600080fd5b610a0382611526565b6000806040838503121561156457600080fd5b823561156f816113f6565b9150602083013561157f816113f6565b809150509250929050565b6000806040838503121561159d57600080fd5b50508035926020909101359150565b80356001600160a01b038116811461141457600080fd5b60008060008060008587036101808112156115dd57600080fd5b610100808212156115ed57600080fd5b6115f56113d2565b9150873582526020880135611609816113f6565b602083015261161a60408901611409565b6040830152606088013560608301526080880135608083015260a088013560a083015260c088013560c083015260e088013560e083015281965080880135955050506116696101208701611526565b9250611678610140870161146e565b915061168761016087016115ac565b90509295509295909350565b6000602082840312156116a557600080fd5b5035919050565b6000806000606084860312156116c157600080fd5b83359250602084013591506116d860408501611526565b90509250925092565b6000602082840312156116f357600080fd5b5051919050565b60008261171757634e487b7160e01b600052601260045260246000fd5b500690565b60006020828403121561172e57600080fd5b815167ffffffffffffffff8082111561174657600080fd5b818401915084601f83011261175a57600080fd5b81518181111561176c5761176c611393565b604051601f8201601f19908116603f0116810190838211818310171561179457611794611393565b816040528281528760208487010111156117ad57600080fd5b6117be8360208301602088016114cf565b979650505050505050565b600081516117db8185602086016114cf565b9290920192915050565b7f3c6c696e6561724772616469656e742069643d22736b794772616469656e742281527f206772616469656e745472616e73666f726d3d22726f7461746528000000000060208201526000825161184381603b8501602087016114cf565b7f29223e0000000000000000000000000000000000000000000000000000000000603b939091019283015250603e01919050565b60608101610a068284805161ffff908116835260208083015182169084015260409182015116910152565b600083516118b48184602088016114cf565b7f3c73746f70206f66667365743d223025220000000000000000000000000000009083019081526c1039ba37b816b1b7b637b91e9160991b6011820152835161190481601e8401602088016114cf565b6211179f60e91b601e9290910191820152602101949350505050565b600083516119328184602088016114cf565b80830190507f3c73746f70206f66667365743d2231303025220000000000000000000000000081526c1039ba37b816b1b7b637b91e9160991b601382015283516119838160208401602088016114cf565b6211179f60e91b60209290910191820152602301949350505050565b600085516119b1818460208a016114cf565b80830190507f3c2f6c696e6561724772616469656e743e3c6c696e6561724772616469656e7481527f2069643d22636c6f75644772616469656e7422206772616469656e745472616e60208201527f73666f726d3d22726f746174652800000000000000000000000000000000000060408201528551611a3881604e840160208a016114cf565b7f29223e3c73746f702073746f702d6f7061636974793d222e0000000000000000604e92909101918201528451611a768160668401602089016114cf565b7f22206f66667365743d22313525222f3e3c73746f702073746f702d6f70616369606692909101918201527f74793d222e3522206f66667365743d22333025222f3e0000000000000000000060868201527f3c73746f702073746f702d6f7061636974793d222e0000000000000000000000609c8201528351611b008160b18401602088016114cf565b611b3c60b1828401017f22206f66667365743d22353025222f3e3c2f6c696e6561724772616469656e748152601f60f91b602082015260210190565b98975050505050505050565b60808101611b738285805161ffff908116835260208083015182169084015260409182015116910152565b61ffff831660608301529392505050565b600060608284031215611b9657600080fd5b611b9e6113a9565b8251611ba9816113f6565b81526020830151611bb9816113f6565b60208201526040830151611bcc816113f6565b60408201529392505050565b60008451611bea8184602089016114cf565b80830190507f3c6c696e6561724772616469656e742069643d226461794772616469656e742281527f206772616469656e745472616e73666f726d3d22726f7461746528313329223e60208201527f3c73746f70206f66667365743d223025222073746f702d636f6c6f723d22000060408201528451611c7181605e8401602089016114cf565b8082019150506211179f60e91b80605e8301527f3c73746f70206f66667365743d2231303025222073746f702d636f6c6f723d2260618301528451611cbd8160818501602089016114cf565b60819201918201527f3c2f6c696e6561724772616469656e743e000000000000000000000000000000608482015260950195945050505050565b7f3c726563742077696474683d223130302522206865696768743d22313030252281527f2066696c7465723d2275726c282373746172732922206f7061636974793d2200602082015260008451611d5581603f8501602089016114cf565b6211179f60e91b603f918401918201527f3c706174682066696c6c3d2275726c28236461794772616469656e742922206460428201527f3d224d302030683531327635313248307a22206f7061636974793d220000000060628201528451611dc481607e8401602089016114cf565b7f22202066696c7465723d2275726c28236c6967687429222f3e00000000000000607e92909101918201527f3c706174682066696c6c3d2275726c2823736b794772616469656e742922202060978201527f643d224d302030683531327635313248307a22206f7061636974793d222e000060b7820152611e4860d58201856117c9565b6211179f60e91b815290507f3c706174682066696c6c3d2275726c2823636c6f75644772616469656e74292260038201527f2066696c7465723d2275726c2823636c6f756473292220643d224d302030683560238201527f36357635313248307a222f3e00000000000000000000000000000000000000006043820152604f81016112a9565b600060208284031215611ee057600080fd5b815161118f816113f6565b7f3c7376672076696577426f783d2230203020353132203531322220786d6c6e7381527f3d22687474703a2f2f7777772e77332e6f72672f323030302f737667223e3c6360208201527f6c6970506174682069643d22626f78223e3c7061746820643d224d302030683560408201527f31327635313248307a222f3e3c2f636c6970506174683e3c646566733e000000606082015260008651611f9581607d850160208b016114cf565b865190830190611fac81607d840160208b016114cf565b7f3c2f646566733e3c7376672076696577426f783d223020302035313220353132607d92909101918201527f2220636c69702d706174683d2275726c2823626f7829223e0000000000000000609d82015285516120108160b5840160208a016114cf565b61202861202260b583850101886117c9565b866117c9565b91505061203d81651e17b9bb339f60d11b9052565b651e17b9bb339f60d11b6006820152600c01979650505050505050565b6000835161206c8184602088016114cf565b80830190507f3c66696c7465722069643d227374617273223e3c666554757262756c656e636581527f20626173654672657175656e63793d222e33352220736565643d220000000000602082015283516120cd81603b8401602088016114cf565b6211179f60e91b603b92909101918201527f3c6665436f6c6f724d61747269782076616c7565733d2230203020302039202d603e8201527f342030203020302039202d342030203020302039202d34203020302030203020605e8201527f31222f3e3c2f66696c7465723e00000000000000000000000000000000000000607e820152608b01949350505050565b6000835161216d8184602088016114cf565b80830190507f3c66696c7465722069643d22636c6f7564732220783d222d3530252220793d2281527f2d35302522206865696768743d2232303025222077696474683d22323030252260208201527f3e3c6665476175737369616e426c757220696e3d22736b79222073746444657660408201527f696174696f6e3d2232302220726573756c743d22736b79626c7572222f3e000060608201527f3c666554757262756c656e636520747970653d226672616374616c4e6f697365607e8201527f2220626173654672657175656e63793d222e303122206e756d4f637461766573609e8201527f3d22352220726573756c743d22736b796e6f6973652220736565643d2200000060be820152835161228c8160db8401602088016114cf565b6211179f60e91b910160db81018290527f3c6665436f6c6f724d61747269782076616c7565733d2231203020302030203060de8201527f20312030203020302030203120302030203020302033202d31202d312030203060fe82015261011e8101919091527f3c6665436f6d706f73697465206f70657261746f723d22696e2220696e323d226101218201527f536f7572636547726170686963222f3e3c2f66696c7465723e0000000000000061014182015261015a810195945050505050565b6000825161235f8184602087016114cf565b7f3c66696c7465722069643d226c69676874223e3c666553706563756c61724c699201918252507f676874696e6720726573756c743d22737065634f7574222073706563756c617260208201527f4578706f6e656e743d2231303022206c69676874696e672d636f6c6f723d227760408201527f68697465223e000000000000000000000000000000000000000000000000000060608201527f3c6665506f696e744c6967687420783d2231302220793d22373022207a3d223360668201527f3030222f3e3c2f666553706563756c61724c69676874696e673e00000000000060868201527f3c6665436f6d706f7369746520696e3d22536f7572636547726170686963222060a08201527f696e323d22737065634f757422206f70657261746f723d2261726974686d657460c08201527f696322206b313d223022206b323d223122206b333d223122206b343d2230222f60e08201527f3e3c2f66696c7465723e0000000000000000000000000000000000000000000061010082015261010a01919050565b634e487b7160e01b600052601160045260246000fd5b61ffff818116838216019080821115612517576125176124e6565b5092915050565b600084516125308184602089016114cf565b7f3c636972636c6520723d2231222063783d220000000000000000000000000000908301908152845161256a8160128401602089016114cf565b65111031bc9e9160d11b6012929091019182015283516125918160188401602088016114cf565b7f222066696c6c3d2277686974652220206f7061636974793d2231223e00000000601892909101918201527f3c616e696d617465206174747269627574654e616d653d2272222076616c756560348201527f733d22303b333b3122206475723d223173222f3e3c2f636972636c653e000000605482015260710195945050505050565b600084516126268184602089016114cf565b7f3c7061746820643d224d20000000000000000000000000000000000000000000908301908152845161266081600b8401602089016114cf565b7f2c00000000000000000000000000000000000000000000000000000000000000600b9290910191820152835161269e81600c8401602088016114cf565b7f6320372c3020372c3020372c2d37206320302c3720302c3720372c372063202d600c92909101918201527f372c30202d372c30202d372c37206320302c2d3720302c2d37202d372c2d3722602c820152601f60f91b604c8201527f3c616e696d6174655472616e73666f726d206174747269627574654e616d653d604d8201527f227472616e73666f726d2220747970653d227363616c65222066726f6d3d2230606d8201527f20302220746f3d223120312220626567696e3d22307322206475723d22302e35608d8201527f732220726570656174436f756e743d2231222f3e3c2f706174683e000000000060ad82015260c80195945050505050565b600086516127af818460208b016114cf565b7f3c636972636c6520723d2233222063783d22000000000000000000000000000090830190815286516127e9816012840160208b016114cf565b65111031bc9e9160d11b601292909101918201528551612810816018840160208a016114cf565b7f22206f7061636974793d22302e33223e3c616e696d6174652061747472696275601892909101918201527f74654e616d653d2272222076616c7565733d22303b353b3322206475723d223160388201527f73222f3e3c2f636972636c653e0000000000000000000000000000000000000060588201527f3c636972636c6520723d2231222063783d220000000000000000000000000000606582015284516128c08160778401602089016114cf565b016128d66077820165111031bc9e9160d11b9052565b611b3c6128e6607d8301866117c9565b7f223e3c616e696d617465206174747269627574654e616d653d2272222076616c81527f7565733d22303b333b3122206475723d223173222f3e3c2f636972636c653e006020820152603f0190565b600060ff821660ff810361294b5761294b6124e6565b60010192915050565b600082516129668184602087016114cf565b7f3c2f673e00000000000000000000000000000000000000000000000000000000920191825250600401919050565b600085516129a7818460208a016114cf565b8551908301906129bb818360208a016114cf565b85519101906129ce8183602089016114cf565b84519101906129e18183602088016114cf565b019695505050505050565b60006101408201905084518252602085015161ffff80821660208501528060408801511660408501525050606085015160608301526080850151608083015260a085015160a083015260c085015160c083015260e085015160e0830152836101008301526107786101208301841515905256fea26469706673582212202808de9bd79de3749e901441cb73b4427c4e3a19c3495a5ee50e6d80ed9adb8e64736f6c63430008120033",
  "libraries": {
    "Color": "0xbB158e58EE3b8fb58335E9E3B076240205333C72"
  },
  "devdoc": {
    "kind": "dev",
    "methods": {},
    "version": 1
  },
  "userdoc": {
    "kind": "user",
    "methods": {},
    "version": 1
  },
  "storageLayout": {
    "storage": [],
    "types": null
  }
}