{
  "address": "0x97D6b32423C8D5B88fE5B084D1139B26A706B00C",
  "abi": [
    {
      "inputs": [
        {
          "internalType": "uint256",
          "name": "tokenId",
          "type": "uint256"
        },
        {
          "components": [
            {
              "internalType": "uint16",
              "name": "primaryHue",
              "type": "uint16"
            },
            {
              "internalType": "uint16",
              "name": "secondaryHue",
              "type": "uint16"
            },
            {
              "internalType": "uint16",
              "name": "constellation",
              "type": "uint16"
            },
            {
              "internalType": "uint16",
              "name": "cloudsAt",
              "type": "uint16"
            }
          ],
          "internalType": "struct Color.DNA",
          "name": "dna",
          "type": "tuple"
        },
        {
          "internalType": "uint256",
          "name": "gazes",
          "type": "uint256"
        },
        {
          "internalType": "bool",
          "name": "daytime",
          "type": "bool"
        },
        {
          "internalType": "address",
          "name": "decorator",
          "type": "address"
        }
      ],
      "name": "generateSVG",
      "outputs": [
        {
          "internalType": "string",
          "name": "",
          "type": "string"
        }
      ],
      "stateMutability": "view",
      "type": "function"
    },
    {
      "inputs": [
        {
          "internalType": "bool",
          "name": "day",
          "type": "bool"
        }
      ],
      "name": "getBackgrounds",
      "outputs": [
        {
          "internalType": "string",
          "name": "",
          "type": "string"
        }
      ],
      "stateMutability": "pure",
      "type": "function"
    },
    {
      "inputs": [
        {
          "internalType": "uint256",
          "name": "seed",
          "type": "uint256"
        }
      ],
      "name": "getFilters",
      "outputs": [
        {
          "internalType": "string",
          "name": "",
          "type": "string"
        }
      ],
      "stateMutability": "pure",
      "type": "function"
    },
    {
      "inputs": [
        {
          "internalType": "uint256",
          "name": "seed",
          "type": "uint256"
        },
        {
          "components": [
            {
              "internalType": "uint16",
              "name": "H",
              "type": "uint16"
            },
            {
              "internalType": "uint16",
              "name": "S",
              "type": "uint16"
            },
            {
              "internalType": "uint16",
              "name": "L",
              "type": "uint16"
            }
          ],
          "internalType": "struct Color.HSL",
          "name": "primary",
          "type": "tuple"
        },
        {
          "components": [
            {
              "internalType": "uint16",
              "name": "H",
              "type": "uint16"
            },
            {
              "internalType": "uint16",
              "name": "S",
              "type": "uint16"
            },
            {
              "internalType": "uint16",
              "name": "L",
              "type": "uint16"
            }
          ],
          "internalType": "struct Color.HSL",
          "name": "secondary",
          "type": "tuple"
        },
        {
          "internalType": "uint16",
          "name": "cloudDays",
          "type": "uint16"
        }
      ],
      "name": "getGradients",
      "outputs": [
        {
          "internalType": "string",
          "name": "",
          "type": "string"
        }
      ],
      "stateMutability": "pure",
      "type": "function"
    },
    {
      "inputs": [
        {
          "internalType": "uint256",
          "name": "starSeed",
          "type": "uint256"
        },
        {
          "internalType": "uint16",
          "name": "constellationId",
          "type": "uint16"
        },
        {
          "internalType": "uint256",
          "name": "gazes",
          "type": "uint256"
        },
        {
          "internalType": "bool",
          "name": "daytime",
          "type": "bool"
        }
      ],
      "name": "getStars",
      "outputs": [
        {
          "internalType": "string",
          "name": "",
          "type": "string"
        }
      ],
      "stateMutability": "view",
      "type": "function"
    },
    {
      "inputs": [
        {
          "internalType": "uint256",
          "name": "tokenId",
          "type": "uint256"
        },
        {
          "internalType": "uint256",
          "name": "nonce",
          "type": "uint256"
        }
      ],
      "name": "psuedorandom",
      "outputs": [
        {
          "internalType": "uint256",
          "name": "",
          "type": "uint256"
        }
      ],
      "stateMutability": "pure",
      "type": "function"
    },
    {
      "inputs": [
        {
          "internalType": "uint16",
          "name": "first",
          "type": "uint16"
        },
        {
          "internalType": "uint16",
          "name": "second",
          "type": "uint16"
        }
      ],
      "name": "subZero",
      "outputs": [
        {
          "internalType": "uint16",
          "name": "",
          "type": "uint16"
        }
      ],
      "stateMutability": "pure",
      "type": "function"
    }
  ],
  "transactionHash": "0x3083952ad359589354c2f77c4a83ab1531e8b45dcb7c0c31ab0ef797dfe54882",
  "args": [],
  "numDeployments": 4,
  "solcInputHash": "594e9ccd906bd68cfdce016c4dc374de",
  "bytecode": "0x608060405234801561001057600080fd5b5061321d806100206000396000f3fe608060405234801561001057600080fd5b506004361061007d5760003560e01c8063663dc7901161005b578063663dc790146100f25780636e6e0cf01461010557806397e16b0314610118578063c7124fb71461012b57600080fd5b8063176a29a5146100825780633329f04f146100ab5780633a20c879146100d1575b600080fd5b610095610090366004611934565b61013e565b6040516100a2919061199f565b60405180910390f35b6100be6100b93660046119c5565b610326565b60405161ffff90911681526020016100a2565b6100e46100df3660046119fe565b6103ca565b6040519081526020016100a2565b610095610100366004611ad7565b610448565b610095610113366004611b29565b610a8e565b610095610126366004611b42565b610ce7565b610095610139366004611ba1565b610f40565b60408051602081019091526000815260609073E25042E93e159740b9B555Fb82cC941D38bA3DC7631b0d4b4d84610176576001610179565b60005b6040516001600160e01b031960e084901b16815260ff9091166004820152602401600060405180830381865af41580156101b7573d6000803e3d6000fd5b505050506040513d6000823e601f3d908101601f191682016040526101df9190810190611cda565b73E25042E93e159740b9B555Fb82cC941D38bA3DC7631b0d4b4d85610205576000610208565b60015b6040516001600160e01b031960e084901b16815260ff9091166004820152602401600060405180830381865af4158015610246573d6000803e3d6000fd5b505050506040513d6000823e601f3d908101601f1916820160405261026e9190810190611cda565b73E25042E93e159740b9B555Fb82cC941D38bA3DC7631b0d4b4d86610294576007610297565b60005b6040516001600160e01b031960e084901b16815260ff9091166004820152602401600060405180830381865af41580156102d5573d6000803e3d6000fd5b505050506040513d6000823e601f3d908101601f191682016040526102fd9190810190611cda565b60405160200161030f93929190611d2b565b60408051601f198184030181529190529392505050565b6040517f3329f04f00000000000000000000000000000000000000000000000000000000815261ffff80841660048301528216602482015260009073E25042E93e159740b9B555Fb82cC941D38bA3DC790633329f04f90604401602060405180830381865af415801561039d573d6000803e3d6000fd5b505050506040513d601f19601f820116820180604052508101906103c19190611fc0565b90505b92915050565b604051633a20c87960e01b8152600481018390526024810182905260009073E25042E93e159740b9B555Fb82cC941D38bA3DC790633a20c87990604401602060405180830381865af4158015610424573d6000803e3d6000fd5b505050506040513d601f19601f820116820180604052508101906103c19190611fe4565b604051633a20c87960e01b815260048101859052607b602482015260609060009073E25042E93e159740b9B555Fb82cC941D38bA3DC790631b0d4b4d90602d908390633a20c87990604401602060405180830381865af41580156104b0573d6000803e3d6000fd5b505050506040513d601f19601f820116820180604052508101906104d49190611fe4565b6104de9190611ffd565b6040516001600160e01b031960e084901b16815261ffff9091166004820152602401600060405180830381865af415801561051d573d6000803e3d6000fd5b505050506040513d6000823e601f3d908101601f191682016040526105459190810190611cda565b905060008160405160200161055a919061201f565b60408051601f19818403018152908290526303f1727f60e21b82529150819073E25042E93e159740b9B555Fb82cC941D38bA3DC790630fc5c9fc906105a3908a906004016120b1565b600060405180830381865af41580156105c0573d6000803e3d6000fd5b505050506040513d6000823e601f3d908101601f191682016040526105e89190810190611cda565b6040516020016105f99291906120dc565b60408051601f19818403018152908290526303f1727f60e21b82529150819073E25042E93e159740b9B555Fb82cC941D38bA3DC790630fc5c9fc906106429089906004016120b1565b600060405180830381865af415801561065f573d6000803e3d6000fd5b505050506040513d6000823e601f3d908101601f191682016040526106879190810190611cda565b60405160200161069892919061215a565b6040516020818303038152906040529050808273E25042E93e159740b9B555Fb82cC941D38bA3DC7631b0d4b4d8761ffff166000146106d757876106da565b60015b6040516001600160e01b031960e084901b16815261ffff9091166004820152602401600060405180830381865af4158015610719573d6000803e3d6000fd5b505050506040513d6000823e601f3d908101601f191682016040526107419190810190611cda565b73E25042E93e159740b9B555Fb82cC941D38bA3DC7631b0d4b4d61ffff89161561076b578861076e565b60015b6040516001600160e01b031960e084901b16815261ffff9091166004820152602401600060405180830381865af41580156107ad573d6000803e3d6000fd5b505050506040513d6000823e601f3d908101601f191682016040526107d59190810190611cda565b6040516020016107e894939291906121d9565b60408051601f1981840301815290829052631b21034b60e31b8252915060009073E25042E93e159740b9B555Fb82cC941D38bA3DC79063d9081a5890610835908a9060f090600401612382565b606060405180830381865af4158015610852573d6000803e3d6000fd5b505050506040513d601f19601f8201168201806040525081019061087691906123be565b605a60408083019190915251631b21034b60e31b8152909150829073E25042E93e159740b9B555Fb82cC941D38bA3DC790630fc5c9fc90829063d9081a58906108c6908d9060b490600401612382565b606060405180830381865af41580156108e3573d6000803e3d6000fd5b505050506040513d601f19601f8201168201806040525081019061090791906123be565b6040518263ffffffff1660e01b815260040161092391906120b1565b600060405180830381865af4158015610940573d6000803e3d6000fd5b505050506040513d6000823e601f3d908101601f191682016040526109689190810190611cda565b73E25042E93e159740b9B555Fb82cC941D38bA3DC7630fc5c9fc73E25042E93e159740b9B555Fb82cC941D38bA3DC763d9081a588b60b46040518363ffffffff1660e01b81526004016109bc929190612382565b606060405180830381865af41580156109d9573d6000803e3d6000fd5b505050506040513d601f19601f820116820180604052508101906109fd91906123be565b6040518263ffffffff1660e01b8152600401610a1991906120b1565b600060405180830381865af4158015610a36573d6000803e3d6000fd5b505050506040513d6000823e601f3d908101601f19168201604052610a5e9190810190611cda565b604051602001610a7093929190612412565b60408051601f1981840301815291905293505050505b949350505050565b60408051602081018252600081529051633a20c87960e01b815260048101839052607b602482015260609190819073E25042E93e159740b9B555Fb82cC941D38bA3DC790631b0d4b4d90612710908390633a20c87990604401602060405180830381865af4158015610b04573d6000803e3d6000fd5b505050506040513d601f19601f82011682018060405250810190610b289190611fe4565b610b329190611ffd565b6040516001600160e01b031960e084901b16815261ffff9091166004820152602401600060405180830381865af4158015610b71573d6000803e3d6000fd5b505050506040513d6000823e601f3d908101601f19168201604052610b999190810190611cda565b604051602001610baa929190612531565b60408051601f1981840301815290829052633a20c87960e01b825260048201859052607b60248301529150819073E25042E93e159740b9B555Fb82cC941D38bA3DC790631b0d4b4d90612710908390633a20c87990604401602060405180830381865af4158015610c1f573d6000803e3d6000fd5b505050506040513d601f19601f82011682018060405250810190610c439190611fe4565b610c4d9190611ffd565b6040516001600160e01b031960e084901b16815261ffff9091166004820152602401600060405180830381865af4158015610c8c573d6000803e3d6000fd5b505050506040513d6000823e601f3d908101601f19168201604052610cb49190810190611cda565b604051602001610cc5929190612632565b60405160208183030381529060405290508060405160200161030f9190612820565b60608115610d045750604080516020810190915260008152610a86565b6000806032851115610d1c575060329350601e905060145b84610d2782846129cf565b60ff161015610df457600373E25042E93e159740b9B555Fb82cC941D38bA3DC7633a20c87989610d5786866129cf565b6040516001600160e01b031960e085901b168152600481019290925260ff166024820152604401602060405180830381865af4158015610d9b573d6000803e3d6000fd5b505050506040513d601f19601f82011682018060405250810190610dbf9190611fe4565b610dc99190611ffd565b600103610de25780610dda816129e8565b915050610d1c565b81610dec816129e8565b925050610d1c565b600080610e018884611018565b6040805160208082018352600082528251808401909352600b83527f636f6e7374436f756e742000000000000000000000000000000000000000000090830152929450909250610e549060ff86166110ef565b610e966040518060400160405280600a81526020017f73746172436f756e7420000000000000000000000000000000000000000000008152508660ff166110ef565b610ed86040518060400160405280600a81526020017f6c6566746f7665727320000000000000000000000000000000000000000000008152508360ff166110ef565b8083604051602001610eeb929190612a07565b60408051601f19818403018152919052905080610f118b610f0c85896129cf565b611166565b604051602001610f22929190612a07565b60408051808303601f190181529190529a9950505050505050505050565b606060006040518060600160405280876000015161ffff168152602001606461ffff168152602001601e61ffff16815250905060006040518060600160405280886020015161ffff168152602001606461ffff168152602001601e61ffff1681525090506000610fb68984848b60600151610448565b610fbf8a610a8e565b610fc88861013e565b610fd88c8c604001518c8c610ce7565b610fe5898e8e8e8e611653565b604051602001610ff9959493929190612a36565b60408051601f1981840301815291905293505050505b95945050505050565b6040517fdc736b0800000000000000000000000000000000000000000000000000000000815261ffff8316600482015260ff82166024820152606090600090819081907304D426eBa09a9AE6001F836A4cC84c172B6816f19063dc736b0890604401600060405180830381865af4158015611097573d6000803e3d6000fd5b505050506040513d6000823e601f3d908101601f191682016040526110bf9190810190612ba5565b91509150816040516020016110d49190612bf2565b60408051808303601f19018152919052969095509350505050565b6111628282604051602401611105929190612c45565b60408051601f198184030181529190526020810180517bffffffffffffffffffffffffffffffffffffffffffffffffffffffff167fb60e72cc000000000000000000000000000000000000000000000000000000001790526116a8565b5050565b604080518082018252600f81527f3c672066696c6c3d2223666666223e0000000000000000000000000000000000602080830191909152825180820184526000808252845192830190945283825260609390919084815b8760ff168160ff16101561162557604051633a20c87960e01b8152600481018a905260ff8216602482015260039073E25042E93e159740b9B555Fb82cC941D38bA3DC790633a20c87990604401602060405180830381865af4158015611227573d6000803e3d6000fd5b505050506040513d601f19601f8201168201806040525081019061124b9190611fe4565b6112559190611ffd565b604051633a20c87960e01b8152600481018b905260ff8316602482015290935073E25042E93e159740b9B555Fb82cC941D38bA3DC790631b0d4b4d906101ce908390633a20c87990604401602060405180830381865af41580156112bd573d6000803e3d6000fd5b505050506040513d601f19601f820116820180604052508101906112e19190611fe4565b6112eb9190611ffd565b6112f6906019612c67565b6040516001600160e01b031960e084901b16815261ffff9091166004820152602401600060405180830381865af4158015611335573d6000803e3d6000fd5b505050506040513d6000823e601f3d908101601f1916820160405261135d9190810190611cda565b945073E25042E93e159740b9B555Fb82cC941D38bA3DC7631b0d4b4d6101ce82633a20c87961138f60ff89168f612c89565b6040516001600160e01b031960e084901b168152600481019190915260ff87166024820152604401602060405180830381865af41580156113d4573d6000803e3d6000fd5b505050506040513d601f19601f820116820180604052508101906113f89190611fe4565b6114029190611ffd565b61140d906019612c67565b6040516001600160e01b031960e084901b16815261ffff9091166004820152602401600060405180830381865af415801561144c573d6000803e3d6000fd5b505050506040513d6000823e601f3d908101601f191682016040526114749190810190611cda565b604051633a20c87960e01b815260048181018c905260ff8416602483015291955073E25042E93e159740b9B555Fb82cC941D38bA3DC791631b0d4b4d918390633a20c87990604401602060405180830381865af41580156114d9573d6000803e3d6000fd5b505050506040513d601f19601f820116820180604052508101906114fd9190611fe4565b6115079190611ffd565b611512906001612c67565b6040516001600160e01b031960e084901b16815261ffff9091166004820152602401600060405180830381865af4158015611551573d6000803e3d6000fd5b505050506040513d6000823e601f3d908101601f191682016040526115799190810190611cda565b91508260ff166000036115b557858585848560405160200161159f959493929190612c9c565b6040516020818303038152906040529550611613565b8260ff166001036115d957858585848560405160200161159f959493929190612e10565b8260ff1660020361161357858585878786876040516020016116019796959493929190612fbf565b60405160208183030381529060405295505b8061161d816129e8565b9150506111bd565b5084604051602001611637919061317c565b6040516020818303038152906040529550505050505092915050565b606061166286868686866116c9565b61166f87878787876117c3565b61167c8888888888611871565b60405160200161168e939291906131a4565b604051602081830303815290604052905095945050505050565b80516a636f6e736f6c652e6c6f67602083016000808483855afa5050505050565b60606001600160a01b0386166116ee575060408051602081019091526000815261100f565b604080517fa04602d000000000000000000000000000000000000000000000000000000000815260048101879052855161ffff908116602483015260208701518116604483015291860151821660648201526060860151909116608482015260a4810184905282151560c482015286906001600160a01b0382169063a04602d09060e4015b600060405180830381865afa158015611790573d6000803e3d6000fd5b505050506040513d6000823e601f3d908101601f191682016040526117b89190810190611cda565b979650505050505050565b60606001600160a01b0386166117e8575060408051602081019091526000815261100f565b604080517f4636849900000000000000000000000000000000000000000000000000000000815260048101879052855161ffff908116602483015260208701518116604483015291860151821660648201526060860151909116608482015260a4810184905282151560c482015286906001600160a01b0382169063463684999060e401611773565b60606001600160a01b038616611896575060408051602081019091526000815261100f565b604080517f67cdceca00000000000000000000000000000000000000000000000000000000815260048101879052855161ffff908116602483015260208701518116604483015291860151821660648201526060860151909116608482015260a4810184905282151560c482015286906001600160a01b038216906367cdceca9060e401611773565b8035801515811461192f57600080fd5b919050565b60006020828403121561194657600080fd5b6103c18261191f565b60005b8381101561196a578181015183820152602001611952565b50506000910152565b6000815180845261198b81602086016020860161194f565b601f01601f19169290920160200192915050565b6020815260006103c16020830184611973565b61ffff811681146119c257600080fd5b50565b600080604083850312156119d857600080fd5b82356119e3816119b2565b915060208301356119f3816119b2565b809150509250929050565b60008060408385031215611a1157600080fd5b50508035926020909101359150565b634e487b7160e01b600052604160045260246000fd5b6040516060810167ffffffffffffffff81118282101715611a5957611a59611a20565b60405290565b6040516080810167ffffffffffffffff81118282101715611a5957611a59611a20565b600060608284031215611a9457600080fd5b611a9c611a36565b90508135611aa9816119b2565b81526020820135611ab9816119b2565b60208201526040820135611acc816119b2565b604082015292915050565b6000806000806101008587031215611aee57600080fd5b84359350611aff8660208701611a82565b9250611b0e8660808701611a82565b915060e0850135611b1e816119b2565b939692955090935050565b600060208284031215611b3b57600080fd5b5035919050565b60008060008060808587031215611b5857600080fd5b843593506020850135611b6a816119b2565b925060408501359150611b7f6060860161191f565b905092959194509250565b80356001600160a01b038116811461192f57600080fd5b6000806000806000858703610100811215611bbb57600080fd5b863595506080601f1982011215611bd157600080fd5b50611bda611a5f565b6020870135611be8816119b2565b81526040870135611bf8816119b2565b60208201526060870135611c0b816119b2565b60408201526080870135611c1e816119b2565b6060820152935060a08601359250611c3860c0870161191f565b9150611c4660e08701611b8a565b90509295509295909350565b600082601f830112611c6357600080fd5b815167ffffffffffffffff80821115611c7e57611c7e611a20565b604051601f8301601f19908116603f01168101908282118183101715611ca657611ca6611a20565b81604052838152866020858801011115611cbf57600080fd5b611cd084602083016020890161194f565b9695505050505050565b600060208284031215611cec57600080fd5b815167ffffffffffffffff811115611d0357600080fd5b610a8684828501611c52565b60008151611d2181856020860161194f565b9290920192915050565b7f3c726563742077696474683d223130302522206865696768743d22313030252281527f2066696c7465723d2275726c282373746172732922206f7061636974793d2200602082015260008451611d8981603f85016020890161194f565b6211179f60e91b603f918401918201527f3c706174682066696c6c3d2275726c28236461794772616469656e742922206460428201527f3d224d302030683531327635313248307a22206f7061636974793d220000000060628201528451611df881607e84016020890161194f565b7f22202066696c7465723d2275726c28236c6967687429222f3e00000000000000607e92909101918201527f3c706174682066696c6c3d2275726c2823736b794772616469656e742922202060978201527f643d224d302030683531327635313248307a22206f7061636974793d222e000060b7820152611e7c60d5820185611d0f565b6211179f60e91b815290507f3c706174682066696c6c3d2275726c2823636c6f75644772616469656e74292260038201527f2066696c7465723d2275726c2823636c6f756473292220643d224d2d3531322d60238201527f35313268313533367631353336682d323034387a223e3c616e696d617465547260438201527f616e73666f726d206174747269627574654e616d653d227472616e73666f726d60638201527f2220617474726962757465547970653d22584d4c2220747970653d227472616e60838201527f736c617465222066726f6d3d22302220746f3d2235313220353132222064757260a38201527f3d223630732220726570656174436f756e743d22696e646566696e697465222f60c38201527f3e3c2f706174683e00000000000000000000000000000000000000000000000060e382015260eb8101611cd0565b600060208284031215611fd257600080fd5b8151611fdd816119b2565b9392505050565b600060208284031215611ff657600080fd5b5051919050565b60008261201a57634e487b7160e01b600052601260045260246000fd5b500690565b7f3c6c696e6561724772616469656e742069643d22736b794772616469656e742281527f206772616469656e745472616e73666f726d3d22726f7461746528000000000060208201526000825161207d81603b85016020870161194f565b7f29223e0000000000000000000000000000000000000000000000000000000000603b939091019283015250603e01919050565b606081016103c48284805161ffff908116835260208083015182169084015260409182015116910152565b600083516120ee81846020880161194f565b7f3c73746f70206f66667365743d223025220000000000000000000000000000009083019081526c1039ba37b816b1b7b637b91e9160991b6011820152835161213e81601e84016020880161194f565b6211179f60e91b601e9290910191820152602101949350505050565b6000835161216c81846020880161194f565b80830190507f3c73746f70206f66667365743d2231303025220000000000000000000000000081526c1039ba37b816b1b7b637b91e9160991b601382015283516121bd81602084016020880161194f565b6211179f60e91b60209290910191820152602301949350505050565b600085516121eb818460208a0161194f565b80830190507f3c2f6c696e6561724772616469656e743e3c6c696e6561724772616469656e7481527f2069643d22636c6f75644772616469656e7422206772616469656e745472616e60208201527f73666f726d3d22726f74617465280000000000000000000000000000000000006040820152855161227281604e840160208a0161194f565b7f29223e3c73746f702073746f702d6f7061636974793d222e0000000000000000604e929091019182015284516122b081606684016020890161194f565b7f22206f66667365743d22313525222f3e3c73746f702073746f702d6f70616369606692909101918201527f74793d222e3522206f66667365743d22333025222f3e0000000000000000000060868201527f3c73746f702073746f702d6f7061636974793d222e0000000000000000000000609c820152835161233a8160b184016020880161194f565b61237660b1828401017f22206f66667365743d22353025222f3e3c2f6c696e6561724772616469656e748152601f60f91b602082015260210190565b98975050505050505050565b608081016123ad8285805161ffff908116835260208083015182169084015260409182015116910152565b61ffff831660608301529392505050565b6000606082840312156123d057600080fd5b6123d8611a36565b82516123e3816119b2565b815260208301516123f3816119b2565b60208201526040830151612406816119b2565b60408201529392505050565b6000845161242481846020890161194f565b80830190507f3c6c696e6561724772616469656e742069643d226461794772616469656e742281527f206772616469656e745472616e73666f726d3d22726f7461746528313329223e60208201527f3c73746f70206f66667365743d223025222073746f702d636f6c6f723d220000604082015284516124ab81605e84016020890161194f565b8082019150506211179f60e91b80605e8301527f3c73746f70206f66667365743d2231303025222073746f702d636f6c6f723d22606183015284516124f781608185016020890161194f565b60819201918201527f3c2f6c696e6561724772616469656e743e000000000000000000000000000000608482015260950195945050505050565b6000835161254381846020880161194f565b80830190507f3c66696c7465722069643d227374617273223e3c666554757262756c656e636581527f20626173654672657175656e63793d222e33352220736565643d220000000000602082015283516125a481603b84016020880161194f565b6211179f60e91b603b92909101918201527f3c6665436f6c6f724d61747269782076616c7565733d2230203020302039202d603e8201527f342030203020302039202d342030203020302039202d34203020302030203020605e8201527f31222f3e3c2f66696c7465723e00000000000000000000000000000000000000607e820152608b01949350505050565b6000835161264481846020880161194f565b80830190507f3c66696c7465722069643d22636c6f7564732220783d222d3530252220793d2281527f2d35302522206865696768743d2232303025222077696474683d22323030252260208201527f3e3c6665476175737369616e426c757220696e3d22736b79222073746444657660408201527f696174696f6e3d2232302220726573756c743d22736b79626c7572222f3e000060608201527f3c666554757262756c656e636520747970653d226672616374616c4e6f697365607e8201527f2220626173654672657175656e63793d222e303122206e756d4f637461766573609e8201527f3d22352220726573756c743d22736b796e6f6973652220736565643d2200000060be82015283516127638160db84016020880161194f565b6211179f60e91b910160db81018290527f3c6665436f6c6f724d61747269782076616c7565733d2231203020302030203060de8201527f20312030203020302030203120302030203020302033202d31202d312030203060fe82015261011e8101919091527f3c6665436f6d706f73697465206f70657261746f723d22696e2220696e323d226101218201527f536f7572636547726170686963222f3e3c2f66696c7465723e0000000000000061014182015261015a810161100f565b6000825161283281846020870161194f565b7f3c66696c7465722069643d226c69676874223e3c666553706563756c61724c699201918252507f676874696e6720726573756c743d22737065634f7574222073706563756c617260208201527f4578706f6e656e743d2231303022206c69676874696e672d636f6c6f723d227760408201527f68697465223e000000000000000000000000000000000000000000000000000060608201527f3c6665506f696e744c6967687420783d2231302220793d22373022207a3d223360668201527f3030222f3e3c2f666553706563756c61724c69676874696e673e00000000000060868201527f3c6665436f6d706f7369746520696e3d22536f7572636547726170686963222060a08201527f696e323d22737065634f757422206f70657261746f723d2261726974686d657460c08201527f696322206b313d223022206b323d223122206b333d223122206b343d2230222f60e08201527f3e3c2f66696c7465723e0000000000000000000000000000000000000000000061010082015261010a01919050565b634e487b7160e01b600052601160045260246000fd5b60ff81811683821601908111156103c4576103c46129b9565b600060ff821660ff81036129fe576129fe6129b9565b60010192915050565b60008351612a1981846020880161194f565b835190830190612a2d81836020880161194f565b01949350505050565b7f3c7376672076696577426f783d2230203020353132203531322220786d6c6e7381527f3d22687474703a2f2f7777772e77332e6f72672f323030302f737667223e3c6360208201527f6c6970506174682069643d22626f78223e3c7061746820643d224d302030683560408201527f31327635313248307a222f3e3c2f636c6970506174683e3c646566733e000000606082015260008651612ae081607d850160208b0161194f565b865190830190612af781607d840160208b0161194f565b7f3c2f646566733e3c7376672076696577426f783d223020302035313220353132607d92909101918201527f2220636c69702d706174683d2275726c2823626f7829223e0000000000000000609d8201528551612b5b8160b5840160208a0161194f565b612b73612b6d60b58385010188611d0f565b86611d0f565b915050612b8881651e17b9bb339f60d11b9052565b651e17b9bb339f60d11b6006820152600c01979650505050505050565b60008060408385031215612bb857600080fd5b825167ffffffffffffffff811115612bcf57600080fd5b612bdb85828601611c52565b925050602083015160ff811681146119f357600080fd5b7f3c672069643d22636f6e7374656c6c6174696f6e223e00000000000000000000815260008251612c2a81601685016020870161194f565b631e17b39f60e11b6016939091019283015250601a01919050565b604081526000612c586040830185611973565b90508260208301529392505050565b61ffff818116838216019080821115612c8257612c826129b9565b5092915050565b808201808211156103c4576103c46129b9565b60008651612cae818460208b0161194f565b7f3c636972636c6520723d2231222063783d2200000000000000000000000000009083019081528651612ce8816012840160208b0161194f565b65111031bc9e9160d11b601292909101918201528551612d0f816018840160208a0161194f565b7f222066696c6c3d22236666662220206f7061636974793d2231223e0000000000601892909101918201527f3c616e696d617465206174747269627574654e616d653d2272222076616c756560338201527f733d22313b303b323b313b313b313b313b313b313b3122206475723d2200000060538201528451612d9981607084016020890161194f565b6939911039ba30b93a1e9160b11b60709290910191820152612376612dc1607a830186611d0f565b7f732220726570656174436f756e743d22696e646566696e697465222f3e3c2f6381527f6972636c653e0000000000000000000000000000000000000000000000000000602082015260260190565b60008651612e22818460208b0161194f565b7f3c7061746820643d224d200000000000000000000000000000000000000000009083019081528651612e5c81600b840160208b0161194f565b7f2c00000000000000000000000000000000000000000000000000000000000000600b92909101918201528551612e9a81600c840160208a0161194f565b7f6320372c3020372c3020372c2d37206320302c3720302c3720372c372063202d600c92909101918201527f372c30202d372c30202d372c37206320302c2d3720302c2d37202d372c2d3722602c820152601f60f91b604c8201527f3c616e696d617465206174747269627574654e616d653d2272222076616c7565604d8201527f733d22313b303b313b313b313b313b313b313b3122206475723d220000000000606d820152612f4e6088820186611d0f565b6939911039ba30b93a1e9160b11b81529050612376612f70600a830186611d0f565b7f732220726570656174436f756e743d22696e646566696e697465222f3e3c2f7081527f6174683e00000000000000000000000000000000000000000000000000000000602082015260240190565b60008851612fd1818460208d0161194f565b7f3c636972636c6520723d2233222063783d220000000000000000000000000000908301908152885161300b816012840160208d0161194f565b65111031bc9e9160d11b601292909101918201528751613032816018840160208c0161194f565b7f22206f7061636974793d22302e33223e3c616e696d6174652061747472696275910160188101919091527f74654e616d653d2272222076616c7565733d22303b353b3322206475723d223160388201527f73222f3e3c2f636972636c653e0000000000000000000000000000000000000060588201527f3c636972636c6520723d2231222063783d22000000000000000000000000000060658201526130dc6077820188611d0f565b65111031bc9e9160d11b8152905061314c612b6d6130fd6006840189611d0f565b7f223e3c616e696d617465206174747269627574654e616d653d2272222076616c81527f7565733d22313b303b323b313b313b313b313b313b313b3122206475723d22006020820152603f0190565b6939911039ba30b93a1e9160b11b8152905061316e612dc1600a830186611d0f565b9a9950505050505050505050565b6000825161318e81846020870161194f565b631e17b39f60e11b920191825250600401919050565b600084516131b681846020890161194f565b8451908301906131ca81836020890161194f565b84519101906131dd81836020880161194f565b019594505050505056fea26469706673582212209ce985bf5ee19ee59d8794f0e406795c0650c4846400ca74f068987d0967b23564736f6c63430008120033",
  "deployedBytecode": "0x608060405234801561001057600080fd5b506004361061007d5760003560e01c8063663dc7901161005b578063663dc790146100f25780636e6e0cf01461010557806397e16b0314610118578063c7124fb71461012b57600080fd5b8063176a29a5146100825780633329f04f146100ab5780633a20c879146100d1575b600080fd5b610095610090366004611934565b61013e565b6040516100a2919061199f565b60405180910390f35b6100be6100b93660046119c5565b610326565b60405161ffff90911681526020016100a2565b6100e46100df3660046119fe565b6103ca565b6040519081526020016100a2565b610095610100366004611ad7565b610448565b610095610113366004611b29565b610a8e565b610095610126366004611b42565b610ce7565b610095610139366004611ba1565b610f40565b60408051602081019091526000815260609073__$11e21e6c56ca563b85c74e3fd3a08242f9$__631b0d4b4d84610176576001610179565b60005b6040516001600160e01b031960e084901b16815260ff9091166004820152602401600060405180830381865af41580156101b7573d6000803e3d6000fd5b505050506040513d6000823e601f3d908101601f191682016040526101df9190810190611cda565b73__$11e21e6c56ca563b85c74e3fd3a08242f9$__631b0d4b4d85610205576000610208565b60015b6040516001600160e01b031960e084901b16815260ff9091166004820152602401600060405180830381865af4158015610246573d6000803e3d6000fd5b505050506040513d6000823e601f3d908101601f1916820160405261026e9190810190611cda565b73__$11e21e6c56ca563b85c74e3fd3a08242f9$__631b0d4b4d86610294576007610297565b60005b6040516001600160e01b031960e084901b16815260ff9091166004820152602401600060405180830381865af41580156102d5573d6000803e3d6000fd5b505050506040513d6000823e601f3d908101601f191682016040526102fd9190810190611cda565b60405160200161030f93929190611d2b565b60408051601f198184030181529190529392505050565b6040517f3329f04f00000000000000000000000000000000000000000000000000000000815261ffff80841660048301528216602482015260009073__$11e21e6c56ca563b85c74e3fd3a08242f9$__90633329f04f90604401602060405180830381865af415801561039d573d6000803e3d6000fd5b505050506040513d601f19601f820116820180604052508101906103c19190611fc0565b90505b92915050565b604051633a20c87960e01b8152600481018390526024810182905260009073__$11e21e6c56ca563b85c74e3fd3a08242f9$__90633a20c87990604401602060405180830381865af4158015610424573d6000803e3d6000fd5b505050506040513d601f19601f820116820180604052508101906103c19190611fe4565b604051633a20c87960e01b815260048101859052607b602482015260609060009073__$11e21e6c56ca563b85c74e3fd3a08242f9$__90631b0d4b4d90602d908390633a20c87990604401602060405180830381865af41580156104b0573d6000803e3d6000fd5b505050506040513d601f19601f820116820180604052508101906104d49190611fe4565b6104de9190611ffd565b6040516001600160e01b031960e084901b16815261ffff9091166004820152602401600060405180830381865af415801561051d573d6000803e3d6000fd5b505050506040513d6000823e601f3d908101601f191682016040526105459190810190611cda565b905060008160405160200161055a919061201f565b60408051601f19818403018152908290526303f1727f60e21b82529150819073__$11e21e6c56ca563b85c74e3fd3a08242f9$__90630fc5c9fc906105a3908a906004016120b1565b600060405180830381865af41580156105c0573d6000803e3d6000fd5b505050506040513d6000823e601f3d908101601f191682016040526105e89190810190611cda565b6040516020016105f99291906120dc565b60408051601f19818403018152908290526303f1727f60e21b82529150819073__$11e21e6c56ca563b85c74e3fd3a08242f9$__90630fc5c9fc906106429089906004016120b1565b600060405180830381865af415801561065f573d6000803e3d6000fd5b505050506040513d6000823e601f3d908101601f191682016040526106879190810190611cda565b60405160200161069892919061215a565b6040516020818303038152906040529050808273__$11e21e6c56ca563b85c74e3fd3a08242f9$__631b0d4b4d8761ffff166000146106d757876106da565b60015b6040516001600160e01b031960e084901b16815261ffff9091166004820152602401600060405180830381865af4158015610719573d6000803e3d6000fd5b505050506040513d6000823e601f3d908101601f191682016040526107419190810190611cda565b73__$11e21e6c56ca563b85c74e3fd3a08242f9$__631b0d4b4d61ffff89161561076b578861076e565b60015b6040516001600160e01b031960e084901b16815261ffff9091166004820152602401600060405180830381865af41580156107ad573d6000803e3d6000fd5b505050506040513d6000823e601f3d908101601f191682016040526107d59190810190611cda565b6040516020016107e894939291906121d9565b60408051601f1981840301815290829052631b21034b60e31b8252915060009073__$11e21e6c56ca563b85c74e3fd3a08242f9$__9063d9081a5890610835908a9060f090600401612382565b606060405180830381865af4158015610852573d6000803e3d6000fd5b505050506040513d601f19601f8201168201806040525081019061087691906123be565b605a60408083019190915251631b21034b60e31b8152909150829073__$11e21e6c56ca563b85c74e3fd3a08242f9$__90630fc5c9fc90829063d9081a58906108c6908d9060b490600401612382565b606060405180830381865af41580156108e3573d6000803e3d6000fd5b505050506040513d601f19601f8201168201806040525081019061090791906123be565b6040518263ffffffff1660e01b815260040161092391906120b1565b600060405180830381865af4158015610940573d6000803e3d6000fd5b505050506040513d6000823e601f3d908101601f191682016040526109689190810190611cda565b73__$11e21e6c56ca563b85c74e3fd3a08242f9$__630fc5c9fc73__$11e21e6c56ca563b85c74e3fd3a08242f9$__63d9081a588b60b46040518363ffffffff1660e01b81526004016109bc929190612382565b606060405180830381865af41580156109d9573d6000803e3d6000fd5b505050506040513d601f19601f820116820180604052508101906109fd91906123be565b6040518263ffffffff1660e01b8152600401610a1991906120b1565b600060405180830381865af4158015610a36573d6000803e3d6000fd5b505050506040513d6000823e601f3d908101601f19168201604052610a5e9190810190611cda565b604051602001610a7093929190612412565b60408051601f1981840301815291905293505050505b949350505050565b60408051602081018252600081529051633a20c87960e01b815260048101839052607b602482015260609190819073__$11e21e6c56ca563b85c74e3fd3a08242f9$__90631b0d4b4d90612710908390633a20c87990604401602060405180830381865af4158015610b04573d6000803e3d6000fd5b505050506040513d601f19601f82011682018060405250810190610b289190611fe4565b610b329190611ffd565b6040516001600160e01b031960e084901b16815261ffff9091166004820152602401600060405180830381865af4158015610b71573d6000803e3d6000fd5b505050506040513d6000823e601f3d908101601f19168201604052610b999190810190611cda565b604051602001610baa929190612531565b60408051601f1981840301815290829052633a20c87960e01b825260048201859052607b60248301529150819073__$11e21e6c56ca563b85c74e3fd3a08242f9$__90631b0d4b4d90612710908390633a20c87990604401602060405180830381865af4158015610c1f573d6000803e3d6000fd5b505050506040513d601f19601f82011682018060405250810190610c439190611fe4565b610c4d9190611ffd565b6040516001600160e01b031960e084901b16815261ffff9091166004820152602401600060405180830381865af4158015610c8c573d6000803e3d6000fd5b505050506040513d6000823e601f3d908101601f19168201604052610cb49190810190611cda565b604051602001610cc5929190612632565b60405160208183030381529060405290508060405160200161030f9190612820565b60608115610d045750604080516020810190915260008152610a86565b6000806032851115610d1c575060329350601e905060145b84610d2782846129cf565b60ff161015610df457600373__$11e21e6c56ca563b85c74e3fd3a08242f9$__633a20c87989610d5786866129cf565b6040516001600160e01b031960e085901b168152600481019290925260ff166024820152604401602060405180830381865af4158015610d9b573d6000803e3d6000fd5b505050506040513d601f19601f82011682018060405250810190610dbf9190611fe4565b610dc99190611ffd565b600103610de25780610dda816129e8565b915050610d1c565b81610dec816129e8565b925050610d1c565b600080610e018884611018565b6040805160208082018352600082528251808401909352600b83527f636f6e7374436f756e742000000000000000000000000000000000000000000090830152929450909250610e549060ff86166110ef565b610e966040518060400160405280600a81526020017f73746172436f756e7420000000000000000000000000000000000000000000008152508660ff166110ef565b610ed86040518060400160405280600a81526020017f6c6566746f7665727320000000000000000000000000000000000000000000008152508360ff166110ef565b8083604051602001610eeb929190612a07565b60408051601f19818403018152919052905080610f118b610f0c85896129cf565b611166565b604051602001610f22929190612a07565b60408051808303601f190181529190529a9950505050505050505050565b606060006040518060600160405280876000015161ffff168152602001606461ffff168152602001601e61ffff16815250905060006040518060600160405280886020015161ffff168152602001606461ffff168152602001601e61ffff1681525090506000610fb68984848b60600151610448565b610fbf8a610a8e565b610fc88861013e565b610fd88c8c604001518c8c610ce7565b610fe5898e8e8e8e611653565b604051602001610ff9959493929190612a36565b60408051601f1981840301815291905293505050505b95945050505050565b6040517fdc736b0800000000000000000000000000000000000000000000000000000000815261ffff8316600482015260ff821660248201526060906000908190819073__$a8306bbe53a8cb7e168140ba991fce4a09$__9063dc736b0890604401600060405180830381865af4158015611097573d6000803e3d6000fd5b505050506040513d6000823e601f3d908101601f191682016040526110bf9190810190612ba5565b91509150816040516020016110d49190612bf2565b60408051808303601f19018152919052969095509350505050565b6111628282604051602401611105929190612c45565b60408051601f198184030181529190526020810180517bffffffffffffffffffffffffffffffffffffffffffffffffffffffff167fb60e72cc000000000000000000000000000000000000000000000000000000001790526116a8565b5050565b604080518082018252600f81527f3c672066696c6c3d2223666666223e0000000000000000000000000000000000602080830191909152825180820184526000808252845192830190945283825260609390919084815b8760ff168160ff16101561162557604051633a20c87960e01b8152600481018a905260ff8216602482015260039073__$11e21e6c56ca563b85c74e3fd3a08242f9$__90633a20c87990604401602060405180830381865af4158015611227573d6000803e3d6000fd5b505050506040513d601f19601f8201168201806040525081019061124b9190611fe4565b6112559190611ffd565b604051633a20c87960e01b8152600481018b905260ff8316602482015290935073__$11e21e6c56ca563b85c74e3fd3a08242f9$__90631b0d4b4d906101ce908390633a20c87990604401602060405180830381865af41580156112bd573d6000803e3d6000fd5b505050506040513d601f19601f820116820180604052508101906112e19190611fe4565b6112eb9190611ffd565b6112f6906019612c67565b6040516001600160e01b031960e084901b16815261ffff9091166004820152602401600060405180830381865af4158015611335573d6000803e3d6000fd5b505050506040513d6000823e601f3d908101601f1916820160405261135d9190810190611cda565b945073__$11e21e6c56ca563b85c74e3fd3a08242f9$__631b0d4b4d6101ce82633a20c87961138f60ff89168f612c89565b6040516001600160e01b031960e084901b168152600481019190915260ff87166024820152604401602060405180830381865af41580156113d4573d6000803e3d6000fd5b505050506040513d601f19601f820116820180604052508101906113f89190611fe4565b6114029190611ffd565b61140d906019612c67565b6040516001600160e01b031960e084901b16815261ffff9091166004820152602401600060405180830381865af415801561144c573d6000803e3d6000fd5b505050506040513d6000823e601f3d908101601f191682016040526114749190810190611cda565b604051633a20c87960e01b815260048181018c905260ff8416602483015291955073__$11e21e6c56ca563b85c74e3fd3a08242f9$__91631b0d4b4d918390633a20c87990604401602060405180830381865af41580156114d9573d6000803e3d6000fd5b505050506040513d601f19601f820116820180604052508101906114fd9190611fe4565b6115079190611ffd565b611512906001612c67565b6040516001600160e01b031960e084901b16815261ffff9091166004820152602401600060405180830381865af4158015611551573d6000803e3d6000fd5b505050506040513d6000823e601f3d908101601f191682016040526115799190810190611cda565b91508260ff166000036115b557858585848560405160200161159f959493929190612c9c565b6040516020818303038152906040529550611613565b8260ff166001036115d957858585848560405160200161159f959493929190612e10565b8260ff1660020361161357858585878786876040516020016116019796959493929190612fbf565b60405160208183030381529060405295505b8061161d816129e8565b9150506111bd565b5084604051602001611637919061317c565b6040516020818303038152906040529550505050505092915050565b606061166286868686866116c9565b61166f87878787876117c3565b61167c8888888888611871565b60405160200161168e939291906131a4565b604051602081830303815290604052905095945050505050565b80516a636f6e736f6c652e6c6f67602083016000808483855afa5050505050565b60606001600160a01b0386166116ee575060408051602081019091526000815261100f565b604080517fa04602d000000000000000000000000000000000000000000000000000000000815260048101879052855161ffff908116602483015260208701518116604483015291860151821660648201526060860151909116608482015260a4810184905282151560c482015286906001600160a01b0382169063a04602d09060e4015b600060405180830381865afa158015611790573d6000803e3d6000fd5b505050506040513d6000823e601f3d908101601f191682016040526117b89190810190611cda565b979650505050505050565b60606001600160a01b0386166117e8575060408051602081019091526000815261100f565b604080517f4636849900000000000000000000000000000000000000000000000000000000815260048101879052855161ffff908116602483015260208701518116604483015291860151821660648201526060860151909116608482015260a4810184905282151560c482015286906001600160a01b0382169063463684999060e401611773565b60606001600160a01b038616611896575060408051602081019091526000815261100f565b604080517f67cdceca00000000000000000000000000000000000000000000000000000000815260048101879052855161ffff908116602483015260208701518116604483015291860151821660648201526060860151909116608482015260a4810184905282151560c482015286906001600160a01b038216906367cdceca9060e401611773565b8035801515811461192f57600080fd5b919050565b60006020828403121561194657600080fd5b6103c18261191f565b60005b8381101561196a578181015183820152602001611952565b50506000910152565b6000815180845261198b81602086016020860161194f565b601f01601f19169290920160200192915050565b6020815260006103c16020830184611973565b61ffff811681146119c257600080fd5b50565b600080604083850312156119d857600080fd5b82356119e3816119b2565b915060208301356119f3816119b2565b809150509250929050565b60008060408385031215611a1157600080fd5b50508035926020909101359150565b634e487b7160e01b600052604160045260246000fd5b6040516060810167ffffffffffffffff81118282101715611a5957611a59611a20565b60405290565b6040516080810167ffffffffffffffff81118282101715611a5957611a59611a20565b600060608284031215611a9457600080fd5b611a9c611a36565b90508135611aa9816119b2565b81526020820135611ab9816119b2565b60208201526040820135611acc816119b2565b604082015292915050565b6000806000806101008587031215611aee57600080fd5b84359350611aff8660208701611a82565b9250611b0e8660808701611a82565b915060e0850135611b1e816119b2565b939692955090935050565b600060208284031215611b3b57600080fd5b5035919050565b60008060008060808587031215611b5857600080fd5b843593506020850135611b6a816119b2565b925060408501359150611b7f6060860161191f565b905092959194509250565b80356001600160a01b038116811461192f57600080fd5b6000806000806000858703610100811215611bbb57600080fd5b863595506080601f1982011215611bd157600080fd5b50611bda611a5f565b6020870135611be8816119b2565b81526040870135611bf8816119b2565b60208201526060870135611c0b816119b2565b60408201526080870135611c1e816119b2565b6060820152935060a08601359250611c3860c0870161191f565b9150611c4660e08701611b8a565b90509295509295909350565b600082601f830112611c6357600080fd5b815167ffffffffffffffff80821115611c7e57611c7e611a20565b604051601f8301601f19908116603f01168101908282118183101715611ca657611ca6611a20565b81604052838152866020858801011115611cbf57600080fd5b611cd084602083016020890161194f565b9695505050505050565b600060208284031215611cec57600080fd5b815167ffffffffffffffff811115611d0357600080fd5b610a8684828501611c52565b60008151611d2181856020860161194f565b9290920192915050565b7f3c726563742077696474683d223130302522206865696768743d22313030252281527f2066696c7465723d2275726c282373746172732922206f7061636974793d2200602082015260008451611d8981603f85016020890161194f565b6211179f60e91b603f918401918201527f3c706174682066696c6c3d2275726c28236461794772616469656e742922206460428201527f3d224d302030683531327635313248307a22206f7061636974793d220000000060628201528451611df881607e84016020890161194f565b7f22202066696c7465723d2275726c28236c6967687429222f3e00000000000000607e92909101918201527f3c706174682066696c6c3d2275726c2823736b794772616469656e742922202060978201527f643d224d302030683531327635313248307a22206f7061636974793d222e000060b7820152611e7c60d5820185611d0f565b6211179f60e91b815290507f3c706174682066696c6c3d2275726c2823636c6f75644772616469656e74292260038201527f2066696c7465723d2275726c2823636c6f756473292220643d224d2d3531322d60238201527f35313268313533367631353336682d323034387a223e3c616e696d617465547260438201527f616e73666f726d206174747269627574654e616d653d227472616e73666f726d60638201527f2220617474726962757465547970653d22584d4c2220747970653d227472616e60838201527f736c617465222066726f6d3d22302220746f3d2235313220353132222064757260a38201527f3d223630732220726570656174436f756e743d22696e646566696e697465222f60c38201527f3e3c2f706174683e00000000000000000000000000000000000000000000000060e382015260eb8101611cd0565b600060208284031215611fd257600080fd5b8151611fdd816119b2565b9392505050565b600060208284031215611ff657600080fd5b5051919050565b60008261201a57634e487b7160e01b600052601260045260246000fd5b500690565b7f3c6c696e6561724772616469656e742069643d22736b794772616469656e742281527f206772616469656e745472616e73666f726d3d22726f7461746528000000000060208201526000825161207d81603b85016020870161194f565b7f29223e0000000000000000000000000000000000000000000000000000000000603b939091019283015250603e01919050565b606081016103c48284805161ffff908116835260208083015182169084015260409182015116910152565b600083516120ee81846020880161194f565b7f3c73746f70206f66667365743d223025220000000000000000000000000000009083019081526c1039ba37b816b1b7b637b91e9160991b6011820152835161213e81601e84016020880161194f565b6211179f60e91b601e9290910191820152602101949350505050565b6000835161216c81846020880161194f565b80830190507f3c73746f70206f66667365743d2231303025220000000000000000000000000081526c1039ba37b816b1b7b637b91e9160991b601382015283516121bd81602084016020880161194f565b6211179f60e91b60209290910191820152602301949350505050565b600085516121eb818460208a0161194f565b80830190507f3c2f6c696e6561724772616469656e743e3c6c696e6561724772616469656e7481527f2069643d22636c6f75644772616469656e7422206772616469656e745472616e60208201527f73666f726d3d22726f74617465280000000000000000000000000000000000006040820152855161227281604e840160208a0161194f565b7f29223e3c73746f702073746f702d6f7061636974793d222e0000000000000000604e929091019182015284516122b081606684016020890161194f565b7f22206f66667365743d22313525222f3e3c73746f702073746f702d6f70616369606692909101918201527f74793d222e3522206f66667365743d22333025222f3e0000000000000000000060868201527f3c73746f702073746f702d6f7061636974793d222e0000000000000000000000609c820152835161233a8160b184016020880161194f565b61237660b1828401017f22206f66667365743d22353025222f3e3c2f6c696e6561724772616469656e748152601f60f91b602082015260210190565b98975050505050505050565b608081016123ad8285805161ffff908116835260208083015182169084015260409182015116910152565b61ffff831660608301529392505050565b6000606082840312156123d057600080fd5b6123d8611a36565b82516123e3816119b2565b815260208301516123f3816119b2565b60208201526040830151612406816119b2565b60408201529392505050565b6000845161242481846020890161194f565b80830190507f3c6c696e6561724772616469656e742069643d226461794772616469656e742281527f206772616469656e745472616e73666f726d3d22726f7461746528313329223e60208201527f3c73746f70206f66667365743d223025222073746f702d636f6c6f723d220000604082015284516124ab81605e84016020890161194f565b8082019150506211179f60e91b80605e8301527f3c73746f70206f66667365743d2231303025222073746f702d636f6c6f723d22606183015284516124f781608185016020890161194f565b60819201918201527f3c2f6c696e6561724772616469656e743e000000000000000000000000000000608482015260950195945050505050565b6000835161254381846020880161194f565b80830190507f3c66696c7465722069643d227374617273223e3c666554757262756c656e636581527f20626173654672657175656e63793d222e33352220736565643d220000000000602082015283516125a481603b84016020880161194f565b6211179f60e91b603b92909101918201527f3c6665436f6c6f724d61747269782076616c7565733d2230203020302039202d603e8201527f342030203020302039202d342030203020302039202d34203020302030203020605e8201527f31222f3e3c2f66696c7465723e00000000000000000000000000000000000000607e820152608b01949350505050565b6000835161264481846020880161194f565b80830190507f3c66696c7465722069643d22636c6f7564732220783d222d3530252220793d2281527f2d35302522206865696768743d2232303025222077696474683d22323030252260208201527f3e3c6665476175737369616e426c757220696e3d22736b79222073746444657660408201527f696174696f6e3d2232302220726573756c743d22736b79626c7572222f3e000060608201527f3c666554757262756c656e636520747970653d226672616374616c4e6f697365607e8201527f2220626173654672657175656e63793d222e303122206e756d4f637461766573609e8201527f3d22352220726573756c743d22736b796e6f6973652220736565643d2200000060be82015283516127638160db84016020880161194f565b6211179f60e91b910160db81018290527f3c6665436f6c6f724d61747269782076616c7565733d2231203020302030203060de8201527f20312030203020302030203120302030203020302033202d31202d312030203060fe82015261011e8101919091527f3c6665436f6d706f73697465206f70657261746f723d22696e2220696e323d226101218201527f536f7572636547726170686963222f3e3c2f66696c7465723e0000000000000061014182015261015a810161100f565b6000825161283281846020870161194f565b7f3c66696c7465722069643d226c69676874223e3c666553706563756c61724c699201918252507f676874696e6720726573756c743d22737065634f7574222073706563756c617260208201527f4578706f6e656e743d2231303022206c69676874696e672d636f6c6f723d227760408201527f68697465223e000000000000000000000000000000000000000000000000000060608201527f3c6665506f696e744c6967687420783d2231302220793d22373022207a3d223360668201527f3030222f3e3c2f666553706563756c61724c69676874696e673e00000000000060868201527f3c6665436f6d706f7369746520696e3d22536f7572636547726170686963222060a08201527f696e323d22737065634f757422206f70657261746f723d2261726974686d657460c08201527f696322206b313d223022206b323d223122206b333d223122206b343d2230222f60e08201527f3e3c2f66696c7465723e0000000000000000000000000000000000000000000061010082015261010a01919050565b634e487b7160e01b600052601160045260246000fd5b60ff81811683821601908111156103c4576103c46129b9565b600060ff821660ff81036129fe576129fe6129b9565b60010192915050565b60008351612a1981846020880161194f565b835190830190612a2d81836020880161194f565b01949350505050565b7f3c7376672076696577426f783d2230203020353132203531322220786d6c6e7381527f3d22687474703a2f2f7777772e77332e6f72672f323030302f737667223e3c6360208201527f6c6970506174682069643d22626f78223e3c7061746820643d224d302030683560408201527f31327635313248307a222f3e3c2f636c6970506174683e3c646566733e000000606082015260008651612ae081607d850160208b0161194f565b865190830190612af781607d840160208b0161194f565b7f3c2f646566733e3c7376672076696577426f783d223020302035313220353132607d92909101918201527f2220636c69702d706174683d2275726c2823626f7829223e0000000000000000609d8201528551612b5b8160b5840160208a0161194f565b612b73612b6d60b58385010188611d0f565b86611d0f565b915050612b8881651e17b9bb339f60d11b9052565b651e17b9bb339f60d11b6006820152600c01979650505050505050565b60008060408385031215612bb857600080fd5b825167ffffffffffffffff811115612bcf57600080fd5b612bdb85828601611c52565b925050602083015160ff811681146119f357600080fd5b7f3c672069643d22636f6e7374656c6c6174696f6e223e00000000000000000000815260008251612c2a81601685016020870161194f565b631e17b39f60e11b6016939091019283015250601a01919050565b604081526000612c586040830185611973565b90508260208301529392505050565b61ffff818116838216019080821115612c8257612c826129b9565b5092915050565b808201808211156103c4576103c46129b9565b60008651612cae818460208b0161194f565b7f3c636972636c6520723d2231222063783d2200000000000000000000000000009083019081528651612ce8816012840160208b0161194f565b65111031bc9e9160d11b601292909101918201528551612d0f816018840160208a0161194f565b7f222066696c6c3d22236666662220206f7061636974793d2231223e0000000000601892909101918201527f3c616e696d617465206174747269627574654e616d653d2272222076616c756560338201527f733d22313b303b323b313b313b313b313b313b313b3122206475723d2200000060538201528451612d9981607084016020890161194f565b6939911039ba30b93a1e9160b11b60709290910191820152612376612dc1607a830186611d0f565b7f732220726570656174436f756e743d22696e646566696e697465222f3e3c2f6381527f6972636c653e0000000000000000000000000000000000000000000000000000602082015260260190565b60008651612e22818460208b0161194f565b7f3c7061746820643d224d200000000000000000000000000000000000000000009083019081528651612e5c81600b840160208b0161194f565b7f2c00000000000000000000000000000000000000000000000000000000000000600b92909101918201528551612e9a81600c840160208a0161194f565b7f6320372c3020372c3020372c2d37206320302c3720302c3720372c372063202d600c92909101918201527f372c30202d372c30202d372c37206320302c2d3720302c2d37202d372c2d3722602c820152601f60f91b604c8201527f3c616e696d617465206174747269627574654e616d653d2272222076616c7565604d8201527f733d22313b303b313b313b313b313b313b313b3122206475723d220000000000606d820152612f4e6088820186611d0f565b6939911039ba30b93a1e9160b11b81529050612376612f70600a830186611d0f565b7f732220726570656174436f756e743d22696e646566696e697465222f3e3c2f7081527f6174683e00000000000000000000000000000000000000000000000000000000602082015260240190565b60008851612fd1818460208d0161194f565b7f3c636972636c6520723d2233222063783d220000000000000000000000000000908301908152885161300b816012840160208d0161194f565b65111031bc9e9160d11b601292909101918201528751613032816018840160208c0161194f565b7f22206f7061636974793d22302e33223e3c616e696d6174652061747472696275910160188101919091527f74654e616d653d2272222076616c7565733d22303b353b3322206475723d223160388201527f73222f3e3c2f636972636c653e0000000000000000000000000000000000000060588201527f3c636972636c6520723d2231222063783d22000000000000000000000000000060658201526130dc6077820188611d0f565b65111031bc9e9160d11b8152905061314c612b6d6130fd6006840189611d0f565b7f223e3c616e696d617465206174747269627574654e616d653d2272222076616c81527f7565733d22313b303b323b313b313b313b313b313b313b3122206475723d22006020820152603f0190565b6939911039ba30b93a1e9160b11b8152905061316e612dc1600a830186611d0f565b9a9950505050505050505050565b6000825161318e81846020870161194f565b631e17b39f60e11b920191825250600401919050565b600084516131b681846020890161194f565b8451908301906131ca81836020890161194f565b84519101906131dd81836020880161194f565b019594505050505056fea26469706673582212209ce985bf5ee19ee59d8794f0e406795c0650c4846400ca74f068987d0967b23564736f6c63430008120033",
  "libraries": {
    "Color": "0xE25042E93e159740b9B555Fb82cC941D38bA3DC7",
    "Constellations": "0x04D426eBa09a9AE6001F836A4cC84c172B6816f1"
  },
  "devdoc": {
    "kind": "dev",
    "methods": {},
    "version": 1
  },
  "userdoc": {
    "kind": "user",
    "methods": {},
    "version": 1
  },
  "storageLayout": {
    "storage": [],
    "types": null
  }
}