{
  "address": "0x92f307e239BbD56b02837d79e3F2eBd2751D44e9",
  "abi": [
    {
      "inputs": [
        {
          "components": [
            {
              "internalType": "uint256",
              "name": "tokenId",
              "type": "uint256"
            },
            {
              "internalType": "uint16",
              "name": "primaryHue",
              "type": "uint16"
            },
            {
              "internalType": "uint16",
              "name": "secondaryHue",
              "type": "uint16"
            },
            {
              "internalType": "uint8",
              "name": "constellation",
              "type": "uint8"
            },
            {
              "internalType": "uint8",
              "name": "cloudsAt",
              "type": "uint8"
            },
            {
              "internalType": "uint256",
              "name": "starSeed",
              "type": "uint256"
            },
            {
              "internalType": "uint256",
              "name": "funkSeed",
              "type": "uint256"
            },
            {
              "internalType": "uint256",
              "name": "circleSeed",
              "type": "uint256"
            },
            {
              "internalType": "uint256",
              "name": "groundSeed",
              "type": "uint256"
            }
          ],
          "internalType": "struct Color.DNA",
          "name": "dna",
          "type": "tuple"
        },
        {
          "internalType": "uint256",
          "name": "gazes",
          "type": "uint256"
        },
        {
          "internalType": "bool",
          "name": "daytime",
          "type": "bool"
        },
        {
          "internalType": "address",
          "name": "decorator",
          "type": "address"
        }
      ],
      "name": "generateSVG",
      "outputs": [
        {
          "internalType": "string",
          "name": "",
          "type": "string"
        }
      ],
      "stateMutability": "view",
      "type": "function"
    },
    {
      "inputs": [
        {
          "internalType": "bool",
          "name": "day",
          "type": "bool"
        }
      ],
      "name": "getBackgrounds",
      "outputs": [
        {
          "internalType": "string",
          "name": "",
          "type": "string"
        }
      ],
      "stateMutability": "pure",
      "type": "function"
    },
    {
      "inputs": [
        {
          "internalType": "uint256",
          "name": "seed",
          "type": "uint256"
        }
      ],
      "name": "getFilters",
      "outputs": [
        {
          "internalType": "string",
          "name": "",
          "type": "string"
        }
      ],
      "stateMutability": "pure",
      "type": "function"
    },
    {
      "inputs": [
        {
          "internalType": "uint256",
          "name": "seed",
          "type": "uint256"
        },
        {
          "components": [
            {
              "internalType": "uint16",
              "name": "H",
              "type": "uint16"
            },
            {
              "internalType": "uint16",
              "name": "S",
              "type": "uint16"
            },
            {
              "internalType": "uint16",
              "name": "L",
              "type": "uint16"
            }
          ],
          "internalType": "struct Color.HSL",
          "name": "primary",
          "type": "tuple"
        },
        {
          "components": [
            {
              "internalType": "uint16",
              "name": "H",
              "type": "uint16"
            },
            {
              "internalType": "uint16",
              "name": "S",
              "type": "uint16"
            },
            {
              "internalType": "uint16",
              "name": "L",
              "type": "uint16"
            }
          ],
          "internalType": "struct Color.HSL",
          "name": "secondary",
          "type": "tuple"
        },
        {
          "internalType": "uint8",
          "name": "cloudDays",
          "type": "uint8"
        }
      ],
      "name": "getGradients",
      "outputs": [
        {
          "internalType": "string",
          "name": "",
          "type": "string"
        }
      ],
      "stateMutability": "pure",
      "type": "function"
    },
    {
      "inputs": [
        {
          "internalType": "uint256",
          "name": "starSeed",
          "type": "uint256"
        },
        {
          "internalType": "uint8",
          "name": "constellationId",
          "type": "uint8"
        },
        {
          "internalType": "uint256",
          "name": "gazes",
          "type": "uint256"
        },
        {
          "internalType": "bool",
          "name": "daytime",
          "type": "bool"
        }
      ],
      "name": "getStars",
      "outputs": [
        {
          "internalType": "string",
          "name": "",
          "type": "string"
        }
      ],
      "stateMutability": "view",
      "type": "function"
    },
    {
      "inputs": [
        {
          "internalType": "uint256",
          "name": "tokenId",
          "type": "uint256"
        },
        {
          "internalType": "uint256",
          "name": "nonce",
          "type": "uint256"
        }
      ],
      "name": "psuedorandom",
      "outputs": [
        {
          "internalType": "uint256",
          "name": "",
          "type": "uint256"
        }
      ],
      "stateMutability": "pure",
      "type": "function"
    },
    {
      "inputs": [
        {
          "internalType": "uint16",
          "name": "first",
          "type": "uint16"
        },
        {
          "internalType": "uint16",
          "name": "second",
          "type": "uint16"
        }
      ],
      "name": "subZero",
      "outputs": [
        {
          "internalType": "uint16",
          "name": "",
          "type": "uint16"
        }
      ],
      "stateMutability": "pure",
      "type": "function"
    }
  ],
  "transactionHash": "0x0ef173e80c70a906e55372e69fc1781a85b6e5c3594b0cbe9f23c9c66dcf4300",
  "args": [],
  "numDeployments": 3,
  "solcInputHash": "b164a235e38b6db2b6e42fcb38ad18a0",
  "bytecode": "0x608060405234801561001057600080fd5b50612fa3806100206000396000f3fe608060405234801561001057600080fd5b506004361061007d5760003560e01c80633a20c8791161005b5780633a20c879146100e45780636e6e0cf0146101055780638de0890a14610118578063eec2fb541461012b57600080fd5b8063075d103714610082578063176a29a5146100ab5780633329f04f146100be575b600080fd5b610095610090366004611810565b61013e565b6040516100a291906118b2565b60405180910390f35b6100956100b93660046118d5565b610780565b6100d16100cc3660046118f0565b610968565b60405161ffff90911681526020016100a2565b6100f76100f2366004611929565b610a0c565b6040519081526020016100a2565b61009561011336600461194b565b610a8a565b610095610126366004611964565b610ce3565b6100956101393660046119c3565b610f3c565b604051633a20c87960e01b815260048101859052607b60248201526060906000907368AD5E2e4709849e1730aFF98C9b78648EF2752d90631b0d4b4d90602d908390633a20c87990604401602060405180830381865af41580156101a6573d6000803e3d6000fd5b505050506040513d601f19601f820116820180604052508101906101ca9190611a8a565b6101d49190611aa3565b6040516001600160e01b031960e084901b16815261ffff9091166004820152602401600060405180830381865af4158015610213573d6000803e3d6000fd5b505050506040513d6000823e601f3d908101601f1916820160405261023b9190810190611b43565b90506000816040516020016102509190611b94565b60408051601f19818403018152908290526303f1727f60e21b8252915081907368AD5E2e4709849e1730aFF98C9b78648EF2752d90630fc5c9fc90610299908a90600401611c26565b600060405180830381865af41580156102b6573d6000803e3d6000fd5b505050506040513d6000823e601f3d908101601f191682016040526102de9190810190611b43565b6040516020016102ef929190611c51565b60408051601f19818403018152908290526303f1727f60e21b8252915081907368AD5E2e4709849e1730aFF98C9b78648EF2752d90630fc5c9fc90610338908990600401611c26565b600060405180830381865af4158015610355573d6000803e3d6000fd5b505050506040513d6000823e601f3d908101601f1916820160405261037d9190810190611b43565b60405160200161038e929190611ccf565b604051602081830303815290604052905080827368AD5E2e4709849e1730aFF98C9b78648EF2752d631b0d4b4d8760ff166000146103cc57876103cf565b60015b6040516001600160e01b031960e084901b16815260ff9091166004820152602401600060405180830381865af415801561040d573d6000803e3d6000fd5b505050506040513d6000823e601f3d908101601f191682016040526104359190810190611b43565b7368AD5E2e4709849e1730aFF98C9b78648EF2752d631b0d4b4d60ff89161561045e5788610461565b60015b6040516001600160e01b031960e084901b16815260ff9091166004820152602401600060405180830381865af415801561049f573d6000803e3d6000fd5b505050506040513d6000823e601f3d908101601f191682016040526104c79190810190611b43565b6040516020016104da9493929190611d4e565b60408051601f1981840301815290829052631b21034b60e31b825291506000907368AD5E2e4709849e1730aFF98C9b78648EF2752d9063d9081a5890610527908a9060f090600401611ef7565b606060405180830381865af4158015610544573d6000803e3d6000fd5b505050506040513d601f19601f820116820180604052508101906105689190611f33565b605a60408083019190915251631b21034b60e31b815290915082907368AD5E2e4709849e1730aFF98C9b78648EF2752d90630fc5c9fc90829063d9081a58906105b8908d9060b490600401611ef7565b606060405180830381865af41580156105d5573d6000803e3d6000fd5b505050506040513d601f19601f820116820180604052508101906105f99190611f33565b6040518263ffffffff1660e01b81526004016106159190611c26565b600060405180830381865af4158015610632573d6000803e3d6000fd5b505050506040513d6000823e601f3d908101601f1916820160405261065a9190810190611b43565b7368AD5E2e4709849e1730aFF98C9b78648EF2752d630fc5c9fc7368AD5E2e4709849e1730aFF98C9b78648EF2752d63d9081a588b60b46040518363ffffffff1660e01b81526004016106ae929190611ef7565b606060405180830381865af41580156106cb573d6000803e3d6000fd5b505050506040513d601f19601f820116820180604052508101906106ef9190611f33565b6040518263ffffffff1660e01b815260040161070b9190611c26565b600060405180830381865af4158015610728573d6000803e3d6000fd5b505050506040513d6000823e601f3d908101601f191682016040526107509190810190611b43565b60405160200161076293929190611f87565b60408051601f1981840301815291905293505050505b949350505050565b6040805160208101909152600081526060907368AD5E2e4709849e1730aFF98C9b78648EF2752d631b0d4b4d846107b85760016107bb565b60005b6040516001600160e01b031960e084901b16815260ff9091166004820152602401600060405180830381865af41580156107f9573d6000803e3d6000fd5b505050506040513d6000823e601f3d908101601f191682016040526108219190810190611b43565b7368AD5E2e4709849e1730aFF98C9b78648EF2752d631b0d4b4d8561084757600061084a565b60015b6040516001600160e01b031960e084901b16815260ff9091166004820152602401600060405180830381865af4158015610888573d6000803e3d6000fd5b505050506040513d6000823e601f3d908101601f191682016040526108b09190810190611b43565b7368AD5E2e4709849e1730aFF98C9b78648EF2752d631b0d4b4d866108d65760076108d9565b60005b6040516001600160e01b031960e084901b16815260ff9091166004820152602401600060405180830381865af4158015610917573d6000803e3d6000fd5b505050506040513d6000823e601f3d908101601f1916820160405261093f9190810190611b43565b604051602001610951939291906120a6565b60408051601f198184030181529190529392505050565b6040517f3329f04f00000000000000000000000000000000000000000000000000000000815261ffff8084166004830152821660248201526000907368AD5E2e4709849e1730aFF98C9b78648EF2752d90633329f04f90604401602060405180830381865af41580156109df573d6000803e3d6000fd5b505050506040513d601f19601f82011682018060405250810190610a03919061233b565b90505b92915050565b604051633a20c87960e01b815260048101839052602481018290526000907368AD5E2e4709849e1730aFF98C9b78648EF2752d90633a20c87990604401602060405180830381865af4158015610a66573d6000803e3d6000fd5b505050506040513d601f19601f82011682018060405250810190610a039190611a8a565b60408051602081018252600081529051633a20c87960e01b815260048101839052607b60248201526060919081907368AD5E2e4709849e1730aFF98C9b78648EF2752d90631b0d4b4d90612710908390633a20c87990604401602060405180830381865af4158015610b00573d6000803e3d6000fd5b505050506040513d601f19601f82011682018060405250810190610b249190611a8a565b610b2e9190611aa3565b6040516001600160e01b031960e084901b16815261ffff9091166004820152602401600060405180830381865af4158015610b6d573d6000803e3d6000fd5b505050506040513d6000823e601f3d908101601f19168201604052610b959190810190611b43565b604051602001610ba692919061235f565b60408051601f1981840301815290829052633a20c87960e01b825260048201859052607b6024830152915081907368AD5E2e4709849e1730aFF98C9b78648EF2752d90631b0d4b4d90612710908390633a20c87990604401602060405180830381865af4158015610c1b573d6000803e3d6000fd5b505050506040513d601f19601f82011682018060405250810190610c3f9190611a8a565b610c499190611aa3565b6040516001600160e01b031960e084901b16815261ffff9091166004820152602401600060405180830381865af4158015610c88573d6000803e3d6000fd5b505050506040513d6000823e601f3d908101601f19168201604052610cb09190810190611b43565b604051602001610cc1929190612460565b6040516020818303038152906040529050806040516020016109519190612652565b60608115610d005750604080516020810190915260008152610778565b6000806032851115610d18575060329350601e905060145b84610d238284612801565b60ff161015610df05760037368AD5E2e4709849e1730aFF98C9b78648EF2752d633a20c87989610d538686612801565b6040516001600160e01b031960e085901b168152600481019290925260ff166024820152604401602060405180830381865af4158015610d97573d6000803e3d6000fd5b505050506040513d601f19601f82011682018060405250810190610dbb9190611a8a565b610dc59190611aa3565b600103610dde5780610dd68161281a565b915050610d18565b81610de88161281a565b925050610d18565b600080610dfd8884610fe4565b6040805160208082018352600082528251808401909352600b83527f636f6e7374436f756e742000000000000000000000000000000000000000000090830152929450909250610e509060ff86166110b9565b610e926040518060400160405280600a81526020017f73746172436f756e7420000000000000000000000000000000000000000000008152508660ff166110b9565b610ed46040518060400160405280600a81526020017f6c6566746f7665727320000000000000000000000000000000000000000000008152508360ff166110b9565b8083604051602001610ee7929190612839565b60408051601f19818403018152919052905080610f0d8b610f088589612801565b611130565b604051602001610f1e929190612839565b60408051808303601f190181529190529a9950505050505050505050565b604080516060818101835260208088015161ffff90811684526064828501819052601e858701819052865180860188528b8801519093168352928201529384015260a08701516080880151919391600091610f9a918590859061013e565b610fa78960c00151610a8a565b610fb088610780565b610fc48b60a001518c606001518c8c610ce3565b610fd0898d8d8d61150a565b604051602001610762959493929190612868565b6040517f5b33e80e00000000000000000000000000000000000000000000000000000000815260ff8084166004830152821660248201526060906000908190819073a3E718724798152D7aFF476cB6821C2f15D4DbE790635b33e80e90604401600060405180830381865af4158015611061573d6000803e3d6000fd5b505050506040513d6000823e601f3d908101601f1916820160405261108991908101906129d7565b915091508160405160200161109e9190612a1e565b60408051808303601f19018152919052969095509350505050565b61112c82826040516024016110cf929190612a71565b60408051601f198184030181529190526020810180517bffffffffffffffffffffffffffffffffffffffffffffffffffffffff167fb60e72cc0000000000000000000000000000000000000000000000000000000017905261155b565b5050565b604080518082018252600f81527f3c672066696c6c3d2223666666223e00000000000000000000000000000000006020808301919091528251808201845260008082528451928301909452838252606093909190805b8660ff168160ff1610156114dd57604051633a20c87960e01b81526004810189905260ff821660248201526003907368AD5E2e4709849e1730aFF98C9b78648EF2752d90633a20c87990604401602060405180830381865af41580156111f0573d6000803e3d6000fd5b505050506040513d601f19601f820116820180604052508101906112149190611a8a565b61121e9190611aa3565b604051633a20c87960e01b8152600481018a905260ff831660248201529092507368AD5E2e4709849e1730aFF98C9b78648EF2752d90631b0d4b4d906101ce908390633a20c87990604401602060405180830381865af4158015611286573d6000803e3d6000fd5b505050506040513d601f19601f820116820180604052508101906112aa9190611a8a565b6112b49190611aa3565b6112bf906019612a93565b6040516001600160e01b031960e084901b16815261ffff9091166004820152602401600060405180830381865af41580156112fe573d6000803e3d6000fd5b505050506040513d6000823e601f3d908101601f191682016040526113269190810190611b43565b93507368AD5E2e4709849e1730aFF98C9b78648EF2752d631b0d4b4d6101ce82633a20c87961135860ff88168e612ab5565b6040516001600160e01b031960e084901b168152600481019190915260ff87166024820152604401602060405180830381865af415801561139d573d6000803e3d6000fd5b505050506040513d601f19601f820116820180604052508101906113c19190611a8a565b6113cb9190611aa3565b6113d6906019612a93565b6040516001600160e01b031960e084901b16815261ffff9091166004820152602401600060405180830381865af4158015611415573d6000803e3d6000fd5b505050506040513d6000823e601f3d908101601f1916820160405261143d9190810190611b43565b92508160ff166000036114755784848460405160200161145f93929190612ac8565b60405160208183030381529060405294506114cb565b8160ff166001036114955784848460405160200161145f93929190612bbe565b8160ff166002036114cb5784848486866040516020016114b9959493929190612cd5565b60405160208183030381529060405294505b806114d58161281a565b915050611186565b50836040516020016114ef9190612e6d565b60405160208183030381529060405294505050505092915050565b60606115188585858561157c565b6115248686868661163b565b611530878787876116ab565b60405160200161154293929190612e95565b6040516020818303038152906040529050949350505050565b80516a636f6e736f6c652e6c6f67602083016000808483855afa5050505050565b60606001600160a01b0385166115a15750604080516020810190915260008152610778565b6040517ffb431aad00000000000000000000000000000000000000000000000000000000815285906001600160a01b0382169063fb431aad906115ec90889088908890600401612ed8565b600060405180830381865afa158015611609573d6000803e3d6000fd5b505050506040513d6000823e601f3d908101601f191682016040526116319190810190611b43565b9695505050505050565b60606001600160a01b0385166116605750604080516020810190915260008152610778565b6040517f31f32ada00000000000000000000000000000000000000000000000000000000815285906001600160a01b038216906331f32ada906115ec90889088908890600401612ed8565b60606001600160a01b0385166116d05750604080516020810190915260008152610778565b6040517f0e82b0af00000000000000000000000000000000000000000000000000000000815285906001600160a01b03821690630e82b0af906115ec90889088908890600401612ed8565b634e487b7160e01b600052604160045260246000fd5b6040516060810167ffffffffffffffff811182821017156117545761175461171b565b60405290565b604051610120810167ffffffffffffffff811182821017156117545761175461171b565b61ffff8116811461178e57600080fd5b50565b803561179c8161177e565b919050565b6000606082840312156117b357600080fd5b6117bb611731565b905081356117c88161177e565b815260208201356117d88161177e565b602082015260408201356117eb8161177e565b604082015292915050565b60ff8116811461178e57600080fd5b803561179c816117f6565b600080600080610100858703121561182757600080fd5b8435935061183886602087016117a1565b925061184786608087016117a1565b915060e0850135611857816117f6565b939692955090935050565b60005b8381101561187d578181015183820152602001611865565b50506000910152565b6000815180845261189e816020860160208601611862565b601f01601f19169290920160200192915050565b602081526000610a036020830184611886565b8035801515811461179c57600080fd5b6000602082840312156118e757600080fd5b610a03826118c5565b6000806040838503121561190357600080fd5b823561190e8161177e565b9150602083013561191e8161177e565b809150509250929050565b6000806040838503121561193c57600080fd5b50508035926020909101359150565b60006020828403121561195d57600080fd5b5035919050565b6000806000806080858703121561197a57600080fd5b84359350602085013561198c816117f6565b9250604085013591506119a1606086016118c5565b905092959194509250565b80356001600160a01b038116811461179c57600080fd5b6000806000808486036101808112156119db57600080fd5b610120808212156119eb57600080fd5b6119f361175a565b915086358252611a0560208801611791565b6020830152611a1660408801611791565b6040830152611a2760608801611805565b6060830152611a3860808801611805565b608083015260a0878101359083015260c0808801359083015260e0808801359083015261010080880135908301529094508501359250611a7b61014086016118c5565b91506119a161016086016119ac565b600060208284031215611a9c57600080fd5b5051919050565b600082611ac057634e487b7160e01b600052601260045260246000fd5b500690565b600082601f830112611ad657600080fd5b815167ffffffffffffffff80821115611af157611af161171b565b604051601f8301601f19908116603f01168101908282118183101715611b1957611b1961171b565b81604052838152866020858801011115611b3257600080fd5b611631846020830160208901611862565b600060208284031215611b5557600080fd5b815167ffffffffffffffff811115611b6c57600080fd5b61077884828501611ac5565b60008151611b8a818560208601611862565b9290920192915050565b7f3c6c696e6561724772616469656e742069643d22736b794772616469656e742281527f206772616469656e745472616e73666f726d3d22726f74617465280000000000602082015260008251611bf281603b850160208701611862565b7f29223e0000000000000000000000000000000000000000000000000000000000603b939091019283015250603e01919050565b60608101610a068284805161ffff908116835260208083015182169084015260409182015116910152565b60008351611c63818460208801611862565b7f3c73746f70206f66667365743d223025220000000000000000000000000000009083019081526c1039ba37b816b1b7b637b91e9160991b60118201528351611cb381601e840160208801611862565b6211179f60e91b601e9290910191820152602101949350505050565b60008351611ce1818460208801611862565b80830190507f3c73746f70206f66667365743d2231303025220000000000000000000000000081526c1039ba37b816b1b7b637b91e9160991b60138201528351611d32816020840160208801611862565b6211179f60e91b60209290910191820152602301949350505050565b60008551611d60818460208a01611862565b80830190507f3c2f6c696e6561724772616469656e743e3c6c696e6561724772616469656e7481527f2069643d22636c6f75644772616469656e7422206772616469656e745472616e60208201527f73666f726d3d22726f746174652800000000000000000000000000000000000060408201528551611de781604e840160208a01611862565b7f29223e3c73746f702073746f702d6f7061636974793d222e0000000000000000604e92909101918201528451611e25816066840160208901611862565b7f22206f66667365743d22313525222f3e3c73746f702073746f702d6f70616369606692909101918201527f74793d222e3522206f66667365743d22333025222f3e0000000000000000000060868201527f3c73746f702073746f702d6f7061636974793d222e0000000000000000000000609c8201528351611eaf8160b1840160208801611862565b611eeb60b1828401017f22206f66667365743d22353025222f3e3c2f6c696e6561724772616469656e748152601f60f91b602082015260210190565b98975050505050505050565b60808101611f228285805161ffff908116835260208083015182169084015260409182015116910152565b61ffff831660608301529392505050565b600060608284031215611f4557600080fd5b611f4d611731565b8251611f588161177e565b81526020830151611f688161177e565b60208201526040830151611f7b8161177e565b60408201529392505050565b60008451611f99818460208901611862565b80830190507f3c6c696e6561724772616469656e742069643d226461794772616469656e742281527f206772616469656e745472616e73666f726d3d22726f7461746528313329223e60208201527f3c73746f70206f66667365743d223025222073746f702d636f6c6f723d2200006040820152845161202081605e840160208901611862565b8082019150506211179f60e91b80605e8301527f3c73746f70206f66667365743d2231303025222073746f702d636f6c6f723d226061830152845161206c816081850160208901611862565b60819201918201527f3c2f6c696e6561724772616469656e743e000000000000000000000000000000608482015260950195945050505050565b7f3c726563742077696474683d223130302522206865696768743d22313030252281527f2066696c7465723d2275726c282373746172732922206f7061636974793d220060208201526000845161210481603f850160208901611862565b6211179f60e91b603f918401918201527f3c706174682066696c6c3d2275726c28236461794772616469656e742922206460428201527f3d224d302030683531327635313248307a22206f7061636974793d22000000006062820152845161217381607e840160208901611862565b7f22202066696c7465723d2275726c28236c6967687429222f3e00000000000000607e92909101918201527f3c706174682066696c6c3d2275726c2823736b794772616469656e742922202060978201527f643d224d302030683531327635313248307a22206f7061636974793d222e000060b78201526121f760d5820185611b78565b6211179f60e91b815290507f3c706174682066696c6c3d2275726c2823636c6f75644772616469656e74292260038201527f2066696c7465723d2275726c2823636c6f756473292220643d224d2d3531322d60238201527f35313268313533367631353336682d323034387a223e3c616e696d617465547260438201527f616e73666f726d206174747269627574654e616d653d227472616e73666f726d60638201527f2220617474726962757465547970653d22584d4c2220747970653d227472616e60838201527f736c617465222066726f6d3d22302220746f3d2235313220353132222064757260a38201527f3d223530732220726570656174436f756e743d22696e646566696e697465222f60c38201527f3e3c2f706174683e00000000000000000000000000000000000000000000000060e382015260eb8101611631565b60006020828403121561234d57600080fd5b81516123588161177e565b9392505050565b60008351612371818460208801611862565b80830190507f3c66696c7465722069643d227374617273223e3c666554757262756c656e636581527f20626173654672657175656e63793d222e33352220736565643d220000000000602082015283516123d281603b840160208801611862565b6211179f60e91b603b92909101918201527f3c6665436f6c6f724d61747269782076616c7565733d2230203020302039202d603e8201527f342030203020302039202d342030203020302039202d34203020302030203020605e8201527f31222f3e3c2f66696c7465723e00000000000000000000000000000000000000607e820152608b01949350505050565b60008351612472818460208801611862565b80830190507f3c66696c7465722069643d22636c6f7564732220783d222d3530252220793d2281527f2d35302522206865696768743d2232303025222077696474683d22323030252260208201527f3e3c6665476175737369616e426c757220696e3d22736b79222073746444657660408201527f696174696f6e3d2232302220726573756c743d22736b79626c7572222f3e000060608201527f3c666554757262756c656e636520747970653d226672616374616c4e6f697365607e8201527f2220626173654672657175656e63793d222e303122206e756d4f637461766573609e8201527f3d22352220726573756c743d22736b796e6f6973652220736565643d2200000060be82015283516125918160db840160208801611862565b6211179f60e91b910160db81018290527f3c6665436f6c6f724d61747269782076616c7565733d2231203020302030203060de8201527f20312030203020302030203120302030203020302033202d31202d312030203060fe82015261011e8101919091527f3c6665436f6d706f73697465206f70657261746f723d22696e2220696e323d226101218201527f536f7572636547726170686963222f3e3c2f66696c7465723e0000000000000061014182015261015a810195945050505050565b60008251612664818460208701611862565b7f3c66696c7465722069643d226c69676874223e3c666553706563756c61724c699201918252507f676874696e6720726573756c743d22737065634f7574222073706563756c617260208201527f4578706f6e656e743d2231303022206c69676874696e672d636f6c6f723d227760408201527f68697465223e000000000000000000000000000000000000000000000000000060608201527f3c6665506f696e744c6967687420783d2231302220793d22373022207a3d223360668201527f3030222f3e3c2f666553706563756c61724c69676874696e673e00000000000060868201527f3c6665436f6d706f7369746520696e3d22536f7572636547726170686963222060a08201527f696e323d22737065634f757422206f70657261746f723d2261726974686d657460c08201527f696322206b313d223022206b323d223122206b333d223122206b343d2230222f60e08201527f3e3c2f66696c7465723e0000000000000000000000000000000000000000000061010082015261010a01919050565b634e487b7160e01b600052601160045260246000fd5b60ff8181168382160190811115610a0657610a066127eb565b600060ff821660ff8103612830576128306127eb565b60010192915050565b6000835161284b818460208801611862565b83519083019061285f818360208801611862565b01949350505050565b7f3c7376672076696577426f783d2230203020353132203531322220786d6c6e7381527f3d22687474703a2f2f7777772e77332e6f72672f323030302f737667223e3c6360208201527f6c6970506174682069643d22626f78223e3c7061746820643d224d302030683560408201527f31327635313248307a222f3e3c2f636c6970506174683e3c646566733e00000060608201526000865161291281607d850160208b01611862565b86519083019061292981607d840160208b01611862565b7f3c2f646566733e3c7376672076696577426f783d223020302035313220353132607d92909101918201527f2220636c69702d706174683d2275726c2823626f7829223e0000000000000000609d820152855161298d8160b5840160208a01611862565b6129a561299f60b58385010188611b78565b86611b78565b9150506129ba81651e17b9bb339f60d11b9052565b651e17b9bb339f60d11b6006820152600c01979650505050505050565b600080604083850312156129ea57600080fd5b825167ffffffffffffffff811115612a0157600080fd5b612a0d85828601611ac5565b925050602083015161191e816117f6565b7f3c672069643d22636f6e7374656c6c6174696f6e223e00000000000000000000815260008251612a56816016850160208701611862565b631e17b39f60e11b6016939091019283015250601a01919050565b604081526000612a846040830185611886565b90508260208301529392505050565b61ffff818116838216019080821115612aae57612aae6127eb565b5092915050565b80820180821115610a0657610a066127eb565b60008451612ada818460208901611862565b7f3c636972636c6520723d2231222063783d2200000000000000000000000000009083019081528451612b14816012840160208901611862565b65111031bc9e9160d11b601292909101918201528351612b3b816018840160208801611862565b7f222066696c6c3d22236666662220206f7061636974793d2231223e0000000000601892909101918201527f3c616e696d617465206174747269627574654e616d653d2272222076616c756560338201527f733d22303b333b3122206475723d223173222f3e3c2f636972636c653e000000605382015260700195945050505050565b60008451612bd0818460208901611862565b7f3c7061746820643d224d200000000000000000000000000000000000000000009083019081528451612c0a81600b840160208901611862565b7f2c00000000000000000000000000000000000000000000000000000000000000600b92909101918201528351612c4881600c840160208801611862565b7f6320372c3020372c3020372c2d37206320302c3720302c3720372c372063202d600c92909101918201527f372c30202d372c30202d372c37206320302c2d3720302c2d37202d372c2d3722602c820152601f60f91b604c8201527f3c2f706174683e00000000000000000000000000000000000000000000000000604d82015260540195945050505050565b60008651612ce7818460208b01611862565b7f3c636972636c6520723d2233222063783d2200000000000000000000000000009083019081528651612d21816012840160208b01611862565b65111031bc9e9160d11b601292909101918201528551612d48816018840160208a01611862565b7f22206f7061636974793d22302e33223e3c616e696d6174652061747472696275601892909101918201527f74654e616d653d2272222076616c7565733d22303b353b3322206475723d223160388201527f73222f3e3c2f636972636c653e0000000000000000000000000000000000000060588201527f3c636972636c6520723d2231222063783d22000000000000000000000000000060658201528451612df8816077840160208901611862565b01612e0e6077820165111031bc9e9160d11b9052565b611eeb612e1e607d830186611b78565b7f223e3c616e696d617465206174747269627574654e616d653d2272222076616c81527f7565733d22303b333b3122206475723d223173222f3e3c2f636972636c653e006020820152603f0190565b60008251612e7f818460208701611862565b631e17b39f60e11b920191825250600401919050565b60008451612ea7818460208901611862565b845190830190612ebb818360208901611862565b8451910190612ece818360208801611862565b0195945050505050565b60006101608201905084518252602085015161ffff808216602085015280604088015116604085015250506060850151612f17606084018260ff169052565b506080850151612f2c608084018260ff169052565b5060a085015160a083015260c085015160c083015260e085015160e0830152610100808601518184015250836101208301526107786101408301841515905256fea2646970667358221220c0536eb3d85801dfdf34ec4a1240f7d3da2beb32a20d86e73f85d829ba1e974764736f6c63430008120033",
  "deployedBytecode": "0x608060405234801561001057600080fd5b506004361061007d5760003560e01c80633a20c8791161005b5780633a20c879146100e45780636e6e0cf0146101055780638de0890a14610118578063eec2fb541461012b57600080fd5b8063075d103714610082578063176a29a5146100ab5780633329f04f146100be575b600080fd5b610095610090366004611810565b61013e565b6040516100a291906118b2565b60405180910390f35b6100956100b93660046118d5565b610780565b6100d16100cc3660046118f0565b610968565b60405161ffff90911681526020016100a2565b6100f76100f2366004611929565b610a0c565b6040519081526020016100a2565b61009561011336600461194b565b610a8a565b610095610126366004611964565b610ce3565b6100956101393660046119c3565b610f3c565b604051633a20c87960e01b815260048101859052607b602482015260609060009073__$11e21e6c56ca563b85c74e3fd3a08242f9$__90631b0d4b4d90602d908390633a20c87990604401602060405180830381865af41580156101a6573d6000803e3d6000fd5b505050506040513d601f19601f820116820180604052508101906101ca9190611a8a565b6101d49190611aa3565b6040516001600160e01b031960e084901b16815261ffff9091166004820152602401600060405180830381865af4158015610213573d6000803e3d6000fd5b505050506040513d6000823e601f3d908101601f1916820160405261023b9190810190611b43565b90506000816040516020016102509190611b94565b60408051601f19818403018152908290526303f1727f60e21b82529150819073__$11e21e6c56ca563b85c74e3fd3a08242f9$__90630fc5c9fc90610299908a90600401611c26565b600060405180830381865af41580156102b6573d6000803e3d6000fd5b505050506040513d6000823e601f3d908101601f191682016040526102de9190810190611b43565b6040516020016102ef929190611c51565b60408051601f19818403018152908290526303f1727f60e21b82529150819073__$11e21e6c56ca563b85c74e3fd3a08242f9$__90630fc5c9fc90610338908990600401611c26565b600060405180830381865af4158015610355573d6000803e3d6000fd5b505050506040513d6000823e601f3d908101601f1916820160405261037d9190810190611b43565b60405160200161038e929190611ccf565b6040516020818303038152906040529050808273__$11e21e6c56ca563b85c74e3fd3a08242f9$__631b0d4b4d8760ff166000146103cc57876103cf565b60015b6040516001600160e01b031960e084901b16815260ff9091166004820152602401600060405180830381865af415801561040d573d6000803e3d6000fd5b505050506040513d6000823e601f3d908101601f191682016040526104359190810190611b43565b73__$11e21e6c56ca563b85c74e3fd3a08242f9$__631b0d4b4d60ff89161561045e5788610461565b60015b6040516001600160e01b031960e084901b16815260ff9091166004820152602401600060405180830381865af415801561049f573d6000803e3d6000fd5b505050506040513d6000823e601f3d908101601f191682016040526104c79190810190611b43565b6040516020016104da9493929190611d4e565b60408051601f1981840301815290829052631b21034b60e31b8252915060009073__$11e21e6c56ca563b85c74e3fd3a08242f9$__9063d9081a5890610527908a9060f090600401611ef7565b606060405180830381865af4158015610544573d6000803e3d6000fd5b505050506040513d601f19601f820116820180604052508101906105689190611f33565b605a60408083019190915251631b21034b60e31b8152909150829073__$11e21e6c56ca563b85c74e3fd3a08242f9$__90630fc5c9fc90829063d9081a58906105b8908d9060b490600401611ef7565b606060405180830381865af41580156105d5573d6000803e3d6000fd5b505050506040513d601f19601f820116820180604052508101906105f99190611f33565b6040518263ffffffff1660e01b81526004016106159190611c26565b600060405180830381865af4158015610632573d6000803e3d6000fd5b505050506040513d6000823e601f3d908101601f1916820160405261065a9190810190611b43565b73__$11e21e6c56ca563b85c74e3fd3a08242f9$__630fc5c9fc73__$11e21e6c56ca563b85c74e3fd3a08242f9$__63d9081a588b60b46040518363ffffffff1660e01b81526004016106ae929190611ef7565b606060405180830381865af41580156106cb573d6000803e3d6000fd5b505050506040513d601f19601f820116820180604052508101906106ef9190611f33565b6040518263ffffffff1660e01b815260040161070b9190611c26565b600060405180830381865af4158015610728573d6000803e3d6000fd5b505050506040513d6000823e601f3d908101601f191682016040526107509190810190611b43565b60405160200161076293929190611f87565b60408051601f1981840301815291905293505050505b949350505050565b60408051602081019091526000815260609073__$11e21e6c56ca563b85c74e3fd3a08242f9$__631b0d4b4d846107b85760016107bb565b60005b6040516001600160e01b031960e084901b16815260ff9091166004820152602401600060405180830381865af41580156107f9573d6000803e3d6000fd5b505050506040513d6000823e601f3d908101601f191682016040526108219190810190611b43565b73__$11e21e6c56ca563b85c74e3fd3a08242f9$__631b0d4b4d8561084757600061084a565b60015b6040516001600160e01b031960e084901b16815260ff9091166004820152602401600060405180830381865af4158015610888573d6000803e3d6000fd5b505050506040513d6000823e601f3d908101601f191682016040526108b09190810190611b43565b73__$11e21e6c56ca563b85c74e3fd3a08242f9$__631b0d4b4d866108d65760076108d9565b60005b6040516001600160e01b031960e084901b16815260ff9091166004820152602401600060405180830381865af4158015610917573d6000803e3d6000fd5b505050506040513d6000823e601f3d908101601f1916820160405261093f9190810190611b43565b604051602001610951939291906120a6565b60408051601f198184030181529190529392505050565b6040517f3329f04f00000000000000000000000000000000000000000000000000000000815261ffff80841660048301528216602482015260009073__$11e21e6c56ca563b85c74e3fd3a08242f9$__90633329f04f90604401602060405180830381865af41580156109df573d6000803e3d6000fd5b505050506040513d601f19601f82011682018060405250810190610a03919061233b565b90505b92915050565b604051633a20c87960e01b8152600481018390526024810182905260009073__$11e21e6c56ca563b85c74e3fd3a08242f9$__90633a20c87990604401602060405180830381865af4158015610a66573d6000803e3d6000fd5b505050506040513d601f19601f82011682018060405250810190610a039190611a8a565b60408051602081018252600081529051633a20c87960e01b815260048101839052607b602482015260609190819073__$11e21e6c56ca563b85c74e3fd3a08242f9$__90631b0d4b4d90612710908390633a20c87990604401602060405180830381865af4158015610b00573d6000803e3d6000fd5b505050506040513d601f19601f82011682018060405250810190610b249190611a8a565b610b2e9190611aa3565b6040516001600160e01b031960e084901b16815261ffff9091166004820152602401600060405180830381865af4158015610b6d573d6000803e3d6000fd5b505050506040513d6000823e601f3d908101601f19168201604052610b959190810190611b43565b604051602001610ba692919061235f565b60408051601f1981840301815290829052633a20c87960e01b825260048201859052607b60248301529150819073__$11e21e6c56ca563b85c74e3fd3a08242f9$__90631b0d4b4d90612710908390633a20c87990604401602060405180830381865af4158015610c1b573d6000803e3d6000fd5b505050506040513d601f19601f82011682018060405250810190610c3f9190611a8a565b610c499190611aa3565b6040516001600160e01b031960e084901b16815261ffff9091166004820152602401600060405180830381865af4158015610c88573d6000803e3d6000fd5b505050506040513d6000823e601f3d908101601f19168201604052610cb09190810190611b43565b604051602001610cc1929190612460565b6040516020818303038152906040529050806040516020016109519190612652565b60608115610d005750604080516020810190915260008152610778565b6000806032851115610d18575060329350601e905060145b84610d238284612801565b60ff161015610df057600373__$11e21e6c56ca563b85c74e3fd3a08242f9$__633a20c87989610d538686612801565b6040516001600160e01b031960e085901b168152600481019290925260ff166024820152604401602060405180830381865af4158015610d97573d6000803e3d6000fd5b505050506040513d601f19601f82011682018060405250810190610dbb9190611a8a565b610dc59190611aa3565b600103610dde5780610dd68161281a565b915050610d18565b81610de88161281a565b925050610d18565b600080610dfd8884610fe4565b6040805160208082018352600082528251808401909352600b83527f636f6e7374436f756e742000000000000000000000000000000000000000000090830152929450909250610e509060ff86166110b9565b610e926040518060400160405280600a81526020017f73746172436f756e7420000000000000000000000000000000000000000000008152508660ff166110b9565b610ed46040518060400160405280600a81526020017f6c6566746f7665727320000000000000000000000000000000000000000000008152508360ff166110b9565b8083604051602001610ee7929190612839565b60408051601f19818403018152919052905080610f0d8b610f088589612801565b611130565b604051602001610f1e929190612839565b60408051808303601f190181529190529a9950505050505050505050565b604080516060818101835260208088015161ffff90811684526064828501819052601e858701819052865180860188528b8801519093168352928201529384015260a08701516080880151919391600091610f9a918590859061013e565b610fa78960c00151610a8a565b610fb088610780565b610fc48b60a001518c606001518c8c610ce3565b610fd0898d8d8d61150a565b604051602001610762959493929190612868565b6040517f5b33e80e00000000000000000000000000000000000000000000000000000000815260ff8084166004830152821660248201526060906000908190819073__$a8306bbe53a8cb7e168140ba991fce4a09$__90635b33e80e90604401600060405180830381865af4158015611061573d6000803e3d6000fd5b505050506040513d6000823e601f3d908101601f1916820160405261108991908101906129d7565b915091508160405160200161109e9190612a1e565b60408051808303601f19018152919052969095509350505050565b61112c82826040516024016110cf929190612a71565b60408051601f198184030181529190526020810180517bffffffffffffffffffffffffffffffffffffffffffffffffffffffff167fb60e72cc0000000000000000000000000000000000000000000000000000000017905261155b565b5050565b604080518082018252600f81527f3c672066696c6c3d2223666666223e00000000000000000000000000000000006020808301919091528251808201845260008082528451928301909452838252606093909190805b8660ff168160ff1610156114dd57604051633a20c87960e01b81526004810189905260ff8216602482015260039073__$11e21e6c56ca563b85c74e3fd3a08242f9$__90633a20c87990604401602060405180830381865af41580156111f0573d6000803e3d6000fd5b505050506040513d601f19601f820116820180604052508101906112149190611a8a565b61121e9190611aa3565b604051633a20c87960e01b8152600481018a905260ff8316602482015290925073__$11e21e6c56ca563b85c74e3fd3a08242f9$__90631b0d4b4d906101ce908390633a20c87990604401602060405180830381865af4158015611286573d6000803e3d6000fd5b505050506040513d601f19601f820116820180604052508101906112aa9190611a8a565b6112b49190611aa3565b6112bf906019612a93565b6040516001600160e01b031960e084901b16815261ffff9091166004820152602401600060405180830381865af41580156112fe573d6000803e3d6000fd5b505050506040513d6000823e601f3d908101601f191682016040526113269190810190611b43565b935073__$11e21e6c56ca563b85c74e3fd3a08242f9$__631b0d4b4d6101ce82633a20c87961135860ff88168e612ab5565b6040516001600160e01b031960e084901b168152600481019190915260ff87166024820152604401602060405180830381865af415801561139d573d6000803e3d6000fd5b505050506040513d601f19601f820116820180604052508101906113c19190611a8a565b6113cb9190611aa3565b6113d6906019612a93565b6040516001600160e01b031960e084901b16815261ffff9091166004820152602401600060405180830381865af4158015611415573d6000803e3d6000fd5b505050506040513d6000823e601f3d908101601f1916820160405261143d9190810190611b43565b92508160ff166000036114755784848460405160200161145f93929190612ac8565b60405160208183030381529060405294506114cb565b8160ff166001036114955784848460405160200161145f93929190612bbe565b8160ff166002036114cb5784848486866040516020016114b9959493929190612cd5565b60405160208183030381529060405294505b806114d58161281a565b915050611186565b50836040516020016114ef9190612e6d565b60405160208183030381529060405294505050505092915050565b60606115188585858561157c565b6115248686868661163b565b611530878787876116ab565b60405160200161154293929190612e95565b6040516020818303038152906040529050949350505050565b80516a636f6e736f6c652e6c6f67602083016000808483855afa5050505050565b60606001600160a01b0385166115a15750604080516020810190915260008152610778565b6040517ffb431aad00000000000000000000000000000000000000000000000000000000815285906001600160a01b0382169063fb431aad906115ec90889088908890600401612ed8565b600060405180830381865afa158015611609573d6000803e3d6000fd5b505050506040513d6000823e601f3d908101601f191682016040526116319190810190611b43565b9695505050505050565b60606001600160a01b0385166116605750604080516020810190915260008152610778565b6040517f31f32ada00000000000000000000000000000000000000000000000000000000815285906001600160a01b038216906331f32ada906115ec90889088908890600401612ed8565b60606001600160a01b0385166116d05750604080516020810190915260008152610778565b6040517f0e82b0af00000000000000000000000000000000000000000000000000000000815285906001600160a01b03821690630e82b0af906115ec90889088908890600401612ed8565b634e487b7160e01b600052604160045260246000fd5b6040516060810167ffffffffffffffff811182821017156117545761175461171b565b60405290565b604051610120810167ffffffffffffffff811182821017156117545761175461171b565b61ffff8116811461178e57600080fd5b50565b803561179c8161177e565b919050565b6000606082840312156117b357600080fd5b6117bb611731565b905081356117c88161177e565b815260208201356117d88161177e565b602082015260408201356117eb8161177e565b604082015292915050565b60ff8116811461178e57600080fd5b803561179c816117f6565b600080600080610100858703121561182757600080fd5b8435935061183886602087016117a1565b925061184786608087016117a1565b915060e0850135611857816117f6565b939692955090935050565b60005b8381101561187d578181015183820152602001611865565b50506000910152565b6000815180845261189e816020860160208601611862565b601f01601f19169290920160200192915050565b602081526000610a036020830184611886565b8035801515811461179c57600080fd5b6000602082840312156118e757600080fd5b610a03826118c5565b6000806040838503121561190357600080fd5b823561190e8161177e565b9150602083013561191e8161177e565b809150509250929050565b6000806040838503121561193c57600080fd5b50508035926020909101359150565b60006020828403121561195d57600080fd5b5035919050565b6000806000806080858703121561197a57600080fd5b84359350602085013561198c816117f6565b9250604085013591506119a1606086016118c5565b905092959194509250565b80356001600160a01b038116811461179c57600080fd5b6000806000808486036101808112156119db57600080fd5b610120808212156119eb57600080fd5b6119f361175a565b915086358252611a0560208801611791565b6020830152611a1660408801611791565b6040830152611a2760608801611805565b6060830152611a3860808801611805565b608083015260a0878101359083015260c0808801359083015260e0808801359083015261010080880135908301529094508501359250611a7b61014086016118c5565b91506119a161016086016119ac565b600060208284031215611a9c57600080fd5b5051919050565b600082611ac057634e487b7160e01b600052601260045260246000fd5b500690565b600082601f830112611ad657600080fd5b815167ffffffffffffffff80821115611af157611af161171b565b604051601f8301601f19908116603f01168101908282118183101715611b1957611b1961171b565b81604052838152866020858801011115611b3257600080fd5b611631846020830160208901611862565b600060208284031215611b5557600080fd5b815167ffffffffffffffff811115611b6c57600080fd5b61077884828501611ac5565b60008151611b8a818560208601611862565b9290920192915050565b7f3c6c696e6561724772616469656e742069643d22736b794772616469656e742281527f206772616469656e745472616e73666f726d3d22726f74617465280000000000602082015260008251611bf281603b850160208701611862565b7f29223e0000000000000000000000000000000000000000000000000000000000603b939091019283015250603e01919050565b60608101610a068284805161ffff908116835260208083015182169084015260409182015116910152565b60008351611c63818460208801611862565b7f3c73746f70206f66667365743d223025220000000000000000000000000000009083019081526c1039ba37b816b1b7b637b91e9160991b60118201528351611cb381601e840160208801611862565b6211179f60e91b601e9290910191820152602101949350505050565b60008351611ce1818460208801611862565b80830190507f3c73746f70206f66667365743d2231303025220000000000000000000000000081526c1039ba37b816b1b7b637b91e9160991b60138201528351611d32816020840160208801611862565b6211179f60e91b60209290910191820152602301949350505050565b60008551611d60818460208a01611862565b80830190507f3c2f6c696e6561724772616469656e743e3c6c696e6561724772616469656e7481527f2069643d22636c6f75644772616469656e7422206772616469656e745472616e60208201527f73666f726d3d22726f746174652800000000000000000000000000000000000060408201528551611de781604e840160208a01611862565b7f29223e3c73746f702073746f702d6f7061636974793d222e0000000000000000604e92909101918201528451611e25816066840160208901611862565b7f22206f66667365743d22313525222f3e3c73746f702073746f702d6f70616369606692909101918201527f74793d222e3522206f66667365743d22333025222f3e0000000000000000000060868201527f3c73746f702073746f702d6f7061636974793d222e0000000000000000000000609c8201528351611eaf8160b1840160208801611862565b611eeb60b1828401017f22206f66667365743d22353025222f3e3c2f6c696e6561724772616469656e748152601f60f91b602082015260210190565b98975050505050505050565b60808101611f228285805161ffff908116835260208083015182169084015260409182015116910152565b61ffff831660608301529392505050565b600060608284031215611f4557600080fd5b611f4d611731565b8251611f588161177e565b81526020830151611f688161177e565b60208201526040830151611f7b8161177e565b60408201529392505050565b60008451611f99818460208901611862565b80830190507f3c6c696e6561724772616469656e742069643d226461794772616469656e742281527f206772616469656e745472616e73666f726d3d22726f7461746528313329223e60208201527f3c73746f70206f66667365743d223025222073746f702d636f6c6f723d2200006040820152845161202081605e840160208901611862565b8082019150506211179f60e91b80605e8301527f3c73746f70206f66667365743d2231303025222073746f702d636f6c6f723d226061830152845161206c816081850160208901611862565b60819201918201527f3c2f6c696e6561724772616469656e743e000000000000000000000000000000608482015260950195945050505050565b7f3c726563742077696474683d223130302522206865696768743d22313030252281527f2066696c7465723d2275726c282373746172732922206f7061636974793d220060208201526000845161210481603f850160208901611862565b6211179f60e91b603f918401918201527f3c706174682066696c6c3d2275726c28236461794772616469656e742922206460428201527f3d224d302030683531327635313248307a22206f7061636974793d22000000006062820152845161217381607e840160208901611862565b7f22202066696c7465723d2275726c28236c6967687429222f3e00000000000000607e92909101918201527f3c706174682066696c6c3d2275726c2823736b794772616469656e742922202060978201527f643d224d302030683531327635313248307a22206f7061636974793d222e000060b78201526121f760d5820185611b78565b6211179f60e91b815290507f3c706174682066696c6c3d2275726c2823636c6f75644772616469656e74292260038201527f2066696c7465723d2275726c2823636c6f756473292220643d224d2d3531322d60238201527f35313268313533367631353336682d323034387a223e3c616e696d617465547260438201527f616e73666f726d206174747269627574654e616d653d227472616e73666f726d60638201527f2220617474726962757465547970653d22584d4c2220747970653d227472616e60838201527f736c617465222066726f6d3d22302220746f3d2235313220353132222064757260a38201527f3d223530732220726570656174436f756e743d22696e646566696e697465222f60c38201527f3e3c2f706174683e00000000000000000000000000000000000000000000000060e382015260eb8101611631565b60006020828403121561234d57600080fd5b81516123588161177e565b9392505050565b60008351612371818460208801611862565b80830190507f3c66696c7465722069643d227374617273223e3c666554757262756c656e636581527f20626173654672657175656e63793d222e33352220736565643d220000000000602082015283516123d281603b840160208801611862565b6211179f60e91b603b92909101918201527f3c6665436f6c6f724d61747269782076616c7565733d2230203020302039202d603e8201527f342030203020302039202d342030203020302039202d34203020302030203020605e8201527f31222f3e3c2f66696c7465723e00000000000000000000000000000000000000607e820152608b01949350505050565b60008351612472818460208801611862565b80830190507f3c66696c7465722069643d22636c6f7564732220783d222d3530252220793d2281527f2d35302522206865696768743d2232303025222077696474683d22323030252260208201527f3e3c6665476175737369616e426c757220696e3d22736b79222073746444657660408201527f696174696f6e3d2232302220726573756c743d22736b79626c7572222f3e000060608201527f3c666554757262756c656e636520747970653d226672616374616c4e6f697365607e8201527f2220626173654672657175656e63793d222e303122206e756d4f637461766573609e8201527f3d22352220726573756c743d22736b796e6f6973652220736565643d2200000060be82015283516125918160db840160208801611862565b6211179f60e91b910160db81018290527f3c6665436f6c6f724d61747269782076616c7565733d2231203020302030203060de8201527f20312030203020302030203120302030203020302033202d31202d312030203060fe82015261011e8101919091527f3c6665436f6d706f73697465206f70657261746f723d22696e2220696e323d226101218201527f536f7572636547726170686963222f3e3c2f66696c7465723e0000000000000061014182015261015a810195945050505050565b60008251612664818460208701611862565b7f3c66696c7465722069643d226c69676874223e3c666553706563756c61724c699201918252507f676874696e6720726573756c743d22737065634f7574222073706563756c617260208201527f4578706f6e656e743d2231303022206c69676874696e672d636f6c6f723d227760408201527f68697465223e000000000000000000000000000000000000000000000000000060608201527f3c6665506f696e744c6967687420783d2231302220793d22373022207a3d223360668201527f3030222f3e3c2f666553706563756c61724c69676874696e673e00000000000060868201527f3c6665436f6d706f7369746520696e3d22536f7572636547726170686963222060a08201527f696e323d22737065634f757422206f70657261746f723d2261726974686d657460c08201527f696322206b313d223022206b323d223122206b333d223122206b343d2230222f60e08201527f3e3c2f66696c7465723e0000000000000000000000000000000000000000000061010082015261010a01919050565b634e487b7160e01b600052601160045260246000fd5b60ff8181168382160190811115610a0657610a066127eb565b600060ff821660ff8103612830576128306127eb565b60010192915050565b6000835161284b818460208801611862565b83519083019061285f818360208801611862565b01949350505050565b7f3c7376672076696577426f783d2230203020353132203531322220786d6c6e7381527f3d22687474703a2f2f7777772e77332e6f72672f323030302f737667223e3c6360208201527f6c6970506174682069643d22626f78223e3c7061746820643d224d302030683560408201527f31327635313248307a222f3e3c2f636c6970506174683e3c646566733e00000060608201526000865161291281607d850160208b01611862565b86519083019061292981607d840160208b01611862565b7f3c2f646566733e3c7376672076696577426f783d223020302035313220353132607d92909101918201527f2220636c69702d706174683d2275726c2823626f7829223e0000000000000000609d820152855161298d8160b5840160208a01611862565b6129a561299f60b58385010188611b78565b86611b78565b9150506129ba81651e17b9bb339f60d11b9052565b651e17b9bb339f60d11b6006820152600c01979650505050505050565b600080604083850312156129ea57600080fd5b825167ffffffffffffffff811115612a0157600080fd5b612a0d85828601611ac5565b925050602083015161191e816117f6565b7f3c672069643d22636f6e7374656c6c6174696f6e223e00000000000000000000815260008251612a56816016850160208701611862565b631e17b39f60e11b6016939091019283015250601a01919050565b604081526000612a846040830185611886565b90508260208301529392505050565b61ffff818116838216019080821115612aae57612aae6127eb565b5092915050565b80820180821115610a0657610a066127eb565b60008451612ada818460208901611862565b7f3c636972636c6520723d2231222063783d2200000000000000000000000000009083019081528451612b14816012840160208901611862565b65111031bc9e9160d11b601292909101918201528351612b3b816018840160208801611862565b7f222066696c6c3d22236666662220206f7061636974793d2231223e0000000000601892909101918201527f3c616e696d617465206174747269627574654e616d653d2272222076616c756560338201527f733d22303b333b3122206475723d223173222f3e3c2f636972636c653e000000605382015260700195945050505050565b60008451612bd0818460208901611862565b7f3c7061746820643d224d200000000000000000000000000000000000000000009083019081528451612c0a81600b840160208901611862565b7f2c00000000000000000000000000000000000000000000000000000000000000600b92909101918201528351612c4881600c840160208801611862565b7f6320372c3020372c3020372c2d37206320302c3720302c3720372c372063202d600c92909101918201527f372c30202d372c30202d372c37206320302c2d3720302c2d37202d372c2d3722602c820152601f60f91b604c8201527f3c2f706174683e00000000000000000000000000000000000000000000000000604d82015260540195945050505050565b60008651612ce7818460208b01611862565b7f3c636972636c6520723d2233222063783d2200000000000000000000000000009083019081528651612d21816012840160208b01611862565b65111031bc9e9160d11b601292909101918201528551612d48816018840160208a01611862565b7f22206f7061636974793d22302e33223e3c616e696d6174652061747472696275601892909101918201527f74654e616d653d2272222076616c7565733d22303b353b3322206475723d223160388201527f73222f3e3c2f636972636c653e0000000000000000000000000000000000000060588201527f3c636972636c6520723d2231222063783d22000000000000000000000000000060658201528451612df8816077840160208901611862565b01612e0e6077820165111031bc9e9160d11b9052565b611eeb612e1e607d830186611b78565b7f223e3c616e696d617465206174747269627574654e616d653d2272222076616c81527f7565733d22303b333b3122206475723d223173222f3e3c2f636972636c653e006020820152603f0190565b60008251612e7f818460208701611862565b631e17b39f60e11b920191825250600401919050565b60008451612ea7818460208901611862565b845190830190612ebb818360208901611862565b8451910190612ece818360208801611862565b0195945050505050565b60006101608201905084518252602085015161ffff808216602085015280604088015116604085015250506060850151612f17606084018260ff169052565b506080850151612f2c608084018260ff169052565b5060a085015160a083015260c085015160c083015260e085015160e0830152610100808601518184015250836101208301526107786101408301841515905256fea2646970667358221220c0536eb3d85801dfdf34ec4a1240f7d3da2beb32a20d86e73f85d829ba1e974764736f6c63430008120033",
  "libraries": {
    "Color": "0x68AD5E2e4709849e1730aFF98C9b78648EF2752d",
    "Constellations": "0xa3E718724798152D7aFF476cB6821C2f15D4DbE7"
  },
  "devdoc": {
    "kind": "dev",
    "methods": {},
    "version": 1
  },
  "userdoc": {
    "kind": "user",
    "methods": {},
    "version": 1
  },
  "storageLayout": {
    "storage": [],
    "types": null
  }
}