{
  "address": "0xA7Ab6592Ebc9193281899c374F690EBeeb463D5f",
  "abi": [
    {
      "inputs": [
        {
          "internalType": "uint8",
          "name": "show",
          "type": "uint8"
        }
      ],
      "name": "Aquarius",
      "outputs": [
        {
          "internalType": "string",
          "name": "",
          "type": "string"
        },
        {
          "internalType": "uint8",
          "name": "leftovers",
          "type": "uint8"
        }
      ],
      "stateMutability": "view",
      "type": "function"
    },
    {
      "inputs": [
        {
          "internalType": "uint8",
          "name": "show",
          "type": "uint8"
        }
      ],
      "name": "Aries",
      "outputs": [
        {
          "internalType": "string",
          "name": "",
          "type": "string"
        },
        {
          "internalType": "uint8",
          "name": "leftovers",
          "type": "uint8"
        }
      ],
      "stateMutability": "view",
      "type": "function"
    },
    {
      "inputs": [
        {
          "internalType": "uint8",
          "name": "show",
          "type": "uint8"
        }
      ],
      "name": "Cancer",
      "outputs": [
        {
          "internalType": "string",
          "name": "",
          "type": "string"
        },
        {
          "internalType": "uint8",
          "name": "leftovers",
          "type": "uint8"
        }
      ],
      "stateMutability": "view",
      "type": "function"
    },
    {
      "inputs": [
        {
          "internalType": "uint8",
          "name": "show",
          "type": "uint8"
        }
      ],
      "name": "Capricorn",
      "outputs": [
        {
          "internalType": "string",
          "name": "",
          "type": "string"
        },
        {
          "internalType": "uint8",
          "name": "leftovers",
          "type": "uint8"
        }
      ],
      "stateMutability": "view",
      "type": "function"
    },
    {
      "inputs": [
        {
          "internalType": "uint8",
          "name": "show",
          "type": "uint8"
        }
      ],
      "name": "Cygnus",
      "outputs": [
        {
          "internalType": "string",
          "name": "",
          "type": "string"
        },
        {
          "internalType": "uint8",
          "name": "leftovers",
          "type": "uint8"
        }
      ],
      "stateMutability": "view",
      "type": "function"
    },
    {
      "inputs": [
        {
          "internalType": "uint8",
          "name": "show",
          "type": "uint8"
        }
      ],
      "name": "Gemini",
      "outputs": [
        {
          "internalType": "string",
          "name": "",
          "type": "string"
        },
        {
          "internalType": "uint8",
          "name": "leftovers",
          "type": "uint8"
        }
      ],
      "stateMutability": "view",
      "type": "function"
    },
    {
      "inputs": [
        {
          "internalType": "uint8",
          "name": "show",
          "type": "uint8"
        }
      ],
      "name": "Leo",
      "outputs": [
        {
          "internalType": "string",
          "name": "",
          "type": "string"
        },
        {
          "internalType": "uint8",
          "name": "leftovers",
          "type": "uint8"
        }
      ],
      "stateMutability": "view",
      "type": "function"
    },
    {
      "inputs": [
        {
          "internalType": "uint8",
          "name": "show",
          "type": "uint8"
        }
      ],
      "name": "Libra",
      "outputs": [
        {
          "internalType": "string",
          "name": "",
          "type": "string"
        },
        {
          "internalType": "uint8",
          "name": "leftovers",
          "type": "uint8"
        }
      ],
      "stateMutability": "view",
      "type": "function"
    },
    {
      "inputs": [
        {
          "internalType": "uint8",
          "name": "show",
          "type": "uint8"
        }
      ],
      "name": "Pegasus",
      "outputs": [
        {
          "internalType": "string",
          "name": "",
          "type": "string"
        },
        {
          "internalType": "uint8",
          "name": "leftovers",
          "type": "uint8"
        }
      ],
      "stateMutability": "view",
      "type": "function"
    },
    {
      "inputs": [
        {
          "internalType": "uint8",
          "name": "show",
          "type": "uint8"
        }
      ],
      "name": "Pisces",
      "outputs": [
        {
          "internalType": "string",
          "name": "",
          "type": "string"
        },
        {
          "internalType": "uint8",
          "name": "leftovers",
          "type": "uint8"
        }
      ],
      "stateMutability": "view",
      "type": "function"
    },
    {
      "inputs": [
        {
          "internalType": "uint8",
          "name": "show",
          "type": "uint8"
        }
      ],
      "name": "Sagittarius",
      "outputs": [
        {
          "internalType": "string",
          "name": "",
          "type": "string"
        },
        {
          "internalType": "uint8",
          "name": "leftovers",
          "type": "uint8"
        }
      ],
      "stateMutability": "view",
      "type": "function"
    },
    {
      "inputs": [
        {
          "internalType": "uint8",
          "name": "show",
          "type": "uint8"
        }
      ],
      "name": "Scorpio",
      "outputs": [
        {
          "internalType": "string",
          "name": "",
          "type": "string"
        },
        {
          "internalType": "uint8",
          "name": "leftovers",
          "type": "uint8"
        }
      ],
      "stateMutability": "view",
      "type": "function"
    },
    {
      "inputs": [
        {
          "internalType": "uint8",
          "name": "show",
          "type": "uint8"
        }
      ],
      "name": "Taurus",
      "outputs": [
        {
          "internalType": "string",
          "name": "",
          "type": "string"
        },
        {
          "internalType": "uint8",
          "name": "leftovers",
          "type": "uint8"
        }
      ],
      "stateMutability": "view",
      "type": "function"
    },
    {
      "inputs": [
        {
          "internalType": "uint8",
          "name": "show",
          "type": "uint8"
        }
      ],
      "name": "UrsaMinor",
      "outputs": [
        {
          "internalType": "string",
          "name": "",
          "type": "string"
        },
        {
          "internalType": "uint8",
          "name": "leftovers",
          "type": "uint8"
        }
      ],
      "stateMutability": "view",
      "type": "function"
    },
    {
      "inputs": [
        {
          "internalType": "uint8",
          "name": "show",
          "type": "uint8"
        }
      ],
      "name": "Virgo",
      "outputs": [
        {
          "internalType": "string",
          "name": "",
          "type": "string"
        },
        {
          "internalType": "uint8",
          "name": "leftovers",
          "type": "uint8"
        }
      ],
      "stateMutability": "view",
      "type": "function"
    },
    {
      "inputs": [
        {
          "internalType": "string[]",
          "name": "stars",
          "type": "string[]"
        },
        {
          "internalType": "string",
          "name": "open",
          "type": "string"
        },
        {
          "internalType": "string",
          "name": "close",
          "type": "string"
        },
        {
          "internalType": "uint8",
          "name": "show",
          "type": "uint8"
        }
      ],
      "name": "buildStar",
      "outputs": [
        {
          "internalType": "string",
          "name": "",
          "type": "string"
        },
        {
          "internalType": "uint8",
          "name": "leftovers",
          "type": "uint8"
        }
      ],
      "stateMutability": "view",
      "type": "function"
    },
    {
      "inputs": [
        {
          "internalType": "uint256",
          "name": "seed",
          "type": "uint256"
        },
        {
          "internalType": "uint8",
          "name": "gazed",
          "type": "uint8"
        }
      ],
      "name": "getConstellation",
      "outputs": [
        {
          "internalType": "string",
          "name": "",
          "type": "string"
        },
        {
          "internalType": "uint8",
          "name": "leftovers",
          "type": "uint8"
        }
      ],
      "stateMutability": "view",
      "type": "function"
    }
  ],
  "transactionHash": "0x220f5c064bd2024d642403c780e88a7561d2e1ff6113d34418b9e0dfdb26272d",
  "args": [],
  "numDeployments": 2,
  "solcInputHash": "56930af7b938deac2ecf057e8304b3a4",
  "bytecode": "0x6159a661003a600b82828239805160001a60731461002d57634e487b7160e01b600052600060045260246000fd5b30600052607381538281f3fe73000000000000000000000000000000000000000030146080604052600436106101255760003560e01c8063929a5eb7116100bc578063b8b670371161008b578063d771dc6911610070578063d771dc691461024b578063e4b45f1f1461025e578063ebd357501461027157600080fd5b8063b8b6703714610225578063d09c71af1461023857600080fd5b8063929a5eb7146101d9578063a8018237146101ec578063a88bec5b146101ff578063ab5fe1861461021257600080fd5b806366801606116100f8578063668016061461018d57806366c4a874146101a05780637e9e4a09146101b35780638111a053146101c657600080fd5b80632eab20f71461012a578063380768a1146101545780635a9ff6f2146101675780635b33e80e1461017a575b600080fd5b61013d61013836600461352a565b610284565b60405161014b92919061359c565b60405180910390f35b61013d610162366004613678565b6106b5565b61013d61017536600461352a565b61089b565b61013d610188366004613793565b610b0d565b61013d61019b36600461352a565b610c18565b61013d6101ae36600461352a565b610e4b565b61013d6101c136600461352a565b61115b565b61013d6101d436600461352a565b6112e8565b61013d6101e736600461352a565b61169d565b61013d6101fa36600461352a565b6119e4565b61013d61020d36600461352a565b611ba8565b61013d61022036600461352a565b611e12565b61013d61023336600461352a565b61227d565b61013d61024636600461352a565b6125c4565b61013d61025936600461352a565b61289c565b61013d61026c36600461352a565b612bac565b61013d61027f36600461352a565b612e73565b60408051601180825261024082019092526060916000918291816020015b60608152602001906001900390816102a25790505090506000604051806080016040528060528152602001613be86052913990506040518060600160405280602581526020016154af6025913982600081518110610302576103026137bf565b60200260200101819052506040518060600160405280602581526020016154486025913982600181518110610339576103396137bf565b60200260200101819052506040518060600160405280602581526020016149ef6025913982600281518110610370576103706137bf565b6020026020010181905250604051806060016040528060258152602001613d0560259139826003815181106103a7576103a76137bf565b602002602001018190525060405180606001604052806025815260200161465560259139826004815181106103de576103de6137bf565b60200260200101819052506040518060600160405280602581526020016147246025913982600581518110610415576104156137bf565b6020026020010181905250604051806060016040528060258152602001614537602591398260068151811061044c5761044c6137bf565b6020026020010181905250604051806060016040528060258152602001614f3f6025913982600781518110610483576104836137bf565b602002602001018190525060405180606001604052806025815260200161429460259139826008815181106104ba576104ba6137bf565b6020026020010181905250604051806060016040528060258152602001614ef560259139826009815181106104f1576104f16137bf565b60200260200101819052506040518060600160405280602581526020016152f36025913982600a81518110610528576105286137bf565b6020026020010181905250604051806060016040528060258152602001614ed06025913982600b8151811061055f5761055f6137bf565b602002602001018190525060405180606001604052806025815260200161426f6025913982600c81518110610596576105966137bf565b6020026020010181905250604051806060016040528060258152602001614e476025913982600d815181106105cd576105cd6137bf565b60200260200101819052506040518060600160405280602581526020016138de6025913982600e81518110610604576106046137bf565b60200260200101819052506040518060600160405280602581526020016144a96025913982600f8151811061063b5761063b6137bf565b602002602001018190525060405180606001604052806025815260200161578b6025913982601081518110610672576106726137bf565b6020026020010181905250600060405180610140016040528061010d815260200161563761010d913990506106a9838383896106b5565b94509450505050915091565b6060600080600090506107006040518060400160405280601581526020017f73686f772066726f6d206275696c64537461723a2000000000000000000000008152508560ff1661347c565b6107406040518060400160405280601d81526020017f7374617273206c656e6774682066726f6d206275696c64537461723a20000000815250885161347c565b86518460ff16111561075f57865161075890856137eb565b9050865193505b6107a16040518060400160405280601981526020017f6f766572666c6f772066726f6d206275696c64537461723a20000000000000008152508260ff1661347c565b604080516020808201835260008252915190916107c29183918a910161380a565b604051602081830303815290604052905060005b8560ff168160ff1610156108375781898260ff16815181106107fa576107fa6137bf565b602002602001015160405160200161081392919061380a565b6040516020818303038152906040529150808061082f90613839565b9150506107d6565b5087518560ff160361086c57808660405160200161085692919061380a565b604051602081830303815290604052905061088f565b8060405160200161087d9190613858565b60405160208183030381529060405290505b97909650945050505050565b60408051600680825260e082019092526060916000918291816020015b60608152602001906001900390816108b85790505090506000604051806080016040528060478152602001614dbc6047913990506040518060400160405280602081526020017f3c636972636c652063783d222d3330222063793d2236302220723d2232222f3e81525082600081518110610935576109356137bf565b60200260200101819052506040518060400160405280602081526020017f3c636972636c652063783d222d3130222063793d2234352220723d2232222f3e81525082600181518110610989576109896137bf565b60200260200101819052506040518060400160405280601d81526020017f3c636972636c652063783d2235222063793d22302220723d2232222f3e000000815250826002815181106109dd576109dd6137bf565b60200260200101819052506040518060400160405280601f81526020017f3c636972636c652063783d223535222063793d2231302220723d2232222f3e0081525082600381518110610a3157610a316137bf565b60200260200101819052506040518060400160405280601f81526020017f3c636972636c652063783d223830222063793d2233302220723d2232222f3e0081525082600481518110610a8557610a856137bf565b60200260200101819052506040518060400160405280601f81526020017f3c636972636c652063783d223835222063793d2234352220723d2232222f3e0081525082600581518110610ad957610ad96137bf565b602002602001018190525060006040518060a00160405280606781526020016158196067913990506106a9838383896106b5565b6060600083600003610b2b57610b228361089b565b91509150610c11565b83600103610b3c57610b2283612e73565b83600203610b4d57610b22836125c4565b83600303610b5e57610b228361169d565b83600403610b6f57610b2283610284565b83600503610b8057610b22836112e8565b83600603610b9157610b2283610c18565b83600703610ba257610b228361289c565b83600803610bb357610b2283611ba8565b83600903610bc457610b228361115b565b83600a03610bd557610b228361227d565b83600b03610be657610b2283610e4b565b83600c03610bf757610b2283611e12565b83600d03610c0857610b2283612bac565b610b22836119e4565b9250929050565b60408051600880825261012082019092526060916000918291816020015b6060815260200190600190039081610c3657905050905060006040518060800160405280604681526020016139b36046913990506040518060600160405280602281526020016142fc6022913982600081518110610c9657610c966137bf565b602002602001018190525060405180606001604052806022815260200161509e6022913982600181518110610ccd57610ccd6137bf565b602002602001018190525060405180606001604052806022815260200161480f6022913982600281518110610d0457610d046137bf565b60200260200101819052506040518060600160405280602281526020016146bf6022913982600381518110610d3b57610d3b6137bf565b6020026020010181905250604051806060016040528060228152602001614b626022913982600481518110610d7257610d726137bf565b60200260200101819052506040518060600160405280602281526020016153e46022913982600581518110610da957610da96137bf565b602002602001018190525060405180606001604052806022815260200161594f6022913982600681518110610de057610de06137bf565b60200260200101819052506040518060600160405280602281526020016158c36022913982600781518110610e1757610e176137bf565b602002602001018190525060006040518060e0016040528060a5815260200161492060a5913990506106a9838383896106b5565b60408051600c8082526101a082019092526060916000918291816020015b6060815260200190600190039081610e6957905050905060006040518060800160405280605181526020016140876051913990506040518060600160405280602581526020016144ce6025913982600081518110610ec957610ec96137bf565b60200260200101819052506040518060600160405280602581526020016152616025913982600181518110610f0057610f006137bf565b6020026020010181905250604051806060016040528060258152602001614feb6025913982600281518110610f3757610f376137bf565b60200260200101819052506040518060600160405280602581526020016157446025913982600381518110610f6e57610f6e6137bf565b6020026020010181905250604051806060016040528060258152602001613d4c6025913982600481518110610fa557610fa56137bf565b60200260200101819052506040518060600160405280602581526020016150c06025913982600581518110610fdc57610fdc6137bf565b60200260200101819052506040518060600160405280602581526020016157d26025913982600681518110611013576110136137bf565b6020026020010181905250604051806060016040528060258152602001613b2a602591398260078151811061104a5761104a6137bf565b6020026020010181905250604051806060016040528060258152602001613d936025913982600881518110611081576110816137bf565b6020026020010181905250604051806060016040528060258152602001614f1a60259139826009815181106110b8576110b86137bf565b602002602001018190525060405180606001604052806024815260200161523d6024913982600a815181106110ef576110ef6137bf565b602002602001018190525060405180606001604052806024815260200161467a6024913982600b81518110611126576111266137bf565b6020026020010181905250600060405180610100016040528060c9815260200161431e60c9913990506106a9838383896106b5565b60408051600580825260c082019092526060916000918291816020015b606081526020019060019003908161117857905050905060006040518060800160405280604781526020016148b8604791399050604051806060016040528060228152602001613ead60229139826000815181106111d8576111d86137bf565b60200260200101819052506040518060600160405280602281526020016153a0602291398260018151811061120f5761120f6137bf565b602002602001018190525060405180606001604052806022815260200161533a6022913982600281518110611246576112466137bf565b602002602001018190525060405180606001604052806022815260200161521b602291398260038151811061127d5761127d6137bf565b602002602001018190525060405180606001604052806021815260200161469e60219139826004815181106112b4576112b46137bf565b602002602001018190525060006040518060a0016040528060748152602001613f5c6074913990506106a9838383896106b5565b60408051600f80825261020082019092526060916000918291816020015b60608152602001906001900390816113065790505090506000604051806080016040528060498152602001613f1360499139905060405180606001604052806022815260200161394b6022913982600081518110611366576113666137bf565b6020026020010181905250604051806060016040528060228152602001613ef1602291398260018151811061139d5761139d6137bf565b602002602001018190525060405180606001604052806022815260200161576960229139826002815181106113d4576113d46137bf565b602002602001018190525060405180606001604052806022815260200161505b602291398260038151811061140b5761140b6137bf565b6020026020010181905250604051806060016040528060228152602001614e256022913982600481518110611442576114426137bf565b60200260200101819052506040518060600160405280602281526020016140d86022913982600581518110611479576114796137bf565b60200260200101819052506040518060600160405280602281526020016157b060229139826006815181106114b0576114b06137bf565b6020026020010181905250604051806060016040528060228152602001614bea60229139826007815181106114e7576114e76137bf565b6020026020010181905250604051806060016040528060228152602001614fa8602291398260088151811061151e5761151e6137bf565b60200260200101819052506040518060600160405280602281526020016156156022913982600981518110611555576115556137bf565b6020026020010181905250604051806060016040528060228152602001614f646022913982600a8151811061158c5761158c6137bf565b6020026020010181905250604051806060016040528060228152602001614ba66022913982600b815181106115c3576115c36137bf565b60200260200101819052506040518060600160405280602281526020016142016022913982600c815181106115fa576115fa6137bf565b6020026020010181905250604051806060016040528060228152602001614a146022913982600d81518110611631576116316137bf565b6020026020010181905250604051806060016040528060228152602001613c9f6022913982600e81518110611668576116686137bf565b6020026020010181905250600060405180610120016040528060e5815260200161411c60e5913990506106a9838383896106b5565b60408051600d8082526101c082019092526060916000918291816020015b60608152602001906001900390816116bb57905050905060006040518060800160405280604781526020016145a5604791399050604051806060016040528060228152602001614d36602291398260008151811061171b5761171b6137bf565b60200260200101819052506040518060600160405280602281526020016157f76022913982600181518110611752576117526137bf565b6020026020010181905250604051806060016040528060228152602001613c5b6022913982600281518110611789576117896137bf565b602002602001018190525060405180606001604052806022815260200161487460229139826003815181106117c0576117c06137bf565b6020026020010181905250604051806060016040528060228152602001613ce360229139826004815181106117f7576117f76137bf565b60200260200101819052506040518060600160405280602281526020016144f3602291398260058151811061182e5761182e6137bf565b6020026020010181905250604051806060016040528060228152602001614bc86022913982600681518110611865576118656137bf565b6020026020010181905250604051806060016040528060228152602001614d14602291398260078151811061189c5761189c6137bf565b6020026020010181905250604051806060016040528060228152602001614cd160229139826008815181106118d3576118d36137bf565b6020026020010181905250604051806060016040528060228152602001614409602291398260098151811061190a5761190a6137bf565b60200260200101819052506040518060600160405280602281526020016143e76022913982600a81518110611941576119416137bf565b60200260200101819052506040518060600160405280602281526020016147026022913982600b81518110611978576119786137bf565b6020026020010181905250604051806060016040528060228152602001613c7d6022913982600c815181106119af576119af6137bf565b6020026020010181905250600060405180610100016040528060c6815260200161474960c6913990506106a9838383896106b5565b60408051600680825260e082019092526060916000918291816020015b6060815260200190600190039081611a01579050509050600060405180608001604052806046815260200161396d6046913990506040518060600160405280602a8152602001615010602a913982600081518110611a6157611a616137bf565b60200260200101819052506040518060600160405280602a81526020016149c5602a913982600181518110611a9857611a986137bf565b60200260200101819052506040518060600160405280602a8152602001613a1b602a913982600281518110611acf57611acf6137bf565b60200260200101819052506040518060600160405280602a81526020016152a8602a913982600381518110611b0657611b066137bf565b60200260200101819052506040518060600160405280602a8152602001614245602a913982600481518110611b3d57611b3d6137bf565b60200260200101819052506040518060600160405280602a8152602001613dd9602a913982600581518110611b7457611b746137bf565b602002602001018190525060006040518060c0016040528060828152602001613a666082913990506106a9838383896106b5565b60408051600980825261014082019092526060916000918291816020015b6060815260200190600190039081611bc657905050905060006040518060800160405280604881526020016159076048913990506040518060600160405280602281526020016158806022913982600081518110611c2657611c266137bf565b6020026020010181905250604051806060016040528060228152602001614b846022913982600181518110611c5d57611c5d6137bf565b60200260200101819052506040518060600160405280602281526020016158e56022913982600281518110611c9457611c946137bf565b6020026020010181905250604051806060016040528060228152602001613d2a6022913982600381518110611ccb57611ccb6137bf565b60200260200101819052506040518060600160405280602181526020016144886021913982600481518110611d0257611d026137bf565b6020026020010181905250604051806060016040528060218152602001614eaf6021913982600581518110611d3957611d396137bf565b60200260200101819052506040518060600160405280602181526020016146346021913982600681518110611d7057611d706137bf565b60200260200101819052506040518060600160405280602181526020016148ff6021913982600781518110611da757611da76137bf565b6020026020010181905250604051806060016040528060218152602001613c3a6021913982600881518110611dde57611dde6137bf565b602002602001018190525060006040518060e0016040528060aa8152602001613e0360aa913990506106a9838383896106b5565b60408051600c8082526101a082019092526060916000918291816020015b6060815260200190600190039081611e3057905050905060006040518060600160405280603c815260200161442b603c913990506040518060400160405280601881526020017f3c636972636c652063783d222d31332220723d2232222f3e000000000000000081525082600081518110611ead57611ead6137bf565b60200260200101819052506040518060400160405280601e81526020017f3c636972636c652063783d223232222063793d22362220723d2232222f3e000081525082600181518110611f0157611f016137bf565b60200260200101819052506040518060400160405280601e81526020017f3c636972636c652063783d223334222063793d22312220723d2232222f3e000081525082600281518110611f5557611f556137bf565b60200260200101819052506040518060400160405280601f81526020017f3c636972636c652063783d223531222063793d222d372220723d2232222f3e0081525082600381518110611fa957611fa96137bf565b60200260200101819052506040518060400160405280602081526020017f3c636972636c652063783d222d3231222063793d2233352220723d2232222f3e81525082600481518110611ffd57611ffd6137bf565b60200260200101819052506040518060400160405280601f81526020017f3c636972636c652063783d223230222063793d2233382220723d2232222f3e0081525082600581518110612051576120516137bf565b60200260200101819052506040518060400160405280601f81526020017f3c636972636c652063783d223335222063793d2235302220723d2232222f3e00815250826006815181106120a5576120a56137bf565b60200260200101819052506040518060400160405280601f81526020017f3c636972636c652063783d223534222063793d2236302220723d2232222f3e00815250826007815181106120f9576120f96137bf565b60200260200101819052506040518060400160405280601f81526020017f3c636972636c652063783d223730222063793d2235302220723d2232222f3e008152508260088151811061214d5761214d6137bf565b60200260200101819052506040518060400160405280601f81526020017f3c636972636c652063783d223331222063793d2231382220723d2232222f3e00815250826009815181106121a1576121a16137bf565b60200260200101819052506040518060400160405280601f81526020017f3c636972636c652063783d223534222063793d2231332220723d2232222f3e0081525082600a815181106121f5576121f56137bf565b60200260200101819052506040518060400160405280601f81526020017f3c636972636c652063783d223636222063793d2231322220723d2232222f3e0081525082600b81518110612249576122496137bf565b602002602001018190525060006040518060c0016040528060838152602001614c4e6083913990506106a9838383896106b5565b60408051600d8082526101c082019092526060916000918291816020015b606081526020019060019003908161229b57905050905060006040518060800160405280604481526020016151d76044913990506040518060600160405280602281526020016153c260229139826000815181106122fb576122fb6137bf565b60200260200101819052506040518060600160405280602281526020016153186022913982600181518110612332576123326137bf565b6020026020010181905250604051806060016040528060228152602001614d796022913982600281518110612369576123696137bf565b6020026020010181905250604051806060016040528060228152602001614e0360229139826003815181106123a0576123a06137bf565b6020026020010181905250604051806060016040528060228152602001613d7160229139826004815181106123d7576123d76137bf565b6020026020010181905250604051806060016040528060228152602001613ecf602291398260058151811061240e5761240e6137bf565b60200260200101819052506040518060600160405280602281526020016139f96022913982600681518110612445576124456137bf565b602002602001018190525060405180606001604052806021815260200161503a602191398260078151811061247c5761247c6137bf565b602002602001018190525060405180606001604052806022815260200161485260229139826008815181106124b3576124b36137bf565b6020026020010181905250604051806060016040528060218152602001614c0c60219139826009815181106124ea576124ea6137bf565b60200260200101819052506040518060600160405280602181526020016146e16021913982600a81518110612521576125216137bf565b60200260200101819052506040518060600160405280602281526020016138bc6022913982600b81518110612558576125586137bf565b60200260200101819052506040518060600160405280602281526020016142b96022913982600c8151811061258f5761258f6137bf565b6020026020010181905250600060405180610100016040528060d081526020016150e560d0913990506106a9838383896106b5565b60408051600b80825261018082019092526060916000918291816020015b60608152602001906001900390816125e257905050905060006040518060800160405280604881526020016145ec6048913990506040518060600160405280602181526020016154066021913982600081518110612642576126426137bf565b602002602001018190525060405180606001604052806021815260200161507d6021913982600181518110612679576126796137bf565b602002602001018190525060405180606001604052806021815260200161483160219139826002815181106126b0576126b06137bf565b60200260200101819052506040518060600160405280602181526020016142db60219139826003815181106126e7576126e76137bf565b6020026020010181905250604051806060016040528060218152602001613b09602191398260048151811061271e5761271e6137bf565b60200260200101819052506040518060600160405280602181526020016152d26021913982600581518110612755576127556137bf565b6020026020010181905250604051806060016040528060218152602001614fca602191398260068151811061278c5761278c6137bf565b6020026020010181905250604051806060016040528060218152602001614d5860219139826007815181106127c3576127c36137bf565b60200260200101819052506040518060600160405280602181526020016158a260219139826008815181106127fa576127fa6137bf565b6020026020010181905250604051806060016040528060218152602001613a456021913982600981518110612831576128316137bf565b6020026020010181905250604051806060016040528060218152602001613ae86021913982600a81518110612868576128686137bf565b602002602001018190525060006040518060e0016040528060b78152602001613fd060b7913990506106a9838383896106b5565b60408051600c8082526101a082019092526060916000918291816020015b60608152602001906001900390816128ba5790505090506000604051806080016040528060488152602001614b1a60489139905060405180606001604052806022815260200161535c602291398260008151811061291a5761291a6137bf565b60200260200101819052506040518060600160405280602281526020016145156022913982600181518110612951576129516137bf565b60200260200101819052506040518060600160405280602281526020016140fa6022913982600281518110612988576129886137bf565b6020026020010181905250604051806060016040528060228152602001614f8660229139826003815181106129bf576129bf6137bf565b602002602001018190525060405180606001604052806022815260200161489660229139826004815181106129f6576129f66137bf565b60200260200101819052506040518060600160405280602281526020016152866022913982600581518110612a2d57612a2d6137bf565b602002602001018190525060405180606001604052806022815260200161537e6022913982600681518110612a6457612a646137bf565b60200260200101819052506040518060600160405280602281526020016142236022913982600781518110612a9b57612a9b6137bf565b6020026020010181905250604051806060016040528060228152602001613b4f6022913982600881518110612ad257612ad26137bf565b60200260200101819052506040518060600160405280602281526020016151b56022913982600981518110612b0957612b096137bf565b6020026020010181905250604051806060016040528060228152602001613cc16022913982600a81518110612b4057612b406137bf565b6020026020010181905250604051806060016040528060228152602001614e8d6022913982600b81518110612b7757612b776137bf565b6020026020010181905250600060405180610120016040528060e48152602001614a3660e4913990506106a9838383896106b5565b60408051600780825261010082019092526060916000918291816020015b6060815260200190600190039081612bca579050509050600060405180608001604052806049815260200161455c6049913990506040518060400160405280601f81526020017f3c636972636c652063783d2230222063793d2230302220723d223222202f3e0081525082600081518110612c4757612c476137bf565b60200260200101819052506040518060400160405280602081526020017f3c636972636c652063783d222d36222063793d2232302220723d223222202f3e81525082600181518110612c9b57612c9b6137bf565b60200260200101819052506040518060400160405280602081526020017f3c636972636c652063783d222d39222063793d2234302220723d223222202f3e81525082600281518110612cef57612cef6137bf565b60200260200101819052506040518060400160405280602081526020017f3c636972636c652063783d222d33222063793d2236302220723d223222202f3e81525082600381518110612d4357612d436137bf565b60200260200101819052506040518060400160405280602081526020017f3c636972636c652063783d222d3138222063793d2237302220723d2232222f3e81525082600481518110612d9757612d976137bf565b60200260200101819052506040518060400160405280602081526020017f3c636972636c652063783d222d3132222063793d2239322220723d2232222f3e81525082600581518110612deb57612deb6137bf565b60200260200101819052506040518060400160405280601f81526020017f3c636972636c652063783d2238222063793d2239312220723d223222202f3e0081525082600681518110612e3f57612e3f6137bf565b602002602001018190525060006040518060a0016040528060778152602001613b716077913990506106a9838383896106b5565b6060600080604051806080016040528060488152602001613903604891396040805160148082526102a0820190925291925060009190816020015b6060815260200190600190039081612eae579050509050604051806060016040528060218152602001614e6c6021913981600081518110612ef157612ef16137bf565b602002602001018190525060405180606001604052806021815260200161546d6021913981600181518110612f2857612f286137bf565b6020026020010181905250604051806060016040528060218152602001614cf36021913981600281518110612f5f57612f5f6137bf565b602002602001018190525060405180606001604052806021815260200161548e6021913981600381518110612f9657612f966137bf565b6020026020010181905250604051806060016040528060218152602001614c2d6021913981600481518110612fcd57612fcd6137bf565b60200260200101819052506040518060600160405280602181526020016144676021913981600581518110613004576130046137bf565b6020026020010181905250604051806060016040528060218152602001613db8602191398160068151811061303b5761303b6137bf565b60200260200101819052506040518060600160405280602181526020016154276021913981600781518110613072576130726137bf565b6020026020010181905250604051806060016040528060218152602001614d9b60219139816008815181106130a9576130a96137bf565b60200260200101819052506040518060400160405280602081526020017f3c636972636c6520723d2232222063783d223937222063793d22343630222f3e815250816009815181106130fd576130fd6137bf565b60200260200101819052506040518060400160405280602081526020017f3c636972636c6520723d2232222063783d223937222063793d22343231222f3e81525081600a81518110613151576131516137bf565b60200260200101819052506040518060400160405280602081526020017f3c636972636c6520723d2232222063783d223931222063793d22353139222f3e81525081600b815181106131a5576131a56137bf565b60200260200101819052506040518060400160405280602081526020017f3c636972636c6520723d2232222063783d223931222063793d22343533222f3e81525081600c815181106131f9576131f96137bf565b60200260200101819052506040518060400160405280602081526020017f3c636972636c6520723d2232222063783d223930222063793d22343236222f3e81525081600d8151811061324d5761324d6137bf565b60200260200101819052506040518060400160405280602081526020017f3c636972636c6520723d2232222063783d223838222063793d22353037222f3e81525081600e815181106132a1576132a16137bf565b60200260200101819052506040518060400160405280602081526020017f3c636972636c6520723d2232222063783d223831222063793d22343234222f3e81525081600f815181106132f5576132f56137bf565b60200260200101819052506040518060400160405280602081526020017f3c636972636c6520723d2232222063783d223731222063793d22353135222f3e81525081601081518110613349576133496137bf565b60200260200101819052506040518060400160405280602081526020017f3c636972636c6520723d2232222063783d223636222063793d22343135222f3e8152508160118151811061339d5761339d6137bf565b60200260200101819052506040518060400160405280602081526020017f3c636972636c6520723d2232222063783d223632222063793d22343436222f3e815250816012815181106133f1576133f16137bf565b60200260200101819052506040518060400160405280602081526020017f3c636972636c6520723d2232222063783d223432222063793d22343638222f3e81525081601381518110613445576134456137bf565b6020026020010181905250600060405180610180016040528061014181526020016154d4610141913990506106a9828483896106b5565b6134ef8282604051602401613492929190613899565b60408051601f198184030181529190526020810180517bffffffffffffffffffffffffffffffffffffffffffffffffffffffff167fb60e72cc000000000000000000000000000000000000000000000000000000001790526134f3565b5050565b80516a636f6e736f6c652e6c6f67602083016000808483855afa5050505050565b803560ff8116811461352557600080fd5b919050565b60006020828403121561353c57600080fd5b61354582613514565b9392505050565b60005b8381101561356757818101518382015260200161354f565b50506000910152565b6000815180845261358881602086016020860161354c565b601f01601f19169290920160200192915050565b6040815260006135af6040830185613570565b905060ff831660208301529392505050565b634e487b7160e01b600052604160045260246000fd5b604051601f8201601f1916810167ffffffffffffffff81118282101715613600576136006135c1565b604052919050565b600082601f83011261361957600080fd5b813567ffffffffffffffff811115613633576136336135c1565b613646601f8201601f19166020016135d7565b81815284602083860101111561365b57600080fd5b816020850160208301376000918101602001919091529392505050565b6000806000806080858703121561368e57600080fd5b843567ffffffffffffffff808211156136a657600080fd5b818701915087601f8301126136ba57600080fd5b81356020828211156136ce576136ce6135c1565b8160051b6136dd8282016135d7565b928352848101820192828101908c8511156136f757600080fd5b83870192505b84831015613733578235868111156137155760008081fd5b6137238e86838b0101613608565b83525091830191908301906136fd565b995050508801359250508082111561374a57600080fd5b61375688838901613608565b9450604087013591508082111561376c57600080fd5b5061377987828801613608565b92505061378860608601613514565b905092959194509250565b600080604083850312156137a657600080fd5b823591506137b660208401613514565b90509250929050565b634e487b7160e01b600052603260045260246000fd5b634e487b7160e01b600052601160045260246000fd5b60ff8281168282160390811115613804576138046137d5565b92915050565b6000835161381c81846020880161354c565b83519083019061383081836020880161354c565b01949350505050565b600060ff821660ff810361384f5761384f6137d5565b60010192915050565b6000825161386a81846020870161354c565b7f3c2f673e00000000000000000000000000000000000000000000000000000000920191825250600401919050565b6040815260006138ac6040830185613570565b9050826020830152939250505056fe3c636972636c6520723d2232222063783d22323937222063793d2231313620222f3e3c636972636c6520723d22322e3836222063783d22343235222063793d2235343120222f3e3c67207472616e73666f726d3d227472616e736c617465283233342c2d323930292c20726f74617465283029222066696c6c3d222366666622206f7061636974793d22302e38223e3c636972636c6520723d2232222063783d22353133222063793d2232353620222f3e3c67207472616e73666f726d3d227472616e736c617465283133342c202d373029207363616c65283329222066696c6c3d222366666622206f7061636974793d22302e38223e3c67207472616e73666f726d3d227472616e736c61746528342c2d313230292c20726f74617465283029222066696c6c3d222366666622206f7061636974793d22302e38223e3c636972636c6520723d2232222063783d22333334222063793d2231333220222f3e3c636972636c6520723d22302e3636222063783d2236322e303030222063793d2239332e303030222f3e3c636972636c6520723d2232222063783d22313931222063793d22353131222f3e3c7061746820643d226d3837203736204c203732203736204c203539203830204c203439203739204d203632203933204c203539203830204c20363120363422207374726f6b652d77696474683d22302e333333222066696c6c3d226e6f6e6522207374726f6b653d222366666622206f7061636974793d222e35222f3e3c2f673e3c636972636c6520723d2232222063783d22313839222063793d22353139222f3e3c636972636c6520723d2232222063783d22323331222063793d22343134222f3e3c636972636c6520723d22322e3836222063783d22323037222063793d2231333520222f3e3c636972636c6520723d2232222063783d22323231222063793d2233343220222f3e3c7061746820643d226d2030203030204c202d36203230204c202d39203430204c202d33203630204c202d3138203730204c202d3132203932204c2038203931204c202d33203630222066696c6c3d226e6f6e6522207374726f6b653d22776869746522206f7061636974793d222e35222f3e3c2f673e3c67207472616e73666f726d3d227472616e736c6174652831342c2d313730292c20726f74617465283029207363616c6528302e3729222066696c6c3d222366666622206f7061636974793d22302e38223e3c636972636c6520723d2232222063783d223631222063793d2233343420222f3e3c636972636c6520723d2232222063783d22333534222063793d2235313720222f3e3c636972636c6520723d2232222063783d22333635222063793d2234373220222f3e3c636972636c6520723d2232222063783d22353133222063793d2232383120222f3e3c636972636c6520723d2232222063783d22313938222063793d2232343220222f3e3c636972636c6520723d2232222063783d22333339222063793d2234333520222f3e3c636972636c6520723d22322e3836222063783d22343832222063793d2235303220222f3e3c636972636c6520723d2232222063783d22313032222063793d2232363520222f3e3c636972636c6520723d22322e3836222063783d22323134222063793d2231323920222f3e3c636972636c6520723d2232222063783d22333539222063793d2231303920222f3e3c636972636c6520723d22322e3836222063783d22323033222063793d2231303020222f3e3c636972636c6520723d2232222063783d22313238222063793d22343431222f3e3c636972636c6520723d22302e3636222063783d2234392e303030222063793d2237392e303030222f3e3c7061746820643d226d3130382c323234204c2039342c20323236204c2039322c20323533204c203130322c20323635204c2031323020323634204c202031333620323736204c20383020333234204c203631203334344c20363420333037204c2031303220323635204d20383020333234204c203132302032363422207374726f6b653d222366666622206f7061636974793d222e35222066696c6c3d226e6f6e65222f3e3c2f673e3c636972636c6520723d2232222063783d22343931222063793d2231343320222f3e3c636972636c6520723d2232222063783d22333539222063793d2231363220222f3e3c636972636c6520723d2232222063783d22353133222063793d2232363820222f3e3c67207472616e73666f726d3d227472616e736c617465282d3132312c2d313230292c20726f74617465283029222066696c6c3d222366666622206f7061636974793d22302e38223e3c7061746820643d226d34393120313433204c203434332c20313233204c2034333720313132204c20343138203838204d2034343220313233204c203434302031353720202022207374726f6b653d222366666622206f7061636974793d222e35222066696c6c3d226e6f6e65222f3e3c2f673e3c7061746820643d224d203235342c20343932204c203234312c20343938204c203232312c20353130204c203230322c353134204c203138392c20353139204c203139312c20353131204c203230312c343935204c203231322c20343831204c203233322c20343234204c2032333120343134204d203233322c20343234204c203235332c2034383322207374726f6b653d222366666622206f7061636974793d222e35222066696c6c3d226e6f6e65222f3e3c2f673e3c67207472616e73666f726d3d227472616e736c617465283139342c3830292c20726f74617465283029207363616c6528302e3729222066696c6c3d222366666622206f7061636974793d22302e38223e3c636972636c6520723d2232222063783d22343735222063793d2232373420222f3e3c636972636c6520723d2232222063783d22323438222063793d2232373620222f3e3c7061746820643d226d3431392c20333034204c203431302c20333133204c203430352c20333230204c203431352c20333332204c203433352c20333333204c20203435322c20333238204c203435362c20333134204c203435382c20323936204c203437352c20323734204c203438312c20323638204c203438392c20323634204c203531332c20323536204c203531302c20323438204d203531332c20323536204c203531332c20323638204c203531332032383122207374726f6b653d222366666622206f7061636974793d222e35222066696c6c3d226e6f6e65222f3e3c2f673e3c636972636c6520723d2232222063783d22343130222063793d2233313320222f3e3c636972636c6520723d2232222063783d22323233222063793d2232383520222f3e3c636972636c6520723d22302e3636222063783d2235392e303030222063793d2238302e303030222f3e3c636972636c6520723d22322e3836222063783d22343438222063793d2234303120222f3e3c636972636c6520723d22322e3836222063783d22343635222063793d2235333920222f3e3c636972636c6520723d2232222063783d22323935222063793d2231303620222f3e3c636972636c6520723d2232222063783d22323332222063793d22343234222f3e3c636972636c6520723d2232222063783d22333631222063793d2232373220222f3e3c7061746820643d226d32363220313834204c2032353920313735204c2032323820313534204c2032313420313339204c2032313420313239204c2032313020313237204c2032313020313231204c2032303320313030204c20313834203637204d2032313420313339204c2032303720313335204c2032303120313331204c2031363420393322207374726f6b653d222366666622206f7061636974793d222e35222066696c6c3d226e6f6e6522207374726f6b652d77696474683d22312e3433222f3e3c2f673e3c636972636c6520723d2232222063783d22323932222063793d2234383420222f3e3c636972636c6520723d2232222063783d22333032222063793d2234383020222f3e3c67207472616e73666f726d3d227472616e736c617465283332322031353029222066696c6c3d222366666622206f7061636974793d22302e38223e3c636972636c6520723d2232222063783d22313332222063793d22343735222f3e3c636972636c6520723d2232222063783d223934222063793d2232323620222f3e3c636972636c6520723d22322e3836222063783d22343135222063793d2235353320222f3e3c636972636c6520723d22322e3836222063783d22323632222063793d2231383420222f3e3c636972636c6520723d2232222063783d22333335222063793d2234373620222f3e3c636972636c6520723d2232222063783d22323531222063793d2232323520222f3e3c636972636c6520723d22322e3836222063783d22343731222063793d2234303020222f3e3c67207472616e73666f726d3d227472616e736c617465283332302c313330292c20726f74617465282d333029222066696c6c3d222366666622206f7061636974793d22302e38223e3c67207472616e73666f726d3d227472616e736c617465282d362c2d333030292c20726f74617465283029222066696c6c3d222366666622206f7061636974793d22302e38223e3c67207472616e73666f726d3d227472616e736c617465283131342c2d333030292c20726f74617465283029222066696c6c3d222366666622206f7061636974793d22302e38223e3c636972636c6520723d2232222063783d223830222063793d2233323420222f3e3c636972636c6520723d22322e3836222063783d22343735222063793d2234383420222f3e3c636972636c6520723d22322e3836222063783d22313634222063793d22393320222f3e3c636972636c6520723d2232222063783d22343138222063793d22383820222f3e3c636972636c6520723d2232222063783d22333335222063793d2233323120222f3e3c636972636c6520723d2232222063783d22333036222063793d22383620222f3e3c636972636c6520723d2232222063783d22323839222063793d2234393220222f3e3c636972636c6520723d22322e3836222063783d22343734222063793d2234313720222f3e3c7061746820643d224d3337382c20343036204c203333392c20343335204c203330322c20343539204c203330322c20343830204c2032393220343834204c203238392c20343932204c2033313920353334204c203332352c353135204c203334372c353132204c203335342c353137204c203337322c353330204d203330322c343539204c203333352c343736204c2033363520343732222066696c6c3d226e6f6e6522207374726f6b653d222366666622206f7061636974793d222e35222f3e3c2f673e3c636972636c6520723d2232222063783d22333335222063793d2233323920222f3e3c636972636c6520723d2232222063783d22323431222063793d22343938222f3e3c636972636c6520723d2232222063783d22333139222063793d2231323520222f3e3c636972636c6520723d2232222063783d22333437222063793d2235313220222f3e3c636972636c6520723d2232222063783d22323431222063793d2233323720222f3e3c67207472616e73666f726d3d227472616e736c617465282d3130362c3530292c20726f74617465283029222066696c6c3d222366666622206f7061636974793d22302e38223e3c636972636c6520723d2232222063783d223634222063793d2233303720222f3e3c7061746820643d224d203330392c20323837204c203331382c20323831204c203332342c20323736204c203333332c20323532204c203336312c203237322c203335362c20333037204c20203333352c20333231204c203333352c20333239204d203335362c20333037204c203333332c203235322022207374726f6b653d222366666622206f7061636974793d222e35222066696c6c3d226e6f6e65222f3e3c2f673e3c636972636c6520723d22302e3636222063783d2237322e303030222063793d2237362e303030222f3e3c636972636c6520723d22322e3836222063783d22343935222063793d2235343120222f3e3c636972636c6520723d2232222063783d22343035222063793d2233323020222f3e3c7061746820643d226d3232312c20333432204c203233312c20333234204c203234312c20333237204c203236312c20323936204c203234382c20323736204c20203234362c20323434204c203235312c20323235204d203234362c20323434204c203232352c20323439204c203139382c20323432204d203232352c20323439204c203232332c20323835204c203236312c20323936204d203232332c20323835204c2032303720323939204c203138382033333022207374726f6b653d222366666622206f7061636974793d222e35222066696c6c3d226e6f6e65222f3e3c2f673e3c67207472616e73666f726d3d227472616e736c617465283131342c2d313134292c20726f74617465283029222066696c6c3d222366666622206f7061636974793d22302e38223e3c636972636c6520723d2232222063783d22333333222063793d2232353220222f3e3c636972636c6520723d2232222063783d22313230222063793d2232363420222f3e3c636972636c6520723d2232222063783d22343135222063793d2233333220222f3e3c636972636c6520723d2232222063783d22333235222063793d2235313520222f3e3c636972636c6520723d2232222063783d22343536222063793d2233313420222f3e3c636972636c6520723d2232222063783d22333135222063793d22383720222f3e3c636972636c6520723d2232222063783d22313334222063793d22343537222f3e3c7061746820643d224d37302035302035342036302033352035302032302033386c2d34312d3320382d333520333520362d322033326d34362d32362d313220312d323320352d392d31322031322d352031372d38222066696c6c3d226e6f6e6522207374726f6b653d222366666622206f7061636974793d222e35222f3e3c2f673e3c636972636c6520723d2232222063783d22333032222063793d2234353920222f3e3c636972636c6520723d2232222063783d22313339222063793d22343832222f3e3c636972636c6520723d2232222063783d22333139222063793d2235333420222f3e3c636972636c6520723d2232222063783d22333738222063793d2234303620222f3e3c636972636c6520723d2232222063783d22323032222063793d22353134222f3e3c636972636c6520723d2232222063783d22333734222063793d2231323820222f3e3c636972636c6520723d2232222063783d22313030222063793d22343436222f3e3c67207472616e73666f726d3d227472616e736c617465283331362c313333292c20726f74617465283029222066696c6c3d222366666622206f7061636974793d22302e38223e3c636972636c6520723d2232222063783d22333635222063793d2231343420222f3e3c636972636c6520723d2232222063783d22343831222063793d2232363820222f3e3c636972636c6520723d22322e3836222063783d22343435222063793d2234313320222f3e3c636972636c6520723d2232222063783d22313639222063793d22343437222f3e3c636972636c6520723d2232222063783d22313838222063793d2233333020222f3e3c636972636c6520723d2232222063783d223932222063793d2232353320222f3e3c636972636c6520723d22322e3836222063783d22343534222063793d2234323520222f3e3c636972636c6520723d22322e3836222063783d22343539222063793d2234343520222f3e3c636972636c6520723d22322e3836222063783d22323031222063793d2231333120222f3e3c636972636c6520723d22322e3836222063783d22343638222063793d2234323720222f3e3c636972636c6520723d2232222063783d22343139222063793d2233303420222f3e3c636972636c6520723d2232222063783d22323436222063793d2232343420222f3e3c636972636c6520723d2232222063783d22343532222063793d2233323820222f3e3c636972636c6520723d2232222063783d22323132222063793d22343831222f3e3c636972636c6520723d22322e3836222063783d22323238222063793d2231353420222f3e3c636972636c6520723d22302e3636222063783d2238372e303030222063793d2237362e303030222f3e3c636972636c6520723d2232222063783d22333234222063793d22383920222f3e3c636972636c6520723d2232222063783d22343839222063793d2232363420222f3e3c636972636c6520723d2232222063783d22323533222063793d22343833222f3e3c636972636c6520723d2232222063783d22333536222063793d2233303720222f3e3c636972636c6520723d22322e3836222063783d22323130222063793d2231323720222f3e3c7061746820643d226d333836202c20313136204c203337372c20313135204c203337342c20313238204c203336352c20313434204c203333342c20313332204c20203331392c20313235204c2032393720313136204c2032393520313036204c20333036203836204c20333135203837204c20333234203839204c2033353920313039204c2033373720313135204d2033363520313434204c203335392031363222207374726f6b653d222366666622206f7061636974793d222e35222066696c6c3d226e6f6e65222f3e3c2f673e3c636972636c6520723d2232222063783d22323037222063793d2232393920222f3e3c67207472616e73666f726d3d227472616e736c61746528342c3530292c20726f74617465283029222066696c6c3d222366666622206f7061636974793d22302e38223e3c636972636c6520723d2232222063783d22343337222063793d2231313220222f3e3c636972636c6520723d22322e3836222063783d22313834222063793d22363720222f3e3c636972636c6520723d22322e3836222063783d22323539222063793d2231373520222f3e3c636972636c6520723d2232222063783d22323331222063793d2233323420222f3e3c636972636c6520723d22302e3636222063783d2236312e303030222063793d2236342e303030222f3e3c636972636c6520723d2232222063783d22323231222063793d22353130222f3e3c636972636c6520723d22322e3836222063783d22343537222063793d2233393520222f3e3c636972636c6520723d2232222063783d22333737222063793d2231313520222f3e3c636972636c6520723d2232222063783d22343430222063793d2231353720222f3e3c636972636c6520723d2232222063783d22323631222063793d2232393620222f3e3c636972636c6520723d2232222063783d22323235222063793d2232343920222f3e3c636972636c6520723d2232222063783d22343433222063793d2231323320222f3e3c636972636c6520723d2232222063783d22333836222063793d2231313620222f3e3c636972636c6520723d2232222063783d22333234222063793d2232373620222f3e3c636972636c6520723d2232222063783d22323534222063793d22343932222f3e3c636972636c6520723d2232222063783d22313130222063793d22343439222f3e3c636972636c6520723d22322e3836222063783d22353032222063793d2235323620222f3e3c636972636c6520723d2232222063783d22313438222063793d22343632222f3e3c636972636c6520723d2232222063783d22313336222063793d22343139222f3e3c636972636c6520723d22322e3836222063783d22353233222063793d2235343720222f3e3c7061746820643d226d3136392c20343437204c203134382c20343632204c203133342c343537204c203133322c20343735204c203133392c20343832204d203133342c343537204c203132382c343431204c203133362c343139204d203132382c20343431204c203131302c20343439204c203130302c343436204c2039302c343236204c2039372c343231204d2039302c343236204c2038312c343234204c2036362c343135204d203131302c20343439204c2039372c20343630204c2039312c20343533204c203130302c343436204d2039312c343533204c2036322c20343436204c2034322c20343638204c2037312c20353135204c2038382c353037204d2037312c353135204c2039312c35313922207374726f6b653d222366666622206f7061636974793d222e35222066696c6c3d226e6f6e65222f3e3c2f673e3c636972636c6520723d2232222063783d22343335222063793d2233333320222f3e3c7061746820643d226d3430302c20353434204c203431352c20353533204c203432352c353431204c3436352c20353339204c203439352c20353431204c203532332c20353437204c203530322c20353236204c203438322c20353032204c203437352c20343834204c203435392c20343435204c203435342c20343235204c203434352c20343133204c203434382c20343031204c203435372c20333935204c203437312c20343030204c203437342c20343137204c203436382c20343237204c20343534203432352022207374726f6b653d222366666622206f7061636974793d222e35222066696c6c3d226e6f6e6522207374726f6b652d77696474683d22312e3433222f3e3c2f673e3c636972636c6520723d22322e3836222063783d22323134222063793d2231333920222f3e3c636972636c6520723d2232222063783d22353130222063793d2232343820222f3e3c636972636c6520723d22322e3836222063783d22343030222063793d2235343420222f3e3c636972636c6520723d2232222063783d22343538222063793d2232393620222f3e3c636972636c6520723d22322e3836222063783d22323130222063793d2231323120222f3e3c636972636c6520723d2232222063783d22333732222063793d2235333020222f3e3c7061746820643d226d202d3330203630204c202d3130203435204c20352030204c203535203130204c203830203330204c203835203435222066696c6c3d226e6f6e6522207374726f6b653d22776869746522206f7061636974793d222e35222f3e3c2f673e3c636972636c6520723d2232222063783d22313336222063793d2232373620222f3e3c636972636c6520723d2232222063783d22323031222063793d22343935222f3e3c636972636c6520723d2232222063783d22333039222063793d2232383720222f3e3c636972636c6520723d2232222063783d22313038222063793d2232323420222f3e3c67207472616e73666f726d3d227472616e736c617465283235342c2d313134292c20726f74617465283029222066696c6c3d222366666622206f7061636974793d22302e38223e3c636972636c6520723d2232222063783d22333138222063793d2232383120222f3ea264697066735822122028d2b2ed35cf5bc9e0ac5d751bb3f11b1568c0b2edbc821848121ff498d5ed0864736f6c63430008120033",
  "devdoc": {
    "kind": "dev",
    "methods": {},
    "version": 1
  },
  "userdoc": {
    "kind": "user",
    "methods": {},
    "version": 1
  },
  "storageLayout": {
    "storage": [],
    "types": null
  }
}