{
  "address": "0xf6Dc45470a6a099834E0497DBBBE927f0854c5e2",
  "abi": [
    {
      "inputs": [
        {
          "internalType": "uint8",
          "name": "show",
          "type": "uint8"
        }
      ],
      "name": "Aquarius",
      "outputs": [
        {
          "internalType": "string",
          "name": "",
          "type": "string"
        }
      ],
      "stateMutability": "view",
      "type": "function"
    },
    {
      "inputs": [
        {
          "internalType": "uint8",
          "name": "show",
          "type": "uint8"
        }
      ],
      "name": "Aries",
      "outputs": [
        {
          "internalType": "string",
          "name": "",
          "type": "string"
        }
      ],
      "stateMutability": "view",
      "type": "function"
    },
    {
      "inputs": [
        {
          "internalType": "uint8",
          "name": "show",
          "type": "uint8"
        }
      ],
      "name": "Cancer",
      "outputs": [
        {
          "internalType": "string",
          "name": "",
          "type": "string"
        }
      ],
      "stateMutability": "view",
      "type": "function"
    },
    {
      "inputs": [
        {
          "internalType": "uint8",
          "name": "show",
          "type": "uint8"
        }
      ],
      "name": "Capricorn",
      "outputs": [
        {
          "internalType": "string",
          "name": "",
          "type": "string"
        }
      ],
      "stateMutability": "view",
      "type": "function"
    },
    {
      "inputs": [
        {
          "internalType": "uint8",
          "name": "show",
          "type": "uint8"
        }
      ],
      "name": "Cygnus",
      "outputs": [
        {
          "internalType": "string",
          "name": "",
          "type": "string"
        }
      ],
      "stateMutability": "view",
      "type": "function"
    },
    {
      "inputs": [
        {
          "internalType": "uint8",
          "name": "show",
          "type": "uint8"
        }
      ],
      "name": "Gemini",
      "outputs": [
        {
          "internalType": "string",
          "name": "",
          "type": "string"
        }
      ],
      "stateMutability": "view",
      "type": "function"
    },
    {
      "inputs": [
        {
          "internalType": "uint8",
          "name": "show",
          "type": "uint8"
        }
      ],
      "name": "Leo",
      "outputs": [
        {
          "internalType": "string",
          "name": "",
          "type": "string"
        }
      ],
      "stateMutability": "view",
      "type": "function"
    },
    {
      "inputs": [
        {
          "internalType": "uint8",
          "name": "show",
          "type": "uint8"
        }
      ],
      "name": "Libra",
      "outputs": [
        {
          "internalType": "string",
          "name": "",
          "type": "string"
        }
      ],
      "stateMutability": "view",
      "type": "function"
    },
    {
      "inputs": [
        {
          "internalType": "uint8",
          "name": "show",
          "type": "uint8"
        }
      ],
      "name": "Pegasus",
      "outputs": [
        {
          "internalType": "string",
          "name": "",
          "type": "string"
        }
      ],
      "stateMutability": "view",
      "type": "function"
    },
    {
      "inputs": [
        {
          "internalType": "uint8",
          "name": "show",
          "type": "uint8"
        }
      ],
      "name": "Pisces",
      "outputs": [
        {
          "internalType": "string",
          "name": "",
          "type": "string"
        }
      ],
      "stateMutability": "view",
      "type": "function"
    },
    {
      "inputs": [
        {
          "internalType": "uint8",
          "name": "show",
          "type": "uint8"
        }
      ],
      "name": "Sagittarius",
      "outputs": [
        {
          "internalType": "string",
          "name": "",
          "type": "string"
        }
      ],
      "stateMutability": "view",
      "type": "function"
    },
    {
      "inputs": [
        {
          "internalType": "uint8",
          "name": "show",
          "type": "uint8"
        }
      ],
      "name": "Scorpio",
      "outputs": [
        {
          "internalType": "string",
          "name": "",
          "type": "string"
        }
      ],
      "stateMutability": "view",
      "type": "function"
    },
    {
      "inputs": [
        {
          "internalType": "uint8",
          "name": "show",
          "type": "uint8"
        }
      ],
      "name": "Taurus",
      "outputs": [
        {
          "internalType": "string",
          "name": "",
          "type": "string"
        }
      ],
      "stateMutability": "view",
      "type": "function"
    },
    {
      "inputs": [
        {
          "internalType": "uint8",
          "name": "show",
          "type": "uint8"
        }
      ],
      "name": "UrsaMinor",
      "outputs": [
        {
          "internalType": "string",
          "name": "",
          "type": "string"
        }
      ],
      "stateMutability": "view",
      "type": "function"
    },
    {
      "inputs": [
        {
          "internalType": "uint8",
          "name": "show",
          "type": "uint8"
        }
      ],
      "name": "Virgo",
      "outputs": [
        {
          "internalType": "string",
          "name": "",
          "type": "string"
        }
      ],
      "stateMutability": "view",
      "type": "function"
    },
    {
      "inputs": [
        {
          "internalType": "string[]",
          "name": "stars",
          "type": "string[]"
        },
        {
          "internalType": "string",
          "name": "open",
          "type": "string"
        },
        {
          "internalType": "string",
          "name": "close",
          "type": "string"
        },
        {
          "internalType": "uint8",
          "name": "show",
          "type": "uint8"
        }
      ],
      "name": "buildStar",
      "outputs": [
        {
          "internalType": "string",
          "name": "",
          "type": "string"
        }
      ],
      "stateMutability": "pure",
      "type": "function"
    },
    {
      "inputs": [
        {
          "internalType": "uint256",
          "name": "constellationSeed",
          "type": "uint256"
        },
        {
          "internalType": "uint8",
          "name": "gazed",
          "type": "uint8"
        }
      ],
      "name": "getConstellation",
      "outputs": [
        {
          "internalType": "string",
          "name": "",
          "type": "string"
        }
      ],
      "stateMutability": "view",
      "type": "function"
    }
  ],
  "transactionHash": "0xcb30089c7855a4fba8f3322b612a30314d391bc0c0074a4bd16e316d1a590667",
  "args": [],
  "numDeployments": 1,
  "solcInputHash": "024556009ac9c877de40b16c8147d315",
  "bytecode": "0x61580e61003a600b82828239805160001a60731461002d57634e487b7160e01b600052600060045260246000fd5b30600052607381538281f3fe73000000000000000000000000000000000000000030146080604052600436106101255760003560e01c8063929a5eb7116100bc578063b8b670371161008b578063d771dc6911610070578063d771dc691461024a578063e4b45f1f1461025d578063ebd357501461027057600080fd5b8063b8b6703714610224578063d09c71af1461023757600080fd5b8063929a5eb7146101d8578063a8018237146101eb578063a88bec5b146101fe578063ab5fe1861461021157600080fd5b806366801606116100f8578063668016061461018c57806366c4a8741461019f5780637e9e4a09146101b25780638111a053146101c557600080fd5b80632eab20f71461012a578063380768a1146101535780635a9ff6f2146101665780635b33e80e14610179575b600080fd5b61013d6101383660046133d7565b610283565b60405161014a919061341d565b60405180910390f35b61013d610161366004613507565b6106b0565b61013d6101743660046133d7565b6107b9565b61013d610187366004613622565b610a2a565b61013d61019a3660046133d7565b610b6a565b61013d6101ad3660046133d7565b610d9c565b61013d6101c03660046133d7565b6110ab565b61013d6101d33660046133d7565b611237565b61013d6101e63660046133d7565b6115eb565b61013d6101f93660046133d7565b611931565b61013d61020c3660046133d7565b611af4565b61013d61021f3660046133d7565b611d5d565b61013d6102323660046133d7565b6121c7565b61013d6102453660046133d7565b61250d565b61013d6102583660046133d7565b6127e4565b61013d61026b3660046133d7565b612af3565b61013d61027e3660046133d7565b612db9565b604080516011808252610240820190925260609160009190816020015b60608152602001906001900390816102a05790505090506000604051806080016040528060528152602001613a5060529139905060405180606001604052806025815260200161531760259139826000815181106103005761030061364e565b60200260200101819052506040518060600160405280602581526020016152b060259139826001815181106103375761033761364e565b6020026020010181905250604051806060016040528060258152602001614857602591398260028151811061036e5761036e61364e565b6020026020010181905250604051806060016040528060258152602001613b6d60259139826003815181106103a5576103a561364e565b60200260200101819052506040518060600160405280602581526020016144bd60259139826004815181106103dc576103dc61364e565b602002602001018190525060405180606001604052806025815260200161458c60259139826005815181106104135761041361364e565b602002602001018190525060405180606001604052806025815260200161439f602591398260068151811061044a5761044a61364e565b6020026020010181905250604051806060016040528060258152602001614da760259139826007815181106104815761048161364e565b60200260200101819052506040518060600160405280602581526020016140fc60259139826008815181106104b8576104b861364e565b6020026020010181905250604051806060016040528060258152602001614d5d60259139826009815181106104ef576104ef61364e565b602002602001018190525060405180606001604052806025815260200161515b6025913982600a815181106105265761052661364e565b6020026020010181905250604051806060016040528060258152602001614d386025913982600b8151811061055d5761055d61364e565b60200260200101819052506040518060600160405280602581526020016140d76025913982600c815181106105945761059461364e565b6020026020010181905250604051806060016040528060258152602001614caf6025913982600d815181106105cb576105cb61364e565b60200260200101819052506040518060600160405280602581526020016137466025913982600e815181106106025761060261364e565b60200260200101819052506040518060600160405280602581526020016143116025913982600f815181106106395761063961364e565b60200260200101819052506040518060600160405280602581526020016155f360259139826010815181106106705761067061364e565b6020026020010181905250600060405180610140016040528061010d815260200161549f61010d913990506106a7838383886106b0565b95945050505050565b606084518260ff1611156106c357845191505b604080516020808201835260008252915190916106e4918391889101613664565b604051602081830303815290604052905060005b8360ff168160ff1610156107595781878260ff168151811061071c5761071c61364e565b6020026020010151604051602001610735929190613664565b6040516020818303038152906040529150808061075190613693565b9150506106f8565b5085518360ff160361078e578084604051602001610778929190613664565b60405160208183030381529060405290506106a7565b8060405160200161079f91906136c0565b604051602081830303815290604052905095945050505050565b60408051600680825260e0820190925260609160009190816020015b60608152602001906001900390816107d55790505090506000604051806080016040528060478152602001614c246047913990506040518060400160405280602081526020017f3c636972636c652063783d222d3330222063793d2236302220723d2232222f3e815250826000815181106108525761085261364e565b60200260200101819052506040518060400160405280602081526020017f3c636972636c652063783d222d3130222063793d2234352220723d2232222f3e815250826001815181106108a6576108a661364e565b60200260200101819052506040518060400160405280601d81526020017f3c636972636c652063783d2235222063793d22302220723d2232222f3e000000815250826002815181106108fa576108fa61364e565b60200260200101819052506040518060400160405280601f81526020017f3c636972636c652063783d223535222063793d2231302220723d2232222f3e008152508260038151811061094e5761094e61364e565b60200260200101819052506040518060400160405280601f81526020017f3c636972636c652063783d223830222063793d2233302220723d2232222f3e00815250826004815181106109a2576109a261364e565b60200260200101819052506040518060400160405280601f81526020017f3c636972636c652063783d223835222063793d2234352220723d2232222f3e00815250826005815181106109f6576109f661364e565b602002602001018190525060006040518060a00160405280606781526020016156816067913990506106a7838383886106b0565b60606000610a39600d85613701565b90508060ff16600003610a5757610a4f836107b9565b915050610b64565b8060ff16600103610a6b57610a4f83612db9565b8060ff16600203610a7f57610a4f8361250d565b8060ff16600303610a9357610a4f836115eb565b8060ff16600403610aa757610a4f83610283565b8060ff16600503610abb57610a4f83611237565b8060ff16600603610acf57610a4f83610b6a565b8060ff16600703610ae357610a4f836127e4565b8060ff16600803610af757610a4f83611af4565b8060ff16600903610b0b57610a4f836110ab565b8060ff16600a03610b1f57610a4f836121c7565b8060ff16600b03610b3357610a4f83610d9c565b8060ff16600c03610b4757610a4f83611d5d565b8060ff16600d03610b5b57610a4f83612af3565b610a4f83611931565b92915050565b604080516008808252610120820190925260609160009190816020015b6060815260200190600190039081610b87579050509050600060405180608001604052806046815260200161381b6046913990506040518060600160405280602281526020016141646022913982600081518110610be757610be761364e565b6020026020010181905250604051806060016040528060228152602001614f066022913982600181518110610c1e57610c1e61364e565b60200260200101819052506040518060600160405280602281526020016146776022913982600281518110610c5557610c5561364e565b60200260200101819052506040518060600160405280602281526020016145276022913982600381518110610c8c57610c8c61364e565b60200260200101819052506040518060600160405280602281526020016149ca6022913982600481518110610cc357610cc361364e565b602002602001018190525060405180606001604052806022815260200161524c6022913982600581518110610cfa57610cfa61364e565b60200260200101819052506040518060600160405280602281526020016157b76022913982600681518110610d3157610d3161364e565b602002602001018190525060405180606001604052806022815260200161572b6022913982600781518110610d6857610d6861364e565b602002602001018190525060006040518060e0016040528060a5815260200161478860a5913990506106a7838383886106b0565b60408051600c8082526101a0820190925260609160009190816020015b6060815260200190600190039081610db95790505090506000604051806080016040528060518152602001613eef6051913990506040518060600160405280602581526020016143366025913982600081518110610e1957610e1961364e565b60200260200101819052506040518060600160405280602581526020016150c96025913982600181518110610e5057610e5061364e565b6020026020010181905250604051806060016040528060258152602001614e536025913982600281518110610e8757610e8761364e565b60200260200101819052506040518060600160405280602581526020016155ac6025913982600381518110610ebe57610ebe61364e565b6020026020010181905250604051806060016040528060258152602001613bb46025913982600481518110610ef557610ef561364e565b6020026020010181905250604051806060016040528060258152602001614f286025913982600581518110610f2c57610f2c61364e565b602002602001018190525060405180606001604052806025815260200161563a6025913982600681518110610f6357610f6361364e565b60200260200101819052506040518060600160405280602581526020016139926025913982600781518110610f9a57610f9a61364e565b6020026020010181905250604051806060016040528060258152602001613bfb6025913982600881518110610fd157610fd161364e565b6020026020010181905250604051806060016040528060258152602001614d8260259139826009815181106110085761100861364e565b60200260200101819052506040518060600160405280602481526020016150a56024913982600a8151811061103f5761103f61364e565b60200260200101819052506040518060600160405280602481526020016144e26024913982600b815181106110765761107661364e565b6020026020010181905250600060405180610100016040528060c9815260200161418660c9913990506106a7838383886106b0565b60408051600580825260c0820190925260609160009190816020015b60608152602001906001900390816110c75790505090506000604051806080016040528060478152602001614720604791399050604051806060016040528060228152602001613d1560229139826000815181106111275761112761364e565b6020026020010181905250604051806060016040528060228152602001615208602291398260018151811061115e5761115e61364e565b60200260200101819052506040518060600160405280602281526020016151a260229139826002815181106111955761119561364e565b602002602001018190525060405180606001604052806022815260200161508360229139826003815181106111cc576111cc61364e565b602002602001018190525060405180606001604052806021815260200161450660219139826004815181106112035761120361364e565b602002602001018190525060006040518060a0016040528060748152602001613dc46074913990506106a7838383886106b0565b60408051600f808252610200820190925260609160009190816020015b60608152602001906001900390816112545790505090506000604051806080016040528060498152602001613d7b6049913990506040518060600160405280602281526020016137b360229139826000815181106112b4576112b461364e565b6020026020010181905250604051806060016040528060228152602001613d5960229139826001815181106112eb576112eb61364e565b60200260200101819052506040518060600160405280602281526020016155d160229139826002815181106113225761132261364e565b6020026020010181905250604051806060016040528060228152602001614ec360229139826003815181106113595761135961364e565b6020026020010181905250604051806060016040528060228152602001614c8d60229139826004815181106113905761139061364e565b6020026020010181905250604051806060016040528060228152602001613f4060229139826005815181106113c7576113c761364e565b602002602001018190525060405180606001604052806022815260200161561860229139826006815181106113fe576113fe61364e565b6020026020010181905250604051806060016040528060228152602001614a5260229139826007815181106114355761143561364e565b6020026020010181905250604051806060016040528060228152602001614e10602291398260088151811061146c5761146c61364e565b602002602001018190525060405180606001604052806022815260200161547d60229139826009815181106114a3576114a361364e565b6020026020010181905250604051806060016040528060228152602001614dcc6022913982600a815181106114da576114da61364e565b6020026020010181905250604051806060016040528060228152602001614a0e6022913982600b815181106115115761151161364e565b60200260200101819052506040518060600160405280602281526020016140696022913982600c815181106115485761154861364e565b602002602001018190525060405180606001604052806022815260200161487c6022913982600d8151811061157f5761157f61364e565b6020026020010181905250604051806060016040528060228152602001613b076022913982600e815181106115b6576115b661364e565b6020026020010181905250600060405180610120016040528060e58152602001613f8460e5913990506106a7838383886106b0565b60408051600d8082526101c0820190925260609160009190816020015b6060815260200190600190039081611608579050509050600060405180608001604052806047815260200161440d604791399050604051806060016040528060228152602001614b9e60229139826000815181106116685761166861364e565b602002602001018190525060405180606001604052806022815260200161565f602291398260018151811061169f5761169f61364e565b6020026020010181905250604051806060016040528060228152602001613ac360229139826002815181106116d6576116d661364e565b60200260200101819052506040518060600160405280602281526020016146dc602291398260038151811061170d5761170d61364e565b6020026020010181905250604051806060016040528060228152602001613b4b60229139826004815181106117445761174461364e565b602002602001018190525060405180606001604052806022815260200161435b602291398260058151811061177b5761177b61364e565b6020026020010181905250604051806060016040528060228152602001614a3060229139826006815181106117b2576117b261364e565b6020026020010181905250604051806060016040528060228152602001614b7c60229139826007815181106117e9576117e961364e565b6020026020010181905250604051806060016040528060228152602001614b3960229139826008815181106118205761182061364e565b602002602001018190525060405180606001604052806022815260200161427160229139826009815181106118575761185761364e565b602002602001018190525060405180606001604052806022815260200161424f6022913982600a8151811061188e5761188e61364e565b602002602001018190525060405180606001604052806022815260200161456a6022913982600b815181106118c5576118c561364e565b6020026020010181905250604051806060016040528060228152602001613ae56022913982600c815181106118fc576118fc61364e565b6020026020010181905250600060405180610100016040528060c681526020016145b160c6913990506106a7838383886106b0565b60408051600680825260e0820190925260609160009190816020015b606081526020019060019003908161194d57905050905060006040518060800160405280604681526020016137d56046913990506040518060600160405280602a8152602001614e78602a9139826000815181106119ad576119ad61364e565b60200260200101819052506040518060600160405280602a815260200161482d602a9139826001815181106119e4576119e461364e565b60200260200101819052506040518060600160405280602a8152602001613883602a913982600281518110611a1b57611a1b61364e565b60200260200101819052506040518060600160405280602a8152602001615110602a913982600381518110611a5257611a5261364e565b60200260200101819052506040518060600160405280602a81526020016140ad602a913982600481518110611a8957611a8961364e565b60200260200101819052506040518060600160405280602a8152602001613c41602a913982600581518110611ac057611ac061364e565b602002602001018190525060006040518060c00160405280608281526020016138ce6082913990506106a7838383886106b0565b604080516009808252610140820190925260609160009190816020015b6060815260200190600190039081611b11579050509050600060405180608001604052806048815260200161576f6048913990506040518060600160405280602281526020016156e86022913982600081518110611b7157611b7161364e565b60200260200101819052506040518060600160405280602281526020016149ec6022913982600181518110611ba857611ba861364e565b602002602001018190525060405180606001604052806022815260200161574d6022913982600281518110611bdf57611bdf61364e565b6020026020010181905250604051806060016040528060228152602001613b926022913982600381518110611c1657611c1661364e565b60200260200101819052506040518060600160405280602181526020016142f06021913982600481518110611c4d57611c4d61364e565b6020026020010181905250604051806060016040528060218152602001614d176021913982600581518110611c8457611c8461364e565b602002602001018190525060405180606001604052806021815260200161449c6021913982600681518110611cbb57611cbb61364e565b60200260200101819052506040518060600160405280602181526020016147676021913982600781518110611cf257611cf261364e565b6020026020010181905250604051806060016040528060218152602001613aa26021913982600881518110611d2957611d2961364e565b602002602001018190525060006040518060e0016040528060aa8152602001613c6b60aa913990506106a7838383886106b0565b60408051600c8082526101a0820190925260609160009190816020015b6060815260200190600190039081611d7a57905050905060006040518060600160405280603c8152602001614293603c913990506040518060400160405280601881526020017f3c636972636c652063783d222d31332220723d2232222f3e000000000000000081525082600081518110611df757611df761364e565b60200260200101819052506040518060400160405280601e81526020017f3c636972636c652063783d223232222063793d22362220723d2232222f3e000081525082600181518110611e4b57611e4b61364e565b60200260200101819052506040518060400160405280601e81526020017f3c636972636c652063783d223334222063793d22312220723d2232222f3e000081525082600281518110611e9f57611e9f61364e565b60200260200101819052506040518060400160405280601f81526020017f3c636972636c652063783d223531222063793d222d372220723d2232222f3e0081525082600381518110611ef357611ef361364e565b60200260200101819052506040518060400160405280602081526020017f3c636972636c652063783d222d3231222063793d2233352220723d2232222f3e81525082600481518110611f4757611f4761364e565b60200260200101819052506040518060400160405280601f81526020017f3c636972636c652063783d223230222063793d2233382220723d2232222f3e0081525082600581518110611f9b57611f9b61364e565b60200260200101819052506040518060400160405280601f81526020017f3c636972636c652063783d223335222063793d2235302220723d2232222f3e0081525082600681518110611fef57611fef61364e565b60200260200101819052506040518060400160405280601f81526020017f3c636972636c652063783d223534222063793d2236302220723d2232222f3e00815250826007815181106120435761204361364e565b60200260200101819052506040518060400160405280601f81526020017f3c636972636c652063783d223730222063793d2235302220723d2232222f3e00815250826008815181106120975761209761364e565b60200260200101819052506040518060400160405280601f81526020017f3c636972636c652063783d223331222063793d2231382220723d2232222f3e00815250826009815181106120eb576120eb61364e565b60200260200101819052506040518060400160405280601f81526020017f3c636972636c652063783d223534222063793d2231332220723d2232222f3e0081525082600a8151811061213f5761213f61364e565b60200260200101819052506040518060400160405280601f81526020017f3c636972636c652063783d223636222063793d2231322220723d2232222f3e0081525082600b815181106121935761219361364e565b602002602001018190525060006040518060c0016040528060838152602001614ab66083913990506106a7838383886106b0565b60408051600d8082526101c0820190925260609160009190816020015b60608152602001906001900390816121e4579050509050600060405180608001604052806044815260200161503f60449139905060405180606001604052806022815260200161522a60229139826000815181106122445761224461364e565b6020026020010181905250604051806060016040528060228152602001615180602291398260018151811061227b5761227b61364e565b6020026020010181905250604051806060016040528060228152602001614be160229139826002815181106122b2576122b261364e565b6020026020010181905250604051806060016040528060228152602001614c6b60229139826003815181106122e9576122e961364e565b6020026020010181905250604051806060016040528060228152602001613bd960229139826004815181106123205761232061364e565b6020026020010181905250604051806060016040528060228152602001613d3760229139826005815181106123575761235761364e565b6020026020010181905250604051806060016040528060228152602001613861602291398260068151811061238e5761238e61364e565b6020026020010181905250604051806060016040528060218152602001614ea260219139826007815181106123c5576123c561364e565b60200260200101819052506040518060600160405280602281526020016146ba60229139826008815181106123fc576123fc61364e565b6020026020010181905250604051806060016040528060218152602001614a7460219139826009815181106124335761243361364e565b60200260200101819052506040518060600160405280602181526020016145496021913982600a8151811061246a5761246a61364e565b60200260200101819052506040518060600160405280602281526020016137246022913982600b815181106124a1576124a161364e565b60200260200101819052506040518060600160405280602281526020016141216022913982600c815181106124d8576124d861364e565b6020026020010181905250600060405180610100016040528060d08152602001614f4d60d0913990506106a7838383886106b0565b60408051600b808252610180820190925260609160009190816020015b606081526020019060019003908161252a579050509050600060405180608001604052806048815260200161445460489139905060405180606001604052806021815260200161526e602191398260008151811061258a5761258a61364e565b6020026020010181905250604051806060016040528060218152602001614ee560219139826001815181106125c1576125c161364e565b602002602001018190525060405180606001604052806021815260200161469960219139826002815181106125f8576125f861364e565b6020026020010181905250604051806060016040528060218152602001614143602191398260038151811061262f5761262f61364e565b602002602001018190525060405180606001604052806021815260200161397160219139826004815181106126665761266661364e565b602002602001018190525060405180606001604052806021815260200161513a602191398260058151811061269d5761269d61364e565b6020026020010181905250604051806060016040528060218152602001614e3260219139826006815181106126d4576126d461364e565b6020026020010181905250604051806060016040528060218152602001614bc0602191398260078151811061270b5761270b61364e565b602002602001018190525060405180606001604052806021815260200161570a60219139826008815181106127425761274261364e565b60200260200101819052506040518060600160405280602181526020016138ad60219139826009815181106127795761277961364e565b60200260200101819052506040518060600160405280602181526020016139506021913982600a815181106127b0576127b061364e565b602002602001018190525060006040518060e0016040528060b78152602001613e3860b7913990506106a7838383886106b0565b60408051600c8082526101a0820190925260609160009190816020015b606081526020019060019003908161280157905050905060006040518060800160405280604881526020016149826048913990506040518060600160405280602281526020016151c460229139826000815181106128615761286161364e565b602002602001018190525060405180606001604052806022815260200161437d60229139826001815181106128985761289861364e565b6020026020010181905250604051806060016040528060228152602001613f6260229139826002815181106128cf576128cf61364e565b6020026020010181905250604051806060016040528060228152602001614dee60229139826003815181106129065761290661364e565b60200260200101819052506040518060600160405280602281526020016146fe602291398260048151811061293d5761293d61364e565b60200260200101819052506040518060600160405280602281526020016150ee60229139826005815181106129745761297461364e565b60200260200101819052506040518060600160405280602281526020016151e660229139826006815181106129ab576129ab61364e565b602002602001018190525060405180606001604052806022815260200161408b60229139826007815181106129e2576129e261364e565b60200260200101819052506040518060600160405280602281526020016139b76022913982600881518110612a1957612a1961364e565b602002602001018190525060405180606001604052806022815260200161501d6022913982600981518110612a5057612a5061364e565b6020026020010181905250604051806060016040528060228152602001613b296022913982600a81518110612a8757612a8761364e565b6020026020010181905250604051806060016040528060228152602001614cf56022913982600b81518110612abe57612abe61364e565b6020026020010181905250600060405180610120016040528060e4815260200161489e60e4913990506106a7838383886106b0565b604080516007808252610100820190925260609160009190816020015b6060815260200190600190039081612b1057905050905060006040518060800160405280604981526020016143c46049913990506040518060400160405280601f81526020017f3c636972636c652063783d2230222063793d2230302220723d223222202f3e0081525082600081518110612b8d57612b8d61364e565b60200260200101819052506040518060400160405280602081526020017f3c636972636c652063783d222d36222063793d2232302220723d223222202f3e81525082600181518110612be157612be161364e565b60200260200101819052506040518060400160405280602081526020017f3c636972636c652063783d222d39222063793d2234302220723d223222202f3e81525082600281518110612c3557612c3561364e565b60200260200101819052506040518060400160405280602081526020017f3c636972636c652063783d222d33222063793d2236302220723d223222202f3e81525082600381518110612c8957612c8961364e565b60200260200101819052506040518060400160405280602081526020017f3c636972636c652063783d222d3138222063793d2237302220723d2232222f3e81525082600481518110612cdd57612cdd61364e565b60200260200101819052506040518060400160405280602081526020017f3c636972636c652063783d222d3132222063793d2239322220723d2232222f3e81525082600581518110612d3157612d3161364e565b60200260200101819052506040518060400160405280601f81526020017f3c636972636c652063783d2238222063793d2239312220723d223222202f3e0081525082600681518110612d8557612d8561364e565b602002602001018190525060006040518060a00160405280607781526020016139d96077913990506106a7838383886106b0565b6060600060405180608001604052806048815260200161376b604891396040805160148082526102a0820190925291925060009190816020015b6060815260200190600190039081612df3579050509050604051806060016040528060218152602001614cd46021913981600081518110612e3657612e3661364e565b60200260200101819052506040518060600160405280602181526020016152d56021913981600181518110612e6d57612e6d61364e565b6020026020010181905250604051806060016040528060218152602001614b5b6021913981600281518110612ea457612ea461364e565b60200260200101819052506040518060600160405280602181526020016152f66021913981600381518110612edb57612edb61364e565b6020026020010181905250604051806060016040528060218152602001614a956021913981600481518110612f1257612f1261364e565b60200260200101819052506040518060600160405280602181526020016142cf6021913981600581518110612f4957612f4961364e565b6020026020010181905250604051806060016040528060218152602001613c206021913981600681518110612f8057612f8061364e565b602002602001018190525060405180606001604052806021815260200161528f6021913981600781518110612fb757612fb761364e565b6020026020010181905250604051806060016040528060218152602001614c036021913981600881518110612fee57612fee61364e565b60200260200101819052506040518060400160405280602081526020017f3c636972636c6520723d2232222063783d223937222063793d22343630222f3e815250816009815181106130425761304261364e565b60200260200101819052506040518060400160405280602081526020017f3c636972636c6520723d2232222063783d223937222063793d22343231222f3e81525081600a815181106130965761309661364e565b60200260200101819052506040518060400160405280602081526020017f3c636972636c6520723d2232222063783d223931222063793d22353139222f3e81525081600b815181106130ea576130ea61364e565b60200260200101819052506040518060400160405280602081526020017f3c636972636c6520723d2232222063783d223931222063793d22343533222f3e81525081600c8151811061313e5761313e61364e565b60200260200101819052506040518060400160405280602081526020017f3c636972636c6520723d2232222063783d223930222063793d22343236222f3e81525081600d815181106131925761319261364e565b60200260200101819052506040518060400160405280602081526020017f3c636972636c6520723d2232222063783d223838222063793d22353037222f3e81525081600e815181106131e6576131e661364e565b60200260200101819052506040518060400160405280602081526020017f3c636972636c6520723d2232222063783d223831222063793d22343234222f3e81525081600f8151811061323a5761323a61364e565b60200260200101819052506040518060400160405280602081526020017f3c636972636c6520723d2232222063783d223731222063793d22353135222f3e8152508160108151811061328e5761328e61364e565b60200260200101819052506040518060400160405280602081526020017f3c636972636c6520723d2232222063783d223636222063793d22343135222f3e815250816011815181106132e2576132e261364e565b60200260200101819052506040518060400160405280602081526020017f3c636972636c6520723d2232222063783d223632222063793d22343436222f3e815250816012815181106133365761333661364e565b60200260200101819052506040518060400160405280602081526020017f3c636972636c6520723d2232222063783d223432222063793d22343638222f3e8152508160138151811061338a5761338a61364e565b60200260200101819052506000604051806101800160405280610141815260200161533c610141913990506106a7828483886106b0565b803560ff811681146133d257600080fd5b919050565b6000602082840312156133e957600080fd5b6133f2826133c1565b9392505050565b60005b838110156134145781810151838201526020016133fc565b50506000910152565b602081526000825180602084015261343c8160408501602087016133f9565b601f01601f19169190910160400192915050565b634e487b7160e01b600052604160045260246000fd5b604051601f8201601f1916810167ffffffffffffffff8111828210171561348f5761348f613450565b604052919050565b600082601f8301126134a857600080fd5b813567ffffffffffffffff8111156134c2576134c2613450565b6134d5601f8201601f1916602001613466565b8181528460208386010111156134ea57600080fd5b816020850160208301376000918101602001919091529392505050565b6000806000806080858703121561351d57600080fd5b843567ffffffffffffffff8082111561353557600080fd5b818701915087601f83011261354957600080fd5b813560208282111561355d5761355d613450565b8160051b61356c828201613466565b928352848101820192828101908c85111561358657600080fd5b83870192505b848310156135c2578235868111156135a45760008081fd5b6135b28e86838b0101613497565b835250918301919083019061358c565b99505050880135925050808211156135d957600080fd5b6135e588838901613497565b945060408701359150808211156135fb57600080fd5b5061360887828801613497565b925050613617606086016133c1565b905092959194509250565b6000806040838503121561363557600080fd5b82359150613645602084016133c1565b90509250929050565b634e487b7160e01b600052603260045260246000fd5b600083516136768184602088016133f9565b83519083019061368a8183602088016133f9565b01949350505050565b600060ff821660ff81036136b757634e487b7160e01b600052601160045260246000fd5b60010192915050565b600082516136d28184602087016133f9565b7f3c2f673e00000000000000000000000000000000000000000000000000000000920191825250600401919050565b60008261371e57634e487b7160e01b600052601260045260246000fd5b50069056fe3c636972636c6520723d2232222063783d22323937222063793d2231313620222f3e3c636972636c6520723d22322e3836222063783d22343235222063793d2235343120222f3e3c67207472616e73666f726d3d227472616e736c617465283233342c2d323930292c20726f74617465283029222066696c6c3d222366666622206f7061636974793d22302e38223e3c636972636c6520723d2232222063783d22353133222063793d2232353620222f3e3c67207472616e73666f726d3d227472616e736c617465283133342c202d373029207363616c65283329222066696c6c3d222366666622206f7061636974793d22302e38223e3c67207472616e73666f726d3d227472616e736c61746528342c2d313230292c20726f74617465283029222066696c6c3d222366666622206f7061636974793d22302e38223e3c636972636c6520723d2232222063783d22333334222063793d2231333220222f3e3c636972636c6520723d22302e3636222063783d2236322e303030222063793d2239332e303030222f3e3c636972636c6520723d2232222063783d22313931222063793d22353131222f3e3c7061746820643d226d3837203736204c203732203736204c203539203830204c203439203739204d203632203933204c203539203830204c20363120363422207374726f6b652d77696474683d22302e333333222066696c6c3d226e6f6e6522207374726f6b653d222366666622206f7061636974793d222e35222f3e3c2f673e3c636972636c6520723d2232222063783d22313839222063793d22353139222f3e3c636972636c6520723d2232222063783d22323331222063793d22343134222f3e3c636972636c6520723d22322e3836222063783d22323037222063793d2231333520222f3e3c636972636c6520723d2232222063783d22323231222063793d2233343220222f3e3c7061746820643d226d2030203030204c202d36203230204c202d39203430204c202d33203630204c202d3138203730204c202d3132203932204c2038203931204c202d33203630222066696c6c3d226e6f6e6522207374726f6b653d22776869746522206f7061636974793d222e35222f3e3c2f673e3c67207472616e73666f726d3d227472616e736c6174652831342c2d313730292c20726f74617465283029207363616c6528302e3729222066696c6c3d222366666622206f7061636974793d22302e38223e3c636972636c6520723d2232222063783d223631222063793d2233343420222f3e3c636972636c6520723d2232222063783d22333534222063793d2235313720222f3e3c636972636c6520723d2232222063783d22333635222063793d2234373220222f3e3c636972636c6520723d2232222063783d22353133222063793d2232383120222f3e3c636972636c6520723d2232222063783d22313938222063793d2232343220222f3e3c636972636c6520723d2232222063783d22333339222063793d2234333520222f3e3c636972636c6520723d22322e3836222063783d22343832222063793d2235303220222f3e3c636972636c6520723d2232222063783d22313032222063793d2232363520222f3e3c636972636c6520723d22322e3836222063783d22323134222063793d2231323920222f3e3c636972636c6520723d2232222063783d22333539222063793d2231303920222f3e3c636972636c6520723d22322e3836222063783d22323033222063793d2231303020222f3e3c636972636c6520723d2232222063783d22313238222063793d22343431222f3e3c636972636c6520723d22302e3636222063783d2234392e303030222063793d2237392e303030222f3e3c7061746820643d226d3130382c323234204c2039342c20323236204c2039322c20323533204c203130322c20323635204c2031323020323634204c202031333620323736204c20383020333234204c203631203334344c20363420333037204c2031303220323635204d20383020333234204c203132302032363422207374726f6b653d222366666622206f7061636974793d222e35222066696c6c3d226e6f6e65222f3e3c2f673e3c636972636c6520723d2232222063783d22343931222063793d2231343320222f3e3c636972636c6520723d2232222063783d22333539222063793d2231363220222f3e3c636972636c6520723d2232222063783d22353133222063793d2232363820222f3e3c67207472616e73666f726d3d227472616e736c617465282d3132312c2d313230292c20726f74617465283029222066696c6c3d222366666622206f7061636974793d22302e38223e3c7061746820643d226d34393120313433204c203434332c20313233204c2034333720313132204c20343138203838204d2034343220313233204c203434302031353720202022207374726f6b653d222366666622206f7061636974793d222e35222066696c6c3d226e6f6e65222f3e3c2f673e3c7061746820643d224d203235342c20343932204c203234312c20343938204c203232312c20353130204c203230322c353134204c203138392c20353139204c203139312c20353131204c203230312c343935204c203231322c20343831204c203233322c20343234204c2032333120343134204d203233322c20343234204c203235332c2034383322207374726f6b653d222366666622206f7061636974793d222e35222066696c6c3d226e6f6e65222f3e3c2f673e3c67207472616e73666f726d3d227472616e736c617465283139342c3830292c20726f74617465283029207363616c6528302e3729222066696c6c3d222366666622206f7061636974793d22302e38223e3c636972636c6520723d2232222063783d22343735222063793d2232373420222f3e3c636972636c6520723d2232222063783d22323438222063793d2232373620222f3e3c7061746820643d226d3431392c20333034204c203431302c20333133204c203430352c20333230204c203431352c20333332204c203433352c20333333204c20203435322c20333238204c203435362c20333134204c203435382c20323936204c203437352c20323734204c203438312c20323638204c203438392c20323634204c203531332c20323536204c203531302c20323438204d203531332c20323536204c203531332c20323638204c203531332032383122207374726f6b653d222366666622206f7061636974793d222e35222066696c6c3d226e6f6e65222f3e3c2f673e3c636972636c6520723d2232222063783d22343130222063793d2233313320222f3e3c636972636c6520723d2232222063783d22323233222063793d2232383520222f3e3c636972636c6520723d22302e3636222063783d2235392e303030222063793d2238302e303030222f3e3c636972636c6520723d22322e3836222063783d22343438222063793d2234303120222f3e3c636972636c6520723d22322e3836222063783d22343635222063793d2235333920222f3e3c636972636c6520723d2232222063783d22323935222063793d2231303620222f3e3c636972636c6520723d2232222063783d22323332222063793d22343234222f3e3c636972636c6520723d2232222063783d22333631222063793d2232373220222f3e3c7061746820643d226d32363220313834204c2032353920313735204c2032323820313534204c2032313420313339204c2032313420313239204c2032313020313237204c2032313020313231204c2032303320313030204c20313834203637204d2032313420313339204c2032303720313335204c2032303120313331204c2031363420393322207374726f6b653d222366666622206f7061636974793d222e35222066696c6c3d226e6f6e6522207374726f6b652d77696474683d22312e3433222f3e3c2f673e3c636972636c6520723d2232222063783d22323932222063793d2234383420222f3e3c636972636c6520723d2232222063783d22333032222063793d2234383020222f3e3c67207472616e73666f726d3d227472616e736c617465283332322031353029222066696c6c3d222366666622206f7061636974793d22302e38223e3c636972636c6520723d2232222063783d22313332222063793d22343735222f3e3c636972636c6520723d2232222063783d223934222063793d2232323620222f3e3c636972636c6520723d22322e3836222063783d22343135222063793d2235353320222f3e3c636972636c6520723d22322e3836222063783d22323632222063793d2231383420222f3e3c636972636c6520723d2232222063783d22333335222063793d2234373620222f3e3c636972636c6520723d2232222063783d22323531222063793d2232323520222f3e3c636972636c6520723d22322e3836222063783d22343731222063793d2234303020222f3e3c67207472616e73666f726d3d227472616e736c617465283332302c313330292c20726f74617465282d333029222066696c6c3d222366666622206f7061636974793d22302e38223e3c67207472616e73666f726d3d227472616e736c617465282d362c2d333030292c20726f74617465283029222066696c6c3d222366666622206f7061636974793d22302e38223e3c67207472616e73666f726d3d227472616e736c617465283131342c2d333030292c20726f74617465283029222066696c6c3d222366666622206f7061636974793d22302e38223e3c636972636c6520723d2232222063783d223830222063793d2233323420222f3e3c636972636c6520723d22322e3836222063783d22343735222063793d2234383420222f3e3c636972636c6520723d22322e3836222063783d22313634222063793d22393320222f3e3c636972636c6520723d2232222063783d22343138222063793d22383820222f3e3c636972636c6520723d2232222063783d22333335222063793d2233323120222f3e3c636972636c6520723d2232222063783d22333036222063793d22383620222f3e3c636972636c6520723d2232222063783d22323839222063793d2234393220222f3e3c636972636c6520723d22322e3836222063783d22343734222063793d2234313720222f3e3c7061746820643d224d3337382c20343036204c203333392c20343335204c203330322c20343539204c203330322c20343830204c2032393220343834204c203238392c20343932204c2033313920353334204c203332352c353135204c203334372c353132204c203335342c353137204c203337322c353330204d203330322c343539204c203333352c343736204c2033363520343732222066696c6c3d226e6f6e6522207374726f6b653d222366666622206f7061636974793d222e35222f3e3c2f673e3c636972636c6520723d2232222063783d22333335222063793d2233323920222f3e3c636972636c6520723d2232222063783d22323431222063793d22343938222f3e3c636972636c6520723d2232222063783d22333139222063793d2231323520222f3e3c636972636c6520723d2232222063783d22333437222063793d2235313220222f3e3c636972636c6520723d2232222063783d22323431222063793d2233323720222f3e3c67207472616e73666f726d3d227472616e736c617465282d3130362c3530292c20726f74617465283029222066696c6c3d222366666622206f7061636974793d22302e38223e3c636972636c6520723d2232222063783d223634222063793d2233303720222f3e3c7061746820643d224d203330392c20323837204c203331382c20323831204c203332342c20323736204c203333332c20323532204c203336312c203237322c203335362c20333037204c20203333352c20333231204c203333352c20333239204d203335362c20333037204c203333332c203235322022207374726f6b653d222366666622206f7061636974793d222e35222066696c6c3d226e6f6e65222f3e3c2f673e3c636972636c6520723d22302e3636222063783d2237322e303030222063793d2237362e303030222f3e3c636972636c6520723d22322e3836222063783d22343935222063793d2235343120222f3e3c636972636c6520723d2232222063783d22343035222063793d2233323020222f3e3c7061746820643d226d3232312c20333432204c203233312c20333234204c203234312c20333237204c203236312c20323936204c203234382c20323736204c20203234362c20323434204c203235312c20323235204d203234362c20323434204c203232352c20323439204c203139382c20323432204d203232352c20323439204c203232332c20323835204c203236312c20323936204d203232332c20323835204c2032303720323939204c203138382033333022207374726f6b653d222366666622206f7061636974793d222e35222066696c6c3d226e6f6e65222f3e3c2f673e3c67207472616e73666f726d3d227472616e736c617465283131342c2d313134292c20726f74617465283029222066696c6c3d222366666622206f7061636974793d22302e38223e3c636972636c6520723d2232222063783d22333333222063793d2232353220222f3e3c636972636c6520723d2232222063783d22313230222063793d2232363420222f3e3c636972636c6520723d2232222063783d22343135222063793d2233333220222f3e3c636972636c6520723d2232222063783d22333235222063793d2235313520222f3e3c636972636c6520723d2232222063783d22343536222063793d2233313420222f3e3c636972636c6520723d2232222063783d22333135222063793d22383720222f3e3c636972636c6520723d2232222063783d22313334222063793d22343537222f3e3c7061746820643d224d37302035302035342036302033352035302032302033386c2d34312d3320382d333520333520362d322033326d34362d32362d313220312d323320352d392d31322031322d352031372d38222066696c6c3d226e6f6e6522207374726f6b653d222366666622206f7061636974793d222e35222f3e3c2f673e3c636972636c6520723d2232222063783d22333032222063793d2234353920222f3e3c636972636c6520723d2232222063783d22313339222063793d22343832222f3e3c636972636c6520723d2232222063783d22333139222063793d2235333420222f3e3c636972636c6520723d2232222063783d22333738222063793d2234303620222f3e3c636972636c6520723d2232222063783d22323032222063793d22353134222f3e3c636972636c6520723d2232222063783d22333734222063793d2231323820222f3e3c636972636c6520723d2232222063783d22313030222063793d22343436222f3e3c67207472616e73666f726d3d227472616e736c617465283331362c313333292c20726f74617465283029222066696c6c3d222366666622206f7061636974793d22302e38223e3c636972636c6520723d2232222063783d22333635222063793d2231343420222f3e3c636972636c6520723d2232222063783d22343831222063793d2232363820222f3e3c636972636c6520723d22322e3836222063783d22343435222063793d2234313320222f3e3c636972636c6520723d2232222063783d22313639222063793d22343437222f3e3c636972636c6520723d2232222063783d22313838222063793d2233333020222f3e3c636972636c6520723d2232222063783d223932222063793d2232353320222f3e3c636972636c6520723d22322e3836222063783d22343534222063793d2234323520222f3e3c636972636c6520723d22322e3836222063783d22343539222063793d2234343520222f3e3c636972636c6520723d22322e3836222063783d22323031222063793d2231333120222f3e3c636972636c6520723d22322e3836222063783d22343638222063793d2234323720222f3e3c636972636c6520723d2232222063783d22343139222063793d2233303420222f3e3c636972636c6520723d2232222063783d22323436222063793d2232343420222f3e3c636972636c6520723d2232222063783d22343532222063793d2233323820222f3e3c636972636c6520723d2232222063783d22323132222063793d22343831222f3e3c636972636c6520723d22322e3836222063783d22323238222063793d2231353420222f3e3c636972636c6520723d22302e3636222063783d2238372e303030222063793d2237362e303030222f3e3c636972636c6520723d2232222063783d22333234222063793d22383920222f3e3c636972636c6520723d2232222063783d22343839222063793d2232363420222f3e3c636972636c6520723d2232222063783d22323533222063793d22343833222f3e3c636972636c6520723d2232222063783d22333536222063793d2233303720222f3e3c636972636c6520723d22322e3836222063783d22323130222063793d2231323720222f3e3c7061746820643d226d333836202c20313136204c203337372c20313135204c203337342c20313238204c203336352c20313434204c203333342c20313332204c20203331392c20313235204c2032393720313136204c2032393520313036204c20333036203836204c20333135203837204c20333234203839204c2033353920313039204c2033373720313135204d2033363520313434204c203335392031363222207374726f6b653d222366666622206f7061636974793d222e35222066696c6c3d226e6f6e65222f3e3c2f673e3c636972636c6520723d2232222063783d22323037222063793d2232393920222f3e3c67207472616e73666f726d3d227472616e736c61746528342c3530292c20726f74617465283029222066696c6c3d222366666622206f7061636974793d22302e38223e3c636972636c6520723d2232222063783d22343337222063793d2231313220222f3e3c636972636c6520723d22322e3836222063783d22313834222063793d22363720222f3e3c636972636c6520723d22322e3836222063783d22323539222063793d2231373520222f3e3c636972636c6520723d2232222063783d22323331222063793d2233323420222f3e3c636972636c6520723d22302e3636222063783d2236312e303030222063793d2236342e303030222f3e3c636972636c6520723d2232222063783d22323231222063793d22353130222f3e3c636972636c6520723d22322e3836222063783d22343537222063793d2233393520222f3e3c636972636c6520723d2232222063783d22333737222063793d2231313520222f3e3c636972636c6520723d2232222063783d22343430222063793d2231353720222f3e3c636972636c6520723d2232222063783d22323631222063793d2232393620222f3e3c636972636c6520723d2232222063783d22323235222063793d2232343920222f3e3c636972636c6520723d2232222063783d22343433222063793d2231323320222f3e3c636972636c6520723d2232222063783d22333836222063793d2231313620222f3e3c636972636c6520723d2232222063783d22333234222063793d2232373620222f3e3c636972636c6520723d2232222063783d22323534222063793d22343932222f3e3c636972636c6520723d2232222063783d22313130222063793d22343439222f3e3c636972636c6520723d22322e3836222063783d22353032222063793d2235323620222f3e3c636972636c6520723d2232222063783d22313438222063793d22343632222f3e3c636972636c6520723d2232222063783d22313336222063793d22343139222f3e3c636972636c6520723d22322e3836222063783d22353233222063793d2235343720222f3e3c7061746820643d226d3136392c20343437204c203134382c20343632204c203133342c343537204c203133322c20343735204c203133392c20343832204d203133342c343537204c203132382c343431204c203133362c343139204d203132382c20343431204c203131302c20343439204c203130302c343436204c2039302c343236204c2039372c343231204d2039302c343236204c2038312c343234204c2036362c343135204d203131302c20343439204c2039372c20343630204c2039312c20343533204c203130302c343436204d2039312c343533204c2036322c20343436204c2034322c20343638204c2037312c20353135204c2038382c353037204d2037312c353135204c2039312c35313922207374726f6b653d222366666622206f7061636974793d222e35222066696c6c3d226e6f6e65222f3e3c2f673e3c636972636c6520723d2232222063783d22343335222063793d2233333320222f3e3c7061746820643d226d3430302c20353434204c203431352c20353533204c203432352c353431204c3436352c20353339204c203439352c20353431204c203532332c20353437204c203530322c20353236204c203438322c20353032204c203437352c20343834204c203435392c20343435204c203435342c20343235204c203434352c20343133204c203434382c20343031204c203435372c20333935204c203437312c20343030204c203437342c20343137204c203436382c20343237204c20343534203432352022207374726f6b653d222366666622206f7061636974793d222e35222066696c6c3d226e6f6e6522207374726f6b652d77696474683d22312e3433222f3e3c2f673e3c636972636c6520723d22322e3836222063783d22323134222063793d2231333920222f3e3c636972636c6520723d2232222063783d22353130222063793d2232343820222f3e3c636972636c6520723d22322e3836222063783d22343030222063793d2235343420222f3e3c636972636c6520723d2232222063783d22343538222063793d2232393620222f3e3c636972636c6520723d22322e3836222063783d22323130222063793d2231323120222f3e3c636972636c6520723d2232222063783d22333732222063793d2235333020222f3e3c7061746820643d226d202d3330203630204c202d3130203435204c20352030204c203535203130204c203830203330204c203835203435222066696c6c3d226e6f6e6522207374726f6b653d22776869746522206f7061636974793d222e35222f3e3c2f673e3c636972636c6520723d2232222063783d22313336222063793d2232373620222f3e3c636972636c6520723d2232222063783d22323031222063793d22343935222f3e3c636972636c6520723d2232222063783d22333039222063793d2232383720222f3e3c636972636c6520723d2232222063783d22313038222063793d2232323420222f3e3c67207472616e73666f726d3d227472616e736c617465283235342c2d313134292c20726f74617465283029222066696c6c3d222366666622206f7061636974793d22302e38223e3c636972636c6520723d2232222063783d22333138222063793d2232383120222f3ea2646970667358221220264cfb79b826a93dc87f92152f978edc22782358fda40597ca61adde05e3dc2a64736f6c63430008120033",
  "devdoc": {
    "kind": "dev",
    "methods": {},
    "version": 1
  },
  "userdoc": {
    "kind": "user",
    "methods": {},
    "version": 1
  },
  "storageLayout": {
    "storage": [],
    "types": null
  }
}