{
  "address": "0x04D426eBa09a9AE6001F836A4cC84c172B6816f1",
  "abi": [
    {
      "inputs": [
        {
          "internalType": "uint8",
          "name": "show",
          "type": "uint8"
        }
      ],
      "name": "Aquarius",
      "outputs": [
        {
          "internalType": "string",
          "name": "",
          "type": "string"
        },
        {
          "internalType": "uint8",
          "name": "leftovers",
          "type": "uint8"
        }
      ],
      "stateMutability": "view",
      "type": "function"
    },
    {
      "inputs": [
        {
          "internalType": "uint8",
          "name": "show",
          "type": "uint8"
        }
      ],
      "name": "Aries",
      "outputs": [
        {
          "internalType": "string",
          "name": "",
          "type": "string"
        },
        {
          "internalType": "uint8",
          "name": "leftovers",
          "type": "uint8"
        }
      ],
      "stateMutability": "view",
      "type": "function"
    },
    {
      "inputs": [
        {
          "internalType": "uint8",
          "name": "show",
          "type": "uint8"
        }
      ],
      "name": "Cancer",
      "outputs": [
        {
          "internalType": "string",
          "name": "",
          "type": "string"
        },
        {
          "internalType": "uint8",
          "name": "leftovers",
          "type": "uint8"
        }
      ],
      "stateMutability": "view",
      "type": "function"
    },
    {
      "inputs": [
        {
          "internalType": "uint8",
          "name": "show",
          "type": "uint8"
        }
      ],
      "name": "Capricorn",
      "outputs": [
        {
          "internalType": "string",
          "name": "",
          "type": "string"
        },
        {
          "internalType": "uint8",
          "name": "leftovers",
          "type": "uint8"
        }
      ],
      "stateMutability": "view",
      "type": "function"
    },
    {
      "inputs": [
        {
          "internalType": "uint8",
          "name": "show",
          "type": "uint8"
        }
      ],
      "name": "Cygnus",
      "outputs": [
        {
          "internalType": "string",
          "name": "",
          "type": "string"
        },
        {
          "internalType": "uint8",
          "name": "leftovers",
          "type": "uint8"
        }
      ],
      "stateMutability": "view",
      "type": "function"
    },
    {
      "inputs": [
        {
          "internalType": "uint8",
          "name": "show",
          "type": "uint8"
        }
      ],
      "name": "Gemini",
      "outputs": [
        {
          "internalType": "string",
          "name": "",
          "type": "string"
        },
        {
          "internalType": "uint8",
          "name": "leftovers",
          "type": "uint8"
        }
      ],
      "stateMutability": "view",
      "type": "function"
    },
    {
      "inputs": [
        {
          "internalType": "uint8",
          "name": "show",
          "type": "uint8"
        }
      ],
      "name": "Leo",
      "outputs": [
        {
          "internalType": "string",
          "name": "",
          "type": "string"
        },
        {
          "internalType": "uint8",
          "name": "leftovers",
          "type": "uint8"
        }
      ],
      "stateMutability": "view",
      "type": "function"
    },
    {
      "inputs": [
        {
          "internalType": "uint8",
          "name": "show",
          "type": "uint8"
        }
      ],
      "name": "Libra",
      "outputs": [
        {
          "internalType": "string",
          "name": "",
          "type": "string"
        },
        {
          "internalType": "uint8",
          "name": "leftovers",
          "type": "uint8"
        }
      ],
      "stateMutability": "view",
      "type": "function"
    },
    {
      "inputs": [
        {
          "internalType": "uint8",
          "name": "show",
          "type": "uint8"
        }
      ],
      "name": "Pegasus",
      "outputs": [
        {
          "internalType": "string",
          "name": "",
          "type": "string"
        },
        {
          "internalType": "uint8",
          "name": "leftovers",
          "type": "uint8"
        }
      ],
      "stateMutability": "view",
      "type": "function"
    },
    {
      "inputs": [
        {
          "internalType": "uint8",
          "name": "show",
          "type": "uint8"
        }
      ],
      "name": "Pisces",
      "outputs": [
        {
          "internalType": "string",
          "name": "",
          "type": "string"
        },
        {
          "internalType": "uint8",
          "name": "leftovers",
          "type": "uint8"
        }
      ],
      "stateMutability": "view",
      "type": "function"
    },
    {
      "inputs": [
        {
          "internalType": "uint8",
          "name": "show",
          "type": "uint8"
        }
      ],
      "name": "Sagittarius",
      "outputs": [
        {
          "internalType": "string",
          "name": "",
          "type": "string"
        },
        {
          "internalType": "uint8",
          "name": "leftovers",
          "type": "uint8"
        }
      ],
      "stateMutability": "view",
      "type": "function"
    },
    {
      "inputs": [
        {
          "internalType": "uint8",
          "name": "show",
          "type": "uint8"
        }
      ],
      "name": "Scorpio",
      "outputs": [
        {
          "internalType": "string",
          "name": "",
          "type": "string"
        },
        {
          "internalType": "uint8",
          "name": "leftovers",
          "type": "uint8"
        }
      ],
      "stateMutability": "view",
      "type": "function"
    },
    {
      "inputs": [
        {
          "internalType": "uint8",
          "name": "show",
          "type": "uint8"
        }
      ],
      "name": "Taurus",
      "outputs": [
        {
          "internalType": "string",
          "name": "",
          "type": "string"
        },
        {
          "internalType": "uint8",
          "name": "leftovers",
          "type": "uint8"
        }
      ],
      "stateMutability": "view",
      "type": "function"
    },
    {
      "inputs": [
        {
          "internalType": "uint8",
          "name": "show",
          "type": "uint8"
        }
      ],
      "name": "UrsaMinor",
      "outputs": [
        {
          "internalType": "string",
          "name": "",
          "type": "string"
        },
        {
          "internalType": "uint8",
          "name": "leftovers",
          "type": "uint8"
        }
      ],
      "stateMutability": "view",
      "type": "function"
    },
    {
      "inputs": [
        {
          "internalType": "uint8",
          "name": "show",
          "type": "uint8"
        }
      ],
      "name": "Virgo",
      "outputs": [
        {
          "internalType": "string",
          "name": "",
          "type": "string"
        },
        {
          "internalType": "uint8",
          "name": "leftovers",
          "type": "uint8"
        }
      ],
      "stateMutability": "view",
      "type": "function"
    },
    {
      "inputs": [
        {
          "internalType": "string[]",
          "name": "stars",
          "type": "string[]"
        },
        {
          "internalType": "string",
          "name": "open",
          "type": "string"
        },
        {
          "internalType": "string",
          "name": "close",
          "type": "string"
        },
        {
          "internalType": "uint8",
          "name": "show",
          "type": "uint8"
        }
      ],
      "name": "buildStar",
      "outputs": [
        {
          "internalType": "string",
          "name": "",
          "type": "string"
        },
        {
          "internalType": "uint8",
          "name": "leftovers",
          "type": "uint8"
        }
      ],
      "stateMutability": "view",
      "type": "function"
    },
    {
      "inputs": [
        {
          "internalType": "uint16",
          "name": "seed",
          "type": "uint16"
        },
        {
          "internalType": "uint8",
          "name": "gazed",
          "type": "uint8"
        }
      ],
      "name": "getConstellation",
      "outputs": [
        {
          "internalType": "string",
          "name": "",
          "type": "string"
        },
        {
          "internalType": "uint8",
          "name": "leftovers",
          "type": "uint8"
        }
      ],
      "stateMutability": "view",
      "type": "function"
    }
  ],
  "transactionHash": "0xc96876895477fbc3963873cdd11e5ed2993b3b93ab90e323fdb085a501fac8b9",
  "args": [],
  "numDeployments": 4,
  "solcInputHash": "f9b3c116dc58e13de5f667727e870d82",
  "bytecode": "0x6159ee61003a600b82828239805160001a60731461002d57634e487b7160e01b600052600060045260246000fd5b30600052607381538281f3fe73000000000000000000000000000000000000000030146080604052600436106101255760003560e01c8063a8018237116100bc578063d09c71af1161008b578063dc736b0811610070578063dc736b081461024b578063e4b45f1f1461025e578063ebd357501461027157600080fd5b8063d09c71af14610225578063d771dc691461023857600080fd5b8063a8018237146101d9578063a88bec5b146101ec578063ab5fe186146101ff578063b8b670371461021257600080fd5b806366c4a874116100f857806366c4a8741461018d5780637e9e4a09146101a05780638111a053146101b3578063929a5eb7146101c657600080fd5b80632eab20f71461012a578063380768a1146101545780635a9ff6f214610167578063668016061461017a575b600080fd5b61013d610138366004613562565b610284565b60405161014b9291906135d4565b60405180910390f35b61013d6101623660046136b0565b6106b5565b61013d610175366004613562565b61089b565b61013d610188366004613562565b610b0d565b61013d61019b366004613562565b610d40565b61013d6101ae366004613562565b611050565b61013d6101c1366004613562565b6111dd565b61013d6101d4366004613562565b611592565b61013d6101e7366004613562565b6118d9565b61013d6101fa366004613562565b611a9d565b61013d61020d366004613562565b611d07565b61013d610220366004613562565b612172565b61013d610233366004613562565b6124b9565b61013d610246366004613562565b612791565b61013d6102593660046137cb565b612aa1565b61013d61026c366004613562565b612be4565b61013d61027f366004613562565b612eab565b60408051601180825261024082019092526060916000918291816020015b60608152602001906001900390816102a25790505090506000604051806080016040528060528152602001613c306052913990506040518060600160405280602581526020016154f7602591398260008151811061030257610302613807565b6020026020010181905250604051806060016040528060258152602001615490602591398260018151811061033957610339613807565b6020026020010181905250604051806060016040528060258152602001614a37602591398260028151811061037057610370613807565b6020026020010181905250604051806060016040528060258152602001613d4d60259139826003815181106103a7576103a7613807565b602002602001018190525060405180606001604052806025815260200161469d60259139826004815181106103de576103de613807565b602002602001018190525060405180606001604052806025815260200161476c602591398260058151811061041557610415613807565b602002602001018190525060405180606001604052806025815260200161457f602591398260068151811061044c5761044c613807565b6020026020010181905250604051806060016040528060258152602001614f87602591398260078151811061048357610483613807565b60200260200101819052506040518060600160405280602581526020016142dc60259139826008815181106104ba576104ba613807565b6020026020010181905250604051806060016040528060258152602001614f3d60259139826009815181106104f1576104f1613807565b602002602001018190525060405180606001604052806025815260200161533b6025913982600a8151811061052857610528613807565b6020026020010181905250604051806060016040528060258152602001614f186025913982600b8151811061055f5761055f613807565b60200260200101819052506040518060600160405280602581526020016142b76025913982600c8151811061059657610596613807565b6020026020010181905250604051806060016040528060258152602001614e8f6025913982600d815181106105cd576105cd613807565b60200260200101819052506040518060600160405280602581526020016139266025913982600e8151811061060457610604613807565b60200260200101819052506040518060600160405280602581526020016144f16025913982600f8151811061063b5761063b613807565b60200260200101819052506040518060600160405280602581526020016157d3602591398260108151811061067257610672613807565b6020026020010181905250600060405180610140016040528061010d815260200161567f61010d913990506106a9838383896106b5565b94509450505050915091565b6060600080600090506107006040518060400160405280601581526020017f73686f772066726f6d206275696c64537461723a2000000000000000000000008152508560ff166134b4565b6107406040518060400160405280601d81526020017f7374617273206c656e6774682066726f6d206275696c64537461723a2000000081525088516134b4565b86518460ff16111561075f5786516107589085613833565b9050865193505b6107a16040518060400160405280601981526020017f6f766572666c6f772066726f6d206275696c64537461723a20000000000000008152508260ff166134b4565b604080516020808201835260008252915190916107c29183918a9101613852565b604051602081830303815290604052905060005b8560ff168160ff1610156108375781898260ff16815181106107fa576107fa613807565b6020026020010151604051602001610813929190613852565b6040516020818303038152906040529150808061082f90613881565b9150506107d6565b5087518560ff160361086c578086604051602001610856929190613852565b604051602081830303815290604052905061088f565b8060405160200161087d91906138a0565b60405160208183030381529060405290505b97909650945050505050565b60408051600680825260e082019092526060916000918291816020015b60608152602001906001900390816108b85790505090506000604051806080016040528060478152602001614e046047913990506040518060400160405280602081526020017f3c636972636c652063783d222d3330222063793d2236302220723d2232222f3e8152508260008151811061093557610935613807565b60200260200101819052506040518060400160405280602081526020017f3c636972636c652063783d222d3130222063793d2234352220723d2232222f3e8152508260018151811061098957610989613807565b60200260200101819052506040518060400160405280601d81526020017f3c636972636c652063783d2235222063793d22302220723d2232222f3e000000815250826002815181106109dd576109dd613807565b60200260200101819052506040518060400160405280601f81526020017f3c636972636c652063783d223535222063793d2231302220723d2232222f3e0081525082600381518110610a3157610a31613807565b60200260200101819052506040518060400160405280601f81526020017f3c636972636c652063783d223830222063793d2233302220723d2232222f3e0081525082600481518110610a8557610a85613807565b60200260200101819052506040518060400160405280601f81526020017f3c636972636c652063783d223835222063793d2234352220723d2232222f3e0081525082600581518110610ad957610ad9613807565b602002602001018190525060006040518060a00160405280606781526020016158616067913990506106a9838383896106b5565b60408051600880825261012082019092526060916000918291816020015b6060815260200190600190039081610b2b57905050905060006040518060800160405280604681526020016139fb6046913990506040518060600160405280602281526020016143446022913982600081518110610b8b57610b8b613807565b60200260200101819052506040518060600160405280602281526020016150e66022913982600181518110610bc257610bc2613807565b60200260200101819052506040518060600160405280602281526020016148576022913982600281518110610bf957610bf9613807565b60200260200101819052506040518060600160405280602281526020016147076022913982600381518110610c3057610c30613807565b6020026020010181905250604051806060016040528060228152602001614baa6022913982600481518110610c6757610c67613807565b602002602001018190525060405180606001604052806022815260200161542c6022913982600581518110610c9e57610c9e613807565b60200260200101819052506040518060600160405280602281526020016159976022913982600681518110610cd557610cd5613807565b602002602001018190525060405180606001604052806022815260200161590b6022913982600781518110610d0c57610d0c613807565b602002602001018190525060006040518060e0016040528060a5815260200161496860a5913990506106a9838383896106b5565b60408051600c8082526101a082019092526060916000918291816020015b6060815260200190600190039081610d5e57905050905060006040518060800160405280605181526020016140cf6051913990506040518060600160405280602581526020016145166025913982600081518110610dbe57610dbe613807565b60200260200101819052506040518060600160405280602581526020016152a96025913982600181518110610df557610df5613807565b60200260200101819052506040518060600160405280602581526020016150336025913982600281518110610e2c57610e2c613807565b602002602001018190525060405180606001604052806025815260200161578c6025913982600381518110610e6357610e63613807565b6020026020010181905250604051806060016040528060258152602001613d946025913982600481518110610e9a57610e9a613807565b60200260200101819052506040518060600160405280602581526020016151086025913982600581518110610ed157610ed1613807565b602002602001018190525060405180606001604052806025815260200161581a6025913982600681518110610f0857610f08613807565b6020026020010181905250604051806060016040528060258152602001613b726025913982600781518110610f3f57610f3f613807565b6020026020010181905250604051806060016040528060258152602001613ddb6025913982600881518110610f7657610f76613807565b6020026020010181905250604051806060016040528060258152602001614f626025913982600981518110610fad57610fad613807565b60200260200101819052506040518060600160405280602481526020016152856024913982600a81518110610fe457610fe4613807565b60200260200101819052506040518060600160405280602481526020016146c26024913982600b8151811061101b5761101b613807565b6020026020010181905250600060405180610100016040528060c9815260200161436660c9913990506106a9838383896106b5565b60408051600580825260c082019092526060916000918291816020015b606081526020019060019003908161106d5790505090506000604051806080016040528060478152602001614900604791399050604051806060016040528060228152602001613ef560229139826000815181106110cd576110cd613807565b60200260200101819052506040518060600160405280602281526020016153e8602291398260018151811061110457611104613807565b6020026020010181905250604051806060016040528060228152602001615382602291398260028151811061113b5761113b613807565b6020026020010181905250604051806060016040528060228152602001615263602291398260038151811061117257611172613807565b60200260200101819052506040518060600160405280602181526020016146e660219139826004815181106111a9576111a9613807565b602002602001018190525060006040518060a0016040528060748152602001613fa46074913990506106a9838383896106b5565b60408051600f80825261020082019092526060916000918291816020015b60608152602001906001900390816111fb5790505090506000604051806080016040528060498152602001613f5b604991399050604051806060016040528060228152602001613993602291398260008151811061125b5761125b613807565b6020026020010181905250604051806060016040528060228152602001613f39602291398260018151811061129257611292613807565b60200260200101819052506040518060600160405280602281526020016157b160229139826002815181106112c9576112c9613807565b60200260200101819052506040518060600160405280602281526020016150a3602291398260038151811061130057611300613807565b6020026020010181905250604051806060016040528060228152602001614e6d602291398260048151811061133757611337613807565b6020026020010181905250604051806060016040528060228152602001614120602291398260058151811061136e5761136e613807565b60200260200101819052506040518060600160405280602281526020016157f860229139826006815181106113a5576113a5613807565b6020026020010181905250604051806060016040528060228152602001614c3260229139826007815181106113dc576113dc613807565b6020026020010181905250604051806060016040528060228152602001614ff0602291398260088151811061141357611413613807565b602002602001018190525060405180606001604052806022815260200161565d602291398260098151811061144a5761144a613807565b6020026020010181905250604051806060016040528060228152602001614fac6022913982600a8151811061148157611481613807565b6020026020010181905250604051806060016040528060228152602001614bee6022913982600b815181106114b8576114b8613807565b60200260200101819052506040518060600160405280602281526020016142496022913982600c815181106114ef576114ef613807565b6020026020010181905250604051806060016040528060228152602001614a5c6022913982600d8151811061152657611526613807565b6020026020010181905250604051806060016040528060228152602001613ce76022913982600e8151811061155d5761155d613807565b6020026020010181905250600060405180610120016040528060e5815260200161416460e5913990506106a9838383896106b5565b60408051600d8082526101c082019092526060916000918291816020015b60608152602001906001900390816115b057905050905060006040518060800160405280604781526020016145ed604791399050604051806060016040528060228152602001614d7e602291398260008151811061161057611610613807565b602002602001018190525060405180606001604052806022815260200161583f602291398260018151811061164757611647613807565b6020026020010181905250604051806060016040528060228152602001613ca3602291398260028151811061167e5761167e613807565b60200260200101819052506040518060600160405280602281526020016148bc60229139826003815181106116b5576116b5613807565b6020026020010181905250604051806060016040528060228152602001613d2b60229139826004815181106116ec576116ec613807565b602002602001018190525060405180606001604052806022815260200161453b602291398260058151811061172357611723613807565b6020026020010181905250604051806060016040528060228152602001614c10602291398260068151811061175a5761175a613807565b6020026020010181905250604051806060016040528060228152602001614d5c602291398260078151811061179157611791613807565b6020026020010181905250604051806060016040528060228152602001614d1960229139826008815181106117c8576117c8613807565b602002602001018190525060405180606001604052806022815260200161445160229139826009815181106117ff576117ff613807565b602002602001018190525060405180606001604052806022815260200161442f6022913982600a8151811061183657611836613807565b602002602001018190525060405180606001604052806022815260200161474a6022913982600b8151811061186d5761186d613807565b6020026020010181905250604051806060016040528060228152602001613cc56022913982600c815181106118a4576118a4613807565b6020026020010181905250600060405180610100016040528060c6815260200161479160c6913990506106a9838383896106b5565b60408051600680825260e082019092526060916000918291816020015b60608152602001906001900390816118f657905050905060006040518060800160405280604681526020016139b56046913990506040518060600160405280602a8152602001615058602a91398260008151811061195657611956613807565b60200260200101819052506040518060600160405280602a8152602001614a0d602a91398260018151811061198d5761198d613807565b60200260200101819052506040518060600160405280602a8152602001613a63602a9139826002815181106119c4576119c4613807565b60200260200101819052506040518060600160405280602a81526020016152f0602a9139826003815181106119fb576119fb613807565b60200260200101819052506040518060600160405280602a815260200161428d602a913982600481518110611a3257611a32613807565b60200260200101819052506040518060600160405280602a8152602001613e21602a913982600581518110611a6957611a69613807565b602002602001018190525060006040518060c0016040528060828152602001613aae6082913990506106a9838383896106b5565b60408051600980825261014082019092526060916000918291816020015b6060815260200190600190039081611abb579050509050600060405180608001604052806048815260200161594f6048913990506040518060600160405280602281526020016158c86022913982600081518110611b1b57611b1b613807565b6020026020010181905250604051806060016040528060228152602001614bcc6022913982600181518110611b5257611b52613807565b602002602001018190525060405180606001604052806022815260200161592d6022913982600281518110611b8957611b89613807565b6020026020010181905250604051806060016040528060228152602001613d726022913982600381518110611bc057611bc0613807565b60200260200101819052506040518060600160405280602181526020016144d06021913982600481518110611bf757611bf7613807565b6020026020010181905250604051806060016040528060218152602001614ef76021913982600581518110611c2e57611c2e613807565b602002602001018190525060405180606001604052806021815260200161467c6021913982600681518110611c6557611c65613807565b60200260200101819052506040518060600160405280602181526020016149476021913982600781518110611c9c57611c9c613807565b6020026020010181905250604051806060016040528060218152602001613c826021913982600881518110611cd357611cd3613807565b602002602001018190525060006040518060e0016040528060aa8152602001613e4b60aa913990506106a9838383896106b5565b60408051600c8082526101a082019092526060916000918291816020015b6060815260200190600190039081611d2557905050905060006040518060600160405280603c8152602001614473603c913990506040518060400160405280601881526020017f3c636972636c652063783d222d31332220723d2232222f3e000000000000000081525082600081518110611da257611da2613807565b60200260200101819052506040518060400160405280601e81526020017f3c636972636c652063783d223232222063793d22362220723d2232222f3e000081525082600181518110611df657611df6613807565b60200260200101819052506040518060400160405280601e81526020017f3c636972636c652063783d223334222063793d22312220723d2232222f3e000081525082600281518110611e4a57611e4a613807565b60200260200101819052506040518060400160405280601f81526020017f3c636972636c652063783d223531222063793d222d372220723d2232222f3e0081525082600381518110611e9e57611e9e613807565b60200260200101819052506040518060400160405280602081526020017f3c636972636c652063783d222d3231222063793d2233352220723d2232222f3e81525082600481518110611ef257611ef2613807565b60200260200101819052506040518060400160405280601f81526020017f3c636972636c652063783d223230222063793d2233382220723d2232222f3e0081525082600581518110611f4657611f46613807565b60200260200101819052506040518060400160405280601f81526020017f3c636972636c652063783d223335222063793d2235302220723d2232222f3e0081525082600681518110611f9a57611f9a613807565b60200260200101819052506040518060400160405280601f81526020017f3c636972636c652063783d223534222063793d2236302220723d2232222f3e0081525082600781518110611fee57611fee613807565b60200260200101819052506040518060400160405280601f81526020017f3c636972636c652063783d223730222063793d2235302220723d2232222f3e008152508260088151811061204257612042613807565b60200260200101819052506040518060400160405280601f81526020017f3c636972636c652063783d223331222063793d2231382220723d2232222f3e008152508260098151811061209657612096613807565b60200260200101819052506040518060400160405280601f81526020017f3c636972636c652063783d223534222063793d2231332220723d2232222f3e0081525082600a815181106120ea576120ea613807565b60200260200101819052506040518060400160405280601f81526020017f3c636972636c652063783d223636222063793d2231322220723d2232222f3e0081525082600b8151811061213e5761213e613807565b602002602001018190525060006040518060c0016040528060838152602001614c966083913990506106a9838383896106b5565b60408051600d8082526101c082019092526060916000918291816020015b6060815260200190600190039081612190579050509050600060405180608001604052806044815260200161521f60449139905060405180606001604052806022815260200161540a60229139826000815181106121f0576121f0613807565b6020026020010181905250604051806060016040528060228152602001615360602291398260018151811061222757612227613807565b6020026020010181905250604051806060016040528060228152602001614dc1602291398260028151811061225e5761225e613807565b6020026020010181905250604051806060016040528060228152602001614e4b602291398260038151811061229557612295613807565b6020026020010181905250604051806060016040528060228152602001613db960229139826004815181106122cc576122cc613807565b6020026020010181905250604051806060016040528060228152602001613f17602291398260058151811061230357612303613807565b6020026020010181905250604051806060016040528060228152602001613a41602291398260068151811061233a5761233a613807565b6020026020010181905250604051806060016040528060218152602001615082602191398260078151811061237157612371613807565b602002602001018190525060405180606001604052806022815260200161489a60229139826008815181106123a8576123a8613807565b6020026020010181905250604051806060016040528060218152602001614c5460219139826009815181106123df576123df613807565b60200260200101819052506040518060600160405280602181526020016147296021913982600a8151811061241657612416613807565b60200260200101819052506040518060600160405280602281526020016139046022913982600b8151811061244d5761244d613807565b60200260200101819052506040518060600160405280602281526020016143016022913982600c8151811061248457612484613807565b6020026020010181905250600060405180610100016040528060d0815260200161512d60d0913990506106a9838383896106b5565b60408051600b80825261018082019092526060916000918291816020015b60608152602001906001900390816124d7579050509050600060405180608001604052806048815260200161463460489139905060405180606001604052806021815260200161544e602191398260008151811061253757612537613807565b60200260200101819052506040518060600160405280602181526020016150c5602191398260018151811061256e5761256e613807565b602002602001018190525060405180606001604052806021815260200161487960219139826002815181106125a5576125a5613807565b602002602001018190525060405180606001604052806021815260200161432360219139826003815181106125dc576125dc613807565b6020026020010181905250604051806060016040528060218152602001613b51602191398260048151811061261357612613613807565b602002602001018190525060405180606001604052806021815260200161531a602191398260058151811061264a5761264a613807565b6020026020010181905250604051806060016040528060218152602001615012602191398260068151811061268157612681613807565b6020026020010181905250604051806060016040528060218152602001614da060219139826007815181106126b8576126b8613807565b60200260200101819052506040518060600160405280602181526020016158ea60219139826008815181106126ef576126ef613807565b6020026020010181905250604051806060016040528060218152602001613a8d602191398260098151811061272657612726613807565b6020026020010181905250604051806060016040528060218152602001613b306021913982600a8151811061275d5761275d613807565b602002602001018190525060006040518060e0016040528060b7815260200161401860b7913990506106a9838383896106b5565b60408051600c8082526101a082019092526060916000918291816020015b60608152602001906001900390816127af5790505090506000604051806080016040528060488152602001614b626048913990506040518060600160405280602281526020016153a4602291398260008151811061280f5761280f613807565b602002602001018190525060405180606001604052806022815260200161455d602291398260018151811061284657612846613807565b6020026020010181905250604051806060016040528060228152602001614142602291398260028151811061287d5761287d613807565b6020026020010181905250604051806060016040528060228152602001614fce60229139826003815181106128b4576128b4613807565b60200260200101819052506040518060600160405280602281526020016148de60229139826004815181106128eb576128eb613807565b60200260200101819052506040518060600160405280602281526020016152ce602291398260058151811061292257612922613807565b60200260200101819052506040518060600160405280602281526020016153c6602291398260068151811061295957612959613807565b602002602001018190525060405180606001604052806022815260200161426b602291398260078151811061299057612990613807565b6020026020010181905250604051806060016040528060228152602001613b9760229139826008815181106129c7576129c7613807565b60200260200101819052506040518060600160405280602281526020016151fd60229139826009815181106129fe576129fe613807565b6020026020010181905250604051806060016040528060228152602001613d096022913982600a81518110612a3557612a35613807565b6020026020010181905250604051806060016040528060228152602001614ed56022913982600b81518110612a6c57612a6c613807565b6020026020010181905250600060405180610120016040528060e48152602001614a7e60e4913990506106a9838383896106b5565b606060008361ffff16600103612ac357612aba8361089b565b91509150612bdd565b8361ffff16600203612ad857612aba83612eab565b8361ffff16600303612aed57612aba836124b9565b8361ffff16600403612b0257612aba83611592565b8361ffff16600503612b1757612aba83610284565b8361ffff16600603612b2c57612aba836111dd565b8361ffff16600703612b4157612aba83610b0d565b8361ffff16600803612b5657612aba83612791565b8361ffff16600903612b6b57612aba83611a9d565b8361ffff16600a03612b8057612aba83611050565b8361ffff16600b03612b9557612aba83612172565b8361ffff16600c03612baa57612aba83610d40565b8361ffff16600d03612bbf57612aba83611d07565b8361ffff16600e03612bd457612aba83612be4565b612aba836118d9565b9250929050565b60408051600780825261010082019092526060916000918291816020015b6060815260200190600190039081612c0257905050905060006040518060800160405280604981526020016145a46049913990506040518060400160405280601f81526020017f3c636972636c652063783d2230222063793d2230302220723d223222202f3e0081525082600081518110612c7f57612c7f613807565b60200260200101819052506040518060400160405280602081526020017f3c636972636c652063783d222d36222063793d2232302220723d223222202f3e81525082600181518110612cd357612cd3613807565b60200260200101819052506040518060400160405280602081526020017f3c636972636c652063783d222d39222063793d2234302220723d223222202f3e81525082600281518110612d2757612d27613807565b60200260200101819052506040518060400160405280602081526020017f3c636972636c652063783d222d33222063793d2236302220723d223222202f3e81525082600381518110612d7b57612d7b613807565b60200260200101819052506040518060400160405280602081526020017f3c636972636c652063783d222d3138222063793d2237302220723d2232222f3e81525082600481518110612dcf57612dcf613807565b60200260200101819052506040518060400160405280602081526020017f3c636972636c652063783d222d3132222063793d2239322220723d2232222f3e81525082600581518110612e2357612e23613807565b60200260200101819052506040518060400160405280601f81526020017f3c636972636c652063783d2238222063793d2239312220723d223222202f3e0081525082600681518110612e7757612e77613807565b602002602001018190525060006040518060a0016040528060778152602001613bb96077913990506106a9838383896106b5565b606060008060405180608001604052806048815260200161394b604891396040805160148082526102a0820190925291925060009190816020015b6060815260200190600190039081612ee6579050509050604051806060016040528060218152602001614eb46021913981600081518110612f2957612f29613807565b60200260200101819052506040518060600160405280602181526020016154b56021913981600181518110612f6057612f60613807565b6020026020010181905250604051806060016040528060218152602001614d3b6021913981600281518110612f9757612f97613807565b60200260200101819052506040518060600160405280602181526020016154d66021913981600381518110612fce57612fce613807565b6020026020010181905250604051806060016040528060218152602001614c75602191398160048151811061300557613005613807565b60200260200101819052506040518060600160405280602181526020016144af602191398160058151811061303c5761303c613807565b6020026020010181905250604051806060016040528060218152602001613e00602191398160068151811061307357613073613807565b602002602001018190525060405180606001604052806021815260200161546f60219139816007815181106130aa576130aa613807565b6020026020010181905250604051806060016040528060218152602001614de360219139816008815181106130e1576130e1613807565b60200260200101819052506040518060400160405280602081526020017f3c636972636c6520723d2232222063783d223937222063793d22343630222f3e8152508160098151811061313557613135613807565b60200260200101819052506040518060400160405280602081526020017f3c636972636c6520723d2232222063783d223937222063793d22343231222f3e81525081600a8151811061318957613189613807565b60200260200101819052506040518060400160405280602081526020017f3c636972636c6520723d2232222063783d223931222063793d22353139222f3e81525081600b815181106131dd576131dd613807565b60200260200101819052506040518060400160405280602081526020017f3c636972636c6520723d2232222063783d223931222063793d22343533222f3e81525081600c8151811061323157613231613807565b60200260200101819052506040518060400160405280602081526020017f3c636972636c6520723d2232222063783d223930222063793d22343236222f3e81525081600d8151811061328557613285613807565b60200260200101819052506040518060400160405280602081526020017f3c636972636c6520723d2232222063783d223838222063793d22353037222f3e81525081600e815181106132d9576132d9613807565b60200260200101819052506040518060400160405280602081526020017f3c636972636c6520723d2232222063783d223831222063793d22343234222f3e81525081600f8151811061332d5761332d613807565b60200260200101819052506040518060400160405280602081526020017f3c636972636c6520723d2232222063783d223731222063793d22353135222f3e8152508160108151811061338157613381613807565b60200260200101819052506040518060400160405280602081526020017f3c636972636c6520723d2232222063783d223636222063793d22343135222f3e815250816011815181106133d5576133d5613807565b60200260200101819052506040518060400160405280602081526020017f3c636972636c6520723d2232222063783d223632222063793d22343436222f3e8152508160128151811061342957613429613807565b60200260200101819052506040518060400160405280602081526020017f3c636972636c6520723d2232222063783d223432222063793d22343638222f3e8152508160138151811061347d5761347d613807565b60200260200101819052506000604051806101800160405280610141815260200161551c610141913990506106a9828483896106b5565b61352782826040516024016134ca9291906138e1565b60408051601f198184030181529190526020810180517bffffffffffffffffffffffffffffffffffffffffffffffffffffffff167fb60e72cc0000000000000000000000000000000000000000000000000000000017905261352b565b5050565b80516a636f6e736f6c652e6c6f67602083016000808483855afa5050505050565b803560ff8116811461355d57600080fd5b919050565b60006020828403121561357457600080fd5b61357d8261354c565b9392505050565b60005b8381101561359f578181015183820152602001613587565b50506000910152565b600081518084526135c0816020860160208601613584565b601f01601f19169290920160200192915050565b6040815260006135e760408301856135a8565b905060ff831660208301529392505050565b634e487b7160e01b600052604160045260246000fd5b604051601f8201601f1916810167ffffffffffffffff81118282101715613638576136386135f9565b604052919050565b600082601f83011261365157600080fd5b813567ffffffffffffffff81111561366b5761366b6135f9565b61367e601f8201601f191660200161360f565b81815284602083860101111561369357600080fd5b816020850160208301376000918101602001919091529392505050565b600080600080608085870312156136c657600080fd5b843567ffffffffffffffff808211156136de57600080fd5b818701915087601f8301126136f257600080fd5b8135602082821115613706576137066135f9565b8160051b61371582820161360f565b928352848101820192828101908c85111561372f57600080fd5b83870192505b8483101561376b5782358681111561374d5760008081fd5b61375b8e86838b0101613640565b8352509183019190830190613735565b995050508801359250508082111561378257600080fd5b61378e88838901613640565b945060408701359150808211156137a457600080fd5b506137b187828801613640565b9250506137c06060860161354c565b905092959194509250565b600080604083850312156137de57600080fd5b823561ffff811681146137f057600080fd5b91506137fe6020840161354c565b90509250929050565b634e487b7160e01b600052603260045260246000fd5b634e487b7160e01b600052601160045260246000fd5b60ff828116828216039081111561384c5761384c61381d565b92915050565b60008351613864818460208801613584565b835190830190613878818360208801613584565b01949350505050565b600060ff821660ff81036138975761389761381d565b60010192915050565b600082516138b2818460208701613584565b7f3c2f673e00000000000000000000000000000000000000000000000000000000920191825250600401919050565b6040815260006138f460408301856135a8565b9050826020830152939250505056fe3c636972636c6520723d2232222063783d22323937222063793d2231313620222f3e3c636972636c6520723d22322e3836222063783d22343235222063793d2235343120222f3e3c67207472616e73666f726d3d227472616e736c617465283233342c2d323930292c20726f74617465283029222066696c6c3d222366666622206f7061636974793d22302e38223e3c636972636c6520723d2232222063783d22353133222063793d2232353620222f3e3c67207472616e73666f726d3d227472616e736c617465283133342c202d373029207363616c65283329222066696c6c3d222366666622206f7061636974793d22302e38223e3c67207472616e73666f726d3d227472616e736c61746528342c2d313230292c20726f74617465283029222066696c6c3d222366666622206f7061636974793d22302e38223e3c636972636c6520723d2232222063783d22333334222063793d2231333220222f3e3c636972636c6520723d22302e3636222063783d2236322e303030222063793d2239332e303030222f3e3c636972636c6520723d2232222063783d22313931222063793d22353131222f3e3c7061746820643d226d3837203736204c203732203736204c203539203830204c203439203739204d203632203933204c203539203830204c20363120363422207374726f6b652d77696474683d22302e333333222066696c6c3d226e6f6e6522207374726f6b653d222366666622206f7061636974793d222e35222f3e3c2f673e3c636972636c6520723d2232222063783d22313839222063793d22353139222f3e3c636972636c6520723d2232222063783d22323331222063793d22343134222f3e3c636972636c6520723d22322e3836222063783d22323037222063793d2231333520222f3e3c636972636c6520723d2232222063783d22323231222063793d2233343220222f3e3c7061746820643d226d2030203030204c202d36203230204c202d39203430204c202d33203630204c202d3138203730204c202d3132203932204c2038203931204c202d33203630222066696c6c3d226e6f6e6522207374726f6b653d22776869746522206f7061636974793d222e35222f3e3c2f673e3c67207472616e73666f726d3d227472616e736c6174652831342c2d313730292c20726f74617465283029207363616c6528302e3729222066696c6c3d222366666622206f7061636974793d22302e38223e3c636972636c6520723d2232222063783d223631222063793d2233343420222f3e3c636972636c6520723d2232222063783d22333534222063793d2235313720222f3e3c636972636c6520723d2232222063783d22333635222063793d2234373220222f3e3c636972636c6520723d2232222063783d22353133222063793d2232383120222f3e3c636972636c6520723d2232222063783d22313938222063793d2232343220222f3e3c636972636c6520723d2232222063783d22333339222063793d2234333520222f3e3c636972636c6520723d22322e3836222063783d22343832222063793d2235303220222f3e3c636972636c6520723d2232222063783d22313032222063793d2232363520222f3e3c636972636c6520723d22322e3836222063783d22323134222063793d2231323920222f3e3c636972636c6520723d2232222063783d22333539222063793d2231303920222f3e3c636972636c6520723d22322e3836222063783d22323033222063793d2231303020222f3e3c636972636c6520723d2232222063783d22313238222063793d22343431222f3e3c636972636c6520723d22302e3636222063783d2234392e303030222063793d2237392e303030222f3e3c7061746820643d226d3130382c323234204c2039342c20323236204c2039322c20323533204c203130322c20323635204c2031323020323634204c202031333620323736204c20383020333234204c203631203334344c20363420333037204c2031303220323635204d20383020333234204c203132302032363422207374726f6b653d222366666622206f7061636974793d222e35222066696c6c3d226e6f6e65222f3e3c2f673e3c636972636c6520723d2232222063783d22343931222063793d2231343320222f3e3c636972636c6520723d2232222063783d22333539222063793d2231363220222f3e3c636972636c6520723d2232222063783d22353133222063793d2232363820222f3e3c67207472616e73666f726d3d227472616e736c617465282d3132312c2d313230292c20726f74617465283029222066696c6c3d222366666622206f7061636974793d22302e38223e3c7061746820643d226d34393120313433204c203434332c20313233204c2034333720313132204c20343138203838204d2034343220313233204c203434302031353720202022207374726f6b653d222366666622206f7061636974793d222e35222066696c6c3d226e6f6e65222f3e3c2f673e3c7061746820643d224d203235342c20343932204c203234312c20343938204c203232312c20353130204c203230322c353134204c203138392c20353139204c203139312c20353131204c203230312c343935204c203231322c20343831204c203233322c20343234204c2032333120343134204d203233322c20343234204c203235332c2034383322207374726f6b653d222366666622206f7061636974793d222e35222066696c6c3d226e6f6e65222f3e3c2f673e3c67207472616e73666f726d3d227472616e736c617465283139342c3830292c20726f74617465283029207363616c6528302e3729222066696c6c3d222366666622206f7061636974793d22302e38223e3c636972636c6520723d2232222063783d22343735222063793d2232373420222f3e3c636972636c6520723d2232222063783d22323438222063793d2232373620222f3e3c7061746820643d226d3431392c20333034204c203431302c20333133204c203430352c20333230204c203431352c20333332204c203433352c20333333204c20203435322c20333238204c203435362c20333134204c203435382c20323936204c203437352c20323734204c203438312c20323638204c203438392c20323634204c203531332c20323536204c203531302c20323438204d203531332c20323536204c203531332c20323638204c203531332032383122207374726f6b653d222366666622206f7061636974793d222e35222066696c6c3d226e6f6e65222f3e3c2f673e3c636972636c6520723d2232222063783d22343130222063793d2233313320222f3e3c636972636c6520723d2232222063783d22323233222063793d2232383520222f3e3c636972636c6520723d22302e3636222063783d2235392e303030222063793d2238302e303030222f3e3c636972636c6520723d22322e3836222063783d22343438222063793d2234303120222f3e3c636972636c6520723d22322e3836222063783d22343635222063793d2235333920222f3e3c636972636c6520723d2232222063783d22323935222063793d2231303620222f3e3c636972636c6520723d2232222063783d22323332222063793d22343234222f3e3c636972636c6520723d2232222063783d22333631222063793d2232373220222f3e3c7061746820643d226d32363220313834204c2032353920313735204c2032323820313534204c2032313420313339204c2032313420313239204c2032313020313237204c2032313020313231204c2032303320313030204c20313834203637204d2032313420313339204c2032303720313335204c2032303120313331204c2031363420393322207374726f6b653d222366666622206f7061636974793d222e35222066696c6c3d226e6f6e6522207374726f6b652d77696474683d22312e3433222f3e3c2f673e3c636972636c6520723d2232222063783d22323932222063793d2234383420222f3e3c636972636c6520723d2232222063783d22333032222063793d2234383020222f3e3c67207472616e73666f726d3d227472616e736c617465283332322031353029222066696c6c3d222366666622206f7061636974793d22302e38223e3c636972636c6520723d2232222063783d22313332222063793d22343735222f3e3c636972636c6520723d2232222063783d223934222063793d2232323620222f3e3c636972636c6520723d22322e3836222063783d22343135222063793d2235353320222f3e3c636972636c6520723d22322e3836222063783d22323632222063793d2231383420222f3e3c636972636c6520723d2232222063783d22333335222063793d2234373620222f3e3c636972636c6520723d2232222063783d22323531222063793d2232323520222f3e3c636972636c6520723d22322e3836222063783d22343731222063793d2234303020222f3e3c67207472616e73666f726d3d227472616e736c617465283332302c313330292c20726f74617465282d333029222066696c6c3d222366666622206f7061636974793d22302e38223e3c67207472616e73666f726d3d227472616e736c617465282d362c2d333030292c20726f74617465283029222066696c6c3d222366666622206f7061636974793d22302e38223e3c67207472616e73666f726d3d227472616e736c617465283131342c2d333030292c20726f74617465283029222066696c6c3d222366666622206f7061636974793d22302e38223e3c636972636c6520723d2232222063783d223830222063793d2233323420222f3e3c636972636c6520723d22322e3836222063783d22343735222063793d2234383420222f3e3c636972636c6520723d22322e3836222063783d22313634222063793d22393320222f3e3c636972636c6520723d2232222063783d22343138222063793d22383820222f3e3c636972636c6520723d2232222063783d22333335222063793d2233323120222f3e3c636972636c6520723d2232222063783d22333036222063793d22383620222f3e3c636972636c6520723d2232222063783d22323839222063793d2234393220222f3e3c636972636c6520723d22322e3836222063783d22343734222063793d2234313720222f3e3c7061746820643d224d3337382c20343036204c203333392c20343335204c203330322c20343539204c203330322c20343830204c2032393220343834204c203238392c20343932204c2033313920353334204c203332352c353135204c203334372c353132204c203335342c353137204c203337322c353330204d203330322c343539204c203333352c343736204c2033363520343732222066696c6c3d226e6f6e6522207374726f6b653d222366666622206f7061636974793d222e35222f3e3c2f673e3c636972636c6520723d2232222063783d22333335222063793d2233323920222f3e3c636972636c6520723d2232222063783d22323431222063793d22343938222f3e3c636972636c6520723d2232222063783d22333139222063793d2231323520222f3e3c636972636c6520723d2232222063783d22333437222063793d2235313220222f3e3c636972636c6520723d2232222063783d22323431222063793d2233323720222f3e3c67207472616e73666f726d3d227472616e736c617465282d3130362c3530292c20726f74617465283029222066696c6c3d222366666622206f7061636974793d22302e38223e3c636972636c6520723d2232222063783d223634222063793d2233303720222f3e3c7061746820643d224d203330392c20323837204c203331382c20323831204c203332342c20323736204c203333332c20323532204c203336312c203237322c203335362c20333037204c20203333352c20333231204c203333352c20333239204d203335362c20333037204c203333332c203235322022207374726f6b653d222366666622206f7061636974793d222e35222066696c6c3d226e6f6e65222f3e3c2f673e3c636972636c6520723d22302e3636222063783d2237322e303030222063793d2237362e303030222f3e3c636972636c6520723d22322e3836222063783d22343935222063793d2235343120222f3e3c636972636c6520723d2232222063783d22343035222063793d2233323020222f3e3c7061746820643d226d3232312c20333432204c203233312c20333234204c203234312c20333237204c203236312c20323936204c203234382c20323736204c20203234362c20323434204c203235312c20323235204d203234362c20323434204c203232352c20323439204c203139382c20323432204d203232352c20323439204c203232332c20323835204c203236312c20323936204d203232332c20323835204c2032303720323939204c203138382033333022207374726f6b653d222366666622206f7061636974793d222e35222066696c6c3d226e6f6e65222f3e3c2f673e3c67207472616e73666f726d3d227472616e736c617465283131342c2d313134292c20726f74617465283029222066696c6c3d222366666622206f7061636974793d22302e38223e3c636972636c6520723d2232222063783d22333333222063793d2232353220222f3e3c636972636c6520723d2232222063783d22313230222063793d2232363420222f3e3c636972636c6520723d2232222063783d22343135222063793d2233333220222f3e3c636972636c6520723d2232222063783d22333235222063793d2235313520222f3e3c636972636c6520723d2232222063783d22343536222063793d2233313420222f3e3c636972636c6520723d2232222063783d22333135222063793d22383720222f3e3c636972636c6520723d2232222063783d22313334222063793d22343537222f3e3c7061746820643d224d37302035302035342036302033352035302032302033386c2d34312d3320382d333520333520362d322033326d34362d32362d313220312d323320352d392d31322031322d352031372d38222066696c6c3d226e6f6e6522207374726f6b653d222366666622206f7061636974793d222e35222f3e3c2f673e3c636972636c6520723d2232222063783d22333032222063793d2234353920222f3e3c636972636c6520723d2232222063783d22313339222063793d22343832222f3e3c636972636c6520723d2232222063783d22333139222063793d2235333420222f3e3c636972636c6520723d2232222063783d22333738222063793d2234303620222f3e3c636972636c6520723d2232222063783d22323032222063793d22353134222f3e3c636972636c6520723d2232222063783d22333734222063793d2231323820222f3e3c636972636c6520723d2232222063783d22313030222063793d22343436222f3e3c67207472616e73666f726d3d227472616e736c617465283331362c313333292c20726f74617465283029222066696c6c3d222366666622206f7061636974793d22302e38223e3c636972636c6520723d2232222063783d22333635222063793d2231343420222f3e3c636972636c6520723d2232222063783d22343831222063793d2232363820222f3e3c636972636c6520723d22322e3836222063783d22343435222063793d2234313320222f3e3c636972636c6520723d2232222063783d22313639222063793d22343437222f3e3c636972636c6520723d2232222063783d22313838222063793d2233333020222f3e3c636972636c6520723d2232222063783d223932222063793d2232353320222f3e3c636972636c6520723d22322e3836222063783d22343534222063793d2234323520222f3e3c636972636c6520723d22322e3836222063783d22343539222063793d2234343520222f3e3c636972636c6520723d22322e3836222063783d22323031222063793d2231333120222f3e3c636972636c6520723d22322e3836222063783d22343638222063793d2234323720222f3e3c636972636c6520723d2232222063783d22343139222063793d2233303420222f3e3c636972636c6520723d2232222063783d22323436222063793d2232343420222f3e3c636972636c6520723d2232222063783d22343532222063793d2233323820222f3e3c636972636c6520723d2232222063783d22323132222063793d22343831222f3e3c636972636c6520723d22322e3836222063783d22323238222063793d2231353420222f3e3c636972636c6520723d22302e3636222063783d2238372e303030222063793d2237362e303030222f3e3c636972636c6520723d2232222063783d22333234222063793d22383920222f3e3c636972636c6520723d2232222063783d22343839222063793d2232363420222f3e3c636972636c6520723d2232222063783d22323533222063793d22343833222f3e3c636972636c6520723d2232222063783d22333536222063793d2233303720222f3e3c636972636c6520723d22322e3836222063783d22323130222063793d2231323720222f3e3c7061746820643d226d333836202c20313136204c203337372c20313135204c203337342c20313238204c203336352c20313434204c203333342c20313332204c20203331392c20313235204c2032393720313136204c2032393520313036204c20333036203836204c20333135203837204c20333234203839204c2033353920313039204c2033373720313135204d2033363520313434204c203335392031363222207374726f6b653d222366666622206f7061636974793d222e35222066696c6c3d226e6f6e65222f3e3c2f673e3c636972636c6520723d2232222063783d22323037222063793d2232393920222f3e3c67207472616e73666f726d3d227472616e736c61746528342c3530292c20726f74617465283029222066696c6c3d222366666622206f7061636974793d22302e38223e3c636972636c6520723d2232222063783d22343337222063793d2231313220222f3e3c636972636c6520723d22322e3836222063783d22313834222063793d22363720222f3e3c636972636c6520723d22322e3836222063783d22323539222063793d2231373520222f3e3c636972636c6520723d2232222063783d22323331222063793d2233323420222f3e3c636972636c6520723d22302e3636222063783d2236312e303030222063793d2236342e303030222f3e3c636972636c6520723d2232222063783d22323231222063793d22353130222f3e3c636972636c6520723d22322e3836222063783d22343537222063793d2233393520222f3e3c636972636c6520723d2232222063783d22333737222063793d2231313520222f3e3c636972636c6520723d2232222063783d22343430222063793d2231353720222f3e3c636972636c6520723d2232222063783d22323631222063793d2232393620222f3e3c636972636c6520723d2232222063783d22323235222063793d2232343920222f3e3c636972636c6520723d2232222063783d22343433222063793d2231323320222f3e3c636972636c6520723d2232222063783d22333836222063793d2231313620222f3e3c636972636c6520723d2232222063783d22333234222063793d2232373620222f3e3c636972636c6520723d2232222063783d22323534222063793d22343932222f3e3c636972636c6520723d2232222063783d22313130222063793d22343439222f3e3c636972636c6520723d22322e3836222063783d22353032222063793d2235323620222f3e3c636972636c6520723d2232222063783d22313438222063793d22343632222f3e3c636972636c6520723d2232222063783d22313336222063793d22343139222f3e3c636972636c6520723d22322e3836222063783d22353233222063793d2235343720222f3e3c7061746820643d226d3136392c20343437204c203134382c20343632204c203133342c343537204c203133322c20343735204c203133392c20343832204d203133342c343537204c203132382c343431204c203133362c343139204d203132382c20343431204c203131302c20343439204c203130302c343436204c2039302c343236204c2039372c343231204d2039302c343236204c2038312c343234204c2036362c343135204d203131302c20343439204c2039372c20343630204c2039312c20343533204c203130302c343436204d2039312c343533204c2036322c20343436204c2034322c20343638204c2037312c20353135204c2038382c353037204d2037312c353135204c2039312c35313922207374726f6b653d222366666622206f7061636974793d222e35222066696c6c3d226e6f6e65222f3e3c2f673e3c636972636c6520723d2232222063783d22343335222063793d2233333320222f3e3c7061746820643d226d3430302c20353434204c203431352c20353533204c203432352c353431204c3436352c20353339204c203439352c20353431204c203532332c20353437204c203530322c20353236204c203438322c20353032204c203437352c20343834204c203435392c20343435204c203435342c20343235204c203434352c20343133204c203434382c20343031204c203435372c20333935204c203437312c20343030204c203437342c20343137204c203436382c20343237204c20343534203432352022207374726f6b653d222366666622206f7061636974793d222e35222066696c6c3d226e6f6e6522207374726f6b652d77696474683d22312e3433222f3e3c2f673e3c636972636c6520723d22322e3836222063783d22323134222063793d2231333920222f3e3c636972636c6520723d2232222063783d22353130222063793d2232343820222f3e3c636972636c6520723d22322e3836222063783d22343030222063793d2235343420222f3e3c636972636c6520723d2232222063783d22343538222063793d2232393620222f3e3c636972636c6520723d22322e3836222063783d22323130222063793d2231323120222f3e3c636972636c6520723d2232222063783d22333732222063793d2235333020222f3e3c7061746820643d226d202d3330203630204c202d3130203435204c20352030204c203535203130204c203830203330204c203835203435222066696c6c3d226e6f6e6522207374726f6b653d22776869746522206f7061636974793d222e35222f3e3c2f673e3c636972636c6520723d2232222063783d22313336222063793d2232373620222f3e3c636972636c6520723d2232222063783d22323031222063793d22343935222f3e3c636972636c6520723d2232222063783d22333039222063793d2232383720222f3e3c636972636c6520723d2232222063783d22313038222063793d2232323420222f3e3c67207472616e73666f726d3d227472616e736c617465283235342c2d313134292c20726f74617465283029222066696c6c3d222366666622206f7061636974793d22302e38223e3c636972636c6520723d2232222063783d22333138222063793d2232383120222f3ea2646970667358221220eac2de87497c85204def45714007667d52d3e7fab35ad63f0e855ce1a988cbe064736f6c63430008120033",
  "devdoc": {
    "kind": "dev",
    "methods": {},
    "version": 1
  },
  "userdoc": {
    "kind": "user",
    "methods": {},
    "version": 1
  },
  "storageLayout": {
    "storage": [],
    "types": null
  }
}