{
  "address": "0xF132dbB1d18379c0fBb8885bD288afCa120A076a",
  "abi": [
    {
      "inputs": [
        {
          "internalType": "address",
          "name": "chainellation",
          "type": "address"
        }
      ],
      "stateMutability": "nonpayable",
      "type": "constructor"
    },
    {
      "inputs": [],
      "name": "AlreadyRegistered",
      "type": "error"
    },
    {
      "inputs": [],
      "name": "InvalidDecoType",
      "type": "error"
    },
    {
      "inputs": [],
      "name": "NotOwner",
      "type": "error"
    },
    {
      "anonymous": false,
      "inputs": [
        {
          "indexed": true,
          "internalType": "address",
          "name": "previousOwner",
          "type": "address"
        },
        {
          "indexed": true,
          "internalType": "address",
          "name": "newOwner",
          "type": "address"
        }
      ],
      "name": "OwnershipTransferred",
      "type": "event"
    },
    {
      "inputs": [],
      "name": "DECORATION_ONE",
      "outputs": [
        {
          "internalType": "uint8",
          "name": "",
          "type": "uint8"
        }
      ],
      "stateMutability": "view",
      "type": "function"
    },
    {
      "inputs": [],
      "name": "SILHOUTTE",
      "outputs": [
        {
          "internalType": "uint8",
          "name": "",
          "type": "uint8"
        }
      ],
      "stateMutability": "view",
      "type": "function"
    },
    {
      "inputs": [],
      "name": "SKY_MATH",
      "outputs": [
        {
          "internalType": "uint8",
          "name": "",
          "type": "uint8"
        }
      ],
      "stateMutability": "view",
      "type": "function"
    },
    {
      "inputs": [
        {
          "internalType": "uint256",
          "name": "",
          "type": "uint256"
        }
      ],
      "name": "allDecorations",
      "outputs": [
        {
          "internalType": "address",
          "name": "",
          "type": "address"
        }
      ],
      "stateMutability": "view",
      "type": "function"
    },
    {
      "inputs": [],
      "name": "getAllDecorations",
      "outputs": [
        {
          "internalType": "address[]",
          "name": "",
          "type": "address[]"
        }
      ],
      "stateMutability": "view",
      "type": "function"
    },
    {
      "inputs": [
        {
          "internalType": "address",
          "name": "user",
          "type": "address"
        }
      ],
      "name": "getAvailableDecorations",
      "outputs": [
        {
          "internalType": "address[]",
          "name": "",
          "type": "address[]"
        },
        {
          "internalType": "uint256[]",
          "name": "",
          "type": "uint256[]"
        }
      ],
      "stateMutability": "view",
      "type": "function"
    },
    {
      "inputs": [
        {
          "components": [
            {
              "internalType": "uint256",
              "name": "tokenId",
              "type": "uint256"
            },
            {
              "internalType": "uint16",
              "name": "primaryHue",
              "type": "uint16"
            },
            {
              "internalType": "uint16",
              "name": "secondaryHue",
              "type": "uint16"
            },
            {
              "internalType": "uint8",
              "name": "constellation",
              "type": "uint8"
            },
            {
              "internalType": "uint8",
              "name": "cloudsAt",
              "type": "uint8"
            },
            {
              "internalType": "uint256",
              "name": "starSeed",
              "type": "uint256"
            },
            {
              "internalType": "uint256",
              "name": "funkSeed",
              "type": "uint256"
            },
            {
              "internalType": "uint256",
              "name": "circleSeed",
              "type": "uint256"
            },
            {
              "internalType": "uint256",
              "name": "groundSeed",
              "type": "uint256"
            }
          ],
          "internalType": "struct Color.DNA",
          "name": "dna",
          "type": "tuple"
        },
        {
          "internalType": "uint256",
          "name": "gazes",
          "type": "uint256"
        },
        {
          "internalType": "bool",
          "name": "daytime",
          "type": "bool"
        }
      ],
      "name": "getDecorationOne",
      "outputs": [
        {
          "internalType": "string",
          "name": "",
          "type": "string"
        }
      ],
      "stateMutability": "view",
      "type": "function"
    },
    {
      "inputs": [
        {
          "components": [
            {
              "internalType": "uint256",
              "name": "tokenId",
              "type": "uint256"
            },
            {
              "internalType": "uint16",
              "name": "primaryHue",
              "type": "uint16"
            },
            {
              "internalType": "uint16",
              "name": "secondaryHue",
              "type": "uint16"
            },
            {
              "internalType": "uint8",
              "name": "constellation",
              "type": "uint8"
            },
            {
              "internalType": "uint8",
              "name": "cloudsAt",
              "type": "uint8"
            },
            {
              "internalType": "uint256",
              "name": "starSeed",
              "type": "uint256"
            },
            {
              "internalType": "uint256",
              "name": "funkSeed",
              "type": "uint256"
            },
            {
              "internalType": "uint256",
              "name": "circleSeed",
              "type": "uint256"
            },
            {
              "internalType": "uint256",
              "name": "groundSeed",
              "type": "uint256"
            }
          ],
          "internalType": "struct Color.DNA",
          "name": "dna",
          "type": "tuple"
        },
        {
          "internalType": "uint256",
          "name": "gazes",
          "type": "uint256"
        },
        {
          "internalType": "bool",
          "name": "daytime",
          "type": "bool"
        }
      ],
      "name": "getSilhouette",
      "outputs": [
        {
          "internalType": "string",
          "name": "",
          "type": "string"
        }
      ],
      "stateMutability": "view",
      "type": "function"
    },
    {
      "inputs": [
        {
          "components": [
            {
              "internalType": "uint256",
              "name": "tokenId",
              "type": "uint256"
            },
            {
              "internalType": "uint16",
              "name": "primaryHue",
              "type": "uint16"
            },
            {
              "internalType": "uint16",
              "name": "secondaryHue",
              "type": "uint16"
            },
            {
              "internalType": "uint8",
              "name": "constellation",
              "type": "uint8"
            },
            {
              "internalType": "uint8",
              "name": "cloudsAt",
              "type": "uint8"
            },
            {
              "internalType": "uint256",
              "name": "starSeed",
              "type": "uint256"
            },
            {
              "internalType": "uint256",
              "name": "funkSeed",
              "type": "uint256"
            },
            {
              "internalType": "uint256",
              "name": "circleSeed",
              "type": "uint256"
            },
            {
              "internalType": "uint256",
              "name": "groundSeed",
              "type": "uint256"
            }
          ],
          "internalType": "struct Color.DNA",
          "name": "dna",
          "type": "tuple"
        },
        {
          "internalType": "uint256",
          "name": "gazes",
          "type": "uint256"
        },
        {
          "internalType": "bool",
          "name": "daytime",
          "type": "bool"
        }
      ],
      "name": "getSkyMath",
      "outputs": [
        {
          "internalType": "string",
          "name": "",
          "type": "string"
        }
      ],
      "stateMutability": "view",
      "type": "function"
    },
    {
      "inputs": [],
      "name": "owner",
      "outputs": [
        {
          "internalType": "address",
          "name": "",
          "type": "address"
        }
      ],
      "stateMutability": "view",
      "type": "function"
    },
    {
      "inputs": [
        {
          "internalType": "address",
          "name": "_deco",
          "type": "address"
        },
        {
          "internalType": "uint8",
          "name": "spot",
          "type": "uint8"
        }
      ],
      "name": "register",
      "outputs": [],
      "stateMutability": "nonpayable",
      "type": "function"
    },
    {
      "inputs": [],
      "name": "renounceOwnership",
      "outputs": [],
      "stateMutability": "nonpayable",
      "type": "function"
    },
    {
      "inputs": [],
      "name": "reset",
      "outputs": [],
      "stateMutability": "nonpayable",
      "type": "function"
    },
    {
      "inputs": [
        {
          "internalType": "uint256",
          "name": "tokenId",
          "type": "uint256"
        },
        {
          "internalType": "uint8",
          "name": "decoType",
          "type": "uint8"
        },
        {
          "internalType": "address",
          "name": "deco",
          "type": "address"
        },
        {
          "internalType": "uint256",
          "name": "decoId",
          "type": "uint256"
        }
      ],
      "name": "setDecoration",
      "outputs": [],
      "stateMutability": "nonpayable",
      "type": "function"
    },
    {
      "inputs": [
        {
          "internalType": "uint256",
          "name": "tokenId",
          "type": "uint256"
        },
        {
          "internalType": "uint8[]",
          "name": "decoTypes",
          "type": "uint8[]"
        },
        {
          "internalType": "address[]",
          "name": "decos",
          "type": "address[]"
        },
        {
          "internalType": "uint256[]",
          "name": "decoIds",
          "type": "uint256[]"
        }
      ],
      "name": "setDecorationBatch",
      "outputs": [],
      "stateMutability": "nonpayable",
      "type": "function"
    },
    {
      "inputs": [
        {
          "internalType": "address",
          "name": "newOwner",
          "type": "address"
        }
      ],
      "name": "transferOwnership",
      "outputs": [],
      "stateMutability": "nonpayable",
      "type": "function"
    },
    {
      "inputs": [
        {
          "internalType": "address",
          "name": "_deco",
          "type": "address"
        }
      ],
      "name": "unregister",
      "outputs": [],
      "stateMutability": "nonpayable",
      "type": "function"
    },
    {
      "inputs": [],
      "name": "withdraw",
      "outputs": [],
      "stateMutability": "nonpayable",
      "type": "function"
    },
    {
      "inputs": [
        {
          "internalType": "address",
          "name": "_tokenContract",
          "type": "address"
        },
        {
          "internalType": "uint256",
          "name": "_amount",
          "type": "uint256"
        }
      ],
      "name": "withdrawToken",
      "outputs": [],
      "stateMutability": "nonpayable",
      "type": "function"
    }
  ],
  "transactionHash": "0x69dd96a79bd0aed4a7a23d275cf306a5412ece01e878e9e7d15ea5ba2b9648c6",
  "args": [
    "0x45d45517f1000f188A94b67B74650CD1Dc9190Ad"
  ],
  "numDeployments": 3,
  "solcInputHash": "56930af7b938deac2ecf057e8304b3a4",
  "bytecode": "0x608060405234801561001057600080fd5b506040516118d53803806118d583398101604081905261002f916100ad565b6100383361005d565b600180546001600160a01b0319166001600160a01b03929092169190911790556100dd565b600080546001600160a01b038381166001600160a01b0319831681178455604051919092169283917f8be0079c531659141344cd1fd0a4f28419497f9722a3daafe3b4186f6b6457e09190a35050565b6000602082840312156100bf57600080fd5b81516001600160a01b03811681146100d657600080fd5b9392505050565b6117e9806100ec6000396000f3fe608060405234801561001057600080fd5b50600436106101515760003560e01c806343341500116100cd578063ac7c0ae711610081578063d826f88f11610066578063d826f88f1461029f578063f2fde38b146102a7578063fb431aad146102ba57600080fd5b8063ac7c0ae714610276578063d145c8841461027e57600080fd5b8063715018a6116100b2578063715018a61461024a5780638da5cb5b146102525780639e281a981461026357600080fd5b8063433415001461022f5780636cdfb8281461023757600080fd5b80632ec2c246116101245780633942a6b9116101095780633942a6b9146101e75780633ccfd60b1461021257806342a64f041461021a57600080fd5b80632ec2c246146101c157806331f32ada146101d457600080fd5b806307e49598146101565780630e82b0af1461016b578063139885dd14610194578063291d4386146101a7575b600080fd5b610169610164366004611064565b6102cd565b005b61017e610179366004611135565b610397565b60405161018b9190611219565b60405180910390f35b6101696101a236600461124c565b610486565b6101af600381565b60405160ff909116815260200161018b565b6101696101cf366004611292565b61072c565b61017e6101e2366004611135565b6108cb565b6101fa6101f53660046112af565b610971565b6040516001600160a01b03909116815260200161018b565b61016961099b565b6102226109d2565b60405161018b919061130c565b6101af600281565b610169610245366004611412565b610a34565b610169610ab0565b6000546001600160a01b03166101fa565b610169610271366004611502565b610ac4565b6101af600181565b61029161028c366004611292565b610b5b565b60405161018b92919061152e565b610169610da1565b6101696102b5366004611292565b610e25565b61017e6102c8366004611135565b610eb7565b6102d5610f5d565b6001600160a01b03821660009081526002602052604090205460ff1615610328576040517f3a81d6fc00000000000000000000000000000000000000000000000000000000815260040160405180910390fd5b6001600160a01b03919091166000818152600260205260408120805460ff191660ff909416939093179092556003805460018101825592527fc2575a0e9e593c00f959f8c92f12db2869c3395a3b0502d05e2516446f71f85b90910180546001600160a01b0319169091179055565b82516000908152600460205260409020546060906001600160a01b03166103f2575060408051808201909152601781527f3c672069643d2273696c686f7565747465223e3c2f673e000000000000000000602082015261047f565b8351600090815260046020819052604091829020548651925163a5d5a10b60e01b81526001600160a01b039091169263a5d5a10b926104379289918991899101611585565b600060405180830381865afa158015610454573d6000803e3d6000fd5b505050506040513d6000823e601f3d908101601f1916820160405261047c9190810190611626565b90505b9392505050565b6001546040516331a9108f60e11b81526004810186905233916001600160a01b031690636352211e90602401602060405180830381865afa1580156104cf573d6000803e3d6000fd5b505050506040513d601f19601f820116820180604052508101906104f391906116ba565b6001600160a01b03161461051a576040516330cd747160e01b815260040160405180910390fd5b6040516331a9108f60e11b81526004810182905233906001600160a01b03841690636352211e90602401602060405180830381865afa158015610561573d6000803e3d6000fd5b505050506040513d601f19601f8201168201806040525081019061058591906116ba565b6001600160a01b0316146105ac576040516330cd747160e01b815260040160405180910390fd5b6001600160a01b03821660009081526002602052604090205460ff8481169116146105ea5760405163ec64f18d60e01b815260040160405180910390fd5b6040517f06febcba000000000000000000000000000000000000000000000000000000008152600481018290526001600160a01b038316906306febcba90602401600060405180830381600087803b15801561064557600080fd5b505af1158015610659573d6000803e3d6000fd5b50505050600160ff168360ff160361069757600084815260046020526040902080546001600160a01b0319166001600160a01b038416179055610726565b60011960ff8416016106d257600084815260046020526040902060010180546001600160a01b0319166001600160a01b038416179055610726565b60021960ff84160161070d57600084815260046020526040902060020180546001600160a01b0319166001600160a01b038416179055610726565b60405163ec64f18d60e01b815260040160405180910390fd5b50505050565b610734610f5d565b6001600160a01b0381166000908152600260205260408120805460ff19169055805b600354610765906001906116ed565b8110156107bd57826001600160a01b03166003828154811061078957610789611706565b6000918252602090912001546001600160a01b0316036107ab578091506107bd565b806107b58161171c565b915050610756565b50805b6003546107cf906001906116ed565b81101561085a5760036107e3826001611735565b815481106107f3576107f3611706565b600091825260209091200154600380546001600160a01b03909216918390811061081f5761081f611706565b600091825260209091200180546001600160a01b0319166001600160a01b0392909216919091179055806108528161171c565b9150506107c0565b506003805461086b906001906116ed565b8154811061087b5761087b611706565b600091825260209091200180546001600160a01b031916905560038054806108a5576108a5611748565b600082815260209020810160001990810180546001600160a01b03191690550190555050565b82516000908152600460205260409020600201546060906001600160a01b0316610929575060408051808201909152601181527f3c672069643d226465636f223e3c2f673e000000000000000000000000000000602082015261047f565b8351600090815260046020819052604091829020600201548651925163a5d5a10b60e01b81526001600160a01b039091169263a5d5a10b926104379289918991899101611585565b6003818154811061098157600080fd5b6000918252602090912001546001600160a01b0316905081565b6109a3610f5d565b60405133904780156108fc02916000818181858888f193505050501580156109cf573d6000803e3d6000fd5b50565b60606003805480602002602001604051908101604052809291908181526020018280548015610a2a57602002820191906000526020600020905b81546001600160a01b03168152600190910190602001808311610a0c575b5050505050905090565b60005b8151811015610aa957610a9785858381518110610a5657610a56611706565b6020026020010151858481518110610a7057610a70611706565b6020026020010151858581518110610a8a57610a8a611706565b6020026020010151610486565b80610aa18161171c565b915050610a37565b5050505050565b610ab8610f5d565b610ac26000610fb7565b565b610acc610f5d565b6040517fa9059cbb000000000000000000000000000000000000000000000000000000008152336004820152602481018290526001600160a01b0383169063a9059cbb906044016020604051808303816000875af1158015610b32573d6000803e3d6000fd5b505050506040513d601f19601f82011682018060405250810190610b56919061175e565b505050565b606080600060038054905067ffffffffffffffff811115610b7e57610b7e611099565b604051908082528060200260200182016040528015610ba7578160200160208202803683370190505b5060035490915060009067ffffffffffffffff811115610bc957610bc9611099565b604051908082528060200260200182016040528015610bf2578160200160208202803683370190505b50905060005b60035460ff82161015610d9657600060038260ff1681548110610c1d57610c1d611706565b6000918252602090912001546040517f70a082310000000000000000000000000000000000000000000000000000000081526001600160a01b038981166004830152909116906370a0823190602401602060405180830381865afa158015610c89573d6000803e3d6000fd5b505050506040513d601f19601f82011682018060405250810190610cad919061177b565b1115610d845760038160ff1681548110610cc957610cc9611706565b9060005260206000200160009054906101000a90046001600160a01b0316838260ff1681518110610cfc57610cfc611706565b60200260200101906001600160a01b031690816001600160a01b0316815250506002600060038360ff1681548110610d3657610d36611706565b60009182526020808320909101546001600160a01b03168352820192909252604001902054825160ff918216918491908416908110610d7757610d77611706565b6020026020010181815250505b80610d8e81611794565b915050610bf8565b509094909350915050565b610da9610f5d565b60005b600354811015610e185760006002600060038481548110610dcf57610dcf611706565b6000918252602080832091909101546001600160a01b031683528201929092526040019020805460ff191660ff9290921691909117905580610e108161171c565b915050610dac565b50610ac260036000611007565b610e2d610f5d565b6001600160a01b038116610eae5760405162461bcd60e51b815260206004820152602660248201527f4f776e61626c653a206e6577206f776e657220697320746865207a65726f206160448201527f646472657373000000000000000000000000000000000000000000000000000060648201526084015b60405180910390fd5b6109cf81610fb7565b82516000908152600460205260409020600101546060906001600160a01b0316610f15575060408051808201909152601481527f3c672069643d22736b796d617468223e3c2f673e000000000000000000000000602082015261047f565b8351600090815260046020819052604091829020600101548651925163a5d5a10b60e01b81526001600160a01b039091169263a5d5a10b926104379289918991899101611585565b6000546001600160a01b03163314610ac25760405162461bcd60e51b815260206004820181905260248201527f4f776e61626c653a2063616c6c6572206973206e6f7420746865206f776e65726044820152606401610ea5565b600080546001600160a01b038381166001600160a01b0319831681178455604051919092169283917f8be0079c531659141344cd1fd0a4f28419497f9722a3daafe3b4186f6b6457e09190a35050565b50805460008255906000526020600020908101906109cf91905b808211156110355760008155600101611021565b5090565b6001600160a01b03811681146109cf57600080fd5b803560ff8116811461105f57600080fd5b919050565b6000806040838503121561107757600080fd5b823561108281611039565b91506110906020840161104e565b90509250929050565b634e487b7160e01b600052604160045260246000fd5b604051610120810167ffffffffffffffff811182821017156110d3576110d3611099565b60405290565b604051601f8201601f1916810167ffffffffffffffff8111828210171561110257611102611099565b604052919050565b803561ffff8116811461105f57600080fd5b80151581146109cf57600080fd5b803561105f8161111c565b600080600083850361016081121561114c57600080fd5b6101208082121561115c57600080fd5b6111646110af565b9150853582526111766020870161110a565b60208301526111876040870161110a565b60408301526111986060870161104e565b60608301526111a96080870161104e565b608083015260a0868101359083015260c0808701359083015260e08087013590830152610100808701359083015290935084013591506111ec610140850161112a565b90509250925092565b60005b838110156112105781810151838201526020016111f8565b50506000910152565b60208152600082518060208401526112388160408501602087016111f5565b601f01601f19169190910160400192915050565b6000806000806080858703121561126257600080fd5b843593506112726020860161104e565b9250604085013561128281611039565b9396929550929360600135925050565b6000602082840312156112a457600080fd5b813561047f81611039565b6000602082840312156112c157600080fd5b5035919050565b600081518084526020808501945080840160005b838110156113015781516001600160a01b0316875295820195908201906001016112dc565b509495945050505050565b60208152600061047f60208301846112c8565b600067ffffffffffffffff82111561133957611339611099565b5060051b60200190565b600082601f83011261135457600080fd5b813560206113696113648361131f565b6110d9565b82815260059290921b8401810191818101908684111561138857600080fd5b8286015b848110156113ac57803561139f81611039565b835291830191830161138c565b509695505050505050565b600082601f8301126113c857600080fd5b813560206113d86113648361131f565b82815260059290921b840181019181810190868411156113f757600080fd5b8286015b848110156113ac57803583529183019183016113fb565b6000806000806080858703121561142857600080fd5b8435935060208086013567ffffffffffffffff8082111561144857600080fd5b818801915088601f83011261145c57600080fd5b813561146a6113648261131f565b81815260059190911b8301840190848101908b83111561148957600080fd5b938501935b828510156114ae5761149f8561104e565b8252938501939085019061148e565b9750505060408801359250808311156114c657600080fd5b6114d289848a01611343565b945060608801359250808311156114e857600080fd5b50506114f6878288016113b7565b91505092959194509250565b6000806040838503121561151557600080fd5b823561152081611039565b946020939093013593505050565b60408152600061154160408301856112c8565b82810360208481019190915284518083528582019282019060005b818110156115785784518352938301939183019160010161155c565b5090979650505050505050565b60006101808201905085825284516020830152602085015161ffff8082166040850152806040880151166060850152505060608501516115ca608084018260ff169052565b50608085015160ff811660a08401525060a085015160c083015260c085015160e083015260e085015161010081818501528087015161012085015250508361014083015261161d61016083018415159052565b95945050505050565b60006020828403121561163857600080fd5b815167ffffffffffffffff8082111561165057600080fd5b818401915084601f83011261166457600080fd5b81518181111561167657611676611099565b611689601f8201601f19166020016110d9565b91508082528560208285010111156116a057600080fd5b6116b18160208401602086016111f5565b50949350505050565b6000602082840312156116cc57600080fd5b815161047f81611039565b634e487b7160e01b600052601160045260246000fd5b81810381811115611700576117006116d7565b92915050565b634e487b7160e01b600052603260045260246000fd5b60006001820161172e5761172e6116d7565b5060010190565b80820180821115611700576117006116d7565b634e487b7160e01b600052603160045260246000fd5b60006020828403121561177057600080fd5b815161047f8161111c565b60006020828403121561178d57600080fd5b5051919050565b600060ff821660ff81036117aa576117aa6116d7565b6001019291505056fea2646970667358221220bca305ad1103560832fc2e0850a7e691fd3032a713d090960a0e87792f460b3464736f6c63430008120033",
  "libraries": {
    "Color": "0x68AD5E2e4709849e1730aFF98C9b78648EF2752d",
    "Constellations": "0xA7Ab6592Ebc9193281899c374F690EBeeb463D5f"
  },
  "devdoc": {
    "kind": "dev",
    "methods": {
      "owner()": {
        "details": "Returns the address of the current owner."
      },
      "renounceOwnership()": {
        "details": "Leaves the contract without owner. It will not be possible to call `onlyOwner` functions anymore. Can only be called by the current owner. NOTE: Renouncing ownership will leave the contract without an owner, thereby removing any functionality that is only available to the owner."
      },
      "transferOwnership(address)": {
        "details": "Transfers ownership of the contract to a new account (`newOwner`). Can only be called by the current owner."
      }
    },
    "version": 1
  },
  "userdoc": {
    "kind": "user",
    "methods": {},
    "version": 1
  },
  "storageLayout": {
    "storage": [
      {
        "astId": 7,
        "contract": "contracts/chainellations/Decorations.sol:Decorations",
        "label": "_owner",
        "offset": 0,
        "slot": "0",
        "type": "t_address"
      },
      {
        "astId": 7309,
        "contract": "contracts/chainellations/Decorations.sol:Decorations",
        "label": "_chainellation",
        "offset": 0,
        "slot": "1",
        "type": "t_address"
      },
      {
        "astId": 7313,
        "contract": "contracts/chainellations/Decorations.sol:Decorations",
        "label": "_slot",
        "offset": 0,
        "slot": "2",
        "type": "t_mapping(t_address,t_uint8)"
      },
      {
        "astId": 7316,
        "contract": "contracts/chainellations/Decorations.sol:Decorations",
        "label": "allDecorations",
        "offset": 0,
        "slot": "3",
        "type": "t_array(t_address)dyn_storage"
      },
      {
        "astId": 7321,
        "contract": "contracts/chainellations/Decorations.sol:Decorations",
        "label": "_decorations",
        "offset": 0,
        "slot": "4",
        "type": "t_mapping(t_uint256,t_struct(Decoration)7298_storage)"
      }
    ],
    "types": {
      "t_address": {
        "encoding": "inplace",
        "label": "address",
        "numberOfBytes": "20"
      },
      "t_array(t_address)dyn_storage": {
        "base": "t_address",
        "encoding": "dynamic_array",
        "label": "address[]",
        "numberOfBytes": "32"
      },
      "t_mapping(t_address,t_uint8)": {
        "encoding": "mapping",
        "key": "t_address",
        "label": "mapping(address => uint8)",
        "numberOfBytes": "32",
        "value": "t_uint8"
      },
      "t_mapping(t_uint256,t_struct(Decoration)7298_storage)": {
        "encoding": "mapping",
        "key": "t_uint256",
        "label": "mapping(uint256 => struct Decorations.Decoration)",
        "numberOfBytes": "32",
        "value": "t_struct(Decoration)7298_storage"
      },
      "t_struct(Decoration)7298_storage": {
        "encoding": "inplace",
        "label": "struct Decorations.Decoration",
        "members": [
          {
            "astId": 7293,
            "contract": "contracts/chainellations/Decorations.sol:Decorations",
            "label": "silhouette",
            "offset": 0,
            "slot": "0",
            "type": "t_address"
          },
          {
            "astId": 7295,
            "contract": "contracts/chainellations/Decorations.sol:Decorations",
            "label": "skyMath",
            "offset": 0,
            "slot": "1",
            "type": "t_address"
          },
          {
            "astId": 7297,
            "contract": "contracts/chainellations/Decorations.sol:Decorations",
            "label": "decorationOne",
            "offset": 0,
            "slot": "2",
            "type": "t_address"
          }
        ],
        "numberOfBytes": "96"
      },
      "t_uint256": {
        "encoding": "inplace",
        "label": "uint256",
        "numberOfBytes": "32"
      },
      "t_uint8": {
        "encoding": "inplace",
        "label": "uint8",
        "numberOfBytes": "1"
      }
    }
  }
}