{
  "address": "0x3169Bc40FB73A9EA1574f34CeCdDf4e51Da6027d",
  "abi": [
    {
      "inputs": [],
      "name": "NotOwner",
      "type": "error"
    },
    {
      "inputs": [],
      "name": "SoulBound",
      "type": "error"
    },
    {
      "inputs": [
        {
          "internalType": "address",
          "name": "owner",
          "type": "address"
        }
      ],
      "name": "balanceOf",
      "outputs": [
        {
          "internalType": "uint256",
          "name": "",
          "type": "uint256"
        }
      ],
      "stateMutability": "view",
      "type": "function"
    },
    {
      "inputs": [
        {
          "internalType": "uint256",
          "name": "groundSeed",
          "type": "uint256"
        },
        {
          "components": [
            {
              "internalType": "uint16",
              "name": "H",
              "type": "uint16"
            },
            {
              "internalType": "uint16",
              "name": "S",
              "type": "uint16"
            },
            {
              "internalType": "uint16",
              "name": "L",
              "type": "uint16"
            }
          ],
          "internalType": "struct Color.HSL",
          "name": "primary",
          "type": "tuple"
        }
      ],
      "name": "buildMountains",
      "outputs": [
        {
          "internalType": "string",
          "name": "",
          "type": "string"
        }
      ],
      "stateMutability": "pure",
      "type": "function"
    },
    {
      "inputs": [
        {
          "internalType": "uint256",
          "name": "tokenId",
          "type": "uint256"
        }
      ],
      "name": "generateCharacter",
      "outputs": [
        {
          "internalType": "string",
          "name": "",
          "type": "string"
        }
      ],
      "stateMutability": "view",
      "type": "function"
    },
    {
      "inputs": [
        {
          "internalType": "uint256",
          "name": "tokenId",
          "type": "uint256"
        },
        {
          "components": [
            {
              "internalType": "uint256",
              "name": "tokenId",
              "type": "uint256"
            },
            {
              "internalType": "uint16",
              "name": "primaryHue",
              "type": "uint16"
            },
            {
              "internalType": "uint16",
              "name": "secondaryHue",
              "type": "uint16"
            },
            {
              "internalType": "uint256",
              "name": "starSeed",
              "type": "uint256"
            },
            {
              "internalType": "uint256",
              "name": "funkSeed",
              "type": "uint256"
            },
            {
              "internalType": "uint256",
              "name": "circleSeed",
              "type": "uint256"
            },
            {
              "internalType": "uint256",
              "name": "groundSeed",
              "type": "uint256"
            },
            {
              "internalType": "uint256",
              "name": "constellationSeed",
              "type": "uint256"
            }
          ],
          "internalType": "struct Color.DNA",
          "name": "dna",
          "type": "tuple"
        },
        {
          "internalType": "uint256",
          "name": "gazes",
          "type": "uint256"
        },
        {
          "internalType": "bool",
          "name": "daytime",
          "type": "bool"
        }
      ],
      "name": "getDeco",
      "outputs": [
        {
          "internalType": "string",
          "name": "",
          "type": "string"
        }
      ],
      "stateMutability": "pure",
      "type": "function"
    },
    {
      "inputs": [
        {
          "internalType": "uint256",
          "name": "tokenId",
          "type": "uint256"
        }
      ],
      "name": "getMetadata",
      "outputs": [
        {
          "internalType": "string",
          "name": "",
          "type": "string"
        }
      ],
      "stateMutability": "view",
      "type": "function"
    },
    {
      "inputs": [
        {
          "internalType": "uint256",
          "name": "groundSeed",
          "type": "uint256"
        },
        {
          "internalType": "uint16",
          "name": "nonce",
          "type": "uint16"
        },
        {
          "internalType": "uint16",
          "name": "height",
          "type": "uint16"
        },
        {
          "components": [
            {
              "internalType": "uint16",
              "name": "H",
              "type": "uint16"
            },
            {
              "internalType": "uint16",
              "name": "S",
              "type": "uint16"
            },
            {
              "internalType": "uint16",
              "name": "L",
              "type": "uint16"
            }
          ],
          "internalType": "struct Color.HSL",
          "name": "background",
          "type": "tuple"
        }
      ],
      "name": "getSingleMountain",
      "outputs": [
        {
          "internalType": "string",
          "name": "",
          "type": "string"
        }
      ],
      "stateMutability": "pure",
      "type": "function"
    },
    {
      "inputs": [
        {
          "internalType": "uint256",
          "name": "groundSeed",
          "type": "uint256"
        },
        {
          "internalType": "uint16",
          "name": "nonce",
          "type": "uint16"
        }
      ],
      "name": "getXCoordsArray",
      "outputs": [
        {
          "internalType": "uint16[]",
          "name": "",
          "type": "uint16[]"
        }
      ],
      "stateMutability": "pure",
      "type": "function"
    },
    {
      "inputs": [
        {
          "internalType": "uint256",
          "name": "groundSeed",
          "type": "uint256"
        },
        {
          "internalType": "uint256",
          "name": "nonce",
          "type": "uint256"
        },
        {
          "internalType": "uint16",
          "name": "height",
          "type": "uint16"
        },
        {
          "internalType": "uint16[]",
          "name": "inputArray",
          "type": "uint16[]"
        }
      ],
      "name": "getYCoords2",
      "outputs": [
        {
          "internalType": "uint16[]",
          "name": "",
          "type": "uint16[]"
        }
      ],
      "stateMutability": "pure",
      "type": "function"
    },
    {
      "inputs": [
        {
          "internalType": "uint256",
          "name": "tokenId",
          "type": "uint256"
        }
      ],
      "name": "ownerOf",
      "outputs": [
        {
          "internalType": "address",
          "name": "",
          "type": "address"
        }
      ],
      "stateMutability": "view",
      "type": "function"
    },
    {
      "inputs": [
        {
          "internalType": "uint256",
          "name": "tokenId",
          "type": "uint256"
        },
        {
          "components": [
            {
              "internalType": "uint256",
              "name": "tokenId",
              "type": "uint256"
            },
            {
              "internalType": "uint16",
              "name": "primaryHue",
              "type": "uint16"
            },
            {
              "internalType": "uint16",
              "name": "secondaryHue",
              "type": "uint16"
            },
            {
              "internalType": "uint256",
              "name": "starSeed",
              "type": "uint256"
            },
            {
              "internalType": "uint256",
              "name": "funkSeed",
              "type": "uint256"
            },
            {
              "internalType": "uint256",
              "name": "circleSeed",
              "type": "uint256"
            },
            {
              "internalType": "uint256",
              "name": "groundSeed",
              "type": "uint256"
            },
            {
              "internalType": "uint256",
              "name": "constellationSeed",
              "type": "uint256"
            }
          ],
          "internalType": "struct Color.DNA",
          "name": "dna",
          "type": "tuple"
        },
        {
          "internalType": "uint256",
          "name": "gazes",
          "type": "uint256"
        },
        {
          "internalType": "bool",
          "name": "daytime",
          "type": "bool"
        }
      ],
      "name": "packageAsSVG",
      "outputs": [
        {
          "internalType": "string",
          "name": "",
          "type": "string"
        }
      ],
      "stateMutability": "view",
      "type": "function"
    },
    {
      "inputs": [
        {
          "internalType": "uint256",
          "name": "tokenId",
          "type": "uint256"
        }
      ],
      "name": "soulbind",
      "outputs": [],
      "stateMutability": "nonpayable",
      "type": "function"
    },
    {
      "inputs": [
        {
          "internalType": "uint256",
          "name": "",
          "type": "uint256"
        }
      ],
      "name": "soulbound",
      "outputs": [
        {
          "internalType": "bool",
          "name": "",
          "type": "bool"
        }
      ],
      "stateMutability": "view",
      "type": "function"
    },
    {
      "inputs": [
        {
          "internalType": "uint256",
          "name": "tokenId",
          "type": "uint256"
        }
      ],
      "name": "tokenURI",
      "outputs": [
        {
          "internalType": "string",
          "name": "",
          "type": "string"
        }
      ],
      "stateMutability": "view",
      "type": "function"
    }
  ],
  "transactionHash": "0x35056f4ed353df13be3578b41d78afd6c4d756b55ccefc5c4567bd8f18df75f9",
  "args": [],
  "numDeployments": 1,
  "solcInputHash": "024556009ac9c877de40b16c8147d315",
  "bytecode": "0x608060405234801561001057600080fd5b50612773806100206000396000f3fe608060405234801561001057600080fd5b50600436106100df5760003560e01c80638036d1351161008c578063a574cea411610066578063a574cea41461021e578063b3dcf5da14610231578063c87b56dd14610244578063e87e3a2b1461025757600080fd5b80638036d135146101d85780639ecc95a9146101eb5780639ffab72a146101fe57600080fd5b80636352211e116100bd5780636352211e1461014b57806370a08231146101835780637a181597146101a557600080fd5b806306febcba146100e45780630daefed51461010f5780633792591914610138575b600080fd5b61010d6100f236600461192b565b6000908152602081905260409020805460ff19166001179055565b005b61012261011d36600461192b565b61026a565b60405161012f9190611968565b60405180910390f35b610122610146366004611a3f565b6103d3565b61015e61015936600461192b565b503290565b60405173ffffffffffffffffffffffffffffffffffffffff909116815260200161012f565b610197610191366004611afa565b50600190565b60405190815260200161012f565b6101c86101b336600461192b565b60006020819052908152604090205460ff1681565b604051901515815260200161012f565b6101226101e6366004611bad565b610438565b6101226101f9366004611a3f565b610d3a565b61021161020c366004611bf4565b610d58565b60405161012f9190611ccc565b61012261022c36600461192b565b611182565b61021161023f366004611d14565b6111b3565b61012261025236600461192b565b611412565b610122610265366004611d44565b61147a565b6060600073bB158e58EE3b8fb58335E9E3B076240205333C726380b1b86c8473bB158e58EE3b8fb58335E9E3B076240205333C72638f6aa355876040518263ffffffff1660e01b81526004016102c291815260200190565b602060405180830381865af41580156102df573d6000803e3d6000fd5b505050506040513d601f19601f820116820180604052508101906103039190611d71565b6040516001600160e01b031960e085901b168152600481019290925263ffffffff16602482015260440161010060405180830381865af415801561034b573d6000803e3d6000fd5b505050506040513d601f19601f8201168201806040525081019061036f9190611d97565b90506000610381848360006001610d3a565b6040516020016103919190611e36565b60405160208183030381529060405290506103ab81611656565b6040516020016103bb9190611e52565b60405160208183030381529060405292505050919050565b606061040f8460c001516040518060600160405280876020015161ffff168152602001606461ffff168152602001601e61ffff1681525061147a565b60405160200161041f9190611e97565b6040516020818303038152906040529050949350505050565b6060600061044686866111b3565b9050600061045a878761ffff168785610d58565b90506000826001845161046d9190611fb1565b8151811061047d5761047d611fc4565b60200260200101516102006104929190611ff0565b61049d906001612011565b9050600073bB158e58EE3b8fb58335E9E3B076240205333C72631b0d4b4d83866000815181106104cf576104cf611fc4565b60200260200101516104e19190612033565b6040516001600160e01b031960e084901b16815261ffff9091166004820152602401600060405180830381865af4158015610520573d6000803e3d6000fd5b505050506040513d6000823e601f3d908101601f191682016040526105489190810190612059565b73bB158e58EE3b8fb58335E9E3B076240205333C72631b0d4b4d8560008151811061057557610575611fc4565b60200260200101516040518263ffffffff1660e01b81526004016105a3919061ffff91909116815260200190565b600060405180830381865af41580156105c0573d6000803e3d6000fd5b505050506040513d6000823e601f3d908101601f191682016040526105e89190810190612059565b6040516020016105f99291906120e4565b60408051601f19818403018152919052905060015b84518161ffff161015610b77578173bB158e58EE3b8fb58335E9E3B076240205333C72631b0d4b4d6002868961064560018861214a565b61ffff168151811061065957610659611fc4565b602002602001015161066b9190612033565b878a8761ffff168151811061068257610682611fc4565b60200260200101516106949190612033565b61069e919061214a565b6106a89190611ff0565b86896106b560018861214a565b61ffff16815181106106c9576106c9611fc4565b60200260200101516106db9190612033565b6106e59190612011565b6040516001600160e01b031960e084901b16815261ffff9091166004820152602401600060405180830381865af4158015610724573d6000803e3d6000fd5b505050506040513d6000823e601f3d908101601f1916820160405261074c9190810190612059565b73bB158e58EE3b8fb58335E9E3B076240205333C72631b0d4b4d610771600288611ff0565b888661ffff168151811061078757610787611fc4565b6020026020010151610799919061214a565b6040516001600160e01b031960e084901b16815261ffff9091166004820152602401600060405180830381865af41580156107d8573d6000803e3d6000fd5b505050506040513d6000823e601f3d908101601f191682016040526108009190810190612059565b73bB158e58EE3b8fb58335E9E3B076240205333C72631b0d4b4d6002888b61082960018a61214a565b61ffff168151811061083d5761083d611fc4565b602002602001015161084f9190612033565b898c8961ffff168151811061086657610866611fc4565b60200260200101516108789190612033565b610882919061214a565b61088c9190611ff0565b888b61089960018a61214a565b61ffff16815181106108ad576108ad611fc4565b60200260200101516108bf9190612033565b6108c99190612011565b6040516001600160e01b031960e084901b16815261ffff9091166004820152602401600060405180830381865af4158015610908573d6000803e3d6000fd5b505050506040513d6000823e601f3d908101601f191682016040526109309190810190612059565b73bB158e58EE3b8fb58335E9E3B076240205333C72631b0d4b4d61095560028a611ff0565b8a8861ffff168151811061096b5761096b611fc4565b602002602001015161097d919061214a565b6040516001600160e01b031960e084901b16815261ffff9091166004820152602401600060405180830381865af41580156109bc573d6000803e3d6000fd5b505050506040513d6000823e601f3d908101601f191682016040526109e49190810190612059565b73bB158e58EE3b8fb58335E9E3B076240205333C72631b0d4b4d898c8961ffff1681518110610a1557610a15611fc4565b60200260200101516000610a299190612011565b610a339190612033565b6040516001600160e01b031960e084901b16815261ffff9091166004820152602401600060405180830381865af4158015610a72573d6000803e3d6000fd5b505050506040513d6000823e601f3d908101601f19168201604052610a9a9190810190612059565b73bB158e58EE3b8fb58335E9E3B076240205333C72631b0d4b4d8b8961ffff1681518110610aca57610aca611fc4565b60200260200101516040518263ffffffff1660e01b8152600401610af8919061ffff91909116815260200190565b600060405180830381865af4158015610b15573d6000803e3d6000fd5b505050506040513d6000823e601f3d908101601f19168201604052610b3d9190810190612059565b604051602001610b539796959493929190612165565b60405160208183030381529060405291508080610b6f9061225a565b91505061060e565b508073bB158e58EE3b8fb58335E9E3B076240205333C7263d7ec08e78b8b8760018951610ba49190611fb1565b81518110610bb457610bb4611fc4565b60209081029190910101516040516001600160e01b031960e086901b168152600481019390935261ffff9182166024840152166044820152600a6064820152608401600060405180830381865af4158015610c13573d6000803e3d6000fd5b505050506040513d6000823e601f3d908101601f19168201604052610c3b9190810190612059565b604051602001610c4c92919061227b565b60408051808303601f190181528282527f0fc5c9fc000000000000000000000000000000000000000000000000000000008352885161ffff908116600485015260208a0151811660248501529189015190911660448301529150819073bB158e58EE3b8fb58335E9E3B076240205333C7290630fc5c9fc90606401600060405180830381865af4158015610ce4573d6000803e3d6000fd5b505050506040513d6000823e601f3d908101601f19168201604052610d0c9190810190612059565b604051602001610d1d9291906122d3565b60408051808303601f190181529190529998505050505050505050565b6060610d48858585856103d3565b60405160200161041f9190612355565b60606000825167ffffffffffffffff811115610d7657610d7661199b565b604051908082528060200260200182016040528015610d9f578160200160208202803683370190505b509050600073bB158e58EE3b8fb58335E9E3B076240205333C7263210636e9888860028851610dce91906123e7565b6040516001600160e01b031960e086901b1681526004810193909352602483019190915261ffff16604482015260026064820152608401602060405180830381865af4158015610e22573d6000803e3d6000fd5b505050506040513d601f19601f82011682018060405250810190610e4691906123fb565b90506000808690506000600190508785600081518110610e6857610e68611fc4565b61ffff9092166020928302919091019091015260015b87518161ffff161015611173578461ffff168161ffff1603610ed657610ea5836005612011565b868261ffff1681518110610ebb57610ebb611fc4565b602002602001019061ffff16908161ffff1681525050611161565b8461ffff168161ffff161015610eef5760019150610f04565b8461ffff168161ffff161115610f0457600091505b61ffff81161580610f685750600288610f1e60018461214a565b61ffff1681518110610f3257610f32611fc4565b6020026020010151898361ffff1681518110610f5057610f50611fc4565b6020026020010151610f62919061214a565b61ffff16105b80610f76575060048460ff16105b156110605773bB158e58EE3b8fb58335E9E3B076240205333C7263210636e98c610fa461ffff85168e612418565b6040516001600160e01b031960e085901b1681526004810192909252602482015261ffff8616604482015260056064820152608401602060405180830381865af4158015610ff6573d6000803e3d6000fd5b505050506040513d601f19601f8201168201806040525081019061101a91906123fb565b611025906003612011565b868261ffff168151811061103b5761103b611fc4565b61ffff90921660209283029190910190910152836110588161242f565b945050611161565b81156110785761107183600a612011565b9250611086565b611083600a8461214a565b92505b73bB158e58EE3b8fb58335E9E3B076240205333C7263210636e98c6110af61ffff85168e612418565b6040516001600160e01b031960e085901b1681526004810192909252602482015261ffff8616604482015260076064820152608401602060405180830381865af4158015611101573d6000803e3d6000fd5b505050506040513d601f19601f8201168201806040525081019061112591906123fb565b611130906008612011565b868261ffff168151811061114657611146611fc4565b602002602001019061ffff16908161ffff1681525050600093505b8061116b8161225a565b915050610e7e565b50939998505050505050505050565b606061118d826117a9565b60405160200161119d919061244e565b6040516020818303038152906040529050919050565b6040517f3a20c8790000000000000000000000000000000000000000000000000000000081526004810183905261ffff8216602482015260609060009060149073bB158e58EE3b8fb58335E9E3B076240205333C7290633a20c87990604401602060405180830381865af415801561122f573d6000803e3d6000fd5b505050506040513d601f19601f820116820180604052508101906112539190612552565b61125d919061256b565b61126890601261257f565b905060008161ffff1667ffffffffffffffff8111156112895761128961199b565b6040519080825280602002602001820160405280156112b2578160200160208202803683370190505b5090506000816000815181106112ca576112ca611fc4565b61ffff9092166020928302919091019091015260015b8261ffff168161ffff1610156114075773bB158e58EE3b8fb58335E9E3B076240205333C7263dcaa2044876113158489612033565b8561132160018761214a565b61ffff168151811061133557611335611fc4565b602002602001015160016113499190612011565b6040516001600160e01b031960e086901b168152600481019390935261ffff918216602484015216604482015260056064820152608401602060405180830381865af415801561139d573d6000803e3d6000fd5b505050506040513d601f19601f820116820180604052508101906113c191906123fb565b6113cc906001612011565b828261ffff16815181106113e2576113e2611fc4565b61ffff90921660209283029190910190910152806113ff8161225a565b9150506112e0565b509150505b92915050565b6060600061141f83611182565b6114288461026a565b604051602001611439929190612592565b604051602081830303815290604052905061145381611656565b6040516020016114639190612689565b604051602081830303815290604052915050919050565b604080516020808201835260008252603290840181905260149284018390526060928492919060015b60048161ffff1610156116405773bB158e58EE3b8fb58335E9E3B076240205333C72633329f04f836114d6846001612011565b6114e1906005612033565b6040516001600160e01b031960e085901b16815261ffff928316600482015291166024820152604401602060405180830381865af4158015611527573d6000803e3d6000fd5b505050506040513d601f19601f8201168201806040525081019061154b91906123fb565b61ffff1660408601528361160b898373bB158e58EE3b8fb58335E9E3B076240205333C7263dcaa20448383611581816032612033565b6040516001600160e01b031960e086901b168152600481019390935261ffff918216602484015216604482015260146064820152608401602060405180830381865af41580156115d5573d6000803e3d6000fd5b505050506040513d601f19601f820116820180604052508101906115f991906123fb565b6116059061010e612011565b89610438565b60405160200161161c9291906126ce565b604051602081830303815290604052935080806116389061225a565b9150506114a3565b5050600060409093019290925291505092915050565b6060815160000361167557505060408051602081019091526000815290565b60006040518060600160405280604081526020016126fe60409139905060006003845160026116a4919061257f565b6116ae91906123e7565b6116b9906004612418565b67ffffffffffffffff8111156116d1576116d161199b565b6040519080825280601f01601f1916602001820160405280156116fb576020820181803683370190505b509050600182016020820185865187015b80821015611767576003820191508151603f8160121c168501518453600184019350603f81600c1c168501518453600184019350603f8160061c168501518453600184019350603f811685015184535060018301925061170c565b505060038651066001811461178357600281146117965761179e565b603d6001830353603d600283035361179e565b603d60018303535b509195945050505050565b606060006117b683611849565b600101905060008167ffffffffffffffff8111156117d6576117d661199b565b6040519080825280601f01601f191660200182016040528015611800576020820181803683370190505b5090508181016020015b600019017f3031323334353637383961626364656600000000000000000000000000000000600a86061a8153600a850494508461180a57509392505050565b6000807a184f03e93ff9f4daa797ed6e38ed64bf6a1f0100000000000000008310611892577a184f03e93ff9f4daa797ed6e38ed64bf6a1f010000000000000000830492506040015b6d04ee2d6d415b85acef810000000083106118be576d04ee2d6d415b85acef8100000000830492506020015b662386f26fc1000083106118dc57662386f26fc10000830492506010015b6305f5e10083106118f4576305f5e100830492506008015b612710831061190857612710830492506004015b6064831061191a576064830492506002015b600a831061140c5760010192915050565b60006020828403121561193d57600080fd5b5035919050565b60005b8381101561195f578181015183820152602001611947565b50506000910152565b6020815260008251806020840152611987816040850160208701611944565b601f01601f19169190910160400192915050565b634e487b7160e01b600052604160045260246000fd5b604051610100810167ffffffffffffffff811182821017156119d5576119d561199b565b60405290565b604051601f8201601f1916810167ffffffffffffffff81118282101715611a0457611a0461199b565b604052919050565b61ffff81168114611a1c57600080fd5b50565b8035611a2a81611a0c565b919050565b80358015158114611a2a57600080fd5b600080600080848603610160811215611a5757600080fd5b8535945061010080601f1983011215611a6f57600080fd5b611a776119b1565b9150602087013582526040870135611a8e81611a0c565b6020830152611a9f60608801611a1f565b60408301526080870135606083015260a0870135608083015260c087013560a083015260e087013560c08301528087013560e083015250809350506101208501359150611aef6101408601611a2f565b905092959194509250565b600060208284031215611b0c57600080fd5b813573ffffffffffffffffffffffffffffffffffffffff81168114611b3057600080fd5b9392505050565b600060608284031215611b4957600080fd5b6040516060810181811067ffffffffffffffff82111715611b6c57611b6c61199b565b6040529050808235611b7d81611a0c565b81526020830135611b8d81611a0c565b60208201526040830135611ba081611a0c565b6040919091015292915050565b60008060008060c08587031215611bc357600080fd5b843593506020850135611bd581611a0c565b92506040850135611be581611a0c565b9150611aef8660608701611b37565b60008060008060808587031215611c0a57600080fd5b8435935060208086013593506040860135611c2481611a0c565b9250606086013567ffffffffffffffff80821115611c4157600080fd5b818801915088601f830112611c5557600080fd5b813581811115611c6757611c6761199b565b8060051b9150611c788483016119db565b818152918301840191848101908b841115611c9257600080fd5b938501935b83851015611cbc5784359250611cac83611a0c565b8282529385019390850190611c97565b989b979a50959850505050505050565b6020808252825182820181905260009190848201906040850190845b81811015611d0857835161ffff1683529284019291840191600101611ce8565b50909695505050505050565b60008060408385031215611d2757600080fd5b823591506020830135611d3981611a0c565b809150509250929050565b60008060808385031215611d5757600080fd5b82359150611d688460208501611b37565b90509250929050565b600060208284031215611d8357600080fd5b815163ffffffff81168114611b3057600080fd5b60006101008284031215611daa57600080fd5b611db26119b1565b825181526020830151611dc481611a0c565b60208201526040830151611dd781611a0c565b80604083015250606083015160608201526080830151608082015260a083015160a082015260c083015160c082015260e083015160e08201528091505092915050565b60008151611e2c818560208601611944565b9290920192915050565b60008251611e48818460208701611944565b9190910192915050565b7f646174613a696d6167652f7376672b786d6c3b6261736536342c000000000000815260008251611e8a81601a850160208701611944565b91909101601a0192915050565b7f3c672069643d2273696c686f7565747465223e0000000000000000000000000081527f3c66696c7465722069643d2267223e3c666544726f70536861646f772064793d60138201527f222d352220737464446576696174696f6e3d22352220666c6f6f642d636f6c6f60338201527f723d22236666662220666c6f6f642d6f7061636974793d222e31222f3e3c2f6660538201527f696c7465723e0000000000000000000000000000000000000000000000000000607382015260008251611f67816079850160208701611944565b7f3c2f673e000000000000000000000000000000000000000000000000000000006079939091019283015250607d01919050565b634e487b7160e01b600052601160045260246000fd5b8181038181111561140c5761140c611f9b565b634e487b7160e01b600052603260045260246000fd5b634e487b7160e01b600052601260045260246000fd5b600061ffff8084168061200557612005611fda565b92169190910492915050565b61ffff81811683821601908082111561202c5761202c611f9b565b5092915050565b61ffff81811683821602808216919082811461205157612051611f9b565b505092915050565b60006020828403121561206b57600080fd5b815167ffffffffffffffff8082111561208357600080fd5b818401915084601f83011261209757600080fd5b8151818111156120a9576120a961199b565b6120bc601f8201601f19166020016119db565b91508082528560208285010111156120d357600080fd5b611407816020840160208601611944565b7f3c706174682020643d224d20000000000000000000000000000000000000000081526000835161211c81600c850160208801611944565b61016160f51b600c91840191820152835161213e81600e840160208801611944565b01600e01949350505050565b61ffff82811682821603908082111561202c5761202c611f9b565b60008851612177818460208d01611944565b7f204320000000000000000000000000000000000000000000000000000000000090830190815288516121b1816003840160208d01611944565b61016160f51b6003929091019182015287516121d4816005840160208c01611944565b600160fd1b6005929091019182015286516121f6816006840160208b01611944565b016122086006820161016160f51b9052565b6122156008820187611e1a565b600160fd1b8152905061222b6001820186611e1a565b61016160f51b815290506122426002820185611e1a565b600160fd1b81526001019a9950505050505050505050565b600061ffff80831681810361227157612271611f9b565b6001019392505050565b6000835161228d818460208801611944565b7f204c203531322c2000000000000000000000000000000000000000000000000090830190815283516122c7816008840160208801611944565b01600801949350505050565b600083516122e5818460208801611944565b7f204c203531322c20353132204c203020353132207a222066696c6c3d22000000908301908152835161231f81601d840160208801611944565b7f222066696c7465723d2275726c28236729222f3e000000000000000000000000601d9290910191820152603101949350505050565b7f3c7376672076696577426f783d2230203020353132203531322220786d6c6e7381527f3d22687474703a2f2f7777772e77332e6f72672f323030302f737667223e00006020820152600082516123b381603e850160208701611944565b7f3c2f7376673e0000000000000000000000000000000000000000000000000000603e939091019283015250604401919050565b6000826123f6576123f6611fda565b500490565b60006020828403121561240d57600080fd5b8151611b3081611a0c565b808202811582820484141761140c5761140c611f9b565b600060ff821660ff810361244557612445611f9b565b60010192915050565b7f226e616d65223a2022636861696e656c6c6174696f6e204d6f756e7461696e7381527f20230000000000000000000000000000000000000000000000000000000000006020820152600082516124ac816022850160208701611944565b7f222c00000000000000000000000000000000000000000000000000000000000060229390910192830152507f226465736372697074696f6e223a202241206d6f756e746c696e652053696c6860248201527f6f756574746520666f7220796f75722054776f204d6f6f6e73204e696768742060448201527f536b7922000000000000000000000000000000000000000000000000000000006064820152606801919050565b60006020828403121561256457600080fd5b5051919050565b60008261257a5761257a611fda565b500690565b8082018082111561140c5761140c611f9b565b7f7b000000000000000000000000000000000000000000000000000000000000008152600083516125ca816001850160208801611944565b7f2c000000000000000000000000000000000000000000000000000000000000006001918401918201527f22696d616765223a2022000000000000000000000000000000000000000000006002820152835161262d81600c840160208801611944565b7f2200000000000000000000000000000000000000000000000000000000000000600c92909101918201527f7d00000000000000000000000000000000000000000000000000000000000000600d820152600e01949350505050565b7f646174613a6170706c69636174696f6e2f6a736f6e3b6261736536342c0000008152600082516126c181601d850160208701611944565b91909101601d0192915050565b600083516126e0818460208801611944565b8351908301906126f4818360208801611944565b0194935050505056fe4142434445464748494a4b4c4d4e4f505152535455565758595a6162636465666768696a6b6c6d6e6f707172737475767778797a303132333435363738392b2fa2646970667358221220aa74edb2facba6db77e0732588d8a7cc181918e4a57f71bd1f43fa4bf81f9cff64736f6c63430008120033",
  "deployedBytecode": "0x608060405234801561001057600080fd5b50600436106100df5760003560e01c80638036d1351161008c578063a574cea411610066578063a574cea41461021e578063b3dcf5da14610231578063c87b56dd14610244578063e87e3a2b1461025757600080fd5b80638036d135146101d85780639ecc95a9146101eb5780639ffab72a146101fe57600080fd5b80636352211e116100bd5780636352211e1461014b57806370a08231146101835780637a181597146101a557600080fd5b806306febcba146100e45780630daefed51461010f5780633792591914610138575b600080fd5b61010d6100f236600461192b565b6000908152602081905260409020805460ff19166001179055565b005b61012261011d36600461192b565b61026a565b60405161012f9190611968565b60405180910390f35b610122610146366004611a3f565b6103d3565b61015e61015936600461192b565b503290565b60405173ffffffffffffffffffffffffffffffffffffffff909116815260200161012f565b610197610191366004611afa565b50600190565b60405190815260200161012f565b6101c86101b336600461192b565b60006020819052908152604090205460ff1681565b604051901515815260200161012f565b6101226101e6366004611bad565b610438565b6101226101f9366004611a3f565b610d3a565b61021161020c366004611bf4565b610d58565b60405161012f9190611ccc565b61012261022c36600461192b565b611182565b61021161023f366004611d14565b6111b3565b61012261025236600461192b565b611412565b610122610265366004611d44565b61147a565b6060600073__$11e21e6c56ca563b85c74e3fd3a08242f9$__6380b1b86c8473__$11e21e6c56ca563b85c74e3fd3a08242f9$__638f6aa355876040518263ffffffff1660e01b81526004016102c291815260200190565b602060405180830381865af41580156102df573d6000803e3d6000fd5b505050506040513d601f19601f820116820180604052508101906103039190611d71565b6040516001600160e01b031960e085901b168152600481019290925263ffffffff16602482015260440161010060405180830381865af415801561034b573d6000803e3d6000fd5b505050506040513d601f19601f8201168201806040525081019061036f9190611d97565b90506000610381848360006001610d3a565b6040516020016103919190611e36565b60405160208183030381529060405290506103ab81611656565b6040516020016103bb9190611e52565b60405160208183030381529060405292505050919050565b606061040f8460c001516040518060600160405280876020015161ffff168152602001606461ffff168152602001601e61ffff1681525061147a565b60405160200161041f9190611e97565b6040516020818303038152906040529050949350505050565b6060600061044686866111b3565b9050600061045a878761ffff168785610d58565b90506000826001845161046d9190611fb1565b8151811061047d5761047d611fc4565b60200260200101516102006104929190611ff0565b61049d906001612011565b9050600073__$11e21e6c56ca563b85c74e3fd3a08242f9$__631b0d4b4d83866000815181106104cf576104cf611fc4565b60200260200101516104e19190612033565b6040516001600160e01b031960e084901b16815261ffff9091166004820152602401600060405180830381865af4158015610520573d6000803e3d6000fd5b505050506040513d6000823e601f3d908101601f191682016040526105489190810190612059565b73__$11e21e6c56ca563b85c74e3fd3a08242f9$__631b0d4b4d8560008151811061057557610575611fc4565b60200260200101516040518263ffffffff1660e01b81526004016105a3919061ffff91909116815260200190565b600060405180830381865af41580156105c0573d6000803e3d6000fd5b505050506040513d6000823e601f3d908101601f191682016040526105e89190810190612059565b6040516020016105f99291906120e4565b60408051601f19818403018152919052905060015b84518161ffff161015610b77578173__$11e21e6c56ca563b85c74e3fd3a08242f9$__631b0d4b4d6002868961064560018861214a565b61ffff168151811061065957610659611fc4565b602002602001015161066b9190612033565b878a8761ffff168151811061068257610682611fc4565b60200260200101516106949190612033565b61069e919061214a565b6106a89190611ff0565b86896106b560018861214a565b61ffff16815181106106c9576106c9611fc4565b60200260200101516106db9190612033565b6106e59190612011565b6040516001600160e01b031960e084901b16815261ffff9091166004820152602401600060405180830381865af4158015610724573d6000803e3d6000fd5b505050506040513d6000823e601f3d908101601f1916820160405261074c9190810190612059565b73__$11e21e6c56ca563b85c74e3fd3a08242f9$__631b0d4b4d610771600288611ff0565b888661ffff168151811061078757610787611fc4565b6020026020010151610799919061214a565b6040516001600160e01b031960e084901b16815261ffff9091166004820152602401600060405180830381865af41580156107d8573d6000803e3d6000fd5b505050506040513d6000823e601f3d908101601f191682016040526108009190810190612059565b73__$11e21e6c56ca563b85c74e3fd3a08242f9$__631b0d4b4d6002888b61082960018a61214a565b61ffff168151811061083d5761083d611fc4565b602002602001015161084f9190612033565b898c8961ffff168151811061086657610866611fc4565b60200260200101516108789190612033565b610882919061214a565b61088c9190611ff0565b888b61089960018a61214a565b61ffff16815181106108ad576108ad611fc4565b60200260200101516108bf9190612033565b6108c99190612011565b6040516001600160e01b031960e084901b16815261ffff9091166004820152602401600060405180830381865af4158015610908573d6000803e3d6000fd5b505050506040513d6000823e601f3d908101601f191682016040526109309190810190612059565b73__$11e21e6c56ca563b85c74e3fd3a08242f9$__631b0d4b4d61095560028a611ff0565b8a8861ffff168151811061096b5761096b611fc4565b602002602001015161097d919061214a565b6040516001600160e01b031960e084901b16815261ffff9091166004820152602401600060405180830381865af41580156109bc573d6000803e3d6000fd5b505050506040513d6000823e601f3d908101601f191682016040526109e49190810190612059565b73__$11e21e6c56ca563b85c74e3fd3a08242f9$__631b0d4b4d898c8961ffff1681518110610a1557610a15611fc4565b60200260200101516000610a299190612011565b610a339190612033565b6040516001600160e01b031960e084901b16815261ffff9091166004820152602401600060405180830381865af4158015610a72573d6000803e3d6000fd5b505050506040513d6000823e601f3d908101601f19168201604052610a9a9190810190612059565b73__$11e21e6c56ca563b85c74e3fd3a08242f9$__631b0d4b4d8b8961ffff1681518110610aca57610aca611fc4565b60200260200101516040518263ffffffff1660e01b8152600401610af8919061ffff91909116815260200190565b600060405180830381865af4158015610b15573d6000803e3d6000fd5b505050506040513d6000823e601f3d908101601f19168201604052610b3d9190810190612059565b604051602001610b539796959493929190612165565b60405160208183030381529060405291508080610b6f9061225a565b91505061060e565b508073__$11e21e6c56ca563b85c74e3fd3a08242f9$__63d7ec08e78b8b8760018951610ba49190611fb1565b81518110610bb457610bb4611fc4565b60209081029190910101516040516001600160e01b031960e086901b168152600481019390935261ffff9182166024840152166044820152600a6064820152608401600060405180830381865af4158015610c13573d6000803e3d6000fd5b505050506040513d6000823e601f3d908101601f19168201604052610c3b9190810190612059565b604051602001610c4c92919061227b565b60408051808303601f190181528282527f0fc5c9fc000000000000000000000000000000000000000000000000000000008352885161ffff908116600485015260208a0151811660248501529189015190911660448301529150819073__$11e21e6c56ca563b85c74e3fd3a08242f9$__90630fc5c9fc90606401600060405180830381865af4158015610ce4573d6000803e3d6000fd5b505050506040513d6000823e601f3d908101601f19168201604052610d0c9190810190612059565b604051602001610d1d9291906122d3565b60408051808303601f190181529190529998505050505050505050565b6060610d48858585856103d3565b60405160200161041f9190612355565b60606000825167ffffffffffffffff811115610d7657610d7661199b565b604051908082528060200260200182016040528015610d9f578160200160208202803683370190505b509050600073__$11e21e6c56ca563b85c74e3fd3a08242f9$__63210636e9888860028851610dce91906123e7565b6040516001600160e01b031960e086901b1681526004810193909352602483019190915261ffff16604482015260026064820152608401602060405180830381865af4158015610e22573d6000803e3d6000fd5b505050506040513d601f19601f82011682018060405250810190610e4691906123fb565b90506000808690506000600190508785600081518110610e6857610e68611fc4565b61ffff9092166020928302919091019091015260015b87518161ffff161015611173578461ffff168161ffff1603610ed657610ea5836005612011565b868261ffff1681518110610ebb57610ebb611fc4565b602002602001019061ffff16908161ffff1681525050611161565b8461ffff168161ffff161015610eef5760019150610f04565b8461ffff168161ffff161115610f0457600091505b61ffff81161580610f685750600288610f1e60018461214a565b61ffff1681518110610f3257610f32611fc4565b6020026020010151898361ffff1681518110610f5057610f50611fc4565b6020026020010151610f62919061214a565b61ffff16105b80610f76575060048460ff16105b156110605773__$11e21e6c56ca563b85c74e3fd3a08242f9$__63210636e98c610fa461ffff85168e612418565b6040516001600160e01b031960e085901b1681526004810192909252602482015261ffff8616604482015260056064820152608401602060405180830381865af4158015610ff6573d6000803e3d6000fd5b505050506040513d601f19601f8201168201806040525081019061101a91906123fb565b611025906003612011565b868261ffff168151811061103b5761103b611fc4565b61ffff90921660209283029190910190910152836110588161242f565b945050611161565b81156110785761107183600a612011565b9250611086565b611083600a8461214a565b92505b73__$11e21e6c56ca563b85c74e3fd3a08242f9$__63210636e98c6110af61ffff85168e612418565b6040516001600160e01b031960e085901b1681526004810192909252602482015261ffff8616604482015260076064820152608401602060405180830381865af4158015611101573d6000803e3d6000fd5b505050506040513d601f19601f8201168201806040525081019061112591906123fb565b611130906008612011565b868261ffff168151811061114657611146611fc4565b602002602001019061ffff16908161ffff1681525050600093505b8061116b8161225a565b915050610e7e565b50939998505050505050505050565b606061118d826117a9565b60405160200161119d919061244e565b6040516020818303038152906040529050919050565b6040517f3a20c8790000000000000000000000000000000000000000000000000000000081526004810183905261ffff8216602482015260609060009060149073__$11e21e6c56ca563b85c74e3fd3a08242f9$__90633a20c87990604401602060405180830381865af415801561122f573d6000803e3d6000fd5b505050506040513d601f19601f820116820180604052508101906112539190612552565b61125d919061256b565b61126890601261257f565b905060008161ffff1667ffffffffffffffff8111156112895761128961199b565b6040519080825280602002602001820160405280156112b2578160200160208202803683370190505b5090506000816000815181106112ca576112ca611fc4565b61ffff9092166020928302919091019091015260015b8261ffff168161ffff1610156114075773__$11e21e6c56ca563b85c74e3fd3a08242f9$__63dcaa2044876113158489612033565b8561132160018761214a565b61ffff168151811061133557611335611fc4565b602002602001015160016113499190612011565b6040516001600160e01b031960e086901b168152600481019390935261ffff918216602484015216604482015260056064820152608401602060405180830381865af415801561139d573d6000803e3d6000fd5b505050506040513d601f19601f820116820180604052508101906113c191906123fb565b6113cc906001612011565b828261ffff16815181106113e2576113e2611fc4565b61ffff90921660209283029190910190910152806113ff8161225a565b9150506112e0565b509150505b92915050565b6060600061141f83611182565b6114288461026a565b604051602001611439929190612592565b604051602081830303815290604052905061145381611656565b6040516020016114639190612689565b604051602081830303815290604052915050919050565b604080516020808201835260008252603290840181905260149284018390526060928492919060015b60048161ffff1610156116405773__$11e21e6c56ca563b85c74e3fd3a08242f9$__633329f04f836114d6846001612011565b6114e1906005612033565b6040516001600160e01b031960e085901b16815261ffff928316600482015291166024820152604401602060405180830381865af4158015611527573d6000803e3d6000fd5b505050506040513d601f19601f8201168201806040525081019061154b91906123fb565b61ffff1660408601528361160b898373__$11e21e6c56ca563b85c74e3fd3a08242f9$__63dcaa20448383611581816032612033565b6040516001600160e01b031960e086901b168152600481019390935261ffff918216602484015216604482015260146064820152608401602060405180830381865af41580156115d5573d6000803e3d6000fd5b505050506040513d601f19601f820116820180604052508101906115f991906123fb565b6116059061010e612011565b89610438565b60405160200161161c9291906126ce565b604051602081830303815290604052935080806116389061225a565b9150506114a3565b5050600060409093019290925291505092915050565b6060815160000361167557505060408051602081019091526000815290565b60006040518060600160405280604081526020016126fe60409139905060006003845160026116a4919061257f565b6116ae91906123e7565b6116b9906004612418565b67ffffffffffffffff8111156116d1576116d161199b565b6040519080825280601f01601f1916602001820160405280156116fb576020820181803683370190505b509050600182016020820185865187015b80821015611767576003820191508151603f8160121c168501518453600184019350603f81600c1c168501518453600184019350603f8160061c168501518453600184019350603f811685015184535060018301925061170c565b505060038651066001811461178357600281146117965761179e565b603d6001830353603d600283035361179e565b603d60018303535b509195945050505050565b606060006117b683611849565b600101905060008167ffffffffffffffff8111156117d6576117d661199b565b6040519080825280601f01601f191660200182016040528015611800576020820181803683370190505b5090508181016020015b600019017f3031323334353637383961626364656600000000000000000000000000000000600a86061a8153600a850494508461180a57509392505050565b6000807a184f03e93ff9f4daa797ed6e38ed64bf6a1f0100000000000000008310611892577a184f03e93ff9f4daa797ed6e38ed64bf6a1f010000000000000000830492506040015b6d04ee2d6d415b85acef810000000083106118be576d04ee2d6d415b85acef8100000000830492506020015b662386f26fc1000083106118dc57662386f26fc10000830492506010015b6305f5e10083106118f4576305f5e100830492506008015b612710831061190857612710830492506004015b6064831061191a576064830492506002015b600a831061140c5760010192915050565b60006020828403121561193d57600080fd5b5035919050565b60005b8381101561195f578181015183820152602001611947565b50506000910152565b6020815260008251806020840152611987816040850160208701611944565b601f01601f19169190910160400192915050565b634e487b7160e01b600052604160045260246000fd5b604051610100810167ffffffffffffffff811182821017156119d5576119d561199b565b60405290565b604051601f8201601f1916810167ffffffffffffffff81118282101715611a0457611a0461199b565b604052919050565b61ffff81168114611a1c57600080fd5b50565b8035611a2a81611a0c565b919050565b80358015158114611a2a57600080fd5b600080600080848603610160811215611a5757600080fd5b8535945061010080601f1983011215611a6f57600080fd5b611a776119b1565b9150602087013582526040870135611a8e81611a0c565b6020830152611a9f60608801611a1f565b60408301526080870135606083015260a0870135608083015260c087013560a083015260e087013560c08301528087013560e083015250809350506101208501359150611aef6101408601611a2f565b905092959194509250565b600060208284031215611b0c57600080fd5b813573ffffffffffffffffffffffffffffffffffffffff81168114611b3057600080fd5b9392505050565b600060608284031215611b4957600080fd5b6040516060810181811067ffffffffffffffff82111715611b6c57611b6c61199b565b6040529050808235611b7d81611a0c565b81526020830135611b8d81611a0c565b60208201526040830135611ba081611a0c565b6040919091015292915050565b60008060008060c08587031215611bc357600080fd5b843593506020850135611bd581611a0c565b92506040850135611be581611a0c565b9150611aef8660608701611b37565b60008060008060808587031215611c0a57600080fd5b8435935060208086013593506040860135611c2481611a0c565b9250606086013567ffffffffffffffff80821115611c4157600080fd5b818801915088601f830112611c5557600080fd5b813581811115611c6757611c6761199b565b8060051b9150611c788483016119db565b818152918301840191848101908b841115611c9257600080fd5b938501935b83851015611cbc5784359250611cac83611a0c565b8282529385019390850190611c97565b989b979a50959850505050505050565b6020808252825182820181905260009190848201906040850190845b81811015611d0857835161ffff1683529284019291840191600101611ce8565b50909695505050505050565b60008060408385031215611d2757600080fd5b823591506020830135611d3981611a0c565b809150509250929050565b60008060808385031215611d5757600080fd5b82359150611d688460208501611b37565b90509250929050565b600060208284031215611d8357600080fd5b815163ffffffff81168114611b3057600080fd5b60006101008284031215611daa57600080fd5b611db26119b1565b825181526020830151611dc481611a0c565b60208201526040830151611dd781611a0c565b80604083015250606083015160608201526080830151608082015260a083015160a082015260c083015160c082015260e083015160e08201528091505092915050565b60008151611e2c818560208601611944565b9290920192915050565b60008251611e48818460208701611944565b9190910192915050565b7f646174613a696d6167652f7376672b786d6c3b6261736536342c000000000000815260008251611e8a81601a850160208701611944565b91909101601a0192915050565b7f3c672069643d2273696c686f7565747465223e0000000000000000000000000081527f3c66696c7465722069643d2267223e3c666544726f70536861646f772064793d60138201527f222d352220737464446576696174696f6e3d22352220666c6f6f642d636f6c6f60338201527f723d22236666662220666c6f6f642d6f7061636974793d222e31222f3e3c2f6660538201527f696c7465723e0000000000000000000000000000000000000000000000000000607382015260008251611f67816079850160208701611944565b7f3c2f673e000000000000000000000000000000000000000000000000000000006079939091019283015250607d01919050565b634e487b7160e01b600052601160045260246000fd5b8181038181111561140c5761140c611f9b565b634e487b7160e01b600052603260045260246000fd5b634e487b7160e01b600052601260045260246000fd5b600061ffff8084168061200557612005611fda565b92169190910492915050565b61ffff81811683821601908082111561202c5761202c611f9b565b5092915050565b61ffff81811683821602808216919082811461205157612051611f9b565b505092915050565b60006020828403121561206b57600080fd5b815167ffffffffffffffff8082111561208357600080fd5b818401915084601f83011261209757600080fd5b8151818111156120a9576120a961199b565b6120bc601f8201601f19166020016119db565b91508082528560208285010111156120d357600080fd5b611407816020840160208601611944565b7f3c706174682020643d224d20000000000000000000000000000000000000000081526000835161211c81600c850160208801611944565b61016160f51b600c91840191820152835161213e81600e840160208801611944565b01600e01949350505050565b61ffff82811682821603908082111561202c5761202c611f9b565b60008851612177818460208d01611944565b7f204320000000000000000000000000000000000000000000000000000000000090830190815288516121b1816003840160208d01611944565b61016160f51b6003929091019182015287516121d4816005840160208c01611944565b600160fd1b6005929091019182015286516121f6816006840160208b01611944565b016122086006820161016160f51b9052565b6122156008820187611e1a565b600160fd1b8152905061222b6001820186611e1a565b61016160f51b815290506122426002820185611e1a565b600160fd1b81526001019a9950505050505050505050565b600061ffff80831681810361227157612271611f9b565b6001019392505050565b6000835161228d818460208801611944565b7f204c203531322c2000000000000000000000000000000000000000000000000090830190815283516122c7816008840160208801611944565b01600801949350505050565b600083516122e5818460208801611944565b7f204c203531322c20353132204c203020353132207a222066696c6c3d22000000908301908152835161231f81601d840160208801611944565b7f222066696c7465723d2275726c28236729222f3e000000000000000000000000601d9290910191820152603101949350505050565b7f3c7376672076696577426f783d2230203020353132203531322220786d6c6e7381527f3d22687474703a2f2f7777772e77332e6f72672f323030302f737667223e00006020820152600082516123b381603e850160208701611944565b7f3c2f7376673e0000000000000000000000000000000000000000000000000000603e939091019283015250604401919050565b6000826123f6576123f6611fda565b500490565b60006020828403121561240d57600080fd5b8151611b3081611a0c565b808202811582820484141761140c5761140c611f9b565b600060ff821660ff810361244557612445611f9b565b60010192915050565b7f226e616d65223a2022636861696e656c6c6174696f6e204d6f756e7461696e7381527f20230000000000000000000000000000000000000000000000000000000000006020820152600082516124ac816022850160208701611944565b7f222c00000000000000000000000000000000000000000000000000000000000060229390910192830152507f226465736372697074696f6e223a202241206d6f756e746c696e652053696c6860248201527f6f756574746520666f7220796f75722054776f204d6f6f6e73204e696768742060448201527f536b7922000000000000000000000000000000000000000000000000000000006064820152606801919050565b60006020828403121561256457600080fd5b5051919050565b60008261257a5761257a611fda565b500690565b8082018082111561140c5761140c611f9b565b7f7b000000000000000000000000000000000000000000000000000000000000008152600083516125ca816001850160208801611944565b7f2c000000000000000000000000000000000000000000000000000000000000006001918401918201527f22696d616765223a2022000000000000000000000000000000000000000000006002820152835161262d81600c840160208801611944565b7f2200000000000000000000000000000000000000000000000000000000000000600c92909101918201527f7d00000000000000000000000000000000000000000000000000000000000000600d820152600e01949350505050565b7f646174613a6170706c69636174696f6e2f6a736f6e3b6261736536342c0000008152600082516126c181601d850160208701611944565b91909101601d0192915050565b600083516126e0818460208801611944565b8351908301906126f4818360208801611944565b0194935050505056fe4142434445464748494a4b4c4d4e4f505152535455565758595a6162636465666768696a6b6c6d6e6f707172737475767778797a303132333435363738392b2fa2646970667358221220aa74edb2facba6db77e0732588d8a7cc181918e4a57f71bd1f43fa4bf81f9cff64736f6c63430008120033",
  "libraries": {
    "Color": "0xbB158e58EE3b8fb58335E9E3B076240205333C72"
  },
  "devdoc": {
    "kind": "dev",
    "methods": {},
    "version": 1
  },
  "userdoc": {
    "kind": "user",
    "methods": {},
    "version": 1
  },
  "storageLayout": {
    "storage": [
      {
        "astId": 13815,
        "contract": "contracts/chainellations/decos/MountainLine.sol:MountainLine",
        "label": "soulbound",
        "offset": 0,
        "slot": "0",
        "type": "t_mapping(t_uint256,t_bool)"
      }
    ],
    "types": {
      "t_bool": {
        "encoding": "inplace",
        "label": "bool",
        "numberOfBytes": "1"
      },
      "t_mapping(t_uint256,t_bool)": {
        "encoding": "mapping",
        "key": "t_uint256",
        "label": "mapping(uint256 => bool)",
        "numberOfBytes": "32",
        "value": "t_bool"
      },
      "t_uint256": {
        "encoding": "inplace",
        "label": "uint256",
        "numberOfBytes": "32"
      }
    }
  }
}