{
  "address": "0x14953065010Aec491AEa53E601501Bc32437eA34",
  "abi": [
    {
      "inputs": [],
      "name": "NotOwner",
      "type": "error"
    },
    {
      "inputs": [],
      "name": "SoulBound",
      "type": "error"
    },
    {
      "inputs": [
        {
          "internalType": "address",
          "name": "owner",
          "type": "address"
        }
      ],
      "name": "balanceOf",
      "outputs": [
        {
          "internalType": "uint256",
          "name": "",
          "type": "uint256"
        }
      ],
      "stateMutability": "view",
      "type": "function"
    },
    {
      "inputs": [
        {
          "internalType": "uint256",
          "name": "groundSeed",
          "type": "uint256"
        },
        {
          "components": [
            {
              "internalType": "uint16",
              "name": "H",
              "type": "uint16"
            },
            {
              "internalType": "uint16",
              "name": "S",
              "type": "uint16"
            },
            {
              "internalType": "uint16",
              "name": "L",
              "type": "uint16"
            }
          ],
          "internalType": "struct Color.HSL",
          "name": "primary",
          "type": "tuple"
        }
      ],
      "name": "buildMountains",
      "outputs": [
        {
          "internalType": "string",
          "name": "",
          "type": "string"
        }
      ],
      "stateMutability": "pure",
      "type": "function"
    },
    {
      "inputs": [
        {
          "internalType": "uint256",
          "name": "tokenId",
          "type": "uint256"
        }
      ],
      "name": "generateCharacter",
      "outputs": [
        {
          "internalType": "string",
          "name": "",
          "type": "string"
        }
      ],
      "stateMutability": "view",
      "type": "function"
    },
    {
      "inputs": [
        {
          "internalType": "uint256",
          "name": "tokenId",
          "type": "uint256"
        },
        {
          "components": [
            {
              "internalType": "uint256",
              "name": "tokenId",
              "type": "uint256"
            },
            {
              "internalType": "uint16",
              "name": "primaryHue",
              "type": "uint16"
            },
            {
              "internalType": "uint16",
              "name": "secondaryHue",
              "type": "uint16"
            },
            {
              "internalType": "uint8",
              "name": "constellation",
              "type": "uint8"
            },
            {
              "internalType": "uint8",
              "name": "cloudsAt",
              "type": "uint8"
            },
            {
              "internalType": "uint256",
              "name": "starSeed",
              "type": "uint256"
            },
            {
              "internalType": "uint256",
              "name": "funkSeed",
              "type": "uint256"
            },
            {
              "internalType": "uint256",
              "name": "circleSeed",
              "type": "uint256"
            },
            {
              "internalType": "uint256",
              "name": "groundSeed",
              "type": "uint256"
            }
          ],
          "internalType": "struct Color.DNA",
          "name": "dna",
          "type": "tuple"
        },
        {
          "internalType": "uint256",
          "name": "gazes",
          "type": "uint256"
        },
        {
          "internalType": "bool",
          "name": "daytime",
          "type": "bool"
        }
      ],
      "name": "getDeco",
      "outputs": [
        {
          "internalType": "string",
          "name": "",
          "type": "string"
        }
      ],
      "stateMutability": "pure",
      "type": "function"
    },
    {
      "inputs": [
        {
          "internalType": "uint256",
          "name": "tokenId",
          "type": "uint256"
        }
      ],
      "name": "getMetadata",
      "outputs": [
        {
          "internalType": "string",
          "name": "",
          "type": "string"
        }
      ],
      "stateMutability": "view",
      "type": "function"
    },
    {
      "inputs": [
        {
          "internalType": "uint256",
          "name": "groundSeed",
          "type": "uint256"
        },
        {
          "internalType": "uint16",
          "name": "nonce",
          "type": "uint16"
        },
        {
          "internalType": "uint16",
          "name": "height",
          "type": "uint16"
        },
        {
          "components": [
            {
              "internalType": "uint16",
              "name": "H",
              "type": "uint16"
            },
            {
              "internalType": "uint16",
              "name": "S",
              "type": "uint16"
            },
            {
              "internalType": "uint16",
              "name": "L",
              "type": "uint16"
            }
          ],
          "internalType": "struct Color.HSL",
          "name": "background",
          "type": "tuple"
        }
      ],
      "name": "getSingleMountain",
      "outputs": [
        {
          "internalType": "string",
          "name": "",
          "type": "string"
        }
      ],
      "stateMutability": "pure",
      "type": "function"
    },
    {
      "inputs": [
        {
          "internalType": "uint256",
          "name": "groundSeed",
          "type": "uint256"
        },
        {
          "internalType": "uint16",
          "name": "nonce",
          "type": "uint16"
        }
      ],
      "name": "getXCoordsArray",
      "outputs": [
        {
          "internalType": "uint16[]",
          "name": "",
          "type": "uint16[]"
        }
      ],
      "stateMutability": "pure",
      "type": "function"
    },
    {
      "inputs": [
        {
          "internalType": "uint256",
          "name": "groundSeed",
          "type": "uint256"
        },
        {
          "internalType": "uint256",
          "name": "nonce",
          "type": "uint256"
        },
        {
          "internalType": "uint16",
          "name": "height",
          "type": "uint16"
        },
        {
          "internalType": "uint16[]",
          "name": "inputArray",
          "type": "uint16[]"
        }
      ],
      "name": "getYCoords2",
      "outputs": [
        {
          "internalType": "uint16[]",
          "name": "",
          "type": "uint16[]"
        }
      ],
      "stateMutability": "pure",
      "type": "function"
    },
    {
      "inputs": [
        {
          "internalType": "uint256",
          "name": "tokenId",
          "type": "uint256"
        }
      ],
      "name": "ownerOf",
      "outputs": [
        {
          "internalType": "address",
          "name": "",
          "type": "address"
        }
      ],
      "stateMutability": "view",
      "type": "function"
    },
    {
      "inputs": [
        {
          "internalType": "uint256",
          "name": "tokenId",
          "type": "uint256"
        },
        {
          "components": [
            {
              "internalType": "uint256",
              "name": "tokenId",
              "type": "uint256"
            },
            {
              "internalType": "uint16",
              "name": "primaryHue",
              "type": "uint16"
            },
            {
              "internalType": "uint16",
              "name": "secondaryHue",
              "type": "uint16"
            },
            {
              "internalType": "uint8",
              "name": "constellation",
              "type": "uint8"
            },
            {
              "internalType": "uint8",
              "name": "cloudsAt",
              "type": "uint8"
            },
            {
              "internalType": "uint256",
              "name": "starSeed",
              "type": "uint256"
            },
            {
              "internalType": "uint256",
              "name": "funkSeed",
              "type": "uint256"
            },
            {
              "internalType": "uint256",
              "name": "circleSeed",
              "type": "uint256"
            },
            {
              "internalType": "uint256",
              "name": "groundSeed",
              "type": "uint256"
            }
          ],
          "internalType": "struct Color.DNA",
          "name": "dna",
          "type": "tuple"
        },
        {
          "internalType": "uint256",
          "name": "gazes",
          "type": "uint256"
        },
        {
          "internalType": "bool",
          "name": "daytime",
          "type": "bool"
        }
      ],
      "name": "packageAsSVG",
      "outputs": [
        {
          "internalType": "string",
          "name": "",
          "type": "string"
        }
      ],
      "stateMutability": "view",
      "type": "function"
    },
    {
      "inputs": [
        {
          "internalType": "uint256",
          "name": "tokenId",
          "type": "uint256"
        }
      ],
      "name": "soulbind",
      "outputs": [],
      "stateMutability": "nonpayable",
      "type": "function"
    },
    {
      "inputs": [
        {
          "internalType": "uint256",
          "name": "",
          "type": "uint256"
        }
      ],
      "name": "soulbound",
      "outputs": [
        {
          "internalType": "bool",
          "name": "",
          "type": "bool"
        }
      ],
      "stateMutability": "view",
      "type": "function"
    },
    {
      "inputs": [
        {
          "internalType": "uint256",
          "name": "tokenId",
          "type": "uint256"
        }
      ],
      "name": "tokenURI",
      "outputs": [
        {
          "internalType": "string",
          "name": "",
          "type": "string"
        }
      ],
      "stateMutability": "view",
      "type": "function"
    }
  ],
  "transactionHash": "0x84dcea0bbe02d0f1950f59608ca09ce1e53404e913ad81a824097fe8ae782802",
  "args": [],
  "numDeployments": 2,
  "solcInputHash": "56930af7b938deac2ecf057e8304b3a4",
  "bytecode": "0x608060405234801561001057600080fd5b506127de806100206000396000f3fe608060405234801561001057600080fd5b50600436106100df5760003560e01c80638a8351ef1161008c578063a5d5a10b11610066578063a5d5a10b1461021e578063b3dcf5da14610231578063c87b56dd14610244578063e87e3a2b1461025757600080fd5b80638a8351ef146101d85780639ffab72a146101eb578063a574cea41461020b57600080fd5b806370a08231116100bd57806370a08231146101705780637a181597146101925780638036d135146101c557600080fd5b806306febcba146100e45780630daefed51461010f5780636352211e14610138575b600080fd5b61010d6100f236600461193a565b6000908152602081905260409020805460ff19166001179055565b005b61012261011d36600461193a565b61026a565b60405161012f9190611977565b60405180910390f35b61014b61014636600461193a565b503290565b60405173ffffffffffffffffffffffffffffffffffffffff909116815260200161012f565b61018461017e3660046119aa565b50600190565b60405190815260200161012f565b6101b56101a036600461193a565b60006020819052908152604090205460ff1681565b604051901515815260200161012f565b6101226101d3366004611af1565b6103e1565b6101226101e6366004611b6d565b610ce3565b6101fe6101f9366004611c35565b610d1a565b60405161012f9190611d0d565b61012261021936600461193a565b611144565b61012261022c366004611b6d565b611175565b6101fe61023f366004611d55565b6111c2565b61012261025236600461193a565b611421565b610122610265366004611d85565b611489565b606060007368AD5E2e4709849e1730aFF98C9b78648EF2752d6343e3b108847368AD5E2e4709849e1730aFF98C9b78648EF2752d638f6aa355876040518263ffffffff1660e01b81526004016102c291815260200190565b602060405180830381865af41580156102df573d6000803e3d6000fd5b505050506040513d601f19601f820116820180604052508101906103039190611db2565b6040516001600160e01b031960e085901b168152600481019290925263ffffffff166024820152600060448201819052606482015260840161012060405180830381865af4158015610359573d6000803e3d6000fd5b505050506040513d601f19601f8201168201806040525081019061037d9190611dee565b9050600061038f848360006001610ce3565b60405160200161039f9190611ea1565b60405160208183030381529060405290506103b981611665565b6040516020016103c99190611ebd565b60405160208183030381529060405292505050919050565b606060006103ef86866111c2565b90506000610403878761ffff168785610d1a565b9050600082600184516104169190611f18565b8151811061042657610426611f2b565b602002602001015161020061043b9190611f57565b610446906001611f78565b905060007368AD5E2e4709849e1730aFF98C9b78648EF2752d631b0d4b4d838660008151811061047857610478611f2b565b602002602001015161048a9190611f9a565b6040516001600160e01b031960e084901b16815261ffff9091166004820152602401600060405180830381865af41580156104c9573d6000803e3d6000fd5b505050506040513d6000823e601f3d908101601f191682016040526104f19190810190611fc0565b7368AD5E2e4709849e1730aFF98C9b78648EF2752d631b0d4b4d8560008151811061051e5761051e611f2b565b60200260200101516040518263ffffffff1660e01b815260040161054c919061ffff91909116815260200190565b600060405180830381865af4158015610569573d6000803e3d6000fd5b505050506040513d6000823e601f3d908101601f191682016040526105919190810190611fc0565b6040516020016105a292919061204b565b60408051601f19818403018152919052905060015b84518161ffff161015610b2057817368AD5E2e4709849e1730aFF98C9b78648EF2752d631b0d4b4d600286896105ee6001886120b1565b61ffff168151811061060257610602611f2b565b60200260200101516106149190611f9a565b878a8761ffff168151811061062b5761062b611f2b565b602002602001015161063d9190611f9a565b61064791906120b1565b6106519190611f57565b868961065e6001886120b1565b61ffff168151811061067257610672611f2b565b60200260200101516106849190611f9a565b61068e9190611f78565b6040516001600160e01b031960e084901b16815261ffff9091166004820152602401600060405180830381865af41580156106cd573d6000803e3d6000fd5b505050506040513d6000823e601f3d908101601f191682016040526106f59190810190611fc0565b7368AD5E2e4709849e1730aFF98C9b78648EF2752d631b0d4b4d61071a600288611f57565b888661ffff168151811061073057610730611f2b565b602002602001015161074291906120b1565b6040516001600160e01b031960e084901b16815261ffff9091166004820152602401600060405180830381865af4158015610781573d6000803e3d6000fd5b505050506040513d6000823e601f3d908101601f191682016040526107a99190810190611fc0565b7368AD5E2e4709849e1730aFF98C9b78648EF2752d631b0d4b4d6002888b6107d260018a6120b1565b61ffff16815181106107e6576107e6611f2b565b60200260200101516107f89190611f9a565b898c8961ffff168151811061080f5761080f611f2b565b60200260200101516108219190611f9a565b61082b91906120b1565b6108359190611f57565b888b61084260018a6120b1565b61ffff168151811061085657610856611f2b565b60200260200101516108689190611f9a565b6108729190611f78565b6040516001600160e01b031960e084901b16815261ffff9091166004820152602401600060405180830381865af41580156108b1573d6000803e3d6000fd5b505050506040513d6000823e601f3d908101601f191682016040526108d99190810190611fc0565b7368AD5E2e4709849e1730aFF98C9b78648EF2752d631b0d4b4d6108fe60028a611f57565b8a8861ffff168151811061091457610914611f2b565b602002602001015161092691906120b1565b6040516001600160e01b031960e084901b16815261ffff9091166004820152602401600060405180830381865af4158015610965573d6000803e3d6000fd5b505050506040513d6000823e601f3d908101601f1916820160405261098d9190810190611fc0565b7368AD5E2e4709849e1730aFF98C9b78648EF2752d631b0d4b4d898c8961ffff16815181106109be576109be611f2b565b602002602001015160006109d29190611f78565b6109dc9190611f9a565b6040516001600160e01b031960e084901b16815261ffff9091166004820152602401600060405180830381865af4158015610a1b573d6000803e3d6000fd5b505050506040513d6000823e601f3d908101601f19168201604052610a439190810190611fc0565b7368AD5E2e4709849e1730aFF98C9b78648EF2752d631b0d4b4d8b8961ffff1681518110610a7357610a73611f2b565b60200260200101516040518263ffffffff1660e01b8152600401610aa1919061ffff91909116815260200190565b600060405180830381865af4158015610abe573d6000803e3d6000fd5b505050506040513d6000823e601f3d908101601f19168201604052610ae69190810190611fc0565b604051602001610afc97969594939291906120cc565b60405160208183030381529060405291508080610b18906121c1565b9150506105b7565b50807368AD5E2e4709849e1730aFF98C9b78648EF2752d63d7ec08e78b8b8760018951610b4d9190611f18565b81518110610b5d57610b5d611f2b565b60209081029190910101516040516001600160e01b031960e086901b168152600481019390935261ffff9182166024840152166044820152600a6064820152608401600060405180830381865af4158015610bbc573d6000803e3d6000fd5b505050506040513d6000823e601f3d908101601f19168201604052610be49190810190611fc0565b604051602001610bf59291906121e2565b60408051808303601f190181528282527f0fc5c9fc000000000000000000000000000000000000000000000000000000008352885161ffff908116600485015260208a015181166024850152918901519091166044830152915081907368AD5E2e4709849e1730aFF98C9b78648EF2752d90630fc5c9fc90606401600060405180830381865af4158015610c8d573d6000803e3d6000fd5b505050506040513d6000823e601f3d908101601f19168201604052610cb59190810190611fc0565b604051602001610cc692919061223a565b60408051808303601f190181529190529998505050505050505050565b6060610cf185858585611175565b604051602001610d0191906122bc565b6040516020818303038152906040529050949350505050565b60606000825167ffffffffffffffff811115610d3857610d38611a0a565b604051908082528060200260200182016040528015610d61578160200160208202803683370190505b50905060007368AD5E2e4709849e1730aFF98C9b78648EF2752d63210636e9888860028851610d90919061234e565b6040516001600160e01b031960e086901b1681526004810193909352602483019190915261ffff16604482015260026064820152608401602060405180830381865af4158015610de4573d6000803e3d6000fd5b505050506040513d601f19601f82011682018060405250810190610e089190612362565b90506000808690506000600190508785600081518110610e2a57610e2a611f2b565b61ffff9092166020928302919091019091015260015b87518161ffff161015611135578461ffff168161ffff1603610e9857610e67836005611f78565b868261ffff1681518110610e7d57610e7d611f2b565b602002602001019061ffff16908161ffff1681525050611123565b8461ffff168161ffff161015610eb15760019150610ec6565b8461ffff168161ffff161115610ec657600091505b61ffff81161580610f2a5750600288610ee06001846120b1565b61ffff1681518110610ef457610ef4611f2b565b6020026020010151898361ffff1681518110610f1257610f12611f2b565b6020026020010151610f2491906120b1565b61ffff16105b80610f38575060048460ff16105b15611022577368AD5E2e4709849e1730aFF98C9b78648EF2752d63210636e98c610f6661ffff85168e61237f565b6040516001600160e01b031960e085901b1681526004810192909252602482015261ffff8616604482015260056064820152608401602060405180830381865af4158015610fb8573d6000803e3d6000fd5b505050506040513d601f19601f82011682018060405250810190610fdc9190612362565b610fe7906003611f78565b868261ffff1681518110610ffd57610ffd611f2b565b61ffff909216602092830291909101909101528361101a81612396565b945050611123565b811561103a5761103383600a611f78565b9250611048565b611045600a846120b1565b92505b7368AD5E2e4709849e1730aFF98C9b78648EF2752d63210636e98c61107161ffff85168e61237f565b6040516001600160e01b031960e085901b1681526004810192909252602482015261ffff8616604482015260076064820152608401602060405180830381865af41580156110c3573d6000803e3d6000fd5b505050506040513d601f19601f820116820180604052508101906110e79190612362565b6110f2906008611f78565b868261ffff168151811061110857611108611f2b565b602002602001019061ffff16908161ffff1681525050600093505b8061112d816121c1565b915050610e40565b50939998505050505050505050565b606061114f826117b8565b60405160200161115f91906123b5565b6040516020818303038152906040529050919050565b60606111b28461010001516040518060600160405280876020015161ffff168152602001606461ffff168152602001601e61ffff16815250611489565b604051602001610d0191906124b9565b6040517f3a20c8790000000000000000000000000000000000000000000000000000000081526004810183905261ffff821660248201526060906000906014907368AD5E2e4709849e1730aFF98C9b78648EF2752d90633a20c87990604401602060405180830381865af415801561123e573d6000803e3d6000fd5b505050506040513d601f19601f8201168201806040525081019061126291906125bd565b61126c91906125d6565b6112779060126125ea565b905060008161ffff1667ffffffffffffffff81111561129857611298611a0a565b6040519080825280602002602001820160405280156112c1578160200160208202803683370190505b5090506000816000815181106112d9576112d9611f2b565b61ffff9092166020928302919091019091015260015b8261ffff168161ffff161015611416577368AD5E2e4709849e1730aFF98C9b78648EF2752d63dcaa2044876113248489611f9a565b856113306001876120b1565b61ffff168151811061134457611344611f2b565b602002602001015160016113589190611f78565b6040516001600160e01b031960e086901b168152600481019390935261ffff918216602484015216604482015260056064820152608401602060405180830381865af41580156113ac573d6000803e3d6000fd5b505050506040513d601f19601f820116820180604052508101906113d09190612362565b6113db906001611f78565b828261ffff16815181106113f1576113f1611f2b565b61ffff909216602092830291909101909101528061140e816121c1565b9150506112ef565b509150505b92915050565b6060600061142e83611144565b6114378461026a565b6040516020016114489291906125fd565b604051602081830303815290604052905061146281611665565b60405160200161147291906126f4565b604051602081830303815290604052915050919050565b604080516020808201835260008252603290840181905260149284018390526060928492919060015b60048161ffff16101561164f577368AD5E2e4709849e1730aFF98C9b78648EF2752d633329f04f836114e5846001611f78565b6114f0906005611f9a565b6040516001600160e01b031960e085901b16815261ffff928316600482015291166024820152604401602060405180830381865af4158015611536573d6000803e3d6000fd5b505050506040513d601f19601f8201168201806040525081019061155a9190612362565b61ffff1660408601528361161a89837368AD5E2e4709849e1730aFF98C9b78648EF2752d63dcaa20448383611590816032611f9a565b6040516001600160e01b031960e086901b168152600481019390935261ffff918216602484015216604482015260146064820152608401602060405180830381865af41580156115e4573d6000803e3d6000fd5b505050506040513d601f19601f820116820180604052508101906116089190612362565b6116149061010e611f78565b896103e1565b60405160200161162b929190612739565b60405160208183030381529060405293508080611647906121c1565b9150506114b2565b5050600060409093019290925291505092915050565b6060815160000361168457505060408051602081019091526000815290565b600060405180606001604052806040815260200161276960409139905060006003845160026116b391906125ea565b6116bd919061234e565b6116c890600461237f565b67ffffffffffffffff8111156116e0576116e0611a0a565b6040519080825280601f01601f19166020018201604052801561170a576020820181803683370190505b509050600182016020820185865187015b80821015611776576003820191508151603f8160121c168501518453600184019350603f81600c1c168501518453600184019350603f8160061c168501518453600184019350603f811685015184535060018301925061171b565b505060038651066001811461179257600281146117a5576117ad565b603d6001830353603d60028303536117ad565b603d60018303535b509195945050505050565b606060006117c583611858565b600101905060008167ffffffffffffffff8111156117e5576117e5611a0a565b6040519080825280601f01601f19166020018201604052801561180f576020820181803683370190505b5090508181016020015b600019017f3031323334353637383961626364656600000000000000000000000000000000600a86061a8153600a850494508461181957509392505050565b6000807a184f03e93ff9f4daa797ed6e38ed64bf6a1f01000000000000000083106118a1577a184f03e93ff9f4daa797ed6e38ed64bf6a1f010000000000000000830492506040015b6d04ee2d6d415b85acef810000000083106118cd576d04ee2d6d415b85acef8100000000830492506020015b662386f26fc1000083106118eb57662386f26fc10000830492506010015b6305f5e1008310611903576305f5e100830492506008015b612710831061191757612710830492506004015b60648310611929576064830492506002015b600a831061141b5760010192915050565b60006020828403121561194c57600080fd5b5035919050565b60005b8381101561196e578181015183820152602001611956565b50506000910152565b6020815260008251806020840152611996816040850160208701611953565b601f01601f19169190910160400192915050565b6000602082840312156119bc57600080fd5b813573ffffffffffffffffffffffffffffffffffffffff811681146119e057600080fd5b9392505050565b61ffff811681146119f757600080fd5b50565b8035611a05816119e7565b919050565b634e487b7160e01b600052604160045260246000fd5b604051610120810167ffffffffffffffff81118282101715611a4457611a44611a0a565b60405290565b604051601f8201601f1916810167ffffffffffffffff81118282101715611a7357611a73611a0a565b604052919050565b600060608284031215611a8d57600080fd5b6040516060810181811067ffffffffffffffff82111715611ab057611ab0611a0a565b6040529050808235611ac1816119e7565b81526020830135611ad1816119e7565b60208201526040830135611ae4816119e7565b6040919091015292915050565b60008060008060c08587031215611b0757600080fd5b843593506020850135611b19816119e7565b92506040850135611b29816119e7565b9150611b388660608701611a7b565b905092959194509250565b60ff811681146119f757600080fd5b8035611a0581611b43565b80358015158114611a0557600080fd5b600080600080848603610180811215611b8557600080fd5b8535945061012080601f1983011215611b9d57600080fd5b611ba5611a20565b915060208701358252611bba604088016119fa565b6020830152611bcb606088016119fa565b6040830152611bdc60808801611b52565b6060830152611bed60a08801611b52565b608083015260c087013560a083015260e087013560c08301526101008088013560e084015281880135818401525050809350506101408501359150611b386101608601611b5d565b60008060008060808587031215611c4b57600080fd5b8435935060208086013593506040860135611c65816119e7565b9250606086013567ffffffffffffffff80821115611c8257600080fd5b818801915088601f830112611c9657600080fd5b813581811115611ca857611ca8611a0a565b8060051b9150611cb9848301611a4a565b818152918301840191848101908b841115611cd357600080fd5b938501935b83851015611cfd5784359250611ced836119e7565b8282529385019390850190611cd8565b989b979a50959850505050505050565b6020808252825182820181905260009190848201906040850190845b81811015611d4957835161ffff1683529284019291840191600101611d29565b50909695505050505050565b60008060408385031215611d6857600080fd5b823591506020830135611d7a816119e7565b809150509250929050565b60008060808385031215611d9857600080fd5b82359150611da98460208501611a7b565b90509250929050565b600060208284031215611dc457600080fd5b815163ffffffff811681146119e057600080fd5b8051611a05816119e7565b8051611a0581611b43565b60006101208284031215611e0157600080fd5b611e09611a20565b82518152611e1960208401611dd8565b6020820152611e2a60408401611dd8565b6040820152611e3b60608401611de3565b6060820152611e4c60808401611de3565b608082015260a083015160a082015260c083015160c082015260e083015160e08201526101008084015181830152508091505092915050565b60008151611e97818560208601611953565b9290920192915050565b60008251611eb3818460208701611953565b9190910192915050565b7f646174613a696d6167652f7376672b786d6c3b6261736536342c000000000000815260008251611ef581601a850160208701611953565b91909101601a0192915050565b634e487b7160e01b600052601160045260246000fd5b8181038181111561141b5761141b611f02565b634e487b7160e01b600052603260045260246000fd5b634e487b7160e01b600052601260045260246000fd5b600061ffff80841680611f6c57611f6c611f41565b92169190910492915050565b61ffff818116838216019080821115611f9357611f93611f02565b5092915050565b61ffff818116838216028082169190828114611fb857611fb8611f02565b505092915050565b600060208284031215611fd257600080fd5b815167ffffffffffffffff80821115611fea57600080fd5b818401915084601f830112611ffe57600080fd5b81518181111561201057612010611a0a565b612023601f8201601f1916602001611a4a565b915080825285602082850101111561203a57600080fd5b611416816020840160208601611953565b7f3c706174682020643d224d20000000000000000000000000000000000000000081526000835161208381600c850160208801611953565b61016160f51b600c9184019182015283516120a581600e840160208801611953565b01600e01949350505050565b61ffff828116828216039080821115611f9357611f93611f02565b600088516120de818460208d01611953565b7f20432000000000000000000000000000000000000000000000000000000000009083019081528851612118816003840160208d01611953565b61016160f51b60039290910191820152875161213b816005840160208c01611953565b600160fd1b60059290910191820152865161215d816006840160208b01611953565b0161216f6006820161016160f51b9052565b61217c6008820187611e85565b600160fd1b815290506121926001820186611e85565b61016160f51b815290506121a96002820185611e85565b600160fd1b81526001019a9950505050505050505050565b600061ffff8083168181036121d8576121d8611f02565b6001019392505050565b600083516121f4818460208801611953565b7f204c203531322c20000000000000000000000000000000000000000000000000908301908152835161222e816008840160208801611953565b01600801949350505050565b6000835161224c818460208801611953565b7f204c203531322c20353132204c203020353132207a222066696c6c3d22000000908301908152835161228681601d840160208801611953565b7f222066696c7465723d2275726c28236729222f3e000000000000000000000000601d9290910191820152603101949350505050565b7f3c7376672076696577426f783d2230203020353132203531322220786d6c6e7381527f3d22687474703a2f2f7777772e77332e6f72672f323030302f737667223e000060208201526000825161231a81603e850160208701611953565b7f3c2f7376673e0000000000000000000000000000000000000000000000000000603e939091019283015250604401919050565b60008261235d5761235d611f41565b500490565b60006020828403121561237457600080fd5b81516119e0816119e7565b808202811582820484141761141b5761141b611f02565b600060ff821660ff81036123ac576123ac611f02565b60010192915050565b7f226e616d65223a2022636861696e656c6c6174696f6e204d6f756e7461696e7381527f2023000000000000000000000000000000000000000000000000000000000000602082015260008251612413816022850160208701611953565b7f222c00000000000000000000000000000000000000000000000000000000000060229390910192830152507f226465736372697074696f6e223a202241206d6f756e746c696e652053696c6860248201527f6f756574746520666f7220796f75722054776f204d6f6f6e73204e696768742060448201527f536b7922000000000000000000000000000000000000000000000000000000006064820152606801919050565b7f3c672069643d2273696c686f7565747465223e0000000000000000000000000081527f3c66696c7465722069643d2267223e3c666544726f70536861646f772064793d60138201527f222d352220737464446576696174696f6e3d22352220666c6f6f642d636f6c6f60338201527f723d22236666662220666c6f6f642d6f7061636974793d222e31222f3e3c2f6660538201527f696c7465723e0000000000000000000000000000000000000000000000000000607382015260008251612589816079850160208701611953565b7f3c2f673e000000000000000000000000000000000000000000000000000000006079939091019283015250607d01919050565b6000602082840312156125cf57600080fd5b5051919050565b6000826125e5576125e5611f41565b500690565b8082018082111561141b5761141b611f02565b7f7b00000000000000000000000000000000000000000000000000000000000000815260008351612635816001850160208801611953565b7f2c000000000000000000000000000000000000000000000000000000000000006001918401918201527f22696d616765223a2022000000000000000000000000000000000000000000006002820152835161269881600c840160208801611953565b7f2200000000000000000000000000000000000000000000000000000000000000600c92909101918201527f7d00000000000000000000000000000000000000000000000000000000000000600d820152600e01949350505050565b7f646174613a6170706c69636174696f6e2f6a736f6e3b6261736536342c00000081526000825161272c81601d850160208701611953565b91909101601d0192915050565b6000835161274b818460208801611953565b83519083019061275f818360208801611953565b0194935050505056fe4142434445464748494a4b4c4d4e4f505152535455565758595a6162636465666768696a6b6c6d6e6f707172737475767778797a303132333435363738392b2fa2646970667358221220f7805335872ab1dfd54f3d734638af1fc57f1e0232487a2fbf316c9d863b89ad64736f6c63430008120033",
  "deployedBytecode": "0x608060405234801561001057600080fd5b50600436106100df5760003560e01c80638a8351ef1161008c578063a5d5a10b11610066578063a5d5a10b1461021e578063b3dcf5da14610231578063c87b56dd14610244578063e87e3a2b1461025757600080fd5b80638a8351ef146101d85780639ffab72a146101eb578063a574cea41461020b57600080fd5b806370a08231116100bd57806370a08231146101705780637a181597146101925780638036d135146101c557600080fd5b806306febcba146100e45780630daefed51461010f5780636352211e14610138575b600080fd5b61010d6100f236600461193a565b6000908152602081905260409020805460ff19166001179055565b005b61012261011d36600461193a565b61026a565b60405161012f9190611977565b60405180910390f35b61014b61014636600461193a565b503290565b60405173ffffffffffffffffffffffffffffffffffffffff909116815260200161012f565b61018461017e3660046119aa565b50600190565b60405190815260200161012f565b6101b56101a036600461193a565b60006020819052908152604090205460ff1681565b604051901515815260200161012f565b6101226101d3366004611af1565b6103e1565b6101226101e6366004611b6d565b610ce3565b6101fe6101f9366004611c35565b610d1a565b60405161012f9190611d0d565b61012261021936600461193a565b611144565b61012261022c366004611b6d565b611175565b6101fe61023f366004611d55565b6111c2565b61012261025236600461193a565b611421565b610122610265366004611d85565b611489565b6060600073__$11e21e6c56ca563b85c74e3fd3a08242f9$__6343e3b1088473__$11e21e6c56ca563b85c74e3fd3a08242f9$__638f6aa355876040518263ffffffff1660e01b81526004016102c291815260200190565b602060405180830381865af41580156102df573d6000803e3d6000fd5b505050506040513d601f19601f820116820180604052508101906103039190611db2565b6040516001600160e01b031960e085901b168152600481019290925263ffffffff166024820152600060448201819052606482015260840161012060405180830381865af4158015610359573d6000803e3d6000fd5b505050506040513d601f19601f8201168201806040525081019061037d9190611dee565b9050600061038f848360006001610ce3565b60405160200161039f9190611ea1565b60405160208183030381529060405290506103b981611665565b6040516020016103c99190611ebd565b60405160208183030381529060405292505050919050565b606060006103ef86866111c2565b90506000610403878761ffff168785610d1a565b9050600082600184516104169190611f18565b8151811061042657610426611f2b565b602002602001015161020061043b9190611f57565b610446906001611f78565b9050600073__$11e21e6c56ca563b85c74e3fd3a08242f9$__631b0d4b4d838660008151811061047857610478611f2b565b602002602001015161048a9190611f9a565b6040516001600160e01b031960e084901b16815261ffff9091166004820152602401600060405180830381865af41580156104c9573d6000803e3d6000fd5b505050506040513d6000823e601f3d908101601f191682016040526104f19190810190611fc0565b73__$11e21e6c56ca563b85c74e3fd3a08242f9$__631b0d4b4d8560008151811061051e5761051e611f2b565b60200260200101516040518263ffffffff1660e01b815260040161054c919061ffff91909116815260200190565b600060405180830381865af4158015610569573d6000803e3d6000fd5b505050506040513d6000823e601f3d908101601f191682016040526105919190810190611fc0565b6040516020016105a292919061204b565b60408051601f19818403018152919052905060015b84518161ffff161015610b20578173__$11e21e6c56ca563b85c74e3fd3a08242f9$__631b0d4b4d600286896105ee6001886120b1565b61ffff168151811061060257610602611f2b565b60200260200101516106149190611f9a565b878a8761ffff168151811061062b5761062b611f2b565b602002602001015161063d9190611f9a565b61064791906120b1565b6106519190611f57565b868961065e6001886120b1565b61ffff168151811061067257610672611f2b565b60200260200101516106849190611f9a565b61068e9190611f78565b6040516001600160e01b031960e084901b16815261ffff9091166004820152602401600060405180830381865af41580156106cd573d6000803e3d6000fd5b505050506040513d6000823e601f3d908101601f191682016040526106f59190810190611fc0565b73__$11e21e6c56ca563b85c74e3fd3a08242f9$__631b0d4b4d61071a600288611f57565b888661ffff168151811061073057610730611f2b565b602002602001015161074291906120b1565b6040516001600160e01b031960e084901b16815261ffff9091166004820152602401600060405180830381865af4158015610781573d6000803e3d6000fd5b505050506040513d6000823e601f3d908101601f191682016040526107a99190810190611fc0565b73__$11e21e6c56ca563b85c74e3fd3a08242f9$__631b0d4b4d6002888b6107d260018a6120b1565b61ffff16815181106107e6576107e6611f2b565b60200260200101516107f89190611f9a565b898c8961ffff168151811061080f5761080f611f2b565b60200260200101516108219190611f9a565b61082b91906120b1565b6108359190611f57565b888b61084260018a6120b1565b61ffff168151811061085657610856611f2b565b60200260200101516108689190611f9a565b6108729190611f78565b6040516001600160e01b031960e084901b16815261ffff9091166004820152602401600060405180830381865af41580156108b1573d6000803e3d6000fd5b505050506040513d6000823e601f3d908101601f191682016040526108d99190810190611fc0565b73__$11e21e6c56ca563b85c74e3fd3a08242f9$__631b0d4b4d6108fe60028a611f57565b8a8861ffff168151811061091457610914611f2b565b602002602001015161092691906120b1565b6040516001600160e01b031960e084901b16815261ffff9091166004820152602401600060405180830381865af4158015610965573d6000803e3d6000fd5b505050506040513d6000823e601f3d908101601f1916820160405261098d9190810190611fc0565b73__$11e21e6c56ca563b85c74e3fd3a08242f9$__631b0d4b4d898c8961ffff16815181106109be576109be611f2b565b602002602001015160006109d29190611f78565b6109dc9190611f9a565b6040516001600160e01b031960e084901b16815261ffff9091166004820152602401600060405180830381865af4158015610a1b573d6000803e3d6000fd5b505050506040513d6000823e601f3d908101601f19168201604052610a439190810190611fc0565b73__$11e21e6c56ca563b85c74e3fd3a08242f9$__631b0d4b4d8b8961ffff1681518110610a7357610a73611f2b565b60200260200101516040518263ffffffff1660e01b8152600401610aa1919061ffff91909116815260200190565b600060405180830381865af4158015610abe573d6000803e3d6000fd5b505050506040513d6000823e601f3d908101601f19168201604052610ae69190810190611fc0565b604051602001610afc97969594939291906120cc565b60405160208183030381529060405291508080610b18906121c1565b9150506105b7565b508073__$11e21e6c56ca563b85c74e3fd3a08242f9$__63d7ec08e78b8b8760018951610b4d9190611f18565b81518110610b5d57610b5d611f2b565b60209081029190910101516040516001600160e01b031960e086901b168152600481019390935261ffff9182166024840152166044820152600a6064820152608401600060405180830381865af4158015610bbc573d6000803e3d6000fd5b505050506040513d6000823e601f3d908101601f19168201604052610be49190810190611fc0565b604051602001610bf59291906121e2565b60408051808303601f190181528282527f0fc5c9fc000000000000000000000000000000000000000000000000000000008352885161ffff908116600485015260208a0151811660248501529189015190911660448301529150819073__$11e21e6c56ca563b85c74e3fd3a08242f9$__90630fc5c9fc90606401600060405180830381865af4158015610c8d573d6000803e3d6000fd5b505050506040513d6000823e601f3d908101601f19168201604052610cb59190810190611fc0565b604051602001610cc692919061223a565b60408051808303601f190181529190529998505050505050505050565b6060610cf185858585611175565b604051602001610d0191906122bc565b6040516020818303038152906040529050949350505050565b60606000825167ffffffffffffffff811115610d3857610d38611a0a565b604051908082528060200260200182016040528015610d61578160200160208202803683370190505b509050600073__$11e21e6c56ca563b85c74e3fd3a08242f9$__63210636e9888860028851610d90919061234e565b6040516001600160e01b031960e086901b1681526004810193909352602483019190915261ffff16604482015260026064820152608401602060405180830381865af4158015610de4573d6000803e3d6000fd5b505050506040513d601f19601f82011682018060405250810190610e089190612362565b90506000808690506000600190508785600081518110610e2a57610e2a611f2b565b61ffff9092166020928302919091019091015260015b87518161ffff161015611135578461ffff168161ffff1603610e9857610e67836005611f78565b868261ffff1681518110610e7d57610e7d611f2b565b602002602001019061ffff16908161ffff1681525050611123565b8461ffff168161ffff161015610eb15760019150610ec6565b8461ffff168161ffff161115610ec657600091505b61ffff81161580610f2a5750600288610ee06001846120b1565b61ffff1681518110610ef457610ef4611f2b565b6020026020010151898361ffff1681518110610f1257610f12611f2b565b6020026020010151610f2491906120b1565b61ffff16105b80610f38575060048460ff16105b156110225773__$11e21e6c56ca563b85c74e3fd3a08242f9$__63210636e98c610f6661ffff85168e61237f565b6040516001600160e01b031960e085901b1681526004810192909252602482015261ffff8616604482015260056064820152608401602060405180830381865af4158015610fb8573d6000803e3d6000fd5b505050506040513d601f19601f82011682018060405250810190610fdc9190612362565b610fe7906003611f78565b868261ffff1681518110610ffd57610ffd611f2b565b61ffff909216602092830291909101909101528361101a81612396565b945050611123565b811561103a5761103383600a611f78565b9250611048565b611045600a846120b1565b92505b73__$11e21e6c56ca563b85c74e3fd3a08242f9$__63210636e98c61107161ffff85168e61237f565b6040516001600160e01b031960e085901b1681526004810192909252602482015261ffff8616604482015260076064820152608401602060405180830381865af41580156110c3573d6000803e3d6000fd5b505050506040513d601f19601f820116820180604052508101906110e79190612362565b6110f2906008611f78565b868261ffff168151811061110857611108611f2b565b602002602001019061ffff16908161ffff1681525050600093505b8061112d816121c1565b915050610e40565b50939998505050505050505050565b606061114f826117b8565b60405160200161115f91906123b5565b6040516020818303038152906040529050919050565b60606111b28461010001516040518060600160405280876020015161ffff168152602001606461ffff168152602001601e61ffff16815250611489565b604051602001610d0191906124b9565b6040517f3a20c8790000000000000000000000000000000000000000000000000000000081526004810183905261ffff8216602482015260609060009060149073__$11e21e6c56ca563b85c74e3fd3a08242f9$__90633a20c87990604401602060405180830381865af415801561123e573d6000803e3d6000fd5b505050506040513d601f19601f8201168201806040525081019061126291906125bd565b61126c91906125d6565b6112779060126125ea565b905060008161ffff1667ffffffffffffffff81111561129857611298611a0a565b6040519080825280602002602001820160405280156112c1578160200160208202803683370190505b5090506000816000815181106112d9576112d9611f2b565b61ffff9092166020928302919091019091015260015b8261ffff168161ffff1610156114165773__$11e21e6c56ca563b85c74e3fd3a08242f9$__63dcaa2044876113248489611f9a565b856113306001876120b1565b61ffff168151811061134457611344611f2b565b602002602001015160016113589190611f78565b6040516001600160e01b031960e086901b168152600481019390935261ffff918216602484015216604482015260056064820152608401602060405180830381865af41580156113ac573d6000803e3d6000fd5b505050506040513d601f19601f820116820180604052508101906113d09190612362565b6113db906001611f78565b828261ffff16815181106113f1576113f1611f2b565b61ffff909216602092830291909101909101528061140e816121c1565b9150506112ef565b509150505b92915050565b6060600061142e83611144565b6114378461026a565b6040516020016114489291906125fd565b604051602081830303815290604052905061146281611665565b60405160200161147291906126f4565b604051602081830303815290604052915050919050565b604080516020808201835260008252603290840181905260149284018390526060928492919060015b60048161ffff16101561164f5773__$11e21e6c56ca563b85c74e3fd3a08242f9$__633329f04f836114e5846001611f78565b6114f0906005611f9a565b6040516001600160e01b031960e085901b16815261ffff928316600482015291166024820152604401602060405180830381865af4158015611536573d6000803e3d6000fd5b505050506040513d601f19601f8201168201806040525081019061155a9190612362565b61ffff1660408601528361161a898373__$11e21e6c56ca563b85c74e3fd3a08242f9$__63dcaa20448383611590816032611f9a565b6040516001600160e01b031960e086901b168152600481019390935261ffff918216602484015216604482015260146064820152608401602060405180830381865af41580156115e4573d6000803e3d6000fd5b505050506040513d601f19601f820116820180604052508101906116089190612362565b6116149061010e611f78565b896103e1565b60405160200161162b929190612739565b60405160208183030381529060405293508080611647906121c1565b9150506114b2565b5050600060409093019290925291505092915050565b6060815160000361168457505060408051602081019091526000815290565b600060405180606001604052806040815260200161276960409139905060006003845160026116b391906125ea565b6116bd919061234e565b6116c890600461237f565b67ffffffffffffffff8111156116e0576116e0611a0a565b6040519080825280601f01601f19166020018201604052801561170a576020820181803683370190505b509050600182016020820185865187015b80821015611776576003820191508151603f8160121c168501518453600184019350603f81600c1c168501518453600184019350603f8160061c168501518453600184019350603f811685015184535060018301925061171b565b505060038651066001811461179257600281146117a5576117ad565b603d6001830353603d60028303536117ad565b603d60018303535b509195945050505050565b606060006117c583611858565b600101905060008167ffffffffffffffff8111156117e5576117e5611a0a565b6040519080825280601f01601f19166020018201604052801561180f576020820181803683370190505b5090508181016020015b600019017f3031323334353637383961626364656600000000000000000000000000000000600a86061a8153600a850494508461181957509392505050565b6000807a184f03e93ff9f4daa797ed6e38ed64bf6a1f01000000000000000083106118a1577a184f03e93ff9f4daa797ed6e38ed64bf6a1f010000000000000000830492506040015b6d04ee2d6d415b85acef810000000083106118cd576d04ee2d6d415b85acef8100000000830492506020015b662386f26fc1000083106118eb57662386f26fc10000830492506010015b6305f5e1008310611903576305f5e100830492506008015b612710831061191757612710830492506004015b60648310611929576064830492506002015b600a831061141b5760010192915050565b60006020828403121561194c57600080fd5b5035919050565b60005b8381101561196e578181015183820152602001611956565b50506000910152565b6020815260008251806020840152611996816040850160208701611953565b601f01601f19169190910160400192915050565b6000602082840312156119bc57600080fd5b813573ffffffffffffffffffffffffffffffffffffffff811681146119e057600080fd5b9392505050565b61ffff811681146119f757600080fd5b50565b8035611a05816119e7565b919050565b634e487b7160e01b600052604160045260246000fd5b604051610120810167ffffffffffffffff81118282101715611a4457611a44611a0a565b60405290565b604051601f8201601f1916810167ffffffffffffffff81118282101715611a7357611a73611a0a565b604052919050565b600060608284031215611a8d57600080fd5b6040516060810181811067ffffffffffffffff82111715611ab057611ab0611a0a565b6040529050808235611ac1816119e7565b81526020830135611ad1816119e7565b60208201526040830135611ae4816119e7565b6040919091015292915050565b60008060008060c08587031215611b0757600080fd5b843593506020850135611b19816119e7565b92506040850135611b29816119e7565b9150611b388660608701611a7b565b905092959194509250565b60ff811681146119f757600080fd5b8035611a0581611b43565b80358015158114611a0557600080fd5b600080600080848603610180811215611b8557600080fd5b8535945061012080601f1983011215611b9d57600080fd5b611ba5611a20565b915060208701358252611bba604088016119fa565b6020830152611bcb606088016119fa565b6040830152611bdc60808801611b52565b6060830152611bed60a08801611b52565b608083015260c087013560a083015260e087013560c08301526101008088013560e084015281880135818401525050809350506101408501359150611b386101608601611b5d565b60008060008060808587031215611c4b57600080fd5b8435935060208086013593506040860135611c65816119e7565b9250606086013567ffffffffffffffff80821115611c8257600080fd5b818801915088601f830112611c9657600080fd5b813581811115611ca857611ca8611a0a565b8060051b9150611cb9848301611a4a565b818152918301840191848101908b841115611cd357600080fd5b938501935b83851015611cfd5784359250611ced836119e7565b8282529385019390850190611cd8565b989b979a50959850505050505050565b6020808252825182820181905260009190848201906040850190845b81811015611d4957835161ffff1683529284019291840191600101611d29565b50909695505050505050565b60008060408385031215611d6857600080fd5b823591506020830135611d7a816119e7565b809150509250929050565b60008060808385031215611d9857600080fd5b82359150611da98460208501611a7b565b90509250929050565b600060208284031215611dc457600080fd5b815163ffffffff811681146119e057600080fd5b8051611a05816119e7565b8051611a0581611b43565b60006101208284031215611e0157600080fd5b611e09611a20565b82518152611e1960208401611dd8565b6020820152611e2a60408401611dd8565b6040820152611e3b60608401611de3565b6060820152611e4c60808401611de3565b608082015260a083015160a082015260c083015160c082015260e083015160e08201526101008084015181830152508091505092915050565b60008151611e97818560208601611953565b9290920192915050565b60008251611eb3818460208701611953565b9190910192915050565b7f646174613a696d6167652f7376672b786d6c3b6261736536342c000000000000815260008251611ef581601a850160208701611953565b91909101601a0192915050565b634e487b7160e01b600052601160045260246000fd5b8181038181111561141b5761141b611f02565b634e487b7160e01b600052603260045260246000fd5b634e487b7160e01b600052601260045260246000fd5b600061ffff80841680611f6c57611f6c611f41565b92169190910492915050565b61ffff818116838216019080821115611f9357611f93611f02565b5092915050565b61ffff818116838216028082169190828114611fb857611fb8611f02565b505092915050565b600060208284031215611fd257600080fd5b815167ffffffffffffffff80821115611fea57600080fd5b818401915084601f830112611ffe57600080fd5b81518181111561201057612010611a0a565b612023601f8201601f1916602001611a4a565b915080825285602082850101111561203a57600080fd5b611416816020840160208601611953565b7f3c706174682020643d224d20000000000000000000000000000000000000000081526000835161208381600c850160208801611953565b61016160f51b600c9184019182015283516120a581600e840160208801611953565b01600e01949350505050565b61ffff828116828216039080821115611f9357611f93611f02565b600088516120de818460208d01611953565b7f20432000000000000000000000000000000000000000000000000000000000009083019081528851612118816003840160208d01611953565b61016160f51b60039290910191820152875161213b816005840160208c01611953565b600160fd1b60059290910191820152865161215d816006840160208b01611953565b0161216f6006820161016160f51b9052565b61217c6008820187611e85565b600160fd1b815290506121926001820186611e85565b61016160f51b815290506121a96002820185611e85565b600160fd1b81526001019a9950505050505050505050565b600061ffff8083168181036121d8576121d8611f02565b6001019392505050565b600083516121f4818460208801611953565b7f204c203531322c20000000000000000000000000000000000000000000000000908301908152835161222e816008840160208801611953565b01600801949350505050565b6000835161224c818460208801611953565b7f204c203531322c20353132204c203020353132207a222066696c6c3d22000000908301908152835161228681601d840160208801611953565b7f222066696c7465723d2275726c28236729222f3e000000000000000000000000601d9290910191820152603101949350505050565b7f3c7376672076696577426f783d2230203020353132203531322220786d6c6e7381527f3d22687474703a2f2f7777772e77332e6f72672f323030302f737667223e000060208201526000825161231a81603e850160208701611953565b7f3c2f7376673e0000000000000000000000000000000000000000000000000000603e939091019283015250604401919050565b60008261235d5761235d611f41565b500490565b60006020828403121561237457600080fd5b81516119e0816119e7565b808202811582820484141761141b5761141b611f02565b600060ff821660ff81036123ac576123ac611f02565b60010192915050565b7f226e616d65223a2022636861696e656c6c6174696f6e204d6f756e7461696e7381527f2023000000000000000000000000000000000000000000000000000000000000602082015260008251612413816022850160208701611953565b7f222c00000000000000000000000000000000000000000000000000000000000060229390910192830152507f226465736372697074696f6e223a202241206d6f756e746c696e652053696c6860248201527f6f756574746520666f7220796f75722054776f204d6f6f6e73204e696768742060448201527f536b7922000000000000000000000000000000000000000000000000000000006064820152606801919050565b7f3c672069643d2273696c686f7565747465223e0000000000000000000000000081527f3c66696c7465722069643d2267223e3c666544726f70536861646f772064793d60138201527f222d352220737464446576696174696f6e3d22352220666c6f6f642d636f6c6f60338201527f723d22236666662220666c6f6f642d6f7061636974793d222e31222f3e3c2f6660538201527f696c7465723e0000000000000000000000000000000000000000000000000000607382015260008251612589816079850160208701611953565b7f3c2f673e000000000000000000000000000000000000000000000000000000006079939091019283015250607d01919050565b6000602082840312156125cf57600080fd5b5051919050565b6000826125e5576125e5611f41565b500690565b8082018082111561141b5761141b611f02565b7f7b00000000000000000000000000000000000000000000000000000000000000815260008351612635816001850160208801611953565b7f2c000000000000000000000000000000000000000000000000000000000000006001918401918201527f22696d616765223a2022000000000000000000000000000000000000000000006002820152835161269881600c840160208801611953565b7f2200000000000000000000000000000000000000000000000000000000000000600c92909101918201527f7d00000000000000000000000000000000000000000000000000000000000000600d820152600e01949350505050565b7f646174613a6170706c69636174696f6e2f6a736f6e3b6261736536342c00000081526000825161272c81601d850160208701611953565b91909101601d0192915050565b6000835161274b818460208801611953565b83519083019061275f818360208801611953565b0194935050505056fe4142434445464748494a4b4c4d4e4f505152535455565758595a6162636465666768696a6b6c6d6e6f707172737475767778797a303132333435363738392b2fa2646970667358221220f7805335872ab1dfd54f3d734638af1fc57f1e0232487a2fbf316c9d863b89ad64736f6c63430008120033",
  "libraries": {
    "Color": "0x68AD5E2e4709849e1730aFF98C9b78648EF2752d"
  },
  "devdoc": {
    "kind": "dev",
    "methods": {},
    "version": 1
  },
  "userdoc": {
    "kind": "user",
    "methods": {},
    "version": 1
  },
  "storageLayout": {
    "storage": [
      {
        "astId": 9132,
        "contract": "contracts/chainellations/decos/MountainLine.sol:MountainLine",
        "label": "soulbound",
        "offset": 0,
        "slot": "0",
        "type": "t_mapping(t_uint256,t_bool)"
      }
    ],
    "types": {
      "t_bool": {
        "encoding": "inplace",
        "label": "bool",
        "numberOfBytes": "1"
      },
      "t_mapping(t_uint256,t_bool)": {
        "encoding": "mapping",
        "key": "t_uint256",
        "label": "mapping(uint256 => bool)",
        "numberOfBytes": "32",
        "value": "t_bool"
      },
      "t_uint256": {
        "encoding": "inplace",
        "label": "uint256",
        "numberOfBytes": "32"
      }
    }
  }
}