{
  "address": "0xF547F45154E398a3ADdD83a73ff4EDAA87f46bb0",
  "abi": [
    {
      "inputs": [],
      "name": "NotOwner",
      "type": "error"
    },
    {
      "inputs": [],
      "name": "SoulBound",
      "type": "error"
    },
    {
      "inputs": [
        {
          "internalType": "address",
          "name": "owner",
          "type": "address"
        }
      ],
      "name": "balanceOf",
      "outputs": [
        {
          "internalType": "uint256",
          "name": "",
          "type": "uint256"
        }
      ],
      "stateMutability": "view",
      "type": "function"
    },
    {
      "inputs": [
        {
          "internalType": "uint256",
          "name": "tokenId",
          "type": "uint256"
        }
      ],
      "name": "generateCharacter",
      "outputs": [
        {
          "internalType": "string",
          "name": "",
          "type": "string"
        }
      ],
      "stateMutability": "view",
      "type": "function"
    },
    {
      "inputs": [
        {
          "internalType": "uint256",
          "name": "gazes",
          "type": "uint256"
        }
      ],
      "name": "getCircles",
      "outputs": [
        {
          "internalType": "string",
          "name": "",
          "type": "string"
        }
      ],
      "stateMutability": "pure",
      "type": "function"
    },
    {
      "inputs": [
        {
          "internalType": "uint256",
          "name": "tokenId",
          "type": "uint256"
        },
        {
          "components": [
            {
              "internalType": "uint256",
              "name": "tokenId",
              "type": "uint256"
            },
            {
              "internalType": "uint16",
              "name": "primaryHue",
              "type": "uint16"
            },
            {
              "internalType": "uint16",
              "name": "secondaryHue",
              "type": "uint16"
            },
            {
              "internalType": "uint8",
              "name": "constellation",
              "type": "uint8"
            },
            {
              "internalType": "uint8",
              "name": "cloudsAt",
              "type": "uint8"
            },
            {
              "internalType": "uint256",
              "name": "starSeed",
              "type": "uint256"
            },
            {
              "internalType": "uint256",
              "name": "funkSeed",
              "type": "uint256"
            },
            {
              "internalType": "uint256",
              "name": "circleSeed",
              "type": "uint256"
            },
            {
              "internalType": "uint256",
              "name": "groundSeed",
              "type": "uint256"
            }
          ],
          "internalType": "struct Color.DNA",
          "name": "dna",
          "type": "tuple"
        },
        {
          "internalType": "uint256",
          "name": "gazes",
          "type": "uint256"
        },
        {
          "internalType": "bool",
          "name": "daytime",
          "type": "bool"
        }
      ],
      "name": "getDeco",
      "outputs": [
        {
          "internalType": "string",
          "name": "",
          "type": "string"
        }
      ],
      "stateMutability": "pure",
      "type": "function"
    },
    {
      "inputs": [
        {
          "internalType": "uint256",
          "name": "tokenId",
          "type": "uint256"
        }
      ],
      "name": "getMetadata",
      "outputs": [
        {
          "internalType": "string",
          "name": "",
          "type": "string"
        }
      ],
      "stateMutability": "view",
      "type": "function"
    },
    {
      "inputs": [
        {
          "internalType": "uint256",
          "name": "tokenId",
          "type": "uint256"
        }
      ],
      "name": "ownerOf",
      "outputs": [
        {
          "internalType": "address",
          "name": "",
          "type": "address"
        }
      ],
      "stateMutability": "view",
      "type": "function"
    },
    {
      "inputs": [
        {
          "internalType": "uint256",
          "name": "tokenId",
          "type": "uint256"
        },
        {
          "components": [
            {
              "internalType": "uint256",
              "name": "tokenId",
              "type": "uint256"
            },
            {
              "internalType": "uint16",
              "name": "primaryHue",
              "type": "uint16"
            },
            {
              "internalType": "uint16",
              "name": "secondaryHue",
              "type": "uint16"
            },
            {
              "internalType": "uint8",
              "name": "constellation",
              "type": "uint8"
            },
            {
              "internalType": "uint8",
              "name": "cloudsAt",
              "type": "uint8"
            },
            {
              "internalType": "uint256",
              "name": "starSeed",
              "type": "uint256"
            },
            {
              "internalType": "uint256",
              "name": "funkSeed",
              "type": "uint256"
            },
            {
              "internalType": "uint256",
              "name": "circleSeed",
              "type": "uint256"
            },
            {
              "internalType": "uint256",
              "name": "groundSeed",
              "type": "uint256"
            }
          ],
          "internalType": "struct Color.DNA",
          "name": "dna",
          "type": "tuple"
        },
        {
          "internalType": "uint256",
          "name": "gazes",
          "type": "uint256"
        },
        {
          "internalType": "bool",
          "name": "daytime",
          "type": "bool"
        }
      ],
      "name": "packageAsSVG",
      "outputs": [
        {
          "internalType": "string",
          "name": "",
          "type": "string"
        }
      ],
      "stateMutability": "view",
      "type": "function"
    },
    {
      "inputs": [
        {
          "internalType": "uint256",
          "name": "tokenId",
          "type": "uint256"
        }
      ],
      "name": "soulbind",
      "outputs": [],
      "stateMutability": "nonpayable",
      "type": "function"
    },
    {
      "inputs": [
        {
          "internalType": "uint256",
          "name": "",
          "type": "uint256"
        }
      ],
      "name": "soulbound",
      "outputs": [
        {
          "internalType": "bool",
          "name": "",
          "type": "bool"
        }
      ],
      "stateMutability": "view",
      "type": "function"
    },
    {
      "inputs": [
        {
          "internalType": "uint256",
          "name": "tokenId",
          "type": "uint256"
        }
      ],
      "name": "tokenURI",
      "outputs": [
        {
          "internalType": "string",
          "name": "",
          "type": "string"
        }
      ],
      "stateMutability": "view",
      "type": "function"
    }
  ],
  "transactionHash": "0x467e513593b8919e78e542aef63c58e5504906e7da51f89806ce4183cc8bb34b",
  "args": [],
  "numDeployments": 2,
  "solcInputHash": "56930af7b938deac2ecf057e8304b3a4",
  "bytecode": "0x608060405234801561001057600080fd5b50611400806100206000396000f3fe608060405234801561001057600080fd5b50600436106100be5760003560e01c80637a18159711610076578063a574cea41161005b578063a574cea4146101ca578063a5d5a10b146101dd578063c87b56dd146101f057600080fd5b80637a181597146101845780638a8351ef146101b757600080fd5b806355d26c46116100a757806355d26c46146101175780636352211e1461012a57806370a082311461016257600080fd5b806306febcba146100c35780630daefed5146100ee575b600080fd5b6100ec6100d1366004610ae2565b6000908152602081905260409020805460ff19166001179055565b005b6101016100fc366004610ae2565b610203565b60405161010e9190610b1f565b60405180910390f35b610101610125366004610ae2565b610392565b61013d610138366004610ae2565b503290565b60405173ffffffffffffffffffffffffffffffffffffffff909116815260200161010e565b610176610170366004610b52565b50600190565b60405190815260200161010e565b6101a7610192366004610ae2565b60006020819052908152604090205460ff1681565b604051901515815260200161010e565b6101016101c5366004610c1c565b610721565b6101016101d8366004610ae2565b610758565b6101016101eb366004610c1c565b610789565b6101016101fe366004610ae2565b6107a4565b606060007368AD5E2e4709849e1730aFF98C9b78648EF2752d6343e3b108847368AD5E2e4709849e1730aFF98C9b78648EF2752d638f6aa355876040518263ffffffff1660e01b815260040161025b91815260200190565b602060405180830381865af4158015610278573d6000803e3d6000fd5b505050506040513d601f19601f8201168201806040525081019061029c9190610cef565b6040517fffffffff0000000000000000000000000000000000000000000000000000000060e085901b168152600481019290925263ffffffff166024820152600060448201819052606482015260840161012060405180830381865af415801561030a573d6000803e3d6000fd5b505050506040513d601f19601f8201168201806040525081019061032e9190610d2b565b90506000610340848360006001610721565b6040516020016103509190610dc2565b604051602081830303815290604052905061036a8161080c565b60405160200161037a9190610dde565b60405160208183030381529060405292505050919050565b60606000604051602001610513907f3c672069643d22736b796d61746822206f7061636974793d2231222066696c6c81527f3d226e6f6e6522207374726f6b653d22776869746522207374726f6b652d776960208201527f6474683d2231223e00000000000000000000000000000000000000000000000060408201527f3c636972636c6520723d223830222063783d22333430222063793d223137302260488201527f207374726f6b652d6461736861727261793d22302031203022206f7061636974606882018190527f793d22302e3822202f3e00000000000000000000000000000000000000000000608883018190527f3c636972636c6520723d223835222063783d22333430222063793d223137302260928401527f207374726f6b652d6461736861727261793d22312030203122206f706163697460b284015260d283018190527f3c636972636c6520723d223930222063783d22333430222063793d223137302260dc84015260fc83019190915261011c8201526101260190565b60408051601f1981840301815291905290506000610532600685610e39565b9050600060058260ff161015610548578161054b565b60055b905060005b8160ff168161ffff1610156106f657837368AD5E2e4709849e1730aFF98C9b78648EF2752d631b0d4b4d610585846005610e5b565b6105919061014a610e81565b6040517fffffffff0000000000000000000000000000000000000000000000000000000060e084901b16815261ffff9091166004820152602401600060405180830381865af41580156105e8573d6000803e3d6000fd5b505050506040513d6000823e601f3d908101601f191682016040526106109190810190610ea3565b7368AD5E2e4709849e1730aFF98C9b78648EF2752d631b0d4b4d610635856005610e5b565b6106419061014a610e81565b6040517fffffffff0000000000000000000000000000000000000000000000000000000060e084901b16815261ffff9091166004820152602401600060405180830381865af4158015610698573d6000803e3d6000fd5b505050506040513d6000823e601f3d908101601f191682016040526106c09190810190610ea3565b6040516020016106d293929190610f50565b604051602081830303815290604052935080806106ee90611018565b915050610550565b50826040516020016107089190611039565b60408051601f1981840301815291905295945050505050565b606061072f85858585610789565b60405160200161073f9190611061565b6040516020818303038152906040529050949350505050565b60606107638261095f565b60405160200161077391906110f3565b6040516020818303038152906040529050919050565b606061079483610392565b60405160200161073f91906111d1565b606060006107b183610758565b6107ba84610203565b6040516020016107cb929190611224565b60405160208183030381529060405290506107e58161080c565b6040516020016107f5919061131b565b604051602081830303815290604052915050919050565b6060815160000361082b57505060408051602081019091526000815290565b600060405180606001604052806040815260200161138b604091399050600060038451600261085a9190611360565b6108649190610e39565b61086f906004611373565b67ffffffffffffffff81111561088757610887610b8f565b6040519080825280601f01601f1916602001820160405280156108b1576020820181803683370190505b509050600182016020820185865187015b8082101561091d576003820191508151603f8160121c168501518453600184019350603f81600c1c168501518453600184019350603f8160061c168501518453600184019350603f81168501518453506001830192506108c2565b5050600386510660018114610939576002811461094c57610954565b603d6001830353603d6002830353610954565b603d60018303535b509195945050505050565b6060600061096c836109ff565b600101905060008167ffffffffffffffff81111561098c5761098c610b8f565b6040519080825280601f01601f1916602001820160405280156109b6576020820181803683370190505b5090508181016020015b600019017f3031323334353637383961626364656600000000000000000000000000000000600a86061a8153600a85049450846109c057509392505050565b6000807a184f03e93ff9f4daa797ed6e38ed64bf6a1f0100000000000000008310610a48577a184f03e93ff9f4daa797ed6e38ed64bf6a1f010000000000000000830492506040015b6d04ee2d6d415b85acef81000000008310610a74576d04ee2d6d415b85acef8100000000830492506020015b662386f26fc100008310610a9257662386f26fc10000830492506010015b6305f5e1008310610aaa576305f5e100830492506008015b6127108310610abe57612710830492506004015b60648310610ad0576064830492506002015b600a8310610adc576001015b92915050565b600060208284031215610af457600080fd5b5035919050565b60005b83811015610b16578181015183820152602001610afe565b50506000910152565b6020815260008251806020840152610b3e816040850160208701610afb565b601f01601f19169190910160400192915050565b600060208284031215610b6457600080fd5b813573ffffffffffffffffffffffffffffffffffffffff81168114610b8857600080fd5b9392505050565b634e487b7160e01b600052604160045260246000fd5b604051610120810167ffffffffffffffff81118282101715610bc957610bc9610b8f565b60405290565b61ffff81168114610bdf57600080fd5b50565b8035610bed81610bcf565b919050565b60ff81168114610bdf57600080fd5b8035610bed81610bf2565b80358015158114610bed57600080fd5b600080600080848603610180811215610c3457600080fd5b8535945061012080601f1983011215610c4c57600080fd5b610c54610ba5565b915060208701358252610c6960408801610be2565b6020830152610c7a60608801610be2565b6040830152610c8b60808801610c01565b6060830152610c9c60a08801610c01565b608083015260c087013560a083015260e087013560c08301526101008088013560e084015281880135818401525050809350506101408501359150610ce46101608601610c0c565b905092959194509250565b600060208284031215610d0157600080fd5b815163ffffffff81168114610b8857600080fd5b8051610bed81610bcf565b8051610bed81610bf2565b60006101208284031215610d3e57600080fd5b610d46610ba5565b82518152610d5660208401610d15565b6020820152610d6760408401610d15565b6040820152610d7860608401610d20565b6060820152610d8960808401610d20565b608082015260a083015160a082015260c083015160c082015260e083015160e08201526101008084015181830152508091505092915050565b60008251610dd4818460208701610afb565b9190910192915050565b7f646174613a696d6167652f7376672b786d6c3b6261736536342c000000000000815260008251610e1681601a850160208701610afb565b91909101601a0192915050565b634e487b7160e01b600052601160045260246000fd5b600082610e5657634e487b7160e01b600052601260045260246000fd5b500490565b61ffff818116838216028082169190828114610e7957610e79610e23565b505092915050565b61ffff818116838216019080821115610e9c57610e9c610e23565b5092915050565b600060208284031215610eb557600080fd5b815167ffffffffffffffff80821115610ecd57600080fd5b818401915084601f830112610ee157600080fd5b815181811115610ef357610ef3610b8f565b604051601f8201601f19908116603f01168101908382118183101715610f1b57610f1b610b8f565b81604052828152876020848701011115610f3457600080fd5b610f45836020830160208801610afb565b979650505050505050565b60008451610f62818460208901610afb565b80830190507f3c706174682064203d20224d00000000000000000000000000000000000000008082528551610f9e81600c850160208a01610afb565b7f2030207620383022206f7061636974793d22302e3522202f3e00000000000000600c939091019283015260258201528351610fe1816031840160208801610afb565b7f2032363020762032383022206f7061636974793d22302e3522202f3e0000000060319290910191820152604d0195945050505050565b600061ffff80831681810361102f5761102f610e23565b6001019392505050565b6000825161104b818460208701610afb565b631e17b39f60e11b920191825250600401919050565b7f3c7376672076696577426f783d2230203020353132203531322220786d6c6e7381527f3d22687474703a2f2f7777772e77332e6f72672f323030302f737667223e00006020820152600082516110bf81603e850160208701610afb565b7f3c2f7376673e0000000000000000000000000000000000000000000000000000603e939091019283015250604401919050565b7f226e616d65223a202254776f204d6f6f6e7320536b79204d617468202300000081526000825161112b81601d850160208701610afb565b7f222c000000000000000000000000000000000000000000000000000000000000601d9390910192830152507f226465736372697074696f6e223a202241206d617468656d61746963616c2061601f8201527f6e6f6d616c7920666f7220796f75722054776f204d6f6f6e73204e6967687420603f8201527f536b792200000000000000000000000000000000000000000000000000000000605f820152606301919050565b7f3c673e0000000000000000000000000000000000000000000000000000000000815260008251611209816003850160208701610afb565b631e17b39f60e11b6003939091019283015250600701919050565b7f7b0000000000000000000000000000000000000000000000000000000000000081526000835161125c816001850160208801610afb565b7f2c000000000000000000000000000000000000000000000000000000000000006001918401918201527f22696d616765223a202200000000000000000000000000000000000000000000600282015283516112bf81600c840160208801610afb565b7f2200000000000000000000000000000000000000000000000000000000000000600c92909101918201527f7d00000000000000000000000000000000000000000000000000000000000000600d820152600e01949350505050565b7f646174613a6170706c69636174696f6e2f6a736f6e3b6261736536342c00000081526000825161135381601d850160208701610afb565b91909101601d0192915050565b80820180821115610adc57610adc610e23565b8082028115828204841417610adc57610adc610e2356fe4142434445464748494a4b4c4d4e4f505152535455565758595a6162636465666768696a6b6c6d6e6f707172737475767778797a303132333435363738392b2fa2646970667358221220eeb4fe416f2af3a223b2707aafce2a393b04b529b5ff2770c157e4fc34ab27c864736f6c63430008120033",
  "deployedBytecode": "0x608060405234801561001057600080fd5b50600436106100be5760003560e01c80637a18159711610076578063a574cea41161005b578063a574cea4146101ca578063a5d5a10b146101dd578063c87b56dd146101f057600080fd5b80637a181597146101845780638a8351ef146101b757600080fd5b806355d26c46116100a757806355d26c46146101175780636352211e1461012a57806370a082311461016257600080fd5b806306febcba146100c35780630daefed5146100ee575b600080fd5b6100ec6100d1366004610ae2565b6000908152602081905260409020805460ff19166001179055565b005b6101016100fc366004610ae2565b610203565b60405161010e9190610b1f565b60405180910390f35b610101610125366004610ae2565b610392565b61013d610138366004610ae2565b503290565b60405173ffffffffffffffffffffffffffffffffffffffff909116815260200161010e565b610176610170366004610b52565b50600190565b60405190815260200161010e565b6101a7610192366004610ae2565b60006020819052908152604090205460ff1681565b604051901515815260200161010e565b6101016101c5366004610c1c565b610721565b6101016101d8366004610ae2565b610758565b6101016101eb366004610c1c565b610789565b6101016101fe366004610ae2565b6107a4565b6060600073__$11e21e6c56ca563b85c74e3fd3a08242f9$__6343e3b1088473__$11e21e6c56ca563b85c74e3fd3a08242f9$__638f6aa355876040518263ffffffff1660e01b815260040161025b91815260200190565b602060405180830381865af4158015610278573d6000803e3d6000fd5b505050506040513d601f19601f8201168201806040525081019061029c9190610cef565b6040517fffffffff0000000000000000000000000000000000000000000000000000000060e085901b168152600481019290925263ffffffff166024820152600060448201819052606482015260840161012060405180830381865af415801561030a573d6000803e3d6000fd5b505050506040513d601f19601f8201168201806040525081019061032e9190610d2b565b90506000610340848360006001610721565b6040516020016103509190610dc2565b604051602081830303815290604052905061036a8161080c565b60405160200161037a9190610dde565b60405160208183030381529060405292505050919050565b60606000604051602001610513907f3c672069643d22736b796d61746822206f7061636974793d2231222066696c6c81527f3d226e6f6e6522207374726f6b653d22776869746522207374726f6b652d776960208201527f6474683d2231223e00000000000000000000000000000000000000000000000060408201527f3c636972636c6520723d223830222063783d22333430222063793d223137302260488201527f207374726f6b652d6461736861727261793d22302031203022206f7061636974606882018190527f793d22302e3822202f3e00000000000000000000000000000000000000000000608883018190527f3c636972636c6520723d223835222063783d22333430222063793d223137302260928401527f207374726f6b652d6461736861727261793d22312030203122206f706163697460b284015260d283018190527f3c636972636c6520723d223930222063783d22333430222063793d223137302260dc84015260fc83019190915261011c8201526101260190565b60408051601f1981840301815291905290506000610532600685610e39565b9050600060058260ff161015610548578161054b565b60055b905060005b8160ff168161ffff1610156106f6578373__$11e21e6c56ca563b85c74e3fd3a08242f9$__631b0d4b4d610585846005610e5b565b6105919061014a610e81565b6040517fffffffff0000000000000000000000000000000000000000000000000000000060e084901b16815261ffff9091166004820152602401600060405180830381865af41580156105e8573d6000803e3d6000fd5b505050506040513d6000823e601f3d908101601f191682016040526106109190810190610ea3565b73__$11e21e6c56ca563b85c74e3fd3a08242f9$__631b0d4b4d610635856005610e5b565b6106419061014a610e81565b6040517fffffffff0000000000000000000000000000000000000000000000000000000060e084901b16815261ffff9091166004820152602401600060405180830381865af4158015610698573d6000803e3d6000fd5b505050506040513d6000823e601f3d908101601f191682016040526106c09190810190610ea3565b6040516020016106d293929190610f50565b604051602081830303815290604052935080806106ee90611018565b915050610550565b50826040516020016107089190611039565b60408051601f1981840301815291905295945050505050565b606061072f85858585610789565b60405160200161073f9190611061565b6040516020818303038152906040529050949350505050565b60606107638261095f565b60405160200161077391906110f3565b6040516020818303038152906040529050919050565b606061079483610392565b60405160200161073f91906111d1565b606060006107b183610758565b6107ba84610203565b6040516020016107cb929190611224565b60405160208183030381529060405290506107e58161080c565b6040516020016107f5919061131b565b604051602081830303815290604052915050919050565b6060815160000361082b57505060408051602081019091526000815290565b600060405180606001604052806040815260200161138b604091399050600060038451600261085a9190611360565b6108649190610e39565b61086f906004611373565b67ffffffffffffffff81111561088757610887610b8f565b6040519080825280601f01601f1916602001820160405280156108b1576020820181803683370190505b509050600182016020820185865187015b8082101561091d576003820191508151603f8160121c168501518453600184019350603f81600c1c168501518453600184019350603f8160061c168501518453600184019350603f81168501518453506001830192506108c2565b5050600386510660018114610939576002811461094c57610954565b603d6001830353603d6002830353610954565b603d60018303535b509195945050505050565b6060600061096c836109ff565b600101905060008167ffffffffffffffff81111561098c5761098c610b8f565b6040519080825280601f01601f1916602001820160405280156109b6576020820181803683370190505b5090508181016020015b600019017f3031323334353637383961626364656600000000000000000000000000000000600a86061a8153600a85049450846109c057509392505050565b6000807a184f03e93ff9f4daa797ed6e38ed64bf6a1f0100000000000000008310610a48577a184f03e93ff9f4daa797ed6e38ed64bf6a1f010000000000000000830492506040015b6d04ee2d6d415b85acef81000000008310610a74576d04ee2d6d415b85acef8100000000830492506020015b662386f26fc100008310610a9257662386f26fc10000830492506010015b6305f5e1008310610aaa576305f5e100830492506008015b6127108310610abe57612710830492506004015b60648310610ad0576064830492506002015b600a8310610adc576001015b92915050565b600060208284031215610af457600080fd5b5035919050565b60005b83811015610b16578181015183820152602001610afe565b50506000910152565b6020815260008251806020840152610b3e816040850160208701610afb565b601f01601f19169190910160400192915050565b600060208284031215610b6457600080fd5b813573ffffffffffffffffffffffffffffffffffffffff81168114610b8857600080fd5b9392505050565b634e487b7160e01b600052604160045260246000fd5b604051610120810167ffffffffffffffff81118282101715610bc957610bc9610b8f565b60405290565b61ffff81168114610bdf57600080fd5b50565b8035610bed81610bcf565b919050565b60ff81168114610bdf57600080fd5b8035610bed81610bf2565b80358015158114610bed57600080fd5b600080600080848603610180811215610c3457600080fd5b8535945061012080601f1983011215610c4c57600080fd5b610c54610ba5565b915060208701358252610c6960408801610be2565b6020830152610c7a60608801610be2565b6040830152610c8b60808801610c01565b6060830152610c9c60a08801610c01565b608083015260c087013560a083015260e087013560c08301526101008088013560e084015281880135818401525050809350506101408501359150610ce46101608601610c0c565b905092959194509250565b600060208284031215610d0157600080fd5b815163ffffffff81168114610b8857600080fd5b8051610bed81610bcf565b8051610bed81610bf2565b60006101208284031215610d3e57600080fd5b610d46610ba5565b82518152610d5660208401610d15565b6020820152610d6760408401610d15565b6040820152610d7860608401610d20565b6060820152610d8960808401610d20565b608082015260a083015160a082015260c083015160c082015260e083015160e08201526101008084015181830152508091505092915050565b60008251610dd4818460208701610afb565b9190910192915050565b7f646174613a696d6167652f7376672b786d6c3b6261736536342c000000000000815260008251610e1681601a850160208701610afb565b91909101601a0192915050565b634e487b7160e01b600052601160045260246000fd5b600082610e5657634e487b7160e01b600052601260045260246000fd5b500490565b61ffff818116838216028082169190828114610e7957610e79610e23565b505092915050565b61ffff818116838216019080821115610e9c57610e9c610e23565b5092915050565b600060208284031215610eb557600080fd5b815167ffffffffffffffff80821115610ecd57600080fd5b818401915084601f830112610ee157600080fd5b815181811115610ef357610ef3610b8f565b604051601f8201601f19908116603f01168101908382118183101715610f1b57610f1b610b8f565b81604052828152876020848701011115610f3457600080fd5b610f45836020830160208801610afb565b979650505050505050565b60008451610f62818460208901610afb565b80830190507f3c706174682064203d20224d00000000000000000000000000000000000000008082528551610f9e81600c850160208a01610afb565b7f2030207620383022206f7061636974793d22302e3522202f3e00000000000000600c939091019283015260258201528351610fe1816031840160208801610afb565b7f2032363020762032383022206f7061636974793d22302e3522202f3e0000000060319290910191820152604d0195945050505050565b600061ffff80831681810361102f5761102f610e23565b6001019392505050565b6000825161104b818460208701610afb565b631e17b39f60e11b920191825250600401919050565b7f3c7376672076696577426f783d2230203020353132203531322220786d6c6e7381527f3d22687474703a2f2f7777772e77332e6f72672f323030302f737667223e00006020820152600082516110bf81603e850160208701610afb565b7f3c2f7376673e0000000000000000000000000000000000000000000000000000603e939091019283015250604401919050565b7f226e616d65223a202254776f204d6f6f6e7320536b79204d617468202300000081526000825161112b81601d850160208701610afb565b7f222c000000000000000000000000000000000000000000000000000000000000601d9390910192830152507f226465736372697074696f6e223a202241206d617468656d61746963616c2061601f8201527f6e6f6d616c7920666f7220796f75722054776f204d6f6f6e73204e6967687420603f8201527f536b792200000000000000000000000000000000000000000000000000000000605f820152606301919050565b7f3c673e0000000000000000000000000000000000000000000000000000000000815260008251611209816003850160208701610afb565b631e17b39f60e11b6003939091019283015250600701919050565b7f7b0000000000000000000000000000000000000000000000000000000000000081526000835161125c816001850160208801610afb565b7f2c000000000000000000000000000000000000000000000000000000000000006001918401918201527f22696d616765223a202200000000000000000000000000000000000000000000600282015283516112bf81600c840160208801610afb565b7f2200000000000000000000000000000000000000000000000000000000000000600c92909101918201527f7d00000000000000000000000000000000000000000000000000000000000000600d820152600e01949350505050565b7f646174613a6170706c69636174696f6e2f6a736f6e3b6261736536342c00000081526000825161135381601d850160208701610afb565b91909101601d0192915050565b80820180821115610adc57610adc610e23565b8082028115828204841417610adc57610adc610e2356fe4142434445464748494a4b4c4d4e4f505152535455565758595a6162636465666768696a6b6c6d6e6f707172737475767778797a303132333435363738392b2fa2646970667358221220eeb4fe416f2af3a223b2707aafce2a393b04b529b5ff2770c157e4fc34ab27c864736f6c63430008120033",
  "libraries": {
    "Color": "0x68AD5E2e4709849e1730aFF98C9b78648EF2752d"
  },
  "devdoc": {
    "kind": "dev",
    "methods": {},
    "version": 1
  },
  "userdoc": {
    "kind": "user",
    "methods": {},
    "version": 1
  },
  "storageLayout": {
    "storage": [
      {
        "astId": 9132,
        "contract": "contracts/chainellations/decos/SkyCircle.sol:SkyCircle",
        "label": "soulbound",
        "offset": 0,
        "slot": "0",
        "type": "t_mapping(t_uint256,t_bool)"
      }
    ],
    "types": {
      "t_bool": {
        "encoding": "inplace",
        "label": "bool",
        "numberOfBytes": "1"
      },
      "t_mapping(t_uint256,t_bool)": {
        "encoding": "mapping",
        "key": "t_uint256",
        "label": "mapping(uint256 => bool)",
        "numberOfBytes": "32",
        "value": "t_bool"
      },
      "t_uint256": {
        "encoding": "inplace",
        "label": "uint256",
        "numberOfBytes": "32"
      }
    }
  }
}