{
  "address": "0xCf7Ed3AccA5a467e9e704C703E8D87F634fB0Fc9",
  "abi": [
    {
      "inputs": [
        {
          "internalType": "address",
          "name": "renderer",
          "type": "address"
        }
      ],
      "stateMutability": "nonpayable",
      "type": "constructor"
    },
    {
      "inputs": [],
      "name": "ApprovalCallerNotOwnerNorApproved",
      "type": "error"
    },
    {
      "inputs": [],
      "name": "ApprovalQueryForNonexistentToken",
      "type": "error"
    },
    {
      "inputs": [],
      "name": "BalanceQueryForZeroAddress",
      "type": "error"
    },
    {
      "inputs": [],
      "name": "Cost",
      "type": "error"
    },
    {
      "inputs": [],
      "name": "InvalidQueryRange",
      "type": "error"
    },
    {
      "inputs": [],
      "name": "MaxSupplyReached",
      "type": "error"
    },
    {
      "inputs": [],
      "name": "MintERC2309QuantityExceedsLimit",
      "type": "error"
    },
    {
      "inputs": [],
      "name": "MintToZeroAddress",
      "type": "error"
    },
    {
      "inputs": [],
      "name": "MintZeroQuantity",
      "type": "error"
    },
    {
      "inputs": [],
      "name": "NotEnoughTimePassed",
      "type": "error"
    },
    {
      "inputs": [],
      "name": "NotMinted",
      "type": "error"
    },
    {
      "inputs": [],
      "name": "NotNight",
      "type": "error"
    },
    {
      "inputs": [],
      "name": "NotTheOwner",
      "type": "error"
    },
    {
      "inputs": [],
      "name": "OwnerQueryForNonexistentToken",
      "type": "error"
    },
    {
      "inputs": [],
      "name": "OwnershipNotInitializedForExtraData",
      "type": "error"
    },
    {
      "inputs": [],
      "name": "TooCloudy",
      "type": "error"
    },
    {
      "inputs": [],
      "name": "TransferCallerNotOwnerNorApproved",
      "type": "error"
    },
    {
      "inputs": [],
      "name": "TransferFromIncorrectOwner",
      "type": "error"
    },
    {
      "inputs": [],
      "name": "TransferToNonERC721ReceiverImplementer",
      "type": "error"
    },
    {
      "inputs": [],
      "name": "TransferToZeroAddress",
      "type": "error"
    },
    {
      "inputs": [],
      "name": "URIQueryForNonexistentToken",
      "type": "error"
    },
    {
      "anonymous": false,
      "inputs": [
        {
          "indexed": true,
          "internalType": "address",
          "name": "owner",
          "type": "address"
        },
        {
          "indexed": true,
          "internalType": "address",
          "name": "approved",
          "type": "address"
        },
        {
          "indexed": true,
          "internalType": "uint256",
          "name": "tokenId",
          "type": "uint256"
        }
      ],
      "name": "Approval",
      "type": "event"
    },
    {
      "anonymous": false,
      "inputs": [
        {
          "indexed": true,
          "internalType": "address",
          "name": "owner",
          "type": "address"
        },
        {
          "indexed": true,
          "internalType": "address",
          "name": "operator",
          "type": "address"
        },
        {
          "indexed": false,
          "internalType": "bool",
          "name": "approved",
          "type": "bool"
        }
      ],
      "name": "ApprovalForAll",
      "type": "event"
    },
    {
      "anonymous": false,
      "inputs": [
        {
          "indexed": true,
          "internalType": "uint256",
          "name": "fromTokenId",
          "type": "uint256"
        },
        {
          "indexed": false,
          "internalType": "uint256",
          "name": "toTokenId",
          "type": "uint256"
        },
        {
          "indexed": true,
          "internalType": "address",
          "name": "from",
          "type": "address"
        },
        {
          "indexed": true,
          "internalType": "address",
          "name": "to",
          "type": "address"
        }
      ],
      "name": "ConsecutiveTransfer",
      "type": "event"
    },
    {
      "anonymous": false,
      "inputs": [
        {
          "indexed": true,
          "internalType": "address",
          "name": "previousOwner",
          "type": "address"
        },
        {
          "indexed": true,
          "internalType": "address",
          "name": "newOwner",
          "type": "address"
        }
      ],
      "name": "OwnershipTransferred",
      "type": "event"
    },
    {
      "anonymous": false,
      "inputs": [
        {
          "indexed": true,
          "internalType": "address",
          "name": "from",
          "type": "address"
        },
        {
          "indexed": true,
          "internalType": "address",
          "name": "to",
          "type": "address"
        },
        {
          "indexed": true,
          "internalType": "uint256",
          "name": "tokenId",
          "type": "uint256"
        }
      ],
      "name": "Transfer",
      "type": "event"
    },
    {
      "inputs": [
        {
          "internalType": "address",
          "name": "to",
          "type": "address"
        },
        {
          "internalType": "uint256",
          "name": "tokenId",
          "type": "uint256"
        }
      ],
      "name": "approve",
      "outputs": [],
      "stateMutability": "payable",
      "type": "function"
    },
    {
      "inputs": [
        {
          "internalType": "address",
          "name": "owner",
          "type": "address"
        }
      ],
      "name": "balanceOf",
      "outputs": [
        {
          "internalType": "uint256",
          "name": "",
          "type": "uint256"
        }
      ],
      "stateMutability": "view",
      "type": "function"
    },
    {
      "inputs": [],
      "name": "contractURI",
      "outputs": [
        {
          "internalType": "string",
          "name": "",
          "type": "string"
        }
      ],
      "stateMutability": "view",
      "type": "function"
    },
    {
      "inputs": [],
      "name": "currentSupply",
      "outputs": [
        {
          "internalType": "uint256",
          "name": "",
          "type": "uint256"
        }
      ],
      "stateMutability": "view",
      "type": "function"
    },
    {
      "inputs": [],
      "name": "customizeCost",
      "outputs": [
        {
          "internalType": "uint256",
          "name": "",
          "type": "uint256"
        }
      ],
      "stateMutability": "view",
      "type": "function"
    },
    {
      "inputs": [
        {
          "internalType": "uint256",
          "name": "",
          "type": "uint256"
        }
      ],
      "name": "dnas",
      "outputs": [
        {
          "internalType": "uint16",
          "name": "primaryHue",
          "type": "uint16"
        },
        {
          "internalType": "uint16",
          "name": "secondaryHue",
          "type": "uint16"
        },
        {
          "internalType": "uint16",
          "name": "constellation",
          "type": "uint16"
        },
        {
          "internalType": "uint16",
          "name": "cloudsAt",
          "type": "uint16"
        }
      ],
      "stateMutability": "view",
      "type": "function"
    },
    {
      "inputs": [
        {
          "internalType": "uint256",
          "name": "tokenId",
          "type": "uint256"
        }
      ],
      "name": "explicitOwnershipOf",
      "outputs": [
        {
          "components": [
            {
              "internalType": "address",
              "name": "addr",
              "type": "address"
            },
            {
              "internalType": "uint64",
              "name": "startTimestamp",
              "type": "uint64"
            },
            {
              "internalType": "bool",
              "name": "burned",
              "type": "bool"
            },
            {
              "internalType": "uint24",
              "name": "extraData",
              "type": "uint24"
            }
          ],
          "internalType": "struct IERC721A.TokenOwnership",
          "name": "",
          "type": "tuple"
        }
      ],
      "stateMutability": "view",
      "type": "function"
    },
    {
      "inputs": [
        {
          "internalType": "uint256[]",
          "name": "tokenIds",
          "type": "uint256[]"
        }
      ],
      "name": "explicitOwnershipsOf",
      "outputs": [
        {
          "components": [
            {
              "internalType": "address",
              "name": "addr",
              "type": "address"
            },
            {
              "internalType": "uint64",
              "name": "startTimestamp",
              "type": "uint64"
            },
            {
              "internalType": "bool",
              "name": "burned",
              "type": "bool"
            },
            {
              "internalType": "uint24",
              "name": "extraData",
              "type": "uint24"
            }
          ],
          "internalType": "struct IERC721A.TokenOwnership[]",
          "name": "",
          "type": "tuple[]"
        }
      ],
      "stateMutability": "view",
      "type": "function"
    },
    {
      "inputs": [
        {
          "internalType": "uint32",
          "name": "timezoneOffset",
          "type": "uint32"
        }
      ],
      "name": "freeMint",
      "outputs": [],
      "stateMutability": "nonpayable",
      "type": "function"
    },
    {
      "inputs": [
        {
          "internalType": "uint256[]",
          "name": "tokenIds",
          "type": "uint256[]"
        }
      ],
      "name": "gazeBatch",
      "outputs": [],
      "stateMutability": "nonpayable",
      "type": "function"
    },
    {
      "inputs": [
        {
          "internalType": "uint256",
          "name": "tokenId",
          "type": "uint256"
        }
      ],
      "name": "generateCharacter",
      "outputs": [
        {
          "internalType": "string",
          "name": "",
          "type": "string"
        }
      ],
      "stateMutability": "view",
      "type": "function"
    },
    {
      "inputs": [
        {
          "internalType": "uint256",
          "name": "_tokenId",
          "type": "uint256"
        },
        {
          "internalType": "uint256",
          "name": "_gazed",
          "type": "uint256"
        },
        {
          "internalType": "bool",
          "name": "_sunUp",
          "type": "bool"
        },
        {
          "internalType": "uint8",
          "name": "testConstellation",
          "type": "uint8"
        }
      ],
      "name": "generateSVG",
      "outputs": [
        {
          "internalType": "string",
          "name": "",
          "type": "string"
        }
      ],
      "stateMutability": "view",
      "type": "function"
    },
    {
      "inputs": [
        {
          "internalType": "uint256",
          "name": "tokenId",
          "type": "uint256"
        }
      ],
      "name": "getApproved",
      "outputs": [
        {
          "internalType": "address",
          "name": "",
          "type": "address"
        }
      ],
      "stateMutability": "view",
      "type": "function"
    },
    {
      "inputs": [
        {
          "internalType": "uint256",
          "name": "tokenId",
          "type": "uint256"
        }
      ],
      "name": "getCloudsAt",
      "outputs": [
        {
          "internalType": "uint8",
          "name": "",
          "type": "uint8"
        }
      ],
      "stateMutability": "view",
      "type": "function"
    },
    {
      "inputs": [
        {
          "internalType": "uint256",
          "name": "tokenId",
          "type": "uint256"
        }
      ],
      "name": "getColors",
      "outputs": [
        {
          "internalType": "uint32",
          "name": "",
          "type": "uint32"
        }
      ],
      "stateMutability": "view",
      "type": "function"
    },
    {
      "inputs": [
        {
          "internalType": "uint256",
          "name": "tokenId",
          "type": "uint256"
        }
      ],
      "name": "getConstellation",
      "outputs": [
        {
          "internalType": "uint8",
          "name": "",
          "type": "uint8"
        }
      ],
      "stateMutability": "view",
      "type": "function"
    },
    {
      "inputs": [
        {
          "internalType": "address",
          "name": "owner",
          "type": "address"
        },
        {
          "internalType": "address",
          "name": "operator",
          "type": "address"
        }
      ],
      "name": "isApprovedForAll",
      "outputs": [
        {
          "internalType": "bool",
          "name": "",
          "type": "bool"
        }
      ],
      "stateMutability": "view",
      "type": "function"
    },
    {
      "inputs": [
        {
          "internalType": "uint256",
          "name": "tokenId",
          "type": "uint256"
        }
      ],
      "name": "isNight",
      "outputs": [
        {
          "internalType": "bool",
          "name": "",
          "type": "bool"
        }
      ],
      "stateMutability": "view",
      "type": "function"
    },
    {
      "inputs": [],
      "name": "maxSupply",
      "outputs": [
        {
          "internalType": "uint256",
          "name": "",
          "type": "uint256"
        }
      ],
      "stateMutability": "view",
      "type": "function"
    },
    {
      "inputs": [
        {
          "internalType": "uint32",
          "name": "timezoneOffset",
          "type": "uint32"
        }
      ],
      "name": "mint",
      "outputs": [],
      "stateMutability": "payable",
      "type": "function"
    },
    {
      "inputs": [],
      "name": "mintCost",
      "outputs": [
        {
          "internalType": "uint256",
          "name": "",
          "type": "uint256"
        }
      ],
      "stateMutability": "view",
      "type": "function"
    },
    {
      "inputs": [
        {
          "internalType": "uint32",
          "name": "timezoneOffset",
          "type": "uint32"
        },
        {
          "internalType": "uint16",
          "name": "firstH",
          "type": "uint16"
        },
        {
          "internalType": "uint16",
          "name": "secondH",
          "type": "uint16"
        },
        {
          "internalType": "uint8",
          "name": "_constellation",
          "type": "uint8"
        },
        {
          "internalType": "uint8",
          "name": "_cloudsAt",
          "type": "uint8"
        }
      ],
      "name": "mintCustom",
      "outputs": [],
      "stateMutability": "payable",
      "type": "function"
    },
    {
      "inputs": [],
      "name": "name",
      "outputs": [
        {
          "internalType": "string",
          "name": "",
          "type": "string"
        }
      ],
      "stateMutability": "view",
      "type": "function"
    },
    {
      "inputs": [],
      "name": "owner",
      "outputs": [
        {
          "internalType": "address",
          "name": "",
          "type": "address"
        }
      ],
      "stateMutability": "view",
      "type": "function"
    },
    {
      "inputs": [
        {
          "internalType": "uint256",
          "name": "tokenId",
          "type": "uint256"
        }
      ],
      "name": "ownerOf",
      "outputs": [
        {
          "internalType": "address",
          "name": "",
          "type": "address"
        }
      ],
      "stateMutability": "view",
      "type": "function"
    },
    {
      "inputs": [],
      "name": "renounceOwnership",
      "outputs": [],
      "stateMutability": "nonpayable",
      "type": "function"
    },
    {
      "inputs": [
        {
          "internalType": "uint256",
          "name": "tokenId",
          "type": "uint256"
        }
      ],
      "name": "reset",
      "outputs": [],
      "stateMutability": "nonpayable",
      "type": "function"
    },
    {
      "inputs": [
        {
          "internalType": "address",
          "name": "from",
          "type": "address"
        },
        {
          "internalType": "address",
          "name": "to",
          "type": "address"
        },
        {
          "internalType": "uint256",
          "name": "tokenId",
          "type": "uint256"
        }
      ],
      "name": "safeTransferFrom",
      "outputs": [],
      "stateMutability": "payable",
      "type": "function"
    },
    {
      "inputs": [
        {
          "internalType": "address",
          "name": "from",
          "type": "address"
        },
        {
          "internalType": "address",
          "name": "to",
          "type": "address"
        },
        {
          "internalType": "uint256",
          "name": "tokenId",
          "type": "uint256"
        },
        {
          "internalType": "bytes",
          "name": "_data",
          "type": "bytes"
        }
      ],
      "name": "safeTransferFrom",
      "outputs": [],
      "stateMutability": "payable",
      "type": "function"
    },
    {
      "inputs": [
        {
          "internalType": "address",
          "name": "operator",
          "type": "address"
        },
        {
          "internalType": "bool",
          "name": "approved",
          "type": "bool"
        }
      ],
      "name": "setApprovalForAll",
      "outputs": [],
      "stateMutability": "nonpayable",
      "type": "function"
    },
    {
      "inputs": [
        {
          "internalType": "uint256",
          "name": "_newCost",
          "type": "uint256"
        }
      ],
      "name": "setCustomizeCost",
      "outputs": [],
      "stateMutability": "nonpayable",
      "type": "function"
    },
    {
      "inputs": [
        {
          "internalType": "address",
          "name": "decorator",
          "type": "address"
        }
      ],
      "name": "setDecorator",
      "outputs": [],
      "stateMutability": "nonpayable",
      "type": "function"
    },
    {
      "inputs": [
        {
          "internalType": "uint256",
          "name": "_maxSupply",
          "type": "uint256"
        }
      ],
      "name": "setMaxSupply",
      "outputs": [],
      "stateMutability": "nonpayable",
      "type": "function"
    },
    {
      "inputs": [
        {
          "internalType": "uint256",
          "name": "_newMintCost",
          "type": "uint256"
        }
      ],
      "name": "setMintCost",
      "outputs": [],
      "stateMutability": "nonpayable",
      "type": "function"
    },
    {
      "inputs": [
        {
          "internalType": "address",
          "name": "renderer",
          "type": "address"
        }
      ],
      "name": "setRenderer",
      "outputs": [],
      "stateMutability": "nonpayable",
      "type": "function"
    },
    {
      "inputs": [
        {
          "internalType": "address",
          "name": "twoMoonsEvent",
          "type": "address"
        }
      ],
      "name": "setTwoMoonsEvent",
      "outputs": [],
      "stateMutability": "nonpayable",
      "type": "function"
    },
    {
      "inputs": [
        {
          "internalType": "uint256",
          "name": "tokenId",
          "type": "uint256"
        }
      ],
      "name": "starGaze",
      "outputs": [],
      "stateMutability": "nonpayable",
      "type": "function"
    },
    {
      "inputs": [
        {
          "internalType": "uint256",
          "name": "",
          "type": "uint256"
        }
      ],
      "name": "stats",
      "outputs": [
        {
          "internalType": "uint8",
          "name": "constellation",
          "type": "uint8"
        },
        {
          "internalType": "uint8",
          "name": "cloudsAt",
          "type": "uint8"
        },
        {
          "internalType": "uint16",
          "name": "gazes",
          "type": "uint16"
        },
        {
          "internalType": "uint32",
          "name": "timeZoneOffset",
          "type": "uint32"
        },
        {
          "internalType": "uint32",
          "name": "colors",
          "type": "uint32"
        },
        {
          "internalType": "uint48",
          "name": "lastGaze",
          "type": "uint48"
        },
        {
          "internalType": "uint144",
          "name": "consolidated",
          "type": "uint144"
        }
      ],
      "stateMutability": "view",
      "type": "function"
    },
    {
      "inputs": [
        {
          "internalType": "bytes4",
          "name": "interfaceId",
          "type": "bytes4"
        }
      ],
      "name": "supportsInterface",
      "outputs": [
        {
          "internalType": "bool",
          "name": "",
          "type": "bool"
        }
      ],
      "stateMutability": "view",
      "type": "function"
    },
    {
      "inputs": [],
      "name": "symbol",
      "outputs": [
        {
          "internalType": "string",
          "name": "",
          "type": "string"
        }
      ],
      "stateMutability": "view",
      "type": "function"
    },
    {
      "inputs": [
        {
          "internalType": "uint256",
          "name": "tokenId",
          "type": "uint256"
        }
      ],
      "name": "systemTimeOffsetWithUser",
      "outputs": [
        {
          "internalType": "uint48",
          "name": "",
          "type": "uint48"
        }
      ],
      "stateMutability": "view",
      "type": "function"
    },
    {
      "inputs": [
        {
          "internalType": "uint256",
          "name": "tokenId",
          "type": "uint256"
        }
      ],
      "name": "tokenURI",
      "outputs": [
        {
          "internalType": "string",
          "name": "",
          "type": "string"
        }
      ],
      "stateMutability": "view",
      "type": "function"
    },
    {
      "inputs": [
        {
          "internalType": "address",
          "name": "owner",
          "type": "address"
        }
      ],
      "name": "tokensOfOwner",
      "outputs": [
        {
          "internalType": "uint256[]",
          "name": "",
          "type": "uint256[]"
        }
      ],
      "stateMutability": "view",
      "type": "function"
    },
    {
      "inputs": [
        {
          "internalType": "address",
          "name": "owner",
          "type": "address"
        },
        {
          "internalType": "uint256",
          "name": "start",
          "type": "uint256"
        },
        {
          "internalType": "uint256",
          "name": "stop",
          "type": "uint256"
        }
      ],
      "name": "tokensOfOwnerIn",
      "outputs": [
        {
          "internalType": "uint256[]",
          "name": "",
          "type": "uint256[]"
        }
      ],
      "stateMutability": "view",
      "type": "function"
    },
    {
      "inputs": [],
      "name": "totalSupply",
      "outputs": [
        {
          "internalType": "uint256",
          "name": "",
          "type": "uint256"
        }
      ],
      "stateMutability": "view",
      "type": "function"
    },
    {
      "inputs": [
        {
          "internalType": "address",
          "name": "from",
          "type": "address"
        },
        {
          "internalType": "address",
          "name": "to",
          "type": "address"
        },
        {
          "internalType": "uint256",
          "name": "tokenId",
          "type": "uint256"
        }
      ],
      "name": "transferFrom",
      "outputs": [],
      "stateMutability": "payable",
      "type": "function"
    },
    {
      "inputs": [
        {
          "internalType": "address",
          "name": "newOwner",
          "type": "address"
        }
      ],
      "name": "transferOwnership",
      "outputs": [],
      "stateMutability": "nonpayable",
      "type": "function"
    },
    {
      "inputs": [],
      "name": "withdraw",
      "outputs": [],
      "stateMutability": "nonpayable",
      "type": "function"
    },
    {
      "inputs": [
        {
          "internalType": "address",
          "name": "_tokenContract",
          "type": "address"
        },
        {
          "internalType": "uint256",
          "name": "_amount",
          "type": "uint256"
        }
      ],
      "name": "withdrawToken",
      "outputs": [],
      "stateMutability": "nonpayable",
      "type": "function"
    }
  ],
  "transactionHash": "0x28d1afb634ffe1172c8011688ddfa29cd60a1d2f136448217332a1f349a140c1",
  "args": [
    "0x9fE46736679d2D9a65F0992F2272dE9f3c7fa6e0"
  ],
  "numDeployments": 1,
  "solcInputHash": "d21f550c60dc4355172fd3573cca8c5c",
  "bytecode": "0x6080604052613a98600a556000600b556000600c553480156200002157600080fd5b5060405162003a8d38038062003a8d833981016040819052620000449162000133565b6040518060400160405280600d81526020016c31b430b4b732b63630ba34b7b760991b81525060405180604001604052806005815260200164535441525360d81b81525081600290816200009991906200020a565b506003620000a882826200020a565b5050600160005550620000bb33620000e1565b601080546001600160a01b0319166001600160a01b0392909216919091179055620002d6565b600880546001600160a01b038381166001600160a01b0319831681179093556040519116919082907f8be0079c531659141344cd1fd0a4f28419497f9722a3daafe3b4186f6b6457e090600090a35050565b6000602082840312156200014657600080fd5b81516001600160a01b03811681146200015e57600080fd5b9392505050565b634e487b7160e01b600052604160045260246000fd5b600181811c908216806200019057607f821691505b602082108103620001b157634e487b7160e01b600052602260045260246000fd5b50919050565b601f8211156200020557600081815260208120601f850160051c81016020861015620001e05750805b601f850160051c820191505b818110156200020157828155600101620001ec565b5050505b505050565b81516001600160401b0381111562000226576200022662000165565b6200023e816200023784546200017b565b84620001b7565b602080601f8311600181146200027657600084156200025d5750858301515b600019600386901b1c1916600185901b17855562000201565b600085815260208120601f198616915b82811015620002a75788860151825594840194600190910190840162000286565b5085821015620002c65787850151600019600388901b60f8161c191681555b5050505050600190811b01905550565b6137a780620002e66000396000f3fe60806040526004361061031e5760003560e01c80638545f4ea116101a5578063c230a8d5116100ec578063d9be414511610095578063e985e9c51161006f578063e985e9c5146109df578063ee7e418b14610a28578063f2fde38b14610a48578063f311968214610a6857600080fd5b8063d9be41451461098a578063dbea4da7146109aa578063e8a3d485146109ca57600080fd5b8063c87b56dd116100c6578063c87b56dd14610934578063cbcb0a7a14610954578063d5abeb011461097457600080fd5b8063c230a8d5146108c7578063c23dc68f146108e7578063c37006201461091457600080fd5b8063a22cb4651161014e578063ad217ae511610128578063ad217ae5146107a7578063b88d4fde1461089e578063bdb4b848146108b157600080fd5b8063a22cb46514610761578063a6a2728514610781578063a71bbebe1461079457600080fd5b806395d89b411161017f57806395d89b411461070c57806399a2557a146107215780639e281a981461074157600080fd5b80638545f4ea146106975780638850504a146106b75780638da5cb5b146106ee57600080fd5b806342842e0e11610269578063715018a6116102125780637fc97616116101ec5780637fc976161461062a5780638462151c1461064a5780638526214c1461067757600080fd5b8063715018a6146105e9578063771282f6146105fe578063794544401461061457600080fd5b80636352211e116102435780636352211e146105895780636f8b44b0146105a957806370a08231146105c957600080fd5b806342842e0e1461052957806356d3163d1461053c5780635bbb21771461055c57600080fd5b80631d3cde03116102cb57806332fdf2d7116102a557806332fdf2d71461047357806334e80ea3146104935780633ccfd60b1461051457600080fd5b80631d3cde031461040e57806323b872dd14610440578063310bd74b1461045357600080fd5b8063095ea7b3116102fc578063095ea7b3146103b25780630daefed5146103c757806318160ddd146103e757600080fd5b806301ffc9a71461032357806306fdde0314610358578063081812fc1461037a575b600080fd5b34801561032f57600080fd5b5061034361033e366004612b3c565b610a9d565b60405190151581526020015b60405180910390f35b34801561036457600080fd5b5061036d610b3a565b60405161034f9190612ba9565b34801561038657600080fd5b5061039a610395366004612bbc565b610bcc565b6040516001600160a01b03909116815260200161034f565b6103c56103c0366004612bec565b610c29565b005b3480156103d357600080fd5b5061036d6103e2366004612bbc565b610ce2565b3480156103f357600080fd5b5060015460005403600019015b60405190815260200161034f565b34801561041a57600080fd5b5061042e610429366004612bbc565b610d67565b60405160ff909116815260200161034f565b6103c561044e366004612c16565b610e2f565b34801561045f57600080fd5b506103c561046e366004612bbc565b611014565b34801561047f57600080fd5b506103c561048e366004612c52565b611060565b34801561049f57600080fd5b506104e66104ae366004612bbc565b600d6020526000908152604090205461ffff808216916201000081048216916401000000008204811691660100000000000090041684565b6040805161ffff9586168152938516602085015291841691830191909152909116606082015260800161034f565b34801561052057600080fd5b506103c56110a3565b6103c5610537366004612c16565b6110da565b34801561054857600080fd5b506103c5610557366004612cc7565b6110f5565b34801561056857600080fd5b5061057c610577366004612c52565b61111f565b60405161034f9190612ce2565b34801561059557600080fd5b5061039a6105a4366004612bbc565b6111eb565b3480156105b557600080fd5b506103c56105c4366004612bbc565b6111f6565b3480156105d557600080fd5b506104006105e4366004612cc7565b611203565b3480156105f557600080fd5b506103c561126b565b34801561060a57600080fd5b5061040060095481565b34801561062057600080fd5b50610400600c5481565b34801561063657600080fd5b5061042e610645366004612bbc565b61127f565b34801561065657600080fd5b5061066a610665366004612cc7565b6112e6565b60405161034f9190612d5f565b34801561068357600080fd5b506103c5610692366004612cc7565b6113ea565b3480156106a357600080fd5b506103c56106b2366004612bbc565b611414565b3480156106c357600080fd5b506106d76106d2366004612bbc565b611421565b60405165ffffffffffff909116815260200161034f565b3480156106fa57600080fd5b506008546001600160a01b031661039a565b34801561071857600080fd5b5061036d611448565b34801561072d57600080fd5b5061066a61073c366004612d97565b611457565b34801561074d57600080fd5b506103c561075c366004612bec565b6115f8565b34801561076d57600080fd5b506103c561077c366004612dd8565b61168a565b6103c561078f366004612e44565b6116f6565b6103c56107a2366004612ead565b611798565b3480156107b357600080fd5b5061083a6107c2366004612bbc565b600e602052600090815260409020805460019091015460ff8083169261010081049091169161ffff620100008304169163ffffffff64010000000082048116926801000000000000000083049091169165ffffffffffff600160601b909104169071ffffffffffffffffffffffffffffffffffff1687565b6040805160ff988916815297909616602088015261ffff9094169486019490945263ffffffff918216606086015216608084015265ffffffffffff90911660a083015271ffffffffffffffffffffffffffffffffffff1660c082015260e00161034f565b6103c56108ac366004612f37565b6117c9565b3480156108bd57600080fd5b50610400600b5481565b3480156108d357600080fd5b5061036d6108e2366004612fe2565b611813565b3480156108f357600080fd5b50610907610902366004612bbc565b6119ae565b60405161034f919061302a565b34801561092057600080fd5b5061034361092f366004612bbc565b611a36565b34801561094057600080fd5b5061036d61094f366004612bbc565b611a82565b34801561096057600080fd5b506103c561096f366004612bbc565b611b0f565b34801561098057600080fd5b50610400600a5481565b34801561099657600080fd5b506103c56109a5366004612cc7565b611d35565b3480156109b657600080fd5b506103c56109c5366004612ead565b611d5f565b3480156109d657600080fd5b5061036d611d67565b3480156109eb57600080fd5b506103436109fa36600461306f565b6001600160a01b03918216600090815260076020908152604080832093909416825291909152205460ff1690565b348015610a3457600080fd5b506103c5610a43366004612bbc565b611dc4565b348015610a5457600080fd5b506103c5610a63366004612cc7565b611dd1565b348015610a7457600080fd5b50610a88610a83366004612bbc565b611e63565b60405163ffffffff909116815260200161034f565b60007f01ffc9a7000000000000000000000000000000000000000000000000000000006001600160e01b031983161480610b0057507f80ac58cd000000000000000000000000000000000000000000000000000000006001600160e01b03198316145b80610b3457507f5b5e139f000000000000000000000000000000000000000000000000000000006001600160e01b03198316145b92915050565b606060028054610b49906130a2565b80601f0160208091040260200160405190810160405280929190818152602001828054610b75906130a2565b8015610bc25780601f10610b9757610100808354040283529160200191610bc2565b820191906000526020600020905b815481529060010190602001808311610ba557829003601f168201915b5050505050905090565b6000610bd782611f9c565b610c0d576040517fcf4700e400000000000000000000000000000000000000000000000000000000815260040160405180910390fd5b506000908152600660205260409020546001600160a01b031690565b6000610c34826111eb565b9050336001600160a01b03821614610c8657610c5081336109fa565b610c86576040517fcfb3b94200000000000000000000000000000000000000000000000000000000815260040160405180910390fd5b60008281526006602052604080822080546001600160a01b0319166001600160a01b0387811691821790925591518593918516917f8c5be1e5ebec7d5bd14f71427d1e84f3dd0314c0f7b2291e5b200ac8c7c3b92591a4505050565b6000818152600e602052604081205460609190610d1690849062010000900461ffff16610d0e82611a36565b156000611813565b604051602001610d2691906130dc565b6040516020818303038152906040529050610d4081611fd1565b604051602001610d5091906130f8565b604051602081830303815290604052915050919050565b6000818152600e6020526040812054610100900460ff168103610e0f57601054604051633a20c87960e01b815260048082018590526101416024830152916001600160a01b031690633a20c879906044015b602060405180830381865afa158015610dd6573d6000803e3d6000fd5b505050506040513d601f19601f82011682018060405250810190610dfa919061313d565b610e04919061316c565b610b34906001613196565b506000908152600e6020526040902054610100900460ff1690565b919050565b6000610e3a82612124565b9050836001600160a01b0316816001600160a01b031614610e87576040517fa114810000000000000000000000000000000000000000000000000000000000815260040160405180910390fd5b60008281526006602052604090208054338082146001600160a01b03881690911417610eed57610eb786336109fa565b610eed576040517f59c896be00000000000000000000000000000000000000000000000000000000815260040160405180910390fd5b6001600160a01b038516610f2d576040517fea553b3400000000000000000000000000000000000000000000000000000000815260040160405180910390fd5b8015610f3857600082555b6001600160a01b038681166000908152600560205260408082208054600019019055918716808252919020805460010190554260a01b17600160e11b17600085815260046020526040812091909155600160e11b84169003610fca57600184016000818152600460205260408120549003610fc8576000548114610fc85760008181526004602052604090208490555b505b83856001600160a01b0316876001600160a01b03167fddf252ad1be2c89b69c2b068fc378daa952ba7f163c4a11628f55a4df523b3ef60405160405180910390a45b505050505050565b3361101e826111eb565b6001600160a01b031614611045576040516336b6b89560e01b815260040160405180910390fd5b6000908152600e60205260409020805463ffff000019169055565b60005b8181101561109e5761108c838383818110611080576110806131af565b90506020020135611b0f565b80611096816131c5565b915050611063565b505050565b6110ab6121ac565b60405133904780156108fc02916000818181858888f193505050501580156110d7573d6000803e3d6000fd5b50565b61109e838383604051806020016040528060008152506117c9565b6110fd6121ac565b601080546001600160a01b0319166001600160a01b0392909216919091179055565b60608160008167ffffffffffffffff81111561113d5761113d612ec8565b60405190808252806020026020018201604052801561118f57816020015b60408051608081018252600080825260208083018290529282018190526060820152825260001990920191018161115b5790505b50905060005b8281146111e2576111bd8686838181106111b1576111b16131af565b905060200201356119ae565b8282815181106111cf576111cf6131af565b6020908102919091010152600101611195565b50949350505050565b6000610b3482612124565b6111fe6121ac565b600a55565b60006001600160a01b038216611245576040517f8f4eb60400000000000000000000000000000000000000000000000000000000815260040160405180910390fd5b506001600160a01b031660009081526005602052604090205467ffffffffffffffff1690565b6112736121ac565b61127d6000612206565b565b6000818152600e602052604081205460ff1681036112d057601054604051633a20c87960e01b815260048101849052607b6024820152600f916001600160a01b031690633a20c87990604401610db9565b506000908152600e602052604090205460ff1690565b606060008060006112f685611203565b905060008167ffffffffffffffff81111561131357611313612ec8565b60405190808252806020026020018201604052801561133c578160200160208202803683370190505b5060408051608081018252600080825260208201819052918101829052606081019190915290915060015b8386146113de5761137781612258565b915081604001516113d65781516001600160a01b03161561139757815194505b876001600160a01b0316856001600160a01b0316036113d657808387806001019850815181106113c9576113c96131af565b6020026020010181815250505b600101611367565b50909695505050505050565b6113f26121ac565b601180546001600160a01b0319166001600160a01b0392909216919091179055565b61141c6121ac565b600b55565b6000818152600e6020526040812054610b3490640100000000900463ffffffff16426131de565b606060038054610b49906130a2565b6060818310611492576040517f32c1995a00000000000000000000000000000000000000000000000000000000815260040160405180910390fd5b60008061149e60005490565b905060018510156114ae57600194505b808411156114ba578093505b60006114c587611203565b9050848610156114e457858503818110156114de578091505b506114e8565b5060005b60008167ffffffffffffffff81111561150357611503612ec8565b60405190808252806020026020018201604052801561152c578160200160208202803683370190505b509050816000036115425793506115f192505050565b600061154d886119ae565b90506000816040015161155e575080515b885b8881141580156115705750848714155b156115e55761157e81612258565b925082604001516115dd5782516001600160a01b03161561159e57825191505b8a6001600160a01b0316826001600160a01b0316036115dd57808488806001019950815181106115d0576115d06131af565b6020026020010181815250505b600101611560565b50505092835250909150505b9392505050565b6116006121ac565b6040517fa9059cbb000000000000000000000000000000000000000000000000000000008152336004820152602481018290526001600160a01b0383169063a9059cbb906044016020604051808303816000875af1158015611666573d6000803e3d6000fd5b505050506040513d601f19601f8201168201806040525081019061109e91906131f1565b3360008181526007602090815260408083206001600160a01b03871680855290835292819020805460ff191686151590811790915590519081529192917f17307eab39ab6107e8899845ad3d59bd9653f200f220920489ca2b5937696c31910160405180910390a35050565b600b5461017261ffff861614158061171457508361ffff1661017214155b1561172957600c5461172690826131de565b90505b60ff83161561174257600c5461173f90826131de565b90505b60ff82161561175b57600c5461175890826131de565b90505b80341461177b57604051633d8f14cf60e21b815260040160405180910390fd5b61100c8663ffff0000601088901b1661ffff8716178585336122d7565b600b5434146117ba57604051633d8f14cf60e21b815260040160405180910390fd5b6110d7816000806000336122d7565b6117d4848484610e2f565b6001600160a01b0383163b1561180d576117f084848484612713565b61180d576040516368d2bf6b60e11b815260040160405180910390fd5b50505050565b6010546060906001600160a01b031663c7124fb786735FbDB2315678afecb367f032d93F642f64180aa363974bec188261184c81611e63565b6118558c610d67565b60ff8a1615611864578961186d565b61186d8d61127f565b6040516001600160e01b031960e087901b168152600481019490945263ffffffff92909216602484015260ff9081166044840152166064820152608401608060405180830381865af41580156118c7573d6000803e3d6000fd5b505050506040513d601f19601f820116820180604052508101906118eb919061320e565b600f546040805160e086901b6001600160e01b03191681526004810194909452825161ffff90811660248601526020840151811660448601529083015181166064850152606090920151909116608483015260a4820188905286151560c48301526001600160a01b031660e482015261010401600060405180830381865afa15801561197b573d6000803e3d6000fd5b505050506040513d6000823e601f3d908101601f191682016040526119a39190810190613293565b90505b949350505050565b6040805160808101825260008082526020820181905291810182905260608101919091526040805160808101825260008082526020820181905291810182905260608101919091526001831080611a0757506000548310155b15611a125792915050565b611a1b83612258565b9050806040015115611a2d5792915050565b6115f1836127fb565b6000806018603c80611a4786611421565b611a51919061330a565b611a5b919061330a565b611a65919061332f565b905060068160ff1610806115f1575060128160ff16119392505050565b6060600954821115611ac0576040517f4d5e5fb300000000000000000000000000000000000000000000000000000000815260040160405180910390fd5b6000611acb83612873565b611ad484610ce2565b604051602001611ae5929190613354565b6040516020818303038152906040529050611aff81611fd1565b604051602001610d509190613430565b33611b19826111eb565b6001600160a01b031614611b40576040516336b6b89560e01b815260040160405180910390fd5b611b4981611a36565b611b7f576040517f42cc741200000000000000000000000000000000000000000000000000000000815260040160405180910390fd5b6000818152600e602052604090205461c4e090600160601b900465ffffffffffff16611baa83611421565b611bb49190613475565b65ffffffffffff161015611bf4576040517f5ada9a9900000000000000000000000000000000000000000000000000000000815260040160405180910390fd5b6000818152600e6020526040902054611c189062010000900461ffff16600161349b565b6000828152600e60205260409020805461ffff92909216620100000263ffff000019909216919091179055611c4c81611421565b6000828152600e60205260409020805465ffffffffffff92909216600160601b0271ffffffffffff000000000000000000000000199092169190911790556011546001600160a01b0316156110d7576011546000828152600e6020526040908190205490517fdcb34eb2000000000000000000000000000000000000000000000000000000008152600481018490526201000090910461ffff1660248201526001600160a01b039091169063dcb34eb290604401600060405180830381600087803b158015611d1a57600080fd5b505af1158015611d2e573d6000803e3d6000fd5b5050505050565b611d3d6121ac565b600f80546001600160a01b0319166001600160a01b0392909216919091179055565b6117ba6121ac565b60606000611d756000610ce2565b604051602001611d8591906134b6565b6040516020818303038152906040529050611d9f81611fd1565b604051602001611daf9190613430565b60405160208183030381529060405291505090565b611dcc6121ac565b600c55565b611dd96121ac565b6001600160a01b038116611e5a5760405162461bcd60e51b815260206004820152602660248201527f4f776e61626c653a206e6577206f776e657220697320746865207a65726f206160448201527f646472657373000000000000000000000000000000000000000000000000000060648201526084015b60405180910390fd5b6110d781612206565b6000818152600e602052604081205468010000000000000000900463ffffffff168103611f77576000611e9760108461316c565b611ea290600a61363b565b6040805160608101825261ffff83811682526000602083018181528385018281529451631b21034b60e31b815293518316600485015251821660248401529251166044820152603c606482015291925090735FbDB2315678afecb367f032d93F642f64180aa39063d9081a5890608401606060405180830381865af4158015611f2f573d6000803e3d6000fd5b505050506040513d601f19601f82011682018060405250810190611f539190613652565b6000015190508061ffff1660108361ffff1663ffffffff16901b1792505050919050565b506000908152600e602052604090205468010000000000000000900463ffffffff1690565b600081600111158015611fb0575060005482105b8015610b34575050600090815260046020526040902054600160e01b161590565b60608151600003611ff057505060408051602081019091526000815290565b6000604051806060016040528060408152602001613732604091399050600060038451600261201f91906131de565b61202991906136c4565b61203490600461363b565b67ffffffffffffffff81111561204c5761204c612ec8565b6040519080825280601f01601f191660200182016040528015612076576020820181803683370190505b509050600182016020820185865187015b808210156120e2576003820191508151603f8160121c168501518453600184019350603f81600c1c168501518453600184019350603f8160061c168501518453600184019350603f8116850151845350600183019250612087565b50506003865106600181146120fe576002811461211157612119565b603d6001830353603d6002830353612119565b603d60018303535b509195945050505050565b6000818060011161217a5760005481101561217a5760008181526004602052604081205490600160e01b82169003612178575b806000036115f1575060001901600081815260046020526040902054612157565b505b6040517fdf2d9b4200000000000000000000000000000000000000000000000000000000815260040160405180910390fd5b6008546001600160a01b0316331461127d5760405162461bcd60e51b815260206004820181905260248201527f4f776e61626c653a2063616c6c6572206973206e6f7420746865206f776e65726044820152606401611e51565b600880546001600160a01b038381166001600160a01b0319831681179093556040519116919082907f8be0079c531659141344cd1fd0a4f28419497f9722a3daafe3b4186f6b6457e090600090a35050565b604080516080810182526000808252602082018190529181018290526060810191909152600082815260046020526040902054610b3490604080516080810182526001600160a01b038316815260a083901c67ffffffffffffffff166020820152600160e01b831615159181019190915260e89190911c606082015290565b600a5460095410612314576040517fd05cb60900000000000000000000000000000000000000000000000000000000815260040160405180910390fd5b60098054906000612324836131c5565b90915550506040805160e0810182526000808252602082018190529181018290526080810182905260a0810182905260c081019190915263ffffffff868116606083015285166301720172036124615760006010600954612385919061316c565b61239090600a61363b565b6040805160608101825261ffff83811682526000602083018181528385018281529451631b21034b60e31b815293518316600485015251821660248401529251166044820152603c606482015291925090735FbDB2315678afecb367f032d93F642f64180aa39063d9081a5890608401606060405180830381865af415801561241d573d6000803e3d6000fd5b505050506040513d601f19601f820116820180604052508101906124419190613652565b6000015190508061ffff1660108361ffff1663ffffffff16901b17965050505b63ffffffff85166080820152601060ff8516111561247e57600093505b8360ff1660000361251a57601054600954604051633a20c87960e01b81526004810191909152607b6024820152600f916001600160a01b031690633a20c87990604401602060405180830381865afa1580156124de573d6000803e3d6000fd5b505050506040513d601f19601f82011682018060405250810190612502919061313d565b61250c919061316c565b6125179060016131de565b93505b60058360ff16111561252b57600092505b8260ff166000036125c857601054600954604051633a20c87960e01b8152600480820192909252610141602482015290916001600160a01b031690633a20c87990604401602060405180830381865afa15801561258c573d6000803e3d6000fd5b505050506040513d601f19601f820116820180604052508101906125b0919061313d565b6125ba919061316c565b6125c59060016131de565b93505b60ff808516825283811660208084019182526009546000908152600e909152604090819020845181549351928601516060870151608088015160a089015165ffffffffffff16600160601b0271ffffffffffff0000000000000000000000001963ffffffff9283166801000000000000000002167fffffffffffffffffffffffffffff00000000000000000000ffffffffffffffff929093166401000000000267ffffffff000000001961ffff90951662010000029490941667ffffffffffff000019978a166101000261ffff19909916959099169490941796909617949094169590951794909417929092161791909117815560c08201516001918201805471ffffffffffffffffffffffffffffffffffff9092167fffffffffffffffffffffffffffff00000000000000000000000000000000000090921691909117905561100c908390612913565b604051630a85bd0160e11b81526000906001600160a01b0385169063150b7a02906127489033908990889088906004016136d8565b6020604051808303816000875af1925050508015612783575060408051601f3d908101601f1916820190925261278091810190613714565b60015b6127e1573d8080156127b1576040519150601f19603f3d011682016040523d82523d6000602084013e6127b6565b606091505b5080516000036127d9576040516368d2bf6b60e11b815260040160405180910390fd5b805181602001fd5b6001600160e01b031916630a85bd0160e11b1490506119a6565b604080516080810182526000808252602082018190529181018290526060810191909152610b3461282b83612124565b604080516080810182526001600160a01b038316815260a083901c67ffffffffffffffff166020820152600160e01b831615159181019190915260e89190911c606082015290565b6060600061288083612a44565b600101905060008167ffffffffffffffff8111156128a0576128a0612ec8565b6040519080825280601f01601f1916602001820160405280156128ca576020820181803683370190505b5090508181016020015b600019017f3031323334353637383961626364656600000000000000000000000000000000600a86061a8153600a85049450846128d457509392505050565b6000805490829003612951576040517fb562e8dd00000000000000000000000000000000000000000000000000000000815260040160405180910390fd5b6001600160a01b03831660008181526005602090815260408083208054680100000000000000018802019055848352600490915281206001851460e11b4260a01b178317905582840190839083907fddf252ad1be2c89b69c2b068fc378daa952ba7f163c4a11628f55a4df523b3ef8180a4600183015b818114612a0057808360007fddf252ad1be2c89b69c2b068fc378daa952ba7f163c4a11628f55a4df523b3ef600080a46001016129c8565b5081600003612a3b576040517f2e07630000000000000000000000000000000000000000000000000000000000815260040160405180910390fd5b60005550505050565b6000807a184f03e93ff9f4daa797ed6e38ed64bf6a1f0100000000000000008310612a8d577a184f03e93ff9f4daa797ed6e38ed64bf6a1f010000000000000000830492506040015b6d04ee2d6d415b85acef81000000008310612ab9576d04ee2d6d415b85acef8100000000830492506020015b662386f26fc100008310612ad757662386f26fc10000830492506010015b6305f5e1008310612aef576305f5e100830492506008015b6127108310612b0357612710830492506004015b60648310612b15576064830492506002015b600a8310610b345760010192915050565b6001600160e01b0319811681146110d757600080fd5b600060208284031215612b4e57600080fd5b81356115f181612b26565b60005b83811015612b74578181015183820152602001612b5c565b50506000910152565b60008151808452612b95816020860160208601612b59565b601f01601f19169290920160200192915050565b6020815260006115f16020830184612b7d565b600060208284031215612bce57600080fd5b5035919050565b80356001600160a01b0381168114610e2a57600080fd5b60008060408385031215612bff57600080fd5b612c0883612bd5565b946020939093013593505050565b600080600060608486031215612c2b57600080fd5b612c3484612bd5565b9250612c4260208501612bd5565b9150604084013590509250925092565b60008060208385031215612c6557600080fd5b823567ffffffffffffffff80821115612c7d57600080fd5b818501915085601f830112612c9157600080fd5b813581811115612ca057600080fd5b8660208260051b8501011115612cb557600080fd5b60209290920196919550909350505050565b600060208284031215612cd957600080fd5b6115f182612bd5565b6020808252825182820181905260009190848201906040850190845b818110156113de57612d4c8385516001600160a01b03815116825267ffffffffffffffff602082015116602083015260408101511515604083015262ffffff60608201511660608301525050565b9284019260809290920191600101612cfe565b6020808252825182820181905260009190848201906040850190845b818110156113de57835183529284019291840191600101612d7b565b600080600060608486031215612dac57600080fd5b612db584612bd5565b95602085013595506040909401359392505050565b80151581146110d757600080fd5b60008060408385031215612deb57600080fd5b612df483612bd5565b91506020830135612e0481612dca565b809150509250929050565b803563ffffffff81168114610e2a57600080fd5b61ffff811681146110d757600080fd5b803560ff81168114610e2a57600080fd5b600080600080600060a08688031215612e5c57600080fd5b612e6586612e0f565b94506020860135612e7581612e23565b93506040860135612e8581612e23565b9250612e9360608701612e33565b9150612ea160808701612e33565b90509295509295909350565b600060208284031215612ebf57600080fd5b6115f182612e0f565b634e487b7160e01b600052604160045260246000fd5b604051601f8201601f1916810167ffffffffffffffff81118282101715612f0757612f07612ec8565b604052919050565b600067ffffffffffffffff821115612f2957612f29612ec8565b50601f01601f191660200190565b60008060008060808587031215612f4d57600080fd5b612f5685612bd5565b9350612f6460208601612bd5565b925060408501359150606085013567ffffffffffffffff811115612f8757600080fd5b8501601f81018713612f9857600080fd5b8035612fab612fa682612f0f565b612ede565b818152886020838501011115612fc057600080fd5b8160208401602083013760006020838301015280935050505092959194509250565b60008060008060808587031215612ff857600080fd5b8435935060208501359250604085013561301181612dca565b915061301f60608601612e33565b905092959194509250565b81516001600160a01b0316815260208083015167ffffffffffffffff169082015260408083015115159082015260608083015162ffffff169082015260808101610b34565b6000806040838503121561308257600080fd5b61308b83612bd5565b915061309960208401612bd5565b90509250929050565b600181811c908216806130b657607f821691505b6020821081036130d657634e487b7160e01b600052602260045260246000fd5b50919050565b600082516130ee818460208701612b59565b9190910192915050565b7f646174613a696d6167652f7376672b786d6c3b6261736536342c00000000000081526000825161313081601a850160208701612b59565b91909101601a0192915050565b60006020828403121561314f57600080fd5b5051919050565b634e487b7160e01b600052601260045260246000fd5b60008261317b5761317b613156565b500690565b634e487b7160e01b600052601160045260246000fd5b60ff8181168382160190811115610b3457610b34613180565b634e487b7160e01b600052603260045260246000fd5b6000600182016131d7576131d7613180565b5060010190565b80820180821115610b3457610b34613180565b60006020828403121561320357600080fd5b81516115f181612dca565b60006080828403121561322057600080fd5b6040516080810181811067ffffffffffffffff8211171561324357613243612ec8565b604052825161325181612e23565b8152602083015161326181612e23565b6020820152604083015161327481612e23565b6040820152606083015161328781612e23565b60608201529392505050565b6000602082840312156132a557600080fd5b815167ffffffffffffffff8111156132bc57600080fd5b8201601f810184136132cd57600080fd5b80516132db612fa682612f0f565b8181528560208385010111156132f057600080fd5b613301826020830160208601612b59565b95945050505050565b600065ffffffffffff8084168061332357613323613156565b92169190910492915050565b600065ffffffffffff8084168061334857613348613156565b92169190910692915050565b607b60f81b81527f226e616d65223a2022636861696e656c6c6174696f6e20230000000000000000600182015260008351613396816019850160208801612b59565b7f222c0000000000000000000000000000000000000000000000000000000000006019918401918201527f226465736372697074696f6e223a2022636861696e656c6c6174696f6e222c00601b820152691134b6b0b3b2911d101160b11b603a820152835161340c816044840160208801612b59565b601160f91b60449290910191820152607d60f81b6045820152604601949350505050565b7f646174613a6170706c69636174696f6e2f6a736f6e3b6261736536342c00000081526000825161346881601d850160208701612b59565b91909101601d0192915050565b65ffffffffffff82811682821603908082111561349457613494613180565b5092915050565b61ffff81811683821601908082111561349457613494613180565b607b60f81b81527f226e616d65223a202254776f204d6f6f6e73204e6967687420536b696573222c60018201527f226465736372697074696f6e223a2022596f75722077696e646f7720696e746f60218201527f20746865204e6967687420536b792e20205374617267617a6520746f2072657660418201527f65616c20796f75722073656372657420636f6e7374656c6c6174696f6e2c206160618201527f6e6420637573746f6d697a6520796f757220766965772077697468207265706c60818201527f616361626c65207061727473206f662074686520696d6167652e22000000000060a18201527f2265787465726e616c5f75726c223a202268747470733a2f2f7777772e63686160bc8201527f696e656c6c6174696f6e2e636f6d2f220000000000000000000000000000000060dc820152691134b6b0b3b2911d101160b11b60ec820152600082516136158160f6850160208701612b59565b6119a661362e60f683860101601160f91b815260010190565b607d60f81b815260010190565b8082028115828204841417610b3457610b34613180565b60006060828403121561366457600080fd5b6040516060810181811067ffffffffffffffff8211171561368757613687612ec8565b604052825161369581612e23565b815260208301516136a581612e23565b602082015260408301516136b881612e23565b60408201529392505050565b6000826136d3576136d3613156565b500490565b60006001600160a01b0380871683528086166020840152508360408301526080606083015261370a6080830184612b7d565b9695505050505050565b60006020828403121561372657600080fd5b81516115f181612b2656fe4142434445464748494a4b4c4d4e4f505152535455565758595a6162636465666768696a6b6c6d6e6f707172737475767778797a303132333435363738392b2fa264697066735822122081707cf38ec09ddb12ddeeb26d39d2bd977c293868b3998a174f285de7ce973d64736f6c63430008120033",
  "deployedBytecode": "0x60806040526004361061031e5760003560e01c80638545f4ea116101a5578063c230a8d5116100ec578063d9be414511610095578063e985e9c51161006f578063e985e9c5146109df578063ee7e418b14610a28578063f2fde38b14610a48578063f311968214610a6857600080fd5b8063d9be41451461098a578063dbea4da7146109aa578063e8a3d485146109ca57600080fd5b8063c87b56dd116100c6578063c87b56dd14610934578063cbcb0a7a14610954578063d5abeb011461097457600080fd5b8063c230a8d5146108c7578063c23dc68f146108e7578063c37006201461091457600080fd5b8063a22cb4651161014e578063ad217ae511610128578063ad217ae5146107a7578063b88d4fde1461089e578063bdb4b848146108b157600080fd5b8063a22cb46514610761578063a6a2728514610781578063a71bbebe1461079457600080fd5b806395d89b411161017f57806395d89b411461070c57806399a2557a146107215780639e281a981461074157600080fd5b80638545f4ea146106975780638850504a146106b75780638da5cb5b146106ee57600080fd5b806342842e0e11610269578063715018a6116102125780637fc97616116101ec5780637fc976161461062a5780638462151c1461064a5780638526214c1461067757600080fd5b8063715018a6146105e9578063771282f6146105fe578063794544401461061457600080fd5b80636352211e116102435780636352211e146105895780636f8b44b0146105a957806370a08231146105c957600080fd5b806342842e0e1461052957806356d3163d1461053c5780635bbb21771461055c57600080fd5b80631d3cde03116102cb57806332fdf2d7116102a557806332fdf2d71461047357806334e80ea3146104935780633ccfd60b1461051457600080fd5b80631d3cde031461040e57806323b872dd14610440578063310bd74b1461045357600080fd5b8063095ea7b3116102fc578063095ea7b3146103b25780630daefed5146103c757806318160ddd146103e757600080fd5b806301ffc9a71461032357806306fdde0314610358578063081812fc1461037a575b600080fd5b34801561032f57600080fd5b5061034361033e366004612b3c565b610a9d565b60405190151581526020015b60405180910390f35b34801561036457600080fd5b5061036d610b3a565b60405161034f9190612ba9565b34801561038657600080fd5b5061039a610395366004612bbc565b610bcc565b6040516001600160a01b03909116815260200161034f565b6103c56103c0366004612bec565b610c29565b005b3480156103d357600080fd5b5061036d6103e2366004612bbc565b610ce2565b3480156103f357600080fd5b5060015460005403600019015b60405190815260200161034f565b34801561041a57600080fd5b5061042e610429366004612bbc565b610d67565b60405160ff909116815260200161034f565b6103c561044e366004612c16565b610e2f565b34801561045f57600080fd5b506103c561046e366004612bbc565b611014565b34801561047f57600080fd5b506103c561048e366004612c52565b611060565b34801561049f57600080fd5b506104e66104ae366004612bbc565b600d6020526000908152604090205461ffff808216916201000081048216916401000000008204811691660100000000000090041684565b6040805161ffff9586168152938516602085015291841691830191909152909116606082015260800161034f565b34801561052057600080fd5b506103c56110a3565b6103c5610537366004612c16565b6110da565b34801561054857600080fd5b506103c5610557366004612cc7565b6110f5565b34801561056857600080fd5b5061057c610577366004612c52565b61111f565b60405161034f9190612ce2565b34801561059557600080fd5b5061039a6105a4366004612bbc565b6111eb565b3480156105b557600080fd5b506103c56105c4366004612bbc565b6111f6565b3480156105d557600080fd5b506104006105e4366004612cc7565b611203565b3480156105f557600080fd5b506103c561126b565b34801561060a57600080fd5b5061040060095481565b34801561062057600080fd5b50610400600c5481565b34801561063657600080fd5b5061042e610645366004612bbc565b61127f565b34801561065657600080fd5b5061066a610665366004612cc7565b6112e6565b60405161034f9190612d5f565b34801561068357600080fd5b506103c5610692366004612cc7565b6113ea565b3480156106a357600080fd5b506103c56106b2366004612bbc565b611414565b3480156106c357600080fd5b506106d76106d2366004612bbc565b611421565b60405165ffffffffffff909116815260200161034f565b3480156106fa57600080fd5b506008546001600160a01b031661039a565b34801561071857600080fd5b5061036d611448565b34801561072d57600080fd5b5061066a61073c366004612d97565b611457565b34801561074d57600080fd5b506103c561075c366004612bec565b6115f8565b34801561076d57600080fd5b506103c561077c366004612dd8565b61168a565b6103c561078f366004612e44565b6116f6565b6103c56107a2366004612ead565b611798565b3480156107b357600080fd5b5061083a6107c2366004612bbc565b600e602052600090815260409020805460019091015460ff8083169261010081049091169161ffff620100008304169163ffffffff64010000000082048116926801000000000000000083049091169165ffffffffffff600160601b909104169071ffffffffffffffffffffffffffffffffffff1687565b6040805160ff988916815297909616602088015261ffff9094169486019490945263ffffffff918216606086015216608084015265ffffffffffff90911660a083015271ffffffffffffffffffffffffffffffffffff1660c082015260e00161034f565b6103c56108ac366004612f37565b6117c9565b3480156108bd57600080fd5b50610400600b5481565b3480156108d357600080fd5b5061036d6108e2366004612fe2565b611813565b3480156108f357600080fd5b50610907610902366004612bbc565b6119ae565b60405161034f919061302a565b34801561092057600080fd5b5061034361092f366004612bbc565b611a36565b34801561094057600080fd5b5061036d61094f366004612bbc565b611a82565b34801561096057600080fd5b506103c561096f366004612bbc565b611b0f565b34801561098057600080fd5b50610400600a5481565b34801561099657600080fd5b506103c56109a5366004612cc7565b611d35565b3480156109b657600080fd5b506103c56109c5366004612ead565b611d5f565b3480156109d657600080fd5b5061036d611d67565b3480156109eb57600080fd5b506103436109fa36600461306f565b6001600160a01b03918216600090815260076020908152604080832093909416825291909152205460ff1690565b348015610a3457600080fd5b506103c5610a43366004612bbc565b611dc4565b348015610a5457600080fd5b506103c5610a63366004612cc7565b611dd1565b348015610a7457600080fd5b50610a88610a83366004612bbc565b611e63565b60405163ffffffff909116815260200161034f565b60007f01ffc9a7000000000000000000000000000000000000000000000000000000006001600160e01b031983161480610b0057507f80ac58cd000000000000000000000000000000000000000000000000000000006001600160e01b03198316145b80610b3457507f5b5e139f000000000000000000000000000000000000000000000000000000006001600160e01b03198316145b92915050565b606060028054610b49906130a2565b80601f0160208091040260200160405190810160405280929190818152602001828054610b75906130a2565b8015610bc25780601f10610b9757610100808354040283529160200191610bc2565b820191906000526020600020905b815481529060010190602001808311610ba557829003601f168201915b5050505050905090565b6000610bd782611f9c565b610c0d576040517fcf4700e400000000000000000000000000000000000000000000000000000000815260040160405180910390fd5b506000908152600660205260409020546001600160a01b031690565b6000610c34826111eb565b9050336001600160a01b03821614610c8657610c5081336109fa565b610c86576040517fcfb3b94200000000000000000000000000000000000000000000000000000000815260040160405180910390fd5b60008281526006602052604080822080546001600160a01b0319166001600160a01b0387811691821790925591518593918516917f8c5be1e5ebec7d5bd14f71427d1e84f3dd0314c0f7b2291e5b200ac8c7c3b92591a4505050565b6000818152600e602052604081205460609190610d1690849062010000900461ffff16610d0e82611a36565b156000611813565b604051602001610d2691906130dc565b6040516020818303038152906040529050610d4081611fd1565b604051602001610d5091906130f8565b604051602081830303815290604052915050919050565b6000818152600e6020526040812054610100900460ff168103610e0f57601054604051633a20c87960e01b815260048082018590526101416024830152916001600160a01b031690633a20c879906044015b602060405180830381865afa158015610dd6573d6000803e3d6000fd5b505050506040513d601f19601f82011682018060405250810190610dfa919061313d565b610e04919061316c565b610b34906001613196565b506000908152600e6020526040902054610100900460ff1690565b919050565b6000610e3a82612124565b9050836001600160a01b0316816001600160a01b031614610e87576040517fa114810000000000000000000000000000000000000000000000000000000000815260040160405180910390fd5b60008281526006602052604090208054338082146001600160a01b03881690911417610eed57610eb786336109fa565b610eed576040517f59c896be00000000000000000000000000000000000000000000000000000000815260040160405180910390fd5b6001600160a01b038516610f2d576040517fea553b3400000000000000000000000000000000000000000000000000000000815260040160405180910390fd5b8015610f3857600082555b6001600160a01b038681166000908152600560205260408082208054600019019055918716808252919020805460010190554260a01b17600160e11b17600085815260046020526040812091909155600160e11b84169003610fca57600184016000818152600460205260408120549003610fc8576000548114610fc85760008181526004602052604090208490555b505b83856001600160a01b0316876001600160a01b03167fddf252ad1be2c89b69c2b068fc378daa952ba7f163c4a11628f55a4df523b3ef60405160405180910390a45b505050505050565b3361101e826111eb565b6001600160a01b031614611045576040516336b6b89560e01b815260040160405180910390fd5b6000908152600e60205260409020805463ffff000019169055565b60005b8181101561109e5761108c838383818110611080576110806131af565b90506020020135611b0f565b80611096816131c5565b915050611063565b505050565b6110ab6121ac565b60405133904780156108fc02916000818181858888f193505050501580156110d7573d6000803e3d6000fd5b50565b61109e838383604051806020016040528060008152506117c9565b6110fd6121ac565b601080546001600160a01b0319166001600160a01b0392909216919091179055565b60608160008167ffffffffffffffff81111561113d5761113d612ec8565b60405190808252806020026020018201604052801561118f57816020015b60408051608081018252600080825260208083018290529282018190526060820152825260001990920191018161115b5790505b50905060005b8281146111e2576111bd8686838181106111b1576111b16131af565b905060200201356119ae565b8282815181106111cf576111cf6131af565b6020908102919091010152600101611195565b50949350505050565b6000610b3482612124565b6111fe6121ac565b600a55565b60006001600160a01b038216611245576040517f8f4eb60400000000000000000000000000000000000000000000000000000000815260040160405180910390fd5b506001600160a01b031660009081526005602052604090205467ffffffffffffffff1690565b6112736121ac565b61127d6000612206565b565b6000818152600e602052604081205460ff1681036112d057601054604051633a20c87960e01b815260048101849052607b6024820152600f916001600160a01b031690633a20c87990604401610db9565b506000908152600e602052604090205460ff1690565b606060008060006112f685611203565b905060008167ffffffffffffffff81111561131357611313612ec8565b60405190808252806020026020018201604052801561133c578160200160208202803683370190505b5060408051608081018252600080825260208201819052918101829052606081019190915290915060015b8386146113de5761137781612258565b915081604001516113d65781516001600160a01b03161561139757815194505b876001600160a01b0316856001600160a01b0316036113d657808387806001019850815181106113c9576113c96131af565b6020026020010181815250505b600101611367565b50909695505050505050565b6113f26121ac565b601180546001600160a01b0319166001600160a01b0392909216919091179055565b61141c6121ac565b600b55565b6000818152600e6020526040812054610b3490640100000000900463ffffffff16426131de565b606060038054610b49906130a2565b6060818310611492576040517f32c1995a00000000000000000000000000000000000000000000000000000000815260040160405180910390fd5b60008061149e60005490565b905060018510156114ae57600194505b808411156114ba578093505b60006114c587611203565b9050848610156114e457858503818110156114de578091505b506114e8565b5060005b60008167ffffffffffffffff81111561150357611503612ec8565b60405190808252806020026020018201604052801561152c578160200160208202803683370190505b509050816000036115425793506115f192505050565b600061154d886119ae565b90506000816040015161155e575080515b885b8881141580156115705750848714155b156115e55761157e81612258565b925082604001516115dd5782516001600160a01b03161561159e57825191505b8a6001600160a01b0316826001600160a01b0316036115dd57808488806001019950815181106115d0576115d06131af565b6020026020010181815250505b600101611560565b50505092835250909150505b9392505050565b6116006121ac565b6040517fa9059cbb000000000000000000000000000000000000000000000000000000008152336004820152602481018290526001600160a01b0383169063a9059cbb906044016020604051808303816000875af1158015611666573d6000803e3d6000fd5b505050506040513d601f19601f8201168201806040525081019061109e91906131f1565b3360008181526007602090815260408083206001600160a01b03871680855290835292819020805460ff191686151590811790915590519081529192917f17307eab39ab6107e8899845ad3d59bd9653f200f220920489ca2b5937696c31910160405180910390a35050565b600b5461017261ffff861614158061171457508361ffff1661017214155b1561172957600c5461172690826131de565b90505b60ff83161561174257600c5461173f90826131de565b90505b60ff82161561175b57600c5461175890826131de565b90505b80341461177b57604051633d8f14cf60e21b815260040160405180910390fd5b61100c8663ffff0000601088901b1661ffff8716178585336122d7565b600b5434146117ba57604051633d8f14cf60e21b815260040160405180910390fd5b6110d7816000806000336122d7565b6117d4848484610e2f565b6001600160a01b0383163b1561180d576117f084848484612713565b61180d576040516368d2bf6b60e11b815260040160405180910390fd5b50505050565b6010546060906001600160a01b031663c7124fb78673__$11e21e6c56ca563b85c74e3fd3a08242f9$__63974bec188261184c81611e63565b6118558c610d67565b60ff8a1615611864578961186d565b61186d8d61127f565b6040516001600160e01b031960e087901b168152600481019490945263ffffffff92909216602484015260ff9081166044840152166064820152608401608060405180830381865af41580156118c7573d6000803e3d6000fd5b505050506040513d601f19601f820116820180604052508101906118eb919061320e565b600f546040805160e086901b6001600160e01b03191681526004810194909452825161ffff90811660248601526020840151811660448601529083015181166064850152606090920151909116608483015260a4820188905286151560c48301526001600160a01b031660e482015261010401600060405180830381865afa15801561197b573d6000803e3d6000fd5b505050506040513d6000823e601f3d908101601f191682016040526119a39190810190613293565b90505b949350505050565b6040805160808101825260008082526020820181905291810182905260608101919091526040805160808101825260008082526020820181905291810182905260608101919091526001831080611a0757506000548310155b15611a125792915050565b611a1b83612258565b9050806040015115611a2d5792915050565b6115f1836127fb565b6000806018603c80611a4786611421565b611a51919061330a565b611a5b919061330a565b611a65919061332f565b905060068160ff1610806115f1575060128160ff16119392505050565b6060600954821115611ac0576040517f4d5e5fb300000000000000000000000000000000000000000000000000000000815260040160405180910390fd5b6000611acb83612873565b611ad484610ce2565b604051602001611ae5929190613354565b6040516020818303038152906040529050611aff81611fd1565b604051602001610d509190613430565b33611b19826111eb565b6001600160a01b031614611b40576040516336b6b89560e01b815260040160405180910390fd5b611b4981611a36565b611b7f576040517f42cc741200000000000000000000000000000000000000000000000000000000815260040160405180910390fd5b6000818152600e602052604090205461c4e090600160601b900465ffffffffffff16611baa83611421565b611bb49190613475565b65ffffffffffff161015611bf4576040517f5ada9a9900000000000000000000000000000000000000000000000000000000815260040160405180910390fd5b6000818152600e6020526040902054611c189062010000900461ffff16600161349b565b6000828152600e60205260409020805461ffff92909216620100000263ffff000019909216919091179055611c4c81611421565b6000828152600e60205260409020805465ffffffffffff92909216600160601b0271ffffffffffff000000000000000000000000199092169190911790556011546001600160a01b0316156110d7576011546000828152600e6020526040908190205490517fdcb34eb2000000000000000000000000000000000000000000000000000000008152600481018490526201000090910461ffff1660248201526001600160a01b039091169063dcb34eb290604401600060405180830381600087803b158015611d1a57600080fd5b505af1158015611d2e573d6000803e3d6000fd5b5050505050565b611d3d6121ac565b600f80546001600160a01b0319166001600160a01b0392909216919091179055565b6117ba6121ac565b60606000611d756000610ce2565b604051602001611d8591906134b6565b6040516020818303038152906040529050611d9f81611fd1565b604051602001611daf9190613430565b60405160208183030381529060405291505090565b611dcc6121ac565b600c55565b611dd96121ac565b6001600160a01b038116611e5a5760405162461bcd60e51b815260206004820152602660248201527f4f776e61626c653a206e6577206f776e657220697320746865207a65726f206160448201527f646472657373000000000000000000000000000000000000000000000000000060648201526084015b60405180910390fd5b6110d781612206565b6000818152600e602052604081205468010000000000000000900463ffffffff168103611f77576000611e9760108461316c565b611ea290600a61363b565b6040805160608101825261ffff83811682526000602083018181528385018281529451631b21034b60e31b815293518316600485015251821660248401529251166044820152603c60648201529192509073__$11e21e6c56ca563b85c74e3fd3a08242f9$__9063d9081a5890608401606060405180830381865af4158015611f2f573d6000803e3d6000fd5b505050506040513d601f19601f82011682018060405250810190611f539190613652565b6000015190508061ffff1660108361ffff1663ffffffff16901b1792505050919050565b506000908152600e602052604090205468010000000000000000900463ffffffff1690565b600081600111158015611fb0575060005482105b8015610b34575050600090815260046020526040902054600160e01b161590565b60608151600003611ff057505060408051602081019091526000815290565b6000604051806060016040528060408152602001613732604091399050600060038451600261201f91906131de565b61202991906136c4565b61203490600461363b565b67ffffffffffffffff81111561204c5761204c612ec8565b6040519080825280601f01601f191660200182016040528015612076576020820181803683370190505b509050600182016020820185865187015b808210156120e2576003820191508151603f8160121c168501518453600184019350603f81600c1c168501518453600184019350603f8160061c168501518453600184019350603f8116850151845350600183019250612087565b50506003865106600181146120fe576002811461211157612119565b603d6001830353603d6002830353612119565b603d60018303535b509195945050505050565b6000818060011161217a5760005481101561217a5760008181526004602052604081205490600160e01b82169003612178575b806000036115f1575060001901600081815260046020526040902054612157565b505b6040517fdf2d9b4200000000000000000000000000000000000000000000000000000000815260040160405180910390fd5b6008546001600160a01b0316331461127d5760405162461bcd60e51b815260206004820181905260248201527f4f776e61626c653a2063616c6c6572206973206e6f7420746865206f776e65726044820152606401611e51565b600880546001600160a01b038381166001600160a01b0319831681179093556040519116919082907f8be0079c531659141344cd1fd0a4f28419497f9722a3daafe3b4186f6b6457e090600090a35050565b604080516080810182526000808252602082018190529181018290526060810191909152600082815260046020526040902054610b3490604080516080810182526001600160a01b038316815260a083901c67ffffffffffffffff166020820152600160e01b831615159181019190915260e89190911c606082015290565b600a5460095410612314576040517fd05cb60900000000000000000000000000000000000000000000000000000000815260040160405180910390fd5b60098054906000612324836131c5565b90915550506040805160e0810182526000808252602082018190529181018290526080810182905260a0810182905260c081019190915263ffffffff868116606083015285166301720172036124615760006010600954612385919061316c565b61239090600a61363b565b6040805160608101825261ffff83811682526000602083018181528385018281529451631b21034b60e31b815293518316600485015251821660248401529251166044820152603c60648201529192509073__$11e21e6c56ca563b85c74e3fd3a08242f9$__9063d9081a5890608401606060405180830381865af415801561241d573d6000803e3d6000fd5b505050506040513d601f19601f820116820180604052508101906124419190613652565b6000015190508061ffff1660108361ffff1663ffffffff16901b17965050505b63ffffffff85166080820152601060ff8516111561247e57600093505b8360ff1660000361251a57601054600954604051633a20c87960e01b81526004810191909152607b6024820152600f916001600160a01b031690633a20c87990604401602060405180830381865afa1580156124de573d6000803e3d6000fd5b505050506040513d601f19601f82011682018060405250810190612502919061313d565b61250c919061316c565b6125179060016131de565b93505b60058360ff16111561252b57600092505b8260ff166000036125c857601054600954604051633a20c87960e01b8152600480820192909252610141602482015290916001600160a01b031690633a20c87990604401602060405180830381865afa15801561258c573d6000803e3d6000fd5b505050506040513d601f19601f820116820180604052508101906125b0919061313d565b6125ba919061316c565b6125c59060016131de565b93505b60ff808516825283811660208084019182526009546000908152600e909152604090819020845181549351928601516060870151608088015160a089015165ffffffffffff16600160601b0271ffffffffffff0000000000000000000000001963ffffffff9283166801000000000000000002167fffffffffffffffffffffffffffff00000000000000000000ffffffffffffffff929093166401000000000267ffffffff000000001961ffff90951662010000029490941667ffffffffffff000019978a166101000261ffff19909916959099169490941796909617949094169590951794909417929092161791909117815560c08201516001918201805471ffffffffffffffffffffffffffffffffffff9092167fffffffffffffffffffffffffffff00000000000000000000000000000000000090921691909117905561100c908390612913565b604051630a85bd0160e11b81526000906001600160a01b0385169063150b7a02906127489033908990889088906004016136d8565b6020604051808303816000875af1925050508015612783575060408051601f3d908101601f1916820190925261278091810190613714565b60015b6127e1573d8080156127b1576040519150601f19603f3d011682016040523d82523d6000602084013e6127b6565b606091505b5080516000036127d9576040516368d2bf6b60e11b815260040160405180910390fd5b805181602001fd5b6001600160e01b031916630a85bd0160e11b1490506119a6565b604080516080810182526000808252602082018190529181018290526060810191909152610b3461282b83612124565b604080516080810182526001600160a01b038316815260a083901c67ffffffffffffffff166020820152600160e01b831615159181019190915260e89190911c606082015290565b6060600061288083612a44565b600101905060008167ffffffffffffffff8111156128a0576128a0612ec8565b6040519080825280601f01601f1916602001820160405280156128ca576020820181803683370190505b5090508181016020015b600019017f3031323334353637383961626364656600000000000000000000000000000000600a86061a8153600a85049450846128d457509392505050565b6000805490829003612951576040517fb562e8dd00000000000000000000000000000000000000000000000000000000815260040160405180910390fd5b6001600160a01b03831660008181526005602090815260408083208054680100000000000000018802019055848352600490915281206001851460e11b4260a01b178317905582840190839083907fddf252ad1be2c89b69c2b068fc378daa952ba7f163c4a11628f55a4df523b3ef8180a4600183015b818114612a0057808360007fddf252ad1be2c89b69c2b068fc378daa952ba7f163c4a11628f55a4df523b3ef600080a46001016129c8565b5081600003612a3b576040517f2e07630000000000000000000000000000000000000000000000000000000000815260040160405180910390fd5b60005550505050565b6000807a184f03e93ff9f4daa797ed6e38ed64bf6a1f0100000000000000008310612a8d577a184f03e93ff9f4daa797ed6e38ed64bf6a1f010000000000000000830492506040015b6d04ee2d6d415b85acef81000000008310612ab9576d04ee2d6d415b85acef8100000000830492506020015b662386f26fc100008310612ad757662386f26fc10000830492506010015b6305f5e1008310612aef576305f5e100830492506008015b6127108310612b0357612710830492506004015b60648310612b15576064830492506002015b600a8310610b345760010192915050565b6001600160e01b0319811681146110d757600080fd5b600060208284031215612b4e57600080fd5b81356115f181612b26565b60005b83811015612b74578181015183820152602001612b5c565b50506000910152565b60008151808452612b95816020860160208601612b59565b601f01601f19169290920160200192915050565b6020815260006115f16020830184612b7d565b600060208284031215612bce57600080fd5b5035919050565b80356001600160a01b0381168114610e2a57600080fd5b60008060408385031215612bff57600080fd5b612c0883612bd5565b946020939093013593505050565b600080600060608486031215612c2b57600080fd5b612c3484612bd5565b9250612c4260208501612bd5565b9150604084013590509250925092565b60008060208385031215612c6557600080fd5b823567ffffffffffffffff80821115612c7d57600080fd5b818501915085601f830112612c9157600080fd5b813581811115612ca057600080fd5b8660208260051b8501011115612cb557600080fd5b60209290920196919550909350505050565b600060208284031215612cd957600080fd5b6115f182612bd5565b6020808252825182820181905260009190848201906040850190845b818110156113de57612d4c8385516001600160a01b03815116825267ffffffffffffffff602082015116602083015260408101511515604083015262ffffff60608201511660608301525050565b9284019260809290920191600101612cfe565b6020808252825182820181905260009190848201906040850190845b818110156113de57835183529284019291840191600101612d7b565b600080600060608486031215612dac57600080fd5b612db584612bd5565b95602085013595506040909401359392505050565b80151581146110d757600080fd5b60008060408385031215612deb57600080fd5b612df483612bd5565b91506020830135612e0481612dca565b809150509250929050565b803563ffffffff81168114610e2a57600080fd5b61ffff811681146110d757600080fd5b803560ff81168114610e2a57600080fd5b600080600080600060a08688031215612e5c57600080fd5b612e6586612e0f565b94506020860135612e7581612e23565b93506040860135612e8581612e23565b9250612e9360608701612e33565b9150612ea160808701612e33565b90509295509295909350565b600060208284031215612ebf57600080fd5b6115f182612e0f565b634e487b7160e01b600052604160045260246000fd5b604051601f8201601f1916810167ffffffffffffffff81118282101715612f0757612f07612ec8565b604052919050565b600067ffffffffffffffff821115612f2957612f29612ec8565b50601f01601f191660200190565b60008060008060808587031215612f4d57600080fd5b612f5685612bd5565b9350612f6460208601612bd5565b925060408501359150606085013567ffffffffffffffff811115612f8757600080fd5b8501601f81018713612f9857600080fd5b8035612fab612fa682612f0f565b612ede565b818152886020838501011115612fc057600080fd5b8160208401602083013760006020838301015280935050505092959194509250565b60008060008060808587031215612ff857600080fd5b8435935060208501359250604085013561301181612dca565b915061301f60608601612e33565b905092959194509250565b81516001600160a01b0316815260208083015167ffffffffffffffff169082015260408083015115159082015260608083015162ffffff169082015260808101610b34565b6000806040838503121561308257600080fd5b61308b83612bd5565b915061309960208401612bd5565b90509250929050565b600181811c908216806130b657607f821691505b6020821081036130d657634e487b7160e01b600052602260045260246000fd5b50919050565b600082516130ee818460208701612b59565b9190910192915050565b7f646174613a696d6167652f7376672b786d6c3b6261736536342c00000000000081526000825161313081601a850160208701612b59565b91909101601a0192915050565b60006020828403121561314f57600080fd5b5051919050565b634e487b7160e01b600052601260045260246000fd5b60008261317b5761317b613156565b500690565b634e487b7160e01b600052601160045260246000fd5b60ff8181168382160190811115610b3457610b34613180565b634e487b7160e01b600052603260045260246000fd5b6000600182016131d7576131d7613180565b5060010190565b80820180821115610b3457610b34613180565b60006020828403121561320357600080fd5b81516115f181612dca565b60006080828403121561322057600080fd5b6040516080810181811067ffffffffffffffff8211171561324357613243612ec8565b604052825161325181612e23565b8152602083015161326181612e23565b6020820152604083015161327481612e23565b6040820152606083015161328781612e23565b60608201529392505050565b6000602082840312156132a557600080fd5b815167ffffffffffffffff8111156132bc57600080fd5b8201601f810184136132cd57600080fd5b80516132db612fa682612f0f565b8181528560208385010111156132f057600080fd5b613301826020830160208601612b59565b95945050505050565b600065ffffffffffff8084168061332357613323613156565b92169190910492915050565b600065ffffffffffff8084168061334857613348613156565b92169190910692915050565b607b60f81b81527f226e616d65223a2022636861696e656c6c6174696f6e20230000000000000000600182015260008351613396816019850160208801612b59565b7f222c0000000000000000000000000000000000000000000000000000000000006019918401918201527f226465736372697074696f6e223a2022636861696e656c6c6174696f6e222c00601b820152691134b6b0b3b2911d101160b11b603a820152835161340c816044840160208801612b59565b601160f91b60449290910191820152607d60f81b6045820152604601949350505050565b7f646174613a6170706c69636174696f6e2f6a736f6e3b6261736536342c00000081526000825161346881601d850160208701612b59565b91909101601d0192915050565b65ffffffffffff82811682821603908082111561349457613494613180565b5092915050565b61ffff81811683821601908082111561349457613494613180565b607b60f81b81527f226e616d65223a202254776f204d6f6f6e73204e6967687420536b696573222c60018201527f226465736372697074696f6e223a2022596f75722077696e646f7720696e746f60218201527f20746865204e6967687420536b792e20205374617267617a6520746f2072657660418201527f65616c20796f75722073656372657420636f6e7374656c6c6174696f6e2c206160618201527f6e6420637573746f6d697a6520796f757220766965772077697468207265706c60818201527f616361626c65207061727473206f662074686520696d6167652e22000000000060a18201527f2265787465726e616c5f75726c223a202268747470733a2f2f7777772e63686160bc8201527f696e656c6c6174696f6e2e636f6d2f220000000000000000000000000000000060dc820152691134b6b0b3b2911d101160b11b60ec820152600082516136158160f6850160208701612b59565b6119a661362e60f683860101601160f91b815260010190565b607d60f81b815260010190565b8082028115828204841417610b3457610b34613180565b60006060828403121561366457600080fd5b6040516060810181811067ffffffffffffffff8211171561368757613687612ec8565b604052825161369581612e23565b815260208301516136a581612e23565b602082015260408301516136b881612e23565b60408201529392505050565b6000826136d3576136d3613156565b500490565b60006001600160a01b0380871683528086166020840152508360408301526080606083015261370a6080830184612b7d565b9695505050505050565b60006020828403121561372657600080fd5b81516115f181612b2656fe4142434445464748494a4b4c4d4e4f505152535455565758595a6162636465666768696a6b6c6d6e6f707172737475767778797a303132333435363738392b2fa264697066735822122081707cf38ec09ddb12ddeeb26d39d2bd977c293868b3998a174f285de7ce973d64736f6c63430008120033",
  "libraries": {
    "Color": "0x5FbDB2315678afecb367f032d93F642f64180aa3"
  },
  "devdoc": {
    "events": {
      "Approval(address,address,uint256)": {
        "details": "Emitted when `owner` enables `approved` to manage the `tokenId` token."
      },
      "ApprovalForAll(address,address,bool)": {
        "details": "Emitted when `owner` enables or disables (`approved`) `operator` to manage all of its assets."
      },
      "ConsecutiveTransfer(uint256,uint256,address,address)": {
        "details": "Emitted when tokens in `fromTokenId` to `toTokenId` (inclusive) is transferred from `from` to `to`, as defined in the [ERC2309](https://eips.ethereum.org/EIPS/eip-2309) standard. See {_mintERC2309} for more details."
      },
      "Transfer(address,address,uint256)": {
        "details": "Emitted when `tokenId` token is transferred from `from` to `to`."
      }
    },
    "kind": "dev",
    "methods": {
      "approve(address,uint256)": {
        "details": "Gives permission to `to` to transfer `tokenId` token to another account. The approval is cleared when the token is transferred. Only a single account can be approved at a time, so approving the zero address clears previous approvals. Requirements: - The caller must own the token or be an approved operator. - `tokenId` must exist. Emits an {Approval} event."
      },
      "balanceOf(address)": {
        "details": "Returns the number of tokens in `owner`'s account."
      },
      "explicitOwnershipOf(uint256)": {
        "details": "Returns the `TokenOwnership` struct at `tokenId` without reverting. If the `tokenId` is out of bounds: - `addr = address(0)` - `startTimestamp = 0` - `burned = false` - `extraData = 0` If the `tokenId` is burned: - `addr = <Address of owner before token was burned>` - `startTimestamp = <Timestamp when token was burned>` - `burned = true` - `extraData = <Extra data when token was burned>` Otherwise: - `addr = <Address of owner>` - `startTimestamp = <Timestamp of start of ownership>` - `burned = false` - `extraData = <Extra data at start of ownership>`"
      },
      "explicitOwnershipsOf(uint256[])": {
        "details": "Returns an array of `TokenOwnership` structs at `tokenIds` in order. See {ERC721AQueryable-explicitOwnershipOf}"
      },
      "getApproved(uint256)": {
        "details": "Returns the account approved for `tokenId` token. Requirements: - `tokenId` must exist."
      },
      "isApprovedForAll(address,address)": {
        "details": "Returns if the `operator` is allowed to manage all of the assets of `owner`. See {setApprovalForAll}."
      },
      "name()": {
        "details": "Returns the token collection name."
      },
      "owner()": {
        "details": "Returns the address of the current owner."
      },
      "ownerOf(uint256)": {
        "details": "Returns the owner of the `tokenId` token. Requirements: - `tokenId` must exist."
      },
      "renounceOwnership()": {
        "details": "Leaves the contract without owner. It will not be possible to call `onlyOwner` functions anymore. Can only be called by the current owner. NOTE: Renouncing ownership will leave the contract without an owner, thereby removing any functionality that is only available to the owner."
      },
      "safeTransferFrom(address,address,uint256)": {
        "details": "Equivalent to `safeTransferFrom(from, to, tokenId, '')`."
      },
      "safeTransferFrom(address,address,uint256,bytes)": {
        "details": "Safely transfers `tokenId` token from `from` to `to`. Requirements: - `from` cannot be the zero address. - `to` cannot be the zero address. - `tokenId` token must exist and be owned by `from`. - If the caller is not `from`, it must be approved to move this token by either {approve} or {setApprovalForAll}. - If `to` refers to a smart contract, it must implement {IERC721Receiver-onERC721Received}, which is called upon a safe transfer. Emits a {Transfer} event."
      },
      "setApprovalForAll(address,bool)": {
        "details": "Approve or remove `operator` as an operator for the caller. Operators can call {transferFrom} or {safeTransferFrom} for any token owned by the caller. Requirements: - The `operator` cannot be the caller. Emits an {ApprovalForAll} event."
      },
      "supportsInterface(bytes4)": {
        "details": "Returns true if this contract implements the interface defined by `interfaceId`. See the corresponding [EIP section](https://eips.ethereum.org/EIPS/eip-165#how-interfaces-are-identified) to learn more about how these ids are created. This function call must use less than 30000 gas."
      },
      "symbol()": {
        "details": "Returns the token collection symbol."
      },
      "tokensOfOwner(address)": {
        "details": "Returns an array of token IDs owned by `owner`. This function scans the ownership mapping and is O(`totalSupply`) in complexity. It is meant to be called off-chain. See {ERC721AQueryable-tokensOfOwnerIn} for splitting the scan into multiple smaller scans if the collection is large enough to cause an out-of-gas error (10K collections should be fine)."
      },
      "tokensOfOwnerIn(address,uint256,uint256)": {
        "details": "Returns an array of token IDs owned by `owner`, in the range [`start`, `stop`) (i.e. `start <= tokenId < stop`). This function allows for tokens to be queried if the collection grows too big for a single call of {ERC721AQueryable-tokensOfOwner}. Requirements: - `start < stop`"
      },
      "totalSupply()": {
        "details": "Returns the total number of tokens in existence. Burned tokens will reduce the count. To get the total number of tokens minted, please see {_totalMinted}."
      },
      "transferFrom(address,address,uint256)": {
        "details": "Transfers `tokenId` from `from` to `to`. Requirements: - `from` cannot be the zero address. - `to` cannot be the zero address. - `tokenId` token must be owned by `from`. - If the caller is not `from`, it must be approved to move this token by either {approve} or {setApprovalForAll}. Emits a {Transfer} event."
      },
      "transferOwnership(address)": {
        "details": "Transfers ownership of the contract to a new account (`newOwner`). Can only be called by the current owner."
      }
    },
    "version": 1
  },
  "userdoc": {
    "errors": {
      "ApprovalCallerNotOwnerNorApproved()": [
        {
          "notice": "The caller must own the token or be an approved operator."
        }
      ],
      "ApprovalQueryForNonexistentToken()": [
        {
          "notice": "The token does not exist."
        }
      ],
      "BalanceQueryForZeroAddress()": [
        {
          "notice": "Cannot query the balance for the zero address."
        }
      ],
      "InvalidQueryRange()": [
        {
          "notice": "Invalid query range (`start` >= `stop`)."
        }
      ],
      "MintERC2309QuantityExceedsLimit()": [
        {
          "notice": "The `quantity` minted with ERC2309 exceeds the safety limit."
        }
      ],
      "MintToZeroAddress()": [
        {
          "notice": "Cannot mint to the zero address."
        }
      ],
      "MintZeroQuantity()": [
        {
          "notice": "The quantity of tokens minted must be more than zero."
        }
      ],
      "OwnerQueryForNonexistentToken()": [
        {
          "notice": "The token does not exist."
        }
      ],
      "OwnershipNotInitializedForExtraData()": [
        {
          "notice": "The `extraData` cannot be set on an unintialized ownership slot."
        }
      ],
      "TransferCallerNotOwnerNorApproved()": [
        {
          "notice": "The caller must own the token or be an approved operator."
        }
      ],
      "TransferFromIncorrectOwner()": [
        {
          "notice": "The token must be owned by `from`."
        }
      ],
      "TransferToNonERC721ReceiverImplementer()": [
        {
          "notice": "Cannot safely transfer to a contract that does not implement the ERC721Receiver interface."
        }
      ],
      "TransferToZeroAddress()": [
        {
          "notice": "Cannot transfer to the zero address."
        }
      ],
      "URIQueryForNonexistentToken()": [
        {
          "notice": "The token does not exist."
        }
      ]
    },
    "kind": "user",
    "methods": {},
    "version": 1
  },
  "storageLayout": {
    "storage": [
      {
        "astId": 2798,
        "contract": "contracts/chainellations/Chainellation.sol:Chainellation",
        "label": "_currentIndex",
        "offset": 0,
        "slot": "0",
        "type": "t_uint256"
      },
      {
        "astId": 2800,
        "contract": "contracts/chainellations/Chainellation.sol:Chainellation",
        "label": "_burnCounter",
        "offset": 0,
        "slot": "1",
        "type": "t_uint256"
      },
      {
        "astId": 2802,
        "contract": "contracts/chainellations/Chainellation.sol:Chainellation",
        "label": "_name",
        "offset": 0,
        "slot": "2",
        "type": "t_string_storage"
      },
      {
        "astId": 2804,
        "contract": "contracts/chainellations/Chainellation.sol:Chainellation",
        "label": "_symbol",
        "offset": 0,
        "slot": "3",
        "type": "t_string_storage"
      },
      {
        "astId": 2808,
        "contract": "contracts/chainellations/Chainellation.sol:Chainellation",
        "label": "_packedOwnerships",
        "offset": 0,
        "slot": "4",
        "type": "t_mapping(t_uint256,t_uint256)"
      },
      {
        "astId": 2812,
        "contract": "contracts/chainellations/Chainellation.sol:Chainellation",
        "label": "_packedAddressData",
        "offset": 0,
        "slot": "5",
        "type": "t_mapping(t_address,t_uint256)"
      },
      {
        "astId": 2817,
        "contract": "contracts/chainellations/Chainellation.sol:Chainellation",
        "label": "_tokenApprovals",
        "offset": 0,
        "slot": "6",
        "type": "t_mapping(t_uint256,t_struct(TokenApprovalRef)2730_storage)"
      },
      {
        "astId": 2823,
        "contract": "contracts/chainellations/Chainellation.sol:Chainellation",
        "label": "_operatorApprovals",
        "offset": 0,
        "slot": "7",
        "type": "t_mapping(t_address,t_mapping(t_address,t_bool))"
      },
      {
        "astId": 7,
        "contract": "contracts/chainellations/Chainellation.sol:Chainellation",
        "label": "_owner",
        "offset": 0,
        "slot": "8",
        "type": "t_address"
      },
      {
        "astId": 1655,
        "contract": "contracts/chainellations/Chainellation.sol:Chainellation",
        "label": "currentSupply",
        "offset": 0,
        "slot": "9",
        "type": "t_uint256"
      },
      {
        "astId": 1658,
        "contract": "contracts/chainellations/Chainellation.sol:Chainellation",
        "label": "maxSupply",
        "offset": 0,
        "slot": "10",
        "type": "t_uint256"
      },
      {
        "astId": 1661,
        "contract": "contracts/chainellations/Chainellation.sol:Chainellation",
        "label": "mintCost",
        "offset": 0,
        "slot": "11",
        "type": "t_uint256"
      },
      {
        "astId": 1664,
        "contract": "contracts/chainellations/Chainellation.sol:Chainellation",
        "label": "customizeCost",
        "offset": 0,
        "slot": "12",
        "type": "t_uint256"
      },
      {
        "astId": 1669,
        "contract": "contracts/chainellations/Chainellation.sol:Chainellation",
        "label": "dnas",
        "offset": 0,
        "slot": "13",
        "type": "t_mapping(t_uint256,t_struct(DNA)1236_storage)"
      },
      {
        "astId": 1674,
        "contract": "contracts/chainellations/Chainellation.sol:Chainellation",
        "label": "stats",
        "offset": 0,
        "slot": "14",
        "type": "t_mapping(t_uint256,t_struct(Stats)1653_storage)"
      },
      {
        "astId": 1676,
        "contract": "contracts/chainellations/Chainellation.sol:Chainellation",
        "label": "_decorator",
        "offset": 0,
        "slot": "15",
        "type": "t_address"
      },
      {
        "astId": 1679,
        "contract": "contracts/chainellations/Chainellation.sol:Chainellation",
        "label": "_renderer",
        "offset": 0,
        "slot": "16",
        "type": "t_contract(IChainellationRenderer)2649"
      },
      {
        "astId": 1682,
        "contract": "contracts/chainellations/Chainellation.sol:Chainellation",
        "label": "_twoMoonsEvent",
        "offset": 0,
        "slot": "17",
        "type": "t_contract(ITwoMoonsEvent)2659"
      }
    ],
    "types": {
      "t_address": {
        "encoding": "inplace",
        "label": "address",
        "numberOfBytes": "20"
      },
      "t_bool": {
        "encoding": "inplace",
        "label": "bool",
        "numberOfBytes": "1"
      },
      "t_contract(IChainellationRenderer)2649": {
        "encoding": "inplace",
        "label": "contract IChainellationRenderer",
        "numberOfBytes": "20"
      },
      "t_contract(ITwoMoonsEvent)2659": {
        "encoding": "inplace",
        "label": "contract ITwoMoonsEvent",
        "numberOfBytes": "20"
      },
      "t_mapping(t_address,t_bool)": {
        "encoding": "mapping",
        "key": "t_address",
        "label": "mapping(address => bool)",
        "numberOfBytes": "32",
        "value": "t_bool"
      },
      "t_mapping(t_address,t_mapping(t_address,t_bool))": {
        "encoding": "mapping",
        "key": "t_address",
        "label": "mapping(address => mapping(address => bool))",
        "numberOfBytes": "32",
        "value": "t_mapping(t_address,t_bool)"
      },
      "t_mapping(t_address,t_uint256)": {
        "encoding": "mapping",
        "key": "t_address",
        "label": "mapping(address => uint256)",
        "numberOfBytes": "32",
        "value": "t_uint256"
      },
      "t_mapping(t_uint256,t_struct(DNA)1236_storage)": {
        "encoding": "mapping",
        "key": "t_uint256",
        "label": "mapping(uint256 => struct Color.DNA)",
        "numberOfBytes": "32",
        "value": "t_struct(DNA)1236_storage"
      },
      "t_mapping(t_uint256,t_struct(Stats)1653_storage)": {
        "encoding": "mapping",
        "key": "t_uint256",
        "label": "mapping(uint256 => struct Chainellation.Stats)",
        "numberOfBytes": "32",
        "value": "t_struct(Stats)1653_storage"
      },
      "t_mapping(t_uint256,t_struct(TokenApprovalRef)2730_storage)": {
        "encoding": "mapping",
        "key": "t_uint256",
        "label": "mapping(uint256 => struct ERC721A.TokenApprovalRef)",
        "numberOfBytes": "32",
        "value": "t_struct(TokenApprovalRef)2730_storage"
      },
      "t_mapping(t_uint256,t_uint256)": {
        "encoding": "mapping",
        "key": "t_uint256",
        "label": "mapping(uint256 => uint256)",
        "numberOfBytes": "32",
        "value": "t_uint256"
      },
      "t_string_storage": {
        "encoding": "bytes",
        "label": "string",
        "numberOfBytes": "32"
      },
      "t_struct(DNA)1236_storage": {
        "encoding": "inplace",
        "label": "struct Color.DNA",
        "members": [
          {
            "astId": 1229,
            "contract": "contracts/chainellations/Chainellation.sol:Chainellation",
            "label": "primaryHue",
            "offset": 0,
            "slot": "0",
            "type": "t_uint16"
          },
          {
            "astId": 1231,
            "contract": "contracts/chainellations/Chainellation.sol:Chainellation",
            "label": "secondaryHue",
            "offset": 2,
            "slot": "0",
            "type": "t_uint16"
          },
          {
            "astId": 1233,
            "contract": "contracts/chainellations/Chainellation.sol:Chainellation",
            "label": "constellation",
            "offset": 4,
            "slot": "0",
            "type": "t_uint16"
          },
          {
            "astId": 1235,
            "contract": "contracts/chainellations/Chainellation.sol:Chainellation",
            "label": "cloudsAt",
            "offset": 6,
            "slot": "0",
            "type": "t_uint16"
          }
        ],
        "numberOfBytes": "32"
      },
      "t_struct(Stats)1653_storage": {
        "encoding": "inplace",
        "label": "struct Chainellation.Stats",
        "members": [
          {
            "astId": 1640,
            "contract": "contracts/chainellations/Chainellation.sol:Chainellation",
            "label": "constellation",
            "offset": 0,
            "slot": "0",
            "type": "t_uint8"
          },
          {
            "astId": 1642,
            "contract": "contracts/chainellations/Chainellation.sol:Chainellation",
            "label": "cloudsAt",
            "offset": 1,
            "slot": "0",
            "type": "t_uint8"
          },
          {
            "astId": 1644,
            "contract": "contracts/chainellations/Chainellation.sol:Chainellation",
            "label": "gazes",
            "offset": 2,
            "slot": "0",
            "type": "t_uint16"
          },
          {
            "astId": 1646,
            "contract": "contracts/chainellations/Chainellation.sol:Chainellation",
            "label": "timeZoneOffset",
            "offset": 4,
            "slot": "0",
            "type": "t_uint32"
          },
          {
            "astId": 1648,
            "contract": "contracts/chainellations/Chainellation.sol:Chainellation",
            "label": "colors",
            "offset": 8,
            "slot": "0",
            "type": "t_uint32"
          },
          {
            "astId": 1650,
            "contract": "contracts/chainellations/Chainellation.sol:Chainellation",
            "label": "lastGaze",
            "offset": 12,
            "slot": "0",
            "type": "t_uint48"
          },
          {
            "astId": 1652,
            "contract": "contracts/chainellations/Chainellation.sol:Chainellation",
            "label": "consolidated",
            "offset": 0,
            "slot": "1",
            "type": "t_uint144"
          }
        ],
        "numberOfBytes": "64"
      },
      "t_struct(TokenApprovalRef)2730_storage": {
        "encoding": "inplace",
        "label": "struct ERC721A.TokenApprovalRef",
        "members": [
          {
            "astId": 2729,
            "contract": "contracts/chainellations/Chainellation.sol:Chainellation",
            "label": "value",
            "offset": 0,
            "slot": "0",
            "type": "t_address"
          }
        ],
        "numberOfBytes": "32"
      },
      "t_uint144": {
        "encoding": "inplace",
        "label": "uint144",
        "numberOfBytes": "18"
      },
      "t_uint16": {
        "encoding": "inplace",
        "label": "uint16",
        "numberOfBytes": "2"
      },
      "t_uint256": {
        "encoding": "inplace",
        "label": "uint256",
        "numberOfBytes": "32"
      },
      "t_uint32": {
        "encoding": "inplace",
        "label": "uint32",
        "numberOfBytes": "4"
      },
      "t_uint48": {
        "encoding": "inplace",
        "label": "uint48",
        "numberOfBytes": "6"
      },
      "t_uint8": {
        "encoding": "inplace",
        "label": "uint8",
        "numberOfBytes": "1"
      }
    }
  }
}