{
  "address": "0xCf7Ed3AccA5a467e9e704C703E8D87F634fB0Fc9",
  "abi": [
    {
      "inputs": [
        {
          "internalType": "address",
          "name": "renderer",
          "type": "address"
        }
      ],
      "stateMutability": "nonpayable",
      "type": "constructor"
    },
    {
      "inputs": [],
      "name": "Cost",
      "type": "error"
    },
    {
      "inputs": [],
      "name": "MaxSupplyReached",
      "type": "error"
    },
    {
      "inputs": [],
      "name": "NotEnoughTimePassed",
      "type": "error"
    },
    {
      "inputs": [],
      "name": "NotMinted",
      "type": "error"
    },
    {
      "inputs": [],
      "name": "NotNight",
      "type": "error"
    },
    {
      "inputs": [],
      "name": "NotTheOwner",
      "type": "error"
    },
    {
      "inputs": [],
      "name": "TooCloudy",
      "type": "error"
    },
    {
      "anonymous": false,
      "inputs": [
        {
          "indexed": true,
          "internalType": "address",
          "name": "owner",
          "type": "address"
        },
        {
          "indexed": true,
          "internalType": "address",
          "name": "approved",
          "type": "address"
        },
        {
          "indexed": true,
          "internalType": "uint256",
          "name": "tokenId",
          "type": "uint256"
        }
      ],
      "name": "Approval",
      "type": "event"
    },
    {
      "anonymous": false,
      "inputs": [
        {
          "indexed": true,
          "internalType": "address",
          "name": "owner",
          "type": "address"
        },
        {
          "indexed": true,
          "internalType": "address",
          "name": "operator",
          "type": "address"
        },
        {
          "indexed": false,
          "internalType": "bool",
          "name": "approved",
          "type": "bool"
        }
      ],
      "name": "ApprovalForAll",
      "type": "event"
    },
    {
      "anonymous": false,
      "inputs": [
        {
          "indexed": true,
          "internalType": "address",
          "name": "previousOwner",
          "type": "address"
        },
        {
          "indexed": true,
          "internalType": "address",
          "name": "newOwner",
          "type": "address"
        }
      ],
      "name": "OwnershipTransferred",
      "type": "event"
    },
    {
      "anonymous": false,
      "inputs": [
        {
          "indexed": true,
          "internalType": "address",
          "name": "from",
          "type": "address"
        },
        {
          "indexed": true,
          "internalType": "address",
          "name": "to",
          "type": "address"
        },
        {
          "indexed": true,
          "internalType": "uint256",
          "name": "tokenId",
          "type": "uint256"
        }
      ],
      "name": "Transfer",
      "type": "event"
    },
    {
      "inputs": [
        {
          "internalType": "address",
          "name": "to",
          "type": "address"
        },
        {
          "internalType": "uint256",
          "name": "tokenId",
          "type": "uint256"
        }
      ],
      "name": "approve",
      "outputs": [],
      "stateMutability": "nonpayable",
      "type": "function"
    },
    {
      "inputs": [
        {
          "internalType": "address",
          "name": "owner",
          "type": "address"
        }
      ],
      "name": "balanceOf",
      "outputs": [
        {
          "internalType": "uint256",
          "name": "",
          "type": "uint256"
        }
      ],
      "stateMutability": "view",
      "type": "function"
    },
    {
      "inputs": [
        {
          "internalType": "uint256",
          "name": "",
          "type": "uint256"
        }
      ],
      "name": "colors",
      "outputs": [
        {
          "internalType": "uint32",
          "name": "",
          "type": "uint32"
        }
      ],
      "stateMutability": "view",
      "type": "function"
    },
    {
      "inputs": [],
      "name": "currentSupply",
      "outputs": [
        {
          "internalType": "uint256",
          "name": "",
          "type": "uint256"
        }
      ],
      "stateMutability": "view",
      "type": "function"
    },
    {
      "inputs": [],
      "name": "customizeCost",
      "outputs": [
        {
          "internalType": "uint256",
          "name": "",
          "type": "uint256"
        }
      ],
      "stateMutability": "view",
      "type": "function"
    },
    {
      "inputs": [
        {
          "internalType": "uint256",
          "name": "",
          "type": "uint256"
        }
      ],
      "name": "dnas",
      "outputs": [
        {
          "internalType": "uint256",
          "name": "tokenId",
          "type": "uint256"
        },
        {
          "internalType": "uint16",
          "name": "primaryHue",
          "type": "uint16"
        },
        {
          "internalType": "uint16",
          "name": "secondaryHue",
          "type": "uint16"
        },
        {
          "internalType": "uint256",
          "name": "starSeed",
          "type": "uint256"
        },
        {
          "internalType": "uint256",
          "name": "funkSeed",
          "type": "uint256"
        },
        {
          "internalType": "uint256",
          "name": "circleSeed",
          "type": "uint256"
        },
        {
          "internalType": "uint256",
          "name": "groundSeed",
          "type": "uint256"
        },
        {
          "internalType": "uint256",
          "name": "constellationSeed",
          "type": "uint256"
        }
      ],
      "stateMutability": "view",
      "type": "function"
    },
    {
      "inputs": [
        {
          "internalType": "uint32",
          "name": "timezoneOffset",
          "type": "uint32"
        }
      ],
      "name": "freeMint",
      "outputs": [],
      "stateMutability": "nonpayable",
      "type": "function"
    },
    {
      "inputs": [
        {
          "internalType": "uint256[]",
          "name": "tokenIds",
          "type": "uint256[]"
        }
      ],
      "name": "gazeBatch",
      "outputs": [],
      "stateMutability": "nonpayable",
      "type": "function"
    },
    {
      "inputs": [
        {
          "internalType": "uint256",
          "name": "",
          "type": "uint256"
        }
      ],
      "name": "gazes",
      "outputs": [
        {
          "internalType": "uint16",
          "name": "",
          "type": "uint16"
        }
      ],
      "stateMutability": "view",
      "type": "function"
    },
    {
      "inputs": [
        {
          "internalType": "uint256",
          "name": "tokenId",
          "type": "uint256"
        }
      ],
      "name": "generateCharacter",
      "outputs": [
        {
          "internalType": "string",
          "name": "",
          "type": "string"
        }
      ],
      "stateMutability": "view",
      "type": "function"
    },
    {
      "inputs": [
        {
          "internalType": "uint256",
          "name": "tokenId",
          "type": "uint256"
        },
        {
          "internalType": "uint256",
          "name": "gazed",
          "type": "uint256"
        },
        {
          "internalType": "uint8",
          "name": "cloudsAt",
          "type": "uint8"
        },
        {
          "internalType": "bool",
          "name": "sunUp",
          "type": "bool"
        }
      ],
      "name": "generateSVG",
      "outputs": [
        {
          "internalType": "string",
          "name": "",
          "type": "string"
        }
      ],
      "stateMutability": "view",
      "type": "function"
    },
    {
      "inputs": [
        {
          "internalType": "uint256",
          "name": "tokenId",
          "type": "uint256"
        }
      ],
      "name": "getApproved",
      "outputs": [
        {
          "internalType": "address",
          "name": "",
          "type": "address"
        }
      ],
      "stateMutability": "view",
      "type": "function"
    },
    {
      "inputs": [
        {
          "internalType": "uint256",
          "name": "tokenId",
          "type": "uint256"
        }
      ],
      "name": "getColors",
      "outputs": [
        {
          "internalType": "uint32",
          "name": "",
          "type": "uint32"
        }
      ],
      "stateMutability": "view",
      "type": "function"
    },
    {
      "inputs": [
        {
          "internalType": "address",
          "name": "owner",
          "type": "address"
        },
        {
          "internalType": "address",
          "name": "operator",
          "type": "address"
        }
      ],
      "name": "isApprovedForAll",
      "outputs": [
        {
          "internalType": "bool",
          "name": "",
          "type": "bool"
        }
      ],
      "stateMutability": "view",
      "type": "function"
    },
    {
      "inputs": [
        {
          "internalType": "uint256",
          "name": "tokenId",
          "type": "uint256"
        }
      ],
      "name": "isNight",
      "outputs": [
        {
          "internalType": "bool",
          "name": "",
          "type": "bool"
        }
      ],
      "stateMutability": "view",
      "type": "function"
    },
    {
      "inputs": [
        {
          "internalType": "uint256",
          "name": "",
          "type": "uint256"
        }
      ],
      "name": "lastGaze",
      "outputs": [
        {
          "internalType": "uint256",
          "name": "",
          "type": "uint256"
        }
      ],
      "stateMutability": "view",
      "type": "function"
    },
    {
      "inputs": [],
      "name": "maxSupply",
      "outputs": [
        {
          "internalType": "uint256",
          "name": "",
          "type": "uint256"
        }
      ],
      "stateMutability": "view",
      "type": "function"
    },
    {
      "inputs": [
        {
          "internalType": "uint32",
          "name": "timezoneOffset",
          "type": "uint32"
        }
      ],
      "name": "mint",
      "outputs": [],
      "stateMutability": "payable",
      "type": "function"
    },
    {
      "inputs": [
        {
          "internalType": "uint32",
          "name": "timezoneOffset",
          "type": "uint32"
        },
        {
          "internalType": "uint8",
          "name": "count",
          "type": "uint8"
        }
      ],
      "name": "mintBatch",
      "outputs": [],
      "stateMutability": "payable",
      "type": "function"
    },
    {
      "inputs": [],
      "name": "mintCost",
      "outputs": [
        {
          "internalType": "uint256",
          "name": "",
          "type": "uint256"
        }
      ],
      "stateMutability": "view",
      "type": "function"
    },
    {
      "inputs": [
        {
          "internalType": "uint32",
          "name": "timezoneOffset",
          "type": "uint32"
        },
        {
          "internalType": "uint16",
          "name": "firstH",
          "type": "uint16"
        },
        {
          "internalType": "uint16",
          "name": "secondH",
          "type": "uint16"
        }
      ],
      "name": "mintCustom",
      "outputs": [],
      "stateMutability": "payable",
      "type": "function"
    },
    {
      "inputs": [],
      "name": "name",
      "outputs": [
        {
          "internalType": "string",
          "name": "",
          "type": "string"
        }
      ],
      "stateMutability": "view",
      "type": "function"
    },
    {
      "inputs": [],
      "name": "owner",
      "outputs": [
        {
          "internalType": "address",
          "name": "",
          "type": "address"
        }
      ],
      "stateMutability": "view",
      "type": "function"
    },
    {
      "inputs": [
        {
          "internalType": "uint256",
          "name": "tokenId",
          "type": "uint256"
        }
      ],
      "name": "ownerOf",
      "outputs": [
        {
          "internalType": "address",
          "name": "",
          "type": "address"
        }
      ],
      "stateMutability": "view",
      "type": "function"
    },
    {
      "inputs": [],
      "name": "renounceOwnership",
      "outputs": [],
      "stateMutability": "nonpayable",
      "type": "function"
    },
    {
      "inputs": [
        {
          "internalType": "uint256",
          "name": "tokenId",
          "type": "uint256"
        }
      ],
      "name": "reset",
      "outputs": [],
      "stateMutability": "nonpayable",
      "type": "function"
    },
    {
      "inputs": [
        {
          "internalType": "address",
          "name": "from",
          "type": "address"
        },
        {
          "internalType": "address",
          "name": "to",
          "type": "address"
        },
        {
          "internalType": "uint256",
          "name": "tokenId",
          "type": "uint256"
        }
      ],
      "name": "safeTransferFrom",
      "outputs": [],
      "stateMutability": "nonpayable",
      "type": "function"
    },
    {
      "inputs": [
        {
          "internalType": "address",
          "name": "from",
          "type": "address"
        },
        {
          "internalType": "address",
          "name": "to",
          "type": "address"
        },
        {
          "internalType": "uint256",
          "name": "tokenId",
          "type": "uint256"
        },
        {
          "internalType": "bytes",
          "name": "data",
          "type": "bytes"
        }
      ],
      "name": "safeTransferFrom",
      "outputs": [],
      "stateMutability": "nonpayable",
      "type": "function"
    },
    {
      "inputs": [
        {
          "internalType": "address",
          "name": "operator",
          "type": "address"
        },
        {
          "internalType": "bool",
          "name": "approved",
          "type": "bool"
        }
      ],
      "name": "setApprovalForAll",
      "outputs": [],
      "stateMutability": "nonpayable",
      "type": "function"
    },
    {
      "inputs": [
        {
          "internalType": "uint256",
          "name": "_newCost",
          "type": "uint256"
        }
      ],
      "name": "setCustomizeCost",
      "outputs": [],
      "stateMutability": "nonpayable",
      "type": "function"
    },
    {
      "inputs": [
        {
          "internalType": "address",
          "name": "decorator",
          "type": "address"
        }
      ],
      "name": "setDecorator",
      "outputs": [],
      "stateMutability": "nonpayable",
      "type": "function"
    },
    {
      "inputs": [
        {
          "internalType": "uint256",
          "name": "_maxSupply",
          "type": "uint256"
        }
      ],
      "name": "setMaxSupply",
      "outputs": [],
      "stateMutability": "nonpayable",
      "type": "function"
    },
    {
      "inputs": [
        {
          "internalType": "uint256",
          "name": "_newMintCost",
          "type": "uint256"
        }
      ],
      "name": "setMintCost",
      "outputs": [],
      "stateMutability": "nonpayable",
      "type": "function"
    },
    {
      "inputs": [
        {
          "internalType": "address",
          "name": "renderer",
          "type": "address"
        }
      ],
      "name": "setRenderer",
      "outputs": [],
      "stateMutability": "nonpayable",
      "type": "function"
    },
    {
      "inputs": [
        {
          "internalType": "uint256",
          "name": "tokenId",
          "type": "uint256"
        }
      ],
      "name": "starGaze",
      "outputs": [],
      "stateMutability": "nonpayable",
      "type": "function"
    },
    {
      "inputs": [
        {
          "internalType": "bytes4",
          "name": "interfaceId",
          "type": "bytes4"
        }
      ],
      "name": "supportsInterface",
      "outputs": [
        {
          "internalType": "bool",
          "name": "",
          "type": "bool"
        }
      ],
      "stateMutability": "view",
      "type": "function"
    },
    {
      "inputs": [],
      "name": "symbol",
      "outputs": [
        {
          "internalType": "string",
          "name": "",
          "type": "string"
        }
      ],
      "stateMutability": "view",
      "type": "function"
    },
    {
      "inputs": [],
      "name": "systemTime",
      "outputs": [
        {
          "internalType": "uint256",
          "name": "",
          "type": "uint256"
        }
      ],
      "stateMutability": "view",
      "type": "function"
    },
    {
      "inputs": [
        {
          "internalType": "uint256",
          "name": "tokenId",
          "type": "uint256"
        }
      ],
      "name": "systemTimeOffsetWithUser",
      "outputs": [
        {
          "internalType": "uint256",
          "name": "",
          "type": "uint256"
        }
      ],
      "stateMutability": "view",
      "type": "function"
    },
    {
      "inputs": [
        {
          "internalType": "uint256",
          "name": "",
          "type": "uint256"
        }
      ],
      "name": "timeZoneOffset",
      "outputs": [
        {
          "internalType": "uint32",
          "name": "",
          "type": "uint32"
        }
      ],
      "stateMutability": "view",
      "type": "function"
    },
    {
      "inputs": [
        {
          "internalType": "uint256",
          "name": "index",
          "type": "uint256"
        }
      ],
      "name": "tokenByIndex",
      "outputs": [
        {
          "internalType": "uint256",
          "name": "",
          "type": "uint256"
        }
      ],
      "stateMutability": "view",
      "type": "function"
    },
    {
      "inputs": [
        {
          "internalType": "address",
          "name": "owner",
          "type": "address"
        },
        {
          "internalType": "uint256",
          "name": "index",
          "type": "uint256"
        }
      ],
      "name": "tokenOfOwnerByIndex",
      "outputs": [
        {
          "internalType": "uint256",
          "name": "",
          "type": "uint256"
        }
      ],
      "stateMutability": "view",
      "type": "function"
    },
    {
      "inputs": [
        {
          "internalType": "uint256",
          "name": "tokenId",
          "type": "uint256"
        }
      ],
      "name": "tokenURI",
      "outputs": [
        {
          "internalType": "string",
          "name": "",
          "type": "string"
        }
      ],
      "stateMutability": "view",
      "type": "function"
    },
    {
      "inputs": [],
      "name": "totalSupply",
      "outputs": [
        {
          "internalType": "uint256",
          "name": "",
          "type": "uint256"
        }
      ],
      "stateMutability": "view",
      "type": "function"
    },
    {
      "inputs": [
        {
          "internalType": "address",
          "name": "from",
          "type": "address"
        },
        {
          "internalType": "address",
          "name": "to",
          "type": "address"
        },
        {
          "internalType": "uint256",
          "name": "tokenId",
          "type": "uint256"
        }
      ],
      "name": "transferFrom",
      "outputs": [],
      "stateMutability": "nonpayable",
      "type": "function"
    },
    {
      "inputs": [
        {
          "internalType": "address",
          "name": "newOwner",
          "type": "address"
        }
      ],
      "name": "transferOwnership",
      "outputs": [],
      "stateMutability": "nonpayable",
      "type": "function"
    },
    {
      "inputs": [],
      "name": "withdraw",
      "outputs": [],
      "stateMutability": "nonpayable",
      "type": "function"
    },
    {
      "inputs": [
        {
          "internalType": "address",
          "name": "_tokenContract",
          "type": "address"
        },
        {
          "internalType": "uint256",
          "name": "_amount",
          "type": "uint256"
        }
      ],
      "name": "withdrawToken",
      "outputs": [],
      "stateMutability": "nonpayable",
      "type": "function"
    }
  ],
  "transactionHash": "0xcae67c0bcfb6590eba061edd70b68626c3e18eecafb6c014a3336ed975df5979",
  "args": [
    "0x9fE46736679d2D9a65F0992F2272dE9f3c7fa6e0"
  ],
  "numDeployments": 1,
  "solcInputHash": "024556009ac9c877de40b16c8147d315",
  "bytecode": "0x6080604052613a98600c556000600d556000600e553480156200002157600080fd5b506040516200368f3803806200368f833981016040819052620000449162000141565b6040518060400160405280600d81526020016c31b430b4b732b63630ba34b7b760991b81525060405180604001604052806005815260200164535441525360d81b815250816000908162000099919062000218565b506001620000a8828262000218565b505050620000c5620000bf620000eb60201b60201c565b620000ef565b601580546001600160a01b0319166001600160a01b0392909216919091179055620002e4565b3390565b600a80546001600160a01b038381166001600160a01b0319831681179093556040519116919082907f8be0079c531659141344cd1fd0a4f28419497f9722a3daafe3b4186f6b6457e090600090a35050565b6000602082840312156200015457600080fd5b81516001600160a01b03811681146200016c57600080fd5b9392505050565b634e487b7160e01b600052604160045260246000fd5b600181811c908216806200019e57607f821691505b602082108103620001bf57634e487b7160e01b600052602260045260246000fd5b50919050565b601f8211156200021357600081815260208120601f850160051c81016020861015620001ee5750805b601f850160051c820191505b818110156200020f57828155600101620001fa565b5050505b505050565b81516001600160401b0381111562000234576200023462000173565b6200024c8162000245845462000189565b84620001c5565b602080601f8311600181146200028457600084156200026b5750858301515b600019600386901b1c1916600185901b1785556200020f565b600085815260208120601f198616915b82811015620002b55788860151825594840194600190910190840162000294565b5085821015620002d45787850151600019600388901b60f8161c191681555b5050505050600190811b01905550565b61339b80620002f46000396000f3fe6080604052600436106103135760003560e01c80638da5cb5b1161019a578063c1b7fa34116100e1578063dbea4da71161008a578063ee7e418b11610064578063ee7e418b1461097e578063f2fde38b1461099e578063f3119682146109be57600080fd5b8063dbea4da7146108e8578063e01373b114610908578063e985e9c51461093557600080fd5b8063cbcb0a7a116100bb578063cbcb0a7a14610892578063d5abeb01146108b2578063d9be4145146108c857600080fd5b8063c1b7fa341461083f578063c370062014610852578063c87b56dd1461087257600080fd5b8063a22cb46511610143578063b88d4fde1161011d578063b88d4fde146107d6578063bd11f69d146107f6578063bdb4b8481461082957600080fd5b8063a22cb46514610790578063a71bbebe146107b0578063b7438f0d146107c357600080fd5b80639665e720116101745780639665e7201461070c5780639e281a98146107505780639f03811f1461077057600080fd5b80638da5cb5b1461069157806394688c66146106af57806395d89b41146106f757600080fd5b80633ccfd60b1161025e57806370a082311161020757806379454440116101e1578063794544401461063b5780638545f4ea146106515780638850504a1461067157600080fd5b806370a08231146105f1578063715018a614610611578063771282f61461062657600080fd5b806356d3163d1161023857806356d3163d146105915780636352211e146105b15780636f8b44b0146105d157600080fd5b80633ccfd60b1461053c57806342842e0e146105515780634f6ccce71461057157600080fd5b806323b872dd116102c057806332fdf2d71161029a57806332fdf2d71461046857806334e80ea314610488578063373e4e461461052957600080fd5b806323b872dd146104085780632f745c5914610428578063310bd74b1461044857600080fd5b8063095ea7b3116102f1578063095ea7b3146103a75780630daefed5146103c957806318160ddd146103e957600080fd5b806301ffc9a71461031857806306fdde031461034d578063081812fc1461036f575b600080fd5b34801561032457600080fd5b5061033861033336600461290d565b6109de565b60405190151581526020015b60405180910390f35b34801561035957600080fd5b506103626109ef565b604051610344919061297a565b34801561037b57600080fd5b5061038f61038a36600461298d565b610a81565b6040516001600160a01b039091168152602001610344565b3480156103b357600080fd5b506103c76103c23660046129bd565b610aa8565b005b3480156103d557600080fd5b506103626103e436600461298d565b610bde565b3480156103f557600080fd5b506008545b604051908152602001610344565b34801561041457600080fd5b506103c76104233660046129e7565b610c5d565b34801561043457600080fd5b506103fa6104433660046129bd565b610cd4565b34801561045457600080fd5b506103c761046336600461298d565b610d7c565b34801561047457600080fd5b506103c7610483366004612a23565b610dc6565b34801561049457600080fd5b506104e76104a336600461298d565b600f602052600090815260409020805460018201546002830154600384015460048501546005860154600690960154949561ffff8086169662010000909604169488565b6040805198895261ffff97881660208a015295909616948701949094526060860192909252608085015260a084015260c083015260e082015261010001610344565b6103c7610537366004612abd565b610e04565b34801561054857600080fd5b506103c7610e30565b34801561055d57600080fd5b506103c761056c3660046129e7565b610e67565b34801561057d57600080fd5b506103fa61058c36600461298d565b610e82565b34801561059d57600080fd5b506103c76105ac366004612af0565b610f26565b3480156105bd57600080fd5b5061038f6105cc36600461298d565b610f50565b3480156105dd57600080fd5b506103c76105ec36600461298d565b610fb5565b3480156105fd57600080fd5b506103fa61060c366004612af0565b610fc2565b34801561061d57600080fd5b506103c761105c565b34801561063257600080fd5b506103fa611070565b34801561064757600080fd5b506103fa600e5481565b34801561065d57600080fd5b506103c761066c36600461298d565b611080565b34801561067d57600080fd5b506103fa61068c36600461298d565b61108d565b34801561069d57600080fd5b50600a546001600160a01b031661038f565b3480156106bb57600080fd5b506106e26106ca36600461298d565b60106020526000908152604090205463ffffffff1681565b60405163ffffffff9091168152602001610344565b34801561070357600080fd5b506103626110ac565b34801561071857600080fd5b5061073d61072736600461298d565b60116020526000908152604090205461ffff1681565b60405161ffff9091168152602001610344565b34801561075c57600080fd5b506103c761076b3660046129bd565b6110bb565b34801561077c57600080fd5b5061036261078b366004612b19565b61114d565b34801561079c57600080fd5b506103c76107ab366004612b61565b611277565b6103c76107be366004612b98565b611286565b6103c76107d1366004612bc3565b6112b5565b3480156107e257600080fd5b506103c76107f1366004612c7b565b611300565b34801561080257600080fd5b506106e261081136600461298d565b60136020526000908152604090205463ffffffff1681565b34801561083557600080fd5b506103fa600d5481565b34801561084b57600080fd5b50426103fa565b34801561085e57600080fd5b5061033861086d36600461298d565b61137e565b34801561087e57600080fd5b5061036261088d36600461298d565b6113cb565b34801561089e57600080fd5b506103c76108ad36600461298d565b61145e565b3480156108be57600080fd5b506103fa600c5481565b3480156108d457600080fd5b506103c76108e3366004612af0565b611587565b3480156108f457600080fd5b506103c7610903366004612b98565b6115b1565b34801561091457600080fd5b506103fa61092336600461298d565b60126020526000908152604090205481565b34801561094157600080fd5b50610338610950366004612d26565b6001600160a01b03918216600090815260056020908152604080832093909416825291909152205460ff1690565b34801561098a57600080fd5b506103c761099936600461298d565b6115b9565b3480156109aa57600080fd5b506103c76109b9366004612af0565b6115c6565b3480156109ca57600080fd5b506106e26109d936600461298d565b611653565b60006109e982611779565b92915050565b6060600080546109fe90612d50565b80601f0160208091040260200160405190810160405280929190818152602001828054610a2a90612d50565b8015610a775780601f10610a4c57610100808354040283529160200191610a77565b820191906000526020600020905b815481529060010190602001808311610a5a57829003601f168201915b5050505050905090565b6000610a8c826117b7565b506000908152600460205260409020546001600160a01b031690565b6000610ab382610f50565b9050806001600160a01b0316836001600160a01b031603610b415760405162461bcd60e51b815260206004820152602160248201527f4552433732313a20617070726f76616c20746f2063757272656e74206f776e6560448201527f720000000000000000000000000000000000000000000000000000000000000060648201526084015b60405180910390fd5b336001600160a01b0382161480610b5d5750610b5d8133610950565b610bcf5760405162461bcd60e51b815260206004820152603d60248201527f4552433732313a20617070726f76652063616c6c6572206973206e6f7420746f60448201527f6b656e206f776e6572206f7220617070726f76656420666f7220616c6c0000006064820152608401610b38565b610bd9838361181b565b505050565b60008181526011602052604081205460609190610c0c90849061ffff166001610c068361137e565b1561114d565b604051602001610c1c9190612d8a565b6040516020818303038152906040529050610c3681611889565b604051602001610c469190612da6565b604051602081830303815290604052915050919050565b610c6733826119dc565b610cc95760405162461bcd60e51b815260206004820152602d60248201527f4552433732313a2063616c6c6572206973206e6f7420746f6b656e206f776e6560448201526c1c881bdc88185c1c1c9bdd9959609a1b6064820152608401610b38565b610bd9838383611a5a565b6000610cdf83610fc2565b8210610d535760405162461bcd60e51b815260206004820152602b60248201527f455243373231456e756d657261626c653a206f776e657220696e646578206f7560448201527f74206f6620626f756e64730000000000000000000000000000000000000000006064820152608401610b38565b506001600160a01b03919091166000908152600660209081526040808320938352929052205490565b33610d8682610f50565b6001600160a01b031614610dad576040516336b6b89560e01b815260040160405180910390fd5b6000908152601160205260409020805461ffff19169055565b60005b81811015610bd957610df2838383818110610de657610de6612deb565b9050602002013561145e565b80610dfc81612e17565b915050610dc9565b60005b8160ff168160ff161015610bd957610e1e83611286565b80610e2881612e30565b915050610e07565b610e38611c60565b60405133904780156108fc02916000818181858888f19350505050158015610e64573d6000803e3d6000fd5b50565b610bd983838360405180602001604052806000815250611300565b6000610e8d60085490565b8210610f015760405162461bcd60e51b815260206004820152602c60248201527f455243373231456e756d657261626c653a20676c6f62616c20696e646578206f60448201527f7574206f6620626f756e647300000000000000000000000000000000000000006064820152608401610b38565b60088281548110610f1457610f14612deb565b90600052602060002001549050919050565b610f2e611c60565b601580546001600160a01b0319166001600160a01b0392909216919091179055565b6000818152600260205260408120546001600160a01b0316806109e95760405162461bcd60e51b815260206004820152601860248201527f4552433732313a20696e76616c696420746f6b656e20494400000000000000006044820152606401610b38565b610fbd611c60565b600c55565b60006001600160a01b0382166110405760405162461bcd60e51b815260206004820152602960248201527f4552433732313a2061646472657373207a65726f206973206e6f74206120766160448201527f6c6964206f776e657200000000000000000000000000000000000000000000006064820152608401610b38565b506001600160a01b031660009081526003602052604090205490565b611064611c60565b61106e6000611cba565b565b600061107b600b5490565b905090565b611088611c60565b600d55565b6000818152601060205260408120546109e99063ffffffff1642612e4f565b6060600180546109fe90612d50565b6110c3611c60565b6040517fa9059cbb000000000000000000000000000000000000000000000000000000008152336004820152602481018290526001600160a01b0383169063a9059cbb906044016020604051808303816000875af1158015611129573d6000803e3d6000fd5b505050506040513d601f19601f82011682018060405250810190610bd99190612e62565b6015546060906001600160a01b031663428f5eb6735FbDB2315678afecb367f032d93F642f64180aa36380b1b86c8861118581611653565b6040516001600160e01b031960e085901b168152600481019290925263ffffffff16602482015260440161010060405180830381865af41580156111cd573d6000803e3d6000fd5b505050506040513d601f19601f820116820180604052508101906111f19190612e8a565b6014546040516001600160e01b031960e085901b1681526112279291899188918a916001600160a01b0390911690600401612f2d565b600060405180830381865afa158015611244573d6000803e3d6000fd5b505050506040513d6000823e601f3d908101601f1916820160405261126c9190810190612fc5565b90505b949350505050565b611282338383611d0c565b5050565b600d543410156112a957604051633d8f14cf60e21b815260040160405180910390fd5b610e6481600033611dda565b600e54600d546112c59190612e4f565b3410156112e557604051633d8f14cf60e21b815260040160405180910390fd5b610bd98363ffff0000601085901b1661ffff84161733611dda565b61130a33836119dc565b61136c5760405162461bcd60e51b815260206004820152602d60248201527f4552433732313a2063616c6c6572206973206e6f7420746f6b656e206f776e6560448201526c1c881bdc88185c1c1c9bdd9959609a1b6064820152608401610b38565b61137884848484611f76565b50505050565b6000806018603c8061138f8661108d565b6113999190613052565b6113a39190613052565b6113ad9190613066565b905060068160ff1610806113c4575060128160ff16115b9392505050565b60606113d6600b5490565b82111561140f576040517f4d5e5fb300000000000000000000000000000000000000000000000000000000815260040160405180910390fd5b600061141a83611ff4565b61142384610bde565b60405160200161143492919061307a565b604051602081830303815290604052905061144e81611889565b604051602001610c4691906131bd565b3361146882610f50565b6001600160a01b03161461148f576040516336b6b89560e01b815260040160405180910390fd5b6114988161137e565b6114ce576040517f42cc741200000000000000000000000000000000000000000000000000000000815260040160405180910390fd5b60008181526012602052604090205461c4e0906114ea8361108d565b6114f49190613202565b101561152c576040517f5ada9a9900000000000000000000000000000000000000000000000000000000815260040160405180910390fd5b60008181526011602052604090205461154a9061ffff166001613215565b6000828152601160205260409020805461ffff191661ffff929092169190911790556115758161108d565b60009182526012602052604090912055565b61158f611c60565b601480546001600160a01b0319166001600160a01b0392909216919091179055565b6112a9611c60565b6115c1611c60565b600e55565b6115ce611c60565b6001600160a01b03811661164a5760405162461bcd60e51b815260206004820152602660248201527f4f776e61626c653a206e6577206f776e657220697320746865207a65726f206160448201527f64647265737300000000000000000000000000000000000000000000000000006064820152608401610b38565b610e6481611cba565b60008181526013602052604081205463ffffffff16810361175b57600061167b601084613066565b61168690600a613237565b6040805160608101825261ffff83811682526000602083018181528385018281529451631b21034b60e31b815293518316600485015251821660248401529251166044820152603c606482015291925090735FbDB2315678afecb367f032d93F642f64180aa39063d9081a5890608401606060405180830381865af4158015611713573d6000803e3d6000fd5b505050506040513d601f19601f82011682018060405250810190611737919061324e565b6000015190508061ffff1660108361ffff1663ffffffff16901b1792505050919050565b5060009081526013602052604090205463ffffffff1690565b919050565b60006001600160e01b031982167f780e9d630000000000000000000000000000000000000000000000000000000014806109e957506109e982612094565b6000818152600260205260409020546001600160a01b0316610e645760405162461bcd60e51b815260206004820152601860248201527f4552433732313a20696e76616c696420746f6b656e20494400000000000000006044820152606401610b38565b600081815260046020526040902080546001600160a01b0319166001600160a01b038416908117909155819061185082610f50565b6001600160a01b03167f8c5be1e5ebec7d5bd14f71427d1e84f3dd0314c0f7b2291e5b200ac8c7c3b92560405160405180910390a45050565b606081516000036118a857505060408051602081019091526000815290565b600060405180606001604052806040815260200161332660409139905060006003845160026118d79190612e4f565b6118e19190613052565b6118ec906004613237565b67ffffffffffffffff81111561190457611904612c0c565b6040519080825280601f01601f19166020018201604052801561192e576020820181803683370190505b509050600182016020820185865187015b8082101561199a576003820191508151603f8160121c168501518453600184019350603f81600c1c168501518453600184019350603f8160061c168501518453600184019350603f811685015184535060018301925061193f565b50506003865106600181146119b657600281146119c9576119d1565b603d6001830353603d60028303536119d1565b603d60018303535b509195945050505050565b6000806119e883610f50565b9050806001600160a01b0316846001600160a01b03161480611a2f57506001600160a01b0380821660009081526005602090815260408083209388168352929052205460ff165b8061126f5750836001600160a01b0316611a4884610a81565b6001600160a01b031614949350505050565b826001600160a01b0316611a6d82610f50565b6001600160a01b031614611ad15760405162461bcd60e51b815260206004820152602560248201527f4552433732313a207472616e736665722066726f6d20696e636f72726563742060448201526437bbb732b960d91b6064820152608401610b38565b6001600160a01b038216611b4c5760405162461bcd60e51b8152602060048201526024808201527f4552433732313a207472616e7366657220746f20746865207a65726f2061646460448201527f72657373000000000000000000000000000000000000000000000000000000006064820152608401610b38565b611b59838383600161212f565b826001600160a01b0316611b6c82610f50565b6001600160a01b031614611bd05760405162461bcd60e51b815260206004820152602560248201527f4552433732313a207472616e736665722066726f6d20696e636f72726563742060448201526437bbb732b960d91b6064820152608401610b38565b600081815260046020908152604080832080546001600160a01b03199081169091556001600160a01b0387811680865260038552838620805460001901905590871680865283862080546001019055868652600290945282852080549092168417909155905184937fddf252ad1be2c89b69c2b068fc378daa952ba7f163c4a11628f55a4df523b3ef91a4505050565b600a546001600160a01b0316331461106e5760405162461bcd60e51b815260206004820181905260248201527f4f776e61626c653a2063616c6c6572206973206e6f7420746865206f776e65726044820152606401610b38565b600a80546001600160a01b038381166001600160a01b0319831681179093556040519116919082907f8be0079c531659141344cd1fd0a4f28419497f9722a3daafe3b4186f6b6457e090600090a35050565b816001600160a01b0316836001600160a01b031603611d6d5760405162461bcd60e51b815260206004820152601960248201527f4552433732313a20617070726f766520746f2063616c6c6572000000000000006044820152606401610b38565b6001600160a01b03838116600081815260056020908152604080832094871680845294825291829020805460ff191686151590811790915591519182527f17307eab39ab6107e8899845ad3d59bd9653f200f220920489ca2b5937696c31910160405180910390a3505050565b600c54600b5410611e17576040517fd05cb60900000000000000000000000000000000000000000000000000000000815260040160405180910390fd5b611e25600b80546001019055565b6000611e30600b5490565b6000818152601060205260408120805463ffffffff191663ffffffff888116919091179091559192509084169003611f4b576000611e6f601083613066565b611e7a90600a613237565b6040805160608101825261ffff83811682526000602083018181528385018281529451631b21034b60e31b815293518316600485015251821660248401529251166044820152603c606482015291925090735FbDB2315678afecb367f032d93F642f64180aa39063d9081a5890608401606060405180830381865af4158015611f07573d6000803e3d6000fd5b505050506040513d601f19601f82011682018060405250810190611f2b919061324e565b6000015190508061ffff1660108361ffff1663ffffffff16901b17945050505b6000818152601360205260409020805463ffffffff191663ffffffff8516179055611378828261213b565b611f81848484611a5a565b611f8d84848484612155565b6113785760405162461bcd60e51b815260206004820152603260248201527f4552433732313a207472616e7366657220746f206e6f6e20455243373231526560448201527131b2b4bb32b91034b6b83632b6b2b73a32b960711b6064820152608401610b38565b606060006120018361229e565b600101905060008167ffffffffffffffff81111561202157612021612c0c565b6040519080825280601f01601f19166020018201604052801561204b576020820181803683370190505b5090508181016020015b600019017f3031323334353637383961626364656600000000000000000000000000000000600a86061a8153600a850494508461205557509392505050565b60006001600160e01b031982167f80ac58cd0000000000000000000000000000000000000000000000000000000014806120f757506001600160e01b031982167f5b5e139f00000000000000000000000000000000000000000000000000000000145b806109e957507f01ffc9a7000000000000000000000000000000000000000000000000000000006001600160e01b03198316146109e9565b61137884848484612380565b6112828282604051806020016040528060008152506124c8565b60006001600160a01b0384163b1561229657604051630a85bd0160e11b81526001600160a01b0385169063150b7a02906121999033908990889088906004016132c0565b6020604051808303816000875af19250505080156121d4575060408051601f3d908101601f191682019092526121d1918101906132f2565b60015b61227c573d808015612202576040519150601f19603f3d011682016040523d82523d6000602084013e612207565b606091505b5080516000036122745760405162461bcd60e51b815260206004820152603260248201527f4552433732313a207472616e7366657220746f206e6f6e20455243373231526560448201527131b2b4bb32b91034b6b83632b6b2b73a32b960711b6064820152608401610b38565b805181602001fd5b6001600160e01b031916630a85bd0160e11b14905061126f565b50600161126f565b6000807a184f03e93ff9f4daa797ed6e38ed64bf6a1f01000000000000000083106122e7577a184f03e93ff9f4daa797ed6e38ed64bf6a1f010000000000000000830492506040015b6d04ee2d6d415b85acef81000000008310612313576d04ee2d6d415b85acef8100000000830492506020015b662386f26fc10000831061233157662386f26fc10000830492506010015b6305f5e1008310612349576305f5e100830492506008015b612710831061235d57612710830492506004015b6064831061236f576064830492506002015b600a83106109e95760010192915050565b61238c84848484612546565b60018111156124035760405162461bcd60e51b815260206004820152603560248201527f455243373231456e756d657261626c653a20636f6e736563757469766520747260448201527f616e7366657273206e6f7420737570706f7274656400000000000000000000006064820152608401610b38565b816001600160a01b03851661245f5761245a81600880546000838152600960205260408120829055600182018355919091527ff3f7a9fe364faab93b216da50a3214154f22a0a2b415b23a84c8169e8b636ee30155565b612482565b836001600160a01b0316856001600160a01b0316146124825761248285826125ce565b6001600160a01b03841661249e576124998161266b565b6124c1565b846001600160a01b0316846001600160a01b0316146124c1576124c1848261271a565b5050505050565b6124d2838361275e565b6124df6000848484612155565b610bd95760405162461bcd60e51b815260206004820152603260248201527f4552433732313a207472616e7366657220746f206e6f6e20455243373231526560448201527131b2b4bb32b91034b6b83632b6b2b73a32b960711b6064820152608401610b38565b6001811115611378576001600160a01b0384161561258c576001600160a01b03841660009081526003602052604081208054839290612586908490613202565b90915550505b6001600160a01b03831615611378576001600160a01b038316600090815260036020526040812080548392906125c3908490612e4f565b909155505050505050565b600060016125db84610fc2565b6125e59190613202565b600083815260076020526040902054909150808214612638576001600160a01b03841660009081526006602090815260408083208584528252808320548484528184208190558352600790915290208190555b5060009182526007602090815260408084208490556001600160a01b039094168352600681528383209183525290812055565b60085460009061267d90600190613202565b600083815260096020526040812054600880549394509092849081106126a5576126a5612deb565b9060005260206000200154905080600883815481106126c6576126c6612deb565b60009182526020808320909101929092558281526009909152604080822084905585825281205560088054806126fe576126fe61330f565b6001900381819060005260206000200160009055905550505050565b600061272583610fc2565b6001600160a01b039093166000908152600660209081526040808320868452825280832085905593825260079052919091209190915550565b6001600160a01b0382166127b45760405162461bcd60e51b815260206004820181905260248201527f4552433732313a206d696e7420746f20746865207a65726f20616464726573736044820152606401610b38565b6000818152600260205260409020546001600160a01b0316156128195760405162461bcd60e51b815260206004820152601c60248201527f4552433732313a20746f6b656e20616c7265616479206d696e746564000000006044820152606401610b38565b61282760008383600161212f565b6000818152600260205260409020546001600160a01b03161561288c5760405162461bcd60e51b815260206004820152601c60248201527f4552433732313a20746f6b656e20616c7265616479206d696e746564000000006044820152606401610b38565b6001600160a01b038216600081815260036020908152604080832080546001019055848352600290915280822080546001600160a01b0319168417905551839291907fddf252ad1be2c89b69c2b068fc378daa952ba7f163c4a11628f55a4df523b3ef908290a45050565b6001600160e01b031981168114610e6457600080fd5b60006020828403121561291f57600080fd5b81356113c4816128f7565b60005b8381101561294557818101518382015260200161292d565b50506000910152565b6000815180845261296681602086016020860161292a565b601f01601f19169290920160200192915050565b6020815260006113c4602083018461294e565b60006020828403121561299f57600080fd5b5035919050565b80356001600160a01b038116811461177457600080fd5b600080604083850312156129d057600080fd5b6129d9836129a6565b946020939093013593505050565b6000806000606084860312156129fc57600080fd5b612a05846129a6565b9250612a13602085016129a6565b9150604084013590509250925092565b60008060208385031215612a3657600080fd5b823567ffffffffffffffff80821115612a4e57600080fd5b818501915085601f830112612a6257600080fd5b813581811115612a7157600080fd5b8660208260051b8501011115612a8657600080fd5b60209290920196919550909350505050565b803563ffffffff8116811461177457600080fd5b803560ff8116811461177457600080fd5b60008060408385031215612ad057600080fd5b612ad983612a98565b9150612ae760208401612aac565b90509250929050565b600060208284031215612b0257600080fd5b6113c4826129a6565b8015158114610e6457600080fd5b60008060008060808587031215612b2f57600080fd5b8435935060208501359250612b4660408601612aac565b91506060850135612b5681612b0b565b939692955090935050565b60008060408385031215612b7457600080fd5b612b7d836129a6565b91506020830135612b8d81612b0b565b809150509250929050565b600060208284031215612baa57600080fd5b6113c482612a98565b61ffff81168114610e6457600080fd5b600080600060608486031215612bd857600080fd5b612be184612a98565b92506020840135612bf181612bb3565b91506040840135612c0181612bb3565b809150509250925092565b634e487b7160e01b600052604160045260246000fd5b604051601f8201601f1916810167ffffffffffffffff81118282101715612c4b57612c4b612c0c565b604052919050565b600067ffffffffffffffff821115612c6d57612c6d612c0c565b50601f01601f191660200190565b60008060008060808587031215612c9157600080fd5b612c9a856129a6565b9350612ca8602086016129a6565b925060408501359150606085013567ffffffffffffffff811115612ccb57600080fd5b8501601f81018713612cdc57600080fd5b8035612cef612cea82612c53565b612c22565b818152886020838501011115612d0457600080fd5b8160208401602083013760006020838301015280935050505092959194509250565b60008060408385031215612d3957600080fd5b612d42836129a6565b9150612ae7602084016129a6565b600181811c90821680612d6457607f821691505b602082108103612d8457634e487b7160e01b600052602260045260246000fd5b50919050565b60008251612d9c81846020870161292a565b9190910192915050565b7f646174613a696d6167652f7376672b786d6c3b6261736536342c000000000000815260008251612dde81601a85016020870161292a565b91909101601a0192915050565b634e487b7160e01b600052603260045260246000fd5b634e487b7160e01b600052601160045260246000fd5b600060018201612e2957612e29612e01565b5060010190565b600060ff821660ff8103612e4657612e46612e01565b60010192915050565b808201808211156109e9576109e9612e01565b600060208284031215612e7457600080fd5b81516113c481612b0b565b805161177481612bb3565b6000610100808385031215612e9e57600080fd5b6040519081019067ffffffffffffffff82118183101715612ec157612ec1612c0c565b816040528351815260208401519150612ed982612bb3565b816020820152612eeb60408501612e7f565b6040820152606084015160608201526080840151608082015260a084015160a082015260c084015160c082015260e084015160e0820152809250505092915050565b60006101808201905086518252602087015161ffff80821660208501528060408a01511660408501525050606087015160608301526080870151608083015260a087015160a083015260c087015160c083015260e087015160e083015285610100830152612fa061012083018615159052565b60ff84166101408301526001600160a01b0383166101608301525b9695505050505050565b600060208284031215612fd757600080fd5b815167ffffffffffffffff811115612fee57600080fd5b8201601f81018413612fff57600080fd5b805161300d612cea82612c53565b81815285602083850101111561302257600080fd5b61303382602083016020860161292a565b95945050505050565b634e487b7160e01b600052601260045260246000fd5b6000826130615761306161303c565b500490565b6000826130755761307561303c565b500690565b7f7b0000000000000000000000000000000000000000000000000000000000000081527f226e616d65223a2022636861696e656c6c6174696f6e202300000000000000006001820152600083516130d881601985016020880161292a565b7f222c0000000000000000000000000000000000000000000000000000000000006019918401918201527f226465736372697074696f6e223a2022636861696e656c6c6174696f6e222c00601b8201527f22696d616765223a202200000000000000000000000000000000000000000000603a820152835161316181604484016020880161292a565b7f2200000000000000000000000000000000000000000000000000000000000000604492909101918201527f7d000000000000000000000000000000000000000000000000000000000000006045820152604601949350505050565b7f646174613a6170706c69636174696f6e2f6a736f6e3b6261736536342c0000008152600082516131f581601d85016020870161292a565b91909101601d0192915050565b818103818111156109e9576109e9612e01565b61ffff81811683821601908082111561323057613230612e01565b5092915050565b80820281158282048414176109e9576109e9612e01565b60006060828403121561326057600080fd5b6040516060810181811067ffffffffffffffff8211171561328357613283612c0c565b604052825161329181612bb3565b815260208301516132a181612bb3565b602082015260408301516132b481612bb3565b60408201529392505050565b60006001600160a01b03808716835280861660208401525083604083015260806060830152612fbb608083018461294e565b60006020828403121561330457600080fd5b81516113c4816128f7565b634e487b7160e01b600052603160045260246000fdfe4142434445464748494a4b4c4d4e4f505152535455565758595a6162636465666768696a6b6c6d6e6f707172737475767778797a303132333435363738392b2fa26469706673582212200bdb2c19ef5c24cd290f818bdfcc3e67dd05b60590f00403d2dac482301bd25b64736f6c63430008120033",
  "deployedBytecode": "0x6080604052600436106103135760003560e01c80638da5cb5b1161019a578063c1b7fa34116100e1578063dbea4da71161008a578063ee7e418b11610064578063ee7e418b1461097e578063f2fde38b1461099e578063f3119682146109be57600080fd5b8063dbea4da7146108e8578063e01373b114610908578063e985e9c51461093557600080fd5b8063cbcb0a7a116100bb578063cbcb0a7a14610892578063d5abeb01146108b2578063d9be4145146108c857600080fd5b8063c1b7fa341461083f578063c370062014610852578063c87b56dd1461087257600080fd5b8063a22cb46511610143578063b88d4fde1161011d578063b88d4fde146107d6578063bd11f69d146107f6578063bdb4b8481461082957600080fd5b8063a22cb46514610790578063a71bbebe146107b0578063b7438f0d146107c357600080fd5b80639665e720116101745780639665e7201461070c5780639e281a98146107505780639f03811f1461077057600080fd5b80638da5cb5b1461069157806394688c66146106af57806395d89b41146106f757600080fd5b80633ccfd60b1161025e57806370a082311161020757806379454440116101e1578063794544401461063b5780638545f4ea146106515780638850504a1461067157600080fd5b806370a08231146105f1578063715018a614610611578063771282f61461062657600080fd5b806356d3163d1161023857806356d3163d146105915780636352211e146105b15780636f8b44b0146105d157600080fd5b80633ccfd60b1461053c57806342842e0e146105515780634f6ccce71461057157600080fd5b806323b872dd116102c057806332fdf2d71161029a57806332fdf2d71461046857806334e80ea314610488578063373e4e461461052957600080fd5b806323b872dd146104085780632f745c5914610428578063310bd74b1461044857600080fd5b8063095ea7b3116102f1578063095ea7b3146103a75780630daefed5146103c957806318160ddd146103e957600080fd5b806301ffc9a71461031857806306fdde031461034d578063081812fc1461036f575b600080fd5b34801561032457600080fd5b5061033861033336600461290d565b6109de565b60405190151581526020015b60405180910390f35b34801561035957600080fd5b506103626109ef565b604051610344919061297a565b34801561037b57600080fd5b5061038f61038a36600461298d565b610a81565b6040516001600160a01b039091168152602001610344565b3480156103b357600080fd5b506103c76103c23660046129bd565b610aa8565b005b3480156103d557600080fd5b506103626103e436600461298d565b610bde565b3480156103f557600080fd5b506008545b604051908152602001610344565b34801561041457600080fd5b506103c76104233660046129e7565b610c5d565b34801561043457600080fd5b506103fa6104433660046129bd565b610cd4565b34801561045457600080fd5b506103c761046336600461298d565b610d7c565b34801561047457600080fd5b506103c7610483366004612a23565b610dc6565b34801561049457600080fd5b506104e76104a336600461298d565b600f602052600090815260409020805460018201546002830154600384015460048501546005860154600690960154949561ffff8086169662010000909604169488565b6040805198895261ffff97881660208a015295909616948701949094526060860192909252608085015260a084015260c083015260e082015261010001610344565b6103c7610537366004612abd565b610e04565b34801561054857600080fd5b506103c7610e30565b34801561055d57600080fd5b506103c761056c3660046129e7565b610e67565b34801561057d57600080fd5b506103fa61058c36600461298d565b610e82565b34801561059d57600080fd5b506103c76105ac366004612af0565b610f26565b3480156105bd57600080fd5b5061038f6105cc36600461298d565b610f50565b3480156105dd57600080fd5b506103c76105ec36600461298d565b610fb5565b3480156105fd57600080fd5b506103fa61060c366004612af0565b610fc2565b34801561061d57600080fd5b506103c761105c565b34801561063257600080fd5b506103fa611070565b34801561064757600080fd5b506103fa600e5481565b34801561065d57600080fd5b506103c761066c36600461298d565b611080565b34801561067d57600080fd5b506103fa61068c36600461298d565b61108d565b34801561069d57600080fd5b50600a546001600160a01b031661038f565b3480156106bb57600080fd5b506106e26106ca36600461298d565b60106020526000908152604090205463ffffffff1681565b60405163ffffffff9091168152602001610344565b34801561070357600080fd5b506103626110ac565b34801561071857600080fd5b5061073d61072736600461298d565b60116020526000908152604090205461ffff1681565b60405161ffff9091168152602001610344565b34801561075c57600080fd5b506103c761076b3660046129bd565b6110bb565b34801561077c57600080fd5b5061036261078b366004612b19565b61114d565b34801561079c57600080fd5b506103c76107ab366004612b61565b611277565b6103c76107be366004612b98565b611286565b6103c76107d1366004612bc3565b6112b5565b3480156107e257600080fd5b506103c76107f1366004612c7b565b611300565b34801561080257600080fd5b506106e261081136600461298d565b60136020526000908152604090205463ffffffff1681565b34801561083557600080fd5b506103fa600d5481565b34801561084b57600080fd5b50426103fa565b34801561085e57600080fd5b5061033861086d36600461298d565b61137e565b34801561087e57600080fd5b5061036261088d36600461298d565b6113cb565b34801561089e57600080fd5b506103c76108ad36600461298d565b61145e565b3480156108be57600080fd5b506103fa600c5481565b3480156108d457600080fd5b506103c76108e3366004612af0565b611587565b3480156108f457600080fd5b506103c7610903366004612b98565b6115b1565b34801561091457600080fd5b506103fa61092336600461298d565b60126020526000908152604090205481565b34801561094157600080fd5b50610338610950366004612d26565b6001600160a01b03918216600090815260056020908152604080832093909416825291909152205460ff1690565b34801561098a57600080fd5b506103c761099936600461298d565b6115b9565b3480156109aa57600080fd5b506103c76109b9366004612af0565b6115c6565b3480156109ca57600080fd5b506106e26109d936600461298d565b611653565b60006109e982611779565b92915050565b6060600080546109fe90612d50565b80601f0160208091040260200160405190810160405280929190818152602001828054610a2a90612d50565b8015610a775780601f10610a4c57610100808354040283529160200191610a77565b820191906000526020600020905b815481529060010190602001808311610a5a57829003601f168201915b5050505050905090565b6000610a8c826117b7565b506000908152600460205260409020546001600160a01b031690565b6000610ab382610f50565b9050806001600160a01b0316836001600160a01b031603610b415760405162461bcd60e51b815260206004820152602160248201527f4552433732313a20617070726f76616c20746f2063757272656e74206f776e6560448201527f720000000000000000000000000000000000000000000000000000000000000060648201526084015b60405180910390fd5b336001600160a01b0382161480610b5d5750610b5d8133610950565b610bcf5760405162461bcd60e51b815260206004820152603d60248201527f4552433732313a20617070726f76652063616c6c6572206973206e6f7420746f60448201527f6b656e206f776e6572206f7220617070726f76656420666f7220616c6c0000006064820152608401610b38565b610bd9838361181b565b505050565b60008181526011602052604081205460609190610c0c90849061ffff166001610c068361137e565b1561114d565b604051602001610c1c9190612d8a565b6040516020818303038152906040529050610c3681611889565b604051602001610c469190612da6565b604051602081830303815290604052915050919050565b610c6733826119dc565b610cc95760405162461bcd60e51b815260206004820152602d60248201527f4552433732313a2063616c6c6572206973206e6f7420746f6b656e206f776e6560448201526c1c881bdc88185c1c1c9bdd9959609a1b6064820152608401610b38565b610bd9838383611a5a565b6000610cdf83610fc2565b8210610d535760405162461bcd60e51b815260206004820152602b60248201527f455243373231456e756d657261626c653a206f776e657220696e646578206f7560448201527f74206f6620626f756e64730000000000000000000000000000000000000000006064820152608401610b38565b506001600160a01b03919091166000908152600660209081526040808320938352929052205490565b33610d8682610f50565b6001600160a01b031614610dad576040516336b6b89560e01b815260040160405180910390fd5b6000908152601160205260409020805461ffff19169055565b60005b81811015610bd957610df2838383818110610de657610de6612deb565b9050602002013561145e565b80610dfc81612e17565b915050610dc9565b60005b8160ff168160ff161015610bd957610e1e83611286565b80610e2881612e30565b915050610e07565b610e38611c60565b60405133904780156108fc02916000818181858888f19350505050158015610e64573d6000803e3d6000fd5b50565b610bd983838360405180602001604052806000815250611300565b6000610e8d60085490565b8210610f015760405162461bcd60e51b815260206004820152602c60248201527f455243373231456e756d657261626c653a20676c6f62616c20696e646578206f60448201527f7574206f6620626f756e647300000000000000000000000000000000000000006064820152608401610b38565b60088281548110610f1457610f14612deb565b90600052602060002001549050919050565b610f2e611c60565b601580546001600160a01b0319166001600160a01b0392909216919091179055565b6000818152600260205260408120546001600160a01b0316806109e95760405162461bcd60e51b815260206004820152601860248201527f4552433732313a20696e76616c696420746f6b656e20494400000000000000006044820152606401610b38565b610fbd611c60565b600c55565b60006001600160a01b0382166110405760405162461bcd60e51b815260206004820152602960248201527f4552433732313a2061646472657373207a65726f206973206e6f74206120766160448201527f6c6964206f776e657200000000000000000000000000000000000000000000006064820152608401610b38565b506001600160a01b031660009081526003602052604090205490565b611064611c60565b61106e6000611cba565b565b600061107b600b5490565b905090565b611088611c60565b600d55565b6000818152601060205260408120546109e99063ffffffff1642612e4f565b6060600180546109fe90612d50565b6110c3611c60565b6040517fa9059cbb000000000000000000000000000000000000000000000000000000008152336004820152602481018290526001600160a01b0383169063a9059cbb906044016020604051808303816000875af1158015611129573d6000803e3d6000fd5b505050506040513d601f19601f82011682018060405250810190610bd99190612e62565b6015546060906001600160a01b031663428f5eb673__$11e21e6c56ca563b85c74e3fd3a08242f9$__6380b1b86c8861118581611653565b6040516001600160e01b031960e085901b168152600481019290925263ffffffff16602482015260440161010060405180830381865af41580156111cd573d6000803e3d6000fd5b505050506040513d601f19601f820116820180604052508101906111f19190612e8a565b6014546040516001600160e01b031960e085901b1681526112279291899188918a916001600160a01b0390911690600401612f2d565b600060405180830381865afa158015611244573d6000803e3d6000fd5b505050506040513d6000823e601f3d908101601f1916820160405261126c9190810190612fc5565b90505b949350505050565b611282338383611d0c565b5050565b600d543410156112a957604051633d8f14cf60e21b815260040160405180910390fd5b610e6481600033611dda565b600e54600d546112c59190612e4f565b3410156112e557604051633d8f14cf60e21b815260040160405180910390fd5b610bd98363ffff0000601085901b1661ffff84161733611dda565b61130a33836119dc565b61136c5760405162461bcd60e51b815260206004820152602d60248201527f4552433732313a2063616c6c6572206973206e6f7420746f6b656e206f776e6560448201526c1c881bdc88185c1c1c9bdd9959609a1b6064820152608401610b38565b61137884848484611f76565b50505050565b6000806018603c8061138f8661108d565b6113999190613052565b6113a39190613052565b6113ad9190613066565b905060068160ff1610806113c4575060128160ff16115b9392505050565b60606113d6600b5490565b82111561140f576040517f4d5e5fb300000000000000000000000000000000000000000000000000000000815260040160405180910390fd5b600061141a83611ff4565b61142384610bde565b60405160200161143492919061307a565b604051602081830303815290604052905061144e81611889565b604051602001610c4691906131bd565b3361146882610f50565b6001600160a01b03161461148f576040516336b6b89560e01b815260040160405180910390fd5b6114988161137e565b6114ce576040517f42cc741200000000000000000000000000000000000000000000000000000000815260040160405180910390fd5b60008181526012602052604090205461c4e0906114ea8361108d565b6114f49190613202565b101561152c576040517f5ada9a9900000000000000000000000000000000000000000000000000000000815260040160405180910390fd5b60008181526011602052604090205461154a9061ffff166001613215565b6000828152601160205260409020805461ffff191661ffff929092169190911790556115758161108d565b60009182526012602052604090912055565b61158f611c60565b601480546001600160a01b0319166001600160a01b0392909216919091179055565b6112a9611c60565b6115c1611c60565b600e55565b6115ce611c60565b6001600160a01b03811661164a5760405162461bcd60e51b815260206004820152602660248201527f4f776e61626c653a206e6577206f776e657220697320746865207a65726f206160448201527f64647265737300000000000000000000000000000000000000000000000000006064820152608401610b38565b610e6481611cba565b60008181526013602052604081205463ffffffff16810361175b57600061167b601084613066565b61168690600a613237565b6040805160608101825261ffff83811682526000602083018181528385018281529451631b21034b60e31b815293518316600485015251821660248401529251166044820152603c60648201529192509073__$11e21e6c56ca563b85c74e3fd3a08242f9$__9063d9081a5890608401606060405180830381865af4158015611713573d6000803e3d6000fd5b505050506040513d601f19601f82011682018060405250810190611737919061324e565b6000015190508061ffff1660108361ffff1663ffffffff16901b1792505050919050565b5060009081526013602052604090205463ffffffff1690565b919050565b60006001600160e01b031982167f780e9d630000000000000000000000000000000000000000000000000000000014806109e957506109e982612094565b6000818152600260205260409020546001600160a01b0316610e645760405162461bcd60e51b815260206004820152601860248201527f4552433732313a20696e76616c696420746f6b656e20494400000000000000006044820152606401610b38565b600081815260046020526040902080546001600160a01b0319166001600160a01b038416908117909155819061185082610f50565b6001600160a01b03167f8c5be1e5ebec7d5bd14f71427d1e84f3dd0314c0f7b2291e5b200ac8c7c3b92560405160405180910390a45050565b606081516000036118a857505060408051602081019091526000815290565b600060405180606001604052806040815260200161332660409139905060006003845160026118d79190612e4f565b6118e19190613052565b6118ec906004613237565b67ffffffffffffffff81111561190457611904612c0c565b6040519080825280601f01601f19166020018201604052801561192e576020820181803683370190505b509050600182016020820185865187015b8082101561199a576003820191508151603f8160121c168501518453600184019350603f81600c1c168501518453600184019350603f8160061c168501518453600184019350603f811685015184535060018301925061193f565b50506003865106600181146119b657600281146119c9576119d1565b603d6001830353603d60028303536119d1565b603d60018303535b509195945050505050565b6000806119e883610f50565b9050806001600160a01b0316846001600160a01b03161480611a2f57506001600160a01b0380821660009081526005602090815260408083209388168352929052205460ff165b8061126f5750836001600160a01b0316611a4884610a81565b6001600160a01b031614949350505050565b826001600160a01b0316611a6d82610f50565b6001600160a01b031614611ad15760405162461bcd60e51b815260206004820152602560248201527f4552433732313a207472616e736665722066726f6d20696e636f72726563742060448201526437bbb732b960d91b6064820152608401610b38565b6001600160a01b038216611b4c5760405162461bcd60e51b8152602060048201526024808201527f4552433732313a207472616e7366657220746f20746865207a65726f2061646460448201527f72657373000000000000000000000000000000000000000000000000000000006064820152608401610b38565b611b59838383600161212f565b826001600160a01b0316611b6c82610f50565b6001600160a01b031614611bd05760405162461bcd60e51b815260206004820152602560248201527f4552433732313a207472616e736665722066726f6d20696e636f72726563742060448201526437bbb732b960d91b6064820152608401610b38565b600081815260046020908152604080832080546001600160a01b03199081169091556001600160a01b0387811680865260038552838620805460001901905590871680865283862080546001019055868652600290945282852080549092168417909155905184937fddf252ad1be2c89b69c2b068fc378daa952ba7f163c4a11628f55a4df523b3ef91a4505050565b600a546001600160a01b0316331461106e5760405162461bcd60e51b815260206004820181905260248201527f4f776e61626c653a2063616c6c6572206973206e6f7420746865206f776e65726044820152606401610b38565b600a80546001600160a01b038381166001600160a01b0319831681179093556040519116919082907f8be0079c531659141344cd1fd0a4f28419497f9722a3daafe3b4186f6b6457e090600090a35050565b816001600160a01b0316836001600160a01b031603611d6d5760405162461bcd60e51b815260206004820152601960248201527f4552433732313a20617070726f766520746f2063616c6c6572000000000000006044820152606401610b38565b6001600160a01b03838116600081815260056020908152604080832094871680845294825291829020805460ff191686151590811790915591519182527f17307eab39ab6107e8899845ad3d59bd9653f200f220920489ca2b5937696c31910160405180910390a3505050565b600c54600b5410611e17576040517fd05cb60900000000000000000000000000000000000000000000000000000000815260040160405180910390fd5b611e25600b80546001019055565b6000611e30600b5490565b6000818152601060205260408120805463ffffffff191663ffffffff888116919091179091559192509084169003611f4b576000611e6f601083613066565b611e7a90600a613237565b6040805160608101825261ffff83811682526000602083018181528385018281529451631b21034b60e31b815293518316600485015251821660248401529251166044820152603c60648201529192509073__$11e21e6c56ca563b85c74e3fd3a08242f9$__9063d9081a5890608401606060405180830381865af4158015611f07573d6000803e3d6000fd5b505050506040513d601f19601f82011682018060405250810190611f2b919061324e565b6000015190508061ffff1660108361ffff1663ffffffff16901b17945050505b6000818152601360205260409020805463ffffffff191663ffffffff8516179055611378828261213b565b611f81848484611a5a565b611f8d84848484612155565b6113785760405162461bcd60e51b815260206004820152603260248201527f4552433732313a207472616e7366657220746f206e6f6e20455243373231526560448201527131b2b4bb32b91034b6b83632b6b2b73a32b960711b6064820152608401610b38565b606060006120018361229e565b600101905060008167ffffffffffffffff81111561202157612021612c0c565b6040519080825280601f01601f19166020018201604052801561204b576020820181803683370190505b5090508181016020015b600019017f3031323334353637383961626364656600000000000000000000000000000000600a86061a8153600a850494508461205557509392505050565b60006001600160e01b031982167f80ac58cd0000000000000000000000000000000000000000000000000000000014806120f757506001600160e01b031982167f5b5e139f00000000000000000000000000000000000000000000000000000000145b806109e957507f01ffc9a7000000000000000000000000000000000000000000000000000000006001600160e01b03198316146109e9565b61137884848484612380565b6112828282604051806020016040528060008152506124c8565b60006001600160a01b0384163b1561229657604051630a85bd0160e11b81526001600160a01b0385169063150b7a02906121999033908990889088906004016132c0565b6020604051808303816000875af19250505080156121d4575060408051601f3d908101601f191682019092526121d1918101906132f2565b60015b61227c573d808015612202576040519150601f19603f3d011682016040523d82523d6000602084013e612207565b606091505b5080516000036122745760405162461bcd60e51b815260206004820152603260248201527f4552433732313a207472616e7366657220746f206e6f6e20455243373231526560448201527131b2b4bb32b91034b6b83632b6b2b73a32b960711b6064820152608401610b38565b805181602001fd5b6001600160e01b031916630a85bd0160e11b14905061126f565b50600161126f565b6000807a184f03e93ff9f4daa797ed6e38ed64bf6a1f01000000000000000083106122e7577a184f03e93ff9f4daa797ed6e38ed64bf6a1f010000000000000000830492506040015b6d04ee2d6d415b85acef81000000008310612313576d04ee2d6d415b85acef8100000000830492506020015b662386f26fc10000831061233157662386f26fc10000830492506010015b6305f5e1008310612349576305f5e100830492506008015b612710831061235d57612710830492506004015b6064831061236f576064830492506002015b600a83106109e95760010192915050565b61238c84848484612546565b60018111156124035760405162461bcd60e51b815260206004820152603560248201527f455243373231456e756d657261626c653a20636f6e736563757469766520747260448201527f616e7366657273206e6f7420737570706f7274656400000000000000000000006064820152608401610b38565b816001600160a01b03851661245f5761245a81600880546000838152600960205260408120829055600182018355919091527ff3f7a9fe364faab93b216da50a3214154f22a0a2b415b23a84c8169e8b636ee30155565b612482565b836001600160a01b0316856001600160a01b0316146124825761248285826125ce565b6001600160a01b03841661249e576124998161266b565b6124c1565b846001600160a01b0316846001600160a01b0316146124c1576124c1848261271a565b5050505050565b6124d2838361275e565b6124df6000848484612155565b610bd95760405162461bcd60e51b815260206004820152603260248201527f4552433732313a207472616e7366657220746f206e6f6e20455243373231526560448201527131b2b4bb32b91034b6b83632b6b2b73a32b960711b6064820152608401610b38565b6001811115611378576001600160a01b0384161561258c576001600160a01b03841660009081526003602052604081208054839290612586908490613202565b90915550505b6001600160a01b03831615611378576001600160a01b038316600090815260036020526040812080548392906125c3908490612e4f565b909155505050505050565b600060016125db84610fc2565b6125e59190613202565b600083815260076020526040902054909150808214612638576001600160a01b03841660009081526006602090815260408083208584528252808320548484528184208190558352600790915290208190555b5060009182526007602090815260408084208490556001600160a01b039094168352600681528383209183525290812055565b60085460009061267d90600190613202565b600083815260096020526040812054600880549394509092849081106126a5576126a5612deb565b9060005260206000200154905080600883815481106126c6576126c6612deb565b60009182526020808320909101929092558281526009909152604080822084905585825281205560088054806126fe576126fe61330f565b6001900381819060005260206000200160009055905550505050565b600061272583610fc2565b6001600160a01b039093166000908152600660209081526040808320868452825280832085905593825260079052919091209190915550565b6001600160a01b0382166127b45760405162461bcd60e51b815260206004820181905260248201527f4552433732313a206d696e7420746f20746865207a65726f20616464726573736044820152606401610b38565b6000818152600260205260409020546001600160a01b0316156128195760405162461bcd60e51b815260206004820152601c60248201527f4552433732313a20746f6b656e20616c7265616479206d696e746564000000006044820152606401610b38565b61282760008383600161212f565b6000818152600260205260409020546001600160a01b03161561288c5760405162461bcd60e51b815260206004820152601c60248201527f4552433732313a20746f6b656e20616c7265616479206d696e746564000000006044820152606401610b38565b6001600160a01b038216600081815260036020908152604080832080546001019055848352600290915280822080546001600160a01b0319168417905551839291907fddf252ad1be2c89b69c2b068fc378daa952ba7f163c4a11628f55a4df523b3ef908290a45050565b6001600160e01b031981168114610e6457600080fd5b60006020828403121561291f57600080fd5b81356113c4816128f7565b60005b8381101561294557818101518382015260200161292d565b50506000910152565b6000815180845261296681602086016020860161292a565b601f01601f19169290920160200192915050565b6020815260006113c4602083018461294e565b60006020828403121561299f57600080fd5b5035919050565b80356001600160a01b038116811461177457600080fd5b600080604083850312156129d057600080fd5b6129d9836129a6565b946020939093013593505050565b6000806000606084860312156129fc57600080fd5b612a05846129a6565b9250612a13602085016129a6565b9150604084013590509250925092565b60008060208385031215612a3657600080fd5b823567ffffffffffffffff80821115612a4e57600080fd5b818501915085601f830112612a6257600080fd5b813581811115612a7157600080fd5b8660208260051b8501011115612a8657600080fd5b60209290920196919550909350505050565b803563ffffffff8116811461177457600080fd5b803560ff8116811461177457600080fd5b60008060408385031215612ad057600080fd5b612ad983612a98565b9150612ae760208401612aac565b90509250929050565b600060208284031215612b0257600080fd5b6113c4826129a6565b8015158114610e6457600080fd5b60008060008060808587031215612b2f57600080fd5b8435935060208501359250612b4660408601612aac565b91506060850135612b5681612b0b565b939692955090935050565b60008060408385031215612b7457600080fd5b612b7d836129a6565b91506020830135612b8d81612b0b565b809150509250929050565b600060208284031215612baa57600080fd5b6113c482612a98565b61ffff81168114610e6457600080fd5b600080600060608486031215612bd857600080fd5b612be184612a98565b92506020840135612bf181612bb3565b91506040840135612c0181612bb3565b809150509250925092565b634e487b7160e01b600052604160045260246000fd5b604051601f8201601f1916810167ffffffffffffffff81118282101715612c4b57612c4b612c0c565b604052919050565b600067ffffffffffffffff821115612c6d57612c6d612c0c565b50601f01601f191660200190565b60008060008060808587031215612c9157600080fd5b612c9a856129a6565b9350612ca8602086016129a6565b925060408501359150606085013567ffffffffffffffff811115612ccb57600080fd5b8501601f81018713612cdc57600080fd5b8035612cef612cea82612c53565b612c22565b818152886020838501011115612d0457600080fd5b8160208401602083013760006020838301015280935050505092959194509250565b60008060408385031215612d3957600080fd5b612d42836129a6565b9150612ae7602084016129a6565b600181811c90821680612d6457607f821691505b602082108103612d8457634e487b7160e01b600052602260045260246000fd5b50919050565b60008251612d9c81846020870161292a565b9190910192915050565b7f646174613a696d6167652f7376672b786d6c3b6261736536342c000000000000815260008251612dde81601a85016020870161292a565b91909101601a0192915050565b634e487b7160e01b600052603260045260246000fd5b634e487b7160e01b600052601160045260246000fd5b600060018201612e2957612e29612e01565b5060010190565b600060ff821660ff8103612e4657612e46612e01565b60010192915050565b808201808211156109e9576109e9612e01565b600060208284031215612e7457600080fd5b81516113c481612b0b565b805161177481612bb3565b6000610100808385031215612e9e57600080fd5b6040519081019067ffffffffffffffff82118183101715612ec157612ec1612c0c565b816040528351815260208401519150612ed982612bb3565b816020820152612eeb60408501612e7f565b6040820152606084015160608201526080840151608082015260a084015160a082015260c084015160c082015260e084015160e0820152809250505092915050565b60006101808201905086518252602087015161ffff80821660208501528060408a01511660408501525050606087015160608301526080870151608083015260a087015160a083015260c087015160c083015260e087015160e083015285610100830152612fa061012083018615159052565b60ff84166101408301526001600160a01b0383166101608301525b9695505050505050565b600060208284031215612fd757600080fd5b815167ffffffffffffffff811115612fee57600080fd5b8201601f81018413612fff57600080fd5b805161300d612cea82612c53565b81815285602083850101111561302257600080fd5b61303382602083016020860161292a565b95945050505050565b634e487b7160e01b600052601260045260246000fd5b6000826130615761306161303c565b500490565b6000826130755761307561303c565b500690565b7f7b0000000000000000000000000000000000000000000000000000000000000081527f226e616d65223a2022636861696e656c6c6174696f6e202300000000000000006001820152600083516130d881601985016020880161292a565b7f222c0000000000000000000000000000000000000000000000000000000000006019918401918201527f226465736372697074696f6e223a2022636861696e656c6c6174696f6e222c00601b8201527f22696d616765223a202200000000000000000000000000000000000000000000603a820152835161316181604484016020880161292a565b7f2200000000000000000000000000000000000000000000000000000000000000604492909101918201527f7d000000000000000000000000000000000000000000000000000000000000006045820152604601949350505050565b7f646174613a6170706c69636174696f6e2f6a736f6e3b6261736536342c0000008152600082516131f581601d85016020870161292a565b91909101601d0192915050565b818103818111156109e9576109e9612e01565b61ffff81811683821601908082111561323057613230612e01565b5092915050565b80820281158282048414176109e9576109e9612e01565b60006060828403121561326057600080fd5b6040516060810181811067ffffffffffffffff8211171561328357613283612c0c565b604052825161329181612bb3565b815260208301516132a181612bb3565b602082015260408301516132b481612bb3565b60408201529392505050565b60006001600160a01b03808716835280861660208401525083604083015260806060830152612fbb608083018461294e565b60006020828403121561330457600080fd5b81516113c4816128f7565b634e487b7160e01b600052603160045260246000fdfe4142434445464748494a4b4c4d4e4f505152535455565758595a6162636465666768696a6b6c6d6e6f707172737475767778797a303132333435363738392b2fa26469706673582212200bdb2c19ef5c24cd290f818bdfcc3e67dd05b60590f00403d2dac482301bd25b64736f6c63430008120033",
  "libraries": {
    "Color": "0x5FbDB2315678afecb367f032d93F642f64180aa3"
  },
  "devdoc": {
    "events": {
      "Approval(address,address,uint256)": {
        "details": "Emitted when `owner` enables `approved` to manage the `tokenId` token."
      },
      "ApprovalForAll(address,address,bool)": {
        "details": "Emitted when `owner` enables or disables (`approved`) `operator` to manage all of its assets."
      },
      "Transfer(address,address,uint256)": {
        "details": "Emitted when `tokenId` token is transferred from `from` to `to`."
      }
    },
    "kind": "dev",
    "methods": {
      "approve(address,uint256)": {
        "details": "See {IERC721-approve}."
      },
      "balanceOf(address)": {
        "details": "See {IERC721-balanceOf}."
      },
      "getApproved(uint256)": {
        "details": "See {IERC721-getApproved}."
      },
      "isApprovedForAll(address,address)": {
        "details": "See {IERC721-isApprovedForAll}."
      },
      "name()": {
        "details": "See {IERC721Metadata-name}."
      },
      "owner()": {
        "details": "Returns the address of the current owner."
      },
      "ownerOf(uint256)": {
        "details": "See {IERC721-ownerOf}."
      },
      "renounceOwnership()": {
        "details": "Leaves the contract without owner. It will not be possible to call `onlyOwner` functions anymore. Can only be called by the current owner. NOTE: Renouncing ownership will leave the contract without an owner, thereby removing any functionality that is only available to the owner."
      },
      "safeTransferFrom(address,address,uint256)": {
        "details": "See {IERC721-safeTransferFrom}."
      },
      "safeTransferFrom(address,address,uint256,bytes)": {
        "details": "See {IERC721-safeTransferFrom}."
      },
      "setApprovalForAll(address,bool)": {
        "details": "See {IERC721-setApprovalForAll}."
      },
      "symbol()": {
        "details": "See {IERC721Metadata-symbol}."
      },
      "tokenByIndex(uint256)": {
        "details": "See {IERC721Enumerable-tokenByIndex}."
      },
      "tokenOfOwnerByIndex(address,uint256)": {
        "details": "See {IERC721Enumerable-tokenOfOwnerByIndex}."
      },
      "tokenURI(uint256)": {
        "details": "See {IERC721Metadata-tokenURI}."
      },
      "totalSupply()": {
        "details": "See {IERC721Enumerable-totalSupply}."
      },
      "transferFrom(address,address,uint256)": {
        "details": "See {IERC721-transferFrom}."
      },
      "transferOwnership(address)": {
        "details": "Transfers ownership of the contract to a new account (`newOwner`). Can only be called by the current owner."
      }
    },
    "version": 1
  },
  "userdoc": {
    "kind": "user",
    "methods": {},
    "version": 1
  },
  "storageLayout": {
    "storage": [
      {
        "astId": 3408,
        "contract": "contracts/chainellations/Chainellation.sol:Chainellation",
        "label": "_name",
        "offset": 0,
        "slot": "0",
        "type": "t_string_storage"
      },
      {
        "astId": 3410,
        "contract": "contracts/chainellations/Chainellation.sol:Chainellation",
        "label": "_symbol",
        "offset": 0,
        "slot": "1",
        "type": "t_string_storage"
      },
      {
        "astId": 3414,
        "contract": "contracts/chainellations/Chainellation.sol:Chainellation",
        "label": "_owners",
        "offset": 0,
        "slot": "2",
        "type": "t_mapping(t_uint256,t_address)"
      },
      {
        "astId": 3418,
        "contract": "contracts/chainellations/Chainellation.sol:Chainellation",
        "label": "_balances",
        "offset": 0,
        "slot": "3",
        "type": "t_mapping(t_address,t_uint256)"
      },
      {
        "astId": 3422,
        "contract": "contracts/chainellations/Chainellation.sol:Chainellation",
        "label": "_tokenApprovals",
        "offset": 0,
        "slot": "4",
        "type": "t_mapping(t_uint256,t_address)"
      },
      {
        "astId": 3428,
        "contract": "contracts/chainellations/Chainellation.sol:Chainellation",
        "label": "_operatorApprovals",
        "offset": 0,
        "slot": "5",
        "type": "t_mapping(t_address,t_mapping(t_address,t_bool))"
      },
      {
        "astId": 4476,
        "contract": "contracts/chainellations/Chainellation.sol:Chainellation",
        "label": "_ownedTokens",
        "offset": 0,
        "slot": "6",
        "type": "t_mapping(t_address,t_mapping(t_uint256,t_uint256))"
      },
      {
        "astId": 4480,
        "contract": "contracts/chainellations/Chainellation.sol:Chainellation",
        "label": "_ownedTokensIndex",
        "offset": 0,
        "slot": "7",
        "type": "t_mapping(t_uint256,t_uint256)"
      },
      {
        "astId": 4483,
        "contract": "contracts/chainellations/Chainellation.sol:Chainellation",
        "label": "_allTokens",
        "offset": 0,
        "slot": "8",
        "type": "t_array(t_uint256)dyn_storage"
      },
      {
        "astId": 4487,
        "contract": "contracts/chainellations/Chainellation.sol:Chainellation",
        "label": "_allTokensIndex",
        "offset": 0,
        "slot": "9",
        "type": "t_mapping(t_uint256,t_uint256)"
      },
      {
        "astId": 396,
        "contract": "contracts/chainellations/Chainellation.sol:Chainellation",
        "label": "_owner",
        "offset": 0,
        "slot": "10",
        "type": "t_address"
      },
      {
        "astId": 7219,
        "contract": "contracts/chainellations/Chainellation.sol:Chainellation",
        "label": "_tokenIds",
        "offset": 0,
        "slot": "11",
        "type": "t_struct(Counter)5278_storage"
      },
      {
        "astId": 7222,
        "contract": "contracts/chainellations/Chainellation.sol:Chainellation",
        "label": "maxSupply",
        "offset": 0,
        "slot": "12",
        "type": "t_uint256"
      },
      {
        "astId": 7225,
        "contract": "contracts/chainellations/Chainellation.sol:Chainellation",
        "label": "mintCost",
        "offset": 0,
        "slot": "13",
        "type": "t_uint256"
      },
      {
        "astId": 7228,
        "contract": "contracts/chainellations/Chainellation.sol:Chainellation",
        "label": "customizeCost",
        "offset": 0,
        "slot": "14",
        "type": "t_uint256"
      },
      {
        "astId": 7233,
        "contract": "contracts/chainellations/Chainellation.sol:Chainellation",
        "label": "dnas",
        "offset": 0,
        "slot": "15",
        "type": "t_mapping(t_uint256,t_struct(DNA)6757_storage)"
      },
      {
        "astId": 7237,
        "contract": "contracts/chainellations/Chainellation.sol:Chainellation",
        "label": "timeZoneOffset",
        "offset": 0,
        "slot": "16",
        "type": "t_mapping(t_uint256,t_uint32)"
      },
      {
        "astId": 7241,
        "contract": "contracts/chainellations/Chainellation.sol:Chainellation",
        "label": "gazes",
        "offset": 0,
        "slot": "17",
        "type": "t_mapping(t_uint256,t_uint16)"
      },
      {
        "astId": 7245,
        "contract": "contracts/chainellations/Chainellation.sol:Chainellation",
        "label": "lastGaze",
        "offset": 0,
        "slot": "18",
        "type": "t_mapping(t_uint256,t_uint256)"
      },
      {
        "astId": 7249,
        "contract": "contracts/chainellations/Chainellation.sol:Chainellation",
        "label": "colors",
        "offset": 0,
        "slot": "19",
        "type": "t_mapping(t_uint256,t_uint32)"
      },
      {
        "astId": 7251,
        "contract": "contracts/chainellations/Chainellation.sol:Chainellation",
        "label": "_decorator",
        "offset": 0,
        "slot": "20",
        "type": "t_address"
      },
      {
        "astId": 7254,
        "contract": "contracts/chainellations/Chainellation.sol:Chainellation",
        "label": "_chainellationRenderer",
        "offset": 0,
        "slot": "21",
        "type": "t_contract(IChainellationRenderer)13807"
      }
    ],
    "types": {
      "t_address": {
        "encoding": "inplace",
        "label": "address",
        "numberOfBytes": "20"
      },
      "t_array(t_uint256)dyn_storage": {
        "base": "t_uint256",
        "encoding": "dynamic_array",
        "label": "uint256[]",
        "numberOfBytes": "32"
      },
      "t_bool": {
        "encoding": "inplace",
        "label": "bool",
        "numberOfBytes": "1"
      },
      "t_contract(IChainellationRenderer)13807": {
        "encoding": "inplace",
        "label": "contract IChainellationRenderer",
        "numberOfBytes": "20"
      },
      "t_mapping(t_address,t_bool)": {
        "encoding": "mapping",
        "key": "t_address",
        "label": "mapping(address => bool)",
        "numberOfBytes": "32",
        "value": "t_bool"
      },
      "t_mapping(t_address,t_mapping(t_address,t_bool))": {
        "encoding": "mapping",
        "key": "t_address",
        "label": "mapping(address => mapping(address => bool))",
        "numberOfBytes": "32",
        "value": "t_mapping(t_address,t_bool)"
      },
      "t_mapping(t_address,t_mapping(t_uint256,t_uint256))": {
        "encoding": "mapping",
        "key": "t_address",
        "label": "mapping(address => mapping(uint256 => uint256))",
        "numberOfBytes": "32",
        "value": "t_mapping(t_uint256,t_uint256)"
      },
      "t_mapping(t_address,t_uint256)": {
        "encoding": "mapping",
        "key": "t_address",
        "label": "mapping(address => uint256)",
        "numberOfBytes": "32",
        "value": "t_uint256"
      },
      "t_mapping(t_uint256,t_address)": {
        "encoding": "mapping",
        "key": "t_uint256",
        "label": "mapping(uint256 => address)",
        "numberOfBytes": "32",
        "value": "t_address"
      },
      "t_mapping(t_uint256,t_struct(DNA)6757_storage)": {
        "encoding": "mapping",
        "key": "t_uint256",
        "label": "mapping(uint256 => struct Color.DNA)",
        "numberOfBytes": "32",
        "value": "t_struct(DNA)6757_storage"
      },
      "t_mapping(t_uint256,t_uint16)": {
        "encoding": "mapping",
        "key": "t_uint256",
        "label": "mapping(uint256 => uint16)",
        "numberOfBytes": "32",
        "value": "t_uint16"
      },
      "t_mapping(t_uint256,t_uint256)": {
        "encoding": "mapping",
        "key": "t_uint256",
        "label": "mapping(uint256 => uint256)",
        "numberOfBytes": "32",
        "value": "t_uint256"
      },
      "t_mapping(t_uint256,t_uint32)": {
        "encoding": "mapping",
        "key": "t_uint256",
        "label": "mapping(uint256 => uint32)",
        "numberOfBytes": "32",
        "value": "t_uint32"
      },
      "t_string_storage": {
        "encoding": "bytes",
        "label": "string",
        "numberOfBytes": "32"
      },
      "t_struct(Counter)5278_storage": {
        "encoding": "inplace",
        "label": "struct Counters.Counter",
        "members": [
          {
            "astId": 5277,
            "contract": "contracts/chainellations/Chainellation.sol:Chainellation",
            "label": "_value",
            "offset": 0,
            "slot": "0",
            "type": "t_uint256"
          }
        ],
        "numberOfBytes": "32"
      },
      "t_struct(DNA)6757_storage": {
        "encoding": "inplace",
        "label": "struct Color.DNA",
        "members": [
          {
            "astId": 6742,
            "contract": "contracts/chainellations/Chainellation.sol:Chainellation",
            "label": "tokenId",
            "offset": 0,
            "slot": "0",
            "type": "t_uint256"
          },
          {
            "astId": 6744,
            "contract": "contracts/chainellations/Chainellation.sol:Chainellation",
            "label": "primaryHue",
            "offset": 0,
            "slot": "1",
            "type": "t_uint16"
          },
          {
            "astId": 6746,
            "contract": "contracts/chainellations/Chainellation.sol:Chainellation",
            "label": "secondaryHue",
            "offset": 2,
            "slot": "1",
            "type": "t_uint16"
          },
          {
            "astId": 6748,
            "contract": "contracts/chainellations/Chainellation.sol:Chainellation",
            "label": "starSeed",
            "offset": 0,
            "slot": "2",
            "type": "t_uint256"
          },
          {
            "astId": 6750,
            "contract": "contracts/chainellations/Chainellation.sol:Chainellation",
            "label": "funkSeed",
            "offset": 0,
            "slot": "3",
            "type": "t_uint256"
          },
          {
            "astId": 6752,
            "contract": "contracts/chainellations/Chainellation.sol:Chainellation",
            "label": "circleSeed",
            "offset": 0,
            "slot": "4",
            "type": "t_uint256"
          },
          {
            "astId": 6754,
            "contract": "contracts/chainellations/Chainellation.sol:Chainellation",
            "label": "groundSeed",
            "offset": 0,
            "slot": "5",
            "type": "t_uint256"
          },
          {
            "astId": 6756,
            "contract": "contracts/chainellations/Chainellation.sol:Chainellation",
            "label": "constellationSeed",
            "offset": 0,
            "slot": "6",
            "type": "t_uint256"
          }
        ],
        "numberOfBytes": "224"
      },
      "t_uint16": {
        "encoding": "inplace",
        "label": "uint16",
        "numberOfBytes": "2"
      },
      "t_uint256": {
        "encoding": "inplace",
        "label": "uint256",
        "numberOfBytes": "32"
      },
      "t_uint32": {
        "encoding": "inplace",
        "label": "uint32",
        "numberOfBytes": "4"
      }
    }
  }
}