{
  "address": "0x0165878A594ca255338adfa4d48449f69242Eb8F",
  "abi": [
    {
      "inputs": [],
      "name": "NotOwner",
      "type": "error"
    },
    {
      "inputs": [],
      "name": "SoulBound",
      "type": "error"
    },
    {
      "inputs": [
        {
          "internalType": "address",
          "name": "owner",
          "type": "address"
        }
      ],
      "name": "balanceOf",
      "outputs": [
        {
          "internalType": "uint256",
          "name": "",
          "type": "uint256"
        }
      ],
      "stateMutability": "view",
      "type": "function"
    },
    {
      "inputs": [
        {
          "internalType": "uint256",
          "name": "tokenId",
          "type": "uint256"
        }
      ],
      "name": "generateCharacter",
      "outputs": [
        {
          "internalType": "string",
          "name": "",
          "type": "string"
        }
      ],
      "stateMutability": "view",
      "type": "function"
    },
    {
      "inputs": [
        {
          "internalType": "uint256",
          "name": "tokenId",
          "type": "uint256"
        },
        {
          "components": [
            {
              "internalType": "uint16",
              "name": "primaryHue",
              "type": "uint16"
            },
            {
              "internalType": "uint16",
              "name": "secondaryHue",
              "type": "uint16"
            },
            {
              "internalType": "uint16",
              "name": "constellation",
              "type": "uint16"
            },
            {
              "internalType": "uint16",
              "name": "cloudsAt",
              "type": "uint16"
            }
          ],
          "internalType": "struct Color.DNA",
          "name": "dna",
          "type": "tuple"
        },
        {
          "internalType": "uint256",
          "name": "gazes",
          "type": "uint256"
        },
        {
          "internalType": "bool",
          "name": "daytime",
          "type": "bool"
        }
      ],
      "name": "getDeco",
      "outputs": [
        {
          "internalType": "string",
          "name": "",
          "type": "string"
        }
      ],
      "stateMutability": "pure",
      "type": "function"
    },
    {
      "inputs": [
        {
          "internalType": "uint256",
          "name": "tokenId",
          "type": "uint256"
        }
      ],
      "name": "getMetadata",
      "outputs": [
        {
          "internalType": "string",
          "name": "",
          "type": "string"
        }
      ],
      "stateMutability": "view",
      "type": "function"
    },
    {
      "inputs": [
        {
          "internalType": "uint256",
          "name": "tokenId",
          "type": "uint256"
        }
      ],
      "name": "ownerOf",
      "outputs": [
        {
          "internalType": "address",
          "name": "",
          "type": "address"
        }
      ],
      "stateMutability": "view",
      "type": "function"
    },
    {
      "inputs": [
        {
          "internalType": "uint256",
          "name": "tokenId",
          "type": "uint256"
        },
        {
          "components": [
            {
              "internalType": "uint16",
              "name": "primaryHue",
              "type": "uint16"
            },
            {
              "internalType": "uint16",
              "name": "secondaryHue",
              "type": "uint16"
            },
            {
              "internalType": "uint16",
              "name": "constellation",
              "type": "uint16"
            },
            {
              "internalType": "uint16",
              "name": "cloudsAt",
              "type": "uint16"
            }
          ],
          "internalType": "struct Color.DNA",
          "name": "dna",
          "type": "tuple"
        },
        {
          "internalType": "uint256",
          "name": "gazes",
          "type": "uint256"
        },
        {
          "internalType": "bool",
          "name": "daytime",
          "type": "bool"
        }
      ],
      "name": "packageAsSVG",
      "outputs": [
        {
          "internalType": "string",
          "name": "",
          "type": "string"
        }
      ],
      "stateMutability": "view",
      "type": "function"
    },
    {
      "inputs": [
        {
          "internalType": "uint256",
          "name": "tokenId",
          "type": "uint256"
        }
      ],
      "name": "soulbind",
      "outputs": [],
      "stateMutability": "nonpayable",
      "type": "function"
    },
    {
      "inputs": [
        {
          "internalType": "uint256",
          "name": "",
          "type": "uint256"
        }
      ],
      "name": "soulbound",
      "outputs": [
        {
          "internalType": "bool",
          "name": "",
          "type": "bool"
        }
      ],
      "stateMutability": "view",
      "type": "function"
    },
    {
      "inputs": [
        {
          "internalType": "uint256",
          "name": "tokenId",
          "type": "uint256"
        }
      ],
      "name": "tokenURI",
      "outputs": [
        {
          "internalType": "string",
          "name": "",
          "type": "string"
        }
      ],
      "stateMutability": "view",
      "type": "function"
    }
  ],
  "transactionHash": "0x0b716f20163429adaeae7d9a4157f8efde7a5a0cd6207f029be2574bbef3a51d",
  "args": [],
  "numDeployments": 1,
  "solcInputHash": "594e9ccd906bd68cfdce016c4dc374de",
  "bytecode": "0x608060405234801561001057600080fd5b50610c4d806100206000396000f3fe608060405234801561001057600080fd5b50600436106100a35760003560e01c806370a0823111610076578063960384e81161005b578063960384e81461019c578063a574cea4146101af578063c87b56dd146101c257600080fd5b806370a08231146101475780637a1815971461016957600080fd5b806302e9dd09146100a857806306febcba146100d15780630daefed5146100fc5780636352211e1461010f575b600080fd5b6100bb6100b63660046106c8565b6101d5565b6040516100c89190610792565b60405180910390f35b6100fa6100df3660046107c5565b6000908152602081905260409020805460ff19166001179055565b005b6100bb61010a3660046107c5565b610244565b61012261011d3660046107c5565b503290565b60405173ffffffffffffffffffffffffffffffffffffffff90911681526020016100c8565b61015b6101553660046107de565b50600190565b6040519081526020016100c8565b61018c6101773660046107c5565b60006020819052908152604090205460ff1681565b60405190151581526020016100c8565b6100bb6101aa3660046106c8565b6103d2565b6100bb6101bd3660046107c5565b6103f0565b6100bb6101d03660046107c5565b6104ad565b6040517f3c672069643d2273696c686f7565747465223e0000000000000000000000000060208201527f3c2f673e0000000000000000000000000000000000000000000000000000000060338201526060906037015b6040516020818303038152906040529050949350505050565b60606000735FbDB2315678afecb367f032d93F642f64180aa363974bec1884735FbDB2315678afecb367f032d93F642f64180aa3638f6aa355876040518263ffffffff1660e01b815260040161029c91815260200190565b602060405180830381865af41580156102b9573d6000803e3d6000fd5b505050506040513d601f19601f820116820180604052508101906102dd919061081b565b6040517fffffffff0000000000000000000000000000000000000000000000000000000060e085901b168152600481019290925263ffffffff1660248201526000604482018190526064820152608401608060405180830381865af415801561034a573d6000803e3d6000fd5b505050506040513d601f19601f8201168201806040525081019061036e9190610841565b905060006103808483600060016103d2565b60405160200161039091906108a8565b60405160208183030381529060405290506103aa81610515565b6040516020016103ba91906108c4565b60405160208183030381529060405292505050919050565b60606103e0858585856101d5565b60405160200161022b9190610909565b6060604051602001610497907f226e616d65223a202254776f204d6f6f6e7320456d7074792053696c686f756581527f747465222c20000000000000000000000000000000000000000000000000000060208201527f226465736372697074696f6e223a202254776f204d6f6f6e7320456d7074792060268201527f53696c686f756574746522000000000000000000000000000000000000000000604682015260510190565b6040516020818303038152906040529050919050565b606060006104ba836103f0565b6104c384610244565b6040516020016104d4929190610a33565b60405160208183030381529060405290506104ee81610515565b6040516020016104fe9190610b2a565b604051602081830303815290604052915050919050565b6060815160000361053457505060408051602081019091526000815290565b6000604051806060016040528060408152602001610bd860409139905060006003845160026105639190610b85565b61056d9190610b9e565b610578906004610bc0565b67ffffffffffffffff81111561059057610590610668565b6040519080825280601f01601f1916602001820160405280156105ba576020820181803683370190505b509050600182016020820185865187015b80821015610626576003820191508151603f8160121c168501518453600184019350603f81600c1c168501518453600184019350603f8160061c168501518453600184019350603f81168501518453506001830192506105cb565b505060038651066001811461064257600281146106555761065d565b603d6001830353603d600283035361065d565b603d60018303535b509195945050505050565b634e487b7160e01b600052604160045260246000fd5b6040516080810167ffffffffffffffff811182821017156106af57634e487b7160e01b600052604160045260246000fd5b60405290565b61ffff811681146106c557600080fd5b50565b60008060008084860360e08112156106df57600080fd5b853594506080601f19820112156106f557600080fd5b506106fe61067e565b602086013561070c816106b5565b8152604086013561071c816106b5565b6020820152606086013561072f816106b5565b60408201526080860135610742816106b5565b6060820152925060a0850135915060c0850135801515811461076357600080fd5b939692955090935050565b60005b83811015610789578181015183820152602001610771565b50506000910152565b60208152600082518060208401526107b181604085016020870161076e565b601f01601f19169190910160400192915050565b6000602082840312156107d757600080fd5b5035919050565b6000602082840312156107f057600080fd5b813573ffffffffffffffffffffffffffffffffffffffff8116811461081457600080fd5b9392505050565b60006020828403121561082d57600080fd5b815163ffffffff8116811461081457600080fd5b60006080828403121561085357600080fd5b61085b61067e565b8251610866816106b5565b81526020830151610876816106b5565b60208201526040830151610889816106b5565b6040820152606083015161089c816106b5565b60608201529392505050565b600082516108ba81846020870161076e565b9190910192915050565b7f646174613a696d6167652f7376672b786d6c3b6261736536342c0000000000008152600082516108fc81601a85016020870161076e565b91909101601a0192915050565b7f3c7376672076696577426f783d2230203020353132203531322220786d6c6e7381527f3d22687474703a2f2f7777772e77332e6f72672f323030302f737667223e000060208201527f3c636c6970506174682069643d22626f78223e3c7061746820643d224d302030603e8201527f683531327635313248307a222f3e3c2f636c6970506174683e00000000000000605e8201527f3c7376672076696577426f783d2230203020353132203531322220636c69702d60778201527f706174683d2275726c2823626f7829223e0000000000000000000000000000006097820152600082516109ff8160a885016020870161076e565b7f3c2f7376673e3c2f7376673e000000000000000000000000000000000000000060a893909101928301525060b401919050565b7f7b00000000000000000000000000000000000000000000000000000000000000815260008351610a6b81600185016020880161076e565b7f2c000000000000000000000000000000000000000000000000000000000000006001918401918201527f22696d616765223a20220000000000000000000000000000000000000000000060028201528351610ace81600c84016020880161076e565b7f2200000000000000000000000000000000000000000000000000000000000000600c92909101918201527f7d00000000000000000000000000000000000000000000000000000000000000600d820152600e01949350505050565b7f646174613a6170706c69636174696f6e2f6a736f6e3b6261736536342c000000815260008251610b6281601d85016020870161076e565b91909101601d0192915050565b634e487b7160e01b600052601160045260246000fd5b80820180821115610b9857610b98610b6f565b92915050565b600082610bbb57634e487b7160e01b600052601260045260246000fd5b500490565b8082028115828204841417610b9857610b98610b6f56fe4142434445464748494a4b4c4d4e4f505152535455565758595a6162636465666768696a6b6c6d6e6f707172737475767778797a303132333435363738392b2fa26469706673582212208bc0d64c081a2949d8e6a7cb0f2b2be87c7438ae946dae0e00d5b108c78a1e9d64736f6c63430008120033",
  "deployedBytecode": "0x608060405234801561001057600080fd5b50600436106100a35760003560e01c806370a0823111610076578063960384e81161005b578063960384e81461019c578063a574cea4146101af578063c87b56dd146101c257600080fd5b806370a08231146101475780637a1815971461016957600080fd5b806302e9dd09146100a857806306febcba146100d15780630daefed5146100fc5780636352211e1461010f575b600080fd5b6100bb6100b63660046106c8565b6101d5565b6040516100c89190610792565b60405180910390f35b6100fa6100df3660046107c5565b6000908152602081905260409020805460ff19166001179055565b005b6100bb61010a3660046107c5565b610244565b61012261011d3660046107c5565b503290565b60405173ffffffffffffffffffffffffffffffffffffffff90911681526020016100c8565b61015b6101553660046107de565b50600190565b6040519081526020016100c8565b61018c6101773660046107c5565b60006020819052908152604090205460ff1681565b60405190151581526020016100c8565b6100bb6101aa3660046106c8565b6103d2565b6100bb6101bd3660046107c5565b6103f0565b6100bb6101d03660046107c5565b6104ad565b6040517f3c672069643d2273696c686f7565747465223e0000000000000000000000000060208201527f3c2f673e0000000000000000000000000000000000000000000000000000000060338201526060906037015b6040516020818303038152906040529050949350505050565b6060600073__$11e21e6c56ca563b85c74e3fd3a08242f9$__63974bec188473__$11e21e6c56ca563b85c74e3fd3a08242f9$__638f6aa355876040518263ffffffff1660e01b815260040161029c91815260200190565b602060405180830381865af41580156102b9573d6000803e3d6000fd5b505050506040513d601f19601f820116820180604052508101906102dd919061081b565b6040517fffffffff0000000000000000000000000000000000000000000000000000000060e085901b168152600481019290925263ffffffff1660248201526000604482018190526064820152608401608060405180830381865af415801561034a573d6000803e3d6000fd5b505050506040513d601f19601f8201168201806040525081019061036e9190610841565b905060006103808483600060016103d2565b60405160200161039091906108a8565b60405160208183030381529060405290506103aa81610515565b6040516020016103ba91906108c4565b60405160208183030381529060405292505050919050565b60606103e0858585856101d5565b60405160200161022b9190610909565b6060604051602001610497907f226e616d65223a202254776f204d6f6f6e7320456d7074792053696c686f756581527f747465222c20000000000000000000000000000000000000000000000000000060208201527f226465736372697074696f6e223a202254776f204d6f6f6e7320456d7074792060268201527f53696c686f756574746522000000000000000000000000000000000000000000604682015260510190565b6040516020818303038152906040529050919050565b606060006104ba836103f0565b6104c384610244565b6040516020016104d4929190610a33565b60405160208183030381529060405290506104ee81610515565b6040516020016104fe9190610b2a565b604051602081830303815290604052915050919050565b6060815160000361053457505060408051602081019091526000815290565b6000604051806060016040528060408152602001610bd860409139905060006003845160026105639190610b85565b61056d9190610b9e565b610578906004610bc0565b67ffffffffffffffff81111561059057610590610668565b6040519080825280601f01601f1916602001820160405280156105ba576020820181803683370190505b509050600182016020820185865187015b80821015610626576003820191508151603f8160121c168501518453600184019350603f81600c1c168501518453600184019350603f8160061c168501518453600184019350603f81168501518453506001830192506105cb565b505060038651066001811461064257600281146106555761065d565b603d6001830353603d600283035361065d565b603d60018303535b509195945050505050565b634e487b7160e01b600052604160045260246000fd5b6040516080810167ffffffffffffffff811182821017156106af57634e487b7160e01b600052604160045260246000fd5b60405290565b61ffff811681146106c557600080fd5b50565b60008060008084860360e08112156106df57600080fd5b853594506080601f19820112156106f557600080fd5b506106fe61067e565b602086013561070c816106b5565b8152604086013561071c816106b5565b6020820152606086013561072f816106b5565b60408201526080860135610742816106b5565b6060820152925060a0850135915060c0850135801515811461076357600080fd5b939692955090935050565b60005b83811015610789578181015183820152602001610771565b50506000910152565b60208152600082518060208401526107b181604085016020870161076e565b601f01601f19169190910160400192915050565b6000602082840312156107d757600080fd5b5035919050565b6000602082840312156107f057600080fd5b813573ffffffffffffffffffffffffffffffffffffffff8116811461081457600080fd5b9392505050565b60006020828403121561082d57600080fd5b815163ffffffff8116811461081457600080fd5b60006080828403121561085357600080fd5b61085b61067e565b8251610866816106b5565b81526020830151610876816106b5565b60208201526040830151610889816106b5565b6040820152606083015161089c816106b5565b60608201529392505050565b600082516108ba81846020870161076e565b9190910192915050565b7f646174613a696d6167652f7376672b786d6c3b6261736536342c0000000000008152600082516108fc81601a85016020870161076e565b91909101601a0192915050565b7f3c7376672076696577426f783d2230203020353132203531322220786d6c6e7381527f3d22687474703a2f2f7777772e77332e6f72672f323030302f737667223e000060208201527f3c636c6970506174682069643d22626f78223e3c7061746820643d224d302030603e8201527f683531327635313248307a222f3e3c2f636c6970506174683e00000000000000605e8201527f3c7376672076696577426f783d2230203020353132203531322220636c69702d60778201527f706174683d2275726c2823626f7829223e0000000000000000000000000000006097820152600082516109ff8160a885016020870161076e565b7f3c2f7376673e3c2f7376673e000000000000000000000000000000000000000060a893909101928301525060b401919050565b7f7b00000000000000000000000000000000000000000000000000000000000000815260008351610a6b81600185016020880161076e565b7f2c000000000000000000000000000000000000000000000000000000000000006001918401918201527f22696d616765223a20220000000000000000000000000000000000000000000060028201528351610ace81600c84016020880161076e565b7f2200000000000000000000000000000000000000000000000000000000000000600c92909101918201527f7d00000000000000000000000000000000000000000000000000000000000000600d820152600e01949350505050565b7f646174613a6170706c69636174696f6e2f6a736f6e3b6261736536342c000000815260008251610b6281601d85016020870161076e565b91909101601d0192915050565b634e487b7160e01b600052601160045260246000fd5b80820180821115610b9857610b98610b6f565b92915050565b600082610bbb57634e487b7160e01b600052601260045260246000fd5b500490565b8082028115828204841417610b9857610b98610b6f56fe4142434445464748494a4b4c4d4e4f505152535455565758595a6162636465666768696a6b6c6d6e6f707172737475767778797a303132333435363738392b2fa26469706673582212208bc0d64c081a2949d8e6a7cb0f2b2be87c7438ae946dae0e00d5b108c78a1e9d64736f6c63430008120033",
  "libraries": {
    "Color": "0x5FbDB2315678afecb367f032d93F642f64180aa3"
  },
  "devdoc": {
    "kind": "dev",
    "methods": {},
    "version": 1
  },
  "userdoc": {
    "kind": "user",
    "methods": {},
    "version": 1
  },
  "storageLayout": {
    "storage": [
      {
        "astId": 8430,
        "contract": "contracts/chainellations/decos/Empty_Silhouette.sol:Empty_Silhouette",
        "label": "soulbound",
        "offset": 0,
        "slot": "0",
        "type": "t_mapping(t_uint256,t_bool)"
      }
    ],
    "types": {
      "t_bool": {
        "encoding": "inplace",
        "label": "bool",
        "numberOfBytes": "1"
      },
      "t_mapping(t_uint256,t_bool)": {
        "encoding": "mapping",
        "key": "t_uint256",
        "label": "mapping(uint256 => bool)",
        "numberOfBytes": "32",
        "value": "t_bool"
      },
      "t_uint256": {
        "encoding": "inplace",
        "label": "uint256",
        "numberOfBytes": "32"
      }
    }
  }
}