{
  "address": "0x2279B7A0a67DB372996a5FaB50D91eAA73d2eBe6",
  "abi": [
    {
      "inputs": [],
      "name": "NotOwner",
      "type": "error"
    },
    {
      "inputs": [],
      "name": "SoulBound",
      "type": "error"
    },
    {
      "inputs": [
        {
          "internalType": "address",
          "name": "owner",
          "type": "address"
        }
      ],
      "name": "balanceOf",
      "outputs": [
        {
          "internalType": "uint256",
          "name": "",
          "type": "uint256"
        }
      ],
      "stateMutability": "view",
      "type": "function"
    },
    {
      "inputs": [
        {
          "internalType": "uint256",
          "name": "tokenId",
          "type": "uint256"
        }
      ],
      "name": "generateCharacter",
      "outputs": [
        {
          "internalType": "string",
          "name": "",
          "type": "string"
        }
      ],
      "stateMutability": "view",
      "type": "function"
    },
    {
      "inputs": [
        {
          "internalType": "uint256",
          "name": "tokenId",
          "type": "uint256"
        },
        {
          "components": [
            {
              "internalType": "uint16",
              "name": "primaryHue",
              "type": "uint16"
            },
            {
              "internalType": "uint16",
              "name": "secondaryHue",
              "type": "uint16"
            },
            {
              "internalType": "uint16",
              "name": "constellation",
              "type": "uint16"
            },
            {
              "internalType": "uint16",
              "name": "cloudsAt",
              "type": "uint16"
            }
          ],
          "internalType": "struct Color.DNA",
          "name": "dna",
          "type": "tuple"
        },
        {
          "internalType": "uint256",
          "name": "gazes",
          "type": "uint256"
        },
        {
          "internalType": "bool",
          "name": "daytime",
          "type": "bool"
        }
      ],
      "name": "getDeco",
      "outputs": [
        {
          "internalType": "string",
          "name": "",
          "type": "string"
        }
      ],
      "stateMutability": "pure",
      "type": "function"
    },
    {
      "inputs": [
        {
          "internalType": "uint256",
          "name": "tokenId",
          "type": "uint256"
        }
      ],
      "name": "getMetadata",
      "outputs": [
        {
          "internalType": "string",
          "name": "",
          "type": "string"
        }
      ],
      "stateMutability": "view",
      "type": "function"
    },
    {
      "inputs": [
        {
          "internalType": "uint256",
          "name": "tokenId",
          "type": "uint256"
        }
      ],
      "name": "ownerOf",
      "outputs": [
        {
          "internalType": "address",
          "name": "",
          "type": "address"
        }
      ],
      "stateMutability": "view",
      "type": "function"
    },
    {
      "inputs": [
        {
          "internalType": "uint256",
          "name": "tokenId",
          "type": "uint256"
        },
        {
          "components": [
            {
              "internalType": "uint16",
              "name": "primaryHue",
              "type": "uint16"
            },
            {
              "internalType": "uint16",
              "name": "secondaryHue",
              "type": "uint16"
            },
            {
              "internalType": "uint16",
              "name": "constellation",
              "type": "uint16"
            },
            {
              "internalType": "uint16",
              "name": "cloudsAt",
              "type": "uint16"
            }
          ],
          "internalType": "struct Color.DNA",
          "name": "dna",
          "type": "tuple"
        },
        {
          "internalType": "uint256",
          "name": "gazes",
          "type": "uint256"
        },
        {
          "internalType": "bool",
          "name": "daytime",
          "type": "bool"
        }
      ],
      "name": "packageAsSVG",
      "outputs": [
        {
          "internalType": "string",
          "name": "",
          "type": "string"
        }
      ],
      "stateMutability": "view",
      "type": "function"
    },
    {
      "inputs": [
        {
          "internalType": "uint256",
          "name": "tokenId",
          "type": "uint256"
        }
      ],
      "name": "soulbind",
      "outputs": [],
      "stateMutability": "nonpayable",
      "type": "function"
    },
    {
      "inputs": [
        {
          "internalType": "uint256",
          "name": "",
          "type": "uint256"
        }
      ],
      "name": "soulbound",
      "outputs": [
        {
          "internalType": "bool",
          "name": "",
          "type": "bool"
        }
      ],
      "stateMutability": "view",
      "type": "function"
    },
    {
      "inputs": [
        {
          "internalType": "uint256",
          "name": "tokenId",
          "type": "uint256"
        }
      ],
      "name": "tokenURI",
      "outputs": [
        {
          "internalType": "string",
          "name": "",
          "type": "string"
        }
      ],
      "stateMutability": "view",
      "type": "function"
    }
  ],
  "transactionHash": "0x6b0428ce0a26bc3673e2aefb062e9a9f59a09a09fdb0baa5b81caed17ad9b199",
  "args": [],
  "numDeployments": 1,
  "solcInputHash": "594e9ccd906bd68cfdce016c4dc374de",
  "bytecode": "0x608060405234801561001057600080fd5b50610c27806100206000396000f3fe608060405234801561001057600080fd5b50600436106100a35760003560e01c806370a0823111610076578063960384e81161005b578063960384e81461019c578063a574cea4146101af578063c87b56dd146101c257600080fd5b806370a08231146101475780637a1815971461016957600080fd5b806302e9dd09146100a857806306febcba146100d15780630daefed5146100fc5780636352211e1461010f575b600080fd5b6100bb6100b63660046106a2565b6101d5565b6040516100c8919061076c565b60405180910390f35b6100fa6100df36600461079f565b6000908152602081905260409020805460ff19166001179055565b005b6100bb61010a36600461079f565b61021e565b61012261011d36600461079f565b503290565b60405173ffffffffffffffffffffffffffffffffffffffff90911681526020016100c8565b61015b6101553660046107b8565b50600190565b6040519081526020016100c8565b61018c61017736600461079f565b60006020819052908152604090205460ff1681565b60405190151581526020016100c8565b6100bb6101aa3660046106a2565b6103ac565b6100bb6101bd36600461079f565b6103ca565b6100bb6101d036600461079f565b610487565b6040517f3c672069643d22736b796d617468223e3c2f673e00000000000000000000000060208201526060906034015b6040516020818303038152906040529050949350505050565b60606000735FbDB2315678afecb367f032d93F642f64180aa363974bec1884735FbDB2315678afecb367f032d93F642f64180aa3638f6aa355876040518263ffffffff1660e01b815260040161027691815260200190565b602060405180830381865af4158015610293573d6000803e3d6000fd5b505050506040513d601f19601f820116820180604052508101906102b791906107f5565b6040517fffffffff0000000000000000000000000000000000000000000000000000000060e085901b168152600481019290925263ffffffff1660248201526000604482018190526064820152608401608060405180830381865af4158015610324573d6000803e3d6000fd5b505050506040513d601f19601f82011682018060405250810190610348919061081b565b9050600061035a8483600060016103ac565b60405160200161036a9190610882565b6040516020818303038152906040529050610384816104ef565b604051602001610394919061089e565b60405160208183030381529060405292505050919050565b60606103ba858585856101d5565b60405160200161020591906108e3565b6060604051602001610471907f226e616d65223a202254776f204d6f6f6e7320456d70747920536b796d61746881527f222c20000000000000000000000000000000000000000000000000000000000060208201527f226465736372697074696f6e223a202254776f204d6f6f6e7320456d7074792060238201527f536b796d617468220000000000000000000000000000000000000000000000006043820152604b0190565b6040516020818303038152906040529050919050565b60606000610494836103ca565b61049d8461021e565b6040516020016104ae929190610a0d565b60405160208183030381529060405290506104c8816104ef565b6040516020016104d89190610b04565b604051602081830303815290604052915050919050565b6060815160000361050e57505060408051602081019091526000815290565b6000604051806060016040528060408152602001610bb2604091399050600060038451600261053d9190610b5f565b6105479190610b78565b610552906004610b9a565b67ffffffffffffffff81111561056a5761056a610642565b6040519080825280601f01601f191660200182016040528015610594576020820181803683370190505b509050600182016020820185865187015b80821015610600576003820191508151603f8160121c168501518453600184019350603f81600c1c168501518453600184019350603f8160061c168501518453600184019350603f81168501518453506001830192506105a5565b505060038651066001811461061c576002811461062f57610637565b603d6001830353603d6002830353610637565b603d60018303535b509195945050505050565b634e487b7160e01b600052604160045260246000fd5b6040516080810167ffffffffffffffff8111828210171561068957634e487b7160e01b600052604160045260246000fd5b60405290565b61ffff8116811461069f57600080fd5b50565b60008060008084860360e08112156106b957600080fd5b853594506080601f19820112156106cf57600080fd5b506106d8610658565b60208601356106e68161068f565b815260408601356106f68161068f565b602082015260608601356107098161068f565b6040820152608086013561071c8161068f565b6060820152925060a0850135915060c0850135801515811461073d57600080fd5b939692955090935050565b60005b8381101561076357818101518382015260200161074b565b50506000910152565b602081526000825180602084015261078b816040850160208701610748565b601f01601f19169190910160400192915050565b6000602082840312156107b157600080fd5b5035919050565b6000602082840312156107ca57600080fd5b813573ffffffffffffffffffffffffffffffffffffffff811681146107ee57600080fd5b9392505050565b60006020828403121561080757600080fd5b815163ffffffff811681146107ee57600080fd5b60006080828403121561082d57600080fd5b610835610658565b82516108408161068f565b815260208301516108508161068f565b602082015260408301516108638161068f565b604082015260608301516108768161068f565b60608201529392505050565b60008251610894818460208701610748565b9190910192915050565b7f646174613a696d6167652f7376672b786d6c3b6261736536342c0000000000008152600082516108d681601a850160208701610748565b91909101601a0192915050565b7f3c7376672076696577426f783d2230203020353132203531322220786d6c6e7381527f3d22687474703a2f2f7777772e77332e6f72672f323030302f737667223e000060208201527f3c636c6970506174682069643d22626f78223e3c7061746820643d224d302030603e8201527f683531327635313248307a222f3e3c2f636c6970506174683e00000000000000605e8201527f3c7376672076696577426f783d2230203020353132203531322220636c69702d60778201527f706174683d2275726c2823626f7829223e0000000000000000000000000000006097820152600082516109d98160a8850160208701610748565b7f3c2f7376673e3c2f7376673e000000000000000000000000000000000000000060a893909101928301525060b401919050565b7f7b00000000000000000000000000000000000000000000000000000000000000815260008351610a45816001850160208801610748565b7f2c000000000000000000000000000000000000000000000000000000000000006001918401918201527f22696d616765223a20220000000000000000000000000000000000000000000060028201528351610aa881600c840160208801610748565b7f2200000000000000000000000000000000000000000000000000000000000000600c92909101918201527f7d00000000000000000000000000000000000000000000000000000000000000600d820152600e01949350505050565b7f646174613a6170706c69636174696f6e2f6a736f6e3b6261736536342c000000815260008251610b3c81601d850160208701610748565b91909101601d0192915050565b634e487b7160e01b600052601160045260246000fd5b80820180821115610b7257610b72610b49565b92915050565b600082610b9557634e487b7160e01b600052601260045260246000fd5b500490565b8082028115828204841417610b7257610b72610b4956fe4142434445464748494a4b4c4d4e4f505152535455565758595a6162636465666768696a6b6c6d6e6f707172737475767778797a303132333435363738392b2fa264697066735822122048e852e8dea00a07ae5865a226665e3573e19dd337c35e7647c5e3a35984438f64736f6c63430008120033",
  "deployedBytecode": "0x608060405234801561001057600080fd5b50600436106100a35760003560e01c806370a0823111610076578063960384e81161005b578063960384e81461019c578063a574cea4146101af578063c87b56dd146101c257600080fd5b806370a08231146101475780637a1815971461016957600080fd5b806302e9dd09146100a857806306febcba146100d15780630daefed5146100fc5780636352211e1461010f575b600080fd5b6100bb6100b63660046106a2565b6101d5565b6040516100c8919061076c565b60405180910390f35b6100fa6100df36600461079f565b6000908152602081905260409020805460ff19166001179055565b005b6100bb61010a36600461079f565b61021e565b61012261011d36600461079f565b503290565b60405173ffffffffffffffffffffffffffffffffffffffff90911681526020016100c8565b61015b6101553660046107b8565b50600190565b6040519081526020016100c8565b61018c61017736600461079f565b60006020819052908152604090205460ff1681565b60405190151581526020016100c8565b6100bb6101aa3660046106a2565b6103ac565b6100bb6101bd36600461079f565b6103ca565b6100bb6101d036600461079f565b610487565b6040517f3c672069643d22736b796d617468223e3c2f673e00000000000000000000000060208201526060906034015b6040516020818303038152906040529050949350505050565b6060600073__$11e21e6c56ca563b85c74e3fd3a08242f9$__63974bec188473__$11e21e6c56ca563b85c74e3fd3a08242f9$__638f6aa355876040518263ffffffff1660e01b815260040161027691815260200190565b602060405180830381865af4158015610293573d6000803e3d6000fd5b505050506040513d601f19601f820116820180604052508101906102b791906107f5565b6040517fffffffff0000000000000000000000000000000000000000000000000000000060e085901b168152600481019290925263ffffffff1660248201526000604482018190526064820152608401608060405180830381865af4158015610324573d6000803e3d6000fd5b505050506040513d601f19601f82011682018060405250810190610348919061081b565b9050600061035a8483600060016103ac565b60405160200161036a9190610882565b6040516020818303038152906040529050610384816104ef565b604051602001610394919061089e565b60405160208183030381529060405292505050919050565b60606103ba858585856101d5565b60405160200161020591906108e3565b6060604051602001610471907f226e616d65223a202254776f204d6f6f6e7320456d70747920536b796d61746881527f222c20000000000000000000000000000000000000000000000000000000000060208201527f226465736372697074696f6e223a202254776f204d6f6f6e7320456d7074792060238201527f536b796d617468220000000000000000000000000000000000000000000000006043820152604b0190565b6040516020818303038152906040529050919050565b60606000610494836103ca565b61049d8461021e565b6040516020016104ae929190610a0d565b60405160208183030381529060405290506104c8816104ef565b6040516020016104d89190610b04565b604051602081830303815290604052915050919050565b6060815160000361050e57505060408051602081019091526000815290565b6000604051806060016040528060408152602001610bb2604091399050600060038451600261053d9190610b5f565b6105479190610b78565b610552906004610b9a565b67ffffffffffffffff81111561056a5761056a610642565b6040519080825280601f01601f191660200182016040528015610594576020820181803683370190505b509050600182016020820185865187015b80821015610600576003820191508151603f8160121c168501518453600184019350603f81600c1c168501518453600184019350603f8160061c168501518453600184019350603f81168501518453506001830192506105a5565b505060038651066001811461061c576002811461062f57610637565b603d6001830353603d6002830353610637565b603d60018303535b509195945050505050565b634e487b7160e01b600052604160045260246000fd5b6040516080810167ffffffffffffffff8111828210171561068957634e487b7160e01b600052604160045260246000fd5b60405290565b61ffff8116811461069f57600080fd5b50565b60008060008084860360e08112156106b957600080fd5b853594506080601f19820112156106cf57600080fd5b506106d8610658565b60208601356106e68161068f565b815260408601356106f68161068f565b602082015260608601356107098161068f565b6040820152608086013561071c8161068f565b6060820152925060a0850135915060c0850135801515811461073d57600080fd5b939692955090935050565b60005b8381101561076357818101518382015260200161074b565b50506000910152565b602081526000825180602084015261078b816040850160208701610748565b601f01601f19169190910160400192915050565b6000602082840312156107b157600080fd5b5035919050565b6000602082840312156107ca57600080fd5b813573ffffffffffffffffffffffffffffffffffffffff811681146107ee57600080fd5b9392505050565b60006020828403121561080757600080fd5b815163ffffffff811681146107ee57600080fd5b60006080828403121561082d57600080fd5b610835610658565b82516108408161068f565b815260208301516108508161068f565b602082015260408301516108638161068f565b604082015260608301516108768161068f565b60608201529392505050565b60008251610894818460208701610748565b9190910192915050565b7f646174613a696d6167652f7376672b786d6c3b6261736536342c0000000000008152600082516108d681601a850160208701610748565b91909101601a0192915050565b7f3c7376672076696577426f783d2230203020353132203531322220786d6c6e7381527f3d22687474703a2f2f7777772e77332e6f72672f323030302f737667223e000060208201527f3c636c6970506174682069643d22626f78223e3c7061746820643d224d302030603e8201527f683531327635313248307a222f3e3c2f636c6970506174683e00000000000000605e8201527f3c7376672076696577426f783d2230203020353132203531322220636c69702d60778201527f706174683d2275726c2823626f7829223e0000000000000000000000000000006097820152600082516109d98160a8850160208701610748565b7f3c2f7376673e3c2f7376673e000000000000000000000000000000000000000060a893909101928301525060b401919050565b7f7b00000000000000000000000000000000000000000000000000000000000000815260008351610a45816001850160208801610748565b7f2c000000000000000000000000000000000000000000000000000000000000006001918401918201527f22696d616765223a20220000000000000000000000000000000000000000000060028201528351610aa881600c840160208801610748565b7f2200000000000000000000000000000000000000000000000000000000000000600c92909101918201527f7d00000000000000000000000000000000000000000000000000000000000000600d820152600e01949350505050565b7f646174613a6170706c69636174696f6e2f6a736f6e3b6261736536342c000000815260008251610b3c81601d850160208701610748565b91909101601d0192915050565b634e487b7160e01b600052601160045260246000fd5b80820180821115610b7257610b72610b49565b92915050565b600082610b9557634e487b7160e01b600052601260045260246000fd5b500490565b8082028115828204841417610b7257610b72610b4956fe4142434445464748494a4b4c4d4e4f505152535455565758595a6162636465666768696a6b6c6d6e6f707172737475767778797a303132333435363738392b2fa264697066735822122048e852e8dea00a07ae5865a226665e3573e19dd337c35e7647c5e3a35984438f64736f6c63430008120033",
  "libraries": {
    "Color": "0x5FbDB2315678afecb367f032d93F642f64180aa3"
  },
  "devdoc": {
    "kind": "dev",
    "methods": {},
    "version": 1
  },
  "userdoc": {
    "kind": "user",
    "methods": {},
    "version": 1
  },
  "storageLayout": {
    "storage": [
      {
        "astId": 8430,
        "contract": "contracts/chainellations/decos/Empty_SkyMath.sol:Empty_SkyMath",
        "label": "soulbound",
        "offset": 0,
        "slot": "0",
        "type": "t_mapping(t_uint256,t_bool)"
      }
    ],
    "types": {
      "t_bool": {
        "encoding": "inplace",
        "label": "bool",
        "numberOfBytes": "1"
      },
      "t_mapping(t_uint256,t_bool)": {
        "encoding": "mapping",
        "key": "t_uint256",
        "label": "mapping(uint256 => bool)",
        "numberOfBytes": "32",
        "value": "t_bool"
      },
      "t_uint256": {
        "encoding": "inplace",
        "label": "uint256",
        "numberOfBytes": "32"
      }
    }
  }
}