{
  "address": "0x959922bE3CAee4b8Cd9a407cc3ac1C251C2007B1",
  "abi": [
    {
      "inputs": [],
      "name": "NotOwner",
      "type": "error"
    },
    {
      "inputs": [],
      "name": "SoulBound",
      "type": "error"
    },
    {
      "inputs": [
        {
          "internalType": "address",
          "name": "owner",
          "type": "address"
        }
      ],
      "name": "balanceOf",
      "outputs": [
        {
          "internalType": "uint256",
          "name": "",
          "type": "uint256"
        }
      ],
      "stateMutability": "view",
      "type": "function"
    },
    {
      "inputs": [
        {
          "internalType": "uint256",
          "name": "tokenId",
          "type": "uint256"
        }
      ],
      "name": "generateCharacter",
      "outputs": [
        {
          "internalType": "string",
          "name": "",
          "type": "string"
        }
      ],
      "stateMutability": "view",
      "type": "function"
    },
    {
      "inputs": [
        {
          "internalType": "uint256",
          "name": "gazes",
          "type": "uint256"
        }
      ],
      "name": "getCircles",
      "outputs": [
        {
          "internalType": "string",
          "name": "",
          "type": "string"
        }
      ],
      "stateMutability": "pure",
      "type": "function"
    },
    {
      "inputs": [
        {
          "internalType": "uint256",
          "name": "tokenId",
          "type": "uint256"
        },
        {
          "components": [
            {
              "internalType": "uint16",
              "name": "primaryHue",
              "type": "uint16"
            },
            {
              "internalType": "uint16",
              "name": "secondaryHue",
              "type": "uint16"
            },
            {
              "internalType": "uint16",
              "name": "constellation",
              "type": "uint16"
            },
            {
              "internalType": "uint16",
              "name": "cloudsAt",
              "type": "uint16"
            }
          ],
          "internalType": "struct Color.DNA",
          "name": "dna",
          "type": "tuple"
        },
        {
          "internalType": "uint256",
          "name": "gazes",
          "type": "uint256"
        },
        {
          "internalType": "bool",
          "name": "daytime",
          "type": "bool"
        }
      ],
      "name": "getDeco",
      "outputs": [
        {
          "internalType": "string",
          "name": "",
          "type": "string"
        }
      ],
      "stateMutability": "pure",
      "type": "function"
    },
    {
      "inputs": [
        {
          "internalType": "uint256",
          "name": "tokenId",
          "type": "uint256"
        }
      ],
      "name": "getMetadata",
      "outputs": [
        {
          "internalType": "string",
          "name": "",
          "type": "string"
        }
      ],
      "stateMutability": "view",
      "type": "function"
    },
    {
      "inputs": [
        {
          "internalType": "uint256",
          "name": "tokenId",
          "type": "uint256"
        }
      ],
      "name": "ownerOf",
      "outputs": [
        {
          "internalType": "address",
          "name": "",
          "type": "address"
        }
      ],
      "stateMutability": "view",
      "type": "function"
    },
    {
      "inputs": [
        {
          "internalType": "uint256",
          "name": "tokenId",
          "type": "uint256"
        },
        {
          "components": [
            {
              "internalType": "uint16",
              "name": "primaryHue",
              "type": "uint16"
            },
            {
              "internalType": "uint16",
              "name": "secondaryHue",
              "type": "uint16"
            },
            {
              "internalType": "uint16",
              "name": "constellation",
              "type": "uint16"
            },
            {
              "internalType": "uint16",
              "name": "cloudsAt",
              "type": "uint16"
            }
          ],
          "internalType": "struct Color.DNA",
          "name": "dna",
          "type": "tuple"
        },
        {
          "internalType": "uint256",
          "name": "gazes",
          "type": "uint256"
        },
        {
          "internalType": "bool",
          "name": "daytime",
          "type": "bool"
        }
      ],
      "name": "packageAsSVG",
      "outputs": [
        {
          "internalType": "string",
          "name": "",
          "type": "string"
        }
      ],
      "stateMutability": "view",
      "type": "function"
    },
    {
      "inputs": [
        {
          "internalType": "uint256",
          "name": "tokenId",
          "type": "uint256"
        }
      ],
      "name": "soulbind",
      "outputs": [],
      "stateMutability": "nonpayable",
      "type": "function"
    },
    {
      "inputs": [
        {
          "internalType": "uint256",
          "name": "",
          "type": "uint256"
        }
      ],
      "name": "soulbound",
      "outputs": [
        {
          "internalType": "bool",
          "name": "",
          "type": "bool"
        }
      ],
      "stateMutability": "view",
      "type": "function"
    },
    {
      "inputs": [
        {
          "internalType": "uint256",
          "name": "tokenId",
          "type": "uint256"
        }
      ],
      "name": "tokenURI",
      "outputs": [
        {
          "internalType": "string",
          "name": "",
          "type": "string"
        }
      ],
      "stateMutability": "view",
      "type": "function"
    }
  ],
  "transactionHash": "0x8d78172d95cf0c0ac283f81c414c21baba12b776deac4a05e7522eb99690830f",
  "args": [],
  "numDeployments": 1,
  "solcInputHash": "594e9ccd906bd68cfdce016c4dc374de",
  "bytecode": "0x608060405234801561001057600080fd5b506113e9806100206000396000f3fe608060405234801561001057600080fd5b50600436106100be5760003560e01c806370a0823111610076578063960384e81161005b578063960384e8146101ca578063a574cea4146101dd578063c87b56dd146101f057600080fd5b806370a08231146101755780637a1815971461019757600080fd5b80630daefed5116100a75780630daefed51461011757806355d26c461461012a5780636352211e1461013d57600080fd5b806302e9dd09146100c357806306febcba146100ec575b600080fd5b6100d66100d1366004610b33565b610203565b6040516100e39190610bfd565b60405180910390f35b6101156100fa366004610c30565b6000908152602081905260409020805460ff19166001179055565b005b6100d6610125366004610c30565b610237565b6100d6610138366004610c30565b6103c5565b61015061014b366004610c30565b503290565b60405173ffffffffffffffffffffffffffffffffffffffff90911681526020016100e3565b610189610183366004610c49565b50600190565b6040519081526020016100e3565b6101ba6101a5366004610c30565b60006020819052908152604090205460ff1681565b60405190151581526020016100e3565b6100d66101d8366004610b33565b610754565b6100d66101eb366004610c30565b610772565b6100d66101fe366004610c30565b6107a3565b606061020e836103c5565b60405160200161021e9190610c86565b6040516020818303038152906040529050949350505050565b60606000735FbDB2315678afecb367f032d93F642f64180aa363974bec1884735FbDB2315678afecb367f032d93F642f64180aa3638f6aa355876040518263ffffffff1660e01b815260040161028f91815260200190565b602060405180830381865af41580156102ac573d6000803e3d6000fd5b505050506040513d601f19601f820116820180604052508101906102d09190610cd9565b6040517fffffffff0000000000000000000000000000000000000000000000000000000060e085901b168152600481019290925263ffffffff1660248201526000604482018190526064820152608401608060405180830381865af415801561033d573d6000803e3d6000fd5b505050506040513d601f19601f820116820180604052508101906103619190610cff565b90506000610373848360006001610754565b6040516020016103839190610d66565b604051602081830303815290604052905061039d8161080b565b6040516020016103ad9190610d82565b60405160208183030381529060405292505050919050565b60606000604051602001610546907f3c672069643d22736b796d61746822206f7061636974793d2231222066696c6c81527f3d226e6f6e6522207374726f6b653d22776869746522207374726f6b652d776960208201527f6474683d2231223e00000000000000000000000000000000000000000000000060408201527f3c636972636c6520723d223830222063783d22333430222063793d223137302260488201527f207374726f6b652d6461736861727261793d22302031203022206f7061636974606882018190527f793d22302e3822202f3e00000000000000000000000000000000000000000000608883018190527f3c636972636c6520723d223835222063783d22333430222063793d223137302260928401527f207374726f6b652d6461736861727261793d22312030203122206f706163697460b284015260d283018190527f3c636972636c6520723d223930222063783d22333430222063793d223137302260dc84015260fc83019190915261011c8201526101260190565b60408051601f1981840301815291905290506000610565600685610ddd565b9050600060058260ff16101561057b578161057e565b60055b905060005b8160ff168161ffff1610156107295783735FbDB2315678afecb367f032d93F642f64180aa3631b0d4b4d6105b8846005610dff565b6105c49061014a610e25565b6040517fffffffff0000000000000000000000000000000000000000000000000000000060e084901b16815261ffff9091166004820152602401600060405180830381865af415801561061b573d6000803e3d6000fd5b505050506040513d6000823e601f3d908101601f191682016040526106439190810190610e47565b735FbDB2315678afecb367f032d93F642f64180aa3631b0d4b4d610668856005610dff565b6106749061014a610e25565b6040517fffffffff0000000000000000000000000000000000000000000000000000000060e084901b16815261ffff9091166004820152602401600060405180830381865af41580156106cb573d6000803e3d6000fd5b505050506040513d6000823e601f3d908101601f191682016040526106f39190810190610e47565b60405160200161070593929190610ef4565b6040516020818303038152906040529350808061072190610fbc565b915050610583565b508260405160200161073b9190610fdd565b60408051601f1981840301815291905295945050505050565b606061076285858585610203565b60405160200161021e9190611005565b606061077d8261095e565b60405160200161078d919061112f565b6040516020818303038152906040529050919050565b606060006107b083610772565b6107b984610237565b6040516020016107ca92919061120d565b60405160208183030381529060405290506107e48161080b565b6040516020016107f49190611304565b604051602081830303815290604052915050919050565b6060815160000361082a57505060408051602081019091526000815290565b600060405180606001604052806040815260200161137460409139905060006003845160026108599190611349565b6108639190610ddd565b61086e90600461135c565b67ffffffffffffffff81111561088657610886610ae1565b6040519080825280601f01601f1916602001820160405280156108b0576020820181803683370190505b509050600182016020820185865187015b8082101561091c576003820191508151603f8160121c168501518453600184019350603f81600c1c168501518453600184019350603f8160061c168501518453600184019350603f81168501518453506001830192506108c1565b5050600386510660018114610938576002811461094b57610953565b603d6001830353603d6002830353610953565b603d60018303535b509195945050505050565b6060600061096b836109fe565b600101905060008167ffffffffffffffff81111561098b5761098b610ae1565b6040519080825280601f01601f1916602001820160405280156109b5576020820181803683370190505b5090508181016020015b600019017f3031323334353637383961626364656600000000000000000000000000000000600a86061a8153600a85049450846109bf57509392505050565b6000807a184f03e93ff9f4daa797ed6e38ed64bf6a1f0100000000000000008310610a47577a184f03e93ff9f4daa797ed6e38ed64bf6a1f010000000000000000830492506040015b6d04ee2d6d415b85acef81000000008310610a73576d04ee2d6d415b85acef8100000000830492506020015b662386f26fc100008310610a9157662386f26fc10000830492506010015b6305f5e1008310610aa9576305f5e100830492506008015b6127108310610abd57612710830492506004015b60648310610acf576064830492506002015b600a8310610adb576001015b92915050565b634e487b7160e01b600052604160045260246000fd5b6040516080810167ffffffffffffffff81118282101715610b1a57610b1a610ae1565b60405290565b61ffff81168114610b3057600080fd5b50565b60008060008084860360e0811215610b4a57600080fd5b853594506080601f1982011215610b6057600080fd5b50610b69610af7565b6020860135610b7781610b20565b81526040860135610b8781610b20565b60208201526060860135610b9a81610b20565b60408201526080860135610bad81610b20565b6060820152925060a0850135915060c08501358015158114610bce57600080fd5b939692955090935050565b60005b83811015610bf4578181015183820152602001610bdc565b50506000910152565b6020815260008251806020840152610c1c816040850160208701610bd9565b601f01601f19169190910160400192915050565b600060208284031215610c4257600080fd5b5035919050565b600060208284031215610c5b57600080fd5b813573ffffffffffffffffffffffffffffffffffffffff81168114610c7f57600080fd5b9392505050565b7f3c673e0000000000000000000000000000000000000000000000000000000000815260008251610cbe816003850160208701610bd9565b631e17b39f60e11b6003939091019283015250600701919050565b600060208284031215610ceb57600080fd5b815163ffffffff81168114610c7f57600080fd5b600060808284031215610d1157600080fd5b610d19610af7565b8251610d2481610b20565b81526020830151610d3481610b20565b60208201526040830151610d4781610b20565b60408201526060830151610d5a81610b20565b60608201529392505050565b60008251610d78818460208701610bd9565b9190910192915050565b7f646174613a696d6167652f7376672b786d6c3b6261736536342c000000000000815260008251610dba81601a850160208701610bd9565b91909101601a0192915050565b634e487b7160e01b600052601160045260246000fd5b600082610dfa57634e487b7160e01b600052601260045260246000fd5b500490565b61ffff818116838216028082169190828114610e1d57610e1d610dc7565b505092915050565b61ffff818116838216019080821115610e4057610e40610dc7565b5092915050565b600060208284031215610e5957600080fd5b815167ffffffffffffffff80821115610e7157600080fd5b818401915084601f830112610e8557600080fd5b815181811115610e9757610e97610ae1565b604051601f8201601f19908116603f01168101908382118183101715610ebf57610ebf610ae1565b81604052828152876020848701011115610ed857600080fd5b610ee9836020830160208801610bd9565b979650505050505050565b60008451610f06818460208901610bd9565b80830190507f3c706174682064203d20224d00000000000000000000000000000000000000008082528551610f4281600c850160208a01610bd9565b7f2030207620383022206f7061636974793d22302e3522202f3e00000000000000600c939091019283015260258201528351610f85816031840160208801610bd9565b7f2032363020762032383022206f7061636974793d22302e3522202f3e0000000060319290910191820152604d0195945050505050565b600061ffff808316818103610fd357610fd3610dc7565b6001019392505050565b60008251610fef818460208701610bd9565b631e17b39f60e11b920191825250600401919050565b7f3c7376672076696577426f783d2230203020353132203531322220786d6c6e7381527f3d22687474703a2f2f7777772e77332e6f72672f323030302f737667223e000060208201527f3c636c6970506174682069643d22626f78223e3c7061746820643d224d302030603e8201527f683531327635313248307a222f3e3c2f636c6970506174683e00000000000000605e8201527f3c7376672076696577426f783d2230203020353132203531322220636c69702d60778201527f706174683d2275726c2823626f7829223e0000000000000000000000000000006097820152600082516110fb8160a8850160208701610bd9565b7f3c2f7376673e3c2f7376673e000000000000000000000000000000000000000060a893909101928301525060b401919050565b7f226e616d65223a202254776f204d6f6f6e7320536b79204d617468202300000081526000825161116781601d850160208701610bd9565b7f222c000000000000000000000000000000000000000000000000000000000000601d9390910192830152507f226465736372697074696f6e223a202241206d617468656d61746963616c2061601f8201527f6e6f6d616c7920666f7220796f75722054776f204d6f6f6e73204e6967687420603f8201527f536b792200000000000000000000000000000000000000000000000000000000605f820152606301919050565b7f7b00000000000000000000000000000000000000000000000000000000000000815260008351611245816001850160208801610bd9565b7f2c000000000000000000000000000000000000000000000000000000000000006001918401918201527f22696d616765223a202200000000000000000000000000000000000000000000600282015283516112a881600c840160208801610bd9565b7f2200000000000000000000000000000000000000000000000000000000000000600c92909101918201527f7d00000000000000000000000000000000000000000000000000000000000000600d820152600e01949350505050565b7f646174613a6170706c69636174696f6e2f6a736f6e3b6261736536342c00000081526000825161133c81601d850160208701610bd9565b91909101601d0192915050565b80820180821115610adb57610adb610dc7565b8082028115828204841417610adb57610adb610dc756fe4142434445464748494a4b4c4d4e4f505152535455565758595a6162636465666768696a6b6c6d6e6f707172737475767778797a303132333435363738392b2fa2646970667358221220cfb8163d5574f081e791e02984fbfc5bc85693f4202a741e5319e4cab548e46364736f6c63430008120033",
  "deployedBytecode": "0x608060405234801561001057600080fd5b50600436106100be5760003560e01c806370a0823111610076578063960384e81161005b578063960384e8146101ca578063a574cea4146101dd578063c87b56dd146101f057600080fd5b806370a08231146101755780637a1815971461019757600080fd5b80630daefed5116100a75780630daefed51461011757806355d26c461461012a5780636352211e1461013d57600080fd5b806302e9dd09146100c357806306febcba146100ec575b600080fd5b6100d66100d1366004610b33565b610203565b6040516100e39190610bfd565b60405180910390f35b6101156100fa366004610c30565b6000908152602081905260409020805460ff19166001179055565b005b6100d6610125366004610c30565b610237565b6100d6610138366004610c30565b6103c5565b61015061014b366004610c30565b503290565b60405173ffffffffffffffffffffffffffffffffffffffff90911681526020016100e3565b610189610183366004610c49565b50600190565b6040519081526020016100e3565b6101ba6101a5366004610c30565b60006020819052908152604090205460ff1681565b60405190151581526020016100e3565b6100d66101d8366004610b33565b610754565b6100d66101eb366004610c30565b610772565b6100d66101fe366004610c30565b6107a3565b606061020e836103c5565b60405160200161021e9190610c86565b6040516020818303038152906040529050949350505050565b6060600073__$11e21e6c56ca563b85c74e3fd3a08242f9$__63974bec188473__$11e21e6c56ca563b85c74e3fd3a08242f9$__638f6aa355876040518263ffffffff1660e01b815260040161028f91815260200190565b602060405180830381865af41580156102ac573d6000803e3d6000fd5b505050506040513d601f19601f820116820180604052508101906102d09190610cd9565b6040517fffffffff0000000000000000000000000000000000000000000000000000000060e085901b168152600481019290925263ffffffff1660248201526000604482018190526064820152608401608060405180830381865af415801561033d573d6000803e3d6000fd5b505050506040513d601f19601f820116820180604052508101906103619190610cff565b90506000610373848360006001610754565b6040516020016103839190610d66565b604051602081830303815290604052905061039d8161080b565b6040516020016103ad9190610d82565b60405160208183030381529060405292505050919050565b60606000604051602001610546907f3c672069643d22736b796d61746822206f7061636974793d2231222066696c6c81527f3d226e6f6e6522207374726f6b653d22776869746522207374726f6b652d776960208201527f6474683d2231223e00000000000000000000000000000000000000000000000060408201527f3c636972636c6520723d223830222063783d22333430222063793d223137302260488201527f207374726f6b652d6461736861727261793d22302031203022206f7061636974606882018190527f793d22302e3822202f3e00000000000000000000000000000000000000000000608883018190527f3c636972636c6520723d223835222063783d22333430222063793d223137302260928401527f207374726f6b652d6461736861727261793d22312030203122206f706163697460b284015260d283018190527f3c636972636c6520723d223930222063783d22333430222063793d223137302260dc84015260fc83019190915261011c8201526101260190565b60408051601f1981840301815291905290506000610565600685610ddd565b9050600060058260ff16101561057b578161057e565b60055b905060005b8160ff168161ffff161015610729578373__$11e21e6c56ca563b85c74e3fd3a08242f9$__631b0d4b4d6105b8846005610dff565b6105c49061014a610e25565b6040517fffffffff0000000000000000000000000000000000000000000000000000000060e084901b16815261ffff9091166004820152602401600060405180830381865af415801561061b573d6000803e3d6000fd5b505050506040513d6000823e601f3d908101601f191682016040526106439190810190610e47565b73__$11e21e6c56ca563b85c74e3fd3a08242f9$__631b0d4b4d610668856005610dff565b6106749061014a610e25565b6040517fffffffff0000000000000000000000000000000000000000000000000000000060e084901b16815261ffff9091166004820152602401600060405180830381865af41580156106cb573d6000803e3d6000fd5b505050506040513d6000823e601f3d908101601f191682016040526106f39190810190610e47565b60405160200161070593929190610ef4565b6040516020818303038152906040529350808061072190610fbc565b915050610583565b508260405160200161073b9190610fdd565b60408051601f1981840301815291905295945050505050565b606061076285858585610203565b60405160200161021e9190611005565b606061077d8261095e565b60405160200161078d919061112f565b6040516020818303038152906040529050919050565b606060006107b083610772565b6107b984610237565b6040516020016107ca92919061120d565b60405160208183030381529060405290506107e48161080b565b6040516020016107f49190611304565b604051602081830303815290604052915050919050565b6060815160000361082a57505060408051602081019091526000815290565b600060405180606001604052806040815260200161137460409139905060006003845160026108599190611349565b6108639190610ddd565b61086e90600461135c565b67ffffffffffffffff81111561088657610886610ae1565b6040519080825280601f01601f1916602001820160405280156108b0576020820181803683370190505b509050600182016020820185865187015b8082101561091c576003820191508151603f8160121c168501518453600184019350603f81600c1c168501518453600184019350603f8160061c168501518453600184019350603f81168501518453506001830192506108c1565b5050600386510660018114610938576002811461094b57610953565b603d6001830353603d6002830353610953565b603d60018303535b509195945050505050565b6060600061096b836109fe565b600101905060008167ffffffffffffffff81111561098b5761098b610ae1565b6040519080825280601f01601f1916602001820160405280156109b5576020820181803683370190505b5090508181016020015b600019017f3031323334353637383961626364656600000000000000000000000000000000600a86061a8153600a85049450846109bf57509392505050565b6000807a184f03e93ff9f4daa797ed6e38ed64bf6a1f0100000000000000008310610a47577a184f03e93ff9f4daa797ed6e38ed64bf6a1f010000000000000000830492506040015b6d04ee2d6d415b85acef81000000008310610a73576d04ee2d6d415b85acef8100000000830492506020015b662386f26fc100008310610a9157662386f26fc10000830492506010015b6305f5e1008310610aa9576305f5e100830492506008015b6127108310610abd57612710830492506004015b60648310610acf576064830492506002015b600a8310610adb576001015b92915050565b634e487b7160e01b600052604160045260246000fd5b6040516080810167ffffffffffffffff81118282101715610b1a57610b1a610ae1565b60405290565b61ffff81168114610b3057600080fd5b50565b60008060008084860360e0811215610b4a57600080fd5b853594506080601f1982011215610b6057600080fd5b50610b69610af7565b6020860135610b7781610b20565b81526040860135610b8781610b20565b60208201526060860135610b9a81610b20565b60408201526080860135610bad81610b20565b6060820152925060a0850135915060c08501358015158114610bce57600080fd5b939692955090935050565b60005b83811015610bf4578181015183820152602001610bdc565b50506000910152565b6020815260008251806020840152610c1c816040850160208701610bd9565b601f01601f19169190910160400192915050565b600060208284031215610c4257600080fd5b5035919050565b600060208284031215610c5b57600080fd5b813573ffffffffffffffffffffffffffffffffffffffff81168114610c7f57600080fd5b9392505050565b7f3c673e0000000000000000000000000000000000000000000000000000000000815260008251610cbe816003850160208701610bd9565b631e17b39f60e11b6003939091019283015250600701919050565b600060208284031215610ceb57600080fd5b815163ffffffff81168114610c7f57600080fd5b600060808284031215610d1157600080fd5b610d19610af7565b8251610d2481610b20565b81526020830151610d3481610b20565b60208201526040830151610d4781610b20565b60408201526060830151610d5a81610b20565b60608201529392505050565b60008251610d78818460208701610bd9565b9190910192915050565b7f646174613a696d6167652f7376672b786d6c3b6261736536342c000000000000815260008251610dba81601a850160208701610bd9565b91909101601a0192915050565b634e487b7160e01b600052601160045260246000fd5b600082610dfa57634e487b7160e01b600052601260045260246000fd5b500490565b61ffff818116838216028082169190828114610e1d57610e1d610dc7565b505092915050565b61ffff818116838216019080821115610e4057610e40610dc7565b5092915050565b600060208284031215610e5957600080fd5b815167ffffffffffffffff80821115610e7157600080fd5b818401915084601f830112610e8557600080fd5b815181811115610e9757610e97610ae1565b604051601f8201601f19908116603f01168101908382118183101715610ebf57610ebf610ae1565b81604052828152876020848701011115610ed857600080fd5b610ee9836020830160208801610bd9565b979650505050505050565b60008451610f06818460208901610bd9565b80830190507f3c706174682064203d20224d00000000000000000000000000000000000000008082528551610f4281600c850160208a01610bd9565b7f2030207620383022206f7061636974793d22302e3522202f3e00000000000000600c939091019283015260258201528351610f85816031840160208801610bd9565b7f2032363020762032383022206f7061636974793d22302e3522202f3e0000000060319290910191820152604d0195945050505050565b600061ffff808316818103610fd357610fd3610dc7565b6001019392505050565b60008251610fef818460208701610bd9565b631e17b39f60e11b920191825250600401919050565b7f3c7376672076696577426f783d2230203020353132203531322220786d6c6e7381527f3d22687474703a2f2f7777772e77332e6f72672f323030302f737667223e000060208201527f3c636c6970506174682069643d22626f78223e3c7061746820643d224d302030603e8201527f683531327635313248307a222f3e3c2f636c6970506174683e00000000000000605e8201527f3c7376672076696577426f783d2230203020353132203531322220636c69702d60778201527f706174683d2275726c2823626f7829223e0000000000000000000000000000006097820152600082516110fb8160a8850160208701610bd9565b7f3c2f7376673e3c2f7376673e000000000000000000000000000000000000000060a893909101928301525060b401919050565b7f226e616d65223a202254776f204d6f6f6e7320536b79204d617468202300000081526000825161116781601d850160208701610bd9565b7f222c000000000000000000000000000000000000000000000000000000000000601d9390910192830152507f226465736372697074696f6e223a202241206d617468656d61746963616c2061601f8201527f6e6f6d616c7920666f7220796f75722054776f204d6f6f6e73204e6967687420603f8201527f536b792200000000000000000000000000000000000000000000000000000000605f820152606301919050565b7f7b00000000000000000000000000000000000000000000000000000000000000815260008351611245816001850160208801610bd9565b7f2c000000000000000000000000000000000000000000000000000000000000006001918401918201527f22696d616765223a202200000000000000000000000000000000000000000000600282015283516112a881600c840160208801610bd9565b7f2200000000000000000000000000000000000000000000000000000000000000600c92909101918201527f7d00000000000000000000000000000000000000000000000000000000000000600d820152600e01949350505050565b7f646174613a6170706c69636174696f6e2f6a736f6e3b6261736536342c00000081526000825161133c81601d850160208701610bd9565b91909101601d0192915050565b80820180821115610adb57610adb610dc7565b8082028115828204841417610adb57610adb610dc756fe4142434445464748494a4b4c4d4e4f505152535455565758595a6162636465666768696a6b6c6d6e6f707172737475767778797a303132333435363738392b2fa2646970667358221220cfb8163d5574f081e791e02984fbfc5bc85693f4202a741e5319e4cab548e46364736f6c63430008120033",
  "libraries": {
    "Color": "0x5FbDB2315678afecb367f032d93F642f64180aa3"
  },
  "devdoc": {
    "kind": "dev",
    "methods": {},
    "version": 1
  },
  "userdoc": {
    "kind": "user",
    "methods": {},
    "version": 1
  },
  "storageLayout": {
    "storage": [
      {
        "astId": 8430,
        "contract": "contracts/chainellations/decos/SkyCircle.sol:SkyCircle",
        "label": "soulbound",
        "offset": 0,
        "slot": "0",
        "type": "t_mapping(t_uint256,t_bool)"
      }
    ],
    "types": {
      "t_bool": {
        "encoding": "inplace",
        "label": "bool",
        "numberOfBytes": "1"
      },
      "t_mapping(t_uint256,t_bool)": {
        "encoding": "mapping",
        "key": "t_uint256",
        "label": "mapping(uint256 => bool)",
        "numberOfBytes": "32",
        "value": "t_bool"
      },
      "t_uint256": {
        "encoding": "inplace",
        "label": "uint256",
        "numberOfBytes": "32"
      }
    }
  }
}