{
  "address": "0x9A676e781A523b5d0C0e43731313A708CB607508",
  "abi": [
    {
      "inputs": [],
      "name": "NotOwner",
      "type": "error"
    },
    {
      "inputs": [],
      "name": "SoulBound",
      "type": "error"
    },
    {
      "inputs": [
        {
          "internalType": "address",
          "name": "owner",
          "type": "address"
        }
      ],
      "name": "balanceOf",
      "outputs": [
        {
          "internalType": "uint256",
          "name": "",
          "type": "uint256"
        }
      ],
      "stateMutability": "view",
      "type": "function"
    },
    {
      "inputs": [
        {
          "internalType": "uint256",
          "name": "tokenId",
          "type": "uint256"
        }
      ],
      "name": "generateCharacter",
      "outputs": [
        {
          "internalType": "string",
          "name": "",
          "type": "string"
        }
      ],
      "stateMutability": "view",
      "type": "function"
    },
    {
      "inputs": [
        {
          "internalType": "uint256",
          "name": "tokenId",
          "type": "uint256"
        },
        {
          "components": [
            {
              "internalType": "uint16",
              "name": "primaryHue",
              "type": "uint16"
            },
            {
              "internalType": "uint16",
              "name": "secondaryHue",
              "type": "uint16"
            },
            {
              "internalType": "uint16",
              "name": "constellation",
              "type": "uint16"
            },
            {
              "internalType": "uint16",
              "name": "cloudsAt",
              "type": "uint16"
            }
          ],
          "internalType": "struct Color.DNA",
          "name": "dna",
          "type": "tuple"
        },
        {
          "internalType": "uint256",
          "name": "gazes",
          "type": "uint256"
        },
        {
          "internalType": "bool",
          "name": "daytime",
          "type": "bool"
        }
      ],
      "name": "getDeco",
      "outputs": [
        {
          "internalType": "string",
          "name": "",
          "type": "string"
        }
      ],
      "stateMutability": "pure",
      "type": "function"
    },
    {
      "inputs": [
        {
          "internalType": "uint256",
          "name": "tokenId",
          "type": "uint256"
        }
      ],
      "name": "getMetadata",
      "outputs": [
        {
          "internalType": "string",
          "name": "",
          "type": "string"
        }
      ],
      "stateMutability": "view",
      "type": "function"
    },
    {
      "inputs": [
        {
          "internalType": "uint256",
          "name": "tokenId",
          "type": "uint256"
        },
        {
          "components": [
            {
              "internalType": "uint16",
              "name": "H",
              "type": "uint16"
            },
            {
              "internalType": "uint16",
              "name": "S",
              "type": "uint16"
            },
            {
              "internalType": "uint16",
              "name": "L",
              "type": "uint16"
            }
          ],
          "internalType": "struct Color.HSL",
          "name": "bg",
          "type": "tuple"
        },
        {
          "internalType": "uint16",
          "name": "nonce",
          "type": "uint16"
        },
        {
          "internalType": "uint16",
          "name": "height",
          "type": "uint16"
        },
        {
          "internalType": "uint16",
          "name": "steps",
          "type": "uint16"
        }
      ],
      "name": "getWave",
      "outputs": [
        {
          "internalType": "string",
          "name": "",
          "type": "string"
        }
      ],
      "stateMutability": "pure",
      "type": "function"
    },
    {
      "inputs": [
        {
          "internalType": "uint256",
          "name": "tokenId",
          "type": "uint256"
        },
        {
          "components": [
            {
              "internalType": "uint16",
              "name": "H",
              "type": "uint16"
            },
            {
              "internalType": "uint16",
              "name": "S",
              "type": "uint16"
            },
            {
              "internalType": "uint16",
              "name": "L",
              "type": "uint16"
            }
          ],
          "internalType": "struct Color.HSL",
          "name": "background",
          "type": "tuple"
        }
      ],
      "name": "getWavyLine",
      "outputs": [
        {
          "internalType": "string",
          "name": "",
          "type": "string"
        }
      ],
      "stateMutability": "pure",
      "type": "function"
    },
    {
      "inputs": [
        {
          "internalType": "uint256",
          "name": "tokenId",
          "type": "uint256"
        }
      ],
      "name": "ownerOf",
      "outputs": [
        {
          "internalType": "address",
          "name": "",
          "type": "address"
        }
      ],
      "stateMutability": "view",
      "type": "function"
    },
    {
      "inputs": [
        {
          "internalType": "uint256",
          "name": "tokenId",
          "type": "uint256"
        },
        {
          "components": [
            {
              "internalType": "uint16",
              "name": "primaryHue",
              "type": "uint16"
            },
            {
              "internalType": "uint16",
              "name": "secondaryHue",
              "type": "uint16"
            },
            {
              "internalType": "uint16",
              "name": "constellation",
              "type": "uint16"
            },
            {
              "internalType": "uint16",
              "name": "cloudsAt",
              "type": "uint16"
            }
          ],
          "internalType": "struct Color.DNA",
          "name": "dna",
          "type": "tuple"
        },
        {
          "internalType": "uint256",
          "name": "gazes",
          "type": "uint256"
        },
        {
          "internalType": "bool",
          "name": "daytime",
          "type": "bool"
        }
      ],
      "name": "packageAsSVG",
      "outputs": [
        {
          "internalType": "string",
          "name": "",
          "type": "string"
        }
      ],
      "stateMutability": "view",
      "type": "function"
    },
    {
      "inputs": [
        {
          "internalType": "uint256",
          "name": "tokenId",
          "type": "uint256"
        }
      ],
      "name": "soulbind",
      "outputs": [],
      "stateMutability": "nonpayable",
      "type": "function"
    },
    {
      "inputs": [
        {
          "internalType": "uint256",
          "name": "",
          "type": "uint256"
        }
      ],
      "name": "soulbound",
      "outputs": [
        {
          "internalType": "bool",
          "name": "",
          "type": "bool"
        }
      ],
      "stateMutability": "view",
      "type": "function"
    },
    {
      "inputs": [
        {
          "internalType": "uint256",
          "name": "tokenId",
          "type": "uint256"
        }
      ],
      "name": "tokenURI",
      "outputs": [
        {
          "internalType": "string",
          "name": "",
          "type": "string"
        }
      ],
      "stateMutability": "view",
      "type": "function"
    }
  ],
  "transactionHash": "0x10a5b1627c815aad79992e98e62a14e0e4990a6d9fff5d8c907fb12fc219c0ea",
  "args": [],
  "numDeployments": 1,
  "solcInputHash": "594e9ccd906bd68cfdce016c4dc374de",
  "bytecode": "0x608060405234801561001057600080fd5b50612132806100206000396000f3fe608060405234801561001057600080fd5b50600436106100c95760003560e01c80636352211e11610081578063960384e81161005b578063960384e8146101e8578063a574cea4146101fb578063c87b56dd1461020e57600080fd5b80636352211e1461015b57806370a08231146101935780637a181597146101b557600080fd5b80630daefed5116100b25780630daefed5146101225780630f567add146101355780633c03c2e31461014857600080fd5b806302e9dd09146100ce57806306febcba146100f7575b600080fd5b6100e16100dc366004611331565b610221565b6040516100ee91906113fb565b60405180910390f35b61012061010536600461142e565b6000908152602081905260409020805460ff19166001179055565b005b6100e161013036600461142e565b610278565b6100e161014336600461149c565b6103ee565b6100e16101563660046114c9565b610891565b61016e61016936600461142e565b503290565b60405173ffffffffffffffffffffffffffffffffffffffff90911681526020016100ee565b6101a76101a1366004611530565b50600190565b6040519081526020016100ee565b6101d86101c336600461142e565b60006020819052908152604090205460ff1681565b60405190151581526020016100ee565b6100e16101f6366004611331565b610f30565b6100e161020936600461142e565b610f4e565b6100e161021c36600461142e565b610f7f565b6040805160608181018352855161ffff16825260646020830152601e9282019290925261024f9086906103ee565b60405160200161025f9190611589565b6040516020818303038152906040529050949350505050565b60606000735FbDB2315678afecb367f032d93F642f64180aa363974bec1884735FbDB2315678afecb367f032d93F642f64180aa3638f6aa355876040518263ffffffff1660e01b81526004016102d091815260200190565b602060405180830381865af41580156102ed573d6000803e3d6000fd5b505050506040513d601f19601f820116820180604052508101906103119190611774565b6040516001600160e01b031960e085901b168152600481019290925263ffffffff1660248201526000604482018190526064820152608401608060405180830381865af4158015610366573d6000803e3d6000fd5b505050506040513d601f19601f8201168201806040525081019061038a919061179a565b9050600061039c848360006001610f30565b6040516020016103ac9190611801565b60405160208183030381529060405290506103c681610fe7565b6040516020016103d6919061181d565b60405160208183030381529060405292505050919050565b6040805160208082018352600080835283517f1c1ed559000000000000000000000000000000000000000000000000000000008152855161ffff90811660048301529286015183166024820152938501519091166044840152606092735FbDB2315678afecb367f032d93F642f64180aa390631c1ed55990606401606060405180830381865af4158015610486573d6000803e3d6000fd5b505050506040513d601f19601f820116820180604052508101906104aa9190611862565b9050816040516020016104bd91906118b6565b60408051808303601f190181529082905263210636e960e01b825260048201879052610d5760248301526101186044830152600a60648301529250600090735FbDB2315678afecb367f032d93F642f64180aa39063210636e990608401602060405180830381865af4158015610537573d6000803e3d6000fd5b505050506040513d601f19601f8201168201806040525081019061055b919061191d565b9050601960326000805b60068161ffff161015610860576040517fdcaa2044000000000000000000000000000000000000000000000000000000008152600481018b905261ffff808316602483015286166044820152600a6064820152735FbDB2315678afecb367f032d93F642f64180aa39063dcaa204490608401602060405180830381865af41580156105f4573d6000803e3d6000fd5b505050506040513d601f19601f82011682018060405250810190610618919061191d565b61062390601e611950565b6040517f3a20c87900000000000000000000000000000000000000000000000000000000815260048181018d905261ffff84166024830152919650735FbDB2315678afecb367f032d93F642f64180aa390633a20c87990604401602060405180830381865af415801561069a573d6000803e3d6000fd5b505050506040513d601f19601f820116820180604052508101906106be9190611972565b6106c891906119a1565b6106d3906003611950565b9150735FbDB2315678afecb367f032d93F642f64180aa3633329f04f856106fb846001611950565b6107069060016119b5565b6040516001600160e01b031960e085901b16815261ffff928316600482015291166024820152604401602060405180830381865af415801561074c573d6000803e3d6000fd5b505050506040513d601f19601f82011682018060405250810190610770919061191d565b61ffff166020870152735FbDB2315678afecb367f032d93F642f64180aa3633329f04f8461079f8460046119b5565b6107aa906003611950565b6040516001600160e01b031960e085901b16815261ffff928316600482015291166024820152604401602060405180830381865af41580156107f0573d6000803e3d6000fd5b505050506040513d601f19601f82011682018060405250810190610814919061191d565b61ffff1660408701528661082b8b88848987610891565b60405160200161083c9291906119db565b6040516020818303038152906040529650808061085890611a0a565b915050610565565b50856040516020016108729190611a2b565b60408051601f1981840301815291905296505050505050505b92915050565b60606000735FbDB2315678afecb367f032d93F642f64180aa363210636e988876108bd87610200611a53565b6040516001600160e01b031960e086901b168152600481019390935261ffff9182166024840152166044820152600a6064820152608401602060405180830381865af4158015610911573d6000803e3d6000fd5b505050506040513d601f19601f82011682018060405250810190610935919061191d565b604051631b0d4b4d60e01b815261ffff86166004820152909150600090735FbDB2315678afecb367f032d93F642f64180aa390631b0d4b4d90602401600060405180830381865af415801561098e573d6000803e3d6000fd5b505050506040513d6000823e601f3d908101601f191682016040526109b69190810190611a74565b735FbDB2315678afecb367f032d93F642f64180aa3631b0d4b4d6109db600286611a53565b6040516001600160e01b031960e084901b16815261ffff9091166004820152602401600060405180830381865af4158015610a1a573d6000803e3d6000fd5b505050506040513d6000823e601f3d908101601f19168201604052610a429190810190611a74565b60405163210636e960e01b8152600481018b905261ffff808a16602483015288166044820152604b6064820152735FbDB2315678afecb367f032d93F642f64180aa390631b0d4b4d90829063210636e990608401602060405180830381865af4158015610ab3573d6000803e3d6000fd5b505050506040513d601f19601f82011682018060405250810190610ad7919061191d565b6040516001600160e01b031960e084901b16815261ffff9091166004820152602401600060405180830381865af4158015610b16573d6000803e3d6000fd5b505050506040513d6000823e601f3d908101601f19168201604052610b3e9190810190611a74565b604051631b0d4b4d60e01b815261ffff86166004820152735FbDB2315678afecb367f032d93F642f64180aa390631b0d4b4d90602401600060405180830381865af4158015610b91573d6000803e3d6000fd5b505050506040513d6000823e601f3d908101601f19168201604052610bb99190810190611a74565b604051631b0d4b4d60e01b815261ffff8a166004820152735FbDB2315678afecb367f032d93F642f64180aa390631b0d4b4d90602401600060405180830381865af4158015610c0c573d6000803e3d6000fd5b505050506040513d6000823e601f3d908101601f19168201604052610c349190810190611a74565b604051602001610c48959493929190611b21565b604051602081830303815290604052905060005b8461ffff168161ffff161015610db45781735FbDB2315678afecb367f032d93F642f64180aa3631b0d4b4d610c92846002611950565b610c9c90876119b5565b6040516001600160e01b031960e084901b16815261ffff9091166004820152602401600060405180830381865af4158015610cdb573d6000803e3d6000fd5b505050506040513d6000823e601f3d908101601f19168201604052610d039190810190611a74565b604051631b0d4b4d60e01b815261ffff89166004820152735FbDB2315678afecb367f032d93F642f64180aa390631b0d4b4d90602401600060405180830381865af4158015610d56573d6000803e3d6000fd5b505050506040513d6000823e601f3d908101601f19168201604052610d7e9190810190611a74565b604051602001610d9093929190611c01565b60405160208183030381529060405291508080610dac90611a0a565b915050610c5c565b50604051631b0d4b4d60e01b815261ffff861660048201528190735FbDB2315678afecb367f032d93F642f64180aa390631b0d4b4d90602401600060405180830381865af4158015610e0a573d6000803e3d6000fd5b505050506040513d6000823e601f3d908101601f19168201604052610e329190810190611a74565b604051602001610e43929190611c7c565b60408051808303601f190181528282527f0fc5c9fc000000000000000000000000000000000000000000000000000000008352895161ffff908116600485015260208b015181166024850152918a0151909116604483015291508190735FbDB2315678afecb367f032d93F642f64180aa390630fc5c9fc90606401600060405180830381865af4158015610edb573d6000803e3d6000fd5b505050506040513d6000823e601f3d908101601f19168201604052610f039190810190611a74565b604051602001610f14929190611cde565b60408051808303601f1901815291905298975050505050505050565b6060610f3e85858585610221565b60405160200161025f9190611d60565b6060610f598261113a565b604051602001610f699190611e8a565b6040516020818303038152906040529050919050565b60606000610f8c83610f4e565b610f9584610278565b604051602001610fa6929190611f42565b6040516020818303038152906040529050610fc081610fe7565b604051602001610fd09190612039565b604051602081830303815290604052915050919050565b6060815160000361100657505060408051602081019091526000815290565b60006040518060600160405280604081526020016120bd6040913990506000600384516002611035919061207e565b61103f9190612091565b61104a9060046120a5565b67ffffffffffffffff811115611062576110626112bc565b6040519080825280601f01601f19166020018201604052801561108c576020820181803683370190505b509050600182016020820185865187015b808210156110f8576003820191508151603f8160121c168501518453600184019350603f81600c1c168501518453600184019350603f8160061c168501518453600184019350603f811685015184535060018301925061109d565b505060038651066001811461111457600281146111275761112f565b603d6001830353603d600283035361112f565b603d60018303535b509195945050505050565b60606000611147836111da565b600101905060008167ffffffffffffffff811115611167576111676112bc565b6040519080825280601f01601f191660200182016040528015611191576020820181803683370190505b5090508181016020015b600019017f3031323334353637383961626364656600000000000000000000000000000000600a86061a8153600a850494508461119b57509392505050565b6000807a184f03e93ff9f4daa797ed6e38ed64bf6a1f0100000000000000008310611223577a184f03e93ff9f4daa797ed6e38ed64bf6a1f010000000000000000830492506040015b6d04ee2d6d415b85acef8100000000831061124f576d04ee2d6d415b85acef8100000000830492506020015b662386f26fc10000831061126d57662386f26fc10000830492506010015b6305f5e1008310611285576305f5e100830492506008015b612710831061129957612710830492506004015b606483106112ab576064830492506002015b600a831061088b5760010192915050565b634e487b7160e01b600052604160045260246000fd5b6040516080810167ffffffffffffffff811182821017156112f5576112f56112bc565b60405290565b6040516060810167ffffffffffffffff811182821017156112f5576112f56112bc565b61ffff8116811461132e57600080fd5b50565b60008060008084860360e081121561134857600080fd5b853594506080601f198201121561135e57600080fd5b506113676112d2565b60208601356113758161131e565b815260408601356113858161131e565b602082015260608601356113988161131e565b604082015260808601356113ab8161131e565b6060820152925060a0850135915060c085013580151581146113cc57600080fd5b939692955090935050565b60005b838110156113f25781810151838201526020016113da565b50506000910152565b602081526000825180602084015261141a8160408501602087016113d7565b601f01601f19169190910160400192915050565b60006020828403121561144057600080fd5b5035919050565b60006060828403121561145957600080fd5b6114616112fb565b9050813561146e8161131e565b8152602082013561147e8161131e565b602082015260408201356114918161131e565b604082015292915050565b600080608083850312156114af57600080fd5b823591506114c08460208501611447565b90509250929050565b600080600080600060e086880312156114e157600080fd5b853594506114f28760208801611447565b935060808601356115028161131e565b925060a08601356115128161131e565b915060c08601356115228161131e565b809150509295509295909350565b60006020828403121561154257600080fd5b813573ffffffffffffffffffffffffffffffffffffffff8116811461156657600080fd5b9392505050565b6000815161157f8185602086016113d7565b9290920192915050565b7f3c672069643d2273696c686f7565747465223e0000000000000000000000000081527f3c66696c7465722069643d226c69676874223e3c6665446966667573654c696760138201527f6874696e6720726573756c743d22646966664f75742220696e3d22536f75726360338201527f6547726170686963222064696666757365436f6e7374616e743d223122206c6960538201527f676874696e672d636f6c6f723d227768697465223e3c666544697374616e744c60738201527f6967687420617a696d7574683d2234352220656c65766174696f6e3d2239302260938201527f2f3e00000000000000000000000000000000000000000000000000000000000060b38201527f3c2f6665446966667573654c69676874696e673e3c6665436f6d706f7369746560b58201527f20696e3d22536f75726365477261706869632220696e323d22646966664f757460d58201527f22206f75743d226c22206f70657261746f723d2261726974686d65746963222060f58201527f6b313d223222206b323d223122206b333d223022206b343d2230222f3e3c2f666101158201527f696c7465723e0000000000000000000000000000000000000000000000000000610135820152600061176061013b83018461156d565b631e17b39f60e11b81526004019392505050565b60006020828403121561178657600080fd5b815163ffffffff8116811461156657600080fd5b6000608082840312156117ac57600080fd5b6117b46112d2565b82516117bf8161131e565b815260208301516117cf8161131e565b602082015260408301516117e28161131e565b604082015260608301516117f58161131e565b60608201529392505050565b600082516118138184602087016113d7565b9190910192915050565b7f646174613a696d6167652f7376672b786d6c3b6261736536342c00000000000081526000825161185581601a8501602087016113d7565b91909101601a0192915050565b60006060828403121561187457600080fd5b61187c6112fb565b82516118878161131e565b815260208301516118978161131e565b602082015260408301516118aa8161131e565b60408201529392505050565b600082516118c88184602087016113d7565b7f3c672066696c7465723d2275726c28236c696768742922207374726f6b653d229201918252507f626c61636b22207374726f6b652d77696474683d2231223e00000000000000006020820152603801919050565b60006020828403121561192f57600080fd5b81516115668161131e565b634e487b7160e01b600052601160045260246000fd5b61ffff81811683821601908082111561196b5761196b61193a565b5092915050565b60006020828403121561198457600080fd5b5051919050565b634e487b7160e01b600052601260045260246000fd5b6000826119b0576119b061198b565b500690565b61ffff8181168382160280821691908281146119d3576119d361193a565b505092915050565b600083516119ed8184602088016113d7565b835190830190611a018183602088016113d7565b01949350505050565b600061ffff808316818103611a2157611a2161193a565b6001019392505050565b60008251611a3d8184602087016113d7565b631e17b39f60e11b920191825250600401919050565b600061ffff80841680611a6857611a6861198b565b92169190910492915050565b600060208284031215611a8657600080fd5b815167ffffffffffffffff80821115611a9e57600080fd5b818401915084601f830112611ab257600080fd5b815181811115611ac457611ac46112bc565b604051601f8201601f19908116603f01168101908382118183101715611aec57611aec6112bc565b81604052828152876020848701011115611b0557600080fd5b611b168360208301602088016113d7565b979650505050505050565b7f3c7061746820643d224d20302000000000000000000000000000000000000000815260008651611b5981600d850160208b016113d7565b7f5120000000000000000000000000000000000000000000000000000000000000600d918401918201528651611b9681600f840160208b016113d7565b808201915050600160fd1b80600f8301528651611bba816010850160208b016113d7565b601092019182018190528551611bd7816011850160208a016113d7565b60119201918201528351611bf28160128401602088016113d7565b01601201979650505050505050565b60008451611c138184602089016113d7565b7f20542000000000000000000000000000000000000000000000000000000000009083019081528451611c4d8160038401602089016113d7565b600160fd1b600392909101918201528351611c6f8160048401602088016113d7565b0160040195945050505050565b60008351611c8e8184602088016113d7565b7f2054203531320000000000000000000000000000000000000000000000000000908301908152600160fd1b60068201528351611cd28160078401602088016113d7565b01600701949350505050565b60008351611cf08184602088016113d7565b7f204c2035313220353132204c203020353132207a222066696c6c3d22000000009083019081528351611d2a81601c8401602088016113d7565b7f222f3e0000000000000000000000000000000000000000000000000000000000601c9290910191820152601f01949350505050565b7f3c7376672076696577426f783d2230203020353132203531322220786d6c6e7381527f3d22687474703a2f2f7777772e77332e6f72672f323030302f737667223e000060208201527f3c636c6970506174682069643d22626f78223e3c7061746820643d224d302030603e8201527f683531327635313248307a222f3e3c2f636c6970506174683e00000000000000605e8201527f3c7376672076696577426f783d2230203020353132203531322220636c69702d60778201527f706174683d2275726c2823626f7829223e000000000000000000000000000000609782015260008251611e568160a88501602087016113d7565b7f3c2f7376673e3c2f7376673e000000000000000000000000000000000000000060a893909101928301525060b401919050565b7f226e616d65223a2022636861696e656c6c6174696f6e20576176657320230000815260008251611ec281601e8501602087016113d7565b7f222c000000000000000000000000000000000000000000000000000000000000601e9390910192830152507f226465736372697074696f6e223a20224120576176652053696c686f7565747460208201527f6520666f7220796f75722054776f204d6f6f6e73204e6967687420536b7922006040820152605f01919050565b7f7b00000000000000000000000000000000000000000000000000000000000000815260008351611f7a8160018501602088016113d7565b7f2c000000000000000000000000000000000000000000000000000000000000006001918401918201527f22696d616765223a20220000000000000000000000000000000000000000000060028201528351611fdd81600c8401602088016113d7565b7f2200000000000000000000000000000000000000000000000000000000000000600c92909101918201527f7d00000000000000000000000000000000000000000000000000000000000000600d820152600e01949350505050565b7f646174613a6170706c69636174696f6e2f6a736f6e3b6261736536342c00000081526000825161207181601d8501602087016113d7565b91909101601d0192915050565b8082018082111561088b5761088b61193a565b6000826120a0576120a061198b565b500490565b808202811582820484141761088b5761088b61193a56fe4142434445464748494a4b4c4d4e4f505152535455565758595a6162636465666768696a6b6c6d6e6f707172737475767778797a303132333435363738392b2fa2646970667358221220a87907a8e7d64d58b9ac202e17e22e47ecc56fc0aa3623c78405e6295315dc3864736f6c63430008120033",
  "deployedBytecode": "0x608060405234801561001057600080fd5b50600436106100c95760003560e01c80636352211e11610081578063960384e81161005b578063960384e8146101e8578063a574cea4146101fb578063c87b56dd1461020e57600080fd5b80636352211e1461015b57806370a08231146101935780637a181597146101b557600080fd5b80630daefed5116100b25780630daefed5146101225780630f567add146101355780633c03c2e31461014857600080fd5b806302e9dd09146100ce57806306febcba146100f7575b600080fd5b6100e16100dc366004611331565b610221565b6040516100ee91906113fb565b60405180910390f35b61012061010536600461142e565b6000908152602081905260409020805460ff19166001179055565b005b6100e161013036600461142e565b610278565b6100e161014336600461149c565b6103ee565b6100e16101563660046114c9565b610891565b61016e61016936600461142e565b503290565b60405173ffffffffffffffffffffffffffffffffffffffff90911681526020016100ee565b6101a76101a1366004611530565b50600190565b6040519081526020016100ee565b6101d86101c336600461142e565b60006020819052908152604090205460ff1681565b60405190151581526020016100ee565b6100e16101f6366004611331565b610f30565b6100e161020936600461142e565b610f4e565b6100e161021c36600461142e565b610f7f565b6040805160608181018352855161ffff16825260646020830152601e9282019290925261024f9086906103ee565b60405160200161025f9190611589565b6040516020818303038152906040529050949350505050565b6060600073__$11e21e6c56ca563b85c74e3fd3a08242f9$__63974bec188473__$11e21e6c56ca563b85c74e3fd3a08242f9$__638f6aa355876040518263ffffffff1660e01b81526004016102d091815260200190565b602060405180830381865af41580156102ed573d6000803e3d6000fd5b505050506040513d601f19601f820116820180604052508101906103119190611774565b6040516001600160e01b031960e085901b168152600481019290925263ffffffff1660248201526000604482018190526064820152608401608060405180830381865af4158015610366573d6000803e3d6000fd5b505050506040513d601f19601f8201168201806040525081019061038a919061179a565b9050600061039c848360006001610f30565b6040516020016103ac9190611801565b60405160208183030381529060405290506103c681610fe7565b6040516020016103d6919061181d565b60405160208183030381529060405292505050919050565b6040805160208082018352600080835283517f1c1ed559000000000000000000000000000000000000000000000000000000008152855161ffff9081166004830152928601518316602482015293850151909116604484015260609273__$11e21e6c56ca563b85c74e3fd3a08242f9$__90631c1ed55990606401606060405180830381865af4158015610486573d6000803e3d6000fd5b505050506040513d601f19601f820116820180604052508101906104aa9190611862565b9050816040516020016104bd91906118b6565b60408051808303601f190181529082905263210636e960e01b825260048201879052610d5760248301526101186044830152600a6064830152925060009073__$11e21e6c56ca563b85c74e3fd3a08242f9$__9063210636e990608401602060405180830381865af4158015610537573d6000803e3d6000fd5b505050506040513d601f19601f8201168201806040525081019061055b919061191d565b9050601960326000805b60068161ffff161015610860576040517fdcaa2044000000000000000000000000000000000000000000000000000000008152600481018b905261ffff808316602483015286166044820152600a606482015273__$11e21e6c56ca563b85c74e3fd3a08242f9$__9063dcaa204490608401602060405180830381865af41580156105f4573d6000803e3d6000fd5b505050506040513d601f19601f82011682018060405250810190610618919061191d565b61062390601e611950565b6040517f3a20c87900000000000000000000000000000000000000000000000000000000815260048181018d905261ffff8416602483015291965073__$11e21e6c56ca563b85c74e3fd3a08242f9$__90633a20c87990604401602060405180830381865af415801561069a573d6000803e3d6000fd5b505050506040513d601f19601f820116820180604052508101906106be9190611972565b6106c891906119a1565b6106d3906003611950565b915073__$11e21e6c56ca563b85c74e3fd3a08242f9$__633329f04f856106fb846001611950565b6107069060016119b5565b6040516001600160e01b031960e085901b16815261ffff928316600482015291166024820152604401602060405180830381865af415801561074c573d6000803e3d6000fd5b505050506040513d601f19601f82011682018060405250810190610770919061191d565b61ffff16602087015273__$11e21e6c56ca563b85c74e3fd3a08242f9$__633329f04f8461079f8460046119b5565b6107aa906003611950565b6040516001600160e01b031960e085901b16815261ffff928316600482015291166024820152604401602060405180830381865af41580156107f0573d6000803e3d6000fd5b505050506040513d601f19601f82011682018060405250810190610814919061191d565b61ffff1660408701528661082b8b88848987610891565b60405160200161083c9291906119db565b6040516020818303038152906040529650808061085890611a0a565b915050610565565b50856040516020016108729190611a2b565b60408051601f1981840301815291905296505050505050505b92915050565b6060600073__$11e21e6c56ca563b85c74e3fd3a08242f9$__63210636e988876108bd87610200611a53565b6040516001600160e01b031960e086901b168152600481019390935261ffff9182166024840152166044820152600a6064820152608401602060405180830381865af4158015610911573d6000803e3d6000fd5b505050506040513d601f19601f82011682018060405250810190610935919061191d565b604051631b0d4b4d60e01b815261ffff8616600482015290915060009073__$11e21e6c56ca563b85c74e3fd3a08242f9$__90631b0d4b4d90602401600060405180830381865af415801561098e573d6000803e3d6000fd5b505050506040513d6000823e601f3d908101601f191682016040526109b69190810190611a74565b73__$11e21e6c56ca563b85c74e3fd3a08242f9$__631b0d4b4d6109db600286611a53565b6040516001600160e01b031960e084901b16815261ffff9091166004820152602401600060405180830381865af4158015610a1a573d6000803e3d6000fd5b505050506040513d6000823e601f3d908101601f19168201604052610a429190810190611a74565b60405163210636e960e01b8152600481018b905261ffff808a16602483015288166044820152604b606482015273__$11e21e6c56ca563b85c74e3fd3a08242f9$__90631b0d4b4d90829063210636e990608401602060405180830381865af4158015610ab3573d6000803e3d6000fd5b505050506040513d601f19601f82011682018060405250810190610ad7919061191d565b6040516001600160e01b031960e084901b16815261ffff9091166004820152602401600060405180830381865af4158015610b16573d6000803e3d6000fd5b505050506040513d6000823e601f3d908101601f19168201604052610b3e9190810190611a74565b604051631b0d4b4d60e01b815261ffff8616600482015273__$11e21e6c56ca563b85c74e3fd3a08242f9$__90631b0d4b4d90602401600060405180830381865af4158015610b91573d6000803e3d6000fd5b505050506040513d6000823e601f3d908101601f19168201604052610bb99190810190611a74565b604051631b0d4b4d60e01b815261ffff8a16600482015273__$11e21e6c56ca563b85c74e3fd3a08242f9$__90631b0d4b4d90602401600060405180830381865af4158015610c0c573d6000803e3d6000fd5b505050506040513d6000823e601f3d908101601f19168201604052610c349190810190611a74565b604051602001610c48959493929190611b21565b604051602081830303815290604052905060005b8461ffff168161ffff161015610db4578173__$11e21e6c56ca563b85c74e3fd3a08242f9$__631b0d4b4d610c92846002611950565b610c9c90876119b5565b6040516001600160e01b031960e084901b16815261ffff9091166004820152602401600060405180830381865af4158015610cdb573d6000803e3d6000fd5b505050506040513d6000823e601f3d908101601f19168201604052610d039190810190611a74565b604051631b0d4b4d60e01b815261ffff8916600482015273__$11e21e6c56ca563b85c74e3fd3a08242f9$__90631b0d4b4d90602401600060405180830381865af4158015610d56573d6000803e3d6000fd5b505050506040513d6000823e601f3d908101601f19168201604052610d7e9190810190611a74565b604051602001610d9093929190611c01565b60405160208183030381529060405291508080610dac90611a0a565b915050610c5c565b50604051631b0d4b4d60e01b815261ffff86166004820152819073__$11e21e6c56ca563b85c74e3fd3a08242f9$__90631b0d4b4d90602401600060405180830381865af4158015610e0a573d6000803e3d6000fd5b505050506040513d6000823e601f3d908101601f19168201604052610e329190810190611a74565b604051602001610e43929190611c7c565b60408051808303601f190181528282527f0fc5c9fc000000000000000000000000000000000000000000000000000000008352895161ffff908116600485015260208b015181166024850152918a015190911660448301529150819073__$11e21e6c56ca563b85c74e3fd3a08242f9$__90630fc5c9fc90606401600060405180830381865af4158015610edb573d6000803e3d6000fd5b505050506040513d6000823e601f3d908101601f19168201604052610f039190810190611a74565b604051602001610f14929190611cde565b60408051808303601f1901815291905298975050505050505050565b6060610f3e85858585610221565b60405160200161025f9190611d60565b6060610f598261113a565b604051602001610f699190611e8a565b6040516020818303038152906040529050919050565b60606000610f8c83610f4e565b610f9584610278565b604051602001610fa6929190611f42565b6040516020818303038152906040529050610fc081610fe7565b604051602001610fd09190612039565b604051602081830303815290604052915050919050565b6060815160000361100657505060408051602081019091526000815290565b60006040518060600160405280604081526020016120bd6040913990506000600384516002611035919061207e565b61103f9190612091565b61104a9060046120a5565b67ffffffffffffffff811115611062576110626112bc565b6040519080825280601f01601f19166020018201604052801561108c576020820181803683370190505b509050600182016020820185865187015b808210156110f8576003820191508151603f8160121c168501518453600184019350603f81600c1c168501518453600184019350603f8160061c168501518453600184019350603f811685015184535060018301925061109d565b505060038651066001811461111457600281146111275761112f565b603d6001830353603d600283035361112f565b603d60018303535b509195945050505050565b60606000611147836111da565b600101905060008167ffffffffffffffff811115611167576111676112bc565b6040519080825280601f01601f191660200182016040528015611191576020820181803683370190505b5090508181016020015b600019017f3031323334353637383961626364656600000000000000000000000000000000600a86061a8153600a850494508461119b57509392505050565b6000807a184f03e93ff9f4daa797ed6e38ed64bf6a1f0100000000000000008310611223577a184f03e93ff9f4daa797ed6e38ed64bf6a1f010000000000000000830492506040015b6d04ee2d6d415b85acef8100000000831061124f576d04ee2d6d415b85acef8100000000830492506020015b662386f26fc10000831061126d57662386f26fc10000830492506010015b6305f5e1008310611285576305f5e100830492506008015b612710831061129957612710830492506004015b606483106112ab576064830492506002015b600a831061088b5760010192915050565b634e487b7160e01b600052604160045260246000fd5b6040516080810167ffffffffffffffff811182821017156112f5576112f56112bc565b60405290565b6040516060810167ffffffffffffffff811182821017156112f5576112f56112bc565b61ffff8116811461132e57600080fd5b50565b60008060008084860360e081121561134857600080fd5b853594506080601f198201121561135e57600080fd5b506113676112d2565b60208601356113758161131e565b815260408601356113858161131e565b602082015260608601356113988161131e565b604082015260808601356113ab8161131e565b6060820152925060a0850135915060c085013580151581146113cc57600080fd5b939692955090935050565b60005b838110156113f25781810151838201526020016113da565b50506000910152565b602081526000825180602084015261141a8160408501602087016113d7565b601f01601f19169190910160400192915050565b60006020828403121561144057600080fd5b5035919050565b60006060828403121561145957600080fd5b6114616112fb565b9050813561146e8161131e565b8152602082013561147e8161131e565b602082015260408201356114918161131e565b604082015292915050565b600080608083850312156114af57600080fd5b823591506114c08460208501611447565b90509250929050565b600080600080600060e086880312156114e157600080fd5b853594506114f28760208801611447565b935060808601356115028161131e565b925060a08601356115128161131e565b915060c08601356115228161131e565b809150509295509295909350565b60006020828403121561154257600080fd5b813573ffffffffffffffffffffffffffffffffffffffff8116811461156657600080fd5b9392505050565b6000815161157f8185602086016113d7565b9290920192915050565b7f3c672069643d2273696c686f7565747465223e0000000000000000000000000081527f3c66696c7465722069643d226c69676874223e3c6665446966667573654c696760138201527f6874696e6720726573756c743d22646966664f75742220696e3d22536f75726360338201527f6547726170686963222064696666757365436f6e7374616e743d223122206c6960538201527f676874696e672d636f6c6f723d227768697465223e3c666544697374616e744c60738201527f6967687420617a696d7574683d2234352220656c65766174696f6e3d2239302260938201527f2f3e00000000000000000000000000000000000000000000000000000000000060b38201527f3c2f6665446966667573654c69676874696e673e3c6665436f6d706f7369746560b58201527f20696e3d22536f75726365477261706869632220696e323d22646966664f757460d58201527f22206f75743d226c22206f70657261746f723d2261726974686d65746963222060f58201527f6b313d223222206b323d223122206b333d223022206b343d2230222f3e3c2f666101158201527f696c7465723e0000000000000000000000000000000000000000000000000000610135820152600061176061013b83018461156d565b631e17b39f60e11b81526004019392505050565b60006020828403121561178657600080fd5b815163ffffffff8116811461156657600080fd5b6000608082840312156117ac57600080fd5b6117b46112d2565b82516117bf8161131e565b815260208301516117cf8161131e565b602082015260408301516117e28161131e565b604082015260608301516117f58161131e565b60608201529392505050565b600082516118138184602087016113d7565b9190910192915050565b7f646174613a696d6167652f7376672b786d6c3b6261736536342c00000000000081526000825161185581601a8501602087016113d7565b91909101601a0192915050565b60006060828403121561187457600080fd5b61187c6112fb565b82516118878161131e565b815260208301516118978161131e565b602082015260408301516118aa8161131e565b60408201529392505050565b600082516118c88184602087016113d7565b7f3c672066696c7465723d2275726c28236c696768742922207374726f6b653d229201918252507f626c61636b22207374726f6b652d77696474683d2231223e00000000000000006020820152603801919050565b60006020828403121561192f57600080fd5b81516115668161131e565b634e487b7160e01b600052601160045260246000fd5b61ffff81811683821601908082111561196b5761196b61193a565b5092915050565b60006020828403121561198457600080fd5b5051919050565b634e487b7160e01b600052601260045260246000fd5b6000826119b0576119b061198b565b500690565b61ffff8181168382160280821691908281146119d3576119d361193a565b505092915050565b600083516119ed8184602088016113d7565b835190830190611a018183602088016113d7565b01949350505050565b600061ffff808316818103611a2157611a2161193a565b6001019392505050565b60008251611a3d8184602087016113d7565b631e17b39f60e11b920191825250600401919050565b600061ffff80841680611a6857611a6861198b565b92169190910492915050565b600060208284031215611a8657600080fd5b815167ffffffffffffffff80821115611a9e57600080fd5b818401915084601f830112611ab257600080fd5b815181811115611ac457611ac46112bc565b604051601f8201601f19908116603f01168101908382118183101715611aec57611aec6112bc565b81604052828152876020848701011115611b0557600080fd5b611b168360208301602088016113d7565b979650505050505050565b7f3c7061746820643d224d20302000000000000000000000000000000000000000815260008651611b5981600d850160208b016113d7565b7f5120000000000000000000000000000000000000000000000000000000000000600d918401918201528651611b9681600f840160208b016113d7565b808201915050600160fd1b80600f8301528651611bba816010850160208b016113d7565b601092019182018190528551611bd7816011850160208a016113d7565b60119201918201528351611bf28160128401602088016113d7565b01601201979650505050505050565b60008451611c138184602089016113d7565b7f20542000000000000000000000000000000000000000000000000000000000009083019081528451611c4d8160038401602089016113d7565b600160fd1b600392909101918201528351611c6f8160048401602088016113d7565b0160040195945050505050565b60008351611c8e8184602088016113d7565b7f2054203531320000000000000000000000000000000000000000000000000000908301908152600160fd1b60068201528351611cd28160078401602088016113d7565b01600701949350505050565b60008351611cf08184602088016113d7565b7f204c2035313220353132204c203020353132207a222066696c6c3d22000000009083019081528351611d2a81601c8401602088016113d7565b7f222f3e0000000000000000000000000000000000000000000000000000000000601c9290910191820152601f01949350505050565b7f3c7376672076696577426f783d2230203020353132203531322220786d6c6e7381527f3d22687474703a2f2f7777772e77332e6f72672f323030302f737667223e000060208201527f3c636c6970506174682069643d22626f78223e3c7061746820643d224d302030603e8201527f683531327635313248307a222f3e3c2f636c6970506174683e00000000000000605e8201527f3c7376672076696577426f783d2230203020353132203531322220636c69702d60778201527f706174683d2275726c2823626f7829223e000000000000000000000000000000609782015260008251611e568160a88501602087016113d7565b7f3c2f7376673e3c2f7376673e000000000000000000000000000000000000000060a893909101928301525060b401919050565b7f226e616d65223a2022636861696e656c6c6174696f6e20576176657320230000815260008251611ec281601e8501602087016113d7565b7f222c000000000000000000000000000000000000000000000000000000000000601e9390910192830152507f226465736372697074696f6e223a20224120576176652053696c686f7565747460208201527f6520666f7220796f75722054776f204d6f6f6e73204e6967687420536b7922006040820152605f01919050565b7f7b00000000000000000000000000000000000000000000000000000000000000815260008351611f7a8160018501602088016113d7565b7f2c000000000000000000000000000000000000000000000000000000000000006001918401918201527f22696d616765223a20220000000000000000000000000000000000000000000060028201528351611fdd81600c8401602088016113d7565b7f2200000000000000000000000000000000000000000000000000000000000000600c92909101918201527f7d00000000000000000000000000000000000000000000000000000000000000600d820152600e01949350505050565b7f646174613a6170706c69636174696f6e2f6a736f6e3b6261736536342c00000081526000825161207181601d8501602087016113d7565b91909101601d0192915050565b8082018082111561088b5761088b61193a565b6000826120a0576120a061198b565b500490565b808202811582820484141761088b5761088b61193a56fe4142434445464748494a4b4c4d4e4f505152535455565758595a6162636465666768696a6b6c6d6e6f707172737475767778797a303132333435363738392b2fa2646970667358221220a87907a8e7d64d58b9ac202e17e22e47ecc56fc0aa3623c78405e6295315dc3864736f6c63430008120033",
  "libraries": {
    "Color": "0x5FbDB2315678afecb367f032d93F642f64180aa3"
  },
  "devdoc": {
    "kind": "dev",
    "methods": {},
    "version": 1
  },
  "userdoc": {
    "kind": "user",
    "methods": {},
    "version": 1
  },
  "storageLayout": {
    "storage": [
      {
        "astId": 8430,
        "contract": "contracts/chainellations/decos/Waves.sol:Waves",
        "label": "soulbound",
        "offset": 0,
        "slot": "0",
        "type": "t_mapping(t_uint256,t_bool)"
      }
    ],
    "types": {
      "t_bool": {
        "encoding": "inplace",
        "label": "bool",
        "numberOfBytes": "1"
      },
      "t_mapping(t_uint256,t_bool)": {
        "encoding": "mapping",
        "key": "t_uint256",
        "label": "mapping(uint256 => bool)",
        "numberOfBytes": "32",
        "value": "t_bool"
      },
      "t_uint256": {
        "encoding": "inplace",
        "label": "uint256",
        "numberOfBytes": "32"
      }
    }
  }
}