{
  "address": "0x45d45517f1000f188A94b67B74650CD1Dc9190Ad",
  "abi": [
    {
      "inputs": [
        {
          "internalType": "address",
          "name": "renderer",
          "type": "address"
        }
      ],
      "stateMutability": "nonpayable",
      "type": "constructor"
    },
    {
      "inputs": [],
      "name": "Cost",
      "type": "error"
    },
    {
      "inputs": [],
      "name": "MaxSupplyReached",
      "type": "error"
    },
    {
      "inputs": [],
      "name": "NotEnoughTimePassed",
      "type": "error"
    },
    {
      "inputs": [],
      "name": "NotMinted",
      "type": "error"
    },
    {
      "inputs": [],
      "name": "NotNight",
      "type": "error"
    },
    {
      "inputs": [],
      "name": "NotTheOwner",
      "type": "error"
    },
    {
      "inputs": [],
      "name": "TooCloudy",
      "type": "error"
    },
    {
      "anonymous": false,
      "inputs": [
        {
          "indexed": true,
          "internalType": "address",
          "name": "owner",
          "type": "address"
        },
        {
          "indexed": true,
          "internalType": "address",
          "name": "approved",
          "type": "address"
        },
        {
          "indexed": true,
          "internalType": "uint256",
          "name": "tokenId",
          "type": "uint256"
        }
      ],
      "name": "Approval",
      "type": "event"
    },
    {
      "anonymous": false,
      "inputs": [
        {
          "indexed": true,
          "internalType": "address",
          "name": "owner",
          "type": "address"
        },
        {
          "indexed": true,
          "internalType": "address",
          "name": "operator",
          "type": "address"
        },
        {
          "indexed": false,
          "internalType": "bool",
          "name": "approved",
          "type": "bool"
        }
      ],
      "name": "ApprovalForAll",
      "type": "event"
    },
    {
      "anonymous": false,
      "inputs": [
        {
          "indexed": true,
          "internalType": "address",
          "name": "previousOwner",
          "type": "address"
        },
        {
          "indexed": true,
          "internalType": "address",
          "name": "newOwner",
          "type": "address"
        }
      ],
      "name": "OwnershipTransferred",
      "type": "event"
    },
    {
      "anonymous": false,
      "inputs": [
        {
          "indexed": true,
          "internalType": "address",
          "name": "from",
          "type": "address"
        },
        {
          "indexed": true,
          "internalType": "address",
          "name": "to",
          "type": "address"
        },
        {
          "indexed": true,
          "internalType": "uint256",
          "name": "tokenId",
          "type": "uint256"
        }
      ],
      "name": "Transfer",
      "type": "event"
    },
    {
      "inputs": [
        {
          "internalType": "address",
          "name": "to",
          "type": "address"
        },
        {
          "internalType": "uint256",
          "name": "tokenId",
          "type": "uint256"
        }
      ],
      "name": "approve",
      "outputs": [],
      "stateMutability": "nonpayable",
      "type": "function"
    },
    {
      "inputs": [
        {
          "internalType": "address",
          "name": "owner",
          "type": "address"
        }
      ],
      "name": "balanceOf",
      "outputs": [
        {
          "internalType": "uint256",
          "name": "",
          "type": "uint256"
        }
      ],
      "stateMutability": "view",
      "type": "function"
    },
    {
      "inputs": [
        {
          "internalType": "uint256",
          "name": "",
          "type": "uint256"
        }
      ],
      "name": "cloudsAt",
      "outputs": [
        {
          "internalType": "uint8",
          "name": "",
          "type": "uint8"
        }
      ],
      "stateMutability": "view",
      "type": "function"
    },
    {
      "inputs": [
        {
          "internalType": "uint256",
          "name": "",
          "type": "uint256"
        }
      ],
      "name": "colors",
      "outputs": [
        {
          "internalType": "uint32",
          "name": "",
          "type": "uint32"
        }
      ],
      "stateMutability": "view",
      "type": "function"
    },
    {
      "inputs": [
        {
          "internalType": "uint256",
          "name": "",
          "type": "uint256"
        }
      ],
      "name": "constellation",
      "outputs": [
        {
          "internalType": "uint8",
          "name": "",
          "type": "uint8"
        }
      ],
      "stateMutability": "view",
      "type": "function"
    },
    {
      "inputs": [],
      "name": "contractURI",
      "outputs": [
        {
          "internalType": "string",
          "name": "",
          "type": "string"
        }
      ],
      "stateMutability": "view",
      "type": "function"
    },
    {
      "inputs": [],
      "name": "currentSupply",
      "outputs": [
        {
          "internalType": "uint256",
          "name": "",
          "type": "uint256"
        }
      ],
      "stateMutability": "view",
      "type": "function"
    },
    {
      "inputs": [],
      "name": "customizeCost",
      "outputs": [
        {
          "internalType": "uint256",
          "name": "",
          "type": "uint256"
        }
      ],
      "stateMutability": "view",
      "type": "function"
    },
    {
      "inputs": [
        {
          "internalType": "uint256",
          "name": "",
          "type": "uint256"
        }
      ],
      "name": "dnas",
      "outputs": [
        {
          "internalType": "uint256",
          "name": "tokenId",
          "type": "uint256"
        },
        {
          "internalType": "uint16",
          "name": "primaryHue",
          "type": "uint16"
        },
        {
          "internalType": "uint16",
          "name": "secondaryHue",
          "type": "uint16"
        },
        {
          "internalType": "uint8",
          "name": "constellation",
          "type": "uint8"
        },
        {
          "internalType": "uint8",
          "name": "cloudsAt",
          "type": "uint8"
        },
        {
          "internalType": "uint256",
          "name": "starSeed",
          "type": "uint256"
        },
        {
          "internalType": "uint256",
          "name": "funkSeed",
          "type": "uint256"
        },
        {
          "internalType": "uint256",
          "name": "circleSeed",
          "type": "uint256"
        },
        {
          "internalType": "uint256",
          "name": "groundSeed",
          "type": "uint256"
        }
      ],
      "stateMutability": "view",
      "type": "function"
    },
    {
      "inputs": [
        {
          "internalType": "uint32",
          "name": "timezoneOffset",
          "type": "uint32"
        }
      ],
      "name": "freeMint",
      "outputs": [],
      "stateMutability": "nonpayable",
      "type": "function"
    },
    {
      "inputs": [
        {
          "internalType": "uint256[]",
          "name": "tokenIds",
          "type": "uint256[]"
        }
      ],
      "name": "gazeBatch",
      "outputs": [],
      "stateMutability": "nonpayable",
      "type": "function"
    },
    {
      "inputs": [
        {
          "internalType": "uint256",
          "name": "",
          "type": "uint256"
        }
      ],
      "name": "gazes",
      "outputs": [
        {
          "internalType": "uint16",
          "name": "",
          "type": "uint16"
        }
      ],
      "stateMutability": "view",
      "type": "function"
    },
    {
      "inputs": [
        {
          "internalType": "uint256",
          "name": "tokenId",
          "type": "uint256"
        }
      ],
      "name": "generateCharacter",
      "outputs": [
        {
          "internalType": "string",
          "name": "",
          "type": "string"
        }
      ],
      "stateMutability": "view",
      "type": "function"
    },
    {
      "inputs": [
        {
          "internalType": "uint256",
          "name": "_tokenId",
          "type": "uint256"
        },
        {
          "internalType": "uint256",
          "name": "_gazed",
          "type": "uint256"
        },
        {
          "internalType": "bool",
          "name": "_sunUp",
          "type": "bool"
        },
        {
          "internalType": "uint8",
          "name": "testConstellation",
          "type": "uint8"
        }
      ],
      "name": "generateSVG",
      "outputs": [
        {
          "internalType": "string",
          "name": "",
          "type": "string"
        }
      ],
      "stateMutability": "view",
      "type": "function"
    },
    {
      "inputs": [
        {
          "internalType": "uint256",
          "name": "tokenId",
          "type": "uint256"
        }
      ],
      "name": "getApproved",
      "outputs": [
        {
          "internalType": "address",
          "name": "",
          "type": "address"
        }
      ],
      "stateMutability": "view",
      "type": "function"
    },
    {
      "inputs": [
        {
          "internalType": "uint256",
          "name": "tokenId",
          "type": "uint256"
        }
      ],
      "name": "getCloudsAt",
      "outputs": [
        {
          "internalType": "uint8",
          "name": "",
          "type": "uint8"
        }
      ],
      "stateMutability": "view",
      "type": "function"
    },
    {
      "inputs": [
        {
          "internalType": "uint256",
          "name": "tokenId",
          "type": "uint256"
        }
      ],
      "name": "getColors",
      "outputs": [
        {
          "internalType": "uint32",
          "name": "",
          "type": "uint32"
        }
      ],
      "stateMutability": "view",
      "type": "function"
    },
    {
      "inputs": [
        {
          "internalType": "uint256",
          "name": "tokenId",
          "type": "uint256"
        }
      ],
      "name": "getConstellation",
      "outputs": [
        {
          "internalType": "uint8",
          "name": "",
          "type": "uint8"
        }
      ],
      "stateMutability": "view",
      "type": "function"
    },
    {
      "inputs": [
        {
          "internalType": "address",
          "name": "owner",
          "type": "address"
        },
        {
          "internalType": "address",
          "name": "operator",
          "type": "address"
        }
      ],
      "name": "isApprovedForAll",
      "outputs": [
        {
          "internalType": "bool",
          "name": "",
          "type": "bool"
        }
      ],
      "stateMutability": "view",
      "type": "function"
    },
    {
      "inputs": [
        {
          "internalType": "uint256",
          "name": "tokenId",
          "type": "uint256"
        }
      ],
      "name": "isNight",
      "outputs": [
        {
          "internalType": "bool",
          "name": "",
          "type": "bool"
        }
      ],
      "stateMutability": "view",
      "type": "function"
    },
    {
      "inputs": [
        {
          "internalType": "uint256",
          "name": "",
          "type": "uint256"
        }
      ],
      "name": "lastGaze",
      "outputs": [
        {
          "internalType": "uint256",
          "name": "",
          "type": "uint256"
        }
      ],
      "stateMutability": "view",
      "type": "function"
    },
    {
      "inputs": [],
      "name": "maxSupply",
      "outputs": [
        {
          "internalType": "uint256",
          "name": "",
          "type": "uint256"
        }
      ],
      "stateMutability": "view",
      "type": "function"
    },
    {
      "inputs": [
        {
          "internalType": "uint32",
          "name": "timezoneOffset",
          "type": "uint32"
        }
      ],
      "name": "mint",
      "outputs": [],
      "stateMutability": "payable",
      "type": "function"
    },
    {
      "inputs": [],
      "name": "mintCost",
      "outputs": [
        {
          "internalType": "uint256",
          "name": "",
          "type": "uint256"
        }
      ],
      "stateMutability": "view",
      "type": "function"
    },
    {
      "inputs": [
        {
          "internalType": "uint32",
          "name": "timezoneOffset",
          "type": "uint32"
        },
        {
          "internalType": "uint16",
          "name": "firstH",
          "type": "uint16"
        },
        {
          "internalType": "uint16",
          "name": "secondH",
          "type": "uint16"
        },
        {
          "internalType": "uint8",
          "name": "_constellation",
          "type": "uint8"
        },
        {
          "internalType": "uint8",
          "name": "_cloudsAt",
          "type": "uint8"
        }
      ],
      "name": "mintCustom",
      "outputs": [],
      "stateMutability": "payable",
      "type": "function"
    },
    {
      "inputs": [],
      "name": "name",
      "outputs": [
        {
          "internalType": "string",
          "name": "",
          "type": "string"
        }
      ],
      "stateMutability": "view",
      "type": "function"
    },
    {
      "inputs": [],
      "name": "owner",
      "outputs": [
        {
          "internalType": "address",
          "name": "",
          "type": "address"
        }
      ],
      "stateMutability": "view",
      "type": "function"
    },
    {
      "inputs": [
        {
          "internalType": "uint256",
          "name": "tokenId",
          "type": "uint256"
        }
      ],
      "name": "ownerOf",
      "outputs": [
        {
          "internalType": "address",
          "name": "",
          "type": "address"
        }
      ],
      "stateMutability": "view",
      "type": "function"
    },
    {
      "inputs": [],
      "name": "renounceOwnership",
      "outputs": [],
      "stateMutability": "nonpayable",
      "type": "function"
    },
    {
      "inputs": [
        {
          "internalType": "uint256",
          "name": "tokenId",
          "type": "uint256"
        }
      ],
      "name": "reset",
      "outputs": [],
      "stateMutability": "nonpayable",
      "type": "function"
    },
    {
      "inputs": [
        {
          "internalType": "address",
          "name": "from",
          "type": "address"
        },
        {
          "internalType": "address",
          "name": "to",
          "type": "address"
        },
        {
          "internalType": "uint256",
          "name": "tokenId",
          "type": "uint256"
        }
      ],
      "name": "safeTransferFrom",
      "outputs": [],
      "stateMutability": "nonpayable",
      "type": "function"
    },
    {
      "inputs": [
        {
          "internalType": "address",
          "name": "from",
          "type": "address"
        },
        {
          "internalType": "address",
          "name": "to",
          "type": "address"
        },
        {
          "internalType": "uint256",
          "name": "tokenId",
          "type": "uint256"
        },
        {
          "internalType": "bytes",
          "name": "data",
          "type": "bytes"
        }
      ],
      "name": "safeTransferFrom",
      "outputs": [],
      "stateMutability": "nonpayable",
      "type": "function"
    },
    {
      "inputs": [
        {
          "internalType": "address",
          "name": "operator",
          "type": "address"
        },
        {
          "internalType": "bool",
          "name": "approved",
          "type": "bool"
        }
      ],
      "name": "setApprovalForAll",
      "outputs": [],
      "stateMutability": "nonpayable",
      "type": "function"
    },
    {
      "inputs": [
        {
          "internalType": "uint256",
          "name": "_newCost",
          "type": "uint256"
        }
      ],
      "name": "setCustomizeCost",
      "outputs": [],
      "stateMutability": "nonpayable",
      "type": "function"
    },
    {
      "inputs": [
        {
          "internalType": "address",
          "name": "decorator",
          "type": "address"
        }
      ],
      "name": "setDecorator",
      "outputs": [],
      "stateMutability": "nonpayable",
      "type": "function"
    },
    {
      "inputs": [
        {
          "internalType": "uint256",
          "name": "_maxSupply",
          "type": "uint256"
        }
      ],
      "name": "setMaxSupply",
      "outputs": [],
      "stateMutability": "nonpayable",
      "type": "function"
    },
    {
      "inputs": [
        {
          "internalType": "uint256",
          "name": "_newMintCost",
          "type": "uint256"
        }
      ],
      "name": "setMintCost",
      "outputs": [],
      "stateMutability": "nonpayable",
      "type": "function"
    },
    {
      "inputs": [
        {
          "internalType": "address",
          "name": "renderer",
          "type": "address"
        }
      ],
      "name": "setRenderer",
      "outputs": [],
      "stateMutability": "nonpayable",
      "type": "function"
    },
    {
      "inputs": [
        {
          "internalType": "address",
          "name": "twoMoonsEvent",
          "type": "address"
        }
      ],
      "name": "setTwoMoonsEvent",
      "outputs": [],
      "stateMutability": "nonpayable",
      "type": "function"
    },
    {
      "inputs": [
        {
          "internalType": "uint256",
          "name": "tokenId",
          "type": "uint256"
        }
      ],
      "name": "starGaze",
      "outputs": [],
      "stateMutability": "nonpayable",
      "type": "function"
    },
    {
      "inputs": [
        {
          "internalType": "bytes4",
          "name": "interfaceId",
          "type": "bytes4"
        }
      ],
      "name": "supportsInterface",
      "outputs": [
        {
          "internalType": "bool",
          "name": "",
          "type": "bool"
        }
      ],
      "stateMutability": "view",
      "type": "function"
    },
    {
      "inputs": [],
      "name": "symbol",
      "outputs": [
        {
          "internalType": "string",
          "name": "",
          "type": "string"
        }
      ],
      "stateMutability": "view",
      "type": "function"
    },
    {
      "inputs": [],
      "name": "systemTime",
      "outputs": [
        {
          "internalType": "uint256",
          "name": "",
          "type": "uint256"
        }
      ],
      "stateMutability": "view",
      "type": "function"
    },
    {
      "inputs": [
        {
          "internalType": "uint256",
          "name": "tokenId",
          "type": "uint256"
        }
      ],
      "name": "systemTimeOffsetWithUser",
      "outputs": [
        {
          "internalType": "uint256",
          "name": "",
          "type": "uint256"
        }
      ],
      "stateMutability": "view",
      "type": "function"
    },
    {
      "inputs": [
        {
          "internalType": "uint256",
          "name": "",
          "type": "uint256"
        }
      ],
      "name": "timeZoneOffset",
      "outputs": [
        {
          "internalType": "uint32",
          "name": "",
          "type": "uint32"
        }
      ],
      "stateMutability": "view",
      "type": "function"
    },
    {
      "inputs": [
        {
          "internalType": "uint256",
          "name": "index",
          "type": "uint256"
        }
      ],
      "name": "tokenByIndex",
      "outputs": [
        {
          "internalType": "uint256",
          "name": "",
          "type": "uint256"
        }
      ],
      "stateMutability": "view",
      "type": "function"
    },
    {
      "inputs": [
        {
          "internalType": "address",
          "name": "owner",
          "type": "address"
        },
        {
          "internalType": "uint256",
          "name": "index",
          "type": "uint256"
        }
      ],
      "name": "tokenOfOwnerByIndex",
      "outputs": [
        {
          "internalType": "uint256",
          "name": "",
          "type": "uint256"
        }
      ],
      "stateMutability": "view",
      "type": "function"
    },
    {
      "inputs": [
        {
          "internalType": "uint256",
          "name": "tokenId",
          "type": "uint256"
        }
      ],
      "name": "tokenURI",
      "outputs": [
        {
          "internalType": "string",
          "name": "",
          "type": "string"
        }
      ],
      "stateMutability": "view",
      "type": "function"
    },
    {
      "inputs": [],
      "name": "totalSupply",
      "outputs": [
        {
          "internalType": "uint256",
          "name": "",
          "type": "uint256"
        }
      ],
      "stateMutability": "view",
      "type": "function"
    },
    {
      "inputs": [
        {
          "internalType": "address",
          "name": "from",
          "type": "address"
        },
        {
          "internalType": "address",
          "name": "to",
          "type": "address"
        },
        {
          "internalType": "uint256",
          "name": "tokenId",
          "type": "uint256"
        }
      ],
      "name": "transferFrom",
      "outputs": [],
      "stateMutability": "nonpayable",
      "type": "function"
    },
    {
      "inputs": [
        {
          "internalType": "address",
          "name": "newOwner",
          "type": "address"
        }
      ],
      "name": "transferOwnership",
      "outputs": [],
      "stateMutability": "nonpayable",
      "type": "function"
    },
    {
      "inputs": [],
      "name": "withdraw",
      "outputs": [],
      "stateMutability": "nonpayable",
      "type": "function"
    },
    {
      "inputs": [
        {
          "internalType": "address",
          "name": "_tokenContract",
          "type": "address"
        },
        {
          "internalType": "uint256",
          "name": "_amount",
          "type": "uint256"
        }
      ],
      "name": "withdrawToken",
      "outputs": [],
      "stateMutability": "nonpayable",
      "type": "function"
    }
  ],
  "transactionHash": "0xba7829546dae755563baf9f0b4aa2e825c5a99aef178b610e83cbcfc518bbb67",
  "args": [
    "0x7AEA948696B9d2a50ed3BeC30037985A857997F4"
  ],
  "numDeployments": 2,
  "solcInputHash": "56930af7b938deac2ecf057e8304b3a4",
  "bytecode": "0x6080604052613a98600c556000600d556000600e553480156200002157600080fd5b5060405162003e6538038062003e65833981016040819052620000449162000141565b6040518060400160405280600d81526020016c31b430b4b732b63630ba34b7b760991b81525060405180604001604052806005815260200164535441525360d81b815250816000908162000099919062000218565b506001620000a8828262000218565b505050620000c5620000bf620000eb60201b60201c565b620000ef565b601780546001600160a01b0319166001600160a01b0392909216919091179055620002e4565b3390565b600a80546001600160a01b038381166001600160a01b0319831681179093556040519116919082907f8be0079c531659141344cd1fd0a4f28419497f9722a3daafe3b4186f6b6457e090600090a35050565b6000602082840312156200015457600080fd5b81516001600160a01b03811681146200016c57600080fd5b9392505050565b634e487b7160e01b600052604160045260246000fd5b600181811c908216806200019e57607f821691505b602082108103620001bf57634e487b7160e01b600052602260045260246000fd5b50919050565b601f8211156200021357600081815260208120601f850160051c81016020861015620001ee5750805b601f850160051c820191505b818110156200020f57828155600101620001fa565b5050505b505050565b81516001600160401b0381111562000234576200023462000173565b6200024c8162000245845462000189565b84620001c5565b602080601f8311600181146200028457600084156200026b5750858301515b600019600386901b1c1916600185901b1785556200020f565b600085815260208120601f198616915b82811015620002b55788860151825594840194600190910190840162000294565b5085821015620002d45787850151600019600388901b60f8161c191681555b5050505050600190811b01905550565b613b7180620002f46000396000f3fe60806040526004361061034a5760003560e01c80638850504a116101bb578063c1b7fa34116100f7578063dbea4da711610095578063e985e9c51161006f578063e985e9c514610a69578063ee7e418b14610ab2578063f2fde38b14610ad2578063f311968214610af257600080fd5b8063dbea4da714610a07578063e01373b114610a27578063e8a3d48514610a5457600080fd5b8063c87b56dd116100d1578063c87b56dd14610991578063cbcb0a7a146109b1578063d5abeb01146109d1578063d9be4145146109e757600080fd5b8063c1b7fa341461093e578063c230a8d514610951578063c37006201461097157600080fd5b80639e281a9811610164578063a71bbebe1161013e578063a71bbebe146108c2578063b88d4fde146108d5578063bd11f69d146108f5578063bdb4b8481461092857600080fd5b80639e281a981461086f578063a22cb4651461088f578063a6a27285146108af57600080fd5b806395d89b411161019557806395d89b41146107e65780639665e720146107fb5780639bc4f8f11461083f57600080fd5b80638850504a146107605780638da5cb5b1461078057806394688c661461079e57600080fd5b806342842e0e1161028a57806370a0823111610233578063794544401161020d57806379454440146106ea5780637fc97616146107005780638526214c146107205780638545f4ea1461074057600080fd5b806370a082311461069f578063715018a6146106bf578063771282f6146106d457600080fd5b806356d3163d1161026457806356d3163d1461063f5780636352211e1461065f5780636f8b44b01461067f57600080fd5b806342842e0e146105cf5780634e2c1175146105ef5780634f6ccce71461061f57600080fd5b80631d3cde03116102f7578063310bd74b116102d1578063310bd74b146104b157806332fdf2d7146104d157806334e80ea3146104f15780633ccfd60b146105ba57600080fd5b80631d3cde031461043f57806323b872dd146104715780632f745c591461049157600080fd5b8063095ea7b311610328578063095ea7b3146103de5780630daefed51461040057806318160ddd1461042057600080fd5b806301ffc9a71461034f57806306fdde0314610384578063081812fc146103a6575b600080fd5b34801561035b57600080fd5b5061036f61036a366004612f6c565b610b12565b60405190151581526020015b60405180910390f35b34801561039057600080fd5b50610399610b23565b60405161037b9190612fd9565b3480156103b257600080fd5b506103c66103c1366004612fec565b610bb5565b6040516001600160a01b03909116815260200161037b565b3480156103ea57600080fd5b506103fe6103f936600461301c565b610bdc565b005b34801561040c57600080fd5b5061039961041b366004612fec565b610d12565b34801561042c57600080fd5b506008545b60405190815260200161037b565b34801561044b57600080fd5b5061045f61045a366004612fec565b610d91565b60405160ff909116815260200161037b565b34801561047d57600080fd5b506103fe61048c366004613046565b610e45565b34801561049d57600080fd5b506104316104ac36600461301c565b610ebc565b3480156104bd57600080fd5b506103fe6104cc366004612fec565b610f64565b3480156104dd57600080fd5b506103fe6104ec366004613082565b610fae565b3480156104fd57600080fd5b5061056961050c366004612fec565b600f60205260009081526040902080546001820154600283015460038401546004850154600590950154939461ffff808516956201000086049091169460ff64010000000082048116956501000000000090920416939092909189565b60408051998a5261ffff98891660208b0152979096169688019690965260ff938416606088015292909116608086015260a085015260c084015260e08301919091526101008201526101200161037b565b3480156105c657600080fd5b506103fe610fec565b3480156105db57600080fd5b506103fe6105ea366004613046565b611023565b3480156105fb57600080fd5b5061045f61060a366004612fec565b60156020526000908152604090205460ff1681565b34801561062b57600080fd5b5061043161063a366004612fec565b61103e565b34801561064b57600080fd5b506103fe61065a3660046130f7565b6110e2565b34801561066b57600080fd5b506103c661067a366004612fec565b61110c565b34801561068b57600080fd5b506103fe61069a366004612fec565b611171565b3480156106ab57600080fd5b506104316106ba3660046130f7565b61117e565b3480156106cb57600080fd5b506103fe611218565b3480156106e057600080fd5b50610431600b5481565b3480156106f657600080fd5b50610431600e5481565b34801561070c57600080fd5b5061045f61071b366004612fec565b61122c565b34801561072c57600080fd5b506103fe61073b3660046130f7565b611293565b34801561074c57600080fd5b506103fe61075b366004612fec565b6112bd565b34801561076c57600080fd5b5061043161077b366004612fec565b6112ca565b34801561078c57600080fd5b50600a546001600160a01b03166103c6565b3480156107aa57600080fd5b506107d16107b9366004612fec565b60106020526000908152604090205463ffffffff1681565b60405163ffffffff909116815260200161037b565b3480156107f257600080fd5b506103996112e9565b34801561080757600080fd5b5061082c610816366004612fec565b60116020526000908152604090205461ffff1681565b60405161ffff909116815260200161037b565b34801561084b57600080fd5b5061045f61085a366004612fec565b60146020526000908152604090205460ff1681565b34801561087b57600080fd5b506103fe61088a36600461301c565b6112f8565b34801561089b57600080fd5b506103fe6108aa366004613120565b61138a565b6103fe6108bd36600461318a565b611399565b6103fe6108d03660046131f9565b6114c5565b3480156108e157600080fd5b506103fe6108f03660046132ad565b6114f7565b34801561090157600080fd5b506107d1610910366004612fec565b60136020526000908152604090205463ffffffff1681565b34801561093457600080fd5b50610431600d5481565b34801561094a57600080fd5b5042610431565b34801561095d57600080fd5b5061039961096c366004613358565b611575565b34801561097d57600080fd5b5061036f61098c366004612fec565b6116cf565b34801561099d57600080fd5b506103996109ac366004612fec565b61171c565b3480156109bd57600080fd5b506103fe6109cc366004612fec565b6117a9565b3480156109dd57600080fd5b50610431600c5481565b3480156109f357600080fd5b506103fe610a023660046130f7565b611975565b348015610a1357600080fd5b506103fe610a223660046131f9565b61199f565b348015610a3357600080fd5b50610431610a42366004612fec565b60126020526000908152604090205481565b348015610a6057600080fd5b506103996119a7565b348015610a7557600080fd5b5061036f610a843660046133a2565b6001600160a01b03918216600090815260056020908152604080832093909416825291909152205460ff1690565b348015610abe57600080fd5b506103fe610acd366004612fec565b611a04565b348015610ade57600080fd5b506103fe610aed3660046130f7565b611a11565b348015610afe57600080fd5b506107d1610b0d366004612fec565b611a9e565b6000610b1d82611bbf565b92915050565b606060008054610b32906133d5565b80601f0160208091040260200160405190810160405280929190818152602001828054610b5e906133d5565b8015610bab5780601f10610b8057610100808354040283529160200191610bab565b820191906000526020600020905b815481529060010190602001808311610b8e57829003601f168201915b5050505050905090565b6000610bc082611bfd565b506000908152600460205260409020546001600160a01b031690565b6000610be78261110c565b9050806001600160a01b0316836001600160a01b031603610c755760405162461bcd60e51b815260206004820152602160248201527f4552433732313a20617070726f76616c20746f2063757272656e74206f776e6560448201527f720000000000000000000000000000000000000000000000000000000000000060648201526084015b60405180910390fd5b336001600160a01b0382161480610c915750610c918133610a84565b610d035760405162461bcd60e51b815260206004820152603d60248201527f4552433732313a20617070726f76652063616c6c6572206973206e6f7420746f60448201527f6b656e206f776e6572206f7220617070726f76656420666f7220616c6c0000006064820152608401610c6c565b610d0d8383611c61565b505050565b60008181526011602052604081205460609190610d4090849061ffff16610d38826116cf565b156000611575565b604051602001610d50919061340f565b6040516020818303038152906040529050610d6a81611ccf565b604051602001610d7a919061342b565b604051602081830303815290604052915050919050565b60008181526015602052604081205460ff168103610e2a57601754604051633a20c87960e01b81526004810184905261014160248201526005916001600160a01b031690633a20c879906044015b602060405180830381865afa158015610dfc573d6000803e3d6000fd5b505050506040513d601f19601f82011682018060405250810190610e209190613470565b610b1d919061349f565b5060009081526015602052604090205460ff1690565b919050565b610e4f3382611e22565b610eb15760405162461bcd60e51b815260206004820152602d60248201527f4552433732313a2063616c6c6572206973206e6f7420746f6b656e206f776e6560448201526c1c881bdc88185c1c1c9bdd9959609a1b6064820152608401610c6c565b610d0d838383611ea0565b6000610ec78361117e565b8210610f3b5760405162461bcd60e51b815260206004820152602b60248201527f455243373231456e756d657261626c653a206f776e657220696e646578206f7560448201527f74206f6620626f756e64730000000000000000000000000000000000000000006064820152608401610c6c565b506001600160a01b03919091166000908152600660209081526040808320938352929052205490565b33610f6e8261110c565b6001600160a01b031614610f95576040516336b6b89560e01b815260040160405180910390fd5b6000908152601160205260409020805461ffff19169055565b60005b81811015610d0d57610fda838383818110610fce57610fce6134b3565b905060200201356117a9565b80610fe4816134df565b915050610fb1565b610ff46120a6565b60405133904780156108fc02916000818181858888f19350505050158015611020573d6000803e3d6000fd5b50565b610d0d838383604051806020016040528060008152506114f7565b600061104960085490565b82106110bd5760405162461bcd60e51b815260206004820152602c60248201527f455243373231456e756d657261626c653a20676c6f62616c20696e646578206f60448201527f7574206f6620626f756e647300000000000000000000000000000000000000006064820152608401610c6c565b600882815481106110d0576110d06134b3565b90600052602060002001549050919050565b6110ea6120a6565b601780546001600160a01b0319166001600160a01b0392909216919091179055565b6000818152600260205260408120546001600160a01b031680610b1d5760405162461bcd60e51b815260206004820152601860248201527f4552433732313a20696e76616c696420746f6b656e20494400000000000000006044820152606401610c6c565b6111796120a6565b600c55565b60006001600160a01b0382166111fc5760405162461bcd60e51b815260206004820152602960248201527f4552433732313a2061646472657373207a65726f206973206e6f74206120766160448201527f6c6964206f776e657200000000000000000000000000000000000000000000006064820152608401610c6c565b506001600160a01b031660009081526003602052604090205490565b6112206120a6565b61122a6000612100565b565b60008181526014602052604081205460ff16810361127d57601754604051633a20c87960e01b815260048101849052607b6024820152600f916001600160a01b031690633a20c87990604401610ddf565b5060009081526014602052604090205460ff1690565b61129b6120a6565b601880546001600160a01b0319166001600160a01b0392909216919091179055565b6112c56120a6565b600d55565b600081815260106020526040812054610b1d9063ffffffff16426134f8565b606060018054610b32906133d5565b6113006120a6565b6040517fa9059cbb000000000000000000000000000000000000000000000000000000008152336004820152602481018290526001600160a01b0383169063a9059cbb906044016020604051808303816000875af1158015611366573d6000803e3d6000fd5b505050506040513d601f19601f82011682018060405250810190610d0d919061350b565b611395338383612152565b5050565b600d5461017261ffff86161415806113b757508361ffff1661017214155b156113cc57600e546113c990826134f8565b90505b60ff8316156113e557600e546113e290826134f8565b90505b60ff8216156113fe57600e546113fb90826134f8565b90505b8034101561141f57604051633d8f14cf60e21b815260040160405180910390fd5b60408051808201909152601081527f7061636b6564207a65726f207465737400000000000000000000000000000000602082015261145e906000612220565b60408051808201909152600f81527f7061636b6564203337302074657374000000000000000000000000000000000060208201526114a0906301720172612220565b6114bd8663ffff0000601088901b1661ffff871617858533612293565b505050505050565b600d543410156114e857604051633d8f14cf60e21b815260040160405180910390fd5b61102081600080600033612293565b6115013383611e22565b6115635760405162461bcd60e51b815260206004820152602d60248201527f4552433732313a2063616c6c6572206973206e6f7420746f6b656e206f776e6560448201526c1c881bdc88185c1c1c9bdd9959609a1b6064820152608401610c6c565b61156f848484846125bb565b50505050565b6017546060906001600160a01b031663eec2fb547368AD5E2e4709849e1730aFF98C9b78648EF2752d6343e3b108886115ad81611a9e565b6115b68b610d91565b60ff8916156115c557886115ce565b6115ce8c61122c565b6040516001600160e01b031960e087901b168152600481019490945263ffffffff92909216602484015260ff908116604484015216606482015260840161012060405180830381865af4158015611629573d6000803e3d6000fd5b505050506040513d601f19601f8201168201806040525081019061164d919061353e565b6016546040516001600160e01b031960e085901b16815261167f9291899189916001600160a01b0316906004016135d5565b600060405180830381865afa15801561169c573d6000803e3d6000fd5b505050506040513d6000823e601f3d908101601f191682016040526116c49190810190613684565b90505b949350505050565b6000806018603c806116e0866112ca565b6116ea91906136f2565b6116f491906136f2565b6116fe919061349f565b905060068160ff161080611715575060128160ff16115b9392505050565b6060600b5482111561175a576040517f4d5e5fb300000000000000000000000000000000000000000000000000000000815260040160405180910390fd5b600061176583612639565b61176e84610d12565b60405160200161177f929190613706565b604051602081830303815290604052905061179981611ccf565b604051602001610d7a91906137e2565b336117b38261110c565b6001600160a01b0316146117da576040516336b6b89560e01b815260040160405180910390fd5b6117e3816116cf565b611819576040517f42cc741200000000000000000000000000000000000000000000000000000000815260040160405180910390fd5b60008181526012602052604090205461c4e090611835836112ca565b61183f9190613827565b1015611877576040517f5ada9a9900000000000000000000000000000000000000000000000000000000815260040160405180910390fd5b6000818152601160205260409020546118959061ffff16600161383a565b6000828152601160205260409020805461ffff191661ffff929092169190911790556118c0816112ca565b6000828152601260205260409020556018546001600160a01b03161561102057601854600082815260116020526040908190205490517fdcb34eb20000000000000000000000000000000000000000000000000000000081526004810184905261ffff90911660248201526001600160a01b039091169063dcb34eb290604401600060405180830381600087803b15801561195a57600080fd5b505af115801561196e573d6000803e3d6000fd5b5050505050565b61197d6120a6565b601680546001600160a01b0319166001600160a01b0392909216919091179055565b6114e86120a6565b606060006119b56000610d12565b6040516020016119c5919061385c565b60405160208183030381529060405290506119df81611ccf565b6040516020016119ef91906137e2565b60405160208183030381529060405291505090565b611a0c6120a6565b600e55565b611a196120a6565b6001600160a01b038116611a955760405162461bcd60e51b815260206004820152602660248201527f4f776e61626c653a206e6577206f776e657220697320746865207a65726f206160448201527f64647265737300000000000000000000000000000000000000000000000000006064820152608401610c6c565b61102081612100565b60008181526013602052604081205463ffffffff168103611ba6576000611ac660108461349f565b611ad190600a6139e1565b6040805160608101825261ffff83811682526000602083018181528385018281529451631b21034b60e31b815293518316600485015251821660248401529251166044820152603c6064820152919250907368AD5E2e4709849e1730aFF98C9b78648EF2752d9063d9081a5890608401606060405180830381865af4158015611b5e573d6000803e3d6000fd5b505050506040513d601f19601f82011682018060405250810190611b8291906139f8565b6000015190508061ffff1660108361ffff1663ffffffff16901b1792505050919050565b5060009081526013602052604090205463ffffffff1690565b60006001600160e01b031982167f780e9d63000000000000000000000000000000000000000000000000000000001480610b1d5750610b1d826126d9565b6000818152600260205260409020546001600160a01b03166110205760405162461bcd60e51b815260206004820152601860248201527f4552433732313a20696e76616c696420746f6b656e20494400000000000000006044820152606401610c6c565b600081815260046020526040902080546001600160a01b0319166001600160a01b0384169081179091558190611c968261110c565b6001600160a01b03167f8c5be1e5ebec7d5bd14f71427d1e84f3dd0314c0f7b2291e5b200ac8c7c3b92560405160405180910390a45050565b60608151600003611cee57505060408051602081019091526000815290565b6000604051806060016040528060408152602001613afc6040913990506000600384516002611d1d91906134f8565b611d2791906136f2565b611d329060046139e1565b67ffffffffffffffff811115611d4a57611d4a613214565b6040519080825280601f01601f191660200182016040528015611d74576020820181803683370190505b509050600182016020820185865187015b80821015611de0576003820191508151603f8160121c168501518453600184019350603f81600c1c168501518453600184019350603f8160061c168501518453600184019350603f8116850151845350600183019250611d85565b5050600386510660018114611dfc5760028114611e0f57611e17565b603d6001830353603d6002830353611e17565b603d60018303535b509195945050505050565b600080611e2e8361110c565b9050806001600160a01b0316846001600160a01b03161480611e7557506001600160a01b0380821660009081526005602090815260408083209388168352929052205460ff165b806116c75750836001600160a01b0316611e8e84610bb5565b6001600160a01b031614949350505050565b826001600160a01b0316611eb38261110c565b6001600160a01b031614611f175760405162461bcd60e51b815260206004820152602560248201527f4552433732313a207472616e736665722066726f6d20696e636f72726563742060448201526437bbb732b960d91b6064820152608401610c6c565b6001600160a01b038216611f925760405162461bcd60e51b8152602060048201526024808201527f4552433732313a207472616e7366657220746f20746865207a65726f2061646460448201527f72657373000000000000000000000000000000000000000000000000000000006064820152608401610c6c565b611f9f8383836001612774565b826001600160a01b0316611fb28261110c565b6001600160a01b0316146120165760405162461bcd60e51b815260206004820152602560248201527f4552433732313a207472616e736665722066726f6d20696e636f72726563742060448201526437bbb732b960d91b6064820152608401610c6c565b600081815260046020908152604080832080546001600160a01b03199081169091556001600160a01b0387811680865260038552838620805460001901905590871680865283862080546001019055868652600290945282852080549092168417909155905184937fddf252ad1be2c89b69c2b068fc378daa952ba7f163c4a11628f55a4df523b3ef91a4505050565b600a546001600160a01b0316331461122a5760405162461bcd60e51b815260206004820181905260248201527f4f776e61626c653a2063616c6c6572206973206e6f7420746865206f776e65726044820152606401610c6c565b600a80546001600160a01b038381166001600160a01b0319831681179093556040519116919082907f8be0079c531659141344cd1fd0a4f28419497f9722a3daafe3b4186f6b6457e090600090a35050565b816001600160a01b0316836001600160a01b0316036121b35760405162461bcd60e51b815260206004820152601960248201527f4552433732313a20617070726f766520746f2063616c6c6572000000000000006044820152606401610c6c565b6001600160a01b03838116600081815260056020908152604080832094871680845294825291829020805460ff191686151590811790915591519182527f17307eab39ab6107e8899845ad3d59bd9653f200f220920489ca2b5937696c31910160405180910390a3505050565b6113958282604051602401612236929190613a6a565b60408051601f198184030181529190526020810180517bffffffffffffffffffffffffffffffffffffffffffffffffffffffff167fb60e72cc00000000000000000000000000000000000000000000000000000000179052612780565b600c54600b54106122d0576040517fd05cb60900000000000000000000000000000000000000000000000000000000815260040160405180910390fd5b600b80549060006122e0836134df565b9091555050600b546000908152601060205260409020805463ffffffff191663ffffffff8781169190911790915584166301720172036124075760006010600b5461232b919061349f565b61233690600a6139e1565b6040805160608101825261ffff83811682526000602083018181528385018281529451631b21034b60e31b815293518316600485015251821660248401529251166044820152603c6064820152919250907368AD5E2e4709849e1730aFF98C9b78648EF2752d9063d9081a5890608401606060405180830381865af41580156123c3573d6000803e3d6000fd5b505050506040513d601f19601f820116820180604052508101906123e791906139f8565b6000015190508061ffff1660108361ffff1663ffffffff16901b17955050505b600b546000908152601360205260408120805463ffffffff191663ffffffff871617905560ff841690036124bb57601754600b54604051633a20c87960e01b81526004810191909152607b6024820152600f916001600160a01b031690633a20c87990604401602060405180830381865afa15801561248a573d6000803e3d6000fd5b505050506040513d601f19601f820116820180604052508101906124ae9190613470565b6124b8919061349f565b92505b600f8360ff1611156124cc57600092505b8160ff1660000361255e57601754600b54604051633a20c87960e01b8152600481019190915261014160248201526005916001600160a01b031690633a20c87990604401602060405180830381865afa15801561252d573d6000803e3d6000fd5b505050506040513d601f19601f820116820180604052508101906125519190613470565b61255b919061349f565b92505b60058260ff16111561256f57600091505b600b80546000908152601460209081526040808320805460ff808a1660ff199283161790925585548552601590935292208054928616929091169190911790555461196e9082906127a1565b6125c6848484611ea0565b6125d2848484846127bb565b61156f5760405162461bcd60e51b815260206004820152603260248201527f4552433732313a207472616e7366657220746f206e6f6e20455243373231526560448201527131b2b4bb32b91034b6b83632b6b2b73a32b960711b6064820152608401610c6c565b6060600061264683612904565b600101905060008167ffffffffffffffff81111561266657612666613214565b6040519080825280601f01601f191660200182016040528015612690576020820181803683370190505b5090508181016020015b600019017f3031323334353637383961626364656600000000000000000000000000000000600a86061a8153600a850494508461269a57509392505050565b60006001600160e01b031982167f80ac58cd00000000000000000000000000000000000000000000000000000000148061273c57506001600160e01b031982167f5b5e139f00000000000000000000000000000000000000000000000000000000145b80610b1d57507f01ffc9a7000000000000000000000000000000000000000000000000000000006001600160e01b0319831614610b1d565b61156f848484846129e6565b80516a636f6e736f6c652e6c6f67602083016000808483855afa5050505050565b611395828260405180602001604052806000815250612b27565b60006001600160a01b0384163b156128fc57604051630a85bd0160e11b81526001600160a01b0385169063150b7a02906127ff903390899088908890600401613a8c565b6020604051808303816000875af192505050801561283a575060408051601f3d908101601f1916820190925261283791810190613ac8565b60015b6128e2573d808015612868576040519150601f19603f3d011682016040523d82523d6000602084013e61286d565b606091505b5080516000036128da5760405162461bcd60e51b815260206004820152603260248201527f4552433732313a207472616e7366657220746f206e6f6e20455243373231526560448201527131b2b4bb32b91034b6b83632b6b2b73a32b960711b6064820152608401610c6c565b805181602001fd5b6001600160e01b031916630a85bd0160e11b1490506116c7565b5060016116c7565b6000807a184f03e93ff9f4daa797ed6e38ed64bf6a1f010000000000000000831061294d577a184f03e93ff9f4daa797ed6e38ed64bf6a1f010000000000000000830492506040015b6d04ee2d6d415b85acef81000000008310612979576d04ee2d6d415b85acef8100000000830492506020015b662386f26fc10000831061299757662386f26fc10000830492506010015b6305f5e10083106129af576305f5e100830492506008015b61271083106129c357612710830492506004015b606483106129d5576064830492506002015b600a8310610b1d5760010192915050565b6129f284848484612ba5565b6001811115612a695760405162461bcd60e51b815260206004820152603560248201527f455243373231456e756d657261626c653a20636f6e736563757469766520747260448201527f616e7366657273206e6f7420737570706f7274656400000000000000000000006064820152608401610c6c565b816001600160a01b038516612ac557612ac081600880546000838152600960205260408120829055600182018355919091527ff3f7a9fe364faab93b216da50a3214154f22a0a2b415b23a84c8169e8b636ee30155565b612ae8565b836001600160a01b0316856001600160a01b031614612ae857612ae88582612c2d565b6001600160a01b038416612b0457612aff81612cca565b61196e565b846001600160a01b0316846001600160a01b03161461196e5761196e8482612d79565b612b318383612dbd565b612b3e60008484846127bb565b610d0d5760405162461bcd60e51b815260206004820152603260248201527f4552433732313a207472616e7366657220746f206e6f6e20455243373231526560448201527131b2b4bb32b91034b6b83632b6b2b73a32b960711b6064820152608401610c6c565b600181111561156f576001600160a01b03841615612beb576001600160a01b03841660009081526003602052604081208054839290612be5908490613827565b90915550505b6001600160a01b0383161561156f576001600160a01b03831660009081526003602052604081208054839290612c229084906134f8565b909155505050505050565b60006001612c3a8461117e565b612c449190613827565b600083815260076020526040902054909150808214612c97576001600160a01b03841660009081526006602090815260408083208584528252808320548484528184208190558352600790915290208190555b5060009182526007602090815260408084208490556001600160a01b039094168352600681528383209183525290812055565b600854600090612cdc90600190613827565b60008381526009602052604081205460088054939450909284908110612d0457612d046134b3565b906000526020600020015490508060088381548110612d2557612d256134b3565b6000918252602080832090910192909255828152600990915260408082208490558582528120556008805480612d5d57612d5d613ae5565b6001900381819060005260206000200160009055905550505050565b6000612d848361117e565b6001600160a01b039093166000908152600660209081526040808320868452825280832085905593825260079052919091209190915550565b6001600160a01b038216612e135760405162461bcd60e51b815260206004820181905260248201527f4552433732313a206d696e7420746f20746865207a65726f20616464726573736044820152606401610c6c565b6000818152600260205260409020546001600160a01b031615612e785760405162461bcd60e51b815260206004820152601c60248201527f4552433732313a20746f6b656e20616c7265616479206d696e746564000000006044820152606401610c6c565b612e86600083836001612774565b6000818152600260205260409020546001600160a01b031615612eeb5760405162461bcd60e51b815260206004820152601c60248201527f4552433732313a20746f6b656e20616c7265616479206d696e746564000000006044820152606401610c6c565b6001600160a01b038216600081815260036020908152604080832080546001019055848352600290915280822080546001600160a01b0319168417905551839291907fddf252ad1be2c89b69c2b068fc378daa952ba7f163c4a11628f55a4df523b3ef908290a45050565b6001600160e01b03198116811461102057600080fd5b600060208284031215612f7e57600080fd5b813561171581612f56565b60005b83811015612fa4578181015183820152602001612f8c565b50506000910152565b60008151808452612fc5816020860160208601612f89565b601f01601f19169290920160200192915050565b6020815260006117156020830184612fad565b600060208284031215612ffe57600080fd5b5035919050565b80356001600160a01b0381168114610e4057600080fd5b6000806040838503121561302f57600080fd5b61303883613005565b946020939093013593505050565b60008060006060848603121561305b57600080fd5b61306484613005565b925061307260208501613005565b9150604084013590509250925092565b6000806020838503121561309557600080fd5b823567ffffffffffffffff808211156130ad57600080fd5b818501915085601f8301126130c157600080fd5b8135818111156130d057600080fd5b8660208260051b85010111156130e557600080fd5b60209290920196919550909350505050565b60006020828403121561310957600080fd5b61171582613005565b801515811461102057600080fd5b6000806040838503121561313357600080fd5b61313c83613005565b9150602083013561314c81613112565b809150509250929050565b803563ffffffff81168114610e4057600080fd5b61ffff8116811461102057600080fd5b60ff8116811461102057600080fd5b600080600080600060a086880312156131a257600080fd5b6131ab86613157565b945060208601356131bb8161316b565b935060408601356131cb8161316b565b925060608601356131db8161317b565b915060808601356131eb8161317b565b809150509295509295909350565b60006020828403121561320b57600080fd5b61171582613157565b634e487b7160e01b600052604160045260246000fd5b604051610120810167ffffffffffffffff8111828210171561324e5761324e613214565b60405290565b604051601f8201601f1916810167ffffffffffffffff8111828210171561327d5761327d613214565b604052919050565b600067ffffffffffffffff82111561329f5761329f613214565b50601f01601f191660200190565b600080600080608085870312156132c357600080fd5b6132cc85613005565b93506132da60208601613005565b925060408501359150606085013567ffffffffffffffff8111156132fd57600080fd5b8501601f8101871361330e57600080fd5b803561332161331c82613285565b613254565b81815288602083850101111561333657600080fd5b8160208401602083013760006020838301015280935050505092959194509250565b6000806000806080858703121561336e57600080fd5b8435935060208501359250604085013561338781613112565b915060608501356133978161317b565b939692955090935050565b600080604083850312156133b557600080fd5b6133be83613005565b91506133cc60208401613005565b90509250929050565b600181811c908216806133e957607f821691505b60208210810361340957634e487b7160e01b600052602260045260246000fd5b50919050565b60008251613421818460208701612f89565b9190910192915050565b7f646174613a696d6167652f7376672b786d6c3b6261736536342c00000000000081526000825161346381601a850160208701612f89565b91909101601a0192915050565b60006020828403121561348257600080fd5b5051919050565b634e487b7160e01b600052601260045260246000fd5b6000826134ae576134ae613489565b500690565b634e487b7160e01b600052603260045260246000fd5b634e487b7160e01b600052601160045260246000fd5b6000600182016134f1576134f16134c9565b5060010190565b80820180821115610b1d57610b1d6134c9565b60006020828403121561351d57600080fd5b815161171581613112565b8051610e408161316b565b8051610e408161317b565b6000610120828403121561355157600080fd5b61355961322a565b8251815261356960208401613528565b602082015261357a60408401613528565b604082015261358b60608401613533565b606082015261359c60808401613533565b608082015260a083015160a082015260c083015160c082015260e083015160e08201526101008084015181830152508091505092915050565b60006101808201905085518252602086015161ffff808216602085015280604089015116604085015250506060860151613614606084018260ff169052565b506080860151613629608084018260ff169052565b5060a086015160a083015260c086015160c083015260e086015160e08301526101008087015181840152508461012083015261366a61014083018515159052565b6001600160a01b0383166101608301525b95945050505050565b60006020828403121561369657600080fd5b815167ffffffffffffffff8111156136ad57600080fd5b8201601f810184136136be57600080fd5b80516136cc61331c82613285565b8181528560208385010111156136e157600080fd5b61367b826020830160208601612f89565b60008261370157613701613489565b500490565b607b60f81b81527f226e616d65223a2022636861696e656c6c6174696f6e20230000000000000000600182015260008351613748816019850160208801612f89565b7f222c0000000000000000000000000000000000000000000000000000000000006019918401918201527f226465736372697074696f6e223a2022636861696e656c6c6174696f6e222c00601b820152691134b6b0b3b2911d101160b11b603a82015283516137be816044840160208801612f89565b601160f91b60449290910191820152607d60f81b6045820152604601949350505050565b7f646174613a6170706c69636174696f6e2f6a736f6e3b6261736536342c00000081526000825161381a81601d850160208701612f89565b91909101601d0192915050565b81810381811115610b1d57610b1d6134c9565b61ffff818116838216019080821115613855576138556134c9565b5092915050565b607b60f81b81527f226e616d65223a202254776f204d6f6f6e73204e6967687420536b696573222c60018201527f226465736372697074696f6e223a2022596f75722077696e646f7720696e746f60218201527f20746865204e6967687420536b792e20205374617267617a6520746f2072657660418201527f65616c20796f75722073656372657420636f6e7374656c6c6174696f6e2c206160618201527f6e6420637573746f6d697a6520796f757220766965772077697468207265706c60818201527f616361626c65207061727473206f662074686520696d6167652e22000000000060a18201527f2265787465726e616c5f75726c223a202268747470733a2f2f7777772e74776f60bc8201527f6d6f6f6e732e6170702f2200000000000000000000000000000000000000000060dc820152691134b6b0b3b2911d101160b11b60e7820152600082516139bb8160f1850160208701612f89565b6116c76139d460f183860101601160f91b815260010190565b607d60f81b815260010190565b8082028115828204841417610b1d57610b1d6134c9565b600060608284031215613a0a57600080fd5b6040516060810181811067ffffffffffffffff82111715613a2d57613a2d613214565b6040528251613a3b8161316b565b81526020830151613a4b8161316b565b60208201526040830151613a5e8161316b565b60408201529392505050565b604081526000613a7d6040830185612fad565b90508260208301529392505050565b60006001600160a01b03808716835280861660208401525083604083015260806060830152613abe6080830184612fad565b9695505050505050565b600060208284031215613ada57600080fd5b815161171581612f56565b634e487b7160e01b600052603160045260246000fdfe4142434445464748494a4b4c4d4e4f505152535455565758595a6162636465666768696a6b6c6d6e6f707172737475767778797a303132333435363738392b2fa2646970667358221220feff9a4d95741d6bc78932257f434e5b88226bf29c13ccd46272fe6850d86e7864736f6c63430008120033",
  "deployedBytecode": "0x60806040526004361061034a5760003560e01c80638850504a116101bb578063c1b7fa34116100f7578063dbea4da711610095578063e985e9c51161006f578063e985e9c514610a69578063ee7e418b14610ab2578063f2fde38b14610ad2578063f311968214610af257600080fd5b8063dbea4da714610a07578063e01373b114610a27578063e8a3d48514610a5457600080fd5b8063c87b56dd116100d1578063c87b56dd14610991578063cbcb0a7a146109b1578063d5abeb01146109d1578063d9be4145146109e757600080fd5b8063c1b7fa341461093e578063c230a8d514610951578063c37006201461097157600080fd5b80639e281a9811610164578063a71bbebe1161013e578063a71bbebe146108c2578063b88d4fde146108d5578063bd11f69d146108f5578063bdb4b8481461092857600080fd5b80639e281a981461086f578063a22cb4651461088f578063a6a27285146108af57600080fd5b806395d89b411161019557806395d89b41146107e65780639665e720146107fb5780639bc4f8f11461083f57600080fd5b80638850504a146107605780638da5cb5b1461078057806394688c661461079e57600080fd5b806342842e0e1161028a57806370a0823111610233578063794544401161020d57806379454440146106ea5780637fc97616146107005780638526214c146107205780638545f4ea1461074057600080fd5b806370a082311461069f578063715018a6146106bf578063771282f6146106d457600080fd5b806356d3163d1161026457806356d3163d1461063f5780636352211e1461065f5780636f8b44b01461067f57600080fd5b806342842e0e146105cf5780634e2c1175146105ef5780634f6ccce71461061f57600080fd5b80631d3cde03116102f7578063310bd74b116102d1578063310bd74b146104b157806332fdf2d7146104d157806334e80ea3146104f15780633ccfd60b146105ba57600080fd5b80631d3cde031461043f57806323b872dd146104715780632f745c591461049157600080fd5b8063095ea7b311610328578063095ea7b3146103de5780630daefed51461040057806318160ddd1461042057600080fd5b806301ffc9a71461034f57806306fdde0314610384578063081812fc146103a6575b600080fd5b34801561035b57600080fd5b5061036f61036a366004612f6c565b610b12565b60405190151581526020015b60405180910390f35b34801561039057600080fd5b50610399610b23565b60405161037b9190612fd9565b3480156103b257600080fd5b506103c66103c1366004612fec565b610bb5565b6040516001600160a01b03909116815260200161037b565b3480156103ea57600080fd5b506103fe6103f936600461301c565b610bdc565b005b34801561040c57600080fd5b5061039961041b366004612fec565b610d12565b34801561042c57600080fd5b506008545b60405190815260200161037b565b34801561044b57600080fd5b5061045f61045a366004612fec565b610d91565b60405160ff909116815260200161037b565b34801561047d57600080fd5b506103fe61048c366004613046565b610e45565b34801561049d57600080fd5b506104316104ac36600461301c565b610ebc565b3480156104bd57600080fd5b506103fe6104cc366004612fec565b610f64565b3480156104dd57600080fd5b506103fe6104ec366004613082565b610fae565b3480156104fd57600080fd5b5061056961050c366004612fec565b600f60205260009081526040902080546001820154600283015460038401546004850154600590950154939461ffff808516956201000086049091169460ff64010000000082048116956501000000000090920416939092909189565b60408051998a5261ffff98891660208b0152979096169688019690965260ff938416606088015292909116608086015260a085015260c084015260e08301919091526101008201526101200161037b565b3480156105c657600080fd5b506103fe610fec565b3480156105db57600080fd5b506103fe6105ea366004613046565b611023565b3480156105fb57600080fd5b5061045f61060a366004612fec565b60156020526000908152604090205460ff1681565b34801561062b57600080fd5b5061043161063a366004612fec565b61103e565b34801561064b57600080fd5b506103fe61065a3660046130f7565b6110e2565b34801561066b57600080fd5b506103c661067a366004612fec565b61110c565b34801561068b57600080fd5b506103fe61069a366004612fec565b611171565b3480156106ab57600080fd5b506104316106ba3660046130f7565b61117e565b3480156106cb57600080fd5b506103fe611218565b3480156106e057600080fd5b50610431600b5481565b3480156106f657600080fd5b50610431600e5481565b34801561070c57600080fd5b5061045f61071b366004612fec565b61122c565b34801561072c57600080fd5b506103fe61073b3660046130f7565b611293565b34801561074c57600080fd5b506103fe61075b366004612fec565b6112bd565b34801561076c57600080fd5b5061043161077b366004612fec565b6112ca565b34801561078c57600080fd5b50600a546001600160a01b03166103c6565b3480156107aa57600080fd5b506107d16107b9366004612fec565b60106020526000908152604090205463ffffffff1681565b60405163ffffffff909116815260200161037b565b3480156107f257600080fd5b506103996112e9565b34801561080757600080fd5b5061082c610816366004612fec565b60116020526000908152604090205461ffff1681565b60405161ffff909116815260200161037b565b34801561084b57600080fd5b5061045f61085a366004612fec565b60146020526000908152604090205460ff1681565b34801561087b57600080fd5b506103fe61088a36600461301c565b6112f8565b34801561089b57600080fd5b506103fe6108aa366004613120565b61138a565b6103fe6108bd36600461318a565b611399565b6103fe6108d03660046131f9565b6114c5565b3480156108e157600080fd5b506103fe6108f03660046132ad565b6114f7565b34801561090157600080fd5b506107d1610910366004612fec565b60136020526000908152604090205463ffffffff1681565b34801561093457600080fd5b50610431600d5481565b34801561094a57600080fd5b5042610431565b34801561095d57600080fd5b5061039961096c366004613358565b611575565b34801561097d57600080fd5b5061036f61098c366004612fec565b6116cf565b34801561099d57600080fd5b506103996109ac366004612fec565b61171c565b3480156109bd57600080fd5b506103fe6109cc366004612fec565b6117a9565b3480156109dd57600080fd5b50610431600c5481565b3480156109f357600080fd5b506103fe610a023660046130f7565b611975565b348015610a1357600080fd5b506103fe610a223660046131f9565b61199f565b348015610a3357600080fd5b50610431610a42366004612fec565b60126020526000908152604090205481565b348015610a6057600080fd5b506103996119a7565b348015610a7557600080fd5b5061036f610a843660046133a2565b6001600160a01b03918216600090815260056020908152604080832093909416825291909152205460ff1690565b348015610abe57600080fd5b506103fe610acd366004612fec565b611a04565b348015610ade57600080fd5b506103fe610aed3660046130f7565b611a11565b348015610afe57600080fd5b506107d1610b0d366004612fec565b611a9e565b6000610b1d82611bbf565b92915050565b606060008054610b32906133d5565b80601f0160208091040260200160405190810160405280929190818152602001828054610b5e906133d5565b8015610bab5780601f10610b8057610100808354040283529160200191610bab565b820191906000526020600020905b815481529060010190602001808311610b8e57829003601f168201915b5050505050905090565b6000610bc082611bfd565b506000908152600460205260409020546001600160a01b031690565b6000610be78261110c565b9050806001600160a01b0316836001600160a01b031603610c755760405162461bcd60e51b815260206004820152602160248201527f4552433732313a20617070726f76616c20746f2063757272656e74206f776e6560448201527f720000000000000000000000000000000000000000000000000000000000000060648201526084015b60405180910390fd5b336001600160a01b0382161480610c915750610c918133610a84565b610d035760405162461bcd60e51b815260206004820152603d60248201527f4552433732313a20617070726f76652063616c6c6572206973206e6f7420746f60448201527f6b656e206f776e6572206f7220617070726f76656420666f7220616c6c0000006064820152608401610c6c565b610d0d8383611c61565b505050565b60008181526011602052604081205460609190610d4090849061ffff16610d38826116cf565b156000611575565b604051602001610d50919061340f565b6040516020818303038152906040529050610d6a81611ccf565b604051602001610d7a919061342b565b604051602081830303815290604052915050919050565b60008181526015602052604081205460ff168103610e2a57601754604051633a20c87960e01b81526004810184905261014160248201526005916001600160a01b031690633a20c879906044015b602060405180830381865afa158015610dfc573d6000803e3d6000fd5b505050506040513d601f19601f82011682018060405250810190610e209190613470565b610b1d919061349f565b5060009081526015602052604090205460ff1690565b919050565b610e4f3382611e22565b610eb15760405162461bcd60e51b815260206004820152602d60248201527f4552433732313a2063616c6c6572206973206e6f7420746f6b656e206f776e6560448201526c1c881bdc88185c1c1c9bdd9959609a1b6064820152608401610c6c565b610d0d838383611ea0565b6000610ec78361117e565b8210610f3b5760405162461bcd60e51b815260206004820152602b60248201527f455243373231456e756d657261626c653a206f776e657220696e646578206f7560448201527f74206f6620626f756e64730000000000000000000000000000000000000000006064820152608401610c6c565b506001600160a01b03919091166000908152600660209081526040808320938352929052205490565b33610f6e8261110c565b6001600160a01b031614610f95576040516336b6b89560e01b815260040160405180910390fd5b6000908152601160205260409020805461ffff19169055565b60005b81811015610d0d57610fda838383818110610fce57610fce6134b3565b905060200201356117a9565b80610fe4816134df565b915050610fb1565b610ff46120a6565b60405133904780156108fc02916000818181858888f19350505050158015611020573d6000803e3d6000fd5b50565b610d0d838383604051806020016040528060008152506114f7565b600061104960085490565b82106110bd5760405162461bcd60e51b815260206004820152602c60248201527f455243373231456e756d657261626c653a20676c6f62616c20696e646578206f60448201527f7574206f6620626f756e647300000000000000000000000000000000000000006064820152608401610c6c565b600882815481106110d0576110d06134b3565b90600052602060002001549050919050565b6110ea6120a6565b601780546001600160a01b0319166001600160a01b0392909216919091179055565b6000818152600260205260408120546001600160a01b031680610b1d5760405162461bcd60e51b815260206004820152601860248201527f4552433732313a20696e76616c696420746f6b656e20494400000000000000006044820152606401610c6c565b6111796120a6565b600c55565b60006001600160a01b0382166111fc5760405162461bcd60e51b815260206004820152602960248201527f4552433732313a2061646472657373207a65726f206973206e6f74206120766160448201527f6c6964206f776e657200000000000000000000000000000000000000000000006064820152608401610c6c565b506001600160a01b031660009081526003602052604090205490565b6112206120a6565b61122a6000612100565b565b60008181526014602052604081205460ff16810361127d57601754604051633a20c87960e01b815260048101849052607b6024820152600f916001600160a01b031690633a20c87990604401610ddf565b5060009081526014602052604090205460ff1690565b61129b6120a6565b601880546001600160a01b0319166001600160a01b0392909216919091179055565b6112c56120a6565b600d55565b600081815260106020526040812054610b1d9063ffffffff16426134f8565b606060018054610b32906133d5565b6113006120a6565b6040517fa9059cbb000000000000000000000000000000000000000000000000000000008152336004820152602481018290526001600160a01b0383169063a9059cbb906044016020604051808303816000875af1158015611366573d6000803e3d6000fd5b505050506040513d601f19601f82011682018060405250810190610d0d919061350b565b611395338383612152565b5050565b600d5461017261ffff86161415806113b757508361ffff1661017214155b156113cc57600e546113c990826134f8565b90505b60ff8316156113e557600e546113e290826134f8565b90505b60ff8216156113fe57600e546113fb90826134f8565b90505b8034101561141f57604051633d8f14cf60e21b815260040160405180910390fd5b60408051808201909152601081527f7061636b6564207a65726f207465737400000000000000000000000000000000602082015261145e906000612220565b60408051808201909152600f81527f7061636b6564203337302074657374000000000000000000000000000000000060208201526114a0906301720172612220565b6114bd8663ffff0000601088901b1661ffff871617858533612293565b505050505050565b600d543410156114e857604051633d8f14cf60e21b815260040160405180910390fd5b61102081600080600033612293565b6115013383611e22565b6115635760405162461bcd60e51b815260206004820152602d60248201527f4552433732313a2063616c6c6572206973206e6f7420746f6b656e206f776e6560448201526c1c881bdc88185c1c1c9bdd9959609a1b6064820152608401610c6c565b61156f848484846125bb565b50505050565b6017546060906001600160a01b031663eec2fb5473__$11e21e6c56ca563b85c74e3fd3a08242f9$__6343e3b108886115ad81611a9e565b6115b68b610d91565b60ff8916156115c557886115ce565b6115ce8c61122c565b6040516001600160e01b031960e087901b168152600481019490945263ffffffff92909216602484015260ff908116604484015216606482015260840161012060405180830381865af4158015611629573d6000803e3d6000fd5b505050506040513d601f19601f8201168201806040525081019061164d919061353e565b6016546040516001600160e01b031960e085901b16815261167f9291899189916001600160a01b0316906004016135d5565b600060405180830381865afa15801561169c573d6000803e3d6000fd5b505050506040513d6000823e601f3d908101601f191682016040526116c49190810190613684565b90505b949350505050565b6000806018603c806116e0866112ca565b6116ea91906136f2565b6116f491906136f2565b6116fe919061349f565b905060068160ff161080611715575060128160ff16115b9392505050565b6060600b5482111561175a576040517f4d5e5fb300000000000000000000000000000000000000000000000000000000815260040160405180910390fd5b600061176583612639565b61176e84610d12565b60405160200161177f929190613706565b604051602081830303815290604052905061179981611ccf565b604051602001610d7a91906137e2565b336117b38261110c565b6001600160a01b0316146117da576040516336b6b89560e01b815260040160405180910390fd5b6117e3816116cf565b611819576040517f42cc741200000000000000000000000000000000000000000000000000000000815260040160405180910390fd5b60008181526012602052604090205461c4e090611835836112ca565b61183f9190613827565b1015611877576040517f5ada9a9900000000000000000000000000000000000000000000000000000000815260040160405180910390fd5b6000818152601160205260409020546118959061ffff16600161383a565b6000828152601160205260409020805461ffff191661ffff929092169190911790556118c0816112ca565b6000828152601260205260409020556018546001600160a01b03161561102057601854600082815260116020526040908190205490517fdcb34eb20000000000000000000000000000000000000000000000000000000081526004810184905261ffff90911660248201526001600160a01b039091169063dcb34eb290604401600060405180830381600087803b15801561195a57600080fd5b505af115801561196e573d6000803e3d6000fd5b5050505050565b61197d6120a6565b601680546001600160a01b0319166001600160a01b0392909216919091179055565b6114e86120a6565b606060006119b56000610d12565b6040516020016119c5919061385c565b60405160208183030381529060405290506119df81611ccf565b6040516020016119ef91906137e2565b60405160208183030381529060405291505090565b611a0c6120a6565b600e55565b611a196120a6565b6001600160a01b038116611a955760405162461bcd60e51b815260206004820152602660248201527f4f776e61626c653a206e6577206f776e657220697320746865207a65726f206160448201527f64647265737300000000000000000000000000000000000000000000000000006064820152608401610c6c565b61102081612100565b60008181526013602052604081205463ffffffff168103611ba6576000611ac660108461349f565b611ad190600a6139e1565b6040805160608101825261ffff83811682526000602083018181528385018281529451631b21034b60e31b815293518316600485015251821660248401529251166044820152603c60648201529192509073__$11e21e6c56ca563b85c74e3fd3a08242f9$__9063d9081a5890608401606060405180830381865af4158015611b5e573d6000803e3d6000fd5b505050506040513d601f19601f82011682018060405250810190611b8291906139f8565b6000015190508061ffff1660108361ffff1663ffffffff16901b1792505050919050565b5060009081526013602052604090205463ffffffff1690565b60006001600160e01b031982167f780e9d63000000000000000000000000000000000000000000000000000000001480610b1d5750610b1d826126d9565b6000818152600260205260409020546001600160a01b03166110205760405162461bcd60e51b815260206004820152601860248201527f4552433732313a20696e76616c696420746f6b656e20494400000000000000006044820152606401610c6c565b600081815260046020526040902080546001600160a01b0319166001600160a01b0384169081179091558190611c968261110c565b6001600160a01b03167f8c5be1e5ebec7d5bd14f71427d1e84f3dd0314c0f7b2291e5b200ac8c7c3b92560405160405180910390a45050565b60608151600003611cee57505060408051602081019091526000815290565b6000604051806060016040528060408152602001613afc6040913990506000600384516002611d1d91906134f8565b611d2791906136f2565b611d329060046139e1565b67ffffffffffffffff811115611d4a57611d4a613214565b6040519080825280601f01601f191660200182016040528015611d74576020820181803683370190505b509050600182016020820185865187015b80821015611de0576003820191508151603f8160121c168501518453600184019350603f81600c1c168501518453600184019350603f8160061c168501518453600184019350603f8116850151845350600183019250611d85565b5050600386510660018114611dfc5760028114611e0f57611e17565b603d6001830353603d6002830353611e17565b603d60018303535b509195945050505050565b600080611e2e8361110c565b9050806001600160a01b0316846001600160a01b03161480611e7557506001600160a01b0380821660009081526005602090815260408083209388168352929052205460ff165b806116c75750836001600160a01b0316611e8e84610bb5565b6001600160a01b031614949350505050565b826001600160a01b0316611eb38261110c565b6001600160a01b031614611f175760405162461bcd60e51b815260206004820152602560248201527f4552433732313a207472616e736665722066726f6d20696e636f72726563742060448201526437bbb732b960d91b6064820152608401610c6c565b6001600160a01b038216611f925760405162461bcd60e51b8152602060048201526024808201527f4552433732313a207472616e7366657220746f20746865207a65726f2061646460448201527f72657373000000000000000000000000000000000000000000000000000000006064820152608401610c6c565b611f9f8383836001612774565b826001600160a01b0316611fb28261110c565b6001600160a01b0316146120165760405162461bcd60e51b815260206004820152602560248201527f4552433732313a207472616e736665722066726f6d20696e636f72726563742060448201526437bbb732b960d91b6064820152608401610c6c565b600081815260046020908152604080832080546001600160a01b03199081169091556001600160a01b0387811680865260038552838620805460001901905590871680865283862080546001019055868652600290945282852080549092168417909155905184937fddf252ad1be2c89b69c2b068fc378daa952ba7f163c4a11628f55a4df523b3ef91a4505050565b600a546001600160a01b0316331461122a5760405162461bcd60e51b815260206004820181905260248201527f4f776e61626c653a2063616c6c6572206973206e6f7420746865206f776e65726044820152606401610c6c565b600a80546001600160a01b038381166001600160a01b0319831681179093556040519116919082907f8be0079c531659141344cd1fd0a4f28419497f9722a3daafe3b4186f6b6457e090600090a35050565b816001600160a01b0316836001600160a01b0316036121b35760405162461bcd60e51b815260206004820152601960248201527f4552433732313a20617070726f766520746f2063616c6c6572000000000000006044820152606401610c6c565b6001600160a01b03838116600081815260056020908152604080832094871680845294825291829020805460ff191686151590811790915591519182527f17307eab39ab6107e8899845ad3d59bd9653f200f220920489ca2b5937696c31910160405180910390a3505050565b6113958282604051602401612236929190613a6a565b60408051601f198184030181529190526020810180517bffffffffffffffffffffffffffffffffffffffffffffffffffffffff167fb60e72cc00000000000000000000000000000000000000000000000000000000179052612780565b600c54600b54106122d0576040517fd05cb60900000000000000000000000000000000000000000000000000000000815260040160405180910390fd5b600b80549060006122e0836134df565b9091555050600b546000908152601060205260409020805463ffffffff191663ffffffff8781169190911790915584166301720172036124075760006010600b5461232b919061349f565b61233690600a6139e1565b6040805160608101825261ffff83811682526000602083018181528385018281529451631b21034b60e31b815293518316600485015251821660248401529251166044820152603c60648201529192509073__$11e21e6c56ca563b85c74e3fd3a08242f9$__9063d9081a5890608401606060405180830381865af41580156123c3573d6000803e3d6000fd5b505050506040513d601f19601f820116820180604052508101906123e791906139f8565b6000015190508061ffff1660108361ffff1663ffffffff16901b17955050505b600b546000908152601360205260408120805463ffffffff191663ffffffff871617905560ff841690036124bb57601754600b54604051633a20c87960e01b81526004810191909152607b6024820152600f916001600160a01b031690633a20c87990604401602060405180830381865afa15801561248a573d6000803e3d6000fd5b505050506040513d601f19601f820116820180604052508101906124ae9190613470565b6124b8919061349f565b92505b600f8360ff1611156124cc57600092505b8160ff1660000361255e57601754600b54604051633a20c87960e01b8152600481019190915261014160248201526005916001600160a01b031690633a20c87990604401602060405180830381865afa15801561252d573d6000803e3d6000fd5b505050506040513d601f19601f820116820180604052508101906125519190613470565b61255b919061349f565b92505b60058260ff16111561256f57600091505b600b80546000908152601460209081526040808320805460ff808a1660ff199283161790925585548552601590935292208054928616929091169190911790555461196e9082906127a1565b6125c6848484611ea0565b6125d2848484846127bb565b61156f5760405162461bcd60e51b815260206004820152603260248201527f4552433732313a207472616e7366657220746f206e6f6e20455243373231526560448201527131b2b4bb32b91034b6b83632b6b2b73a32b960711b6064820152608401610c6c565b6060600061264683612904565b600101905060008167ffffffffffffffff81111561266657612666613214565b6040519080825280601f01601f191660200182016040528015612690576020820181803683370190505b5090508181016020015b600019017f3031323334353637383961626364656600000000000000000000000000000000600a86061a8153600a850494508461269a57509392505050565b60006001600160e01b031982167f80ac58cd00000000000000000000000000000000000000000000000000000000148061273c57506001600160e01b031982167f5b5e139f00000000000000000000000000000000000000000000000000000000145b80610b1d57507f01ffc9a7000000000000000000000000000000000000000000000000000000006001600160e01b0319831614610b1d565b61156f848484846129e6565b80516a636f6e736f6c652e6c6f67602083016000808483855afa5050505050565b611395828260405180602001604052806000815250612b27565b60006001600160a01b0384163b156128fc57604051630a85bd0160e11b81526001600160a01b0385169063150b7a02906127ff903390899088908890600401613a8c565b6020604051808303816000875af192505050801561283a575060408051601f3d908101601f1916820190925261283791810190613ac8565b60015b6128e2573d808015612868576040519150601f19603f3d011682016040523d82523d6000602084013e61286d565b606091505b5080516000036128da5760405162461bcd60e51b815260206004820152603260248201527f4552433732313a207472616e7366657220746f206e6f6e20455243373231526560448201527131b2b4bb32b91034b6b83632b6b2b73a32b960711b6064820152608401610c6c565b805181602001fd5b6001600160e01b031916630a85bd0160e11b1490506116c7565b5060016116c7565b6000807a184f03e93ff9f4daa797ed6e38ed64bf6a1f010000000000000000831061294d577a184f03e93ff9f4daa797ed6e38ed64bf6a1f010000000000000000830492506040015b6d04ee2d6d415b85acef81000000008310612979576d04ee2d6d415b85acef8100000000830492506020015b662386f26fc10000831061299757662386f26fc10000830492506010015b6305f5e10083106129af576305f5e100830492506008015b61271083106129c357612710830492506004015b606483106129d5576064830492506002015b600a8310610b1d5760010192915050565b6129f284848484612ba5565b6001811115612a695760405162461bcd60e51b815260206004820152603560248201527f455243373231456e756d657261626c653a20636f6e736563757469766520747260448201527f616e7366657273206e6f7420737570706f7274656400000000000000000000006064820152608401610c6c565b816001600160a01b038516612ac557612ac081600880546000838152600960205260408120829055600182018355919091527ff3f7a9fe364faab93b216da50a3214154f22a0a2b415b23a84c8169e8b636ee30155565b612ae8565b836001600160a01b0316856001600160a01b031614612ae857612ae88582612c2d565b6001600160a01b038416612b0457612aff81612cca565b61196e565b846001600160a01b0316846001600160a01b03161461196e5761196e8482612d79565b612b318383612dbd565b612b3e60008484846127bb565b610d0d5760405162461bcd60e51b815260206004820152603260248201527f4552433732313a207472616e7366657220746f206e6f6e20455243373231526560448201527131b2b4bb32b91034b6b83632b6b2b73a32b960711b6064820152608401610c6c565b600181111561156f576001600160a01b03841615612beb576001600160a01b03841660009081526003602052604081208054839290612be5908490613827565b90915550505b6001600160a01b0383161561156f576001600160a01b03831660009081526003602052604081208054839290612c229084906134f8565b909155505050505050565b60006001612c3a8461117e565b612c449190613827565b600083815260076020526040902054909150808214612c97576001600160a01b03841660009081526006602090815260408083208584528252808320548484528184208190558352600790915290208190555b5060009182526007602090815260408084208490556001600160a01b039094168352600681528383209183525290812055565b600854600090612cdc90600190613827565b60008381526009602052604081205460088054939450909284908110612d0457612d046134b3565b906000526020600020015490508060088381548110612d2557612d256134b3565b6000918252602080832090910192909255828152600990915260408082208490558582528120556008805480612d5d57612d5d613ae5565b6001900381819060005260206000200160009055905550505050565b6000612d848361117e565b6001600160a01b039093166000908152600660209081526040808320868452825280832085905593825260079052919091209190915550565b6001600160a01b038216612e135760405162461bcd60e51b815260206004820181905260248201527f4552433732313a206d696e7420746f20746865207a65726f20616464726573736044820152606401610c6c565b6000818152600260205260409020546001600160a01b031615612e785760405162461bcd60e51b815260206004820152601c60248201527f4552433732313a20746f6b656e20616c7265616479206d696e746564000000006044820152606401610c6c565b612e86600083836001612774565b6000818152600260205260409020546001600160a01b031615612eeb5760405162461bcd60e51b815260206004820152601c60248201527f4552433732313a20746f6b656e20616c7265616479206d696e746564000000006044820152606401610c6c565b6001600160a01b038216600081815260036020908152604080832080546001019055848352600290915280822080546001600160a01b0319168417905551839291907fddf252ad1be2c89b69c2b068fc378daa952ba7f163c4a11628f55a4df523b3ef908290a45050565b6001600160e01b03198116811461102057600080fd5b600060208284031215612f7e57600080fd5b813561171581612f56565b60005b83811015612fa4578181015183820152602001612f8c565b50506000910152565b60008151808452612fc5816020860160208601612f89565b601f01601f19169290920160200192915050565b6020815260006117156020830184612fad565b600060208284031215612ffe57600080fd5b5035919050565b80356001600160a01b0381168114610e4057600080fd5b6000806040838503121561302f57600080fd5b61303883613005565b946020939093013593505050565b60008060006060848603121561305b57600080fd5b61306484613005565b925061307260208501613005565b9150604084013590509250925092565b6000806020838503121561309557600080fd5b823567ffffffffffffffff808211156130ad57600080fd5b818501915085601f8301126130c157600080fd5b8135818111156130d057600080fd5b8660208260051b85010111156130e557600080fd5b60209290920196919550909350505050565b60006020828403121561310957600080fd5b61171582613005565b801515811461102057600080fd5b6000806040838503121561313357600080fd5b61313c83613005565b9150602083013561314c81613112565b809150509250929050565b803563ffffffff81168114610e4057600080fd5b61ffff8116811461102057600080fd5b60ff8116811461102057600080fd5b600080600080600060a086880312156131a257600080fd5b6131ab86613157565b945060208601356131bb8161316b565b935060408601356131cb8161316b565b925060608601356131db8161317b565b915060808601356131eb8161317b565b809150509295509295909350565b60006020828403121561320b57600080fd5b61171582613157565b634e487b7160e01b600052604160045260246000fd5b604051610120810167ffffffffffffffff8111828210171561324e5761324e613214565b60405290565b604051601f8201601f1916810167ffffffffffffffff8111828210171561327d5761327d613214565b604052919050565b600067ffffffffffffffff82111561329f5761329f613214565b50601f01601f191660200190565b600080600080608085870312156132c357600080fd5b6132cc85613005565b93506132da60208601613005565b925060408501359150606085013567ffffffffffffffff8111156132fd57600080fd5b8501601f8101871361330e57600080fd5b803561332161331c82613285565b613254565b81815288602083850101111561333657600080fd5b8160208401602083013760006020838301015280935050505092959194509250565b6000806000806080858703121561336e57600080fd5b8435935060208501359250604085013561338781613112565b915060608501356133978161317b565b939692955090935050565b600080604083850312156133b557600080fd5b6133be83613005565b91506133cc60208401613005565b90509250929050565b600181811c908216806133e957607f821691505b60208210810361340957634e487b7160e01b600052602260045260246000fd5b50919050565b60008251613421818460208701612f89565b9190910192915050565b7f646174613a696d6167652f7376672b786d6c3b6261736536342c00000000000081526000825161346381601a850160208701612f89565b91909101601a0192915050565b60006020828403121561348257600080fd5b5051919050565b634e487b7160e01b600052601260045260246000fd5b6000826134ae576134ae613489565b500690565b634e487b7160e01b600052603260045260246000fd5b634e487b7160e01b600052601160045260246000fd5b6000600182016134f1576134f16134c9565b5060010190565b80820180821115610b1d57610b1d6134c9565b60006020828403121561351d57600080fd5b815161171581613112565b8051610e408161316b565b8051610e408161317b565b6000610120828403121561355157600080fd5b61355961322a565b8251815261356960208401613528565b602082015261357a60408401613528565b604082015261358b60608401613533565b606082015261359c60808401613533565b608082015260a083015160a082015260c083015160c082015260e083015160e08201526101008084015181830152508091505092915050565b60006101808201905085518252602086015161ffff808216602085015280604089015116604085015250506060860151613614606084018260ff169052565b506080860151613629608084018260ff169052565b5060a086015160a083015260c086015160c083015260e086015160e08301526101008087015181840152508461012083015261366a61014083018515159052565b6001600160a01b0383166101608301525b95945050505050565b60006020828403121561369657600080fd5b815167ffffffffffffffff8111156136ad57600080fd5b8201601f810184136136be57600080fd5b80516136cc61331c82613285565b8181528560208385010111156136e157600080fd5b61367b826020830160208601612f89565b60008261370157613701613489565b500490565b607b60f81b81527f226e616d65223a2022636861696e656c6c6174696f6e20230000000000000000600182015260008351613748816019850160208801612f89565b7f222c0000000000000000000000000000000000000000000000000000000000006019918401918201527f226465736372697074696f6e223a2022636861696e656c6c6174696f6e222c00601b820152691134b6b0b3b2911d101160b11b603a82015283516137be816044840160208801612f89565b601160f91b60449290910191820152607d60f81b6045820152604601949350505050565b7f646174613a6170706c69636174696f6e2f6a736f6e3b6261736536342c00000081526000825161381a81601d850160208701612f89565b91909101601d0192915050565b81810381811115610b1d57610b1d6134c9565b61ffff818116838216019080821115613855576138556134c9565b5092915050565b607b60f81b81527f226e616d65223a202254776f204d6f6f6e73204e6967687420536b696573222c60018201527f226465736372697074696f6e223a2022596f75722077696e646f7720696e746f60218201527f20746865204e6967687420536b792e20205374617267617a6520746f2072657660418201527f65616c20796f75722073656372657420636f6e7374656c6c6174696f6e2c206160618201527f6e6420637573746f6d697a6520796f757220766965772077697468207265706c60818201527f616361626c65207061727473206f662074686520696d6167652e22000000000060a18201527f2265787465726e616c5f75726c223a202268747470733a2f2f7777772e74776f60bc8201527f6d6f6f6e732e6170702f2200000000000000000000000000000000000000000060dc820152691134b6b0b3b2911d101160b11b60e7820152600082516139bb8160f1850160208701612f89565b6116c76139d460f183860101601160f91b815260010190565b607d60f81b815260010190565b8082028115828204841417610b1d57610b1d6134c9565b600060608284031215613a0a57600080fd5b6040516060810181811067ffffffffffffffff82111715613a2d57613a2d613214565b6040528251613a3b8161316b565b81526020830151613a4b8161316b565b60208201526040830151613a5e8161316b565b60408201529392505050565b604081526000613a7d6040830185612fad565b90508260208301529392505050565b60006001600160a01b03808716835280861660208401525083604083015260806060830152613abe6080830184612fad565b9695505050505050565b600060208284031215613ada57600080fd5b815161171581612f56565b634e487b7160e01b600052603160045260246000fdfe4142434445464748494a4b4c4d4e4f505152535455565758595a6162636465666768696a6b6c6d6e6f707172737475767778797a303132333435363738392b2fa2646970667358221220feff9a4d95741d6bc78932257f434e5b88226bf29c13ccd46272fe6850d86e7864736f6c63430008120033",
  "libraries": {
    "Color": "0x68AD5E2e4709849e1730aFF98C9b78648EF2752d"
  },
  "devdoc": {
    "events": {
      "Approval(address,address,uint256)": {
        "details": "Emitted when `owner` enables `approved` to manage the `tokenId` token."
      },
      "ApprovalForAll(address,address,bool)": {
        "details": "Emitted when `owner` enables or disables (`approved`) `operator` to manage all of its assets."
      },
      "Transfer(address,address,uint256)": {
        "details": "Emitted when `tokenId` token is transferred from `from` to `to`."
      }
    },
    "kind": "dev",
    "methods": {
      "approve(address,uint256)": {
        "details": "See {IERC721-approve}."
      },
      "balanceOf(address)": {
        "details": "See {IERC721-balanceOf}."
      },
      "getApproved(uint256)": {
        "details": "See {IERC721-getApproved}."
      },
      "isApprovedForAll(address,address)": {
        "details": "See {IERC721-isApprovedForAll}."
      },
      "name()": {
        "details": "See {IERC721Metadata-name}."
      },
      "owner()": {
        "details": "Returns the address of the current owner."
      },
      "ownerOf(uint256)": {
        "details": "See {IERC721-ownerOf}."
      },
      "renounceOwnership()": {
        "details": "Leaves the contract without owner. It will not be possible to call `onlyOwner` functions anymore. Can only be called by the current owner. NOTE: Renouncing ownership will leave the contract without an owner, thereby removing any functionality that is only available to the owner."
      },
      "safeTransferFrom(address,address,uint256)": {
        "details": "See {IERC721-safeTransferFrom}."
      },
      "safeTransferFrom(address,address,uint256,bytes)": {
        "details": "See {IERC721-safeTransferFrom}."
      },
      "setApprovalForAll(address,bool)": {
        "details": "See {IERC721-setApprovalForAll}."
      },
      "symbol()": {
        "details": "See {IERC721Metadata-symbol}."
      },
      "tokenByIndex(uint256)": {
        "details": "See {IERC721Enumerable-tokenByIndex}."
      },
      "tokenOfOwnerByIndex(address,uint256)": {
        "details": "See {IERC721Enumerable-tokenOfOwnerByIndex}."
      },
      "tokenURI(uint256)": {
        "details": "See {IERC721Metadata-tokenURI}."
      },
      "totalSupply()": {
        "details": "See {IERC721Enumerable-totalSupply}."
      },
      "transferFrom(address,address,uint256)": {
        "details": "See {IERC721-transferFrom}."
      },
      "transferOwnership(address)": {
        "details": "Transfers ownership of the contract to a new account (`newOwner`). Can only be called by the current owner."
      }
    },
    "version": 1
  },
  "userdoc": {
    "kind": "user",
    "methods": {},
    "version": 1
  },
  "storageLayout": {
    "storage": [
      {
        "astId": 138,
        "contract": "contracts/chainellations/Chainellation.sol:Chainellation",
        "label": "_name",
        "offset": 0,
        "slot": "0",
        "type": "t_string_storage"
      },
      {
        "astId": 140,
        "contract": "contracts/chainellations/Chainellation.sol:Chainellation",
        "label": "_symbol",
        "offset": 0,
        "slot": "1",
        "type": "t_string_storage"
      },
      {
        "astId": 144,
        "contract": "contracts/chainellations/Chainellation.sol:Chainellation",
        "label": "_owners",
        "offset": 0,
        "slot": "2",
        "type": "t_mapping(t_uint256,t_address)"
      },
      {
        "astId": 148,
        "contract": "contracts/chainellations/Chainellation.sol:Chainellation",
        "label": "_balances",
        "offset": 0,
        "slot": "3",
        "type": "t_mapping(t_address,t_uint256)"
      },
      {
        "astId": 152,
        "contract": "contracts/chainellations/Chainellation.sol:Chainellation",
        "label": "_tokenApprovals",
        "offset": 0,
        "slot": "4",
        "type": "t_mapping(t_uint256,t_address)"
      },
      {
        "astId": 158,
        "contract": "contracts/chainellations/Chainellation.sol:Chainellation",
        "label": "_operatorApprovals",
        "offset": 0,
        "slot": "5",
        "type": "t_mapping(t_address,t_mapping(t_address,t_bool))"
      },
      {
        "astId": 1206,
        "contract": "contracts/chainellations/Chainellation.sol:Chainellation",
        "label": "_ownedTokens",
        "offset": 0,
        "slot": "6",
        "type": "t_mapping(t_address,t_mapping(t_uint256,t_uint256))"
      },
      {
        "astId": 1210,
        "contract": "contracts/chainellations/Chainellation.sol:Chainellation",
        "label": "_ownedTokensIndex",
        "offset": 0,
        "slot": "7",
        "type": "t_mapping(t_uint256,t_uint256)"
      },
      {
        "astId": 1213,
        "contract": "contracts/chainellations/Chainellation.sol:Chainellation",
        "label": "_allTokens",
        "offset": 0,
        "slot": "8",
        "type": "t_array(t_uint256)dyn_storage"
      },
      {
        "astId": 1217,
        "contract": "contracts/chainellations/Chainellation.sol:Chainellation",
        "label": "_allTokensIndex",
        "offset": 0,
        "slot": "9",
        "type": "t_mapping(t_uint256,t_uint256)"
      },
      {
        "astId": 7,
        "contract": "contracts/chainellations/Chainellation.sol:Chainellation",
        "label": "_owner",
        "offset": 0,
        "slot": "10",
        "type": "t_address"
      },
      {
        "astId": 3571,
        "contract": "contracts/chainellations/Chainellation.sol:Chainellation",
        "label": "currentSupply",
        "offset": 0,
        "slot": "11",
        "type": "t_uint256"
      },
      {
        "astId": 3574,
        "contract": "contracts/chainellations/Chainellation.sol:Chainellation",
        "label": "maxSupply",
        "offset": 0,
        "slot": "12",
        "type": "t_uint256"
      },
      {
        "astId": 3577,
        "contract": "contracts/chainellations/Chainellation.sol:Chainellation",
        "label": "mintCost",
        "offset": 0,
        "slot": "13",
        "type": "t_uint256"
      },
      {
        "astId": 3580,
        "contract": "contracts/chainellations/Chainellation.sol:Chainellation",
        "label": "customizeCost",
        "offset": 0,
        "slot": "14",
        "type": "t_uint256"
      },
      {
        "astId": 3585,
        "contract": "contracts/chainellations/Chainellation.sol:Chainellation",
        "label": "dnas",
        "offset": 0,
        "slot": "15",
        "type": "t_mapping(t_uint256,t_struct(DNA)3103_storage)"
      },
      {
        "astId": 3589,
        "contract": "contracts/chainellations/Chainellation.sol:Chainellation",
        "label": "timeZoneOffset",
        "offset": 0,
        "slot": "16",
        "type": "t_mapping(t_uint256,t_uint32)"
      },
      {
        "astId": 3593,
        "contract": "contracts/chainellations/Chainellation.sol:Chainellation",
        "label": "gazes",
        "offset": 0,
        "slot": "17",
        "type": "t_mapping(t_uint256,t_uint16)"
      },
      {
        "astId": 3597,
        "contract": "contracts/chainellations/Chainellation.sol:Chainellation",
        "label": "lastGaze",
        "offset": 0,
        "slot": "18",
        "type": "t_mapping(t_uint256,t_uint256)"
      },
      {
        "astId": 3601,
        "contract": "contracts/chainellations/Chainellation.sol:Chainellation",
        "label": "colors",
        "offset": 0,
        "slot": "19",
        "type": "t_mapping(t_uint256,t_uint32)"
      },
      {
        "astId": 3605,
        "contract": "contracts/chainellations/Chainellation.sol:Chainellation",
        "label": "constellation",
        "offset": 0,
        "slot": "20",
        "type": "t_mapping(t_uint256,t_uint8)"
      },
      {
        "astId": 3609,
        "contract": "contracts/chainellations/Chainellation.sol:Chainellation",
        "label": "cloudsAt",
        "offset": 0,
        "slot": "21",
        "type": "t_mapping(t_uint256,t_uint8)"
      },
      {
        "astId": 3611,
        "contract": "contracts/chainellations/Chainellation.sol:Chainellation",
        "label": "_decorator",
        "offset": 0,
        "slot": "22",
        "type": "t_address"
      },
      {
        "astId": 3614,
        "contract": "contracts/chainellations/Chainellation.sol:Chainellation",
        "label": "_chainellationRenderer",
        "offset": 0,
        "slot": "23",
        "type": "t_contract(IChainellationRenderer)9124"
      },
      {
        "astId": 3617,
        "contract": "contracts/chainellations/Chainellation.sol:Chainellation",
        "label": "_twoMoonsEvent",
        "offset": 0,
        "slot": "24",
        "type": "t_contract(ITwoMoonsEvent)9365"
      }
    ],
    "types": {
      "t_address": {
        "encoding": "inplace",
        "label": "address",
        "numberOfBytes": "20"
      },
      "t_array(t_uint256)dyn_storage": {
        "base": "t_uint256",
        "encoding": "dynamic_array",
        "label": "uint256[]",
        "numberOfBytes": "32"
      },
      "t_bool": {
        "encoding": "inplace",
        "label": "bool",
        "numberOfBytes": "1"
      },
      "t_contract(IChainellationRenderer)9124": {
        "encoding": "inplace",
        "label": "contract IChainellationRenderer",
        "numberOfBytes": "20"
      },
      "t_contract(ITwoMoonsEvent)9365": {
        "encoding": "inplace",
        "label": "contract ITwoMoonsEvent",
        "numberOfBytes": "20"
      },
      "t_mapping(t_address,t_bool)": {
        "encoding": "mapping",
        "key": "t_address",
        "label": "mapping(address => bool)",
        "numberOfBytes": "32",
        "value": "t_bool"
      },
      "t_mapping(t_address,t_mapping(t_address,t_bool))": {
        "encoding": "mapping",
        "key": "t_address",
        "label": "mapping(address => mapping(address => bool))",
        "numberOfBytes": "32",
        "value": "t_mapping(t_address,t_bool)"
      },
      "t_mapping(t_address,t_mapping(t_uint256,t_uint256))": {
        "encoding": "mapping",
        "key": "t_address",
        "label": "mapping(address => mapping(uint256 => uint256))",
        "numberOfBytes": "32",
        "value": "t_mapping(t_uint256,t_uint256)"
      },
      "t_mapping(t_address,t_uint256)": {
        "encoding": "mapping",
        "key": "t_address",
        "label": "mapping(address => uint256)",
        "numberOfBytes": "32",
        "value": "t_uint256"
      },
      "t_mapping(t_uint256,t_address)": {
        "encoding": "mapping",
        "key": "t_uint256",
        "label": "mapping(uint256 => address)",
        "numberOfBytes": "32",
        "value": "t_address"
      },
      "t_mapping(t_uint256,t_struct(DNA)3103_storage)": {
        "encoding": "mapping",
        "key": "t_uint256",
        "label": "mapping(uint256 => struct Color.DNA)",
        "numberOfBytes": "32",
        "value": "t_struct(DNA)3103_storage"
      },
      "t_mapping(t_uint256,t_uint16)": {
        "encoding": "mapping",
        "key": "t_uint256",
        "label": "mapping(uint256 => uint16)",
        "numberOfBytes": "32",
        "value": "t_uint16"
      },
      "t_mapping(t_uint256,t_uint256)": {
        "encoding": "mapping",
        "key": "t_uint256",
        "label": "mapping(uint256 => uint256)",
        "numberOfBytes": "32",
        "value": "t_uint256"
      },
      "t_mapping(t_uint256,t_uint32)": {
        "encoding": "mapping",
        "key": "t_uint256",
        "label": "mapping(uint256 => uint32)",
        "numberOfBytes": "32",
        "value": "t_uint32"
      },
      "t_mapping(t_uint256,t_uint8)": {
        "encoding": "mapping",
        "key": "t_uint256",
        "label": "mapping(uint256 => uint8)",
        "numberOfBytes": "32",
        "value": "t_uint8"
      },
      "t_string_storage": {
        "encoding": "bytes",
        "label": "string",
        "numberOfBytes": "32"
      },
      "t_struct(DNA)3103_storage": {
        "encoding": "inplace",
        "label": "struct Color.DNA",
        "members": [
          {
            "astId": 3086,
            "contract": "contracts/chainellations/Chainellation.sol:Chainellation",
            "label": "tokenId",
            "offset": 0,
            "slot": "0",
            "type": "t_uint256"
          },
          {
            "astId": 3088,
            "contract": "contracts/chainellations/Chainellation.sol:Chainellation",
            "label": "primaryHue",
            "offset": 0,
            "slot": "1",
            "type": "t_uint16"
          },
          {
            "astId": 3090,
            "contract": "contracts/chainellations/Chainellation.sol:Chainellation",
            "label": "secondaryHue",
            "offset": 2,
            "slot": "1",
            "type": "t_uint16"
          },
          {
            "astId": 3092,
            "contract": "contracts/chainellations/Chainellation.sol:Chainellation",
            "label": "constellation",
            "offset": 4,
            "slot": "1",
            "type": "t_uint8"
          },
          {
            "astId": 3094,
            "contract": "contracts/chainellations/Chainellation.sol:Chainellation",
            "label": "cloudsAt",
            "offset": 5,
            "slot": "1",
            "type": "t_uint8"
          },
          {
            "astId": 3096,
            "contract": "contracts/chainellations/Chainellation.sol:Chainellation",
            "label": "starSeed",
            "offset": 0,
            "slot": "2",
            "type": "t_uint256"
          },
          {
            "astId": 3098,
            "contract": "contracts/chainellations/Chainellation.sol:Chainellation",
            "label": "funkSeed",
            "offset": 0,
            "slot": "3",
            "type": "t_uint256"
          },
          {
            "astId": 3100,
            "contract": "contracts/chainellations/Chainellation.sol:Chainellation",
            "label": "circleSeed",
            "offset": 0,
            "slot": "4",
            "type": "t_uint256"
          },
          {
            "astId": 3102,
            "contract": "contracts/chainellations/Chainellation.sol:Chainellation",
            "label": "groundSeed",
            "offset": 0,
            "slot": "5",
            "type": "t_uint256"
          }
        ],
        "numberOfBytes": "192"
      },
      "t_uint16": {
        "encoding": "inplace",
        "label": "uint16",
        "numberOfBytes": "2"
      },
      "t_uint256": {
        "encoding": "inplace",
        "label": "uint256",
        "numberOfBytes": "32"
      },
      "t_uint32": {
        "encoding": "inplace",
        "label": "uint32",
        "numberOfBytes": "4"
      },
      "t_uint8": {
        "encoding": "inplace",
        "label": "uint8",
        "numberOfBytes": "1"
      }
    }
  }
}