{
  "address": "0xC5fb7C3232b88782d0c2a8D19A9dcF8b4c170239",
  "abi": [
    {
      "inputs": [
        {
          "internalType": "address",
          "name": "chainellation",
          "type": "address"
        }
      ],
      "stateMutability": "nonpayable",
      "type": "constructor"
    },
    {
      "inputs": [],
      "name": "AlreadyRegistered",
      "type": "error"
    },
    {
      "inputs": [],
      "name": "InvalidDecoType",
      "type": "error"
    },
    {
      "inputs": [],
      "name": "NotOwner",
      "type": "error"
    },
    {
      "anonymous": false,
      "inputs": [
        {
          "indexed": true,
          "internalType": "address",
          "name": "previousOwner",
          "type": "address"
        },
        {
          "indexed": true,
          "internalType": "address",
          "name": "newOwner",
          "type": "address"
        }
      ],
      "name": "OwnershipTransferred",
      "type": "event"
    },
    {
      "inputs": [],
      "name": "DECORATION_ONE",
      "outputs": [
        {
          "internalType": "uint8",
          "name": "",
          "type": "uint8"
        }
      ],
      "stateMutability": "view",
      "type": "function"
    },
    {
      "inputs": [],
      "name": "FOCUS",
      "outputs": [
        {
          "internalType": "uint8",
          "name": "",
          "type": "uint8"
        }
      ],
      "stateMutability": "view",
      "type": "function"
    },
    {
      "inputs": [],
      "name": "SILHOUTTE",
      "outputs": [
        {
          "internalType": "uint8",
          "name": "",
          "type": "uint8"
        }
      ],
      "stateMutability": "view",
      "type": "function"
    },
    {
      "inputs": [],
      "name": "SKY_MATH",
      "outputs": [
        {
          "internalType": "uint8",
          "name": "",
          "type": "uint8"
        }
      ],
      "stateMutability": "view",
      "type": "function"
    },
    {
      "inputs": [
        {
          "internalType": "uint256",
          "name": "",
          "type": "uint256"
        }
      ],
      "name": "allDecorations",
      "outputs": [
        {
          "internalType": "address",
          "name": "",
          "type": "address"
        }
      ],
      "stateMutability": "view",
      "type": "function"
    },
    {
      "inputs": [],
      "name": "getAllDecorations",
      "outputs": [
        {
          "internalType": "address[]",
          "name": "",
          "type": "address[]"
        }
      ],
      "stateMutability": "view",
      "type": "function"
    },
    {
      "inputs": [
        {
          "internalType": "address",
          "name": "user",
          "type": "address"
        }
      ],
      "name": "getAvailableDecorations",
      "outputs": [
        {
          "internalType": "address[]",
          "name": "",
          "type": "address[]"
        },
        {
          "internalType": "uint256[]",
          "name": "",
          "type": "uint256[]"
        }
      ],
      "stateMutability": "view",
      "type": "function"
    },
    {
      "inputs": [
        {
          "components": [
            {
              "internalType": "uint256",
              "name": "tokenId",
              "type": "uint256"
            },
            {
              "internalType": "uint16",
              "name": "primaryHue",
              "type": "uint16"
            },
            {
              "internalType": "uint16",
              "name": "secondaryHue",
              "type": "uint16"
            },
            {
              "internalType": "uint256",
              "name": "starSeed",
              "type": "uint256"
            },
            {
              "internalType": "uint256",
              "name": "funkSeed",
              "type": "uint256"
            },
            {
              "internalType": "uint256",
              "name": "circleSeed",
              "type": "uint256"
            },
            {
              "internalType": "uint256",
              "name": "groundSeed",
              "type": "uint256"
            },
            {
              "internalType": "uint256",
              "name": "constellationSeed",
              "type": "uint256"
            }
          ],
          "internalType": "struct Color.DNA",
          "name": "dna",
          "type": "tuple"
        },
        {
          "internalType": "uint256",
          "name": "gazes",
          "type": "uint256"
        },
        {
          "internalType": "bool",
          "name": "daytime",
          "type": "bool"
        }
      ],
      "name": "getDecorationOne",
      "outputs": [
        {
          "internalType": "string",
          "name": "",
          "type": "string"
        }
      ],
      "stateMutability": "view",
      "type": "function"
    },
    {
      "inputs": [
        {
          "components": [
            {
              "internalType": "uint256",
              "name": "tokenId",
              "type": "uint256"
            },
            {
              "internalType": "uint16",
              "name": "primaryHue",
              "type": "uint16"
            },
            {
              "internalType": "uint16",
              "name": "secondaryHue",
              "type": "uint16"
            },
            {
              "internalType": "uint256",
              "name": "starSeed",
              "type": "uint256"
            },
            {
              "internalType": "uint256",
              "name": "funkSeed",
              "type": "uint256"
            },
            {
              "internalType": "uint256",
              "name": "circleSeed",
              "type": "uint256"
            },
            {
              "internalType": "uint256",
              "name": "groundSeed",
              "type": "uint256"
            },
            {
              "internalType": "uint256",
              "name": "constellationSeed",
              "type": "uint256"
            }
          ],
          "internalType": "struct Color.DNA",
          "name": "dna",
          "type": "tuple"
        },
        {
          "internalType": "uint256",
          "name": "gazes",
          "type": "uint256"
        },
        {
          "internalType": "bool",
          "name": "daytime",
          "type": "bool"
        }
      ],
      "name": "getFocus",
      "outputs": [
        {
          "internalType": "string",
          "name": "",
          "type": "string"
        }
      ],
      "stateMutability": "view",
      "type": "function"
    },
    {
      "inputs": [
        {
          "components": [
            {
              "internalType": "uint256",
              "name": "tokenId",
              "type": "uint256"
            },
            {
              "internalType": "uint16",
              "name": "primaryHue",
              "type": "uint16"
            },
            {
              "internalType": "uint16",
              "name": "secondaryHue",
              "type": "uint16"
            },
            {
              "internalType": "uint256",
              "name": "starSeed",
              "type": "uint256"
            },
            {
              "internalType": "uint256",
              "name": "funkSeed",
              "type": "uint256"
            },
            {
              "internalType": "uint256",
              "name": "circleSeed",
              "type": "uint256"
            },
            {
              "internalType": "uint256",
              "name": "groundSeed",
              "type": "uint256"
            },
            {
              "internalType": "uint256",
              "name": "constellationSeed",
              "type": "uint256"
            }
          ],
          "internalType": "struct Color.DNA",
          "name": "dna",
          "type": "tuple"
        },
        {
          "internalType": "uint256",
          "name": "gazes",
          "type": "uint256"
        },
        {
          "internalType": "bool",
          "name": "daytime",
          "type": "bool"
        }
      ],
      "name": "getSilhouette",
      "outputs": [
        {
          "internalType": "string",
          "name": "",
          "type": "string"
        }
      ],
      "stateMutability": "view",
      "type": "function"
    },
    {
      "inputs": [
        {
          "components": [
            {
              "internalType": "uint256",
              "name": "tokenId",
              "type": "uint256"
            },
            {
              "internalType": "uint16",
              "name": "primaryHue",
              "type": "uint16"
            },
            {
              "internalType": "uint16",
              "name": "secondaryHue",
              "type": "uint16"
            },
            {
              "internalType": "uint256",
              "name": "starSeed",
              "type": "uint256"
            },
            {
              "internalType": "uint256",
              "name": "funkSeed",
              "type": "uint256"
            },
            {
              "internalType": "uint256",
              "name": "circleSeed",
              "type": "uint256"
            },
            {
              "internalType": "uint256",
              "name": "groundSeed",
              "type": "uint256"
            },
            {
              "internalType": "uint256",
              "name": "constellationSeed",
              "type": "uint256"
            }
          ],
          "internalType": "struct Color.DNA",
          "name": "dna",
          "type": "tuple"
        },
        {
          "internalType": "uint256",
          "name": "gazes",
          "type": "uint256"
        },
        {
          "internalType": "bool",
          "name": "daytime",
          "type": "bool"
        }
      ],
      "name": "getSkyMath",
      "outputs": [
        {
          "internalType": "string",
          "name": "",
          "type": "string"
        }
      ],
      "stateMutability": "view",
      "type": "function"
    },
    {
      "inputs": [],
      "name": "owner",
      "outputs": [
        {
          "internalType": "address",
          "name": "",
          "type": "address"
        }
      ],
      "stateMutability": "view",
      "type": "function"
    },
    {
      "inputs": [
        {
          "internalType": "address",
          "name": "_deco",
          "type": "address"
        },
        {
          "internalType": "uint8",
          "name": "spot",
          "type": "uint8"
        }
      ],
      "name": "register",
      "outputs": [],
      "stateMutability": "nonpayable",
      "type": "function"
    },
    {
      "inputs": [],
      "name": "renounceOwnership",
      "outputs": [],
      "stateMutability": "nonpayable",
      "type": "function"
    },
    {
      "inputs": [],
      "name": "reset",
      "outputs": [],
      "stateMutability": "nonpayable",
      "type": "function"
    },
    {
      "inputs": [
        {
          "internalType": "uint256",
          "name": "tokenId",
          "type": "uint256"
        },
        {
          "internalType": "uint8",
          "name": "decoType",
          "type": "uint8"
        },
        {
          "internalType": "address",
          "name": "deco",
          "type": "address"
        },
        {
          "internalType": "uint256",
          "name": "decoId",
          "type": "uint256"
        }
      ],
      "name": "setDecoration",
      "outputs": [],
      "stateMutability": "nonpayable",
      "type": "function"
    },
    {
      "inputs": [
        {
          "internalType": "uint256",
          "name": "tokenId",
          "type": "uint256"
        },
        {
          "internalType": "uint8[]",
          "name": "decoTypes",
          "type": "uint8[]"
        },
        {
          "internalType": "address[]",
          "name": "decos",
          "type": "address[]"
        },
        {
          "internalType": "uint256[]",
          "name": "decoIds",
          "type": "uint256[]"
        }
      ],
      "name": "setDecorationBatch",
      "outputs": [],
      "stateMutability": "nonpayable",
      "type": "function"
    },
    {
      "inputs": [
        {
          "internalType": "address",
          "name": "newOwner",
          "type": "address"
        }
      ],
      "name": "transferOwnership",
      "outputs": [],
      "stateMutability": "nonpayable",
      "type": "function"
    },
    {
      "inputs": [
        {
          "internalType": "address",
          "name": "_deco",
          "type": "address"
        }
      ],
      "name": "unregister",
      "outputs": [],
      "stateMutability": "nonpayable",
      "type": "function"
    },
    {
      "inputs": [],
      "name": "withdraw",
      "outputs": [],
      "stateMutability": "nonpayable",
      "type": "function"
    },
    {
      "inputs": [
        {
          "internalType": "address",
          "name": "_tokenContract",
          "type": "address"
        },
        {
          "internalType": "uint256",
          "name": "_amount",
          "type": "uint256"
        }
      ],
      "name": "withdrawToken",
      "outputs": [],
      "stateMutability": "nonpayable",
      "type": "function"
    }
  ],
  "transactionHash": "0x8f5f5a33dbcf360d6dc723f9db28d68d538dc0f518179af361934bcd10d53d7d",
  "args": [
    "0x414646540621CC43fB3CF7863D31A36e5D6D884b"
  ],
  "numDeployments": 2,
  "solcInputHash": "9885a51d7648daed0debc716e86be982",
  "bytecode": "0x608060405234801561001057600080fd5b5060405162001abc38038062001abc833981016040819052610031916100af565b61003a3361005f565b600180546001600160a01b0319166001600160a01b03929092169190911790556100df565b600080546001600160a01b038381166001600160a01b0319831681178455604051919092169283917f8be0079c531659141344cd1fd0a4f28419497f9722a3daafe3b4186f6b6457e09190a35050565b6000602082840312156100c157600080fd5b81516001600160a01b03811681146100d857600080fd5b9392505050565b6119cd80620000ef6000396000f3fe608060405234801561001057600080fd5b50600436106101775760003560e01c8063715018a6116100d8578063ac7c0ae71161008c578063d826f88f11610066578063d826f88f146102dc578063e5190844146102e4578063f2fde38b146102f757600080fd5b8063ac7c0ae7146102a0578063bcefc129146102a8578063d145c884146102bb57600080fd5b806394020555116100bd578063940205551461025a5780639e281a981461027a578063a1f4451e1461028d57600080fd5b8063715018a6146102415780638da5cb5b1461024957600080fd5b80633942a6b91161012f57806342a64f041161011457806342a64f041461021157806343341500146102265780636cdfb8281461022e57600080fd5b80633942a6b9146101de5780633ccfd60b1461020957600080fd5b8063291d438611610160578063291d4386146101a45780632d2ea544146101c35780632ec2c246146101cb57600080fd5b806307e495981461017c578063139885dd14610191575b600080fd5b61018f61018a366004611210565b61030a565b005b61018f61019f366004611245565b6103d4565b6101ac600381565b60405160ff90911681526020015b60405180910390f35b6101ac600481565b61018f6101d936600461128b565b6106b5565b6101f16101ec3660046112a8565b610854565b6040516001600160a01b0390911681526020016101ba565b61018f61087e565b6102196108b5565b6040516101ba9190611305565b6101ac600281565b61018f61023c36600461147c565b610917565b61018f610993565b6000546001600160a01b03166101f1565b61026d610268366004611597565b6109a7565b6040516101ba9190611665565b61018f610288366004611698565b610a9c565b61026d61029b366004611597565b610b33565b6101ac600181565b61026d6102b6366004611597565b610c67565b6102ce6102c936600461128b565b610d07565b6040516101ba9291906116c4565b61018f610f4d565b61026d6102f2366004611597565b610fd1565b61018f61030536600461128b565b611077565b610312611109565b6001600160a01b03821660009081526002602052604090205460ff1615610365576040517f3a81d6fc00000000000000000000000000000000000000000000000000000000815260040160405180910390fd5b6001600160a01b03919091166000818152600260205260408120805460ff191660ff909416939093179092556003805460018101825592527fc2575a0e9e593c00f959f8c92f12db2869c3395a3b0502d05e2516446f71f85b90910180546001600160a01b0319169091179055565b6001546040516331a9108f60e11b81526004810186905233916001600160a01b031690636352211e90602401602060405180830381865afa15801561041d573d6000803e3d6000fd5b505050506040513d601f19601f82011682018060405250810190610441919061171b565b6001600160a01b031614610468576040516330cd747160e01b815260040160405180910390fd5b6040516331a9108f60e11b81526004810182905233906001600160a01b03841690636352211e90602401602060405180830381865afa1580156104af573d6000803e3d6000fd5b505050506040513d601f19601f820116820180604052508101906104d3919061171b565b6001600160a01b0316146104fa576040516330cd747160e01b815260040160405180910390fd5b6001600160a01b03821660009081526002602052604090205460ff8481169116146105385760405163ec64f18d60e01b815260040160405180910390fd5b6040517f06febcba000000000000000000000000000000000000000000000000000000008152600481018290526001600160a01b038316906306febcba90602401600060405180830381600087803b15801561059357600080fd5b505af11580156105a7573d6000803e3d6000fd5b50505050600160ff168360ff16036105e557600084815260046020526040902080546001600160a01b0319166001600160a01b0384161790556106af565b60011960ff84160161062057600084815260046020526040902060010180546001600160a01b0319166001600160a01b0384161790556106af565b60021960ff84160161065b57600084815260046020526040902060020180546001600160a01b0319166001600160a01b0384161790556106af565b60031960ff84160161069657600084815260046020526040902060030180546001600160a01b0319166001600160a01b0384161790556106af565b60405163ec64f18d60e01b815260040160405180910390fd5b50505050565b6106bd611109565b6001600160a01b0381166000908152600260205260408120805460ff19169055805b6003546106ee9060019061174e565b81101561074657826001600160a01b03166003828154811061071257610712611767565b6000918252602090912001546001600160a01b03160361073457809150610746565b8061073e8161177d565b9150506106df565b50805b6003546107589060019061174e565b8110156107e357600361076c826001611796565b8154811061077c5761077c611767565b600091825260209091200154600380546001600160a01b0390921691839081106107a8576107a8611767565b600091825260209091200180546001600160a01b0319166001600160a01b0392909216919091179055806107db8161177d565b915050610749565b50600380546107f49060019061174e565b8154811061080457610804611767565b600091825260209091200180546001600160a01b0319169055600380548061082e5761082e6117a9565b600082815260209020810160001990810180546001600160a01b03191690550190555050565b6003818154811061086457600080fd5b6000918252602090912001546001600160a01b0316905081565b610886611109565b60405133904780156108fc02916000818181858888f193505050501580156108b2573d6000803e3d6000fd5b50565b6060600380548060200260200160405190810160405280929190818152602001828054801561090d57602002820191906000526020600020905b81546001600160a01b031681526001909101906020018083116108ef575b5050505050905090565b60005b815181101561098c5761097a8585838151811061093957610939611767565b602002602001015185848151811061095357610953611767565b602002602001015185858151811061096d5761096d611767565b60200260200101516103d4565b806109848161177d565b91505061091a565b5050505050565b61099b611109565b6109a56000611163565b565b82516000908152600460205260409020600101546060906001600160a01b0316610a05575060408051808201909152601481527f3c672069643d22736b796d617468223e3c2f673e0000000000000000000000006020820152610a95565b83516000908152600460208190526040918290206001015486519251633792591960e01b81526001600160a01b0390911692633792591992610a4d92899189918991016117bf565b600060405180830381865afa158015610a6a573d6000803e3d6000fd5b505050506040513d6000823e601f3d908101601f19168201604052610a929190810190611842565b90505b9392505050565b610aa4611109565b6040517fa9059cbb000000000000000000000000000000000000000000000000000000008152336004820152602481018290526001600160a01b0383169063a9059cbb906044016020604051808303816000875af1158015610b0a573d6000803e3d6000fd5b505050506040513d601f19601f82011682018060405250810190610b2e91906118d6565b505050565b82516000908152600460205260409020600301546060906001600160a01b0316610c1f578260e08501516040517f5b33e80e000000000000000000000000000000000000000000000000000000008152600481019190915260ff8216602482015273f6Dc45470a6a099834E0497DBBBE927f0854c5e290635b33e80e90604401600060405180830381865af4158015610bd0573d6000803e3d6000fd5b505050506040513d6000823e601f3d908101601f19168201604052610bf89190810190611842565b604051602001610c0891906118f3565b604051602081830303815290604052915050610a95565b83516000908152600460208190526040918290206003015486519251633792591960e01b81526001600160a01b0390911692633792591992610a4d92899189918991016117bf565b82516000908152600460205260409020546060906001600160a01b0316610cc2575060408051808201909152601781527f3c672069643d2273696c686f7565747465223e3c2f673e0000000000000000006020820152610a95565b83516000908152600460208190526040918290205486519251633792591960e01b81526001600160a01b0390911692633792591992610a4d92899189918991016117bf565b606080600060038054905067ffffffffffffffff811115610d2a57610d2a611318565b604051908082528060200260200182016040528015610d53578160200160208202803683370190505b5060035490915060009067ffffffffffffffff811115610d7557610d75611318565b604051908082528060200260200182016040528015610d9e578160200160208202803683370190505b50905060005b60035460ff82161015610f4257600060038260ff1681548110610dc957610dc9611767565b6000918252602090912001546040517f70a082310000000000000000000000000000000000000000000000000000000081526001600160a01b038981166004830152909116906370a0823190602401602060405180830381865afa158015610e35573d6000803e3d6000fd5b505050506040513d601f19601f82011682018060405250810190610e59919061195f565b1115610f305760038160ff1681548110610e7557610e75611767565b9060005260206000200160009054906101000a90046001600160a01b0316838260ff1681518110610ea857610ea8611767565b60200260200101906001600160a01b031690816001600160a01b0316815250506002600060038360ff1681548110610ee257610ee2611767565b60009182526020808320909101546001600160a01b03168352820192909252604001902054825160ff918216918491908416908110610f2357610f23611767565b6020026020010181815250505b80610f3a81611978565b915050610da4565b509094909350915050565b610f55611109565b60005b600354811015610fc45760006002600060038481548110610f7b57610f7b611767565b6000918252602080832091909101546001600160a01b031683528201929092526040019020805460ff191660ff9290921691909117905580610fbc8161177d565b915050610f58565b506109a5600360006111b3565b82516000908152600460205260409020600201546060906001600160a01b031661102f575060408051808201909152601181527f3c672069643d226465636f223e3c2f673e0000000000000000000000000000006020820152610a95565b83516000908152600460208190526040918290206002015486519251633792591960e01b81526001600160a01b0390911692633792591992610a4d92899189918991016117bf565b61107f611109565b6001600160a01b0381166111005760405162461bcd60e51b815260206004820152602660248201527f4f776e61626c653a206e6577206f776e657220697320746865207a65726f206160448201527f646472657373000000000000000000000000000000000000000000000000000060648201526084015b60405180910390fd5b6108b281611163565b6000546001600160a01b031633146109a55760405162461bcd60e51b815260206004820181905260248201527f4f776e61626c653a2063616c6c6572206973206e6f7420746865206f776e657260448201526064016110f7565b600080546001600160a01b038381166001600160a01b0319831681178455604051919092169283917f8be0079c531659141344cd1fd0a4f28419497f9722a3daafe3b4186f6b6457e09190a35050565b50805460008255906000526020600020908101906108b291905b808211156111e157600081556001016111cd565b5090565b6001600160a01b03811681146108b257600080fd5b803560ff8116811461120b57600080fd5b919050565b6000806040838503121561122357600080fd5b823561122e816111e5565b915061123c602084016111fa565b90509250929050565b6000806000806080858703121561125b57600080fd5b8435935061126b602086016111fa565b9250604085013561127b816111e5565b9396929550929360600135925050565b60006020828403121561129d57600080fd5b8135610a95816111e5565b6000602082840312156112ba57600080fd5b5035919050565b600081518084526020808501945080840160005b838110156112fa5781516001600160a01b0316875295820195908201906001016112d5565b509495945050505050565b602081526000610a9560208301846112c1565b634e487b7160e01b600052604160045260246000fd5b604051610100810167ffffffffffffffff8111828210171561135257611352611318565b60405290565b604051601f8201601f1916810167ffffffffffffffff8111828210171561138157611381611318565b604052919050565b600067ffffffffffffffff8211156113a3576113a3611318565b5060051b60200190565b600082601f8301126113be57600080fd5b813560206113d36113ce83611389565b611358565b82815260059290921b840181019181810190868411156113f257600080fd5b8286015b84811015611416578035611409816111e5565b83529183019183016113f6565b509695505050505050565b600082601f83011261143257600080fd5b813560206114426113ce83611389565b82815260059290921b8401810191818101908684111561146157600080fd5b8286015b848110156114165780358352918301918301611465565b6000806000806080858703121561149257600080fd5b8435935060208086013567ffffffffffffffff808211156114b257600080fd5b818801915088601f8301126114c657600080fd5b81356114d46113ce82611389565b81815260059190911b8301840190848101908b8311156114f357600080fd5b938501935b8285101561151857611509856111fa565b825293850193908501906114f8565b97505050604088013592508083111561153057600080fd5b61153c89848a016113ad565b9450606088013592508083111561155257600080fd5b505061156087828801611421565b91505092959194509250565b803561ffff8116811461120b57600080fd5b80151581146108b257600080fd5b803561120b8161157e565b60008060008385036101408112156115ae57600080fd5b610100808212156115be57600080fd5b6115c661132e565b9150853582526115d86020870161156c565b60208301526115e96040870161156c565b6040830152606086013560608301526080860135608083015260a086013560a083015260c086013560c083015260e086013560e08301528194508086013593505050611638610120850161158c565b90509250925092565b60005b8381101561165c578181015183820152602001611644565b50506000910152565b6020815260008251806020840152611684816040850160208701611641565b601f01601f19169190910160400192915050565b600080604083850312156116ab57600080fd5b82356116b6816111e5565b946020939093013593505050565b6040815260006116d760408301856112c1565b82810360208481019190915284518083528582019282019060005b8181101561170e578451835293830193918301916001016116f2565b5090979650505050505050565b60006020828403121561172d57600080fd5b8151610a95816111e5565b634e487b7160e01b600052601160045260246000fd5b8181038181111561176157611761611738565b92915050565b634e487b7160e01b600052603260045260246000fd5b60006001820161178f5761178f611738565b5060010190565b8082018082111561176157611761611738565b634e487b7160e01b600052603160045260246000fd5b60006101608201905085825284516020830152602085015161ffff8082166040850152806040880151166060850152505060608501516080830152608085015160a083015260a085015160c083015260c085015160e083015260e08501516101008301528361012083015261183961014083018415159052565b95945050505050565b60006020828403121561185457600080fd5b815167ffffffffffffffff8082111561186c57600080fd5b818401915084601f83011261188057600080fd5b81518181111561189257611892611318565b6118a5601f8201601f1916602001611358565b91508082528560208285010111156118bc57600080fd5b6118cd816020840160208601611641565b50949350505050565b6000602082840312156118e857600080fd5b8151610a958161157e565b7f3c672069643d22666f637573223e00000000000000000000000000000000000081526000825161192b81600e850160208701611641565b7f3c2f673e00000000000000000000000000000000000000000000000000000000600e939091019283015250601201919050565b60006020828403121561197157600080fd5b5051919050565b600060ff821660ff810361198e5761198e611738565b6001019291505056fea26469706673582212201dffd93083106817ee3e9b010e1897afa6244b242052bf3141b306da35fbe0eb64736f6c63430008120033",
  "deployedBytecode": "0x608060405234801561001057600080fd5b50600436106101775760003560e01c8063715018a6116100d8578063ac7c0ae71161008c578063d826f88f11610066578063d826f88f146102dc578063e5190844146102e4578063f2fde38b146102f757600080fd5b8063ac7c0ae7146102a0578063bcefc129146102a8578063d145c884146102bb57600080fd5b806394020555116100bd578063940205551461025a5780639e281a981461027a578063a1f4451e1461028d57600080fd5b8063715018a6146102415780638da5cb5b1461024957600080fd5b80633942a6b91161012f57806342a64f041161011457806342a64f041461021157806343341500146102265780636cdfb8281461022e57600080fd5b80633942a6b9146101de5780633ccfd60b1461020957600080fd5b8063291d438611610160578063291d4386146101a45780632d2ea544146101c35780632ec2c246146101cb57600080fd5b806307e495981461017c578063139885dd14610191575b600080fd5b61018f61018a366004611210565b61030a565b005b61018f61019f366004611245565b6103d4565b6101ac600381565b60405160ff90911681526020015b60405180910390f35b6101ac600481565b61018f6101d936600461128b565b6106b5565b6101f16101ec3660046112a8565b610854565b6040516001600160a01b0390911681526020016101ba565b61018f61087e565b6102196108b5565b6040516101ba9190611305565b6101ac600281565b61018f61023c36600461147c565b610917565b61018f610993565b6000546001600160a01b03166101f1565b61026d610268366004611597565b6109a7565b6040516101ba9190611665565b61018f610288366004611698565b610a9c565b61026d61029b366004611597565b610b33565b6101ac600181565b61026d6102b6366004611597565b610c67565b6102ce6102c936600461128b565b610d07565b6040516101ba9291906116c4565b61018f610f4d565b61026d6102f2366004611597565b610fd1565b61018f61030536600461128b565b611077565b610312611109565b6001600160a01b03821660009081526002602052604090205460ff1615610365576040517f3a81d6fc00000000000000000000000000000000000000000000000000000000815260040160405180910390fd5b6001600160a01b03919091166000818152600260205260408120805460ff191660ff909416939093179092556003805460018101825592527fc2575a0e9e593c00f959f8c92f12db2869c3395a3b0502d05e2516446f71f85b90910180546001600160a01b0319169091179055565b6001546040516331a9108f60e11b81526004810186905233916001600160a01b031690636352211e90602401602060405180830381865afa15801561041d573d6000803e3d6000fd5b505050506040513d601f19601f82011682018060405250810190610441919061171b565b6001600160a01b031614610468576040516330cd747160e01b815260040160405180910390fd5b6040516331a9108f60e11b81526004810182905233906001600160a01b03841690636352211e90602401602060405180830381865afa1580156104af573d6000803e3d6000fd5b505050506040513d601f19601f820116820180604052508101906104d3919061171b565b6001600160a01b0316146104fa576040516330cd747160e01b815260040160405180910390fd5b6001600160a01b03821660009081526002602052604090205460ff8481169116146105385760405163ec64f18d60e01b815260040160405180910390fd5b6040517f06febcba000000000000000000000000000000000000000000000000000000008152600481018290526001600160a01b038316906306febcba90602401600060405180830381600087803b15801561059357600080fd5b505af11580156105a7573d6000803e3d6000fd5b50505050600160ff168360ff16036105e557600084815260046020526040902080546001600160a01b0319166001600160a01b0384161790556106af565b60011960ff84160161062057600084815260046020526040902060010180546001600160a01b0319166001600160a01b0384161790556106af565b60021960ff84160161065b57600084815260046020526040902060020180546001600160a01b0319166001600160a01b0384161790556106af565b60031960ff84160161069657600084815260046020526040902060030180546001600160a01b0319166001600160a01b0384161790556106af565b60405163ec64f18d60e01b815260040160405180910390fd5b50505050565b6106bd611109565b6001600160a01b0381166000908152600260205260408120805460ff19169055805b6003546106ee9060019061174e565b81101561074657826001600160a01b03166003828154811061071257610712611767565b6000918252602090912001546001600160a01b03160361073457809150610746565b8061073e8161177d565b9150506106df565b50805b6003546107589060019061174e565b8110156107e357600361076c826001611796565b8154811061077c5761077c611767565b600091825260209091200154600380546001600160a01b0390921691839081106107a8576107a8611767565b600091825260209091200180546001600160a01b0319166001600160a01b0392909216919091179055806107db8161177d565b915050610749565b50600380546107f49060019061174e565b8154811061080457610804611767565b600091825260209091200180546001600160a01b0319169055600380548061082e5761082e6117a9565b600082815260209020810160001990810180546001600160a01b03191690550190555050565b6003818154811061086457600080fd5b6000918252602090912001546001600160a01b0316905081565b610886611109565b60405133904780156108fc02916000818181858888f193505050501580156108b2573d6000803e3d6000fd5b50565b6060600380548060200260200160405190810160405280929190818152602001828054801561090d57602002820191906000526020600020905b81546001600160a01b031681526001909101906020018083116108ef575b5050505050905090565b60005b815181101561098c5761097a8585838151811061093957610939611767565b602002602001015185848151811061095357610953611767565b602002602001015185858151811061096d5761096d611767565b60200260200101516103d4565b806109848161177d565b91505061091a565b5050505050565b61099b611109565b6109a56000611163565b565b82516000908152600460205260409020600101546060906001600160a01b0316610a05575060408051808201909152601481527f3c672069643d22736b796d617468223e3c2f673e0000000000000000000000006020820152610a95565b83516000908152600460208190526040918290206001015486519251633792591960e01b81526001600160a01b0390911692633792591992610a4d92899189918991016117bf565b600060405180830381865afa158015610a6a573d6000803e3d6000fd5b505050506040513d6000823e601f3d908101601f19168201604052610a929190810190611842565b90505b9392505050565b610aa4611109565b6040517fa9059cbb000000000000000000000000000000000000000000000000000000008152336004820152602481018290526001600160a01b0383169063a9059cbb906044016020604051808303816000875af1158015610b0a573d6000803e3d6000fd5b505050506040513d601f19601f82011682018060405250810190610b2e91906118d6565b505050565b82516000908152600460205260409020600301546060906001600160a01b0316610c1f578260e08501516040517f5b33e80e000000000000000000000000000000000000000000000000000000008152600481019190915260ff8216602482015273__$a8306bbe53a8cb7e168140ba991fce4a09$__90635b33e80e90604401600060405180830381865af4158015610bd0573d6000803e3d6000fd5b505050506040513d6000823e601f3d908101601f19168201604052610bf89190810190611842565b604051602001610c0891906118f3565b604051602081830303815290604052915050610a95565b83516000908152600460208190526040918290206003015486519251633792591960e01b81526001600160a01b0390911692633792591992610a4d92899189918991016117bf565b82516000908152600460205260409020546060906001600160a01b0316610cc2575060408051808201909152601781527f3c672069643d2273696c686f7565747465223e3c2f673e0000000000000000006020820152610a95565b83516000908152600460208190526040918290205486519251633792591960e01b81526001600160a01b0390911692633792591992610a4d92899189918991016117bf565b606080600060038054905067ffffffffffffffff811115610d2a57610d2a611318565b604051908082528060200260200182016040528015610d53578160200160208202803683370190505b5060035490915060009067ffffffffffffffff811115610d7557610d75611318565b604051908082528060200260200182016040528015610d9e578160200160208202803683370190505b50905060005b60035460ff82161015610f4257600060038260ff1681548110610dc957610dc9611767565b6000918252602090912001546040517f70a082310000000000000000000000000000000000000000000000000000000081526001600160a01b038981166004830152909116906370a0823190602401602060405180830381865afa158015610e35573d6000803e3d6000fd5b505050506040513d601f19601f82011682018060405250810190610e59919061195f565b1115610f305760038160ff1681548110610e7557610e75611767565b9060005260206000200160009054906101000a90046001600160a01b0316838260ff1681518110610ea857610ea8611767565b60200260200101906001600160a01b031690816001600160a01b0316815250506002600060038360ff1681548110610ee257610ee2611767565b60009182526020808320909101546001600160a01b03168352820192909252604001902054825160ff918216918491908416908110610f2357610f23611767565b6020026020010181815250505b80610f3a81611978565b915050610da4565b509094909350915050565b610f55611109565b60005b600354811015610fc45760006002600060038481548110610f7b57610f7b611767565b6000918252602080832091909101546001600160a01b031683528201929092526040019020805460ff191660ff9290921691909117905580610fbc8161177d565b915050610f58565b506109a5600360006111b3565b82516000908152600460205260409020600201546060906001600160a01b031661102f575060408051808201909152601181527f3c672069643d226465636f223e3c2f673e0000000000000000000000000000006020820152610a95565b83516000908152600460208190526040918290206002015486519251633792591960e01b81526001600160a01b0390911692633792591992610a4d92899189918991016117bf565b61107f611109565b6001600160a01b0381166111005760405162461bcd60e51b815260206004820152602660248201527f4f776e61626c653a206e6577206f776e657220697320746865207a65726f206160448201527f646472657373000000000000000000000000000000000000000000000000000060648201526084015b60405180910390fd5b6108b281611163565b6000546001600160a01b031633146109a55760405162461bcd60e51b815260206004820181905260248201527f4f776e61626c653a2063616c6c6572206973206e6f7420746865206f776e657260448201526064016110f7565b600080546001600160a01b038381166001600160a01b0319831681178455604051919092169283917f8be0079c531659141344cd1fd0a4f28419497f9722a3daafe3b4186f6b6457e09190a35050565b50805460008255906000526020600020908101906108b291905b808211156111e157600081556001016111cd565b5090565b6001600160a01b03811681146108b257600080fd5b803560ff8116811461120b57600080fd5b919050565b6000806040838503121561122357600080fd5b823561122e816111e5565b915061123c602084016111fa565b90509250929050565b6000806000806080858703121561125b57600080fd5b8435935061126b602086016111fa565b9250604085013561127b816111e5565b9396929550929360600135925050565b60006020828403121561129d57600080fd5b8135610a95816111e5565b6000602082840312156112ba57600080fd5b5035919050565b600081518084526020808501945080840160005b838110156112fa5781516001600160a01b0316875295820195908201906001016112d5565b509495945050505050565b602081526000610a9560208301846112c1565b634e487b7160e01b600052604160045260246000fd5b604051610100810167ffffffffffffffff8111828210171561135257611352611318565b60405290565b604051601f8201601f1916810167ffffffffffffffff8111828210171561138157611381611318565b604052919050565b600067ffffffffffffffff8211156113a3576113a3611318565b5060051b60200190565b600082601f8301126113be57600080fd5b813560206113d36113ce83611389565b611358565b82815260059290921b840181019181810190868411156113f257600080fd5b8286015b84811015611416578035611409816111e5565b83529183019183016113f6565b509695505050505050565b600082601f83011261143257600080fd5b813560206114426113ce83611389565b82815260059290921b8401810191818101908684111561146157600080fd5b8286015b848110156114165780358352918301918301611465565b6000806000806080858703121561149257600080fd5b8435935060208086013567ffffffffffffffff808211156114b257600080fd5b818801915088601f8301126114c657600080fd5b81356114d46113ce82611389565b81815260059190911b8301840190848101908b8311156114f357600080fd5b938501935b8285101561151857611509856111fa565b825293850193908501906114f8565b97505050604088013592508083111561153057600080fd5b61153c89848a016113ad565b9450606088013592508083111561155257600080fd5b505061156087828801611421565b91505092959194509250565b803561ffff8116811461120b57600080fd5b80151581146108b257600080fd5b803561120b8161157e565b60008060008385036101408112156115ae57600080fd5b610100808212156115be57600080fd5b6115c661132e565b9150853582526115d86020870161156c565b60208301526115e96040870161156c565b6040830152606086013560608301526080860135608083015260a086013560a083015260c086013560c083015260e086013560e08301528194508086013593505050611638610120850161158c565b90509250925092565b60005b8381101561165c578181015183820152602001611644565b50506000910152565b6020815260008251806020840152611684816040850160208701611641565b601f01601f19169190910160400192915050565b600080604083850312156116ab57600080fd5b82356116b6816111e5565b946020939093013593505050565b6040815260006116d760408301856112c1565b82810360208481019190915284518083528582019282019060005b8181101561170e578451835293830193918301916001016116f2565b5090979650505050505050565b60006020828403121561172d57600080fd5b8151610a95816111e5565b634e487b7160e01b600052601160045260246000fd5b8181038181111561176157611761611738565b92915050565b634e487b7160e01b600052603260045260246000fd5b60006001820161178f5761178f611738565b5060010190565b8082018082111561176157611761611738565b634e487b7160e01b600052603160045260246000fd5b60006101608201905085825284516020830152602085015161ffff8082166040850152806040880151166060850152505060608501516080830152608085015160a083015260a085015160c083015260c085015160e083015260e08501516101008301528361012083015261183961014083018415159052565b95945050505050565b60006020828403121561185457600080fd5b815167ffffffffffffffff8082111561186c57600080fd5b818401915084601f83011261188057600080fd5b81518181111561189257611892611318565b6118a5601f8201601f1916602001611358565b91508082528560208285010111156118bc57600080fd5b6118cd816020840160208601611641565b50949350505050565b6000602082840312156118e857600080fd5b8151610a958161157e565b7f3c672069643d22666f637573223e00000000000000000000000000000000000081526000825161192b81600e850160208701611641565b7f3c2f673e00000000000000000000000000000000000000000000000000000000600e939091019283015250601201919050565b60006020828403121561197157600080fd5b5051919050565b600060ff821660ff810361198e5761198e611738565b6001019291505056fea26469706673582212201dffd93083106817ee3e9b010e1897afa6244b242052bf3141b306da35fbe0eb64736f6c63430008120033",
  "libraries": {
    "Color": "0xbB158e58EE3b8fb58335E9E3B076240205333C72",
    "Constellations": "0xf6Dc45470a6a099834E0497DBBBE927f0854c5e2"
  },
  "devdoc": {
    "kind": "dev",
    "methods": {
      "owner()": {
        "details": "Returns the address of the current owner."
      },
      "renounceOwnership()": {
        "details": "Leaves the contract without owner. It will not be possible to call `onlyOwner` functions anymore. Can only be called by the current owner. NOTE: Renouncing ownership will leave the contract without an owner, thereby removing any functionality that is only available to the owner."
      },
      "transferOwnership(address)": {
        "details": "Transfers ownership of the contract to a new account (`newOwner`). Can only be called by the current owner."
      }
    },
    "version": 1
  },
  "userdoc": {
    "kind": "user",
    "methods": {},
    "version": 1
  },
  "storageLayout": {
    "storage": [
      {
        "astId": 7,
        "contract": "contracts/chainellations/Decorations.sol:Decorations",
        "label": "_owner",
        "offset": 0,
        "slot": "0",
        "type": "t_address"
      },
      {
        "astId": 3471,
        "contract": "contracts/chainellations/Decorations.sol:Decorations",
        "label": "_chainellation",
        "offset": 0,
        "slot": "1",
        "type": "t_address"
      },
      {
        "astId": 3475,
        "contract": "contracts/chainellations/Decorations.sol:Decorations",
        "label": "_slot",
        "offset": 0,
        "slot": "2",
        "type": "t_mapping(t_address,t_uint8)"
      },
      {
        "astId": 3478,
        "contract": "contracts/chainellations/Decorations.sol:Decorations",
        "label": "allDecorations",
        "offset": 0,
        "slot": "3",
        "type": "t_array(t_address)dyn_storage"
      },
      {
        "astId": 3483,
        "contract": "contracts/chainellations/Decorations.sol:Decorations",
        "label": "_decorations",
        "offset": 0,
        "slot": "4",
        "type": "t_mapping(t_uint256,t_struct(Decoration)3457_storage)"
      }
    ],
    "types": {
      "t_address": {
        "encoding": "inplace",
        "label": "address",
        "numberOfBytes": "20"
      },
      "t_array(t_address)dyn_storage": {
        "base": "t_address",
        "encoding": "dynamic_array",
        "label": "address[]",
        "numberOfBytes": "32"
      },
      "t_mapping(t_address,t_uint8)": {
        "encoding": "mapping",
        "key": "t_address",
        "label": "mapping(address => uint8)",
        "numberOfBytes": "32",
        "value": "t_uint8"
      },
      "t_mapping(t_uint256,t_struct(Decoration)3457_storage)": {
        "encoding": "mapping",
        "key": "t_uint256",
        "label": "mapping(uint256 => struct Decorations.Decoration)",
        "numberOfBytes": "32",
        "value": "t_struct(Decoration)3457_storage"
      },
      "t_struct(Decoration)3457_storage": {
        "encoding": "inplace",
        "label": "struct Decorations.Decoration",
        "members": [
          {
            "astId": 3450,
            "contract": "contracts/chainellations/Decorations.sol:Decorations",
            "label": "silhouette",
            "offset": 0,
            "slot": "0",
            "type": "t_address"
          },
          {
            "astId": 3452,
            "contract": "contracts/chainellations/Decorations.sol:Decorations",
            "label": "skyMath",
            "offset": 0,
            "slot": "1",
            "type": "t_address"
          },
          {
            "astId": 3454,
            "contract": "contracts/chainellations/Decorations.sol:Decorations",
            "label": "decorationOne",
            "offset": 0,
            "slot": "2",
            "type": "t_address"
          },
          {
            "astId": 3456,
            "contract": "contracts/chainellations/Decorations.sol:Decorations",
            "label": "focus",
            "offset": 0,
            "slot": "3",
            "type": "t_address"
          }
        ],
        "numberOfBytes": "128"
      },
      "t_uint256": {
        "encoding": "inplace",
        "label": "uint256",
        "numberOfBytes": "32"
      },
      "t_uint8": {
        "encoding": "inplace",
        "label": "uint8",
        "numberOfBytes": "1"
      }
    }
  }
}